{
    "contractName": "Application",
    "abi": [
        {
            "inputs": [
                {
                    "internalType": "string",
                    "name": "_name",
                    "type": "string"
                },
                {
                    "internalType": "string",
                    "name": "_specialtyField",
                    "type": "string"
                },
                {
                    "internalType": "string",
                    "name": "_hightestDegree",
                    "type": "string"
                },
                {
                    "internalType": "uint16",
                    "name": "_yearEnded",
                    "type": "uint16"
                },
                {
                    "internalType": "string",
                    "name": "_qualificationDescription",
                    "type": "string"
                },
                {
                    "internalType": "uint16",
                    "name": "_teachingProductivity",
                    "type": "uint16"
                },
                {
                    "internalType": "uint16",
                    "name": "_productivityPercentage",
                    "type": "uint16"
                }
            ],
            "name": "createFaculty",
            "outputs": [],
            "stateMutability": "nonpayable",
            "type": "function"
        },
        {
            "inputs": [
                {
                    "internalType": "string",
                    "name": "_name",
                    "type": "string"
                }
            ],
            "name": "createInstitution",
            "outputs": [],
            "stateMutability": "nonpayable",
            "type": "function"
        },
        {
            "inputs": [
                {
                    "internalType": "uint256",
                    "name": "",
                    "type": "uint256"
                }
            ],
            "name": "faculties",
            "outputs": [
                {
                    "internalType": "contract Faculty",
                    "name": "",
                    "type": "address"
                }
            ],
            "stateMutability": "view",
            "type": "function"
        },
        {
            "inputs": [
                {
                    "internalType": "uint256",
                    "name": "",
                    "type": "uint256"
                }
            ],
            "name": "institutions",
            "outputs": [
                {
                    "internalType": "contract Institution",
                    "name": "",
                    "type": "address"
                }
            ],
            "stateMutability": "view",
            "type": "function"
        }
    ],
    "bytecode": "60806040526000600155600060035534801561001a57600080fd5b506117438061002a6000396000f3fe608060405234801561001057600080fd5b506004361061004c5760003560e01c8063029bf701146100515780632d5fc672146100f7578063c3b59d0014610347578063ca26e03a14610380575b600080fd5b6100f56004803603602081101561006757600080fd5b810190602081018135600160201b81111561008157600080fd5b82018360208201111561009357600080fd5b803590602001918460018302840111600160201b831117156100b457600080fd5b91908080601f01602080910402602001604051908101604052809392919081815260200183838082843760009201919091525092955061039d945050505050565b005b6100f5600480360360e081101561010d57600080fd5b810190602081018135600160201b81111561012757600080fd5b82018360208201111561013957600080fd5b803590602001918460018302840111600160201b8311171561015a57600080fd5b91908080601f0160208091040260200160405190810160405280939291908181526020018383808284376000920191909152509295949360208101935035915050600160201b8111156101ac57600080fd5b8201836020820111156101be57600080fd5b803590602001918460018302840111600160201b831117156101df57600080fd5b91908080601f0160208091040260200160405190810160405280939291908181526020018383808284376000920191909152509295949360208101935035915050600160201b81111561023157600080fd5b82018360208201111561024357600080fd5b803590602001918460018302840111600160201b8311171561026457600080fd5b91908080601f016020809104026020016040519081016040528093929190818152602001838380828437600092019190915250929561ffff853516959094909350604081019250602001359050600160201b8111156102c257600080fd5b8201836020820111156102d457600080fd5b803590602001918460018302840111600160201b831117156102f557600080fd5b91908080601f0160208091040260200160405190810160405280939291908181526020018383808284376000920191909152509295505061ffff83358116945060209093013590921691506104749050565b6103646004803603602081101561035d57600080fd5b50356106aa565b604080516001600160a01b039092168252519081900360200190f35b6103646004803603602081101561039657600080fd5b50356106c5565b60018054808201909155604051819083906103b7906106e0565b828152604060208083018281528451928401929092528351606084019185019080838360005b838110156103f55781810151838201526020016103dd565b50505050905090810190601f1680156104225780820380516001836020036101000a031916815260200191505b509350505050604051809103906000f080158015610444573d6000803e3d6000fd5b5060009182526020829052604090912080546001600160a01b0319166001600160a01b0390921691909117905550565b60038054600181019091556040518890889088908890889088908890610499906106ee565b808060200180602001806020018861ffff168152602001806020018761ffff1681526020018661ffff16815260200185810385528c818151815260200191508051906020019080838360005b838110156104fd5781810151838201526020016104e5565b50505050905090810190601f16801561052a5780820380516001836020036101000a031916815260200191505b5085810384528b5181528b516020918201918d019080838360005b8381101561055d578181015183820152602001610545565b50505050905090810190601f16801561058a5780820380516001836020036101000a031916815260200191505b5085810383528a5181528a516020918201918c019080838360005b838110156105bd5781810151838201526020016105a5565b50505050905090810190601f1680156105ea5780820380516001836020036101000a031916815260200191505b5085810382528851815288516020918201918a019080838360005b8381101561061d578181015183820152602001610605565b50505050905090810190601f16801561064a5780820380516001836020036101000a031916815260200191505b509b505050505050505050505050604051809103906000f080158015610674573d6000803e3d6000fd5b5060009182526002602052604090912080546001600160a01b0319166001600160a01b0390921691909117905550505050505050565b6000602081905290815260409020546001600160a01b031681565b6002602052600090815260409020546001600160a01b031681565b61071680620006fd83390190565b6108fb8062000e138339019056fe6080604052600060045534801561001557600080fd5b506040516107163803806107168339818101604052604081101561003857600080fd5b81516020830180516040519294929383019291908464010000000082111561005f57600080fd5b90830190602082018581111561007457600080fd5b825164010000000081118282018810171561008e57600080fd5b82525081516020918201929091019080838360005b838110156100bb5781810151838201526020016100a3565b50505050905090810190601f1680156100e85780820380516001836020036101000a031916815260200191505b5060405250505060008290558051610107906001906020840190610121565b5050600280546001600160a01b03191633179055506101c2565b828054600181600116156101000203166002900490600052602060002090601f016020900481019282610157576000855561019d565b82601f1061017057805160ff191683800117855561019d565b8280016001018555821561019d579182015b8281111561019d578251825591602001919060010190610182565b506101a99291506101ad565b5090565b5b808211156101a957600081556001016101ae565b610545806101d16000396000f3fe608060405234801561001057600080fd5b506004361061007d5760003560e01c80638da5cb5b1161005b5780638da5cb5b1461024d5780638f8b3a1514610271578063af640d0f1461031e578063c00e2c3d146103385761007d565b806306fdde03146100825780631b7b8dac146100ff5780633d7403a3146101a7575b600080fd5b61008a610340565b6040805160208082528351818301528351919283929083019185019080838360005b838110156100c45781810151838201526020016100ac565b50505050905090810190601f1680156100f15780820380516001836020036101000a031916815260200191505b509250505060405180910390f35b6101a56004803603602081101561011557600080fd5b81019060208101813564010000000081111561013057600080fd5b82018360208201111561014257600080fd5b8035906020019184600183028401116401000000008311171561016457600080fd5b91908080601f0160208091040260200160405190810160405280939291908181526020018383808284376000920191909152509295506103cd945050505050565b005b6101a5600480360360208110156101bd57600080fd5b8101906020810181356401000000008111156101d857600080fd5b8201836020820111156101ea57600080fd5b8035906020019184600183028401116401000000008311171561020c57600080fd5b91908080601f016020809104026020016040519081016040528093929190818152602001838380828437600092019190915250929550610410945050505050565b610255610427565b604080516001600160a01b039092168252519081900360200190f35b6101a56004803603604081101561028757600080fd5b813591908101906040810160208201356401000000008111156102a957600080fd5b8201836020820111156102bb57600080fd5b803590602001918460018302840111640100000000831117156102dd57600080fd5b91908080601f016020809104026020016040519081016040528093929190818152602001838380828437600092019190915250929550610436945050505050565b610326610462565b60408051918252519081900360200190f35b610326610468565b60018054604080516020600284861615610100026000190190941693909304601f810184900484028201840190925281815292918301828280156103c55780601f1061039a576101008083540402835291602001916103c5565b820191906000526020600020905b8154815290600101906020018083116103a857829003601f168201915b505050505081565b6004805460018082019092556000818152600360209081526040909120828155845192939092610403929184019186019061046e565b5060006003909101555050565b805161042390600190602084019061046e565b5050565b6002546001600160a01b031681565b60008281526003602090815260409091208251909161045c91600184019185019061046e565b50505050565b60005481565b60045481565b828054600181600116156101000203166002900490600052602060002090601f0160209004810192826104a457600085556104ea565b82601f106104bd57805160ff19168380011785556104ea565b828001600101855582156104ea579182015b828111156104ea5782518255916020019190600101906104cf565b506104f69291506104fa565b5090565b5b808211156104f657600081556001016104fb56fea2646970667358221220a2095e4dac27b3271c930ddee6e6f1f6867fcfd6607364a0d7d5cc3c16229e0164736f6c63430007050033608060405234801561001057600080fd5b506040516108fb3803806108fb833981810160405260e081101561003357600080fd5b810190808051604051939291908464010000000082111561005357600080fd5b90830190602082018581111561006857600080fd5b825164010000000081118282018810171561008257600080fd5b82525081516020918201929091019080838360005b838110156100af578181015183820152602001610097565b50505050905090810190601f1680156100dc5780820380516001836020036101000a031916815260200191505b50604052602001805160405193929190846401000000008211156100ff57600080fd5b90830190602082018581111561011457600080fd5b825164010000000081118282018810171561012e57600080fd5b82525081516020918201929091019080838360005b8381101561015b578181015183820152602001610143565b50505050905090810190601f1680156101885780820380516001836020036101000a031916815260200191505b50604052602001805160405193929190846401000000008211156101ab57600080fd5b9083019060208201858111156101c057600080fd5b82516401000000008111828201881017156101da57600080fd5b82525081516020918201929091019080838360005b838110156102075781810151838201526020016101ef565b50505050905090810190601f1680156102345780820380516001836020036101000a031916815260200191505b5060408181526020830151920180519294919391928464010000000082111561025c57600080fd5b90830190602082018581111561027157600080fd5b825164010000000081118282018810171561028b57600080fd5b82525081516020918201929091019080838360005b838110156102b85781810151838201526020016102a0565b50505050905090810190601f1680156102e55780820380516001836020036101000a031916815260200191505b50604090815260208281015192909101518951929450925061030c916001918a019061038d565b50855161032090600290602089019061038d565b50845161033490600390602088019061038d565b506004805461ffff191661ffff8616179055825161035990600590602086019061038d565b506006805461ffff928316620100000263ffff0000199490931661ffff1990911617929092161790555061042e9350505050565b828054600181600116156101000203166002900490600052602060002090601f0160209004810192826103c35760008555610409565b82601f106103dc57805160ff1916838001178555610409565b82800160010185558215610409579182015b828111156104095782518255916020019190600101906103ee565b50610415929150610419565b5090565b5b80821115610415576000815560010161041a565b6104be8061043d6000396000f3fe608060405234801561001057600080fd5b50600436106100365760003560e01c80636bd4f1eb1461003b578063d90c137e1461028d575b600080fd5b61028b600480360360e081101561005157600080fd5b810190602081018135600160201b81111561006b57600080fd5b82018360208201111561007d57600080fd5b803590602001918460018302840111600160201b8311171561009e57600080fd5b91908080601f0160208091040260200160405190810160405280939291908181526020018383808284376000920191909152509295949360208101935035915050600160201b8111156100f057600080fd5b82018360208201111561010257600080fd5b803590602001918460018302840111600160201b8311171561012357600080fd5b91908080601f0160208091040260200160405190810160405280939291908181526020018383808284376000920191909152509295949360208101935035915050600160201b81111561017557600080fd5b82018360208201111561018757600080fd5b803590602001918460018302840111600160201b831117156101a857600080fd5b91908080601f016020809104026020016040519081016040528093929190818152602001838380828437600092019190915250929561ffff853516959094909350604081019250602001359050600160201b81111561020657600080fd5b82018360208201111561021857600080fd5b803590602001918460018302840111600160201b8311171561023957600080fd5b91908080601f0160208091040260200160405190810160405280939291908181526020018383808284376000920191909152509295505061ffff83358116945060209093013590921691506102b39050565b005b61028b600480360360208110156102a357600080fd5b50356001600160a01b0316610343565b86516102c69060019060208a01906103e7565b5085516102da9060029060208901906103e7565b5084516102ee9060039060208801906103e7565b506004805461ffff191661ffff861617905582516103139060059060208601906103e7565b506006805461ffff928316620100000263ffff0000199490931661ffff1990911617929092161790555050505050565b6000819050806001600160a01b0316638da5cb5b6040518163ffffffff1660e01b815260040160206040518083038186803b15801561038157600080fd5b505afa158015610395573d6000803e3d6000fd5b505050506040513d60208110156103ab57600080fd5b50516001600160a01b03163314156103e35760068054640100000000600160c01b031916600160201b6001600160a01b038416021790555b5050565b828054600181600116156101000203166002900490600052602060002090601f01602090048101928261041d5760008555610463565b82601f1061043657805160ff1916838001178555610463565b82800160010185558215610463579182015b82811115610463578251825591602001919060010190610448565b5061046f929150610473565b5090565b5b8082111561046f576000815560010161047456fea264697066735822122081d94d57f4b35baf875797ce00cd8af4c663cba9422c0ccccf9506e309f0100264736f6c63430007050033a2646970667358221220b64aeafb6b58784f2350112f51610db020666b898032c969b3e611f9a6d9475f64736f6c63430007050033",
    "sourcePath": "/home/mortadaak/Projects/aacsb_accreditiation/contracts/Application.sol",
    "compiler": {
        "name": "solc",
        "version": "0.7.5+commit.eb77ed08"
    },
    "functionHashes": {
        "createFaculty(string,string,string,uint16,string,uint16,uint16)": "2d5fc672",
        "createInstitution(string)": "029bf701",
        "faculties(uint256)": "ca26e03a",
        "institutions(uint256)": "c3b59d00"
    },
    "gasEstimates": {
        "creation": {
            "codeDepositCost": "1191000",
            "executionCost": "11253",
            "totalCost": "1202253"
        },
        "external": {
            "createFaculty(string,string,string,uint16,string,uint16,uint16)": "infinite",
            "createInstitution(string)": "infinite",
            "faculties(uint256)": "1189",
            "institutions(uint256)": "1170"
        }
    }
}