{
    "contractName": "Department",
    "abi": [
        {
            "inputs": [
                {
                    "internalType": "int32",
                    "name": "",
                    "type": "int32"
                }
            ],
            "name": "faculties",
            "outputs": [
                {
                    "internalType": "contract Faculty",
                    "name": "",
                    "type": "address"
                }
            ],
            "stateMutability": "view",
            "type": "function"
        },
        {
            "inputs": [],
            "name": "id",
            "outputs": [
                {
                    "internalType": "int32",
                    "name": "",
                    "type": "int32"
                }
            ],
            "stateMutability": "view",
            "type": "function"
        },
        {
            "inputs": [],
            "name": "name",
            "outputs": [
                {
                    "internalType": "string",
                    "name": "",
                    "type": "string"
                }
            ],
            "stateMutability": "view",
            "type": "function"
        }
    ],
    "bytecode": "60806040526003805463ffffffff1916600117905534801561002057600080fd5b50610205806100306000396000f3fe608060405234801561001057600080fd5b50600436106100415760003560e01c806306fdde031461004657806343640f32146100c3578063af640d0f146100ff575b600080fd5b61004e61011e565b6040805160208082528351818301528351919283929083019185019080838360005b83811015610088578181015183820152602001610070565b50505050905090810190601f1680156100b55780820380516001836020036101000a031916815260200191505b509250505060405180910390f35b6100e3600480360360208110156100d957600080fd5b503560030b6101ab565b604080516001600160a01b039092168252519081900360200190f35b6101076101c6565b6040805160039290920b8252519081900360200190f35b60018054604080516020600284861615610100026000190190941693909304601f810184900484028201840190925281815292918301828280156101a35780601f10610178576101008083540402835291602001916101a3565b820191906000526020600020905b81548152906001019060200180831161018657829003601f168201915b505050505081565b6002602052600090815260409020546001600160a01b031681565b60005460030b8156fea2646970667358221220086f2eb705abce48fc02531d3b5b75b0e32651db75bb63bd3190e65c2fbc591364736f6c63430007050033",
    "sourcePath": "/home/mortadaak/Projects/aacsb_accreditiation/contracts/institiuation.sol",
    "compiler": {
        "name": "solc",
        "version": "0.7.5+commit.eb77ed08"
    },
    "functionHashes": {
        "faculties(int32)": "43640f32",
        "id()": "af640d0f",
        "name()": "06fdde03"
    },
    "gasEstimates": {
        "creation": {
            "codeDepositCost": "103400",
            "executionCost": "20977",
            "totalCost": "124377"
        },
        "external": {
            "faculties(int32)": "1153",
            "id()": "1042",
            "name()": "infinite"
        }
    }
}