{
    "contractName": "Faculty",
    "abi": [
        {
            "inputs": [
                {
                    "internalType": "string",
                    "name": "_name",
                    "type": "string"
                },
                {
                    "internalType": "string",
                    "name": "_specialtyField",
                    "type": "string"
                },
                {
                    "internalType": "string",
                    "name": "_hightestDegree",
                    "type": "string"
                },
                {
                    "internalType": "uint16",
                    "name": "_yearEnded",
                    "type": "uint16"
                },
                {
                    "internalType": "string",
                    "name": "_qualificationDescription",
                    "type": "string"
                },
                {
                    "internalType": "uint16",
                    "name": "_teachingProductivity",
                    "type": "uint16"
                },
                {
                    "internalType": "uint16",
                    "name": "_productivityPercentage",
                    "type": "uint16"
                }
            ],
            "stateMutability": "nonpayable",
            "type": "constructor"
        },
        {
            "inputs": [
                {
                    "internalType": "address",
                    "name": "_institutionAddress",
                    "type": "address"
                }
            ],
            "name": "assignInstitution",
            "outputs": [],
            "stateMutability": "nonpayable",
            "type": "function"
        },
        {
            "inputs": [
                {
                    "internalType": "string",
                    "name": "_name",
                    "type": "string"
                },
                {
                    "internalType": "string",
                    "name": "_specialtyField",
                    "type": "string"
                },
                {
                    "internalType": "string",
                    "name": "_hightestDegree",
                    "type": "string"
                },
                {
                    "internalType": "uint16",
                    "name": "_yearEnded",
                    "type": "uint16"
                },
                {
                    "internalType": "string",
                    "name": "_qualificationDescription",
                    "type": "string"
                },
                {
                    "internalType": "uint16",
                    "name": "_teachingProductivity",
                    "type": "uint16"
                },
                {
                    "internalType": "uint16",
                    "name": "_productivityPercentage",
                    "type": "uint16"
                }
            ],
            "name": "update",
            "outputs": [],
            "stateMutability": "nonpayable",
            "type": "function"
        }
    ],
    "bytecode": "608060405234801561001057600080fd5b506040516108fb3803806108fb833981810160405260e081101561003357600080fd5b810190808051604051939291908464010000000082111561005357600080fd5b90830190602082018581111561006857600080fd5b825164010000000081118282018810171561008257600080fd5b82525081516020918201929091019080838360005b838110156100af578181015183820152602001610097565b50505050905090810190601f1680156100dc5780820380516001836020036101000a031916815260200191505b50604052602001805160405193929190846401000000008211156100ff57600080fd5b90830190602082018581111561011457600080fd5b825164010000000081118282018810171561012e57600080fd5b82525081516020918201929091019080838360005b8381101561015b578181015183820152602001610143565b50505050905090810190601f1680156101885780820380516001836020036101000a031916815260200191505b50604052602001805160405193929190846401000000008211156101ab57600080fd5b9083019060208201858111156101c057600080fd5b82516401000000008111828201881017156101da57600080fd5b82525081516020918201929091019080838360005b838110156102075781810151838201526020016101ef565b50505050905090810190601f1680156102345780820380516001836020036101000a031916815260200191505b5060408181526020830151920180519294919391928464010000000082111561025c57600080fd5b90830190602082018581111561027157600080fd5b825164010000000081118282018810171561028b57600080fd5b82525081516020918201929091019080838360005b838110156102b85781810151838201526020016102a0565b50505050905090810190601f1680156102e55780820380516001836020036101000a031916815260200191505b50604090815260208281015192909101518951929450925061030c916001918a019061038d565b50855161032090600290602089019061038d565b50845161033490600390602088019061038d565b506004805461ffff191661ffff8616179055825161035990600590602086019061038d565b506006805461ffff928316620100000263ffff0000199490931661ffff1990911617929092161790555061042e9350505050565b828054600181600116156101000203166002900490600052602060002090601f0160209004810192826103c35760008555610409565b82601f106103dc57805160ff1916838001178555610409565b82800160010185558215610409579182015b828111156104095782518255916020019190600101906103ee565b50610415929150610419565b5090565b5b80821115610415576000815560010161041a565b6104be8061043d6000396000f3fe608060405234801561001057600080fd5b50600436106100365760003560e01c80636bd4f1eb1461003b578063d90c137e1461028d575b600080fd5b61028b600480360360e081101561005157600080fd5b810190602081018135600160201b81111561006b57600080fd5b82018360208201111561007d57600080fd5b803590602001918460018302840111600160201b8311171561009e57600080fd5b91908080601f0160208091040260200160405190810160405280939291908181526020018383808284376000920191909152509295949360208101935035915050600160201b8111156100f057600080fd5b82018360208201111561010257600080fd5b803590602001918460018302840111600160201b8311171561012357600080fd5b91908080601f0160208091040260200160405190810160405280939291908181526020018383808284376000920191909152509295949360208101935035915050600160201b81111561017557600080fd5b82018360208201111561018757600080fd5b803590602001918460018302840111600160201b831117156101a857600080fd5b91908080601f016020809104026020016040519081016040528093929190818152602001838380828437600092019190915250929561ffff853516959094909350604081019250602001359050600160201b81111561020657600080fd5b82018360208201111561021857600080fd5b803590602001918460018302840111600160201b8311171561023957600080fd5b91908080601f0160208091040260200160405190810160405280939291908181526020018383808284376000920191909152509295505061ffff83358116945060209093013590921691506102b39050565b005b61028b600480360360208110156102a357600080fd5b50356001600160a01b0316610343565b86516102c69060019060208a01906103e7565b5085516102da9060029060208901906103e7565b5084516102ee9060039060208801906103e7565b506004805461ffff191661ffff861617905582516103139060059060208601906103e7565b506006805461ffff928316620100000263ffff0000199490931661ffff1990911617929092161790555050505050565b6000819050806001600160a01b0316638da5cb5b6040518163ffffffff1660e01b815260040160206040518083038186803b15801561038157600080fd5b505afa158015610395573d6000803e3d6000fd5b505050506040513d60208110156103ab57600080fd5b50516001600160a01b03163314156103e35760068054640100000000600160c01b031916600160201b6001600160a01b038416021790555b5050565b828054600181600116156101000203166002900490600052602060002090601f01602090048101928261041d5760008555610463565b82601f1061043657805160ff1916838001178555610463565b82800160010185558215610463579182015b82811115610463578251825591602001919060010190610448565b5061046f929150610473565b5090565b5b8082111561046f576000815560010161047456fea264697066735822122081d94d57f4b35baf875797ce00cd8af4c663cba9422c0ccccf9506e309f0100264736f6c63430007050033",
    "sourcePath": "/home/mortadaak/Projects/aacsb_accreditiation/contracts/Application.sol",
    "compiler": {
        "name": "solc",
        "version": "0.7.5+commit.eb77ed08"
    },
    "functionHashes": {
        "assignInstitution(address)": "d90c137e",
        "update(string,string,string,uint16,string,uint16,uint16)": "6bd4f1eb"
    },
    "gasEstimates": {
        "creation": {
            "codeDepositCost": "242800",
            "executionCost": "infinite",
            "totalCost": "infinite"
        },
        "external": {
            "assignInstitution(address)": "infinite",
            "update(string,string,string,uint16,string,uint16,uint16)": "infinite"
        }
    }
}