{
  "contractName": "Application",
  "abi": [
    {
      "inputs": [
        {
          "internalType": "address",
          "name": "",
          "type": "address"
        }
      ],
      "name": "faculties",
      "outputs": [
        {
          "internalType": "contract Faculty",
          "name": "",
          "type": "address"
        }
      ],
      "stateMutability": "view",
      "type": "function",
      "constant": true
    },
    {
      "inputs": [
        {
          "internalType": "uint256",
          "name": "",
          "type": "uint256"
        }
      ],
      "name": "institutions",
      "outputs": [
        {
          "internalType": "contract Institution",
          "name": "",
          "type": "address"
        }
      ],
      "stateMutability": "view",
      "type": "function",
      "constant": true
    },
    {
      "inputs": [
        {
          "internalType": "string",
          "name": "_name",
          "type": "string"
        }
      ],
      "name": "createInstitution",
      "outputs": [],
      "stateMutability": "payable",
      "type": "function",
      "payable": true
    },
    {
      "inputs": [
        {
          "internalType": "uint256",
          "name": "_from",
          "type": "uint256"
        }
      ],
      "name": "listInstitutions",
      "outputs": [
        {
          "internalType": "contract Institution[10]",
          "name": "",
          "type": "address[10]"
        }
      ],
      "stateMutability": "view",
      "type": "function",
      "constant": true
    },
    {
      "inputs": [],
      "name": "institutionsLength",
      "outputs": [
        {
          "internalType": "uint256",
          "name": "",
          "type": "uint256"
        }
      ],
      "stateMutability": "view",
      "type": "function",
      "constant": true
    },
    {
      "inputs": [
        {
          "internalType": "string",
          "name": "_name",
          "type": "string"
        }
      ],
      "name": "createFaculty",
      "outputs": [],
      "stateMutability": "payable",
      "type": "function",
      "payable": true
    },
    {
      "inputs": [
        {
          "internalType": "uint256",
          "name": "_from",
          "type": "uint256"
        }
      ],
      "name": "listFaculties",
      "outputs": [
        {
          "internalType": "contract Faculty[10]",
          "name": "",
          "type": "address[10]"
        }
      ],
      "stateMutability": "view",
      "type": "function",
      "constant": true
    },
    {
      "inputs": [],
      "name": "facultiesLength",
      "outputs": [
        {
          "internalType": "uint256",
          "name": "",
          "type": "uint256"
        }
      ],
      "stateMutability": "view",
      "type": "function",
      "constant": true
    },
    {
      "inputs": [
        {
          "internalType": "contract Certificate",
          "name": "_certificate",
          "type": "address"
        }
      ],
      "name": "removeCertificate",
      "outputs": [],
      "stateMutability": "payable",
      "type": "function",
      "payable": true
    }
  ],
  "bytecode": "0x60806040526000600155600060045534801561001a57600080fd5b50613f738061002a6000396000f3fe608060405260043610620000925760003560e01c806381a06777116200006157806381a06777146200014b57806386906afa146200016b578063b5fdf252146200019b578063c3b59d0014620001df578063ee84ab7614620002235762000092565b8063029bf70114620000975780633269389a14620000b75780634069e45d14620000e757806377104d921462000107575b600080fd5b620000b56004803603810190620000af919062000afb565b62000267565b005b348015620000c457600080fd5b50620000cf62000313565b604051620000de919062000daf565b60405180910390f35b620001056004803603810190620000ff919062000aa3565b6200031d565b005b3480156200011457600080fd5b506200013360048036038101906200012d919062000b40565b620005b0565b60405162000142919062000d57565b60405180910390f35b62000169600480360381019062000163919062000afb565b62000662565b005b3480156200017857600080fd5b506200018362000823565b60405162000192919062000daf565b60405180910390f35b348015620001a857600080fd5b50620001c76004803603810190620001c1919062000a77565b6200082d565b604051620001d6919062000d75565b60405180910390f35b348015620001ec57600080fd5b506200020b600480360381019062000205919062000b40565b62000860565b6040516200021a919062000d92565b60405180910390f35b3480156200023057600080fd5b506200024f600480360381019062000249919062000b40565b62000893565b6040516200025e919062000d39565b60405180910390f35b60006001600081548092919060010191905055905060008183336040516200028f9062000946565b6200029d9392919062000dcc565b604051809103906000f080158015620002ba573d6000803e3d6000fd5b5090508060008084815260200190815260200160002060006101000a81548173ffffffffffffffffffffffffffffffffffffffff021916908373ffffffffffffffffffffffffffffffffffffffff160217905550505050565b6000600454905090565b60008173ffffffffffffffffffffffffffffffffffffffff1663d1384eb66040518163ffffffff1660e01b815260040160206040518083038186803b1580156200036657600080fd5b505afa1580156200037b573d6000803e3d6000fd5b505050506040513d601f19601f82011682018060405250810190620003a1919062000acf565b73ffffffffffffffffffffffffffffffffffffffff1663af640d0f6040518163ffffffff1660e01b815260040160206040518083038186803b158015620003e757600080fd5b505afa158015620003fc573d6000803e3d6000fd5b505050506040513d601f19601f8201168201806040525081019062000422919062000b6c565b9050600060056000838152602001908152602001600020905060005b8180549050811015620005aa578373ffffffffffffffffffffffffffffffffffffffff168282815481106200046f57fe5b9060005260206000200160009054906101000a900473ffffffffffffffffffffffffffffffffffffffff1673ffffffffffffffffffffffffffffffffffffffff1614156200059c57600060018380549050039050808210156200055a57828181548110620004d957fe5b9060005260206000200160009054906101000a900473ffffffffffffffffffffffffffffffffffffffff168383815481106200051157fe5b9060005260206000200160006101000a81548173ffffffffffffffffffffffffffffffffffffffff021916908373ffffffffffffffffffffffffffffffffffffffff1602179055505b828054806200056557fe5b6001900381819060005260206000200160006101000a81549073ffffffffffffffffffffffffffffffffffffffff02191690559055505b80806001019150506200043e565b50505050565b620005ba62000954565b620005c462000954565b60005b600a8110156200065857600080858301815260200190815260200160002060009054906101000a900473ffffffffffffffffffffffffffffffffffffffff168282600a81106200061357fe5b602002019073ffffffffffffffffffffffffffffffffffffffff16908173ffffffffffffffffffffffffffffffffffffffff16815250508080600101915050620005c7565b5080915050919050565b600073ffffffffffffffffffffffffffffffffffffffff16600260003373ffffffffffffffffffffffffffffffffffffffff1673ffffffffffffffffffffffffffffffffffffffff16815260200190815260200160002060009054906101000a900473ffffffffffffffffffffffffffffffffffffffff1673ffffffffffffffffffffffffffffffffffffffff161415620008205760006004600081548092919060010191905055905060008183336040516200071f9062000977565b6200072d9392919062000dcc565b604051809103906000f0801580156200074a573d6000803e3d6000fd5b509050806003600084815260200190815260200160002060006101000a81548173ffffffffffffffffffffffffffffffffffffffff021916908373ffffffffffffffffffffffffffffffffffffffff16021790555080600260003373ffffffffffffffffffffffffffffffffffffffff1673ffffffffffffffffffffffffffffffffffffffff16815260200190815260200160002060006101000a81548173ffffffffffffffffffffffffffffffffffffffff021916908373ffffffffffffffffffffffffffffffffffffffff16021790555050505b50565b6000600154905090565b60026020528060005260406000206000915054906101000a900473ffffffffffffffffffffffffffffffffffffffff1681565b60006020528060005260406000206000915054906101000a900473ffffffffffffffffffffffffffffffffffffffff1681565b6200089d62000985565b620008a762000985565b60005b600a8110156200093c5760036000858301815260200190815260200160002060009054906101000a900473ffffffffffffffffffffffffffffffffffffffff168282600a8110620008f757fe5b602002019073ffffffffffffffffffffffffffffffffffffffff16908173ffffffffffffffffffffffffffffffffffffffff16815250508080600101915050620008aa565b5080915050919050565b611f08806200109583390190565b604051806101400160405280600a90602082028036833780820191505090505090565b610fa18062002f9d83390190565b604051806101400160405280600a90602082028036833780820191505090505090565b600081359050620009b9816200102c565b92915050565b600081359050620009d08162001046565b92915050565b600081519050620009e78162001060565b92915050565b600082601f830112620009ff57600080fd5b813562000a1662000a108262000e44565b62000e10565b9150808252602083016020830185838301111562000a3357600080fd5b62000a4083828462000fd4565b50505092915050565b60008135905062000a5a816200107a565b92915050565b60008151905062000a71816200107a565b92915050565b60006020828403121562000a8a57600080fd5b600062000a9a84828501620009a8565b91505092915050565b60006020828403121562000ab657600080fd5b600062000ac684828501620009bf565b91505092915050565b60006020828403121562000ae257600080fd5b600062000af284828501620009d6565b91505092915050565b60006020828403121562000b0e57600080fd5b600082013567ffffffffffffffff81111562000b2957600080fd5b62000b3784828501620009ed565b91505092915050565b60006020828403121562000b5357600080fd5b600062000b638482850162000a49565b91505092915050565b60006020828403121562000b7f57600080fd5b600062000b8f8482850162000a60565b91505092915050565b600062000ba6838362000ca3565b60208301905092915050565b600062000bc0838362000cc5565b60208301905092915050565b62000bd78162000f48565b82525050565b62000be88162000e8b565b62000bf4818462000ec6565b925062000c018262000e77565b8060005b8381101562000c3857815162000c1c878262000b98565b965062000c298362000eac565b92505060018101905062000c05565b505050505050565b62000c4b8162000e96565b62000c57818462000ec6565b925062000c648262000e81565b8060005b8381101562000c9b57815162000c7f878262000bb2565b965062000c8c8362000eb9565b92505060018101905062000c68565b505050505050565b62000cae8162000f5c565b82525050565b62000cbf8162000f5c565b82525050565b62000cd08162000f84565b82525050565b62000ce18162000f84565b82525050565b600062000cf48262000ea1565b62000d00818562000ed1565b935062000d1281856020860162000fe3565b62000d1d816200101b565b840191505092915050565b62000d338162000f3e565b82525050565b60006101408201905062000d51600083018462000bdd565b92915050565b60006101408201905062000d6f600083018462000c40565b92915050565b600060208201905062000d8c600083018462000cb4565b92915050565b600060208201905062000da9600083018462000cd6565b92915050565b600060208201905062000dc6600083018462000d28565b92915050565b600060608201905062000de3600083018662000d28565b818103602083015262000df7818562000ce7565b905062000e08604083018462000bcc565b949350505050565b6000604051905081810181811067ffffffffffffffff8211171562000e3a5762000e3962001019565b5b8060405250919050565b600067ffffffffffffffff82111562000e625762000e6162001019565b5b601f19601f8301169050602081019050919050565b6000819050919050565b6000819050919050565b6000600a9050919050565b6000600a9050919050565b600081519050919050565b6000602082019050919050565b6000602082019050919050565b600081905092915050565b600082825260208201905092915050565b600062000eef8262000f1e565b9050919050565b600062000f038262000ee2565b9050919050565b600062000f178262000ee2565b9050919050565b600073ffffffffffffffffffffffffffffffffffffffff82169050919050565b6000819050919050565b600062000f558262000fac565b9050919050565b600062000f698262000f70565b9050919050565b600062000f7d8262000f1e565b9050919050565b600062000f918262000f98565b9050919050565b600062000fa58262000f1e565b9050919050565b600062000fb98262000fc0565b9050919050565b600062000fcd8262000f1e565b9050919050565b82818337600083830152505050565b60005b838110156200100357808201518184015260208101905062000fe6565b8381111562001013576000848401525b50505050565bfe5b6000601f19601f8301169050919050565b620010378162000ee2565b81146200104357600080fd5b50565b620010518162000ef6565b81146200105d57600080fd5b50565b6200106b8162000f0a565b81146200107757600080fd5b50565b620010858162000f3e565b81146200109157600080fd5b5056fe6080604052600160075560006009553480156200001b57600080fd5b5060405162001f0838038062001f088339818101604052810190620000419190620002a6565b8260008190555081600190805190602001906200006092919062000166565b5080600260006101000a81548173ffffffffffffffffffffffffffffffffffffffff021916908373ffffffffffffffffffffffffffffffffffffffff1602179055506004819080600181540180825580915050600190039060005260206000200160009091909190916101000a81548173ffffffffffffffffffffffffffffffffffffffff021916908373ffffffffffffffffffffffffffffffffffffffff1602179055506001600560008373ffffffffffffffffffffffffffffffffffffffff1673ffffffffffffffffffffffffffffffffffffffff16815260200190815260200160002060006101000a81548160ff02191690831515021790555050505062000426565b828054600181600116156101000203166002900490600052602060002090601f0160209004810192826200019e5760008555620001ea565b82601f10620001b957805160ff1916838001178555620001ea565b82800160010185558215620001ea579182015b82811115620001e9578251825591602001919060010190620001cc565b5b509050620001f99190620001fd565b5090565b5b8082111562000218576000816000905550600101620001fe565b5090565b6000815190506200022d81620003f2565b92915050565b600082601f8301126200024557600080fd5b81516200025c620002568262000349565b62000315565b915080825260208301602083018583830111156200027957600080fd5b62000286838284620003ba565b50505092915050565b600081519050620002a0816200040c565b92915050565b600080600060608486031215620002bc57600080fd5b6000620002cc868287016200028f565b935050602084015167ffffffffffffffff811115620002ea57600080fd5b620002f88682870162000233565b92505060406200030b868287016200021c565b9150509250925092565b6000604051905081810181811067ffffffffffffffff821117156200033f576200033e620003f0565b5b8060405250919050565b600067ffffffffffffffff821115620003675762000366620003f0565b5b601f19601f8301169050602081019050919050565b6000620003898262000390565b9050919050565b600073ffffffffffffffffffffffffffffffffffffffff82169050919050565b6000819050919050565b60005b83811015620003da578082015181840152602081019050620003bd565b83811115620003ea576000848401525b50505050565bfe5b620003fd816200037c565b81146200040957600080fd5b50565b6200041781620003b0565b81146200042357600080fd5b50565b611ad280620004366000396000f3fe6080604052600436106101095760003560e01c80636bd5b69411610095578063af640d0f11610064578063af640d0f1461035b578063c16ebe5a14610386578063d2e3f3b7146103a2578063d63a8e11146103df578063eafb96bd1461041c57610109565b80636bd5b694146102bb5780637c6ebde9146102f85780638da5cb5b14610314578063a013fe301461033f57610109565b80633c98ccee116100dc5780633c98ccee146101f05780633d7403a31461021b5780634225674d1461023757806344e538ae14610274578063636558a51461029f57610109565b8063068d81741461010e57806306fdde031461014b57806308e0018b14610176578063262e025b146101b3575b600080fd5b34801561011a57600080fd5b50610135600480360381019061013091906113b1565b610438565b60405161014291906116ff565b60405180910390f35b34801561015757600080fd5b50610160610477565b60405161016d91906117b7565b60405180910390f35b34801561018257600080fd5b5061019d600480360381019061019891906112b9565b610515565b6040516101aa9190611781565b60405180910390f35b3480156101bf57600080fd5b506101da60048036038101906101d591906113b1565b6105d5565b6040516101e791906117d9565b60405180910390f35b3480156101fc57600080fd5b506102056106c9565b60405161021291906117fb565b60405180910390f35b61023560048036038101906102309190611370565b6106d6565b005b34801561024357600080fd5b5061025e600480360381019061025991906113da565b6106ff565b60405161026b919061175f565b60405180910390f35b34801561028057600080fd5b50610289610899565b60405161029691906117fb565b60405180910390f35b6102b960048036038101906102b49190611370565b6108a6565b005b3480156102c757600080fd5b506102e260048036038101906102dd91906113b1565b610925565b6040516102ef919061179c565b60405180910390f35b610312600480360381019061030d91906112f5565b610964565b005b34801561032057600080fd5b50610329610b2c565b60405161033691906116ff565b60405180910390f35b61035960048036038101906103549190611290565b610b52565b005b34801561036757600080fd5b50610370610cae565b60405161037d91906117fb565b60405180910390f35b6103a0600480360381019061039b9190611416565b610cb4565b005b3480156103ae57600080fd5b506103c960048036038101906103c491906113b1565b610d15565b6040516103d69190611743565b60405180910390f35b3480156103eb57600080fd5b5061040660048036038101906104019190611290565b610ddd565b6040516104139190611781565b60405180910390f35b61043660048036038101906104319190611290565b610df1565b005b6004818154811061044857600080fd5b906000526020600020016000915054906101000a900473ffffffffffffffffffffffffffffffffffffffff1681565b60018054600181600116156101000203166002900480601f01602080910402602001604051908101604052809291908181526020018280546001816001161561010002031660029004801561050d5780601f106104e25761010080835404028352916020019161050d565b820191906000526020600020905b8154815290600101906020018083116104f057829003601f168201915b505050505081565b600061052083610ddd565b156105ca578173ffffffffffffffffffffffffffffffffffffffff168373ffffffffffffffffffffffffffffffffffffffff16141561056257600090506105cf565b600260009054906101000a900473ffffffffffffffffffffffffffffffffffffffff1673ffffffffffffffffffffffffffffffffffffffff168273ffffffffffffffffffffffffffffffffffffffff1614156105c157600090506105cf565b600190506105cf565b600090505b92915050565b6105dd61109f565b6006600083815260200190815260200160002060405180606001604052908160008201548152602001600182018054600181600116156101000203166002900480601f01602080910402602001604051908101604052809291908181526020018280546001816001161561010002031660029004801561069e5780601f106106735761010080835404028352916020019161069e565b820191906000526020600020905b81548152906001019060200180831161068157829003601f168201915b505050505081526020016002820160009054906101000a900460ff1615151515815250509050919050565b6000600480549050905090565b6106df33610ddd565b156106fc5780600190805190602001906106fa9291906110c2565b505b50565b610707611150565b61070f611150565b60005b600a81101561088e57600185820101600754101561073357600a9050610881565b838015610766575060066000600187840101815260200190815260200160002060020160009054906101000a900460ff16155b15610781578480600101955050808060019003915050610880565b60066000600187840101815260200190815260200160002060405180606001604052908160008201548152602001600182018054600181600116156101000203166002900480601f0160208091040260200160405190810160405280929190818152602001828054600181600116156101000203166002900480156108475780601f1061081c57610100808354040283529160200191610847565b820191906000526020600020905b81548152906001019060200180831161082a57829003601f168201915b505050505081526020016002820160009054906101000a900460ff1615151515815250508282600a811061087757fe5b60200201819052505b5b8080600101915050610712565b508091505092915050565b6000600160075403905090565b6108af33610ddd565b15610922576000600760008154809291906001019190505590506000600660008381526020019081526020016000209050818160000181905550828160010190805190602001906109019291906110c2565b5060018160020160006101000a81548160ff02191690831515021790555050505b50565b6003818154811061093557600080fd5b906000526020600020016000915054906101000a900473ffffffffffffffffffffffffffffffffffffffff1681565b61096d33610ddd565b8015610a0c57506001600281111561098157fe5b8173ffffffffffffffffffffffffffffffffffffffff1663200d2ed26040518163ffffffff1660e01b815260040160206040518083038186803b1580156109c757600080fd5b505afa1580156109db573d6000803e3d6000fd5b505050506040513d601f19601f820116820180604052508101906109ff9190611347565b6002811115610a0a57fe5b145b8015610ac057503073ffffffffffffffffffffffffffffffffffffffff168173ffffffffffffffffffffffffffffffffffffffff1663d1384eb66040518163ffffffff1660e01b815260040160206040518083038186803b158015610a7057600080fd5b505afa158015610a84573d6000803e3d6000fd5b505050506040513d601f19601f82011682018060405250810190610aa8919061131e565b73ffffffffffffffffffffffffffffffffffffffff16145b15610b29576003819080600181540180825580915050600190039060005260206000200160009091909190916101000a81548173ffffffffffffffffffffffffffffffffffffffff021916908373ffffffffffffffffffffffffffffffffffffffff1602179055505b50565b600260009054906101000a900473ffffffffffffffffffffffffffffffffffffffff1681565b610b5b33610ddd565b8015610bb15750600560008273ffffffffffffffffffffffffffffffffffffffff1673ffffffffffffffffffffffffffffffffffffffff16815260200190815260200160002060009054906101000a900460ff16155b15610cab576004819080600181540180825580915050600190039060005260206000200160009091909190916101000a81548173ffffffffffffffffffffffffffffffffffffffff021916908373ffffffffffffffffffffffffffffffffffffffff1602179055506001600560008373ffffffffffffffffffffffffffffffffffffffff1673ffffffffffffffffffffffffffffffffffffffff16815260200190815260200160002060006101000a81548160ff0219169083151502179055507f4c3f8d573327070a8bdfb58632fa8057d0e0d56c4e982b03b555bdf50fd041be3382604051610ca292919061171a565b60405180910390a15b50565b60005481565b610cbd33610ddd565b15610d1057600060066000858152602001908152602001600020905082816001019080519060200190610cf19291906110c2565b50818160020160006101000a81548160ff021916908315150217905550505b505050565b610d1d61117e565b610d2561117e565b60005b600a811015610dd35760048054905084820110610d4857600a9050610dc6565b600484820181548110610d5757fe5b9060005260206000200160009054906101000a900473ffffffffffffffffffffffffffffffffffffffff168282600a8110610d8e57fe5b602002019073ffffffffffffffffffffffffffffffffffffffff16908173ffffffffffffffffffffffffffffffffffffffff16815250505b8080600101915050610d28565b5080915050919050565b6000610dea826000610ffa565b9050919050565b610dfb3382610515565b15610ff75760005b600480549050811015610f6d578173ffffffffffffffffffffffffffffffffffffffff1660048281548110610e3457fe5b9060005260206000200160009054906101000a900473ffffffffffffffffffffffffffffffffffffffff1673ffffffffffffffffffffffffffffffffffffffff161415610f60576000600160048054905003905080821015610f1e5760048181548110610e9d57fe5b9060005260206000200160009054906101000a900473ffffffffffffffffffffffffffffffffffffffff1660048381548110610ed557fe5b9060005260206000200160006101000a81548173ffffffffffffffffffffffffffffffffffffffff021916908373ffffffffffffffffffffffffffffffffffffffff1602179055505b6004805480610f2957fe5b6001900381819060005260206000200160006101000a81549073ffffffffffffffffffffffffffffffffffffffff02191690559055505b8080600101915050610e03565b50600560008273ffffffffffffffffffffffffffffffffffffffff1673ffffffffffffffffffffffffffffffffffffffff16815260200190815260200160002060006101000a81549060ff02191690557fbcd9acfa7798dc641ff4ac996c5bac1c3453ce5b9c04a919728479f94cc9bc593382604051610fee92919061171a565b60405180910390a15b50565b60006004828154811061100957fe5b9060005260206000200160009054906101000a900473ffffffffffffffffffffffffffffffffffffffff1673ffffffffffffffffffffffffffffffffffffffff168373ffffffffffffffffffffffffffffffffffffffff1614156110705760019050611099565b6001600480549050038210156110945761108d8360018401610ffa565b9050611099565b600090505b92915050565b604051806060016040528060008152602001606081526020016000151581525090565b828054600181600116156101000203166002900490600052602060002090601f0160209004810192826110f8576000855561113f565b82601f1061111157805160ff191683800117855561113f565b8280016001018555821561113f579182015b8281111561113e578251825591602001919060010190611123565b5b50905061114c91906111a1565b5090565b604051806101400160405280600a905b61116861109f565b8152602001906001900390816111605790505090565b604051806101400160405280600a90602082028036833780820191505090505090565b5b808211156111ba5760008160009055506001016111a2565b5090565b6000813590506111cd81611a19565b92915050565b6000813590506111e281611a30565b92915050565b6000813590506111f781611a47565b92915050565b60008151905061120c81611a5e565b92915050565b60008151905061122181611a75565b92915050565b600082601f83011261123857600080fd5b813561124b61124682611847565b611816565b9150808252602083016020830185838301111561126757600080fd5b6112728382846119c4565b50505092915050565b60008135905061128a81611a85565b92915050565b6000602082840312156112a257600080fd5b60006112b0848285016111be565b91505092915050565b600080604083850312156112cc57600080fd5b60006112da858286016111be565b92505060206112eb858286016111be565b9150509250929050565b60006020828403121561130757600080fd5b6000611315848285016111e8565b91505092915050565b60006020828403121561133057600080fd5b600061133e848285016111fd565b91505092915050565b60006020828403121561135957600080fd5b600061136784828501611212565b91505092915050565b60006020828403121561138257600080fd5b600082013567ffffffffffffffff81111561139c57600080fd5b6113a884828501611227565b91505092915050565b6000602082840312156113c357600080fd5b60006113d18482850161127b565b91505092915050565b600080604083850312156113ed57600080fd5b60006113fb8582860161127b565b925050602061140c858286016111d3565b9150509250929050565b60008060006060848603121561142b57600080fd5b60006114398682870161127b565b935050602084013567ffffffffffffffff81111561145657600080fd5b61146286828701611227565b9250506040611473868287016111d3565b9150509250925092565b600061148983836114b8565b60208301905092915050565b60006114a18383611641565b905092915050565b6114b28161196a565b82525050565b6114c1816118fe565b82525050565b6114d0816118fe565b82525050565b6114df8161188b565b6114e981846118c6565b92506114f482611877565b8060005b8381101561152557815161150c878261147d565b9650611517836118ac565b9250506001810190506114f8565b505050505050565b600061153882611896565b61154281856118d1565b93508360208202850161155485611881565b8060005b8581101561159057848403895281516115718582611495565b945061157c836118b9565b925060208a01995050600181019050611558565b50829750879550505050505092915050565b6115ab81611910565b82525050565b6115ba81611910565b82525050565b6115c98161197c565b82525050565b60006115da826118a1565b6115e481856118dc565b93506115f48185602086016119d3565b6115fd81611a08565b840191505092915050565b6000611613826118a1565b61161d81856118ed565b935061162d8185602086016119d3565b61163681611a08565b840191505092915050565b600060608301600083015161165960008601826116e1565b506020830151848203602086015261167182826115cf565b915050604083015161168660408601826115a2565b508091505092915050565b60006060830160008301516116a960008601826116e1565b50602083015184820360208601526116c182826115cf565b91505060408301516116d660408601826115a2565b508091505092915050565b6116ea81611960565b82525050565b6116f981611960565b82525050565b600060208201905061171460008301846114c7565b92915050565b600060408201905061172f60008301856114a9565b61173c60208301846114c7565b9392505050565b60006101408201905061175960008301846114d6565b92915050565b60006020820190508181036000830152611779818461152d565b905092915050565b600060208201905061179660008301846115b1565b92915050565b60006020820190506117b160008301846115c0565b92915050565b600060208201905081810360008301526117d18184611608565b905092915050565b600060208201905081810360008301526117f38184611691565b905092915050565b600060208201905061181060008301846116f0565b92915050565b6000604051905081810181811067ffffffffffffffff8211171561183d5761183c611a06565b5b8060405250919050565b600067ffffffffffffffff82111561186257611861611a06565b5b601f19601f8301169050602081019050919050565b6000819050919050565b6000819050919050565b6000600a9050919050565b6000600a9050919050565b600081519050919050565b6000602082019050919050565b6000602082019050919050565b600081905092915050565b600081905092915050565b600082825260208201905092915050565b600082825260208201905092915050565b600061190982611940565b9050919050565b60008115159050919050565b6000611927826118fe565b9050919050565b6000611939826118fe565b9050919050565b600073ffffffffffffffffffffffffffffffffffffffff82169050919050565b6000819050919050565b6000611975826119a0565b9050919050565b60006119878261198e565b9050919050565b600061199982611940565b9050919050565b60006119ab826119b2565b9050919050565b60006119bd82611940565b9050919050565b82818337600083830152505050565b60005b838110156119f15780820151818401526020810190506119d6565b83811115611a00576000848401525b50505050565bfe5b6000601f19601f8301169050919050565b611a22816118fe565b8114611a2d57600080fd5b50565b611a3981611910565b8114611a4457600080fd5b50565b611a508161191c565b8114611a5b57600080fd5b50565b611a678161192e565b8114611a7257600080fd5b50565b60038110611a8257600080fd5b50565b611a8e81611960565b8114611a9957600080fd5b5056fea26469706673582212204e4d1a42e2b95be2de3db7fca0aa2d0ef14303714dec58f98e0f562e11ecc9f164736f6c6343000705003360806040523480156200001157600080fd5b5060405162000fa138038062000fa18339818101604052810190620000379190620001e1565b81600190805190602001906200004f929190620000a1565b508260008190555080600260006101000a81548173ffffffffffffffffffffffffffffffffffffffff021916908373ffffffffffffffffffffffffffffffffffffffff16021790555050505062000361565b828054600181600116156101000203166002900490600052602060002090601f016020900481019282620000d9576000855562000125565b82601f10620000f457805160ff191683800117855562000125565b8280016001018555821562000125579182015b828111156200012457825182559160200191906001019062000107565b5b50905062000134919062000138565b5090565b5b808211156200015357600081600090555060010162000139565b5090565b60008151905062000168816200032d565b92915050565b600082601f8301126200018057600080fd5b815162000197620001918262000284565b62000250565b91508082526020830160208301858383011115620001b457600080fd5b620001c1838284620002f5565b50505092915050565b600081519050620001db8162000347565b92915050565b600080600060608486031215620001f757600080fd5b60006200020786828701620001ca565b935050602084015167ffffffffffffffff8111156200022557600080fd5b62000233868287016200016e565b9250506040620002468682870162000157565b9150509250925092565b6000604051905081810181811067ffffffffffffffff821117156200027a57620002796200032b565b5b8060405250919050565b600067ffffffffffffffff821115620002a257620002a16200032b565b5b601f19601f8301169050602081019050919050565b6000620002c482620002cb565b9050919050565b600073ffffffffffffffffffffffffffffffffffffffff82169050919050565b6000819050919050565b60005b8381101562000315578082015181840152602081019050620002f8565b8381111562000325576000848401525b50505050565bfe5b6200033881620002b7565b81146200034457600080fd5b50565b6200035281620002eb565b81146200035e57600080fd5b50565b610c3080620003716000396000f3fe60806040526004361061007b5760003560e01c80637c6ebde91161004e5780637c6ebde91461012f5780638da5cb5b1461014b578063d63a8e1114610176578063d90c137e146101b35761007b565b806306fdde03146100805780633d7403a3146100ab5780634e8ef753146100c7578063663b3e22146100f2575b600080fd5b34801561008c57600080fd5b506100956101cf565b6040516100a291906109a9565b60405180910390f35b6100c560048036038101906100c0919061080b565b61026d565b005b3480156100d357600080fd5b506100dc610296565b6040516100e9919061098e565b60405180910390f35b3480156100fe57600080fd5b506101196004803603810190610114919061084c565b6102bc565b6040516101269190610973565b60405180910390f35b610149600480360381019061014491906107b9565b6102fb565b005b34801561015757600080fd5b506101606104a6565b60405161016d91906108f9565b60405180910390f35b34801561018257600080fd5b5061019d60048036038101906101989190610767565b6104cc565b6040516101aa9190610958565b60405180910390f35b6101cd60048036038101906101c89190610767565b610526565b005b60018054600181600116156101000203166002900480601f0160208091040260200160405190810160405280929190818152602001828054600181600116156101000203166002900480156102655780601f1061023a57610100808354040283529160200191610265565b820191906000526020600020905b81548152906001019060200180831161024857829003601f168201915b505050505081565b610276336104cc565b156102935780600190805190602001906102919291906105ff565b505b50565b600460009054906101000a900473ffffffffffffffffffffffffffffffffffffffff1681565b600381815481106102cc57600080fd5b906000526020600020016000915054906101000a900473ffffffffffffffffffffffffffffffffffffffff1681565b8073ffffffffffffffffffffffffffffffffffffffff1663d1384eb66040518163ffffffff1660e01b815260040160206040518083038186803b15801561034157600080fd5b505afa158015610355573d6000803e3d6000fd5b505050506040513d601f19601f8201168201806040525081019061037991906107e2565b73ffffffffffffffffffffffffffffffffffffffff1663d63a8e11336040518263ffffffff1660e01b81526004016103b19190610914565b60206040518083038186803b1580156103c957600080fd5b505afa1580156103dd573d6000803e3d6000fd5b505050506040513d601f19601f820116820180604052508101906104019190610790565b156104a3576003819080600181540180825580915050600190039060005260206000200160009091909190916101000a81548173ffffffffffffffffffffffffffffffffffffffff021916908373ffffffffffffffffffffffffffffffffffffffff1602179055507fcab8446535b35de1f0ebc27aeffe078cbebbd56fa92739c56cf2a99ed79665d6338260405161049a92919061092f565b60405180910390a15b50565b600260009054906101000a900473ffffffffffffffffffffffffffffffffffffffff1681565b6000600260009054906101000a900473ffffffffffffffffffffffffffffffffffffffff1673ffffffffffffffffffffffffffffffffffffffff168273ffffffffffffffffffffffffffffffffffffffff16149050919050565b60008190508073ffffffffffffffffffffffffffffffffffffffff1663d63a8e11336040518263ffffffff1660e01b81526004016105649190610914565b60206040518083038186803b15801561057c57600080fd5b505afa158015610590573d6000803e3d6000fd5b505050506040513d601f19601f820116820180604052508101906105b49190610790565b156105fb5780600460006101000a81548173ffffffffffffffffffffffffffffffffffffffff021916908373ffffffffffffffffffffffffffffffffffffffff1602179055505b5050565b828054600181600116156101000203166002900490600052602060002090601f016020900481019282610635576000855561067c565b82601f1061064e57805160ff191683800117855561067c565b8280016001018555821561067c579182015b8281111561067b578251825591602001919060010190610660565b5b509050610689919061068d565b5090565b5b808211156106a657600081600090555060010161068e565b5090565b6000813590506106b981610b87565b92915050565b6000815190506106ce81610b9e565b92915050565b6000813590506106e381610bb5565b92915050565b6000815190506106f881610bcc565b92915050565b600082601f83011261070f57600080fd5b813561072261071d826109fc565b6109cb565b9150808252602083016020830185838301111561073e57600080fd5b610749838284610b32565b50505092915050565b60008135905061076181610be3565b92915050565b60006020828403121561077957600080fd5b6000610787848285016106aa565b91505092915050565b6000602082840312156107a257600080fd5b60006107b0848285016106bf565b91505092915050565b6000602082840312156107cb57600080fd5b60006107d9848285016106d4565b91505092915050565b6000602082840312156107f457600080fd5b6000610802848285016106e9565b91505092915050565b60006020828403121561081d57600080fd5b600082013567ffffffffffffffff81111561083757600080fd5b610843848285016106fe565b91505092915050565b60006020828403121561085e57600080fd5b600061086c84828501610752565b91505092915050565b61087e81610ab4565b82525050565b61088d81610a48565b82525050565b61089c81610a5a565b82525050565b6108ab81610ac6565b82525050565b6108ba81610aea565b82525050565b60006108cb82610a2c565b6108d58185610a37565b93506108e5818560208601610b41565b6108ee81610b76565b840191505092915050565b600060208201905061090e6000830184610884565b92915050565b60006020820190506109296000830184610875565b92915050565b60006040820190506109446000830185610875565b61095160208301846108a2565b9392505050565b600060208201905061096d6000830184610893565b92915050565b600060208201905061098860008301846108a2565b92915050565b60006020820190506109a360008301846108b1565b92915050565b600060208201905081810360008301526109c381846108c0565b905092915050565b6000604051905081810181811067ffffffffffffffff821117156109f2576109f1610b74565b5b8060405250919050565b600067ffffffffffffffff821115610a1757610a16610b74565b5b601f19601f8301169050602081019050919050565b600081519050919050565b600082825260208201905092915050565b6000610a5382610a8a565b9050919050565b60008115159050919050565b6000610a7182610a48565b9050919050565b6000610a8382610a48565b9050919050565b600073ffffffffffffffffffffffffffffffffffffffff82169050919050565b6000819050919050565b6000610abf82610b0e565b9050919050565b6000610ad182610ad8565b9050919050565b6000610ae382610a8a565b9050919050565b6000610af582610afc565b9050919050565b6000610b0782610a8a565b9050919050565b6000610b1982610b20565b9050919050565b6000610b2b82610a8a565b9050919050565b82818337600083830152505050565b60005b83811015610b5f578082015181840152602081019050610b44565b83811115610b6e576000848401525b50505050565bfe5b6000601f19601f8301169050919050565b610b9081610a48565b8114610b9b57600080fd5b50565b610ba781610a5a565b8114610bb257600080fd5b50565b610bbe81610a66565b8114610bc957600080fd5b50565b610bd581610a78565b8114610be057600080fd5b50565b610bec81610aaa565b8114610bf757600080fd5b5056fea26469706673582212206dd227424d03b3239b8ca86d39983cbd162e32817ca9055049160c2ae593158a64736f6c63430007050033a26469706673582212205d31a1ebb16d6fbcb446c5360a0eb2eb1188b0df8aed681f67bf87462774332e64736f6c63430007050033",
  "immutableReferences": {},
  "source": "// SPDX-License-Identifier: GPL-3.0\npragma solidity >=0.5.0 <0.9.0;\npragma abicoder v2;\n\ncontract Certificate {\n    enum State {requested, approved, rejected}\n    enum Degree {\n        ScholarlyAcademics,\n        PracticeAcademics,\n        ScholarlyPractitioner,\n        InstructionalPractitioner\n    }\n    string public specialtyField;\n    Faculty public faculty;\n    Institution public institution;\n    Degree public degree;\n    State public status = State.requested;\n    Application application;\n    event Request(address sender);\n    event Reject(address sender);\n    event Approve(address sender);\n\n    constructor(\n        Faculty _faculty,\n        Institution _institution,\n        Degree _degree\n    ) {\n        faculty = _faculty;\n        institution = _institution;\n        degree = _degree;\n        emit Request(msg.sender);\n    }\n\n    function reject() public payable {\n        if (editable()) {\n            status = State.rejected;\n            emit Reject(msg.sender);\n        }\n    }\n\n    function approve() public payable {\n        if (editable() && institution.allowed(msg.sender)) {\n            status = State.approved;\n            faculty.addCertificate(this);\n            institution.addCertificate(this);\n            application.removeCertificate(this);\n            emit Approve(msg.sender);\n        }\n    }\n\n    function editable() public view returns (bool) {\n        return ((status == State.requested &&\n            (institution.allowed(msg.sender))) || faculty.allowed(msg.sender));\n    }\n}\n\ncontract Faculty {\n    uint256 id;\n    string public name;\n    address public owner;\n    Certificate[] public certificates;\n    Institution public currentInstitution;\n\n    event CertificateAdded(address assigner, Certificate certificate);\n\n    constructor(\n        uint256 _id,\n        string memory _name,\n        address _owner\n    ) {\n        name = _name;\n        id = _id;\n        owner = _owner;\n    }\n\n    function update(string memory _name) public payable {\n        if (allowed(msg.sender)) {\n            name = _name;\n        }\n    }\n\n    function assignInstitution(address _institutionAddress) public payable {\n        Institution _institution = Institution(_institutionAddress);\n        if (_institution.allowed(msg.sender)) {\n            currentInstitution = _institution;\n        }\n    }\n\n    function allowed(address _address) public view returns (bool) {\n        return _address == owner;\n    }\n\n    function addCertificate(Certificate _certificate) public payable {\n        if (_certificate.institution().allowed(msg.sender)) {\n            certificates.push(_certificate);\n            emit CertificateAdded(msg.sender, _certificate);\n        }\n    }\n}\n\ncontract Institution {\n    struct StaffMember {\n        uint256 id;\n        string name;\n        bool active;\n    }\n\n    uint256 public id;\n    string public name;\n    address public owner;\n\n    Certificate[] public issuedCertificates;\n\n    address[] public allowedModifiers;\n    mapping(address => bool) allowedModifiersMap;\n\n    mapping(uint256 => StaffMember) staffMembers;\n    uint256 nextStaffMembersId = 1;\n\n    mapping(uint256 => Certificate) certificates;\n    uint256 nextCertificateId = 0;\n\n    mapping(uint256 => Faculty) faculties;\n    uint256 nextFacultyId;\n\n    event ModifierAdded(address by, address modifierAddress);\n    event ModifierRemoved(address by, address modifierAddress);\n\n    constructor(\n        uint256 _id,\n        string memory _name,\n        address sender\n    ) {\n        id = _id;\n        name = _name;\n        owner = sender;\n        allowedModifiers.push(sender);\n        allowedModifiersMap[sender] = true;\n    }\n\n    function update(string memory _name) public payable {\n        if (allowed(msg.sender)) {\n            name = _name;\n        }\n    }\n\n    function staffMember(uint256 _from)\n        public\n        view\n        returns (StaffMember memory)\n    {\n        return staffMembers[_from];\n    }\n\n    function listStaffMembers(uint256 _from, bool skipInactive)\n        public\n        view\n        returns (StaffMember[10] memory)\n    {\n        StaffMember[10] memory list;\n        for (uint256 i = 0; i < 10; i++) {\n            if (nextStaffMembersId < i + _from + 1) {\n                i = 10;\n            } else if (skipInactive && !staffMembers[i + _from + 1].active) {\n                _from++;\n                i--;\n            } else {\n                list[i] = staffMembers[i + _from + 1];\n            }\n        }\n        return list;\n    }\n\n    function staffMembersLength() public view returns (uint256) {\n        return nextStaffMembersId - 1;\n    }\n\n    function createStaffMember(string memory _name) public payable {\n        if (allowed(msg.sender)) {\n            uint256 _nextStaffMemberId = nextStaffMembersId++;\n            StaffMember storage _staffMember = staffMembers[_nextStaffMemberId];\n            _staffMember.id = _nextStaffMemberId;\n            _staffMember.name = _name;\n            _staffMember.active = true;\n        }\n    }\n\n    function updateStaffMember(\n        uint256 _staffMemberId,\n        string memory _name,\n        bool _active\n    ) public payable {\n        if (allowed(msg.sender)) {\n            StaffMember storage _staffMember = staffMembers[_staffMemberId];\n            _staffMember.name = _name;\n            _staffMember.active = _active;\n        }\n    }\n\n    function listModifiers(uint256 _from)\n        public\n        view\n        returns (address[10] memory)\n    {\n        address[10] memory list;\n        for (uint256 i = 0; i < 10; i++) {\n            if (i + _from >= allowedModifiers.length) {\n                i = 10;\n            } else {\n                list[i] = allowedModifiers[i + _from];\n            }\n        }\n        return list;\n    }\n\n    function modifiersLength() public view returns (uint256) {\n        return allowedModifiers.length;\n    }\n\n    function addModifier(address _modifier) public payable {\n        if (allowed(msg.sender) && !allowedModifiersMap[_modifier]) {\n            allowedModifiers.push(_modifier);\n            allowedModifiersMap[_modifier] = true;\n            emit ModifierAdded(msg.sender, _modifier);\n        }\n    }\n\n    function removeModifier(address _modifier) public payable {\n        if (allowedToRemove(msg.sender, _modifier)) {\n            for (uint256 i = 0; i < allowedModifiers.length; i++) {\n                if (allowedModifiers[i] == _modifier) {\n                    uint256 _lastIndex = allowedModifiers.length - 1;\n                    if (i < _lastIndex) {\n                        allowedModifiers[i] = allowedModifiers[_lastIndex];\n                    }\n                    allowedModifiers.pop();\n                }\n            }\n            delete allowedModifiersMap[_modifier];\n            emit ModifierRemoved(msg.sender, _modifier);\n        }\n    }\n\n    function allowedToRemove(address _sender, address _toRemove)\n        public\n        view\n        returns (bool)\n    {\n        if (allowed(_sender)) {\n            if (_sender == _toRemove) {\n                return false;\n            } else if (_toRemove == owner) {\n                return false;\n            } else {\n                return true;\n            }\n        } else {\n            return false;\n        }\n    }\n\n    function allowed(address _modifierAddress) public view returns (bool) {\n        return allowed(_modifierAddress, 0);\n    }\n\n    function allowed(address modifierAddress, uint256 index)\n        private\n        view\n        returns (bool)\n    {\n        if (modifierAddress == allowedModifiers[index]) {\n            return true;\n        } else if (index < allowedModifiers.length - 1) {\n            return allowed(modifierAddress, index + 1);\n        } else {\n            return false;\n        }\n    }\n\n    function addCertificate(Certificate _certificate) public payable {\n        if (\n            allowed(msg.sender) &&\n            _certificate.status() == Certificate.State.approved &&\n            _certificate.institution() == this\n        ) {\n            issuedCertificates.push(_certificate);\n        }\n    }\n}\n\ncontract Application {\n    /*\n    Application is the root contract that the UI will use to interact with sub contracts \n    */\n\n    mapping(uint256 => Institution) public institutions;\n    uint256 nextInstitutionId = 0;\n    mapping(address => Faculty) public faculties;\n    mapping(uint256 => Faculty) facultiesByIndex;\n    uint256 nextFacultyId = 0;\n\n    mapping(uint256 => Certificate[]) pendingCertificates;\n\n    function createInstitution(string memory _name) public payable {\n        uint256 _id = nextInstitutionId++;\n        Institution _institution = new Institution(_id, _name, msg.sender);\n        institutions[_id] = _institution;\n    }\n\n    function listInstitutions(uint256 _from)\n        public\n        view\n        returns (Institution[10] memory)\n    {\n        Institution[10] memory list;\n        for (uint256 i = 0; i < 10; i++) {\n            list[i] = institutions[i + _from];\n        }\n        return list;\n    }\n\n    function institutionsLength() public view returns (uint256) {\n        return nextInstitutionId;\n    }\n\n    function createFaculty(string memory _name) public payable {\n        if (address(faculties[msg.sender]) == address(0x0)) {\n            uint256 _id = nextFacultyId++;\n            Faculty faculty = new Faculty(_id, _name, msg.sender);\n            facultiesByIndex[_id] = faculty;\n            faculties[msg.sender] = faculty;\n        }\n    }\n\n    function listFaculties(uint256 _from)\n        public\n        view\n        returns (Faculty[10] memory)\n    {\n        Faculty[10] memory list;\n        for (uint256 i = 0; i < 10; i++) {\n            list[i] = facultiesByIndex[i + _from];\n        }\n        return list;\n    }\n\n    function facultiesLength() public view returns (uint256) {\n        return nextFacultyId;\n    }\n\n    function removeCertificate(Certificate _certificate) public payable {\n        uint256 _instituionId = _certificate.institution().id();\n        Certificate[] storage _pendingCertificates =\n            pendingCertificates[_instituionId];\n        for (uint256 i = 0; i < _pendingCertificates.length; i++) {\n            if (_pendingCertificates[i] == _certificate) {\n                uint256 _lastIndex = _pendingCertificates.length - 1;\n                if (i < _lastIndex) {\n                    _pendingCertificates[i] = _pendingCertificates[_lastIndex];\n                }\n                _pendingCertificates.pop();\n            }\n        }\n    }\n}\n",
  "sourcePath": "/home/mortadaak/Projects/aacsb_accreditiation/contracts/Application.sol",
  "compiler": {
    "name": "solc",
    "version": "0.7.5+commit.eb77ed08.Emscripten.clang"
  },
  "schemaVersion": "3.3.3",
  "updatedAt": "2021-01-13T00:24:35.593Z",
  "networkType": "ethereum",
  "devdoc": {
    "kind": "dev",
    "methods": {},
    "version": 1
  },
  "userdoc": {
    "kind": "user",
    "methods": {},
    "version": 1
  }
}