{
  "contractName": "Application",
  "abi": [
    {
      "inputs": [
        {
          "internalType": "uint256",
          "name": "",
          "type": "uint256"
        }
      ],
      "name": "faculties",
      "outputs": [
        {
          "internalType": "contract Faculty",
          "name": "",
          "type": "address"
        }
      ],
      "stateMutability": "view",
      "type": "function",
      "constant": true
    },
    {
      "inputs": [
        {
          "internalType": "uint256",
          "name": "",
          "type": "uint256"
        }
      ],
      "name": "institutions",
      "outputs": [
        {
          "internalType": "contract Institution",
          "name": "",
          "type": "address"
        }
      ],
      "stateMutability": "view",
      "type": "function",
      "constant": true
    },
    {
      "inputs": [
        {
          "internalType": "string",
          "name": "_name",
          "type": "string"
        }
      ],
      "name": "createInstitution",
      "outputs": [],
      "stateMutability": "payable",
      "type": "function",
      "payable": true
    },
    {
      "inputs": [
        {
          "internalType": "uint256",
          "name": "_id",
          "type": "uint256"
        }
      ],
      "name": "institution",
      "outputs": [
        {
          "internalType": "address",
          "name": "",
          "type": "address"
        }
      ],
      "stateMutability": "view",
      "type": "function",
      "constant": true
    },
    {
      "inputs": [
        {
          "internalType": "string",
          "name": "_name",
          "type": "string"
        },
        {
          "internalType": "uint16",
          "name": "_yearEnded",
          "type": "uint16"
        },
        {
          "internalType": "string",
          "name": "_qualificationDescription",
          "type": "string"
        },
        {
          "internalType": "uint16",
          "name": "_teachingProductivity",
          "type": "uint16"
        },
        {
          "internalType": "uint16",
          "name": "_productivityPercentage",
          "type": "uint16"
        }
      ],
      "name": "createFaculty",
      "outputs": [],
      "stateMutability": "payable",
      "type": "function",
      "payable": true
    }
  ],
  "bytecode": "0x60806040526000600155600060035534801561001a57600080fd5b506128888061002a6000396000f3fe608060405260043610620000505760003560e01c8063029bf70114620000555780632eb78bf61462000075578063b0fb757214620000b9578063c3b59d0014620000d9578063ca26e03a146200011d575b600080fd5b6200007360048036038101906200006d919062000404565b62000161565b005b3480156200008257600080fd5b50620000a160048036038101906200009b9190620004fd565b6200020d565b604051620000b09190620005d0565b60405180910390f35b620000d76004803603810190620000d1919062000449565b62000249565b005b348015620000e657600080fd5b50620001056004803603810190620000ff9190620004fd565b620002f8565b6040516200011491906200060a565b60405180910390f35b3480156200012a57600080fd5b50620001496004803603810190620001439190620004fd565b6200032b565b604051620001589190620005ed565b60405180910390f35b600060016000815480929190600101919050559050600081833360405162000189906200035e565b620001979392919062000692565b604051809103906000f080158015620001b4573d6000803e3d6000fd5b5090508060008084815260200190815260200160002060006101000a81548173ffffffffffffffffffffffffffffffffffffffff021916908373ffffffffffffffffffffffffffffffffffffffff160217905550505050565b600080600083815260200190815260200160002060009054906101000a900473ffffffffffffffffffffffffffffffffffffffff169050919050565b600060036000815480929190600101919050559050858585858560405162000271906200036c565b6200028195949392919062000627565b604051809103906000f0801580156200029e573d6000803e3d6000fd5b506002600083815260200190815260200160002060006101000a81548173ffffffffffffffffffffffffffffffffffffffff021916908373ffffffffffffffffffffffffffffffffffffffff160217905550505050505050565b60006020528060005260406000206000915054906101000a900473ffffffffffffffffffffffffffffffffffffffff1681565b60026020528060005260406000206000915054906101000a900473ffffffffffffffffffffffffffffffffffffffff1681565b610d2480620008be83390190565b61127180620015e283390190565b600082601f8301126200038c57600080fd5b8135620003a36200039d826200070a565b620006d6565b91508082526020830160208301858383011115620003c057600080fd5b620003cd83828462000831565b50505092915050565b600081359050620003e78162000889565b92915050565b600081359050620003fe81620008a3565b92915050565b6000602082840312156200041757600080fd5b600082013567ffffffffffffffff8111156200043257600080fd5b62000440848285016200037a565b91505092915050565b600080600080600060a086880312156200046257600080fd5b600086013567ffffffffffffffff8111156200047d57600080fd5b6200048b888289016200037a565b95505060206200049e88828901620003d6565b945050604086013567ffffffffffffffff811115620004bc57600080fd5b620004ca888289016200037a565b9350506060620004dd88828901620003d6565b9250506080620004f088828901620003d6565b9150509295509295909350565b6000602082840312156200051057600080fd5b60006200052084828501620003ed565b91505092915050565b6200053481620007a5565b82525050565b620005458162000759565b82525050565b6200055681620007b9565b82525050565b6200056781620007e1565b82525050565b60006200057a826200073d565b62000586818562000748565b93506200059881856020860162000840565b620005a38162000878565b840191505092915050565b620005b9816200076d565b82525050565b620005ca816200079b565b82525050565b6000602082019050620005e760008301846200053a565b92915050565b60006020820190506200060460008301846200054b565b92915050565b60006020820190506200062160008301846200055c565b92915050565b600060a08201905081810360008301526200064381886200056d565b9050620006546020830187620005ae565b81810360408301526200066881866200056d565b9050620006796060830185620005ae565b620006886080830184620005ae565b9695505050505050565b6000606082019050620006a96000830186620005bf565b8181036020830152620006bd81856200056d565b9050620006ce604083018462000529565b949350505050565b6000604051905081810181811067ffffffffffffffff821117156200070057620006ff62000876565b5b8060405250919050565b600067ffffffffffffffff82111562000728576200072762000876565b5b601f19601f8301169050602081019050919050565b600081519050919050565b600082825260208201905092915050565b600062000766826200077b565b9050919050565b600061ffff82169050919050565b600073ffffffffffffffffffffffffffffffffffffffff82169050919050565b6000819050919050565b6000620007b28262000809565b9050919050565b6000620007c682620007cd565b9050919050565b6000620007da826200077b565b9050919050565b6000620007ee82620007f5565b9050919050565b600062000802826200077b565b9050919050565b600062000816826200081d565b9050919050565b60006200082a826200077b565b9050919050565b82818337600083830152505050565b60005b838110156200086057808201518184015260208101905062000843565b8381111562000870576000848401525b50505050565bfe5b6000601f19601f8301169050919050565b62000894816200076d565b8114620008a057600080fd5b50565b620008ae816200079b565b8114620008ba57600080fd5b5056fe608060405260006005553480156200001657600080fd5b5060405162000d2438038062000d2483398181016040528101906200003c91906200023e565b8260008190555081600190805190602001906200005b929190620000fe565b5080600260006101000a81548173ffffffffffffffffffffffffffffffffffffffff021916908373ffffffffffffffffffffffffffffffffffffffff160217905550806003600081548110620000ad57fe5b9060005260206000200160006101000a81548173ffffffffffffffffffffffffffffffffffffffff021916908373ffffffffffffffffffffffffffffffffffffffff160217905550505050620003be565b828054600181600116156101000203166002900490600052602060002090601f01602090048101928262000136576000855562000182565b82601f106200015157805160ff191683800117855562000182565b8280016001018555821562000182579182015b828111156200018157825182559160200191906001019062000164565b5b50905062000191919062000195565b5090565b5b80821115620001b057600081600090555060010162000196565b5090565b600081519050620001c5816200038a565b92915050565b600082601f830112620001dd57600080fd5b8151620001f4620001ee82620002e1565b620002ad565b915080825260208301602083018583830111156200021157600080fd5b6200021e83828462000352565b50505092915050565b6000815190506200023881620003a4565b92915050565b6000806000606084860312156200025457600080fd5b6000620002648682870162000227565b935050602084015167ffffffffffffffff8111156200028257600080fd5b6200029086828701620001cb565b9250506040620002a386828701620001b4565b9150509250925092565b6000604051905081810181811067ffffffffffffffff82111715620002d757620002d662000388565b5b8060405250919050565b600067ffffffffffffffff821115620002ff57620002fe62000388565b5b601f19601f8301169050602081019050919050565b6000620003218262000328565b9050919050565b600073ffffffffffffffffffffffffffffffffffffffff82169050919050565b6000819050919050565b60005b838110156200037257808201518184015260208101905062000355565b8381111562000382576000848401525b50505050565bfe5b620003958162000314565b8114620003a157600080fd5b50565b620003af8162000348565b8114620003bb57600080fd5b50565b61095680620003ce6000396000f3fe608060405234801561001057600080fd5b506004361061009e5760003560e01c80638f8b3a15116100665780638f8b3a1514610147578063a013fe3014610163578063af640d0f1461017f578063c00e2c3d1461019d578063d63a8e11146101bb5761009e565b8063068d8174146100a357806306fdde03146100d35780631b7b8dac146100f15780633d7403a31461010d5780638da5cb5b14610129575b600080fd5b6100bd60048036038101906100b89190610682565b6101eb565b6040516100ca9190610765565b60405180910390f35b6100db61022a565b6040516100e8919061079b565b60405180910390f35b61010b60048036038101906101069190610641565b6102c8565b005b61012760048036038101906101229190610641565b610334565b005b61013161034e565b60405161013e9190610765565b60405180910390f35b610161600480360381019061015c91906106ab565b610374565b005b61017d60048036038101906101789190610618565b6103b8565b005b61018761042d565b60405161019491906107bd565b60405180910390f35b6101a5610433565b6040516101b291906107bd565b60405180910390f35b6101d560048036038101906101d09190610618565b610439565b6040516101e29190610780565b60405180910390f35b600381815481106101fb57600080fd5b906000526020600020016000915054906101000a900473ffffffffffffffffffffffffffffffffffffffff1681565b60018054600181600116156101000203166002900480601f0160208091040260200160405190810160405280929190818152602001828054600181600116156101000203166002900480156102c05780601f10610295576101008083540402835291602001916102c0565b820191906000526020600020905b8154815290600101906020018083116102a357829003601f168201915b505050505081565b6102d133610439565b15610331576000600560008154809291906001019190505590506000600460008381526020019081526020016000209050818160000181905550828160010190805190602001906103239291906104ef565b506000816003018190555050505b50565b806001908051906020019061034a9291906104ef565b5050565b600260009054906101000a900473ffffffffffffffffffffffffffffffffffffffff1681565b61037d33610439565b156103b4576000600460008481526020019081526020016000209050818160010190805190602001906103b19291906104ef565b50505b5050565b6103c133610439565b1561042a576003819080600181540180825580915050600190039060005260206000200160009091909190916101000a81548173ffffffffffffffffffffffffffffffffffffffff021916908373ffffffffffffffffffffffffffffffffffffffff1602179055505b50565b60005481565b60055481565b600061044682600061044d565b9050919050565b60006003828154811061045c57fe5b9060005260206000200160009054906101000a900473ffffffffffffffffffffffffffffffffffffffff1673ffffffffffffffffffffffffffffffffffffffff168373ffffffffffffffffffffffffffffffffffffffff1614156104c357600190506104e9565b6003805490508210156104e4576104dd836001840161044d565b90506104e9565b600090505b92915050565b828054600181600116156101000203166002900490600052602060002090601f016020900481019282610525576000855561056c565b82601f1061053e57805160ff191683800117855561056c565b8280016001018555821561056c579182015b8281111561056b578251825591602001919060010190610550565b5b509050610579919061057d565b5090565b5b8082111561059657600081600090555060010161057e565b5090565b6000813590506105a9816108f2565b92915050565b600082601f8301126105c057600080fd5b81356105d36105ce82610809565b6107d8565b915080825260208301602083018583830111156105ef57600080fd5b6105fa83828461089d565b50505092915050565b60008135905061061281610909565b92915050565b60006020828403121561062a57600080fd5b60006106388482850161059a565b91505092915050565b60006020828403121561065357600080fd5b600082013567ffffffffffffffff81111561066d57600080fd5b610679848285016105af565b91505092915050565b60006020828403121561069457600080fd5b60006106a284828501610603565b91505092915050565b600080604083850312156106be57600080fd5b60006106cc85828601610603565b925050602083013567ffffffffffffffff8111156106e957600080fd5b6106f5858286016105af565b9150509250929050565b61070881610855565b82525050565b61071781610867565b82525050565b600061072882610839565b6107328185610844565b93506107428185602086016108ac565b61074b816108e1565b840191505092915050565b61075f81610893565b82525050565b600060208201905061077a60008301846106ff565b92915050565b6000602082019050610795600083018461070e565b92915050565b600060208201905081810360008301526107b5818461071d565b905092915050565b60006020820190506107d26000830184610756565b92915050565b6000604051905081810181811067ffffffffffffffff821117156107ff576107fe6108df565b5b8060405250919050565b600067ffffffffffffffff821115610824576108236108df565b5b601f19601f8301169050602081019050919050565b600081519050919050565b600082825260208201905092915050565b600061086082610873565b9050919050565b60008115159050919050565b600073ffffffffffffffffffffffffffffffffffffffff82169050919050565b6000819050919050565b82818337600083830152505050565b60005b838110156108ca5780820151818401526020810190506108af565b838111156108d9576000848401525b50505050565bfe5b6000601f19601f8301169050919050565b6108fb81610855565b811461090657600080fd5b50565b61091281610893565b811461091d57600080fd5b5056fea26469706673582212206152e9d0da9a9c50f9ee0c1c1e47982ff2c6254d1fb95756f4e0c0752125118c64736f6c6343000705003360806040523480156200001157600080fd5b506040516200127138038062001271833981810160405281019062000037919062000234565b84600190805190602001906200004f9291906200010b565b5083600260006101000a81548161ffff021916908361ffff1602179055508260039080519060200190620000859291906200010b565b5081600460006101000a81548161ffff021916908361ffff16021790555080600460026101000a81548161ffff021916908361ffff160217905550336004806101000a81548173ffffffffffffffffffffffffffffffffffffffff021916908373ffffffffffffffffffffffffffffffffffffffff1602179055505050505050620003af565b828054600181600116156101000203166002900490600052602060002090601f0160209004810192826200014357600085556200018f565b82601f106200015e57805160ff19168380011785556200018f565b828001600101855582156200018f579182015b828111156200018e57825182559160200191906001019062000171565b5b5090506200019e9190620001a2565b5090565b5b80821115620001bd576000816000905550600101620001a3565b5090565b600082601f830112620001d357600080fd5b8151620001ea620001e4826200031c565b620002e8565b915080825260208301602083018583830111156200020757600080fd5b620002148382846200035d565b50505092915050565b6000815190506200022e8162000395565b92915050565b600080600080600060a086880312156200024d57600080fd5b600086015167ffffffffffffffff8111156200026857600080fd5b6200027688828901620001c1565b955050602062000289888289016200021d565b945050604086015167ffffffffffffffff811115620002a757600080fd5b620002b588828901620001c1565b9350506060620002c8888289016200021d565b9250506080620002db888289016200021d565b9150509295509295909350565b6000604051905081810181811067ffffffffffffffff8211171562000312576200031162000393565b5b8060405250919050565b600067ffffffffffffffff8211156200033a576200033962000393565b5b601f19601f8301169050602081019050919050565b600061ffff82169050919050565b60005b838110156200037d57808201518184015260208101905062000360565b838111156200038d576000848401525b50505050565bfe5b620003a0816200034f565b8114620003ac57600080fd5b50565b610eb280620003bf6000396000f3fe608060405234801561001057600080fd5b50600436106100b45760003560e01c80638da5cb5b116100715780638da5cb5b1461017b578063ac9cc71514610199578063c1c83c21146101b7578063c45429a9146101d5578063d63a8e11146101f3578063d90c137e14610223576100b4565b8063056d2947146100b957806306fdde03146100d75780634e8ef753146100f5578063572d4b8e14610113578063663b3e221461012f5780637c6ebde91461015f575b600080fd5b6100c161023f565b6040516100ce9190610c0d565b60405180910390f35b6100df610253565b6040516100ec9190610beb565b60405180910390f35b6100fd6102f1565b60405161010a9190610bd0565b60405180910390f35b61012d600480360381019061012891906109d8565b610317565b005b61014960048036038101906101449190610a7f565b6103b2565b6040516101569190610bb5565b60405180910390f35b61017960048036038101906101749190610986565b6103f1565b005b61018361059c565b6040516101909190610b3b565b60405180910390f35b6101a16105c0565b6040516101ae9190610c0d565b60405180910390f35b6101bf6105d4565b6040516101cc9190610c0d565b60405180910390f35b6101dd6105e8565b6040516101ea9190610beb565b60405180910390f35b61020d60048036038101906102089190610934565b610686565b60405161021a9190610b9a565b60405180910390f35b61023d60048036038101906102389190610934565b6106de565b005b600460029054906101000a900461ffff1681565b60018054600181600116156101000203166002900480601f0160208091040260200160405190810160405280929190818152602001828054600181600116156101000203166002900480156102e95780601f106102be576101008083540402835291602001916102e9565b820191906000526020600020905b8154815290600101906020018083116102cc57829003601f168201915b505050505081565b600660009054906101000a900473ffffffffffffffffffffffffffffffffffffffff1681565b61032033610686565b156103ab57846001908051906020019061033b9291906107b7565b5083600260006101000a81548161ffff021916908361ffff160217905550826003908051906020019061036f9291906107b7565b5081600460006101000a81548161ffff021916908361ffff16021790555080600460026101000a81548161ffff021916908361ffff1602179055505b5050505050565b600581815481106103c257600080fd5b906000526020600020016000915054906101000a900473ffffffffffffffffffffffffffffffffffffffff1681565b8073ffffffffffffffffffffffffffffffffffffffff1663d1384eb66040518163ffffffff1660e01b815260040160206040518083038186803b15801561043757600080fd5b505afa15801561044b573d6000803e3d6000fd5b505050506040513d601f19601f8201168201806040525081019061046f91906109af565b73ffffffffffffffffffffffffffffffffffffffff1663d63a8e11336040518263ffffffff1660e01b81526004016104a79190610b56565b60206040518083038186803b1580156104bf57600080fd5b505afa1580156104d3573d6000803e3d6000fd5b505050506040513d601f19601f820116820180604052508101906104f7919061095d565b15610599576005819080600181540180825580915050600190039060005260206000200160009091909190916101000a81548173ffffffffffffffffffffffffffffffffffffffff021916908373ffffffffffffffffffffffffffffffffffffffff1602179055507fcab8446535b35de1f0ebc27aeffe078cbebbd56fa92739c56cf2a99ed79665d63382604051610590929190610b71565b60405180910390a15b50565b60048054906101000a900473ffffffffffffffffffffffffffffffffffffffff1681565b600260009054906101000a900461ffff1681565b600460009054906101000a900461ffff1681565b60038054600181600116156101000203166002900480601f01602080910402602001604051908101604052809291908181526020018280546001816001161561010002031660029004801561067e5780601f106106535761010080835404028352916020019161067e565b820191906000526020600020905b81548152906001019060200180831161066157829003601f168201915b505050505081565b600060048054906101000a900473ffffffffffffffffffffffffffffffffffffffff1673ffffffffffffffffffffffffffffffffffffffff168273ffffffffffffffffffffffffffffffffffffffff16149050919050565b60008190508073ffffffffffffffffffffffffffffffffffffffff1663d63a8e11336040518263ffffffff1660e01b815260040161071c9190610b56565b60206040518083038186803b15801561073457600080fd5b505afa158015610748573d6000803e3d6000fd5b505050506040513d601f19601f8201168201806040525081019061076c919061095d565b156107b35780600660006101000a81548173ffffffffffffffffffffffffffffffffffffffff021916908373ffffffffffffffffffffffffffffffffffffffff1602179055505b5050565b828054600181600116156101000203166002900490600052602060002090601f0160209004810192826107ed5760008555610834565b82601f1061080657805160ff1916838001178555610834565b82800160010185558215610834579182015b82811115610833578251825591602001919060010190610818565b5b5090506108419190610845565b5090565b5b8082111561085e576000816000905550600101610846565b5090565b60008135905061087181610df2565b92915050565b60008151905061088681610e09565b92915050565b60008135905061089b81610e20565b92915050565b6000815190506108b081610e37565b92915050565b600082601f8301126108c757600080fd5b81356108da6108d582610c59565b610c28565b915080825260208301602083018583830111156108f657600080fd5b610901838284610d9d565b50505092915050565b60008135905061091981610e4e565b92915050565b60008135905061092e81610e65565b92915050565b60006020828403121561094657600080fd5b600061095484828501610862565b91505092915050565b60006020828403121561096f57600080fd5b600061097d84828501610877565b91505092915050565b60006020828403121561099857600080fd5b60006109a68482850161088c565b91505092915050565b6000602082840312156109c157600080fd5b60006109cf848285016108a1565b91505092915050565b600080600080600060a086880312156109f057600080fd5b600086013567ffffffffffffffff811115610a0a57600080fd5b610a16888289016108b6565b9550506020610a278882890161090a565b945050604086013567ffffffffffffffff811115610a4457600080fd5b610a50888289016108b6565b9350506060610a618882890161090a565b9250506080610a728882890161090a565b9150509295509295909350565b600060208284031215610a9157600080fd5b6000610a9f8482850161091f565b91505092915050565b610ab181610d1f565b82525050565b610ac081610ca5565b82525050565b610acf81610cb7565b82525050565b610ade81610d31565b82525050565b610aed81610d55565b82525050565b6000610afe82610c89565b610b088185610c94565b9350610b18818560208601610dac565b610b2181610de1565b840191505092915050565b610b3581610ce7565b82525050565b6000602082019050610b506000830184610ab7565b92915050565b6000602082019050610b6b6000830184610aa8565b92915050565b6000604082019050610b866000830185610aa8565b610b936020830184610ad5565b9392505050565b6000602082019050610baf6000830184610ac6565b92915050565b6000602082019050610bca6000830184610ad5565b92915050565b6000602082019050610be56000830184610ae4565b92915050565b60006020820190508181036000830152610c058184610af3565b905092915050565b6000602082019050610c226000830184610b2c565b92915050565b6000604051905081810181811067ffffffffffffffff82111715610c4f57610c4e610ddf565b5b8060405250919050565b600067ffffffffffffffff821115610c7457610c73610ddf565b5b601f19601f8301169050602081019050919050565b600081519050919050565b600082825260208201905092915050565b6000610cb082610cf5565b9050919050565b60008115159050919050565b6000610cce82610ca5565b9050919050565b6000610ce082610ca5565b9050919050565b600061ffff82169050919050565b600073ffffffffffffffffffffffffffffffffffffffff82169050919050565b6000819050919050565b6000610d2a82610d79565b9050919050565b6000610d3c82610d43565b9050919050565b6000610d4e82610cf5565b9050919050565b6000610d6082610d67565b9050919050565b6000610d7282610cf5565b9050919050565b6000610d8482610d8b565b9050919050565b6000610d9682610cf5565b9050919050565b82818337600083830152505050565b60005b83811015610dca578082015181840152602081019050610daf565b83811115610dd9576000848401525b50505050565bfe5b6000601f19601f8301169050919050565b610dfb81610ca5565b8114610e0657600080fd5b50565b610e1281610cb7565b8114610e1d57600080fd5b50565b610e2981610cc3565b8114610e3457600080fd5b50565b610e4081610cd5565b8114610e4b57600080fd5b50565b610e5781610ce7565b8114610e6257600080fd5b50565b610e6e81610d15565b8114610e7957600080fd5b5056fea26469706673582212208e71b5ccf1abfa718a9bb719c6d90e22bec3074af6943ff4e318c70f44d501c764736f6c63430007050033a2646970667358221220f38da4eed59d0c8251d85979921014036dadc6f4857f0e116e250746198ee0b664736f6c63430007050033",
  "immutableReferences": {},
  "source": "// SPDX-License-Identifier: GPL-3.0\npragma solidity >=0.5.0 <0.9.0;\npragma abicoder v2;\n\ncontract Certificate {\n    enum State {requested, approved, rejected}\n    enum Degree {\n        ScholarlyAcademics,\n        PracticeAcademics,\n        ScholarlyPractitioner,\n        InstructionalPractitioner\n    }\n    string public specialtyField;\n    Faculty public faculty;\n    Institution public institution;\n    Degree public degree;\n    State public status = State.requested;\n    event Request(address sender);\n    event Reject(address sender);\n    event Approve(address sender);\n\n    constructor(\n        Faculty _faculty,\n        Institution _institution,\n        Degree _degree\n    ) {\n        faculty = _faculty;\n        institution = _institution;\n        degree = _degree;\n        emit Request(msg.sender);\n    }\n\n    function reject() public {\n        if (editable()) {\n            status = State.rejected;\n            emit Reject(msg.sender);\n        }\n    }\n\n    function approve() public {\n        if (editable() && institution.allowed(msg.sender)) {\n            status = State.approved;\n            faculty.addCertificate(this);\n            emit Approve(msg.sender);\n        }\n    }\n\n    function editable() public view returns (bool) {\n        return ((status == State.requested &&\n            (institution.allowed(msg.sender))) || faculty.allowed(msg.sender));\n    }\n}\n\ncontract Faculty {\n    uint256 id;\n    string public name;\n    uint16 public yearEnded;\n    string public qualificationDescription;\n    uint16 public teachingProductivity;\n    uint16 public productivityPercentage;\n    address public owner;\n    Certificate[] public certificates;\n    Institution public currentInstitution;\n\n    event CertificateAdded(address assigner, Certificate certificate);\n\n    constructor(\n        string memory _name,\n        uint16 _yearEnded,\n        string memory _qualificationDescription,\n        uint16 _teachingProductivity,\n        uint16 _productivityPercentage\n    ) {\n        name = _name;\n        yearEnded = _yearEnded;\n        qualificationDescription = _qualificationDescription;\n        teachingProductivity = _teachingProductivity;\n        productivityPercentage = _productivityPercentage;\n        owner = msg.sender;\n    }\n\n    function update(\n        string memory _name,\n        uint16 _yearEnded,\n        string memory _qualificationDescription,\n        uint16 _teachingProductivity,\n        uint16 _productivityPercentage\n    ) public {\n        if (allowed(msg.sender)) {\n            name = _name;\n            yearEnded = _yearEnded;\n            qualificationDescription = _qualificationDescription;\n            teachingProductivity = _teachingProductivity;\n            productivityPercentage = _productivityPercentage;\n        }\n    }\n\n    function assignInstitution(address _institutionAddress) public {\n        Institution _institution = Institution(_institutionAddress);\n        if (_institution.allowed(msg.sender)) {\n            currentInstitution = _institution;\n        }\n    }\n\n    function allowed(address _address) public view returns (bool) {\n        return _address == owner;\n    }\n\n    function addCertificate(Certificate _certificate) public {\n        if (_certificate.institution().allowed(msg.sender)) {\n            certificates.push(_certificate);\n            emit CertificateAdded(msg.sender, _certificate);\n        }\n    }\n}\n\ncontract Institution {\n    struct Department {\n        uint256 id;\n        string name;\n        mapping(uint256 => Faculty) faculties;\n        uint256 nextFacultyId;\n    }\n\n    uint256 public id;\n    string public name;\n    address public owner;\n    address[] public allowedModifiers;\n    mapping(uint256 => Department) departments;\n    uint256 public nextDepartmentId = 0;\n\n    constructor(\n        uint256 _id,\n        string memory _name,\n        address sender\n    ) {\n        id = _id;\n        name = _name;\n        owner = sender;\n        allowedModifiers[0] = sender;\n    }\n\n    function update(string memory _name) public {\n        name = _name;\n    }\n\n    function createDepartment(string memory _name) public {\n        if (allowed(msg.sender)) {\n            uint256 _nextDepartmentId = nextDepartmentId++;\n            Department storage _department = departments[_nextDepartmentId];\n            _department.id = _nextDepartmentId;\n            _department.name = _name;\n            _department.nextFacultyId = 0;\n        }\n    }\n\n    function updateDepartment(uint256 _departmentId, string memory _name)\n        public\n    {\n        if (allowed(msg.sender)) {\n            Department storage _department = departments[_departmentId];\n            _department.name = _name;\n        }\n    }\n\n    function addModifier(address _modifier) public {\n        if (allowed(msg.sender)) {\n            allowedModifiers.push(_modifier);\n        }\n    }\n\n    function allowed(address modifierAddress) public view returns (bool) {\n        return allowed(modifierAddress, 0);\n    }\n\n    function allowed(address modifierAddress, uint256 index)\n        private\n        view\n        returns (bool)\n    {\n        if (modifierAddress == allowedModifiers[index]) {\n            return true;\n        } else if (index < allowedModifiers.length) {\n            return allowed(modifierAddress, index + 1);\n        } else {\n            return false;\n        }\n    }\n}\n\ncontract Application {\n    mapping(uint256 => Institution) public institutions;\n    uint256 nextInstitutionId = 0;\n    mapping(uint256 => Faculty) public faculties;\n    uint256 nextFacultyId = 0;\n\n    function createInstitution(string memory _name) public payable {\n        uint256 _id = nextInstitutionId++;\n        Institution _institution = new Institution(_id, _name, msg.sender);\n        institutions[_id] = _institution;\n    }\n\n    function institution(uint256 _id) public view returns (address) {\n        return address(institutions[_id]);\n    }\n\n    function createFaculty(\n        string memory _name,\n        uint16 _yearEnded,\n        string memory _qualificationDescription,\n        uint16 _teachingProductivity,\n        uint16 _productivityPercentage\n    ) public payable {\n        uint256 _id = nextFacultyId++;\n        faculties[_id] = new Faculty(\n            _name,\n            _yearEnded,\n            _qualificationDescription,\n            _teachingProductivity,\n            _productivityPercentage\n        );\n    }\n}\n",
  "sourcePath": "/home/mortadaak/Projects/aacsb_accreditiation/contracts/Application.sol",
  "compiler": {
    "name": "solc",
    "version": "0.7.5+commit.eb77ed08.Emscripten.clang"
  },
  "schemaVersion": "3.3.3",
  "updatedAt": "2020-12-29T18:57:26.675Z",
  "networkType": "ethereum",
  "devdoc": {
    "kind": "dev",
    "methods": {},
    "version": 1
  },
  "userdoc": {
    "kind": "user",
    "methods": {},
    "version": 1
  }
}