{
  "contractName": "Application",
  "abi": [
    {
      "inputs": [],
      "stateMutability": "nonpayable",
      "type": "constructor"
    },
    {
      "anonymous": false,
      "inputs": [
        {
          "indexed": false,
          "internalType": "string",
          "name": "eventType",
          "type": "string"
        },
        {
          "indexed": false,
          "internalType": "string",
          "name": "targetType",
          "type": "string"
        },
        {
          "indexed": false,
          "internalType": "address",
          "name": "targetAddress",
          "type": "address"
        }
      ],
      "name": "ApplicationEvent",
      "type": "event"
    },
    {
      "inputs": [],
      "name": "certificatesManager",
      "outputs": [
        {
          "internalType": "contract CertificatesManager",
          "name": "",
          "type": "address"
        }
      ],
      "stateMutability": "view",
      "type": "function",
      "constant": true
    },
    {
      "inputs": [],
      "name": "facultiesManager",
      "outputs": [
        {
          "internalType": "contract FacultiesManager",
          "name": "",
          "type": "address"
        }
      ],
      "stateMutability": "view",
      "type": "function",
      "constant": true
    },
    {
      "inputs": [],
      "name": "instituionsManager",
      "outputs": [
        {
          "internalType": "contract InstituionsManager",
          "name": "",
          "type": "address"
        }
      ],
      "stateMutability": "view",
      "type": "function",
      "constant": true
    },
    {
      "inputs": [
        {
          "internalType": "string",
          "name": "eventType",
          "type": "string"
        },
        {
          "internalType": "string",
          "name": "targetType",
          "type": "string"
        },
        {
          "internalType": "address",
          "name": "targetAddress",
          "type": "address"
        }
      ],
      "name": "emitEvent",
      "outputs": [],
      "stateMutability": "payable",
      "type": "function",
      "payable": true
    }
  ],
  "bytecode": "0x608060405234801561001057600080fd5b503060405161001e90610171565b61002891906101aa565b604051809103906000f080158015610044573d6000803e3d6000fd5b506000806101000a81548173ffffffffffffffffffffffffffffffffffffffff021916908373ffffffffffffffffffffffffffffffffffffffff160217905550306040516100919061017f565b61009b91906101aa565b604051809103906000f0801580156100b7573d6000803e3d6000fd5b50600160006101000a81548173ffffffffffffffffffffffffffffffffffffffff021916908373ffffffffffffffffffffffffffffffffffffffff160217905550306040516101059061018d565b61010f91906101aa565b604051809103906000f08015801561012b573d6000803e3d6000fd5b50600260006101000a81548173ffffffffffffffffffffffffffffffffffffffff021916908373ffffffffffffffffffffffffffffffffffffffff160217905550610209565b612a64806200075a83390190565b612bba80620031be83390190565b6144d88062005d7883390190565b6101a4816101e5565b82525050565b60006020820190506101bf600083018461019b565b92915050565b600073ffffffffffffffffffffffffffffffffffffffff82169050919050565b60006101f0826101f7565b9050919050565b6000610202826101c5565b9050919050565b61054180620002196000396000f3fe60806040526004361061003f5760003560e01c806323a4cbea1461004457806363441ab21461006f578063a3bf8aa11461008b578063ff25025b146100b6575b600080fd5b34801561005057600080fd5b506100596100e1565b6040516100669190610309565b60405180910390f35b610089600480360381019061008491906101fa565b610107565b005b34801561009757600080fd5b506100a0610147565b6040516100ad9190610324565b60405180910390f35b3480156100c257600080fd5b506100cb61016d565b6040516100d891906102ee565b60405180910390f35b600160009054906101000a900473ffffffffffffffffffffffffffffffffffffffff1681565b7f7100b3416f6d934993a9f327aba48b7664481b8eb193b6c86ea9c4fe6bac490f83838360405161013a9392919061033f565b60405180910390a1505050565b600260009054906101000a900473ffffffffffffffffffffffffffffffffffffffff1681565b60008054906101000a900473ffffffffffffffffffffffffffffffffffffffff1681565b6000813590506101a0816104f4565b92915050565b600082601f8301126101b757600080fd5b81356101ca6101c5826103b5565b610384565b915080825260208301602083018583830111156101e657600080fd5b6101f183828461049f565b50505092915050565b60008060006060848603121561020f57600080fd5b600084013567ffffffffffffffff81111561022957600080fd5b610235868287016101a6565b935050602084013567ffffffffffffffff81111561025257600080fd5b61025e868287016101a6565b925050604061026f86828701610191565b9150509250925092565b61028281610401565b82525050565b61029181610433565b82525050565b6102a081610457565b82525050565b6102af8161047b565b82525050565b60006102c0826103e5565b6102ca81856103f0565b93506102da8185602086016104ae565b6102e3816104e3565b840191505092915050565b60006020820190506103036000830184610288565b92915050565b600060208201905061031e6000830184610297565b92915050565b600060208201905061033960008301846102a6565b92915050565b6000606082019050818103600083015261035981866102b5565b9050818103602083015261036d81856102b5565b905061037c6040830184610279565b949350505050565b6000604051905081810181811067ffffffffffffffff821117156103ab576103aa6104e1565b5b8060405250919050565b600067ffffffffffffffff8211156103d0576103cf6104e1565b5b601f19601f8301169050602081019050919050565b600081519050919050565b600082825260208201905092915050565b600061040c82610413565b9050919050565b600073ffffffffffffffffffffffffffffffffffffffff82169050919050565b600061043e82610445565b9050919050565b600061045082610413565b9050919050565b600061046282610469565b9050919050565b600061047482610413565b9050919050565b60006104868261048d565b9050919050565b600061049882610413565b9050919050565b82818337600083830152505050565b60005b838110156104cc5780820151818401526020810190506104b1565b838111156104db576000848401525b50505050565bfe5b6000601f19601f8301169050919050565b6104fd81610401565b811461050857600080fd5b5056fea26469706673582212201ea171264aa34c8fe70878bc79d8c4f1b84b22765ae072c621014d878f3595a764736f6c6343000705003360806040523480156200001157600080fd5b5060405162002a6438038062002a64833981810160405281019062000037919062000096565b80600160006101000a81548173ffffffffffffffffffffffffffffffffffffffff021916908373ffffffffffffffffffffffffffffffffffffffff1602179055505062000124565b60008151905062000090816200010a565b92915050565b600060208284031215620000a957600080fd5b6000620000b9848285016200007f565b91505092915050565b6000620000cf82620000ea565b9050919050565b6000620000e382620000c2565b9050919050565b600073ffffffffffffffffffffffffffffffffffffffff82169050919050565b6200011581620000d6565b81146200012157600080fd5b50565b61293080620001346000396000f3fe6080604052600436106200007a5760003560e01c8063910b70cc1162000055578063910b70cc14620000ef5780639a2393f61462000133578063ad7a592f1462000177578063da60f30d14620001bb576200007a565b8063062cd999146200007f57806326e4ca82146200009f5780634069e45d14620000cf575b600080fd5b6200009d600480360381019062000097919062000ee0565b620001ff565b005b348015620000ac57600080fd5b50620000b7620003cd565b604051620000c691906200123b565b60405180910390f35b620000ed6004803603810190620000e7919062000e5c565b620003f3565b005b348015620000fc57600080fd5b506200011b600480360381019062000115919062000f77565b62000790565b6040516200012a9190620013c1565b60405180910390f35b3480156200014057600080fd5b506200015f600480360381019062000159919062000e88565b620008b7565b6040516200016e9190620013c1565b60405180910390f35b3480156200018457600080fd5b50620001a360048036038101906200019d919062000fcf565b620009de565b604051620001b291906200121d565b60405180910390f35b348015620001c857600080fd5b50620001e76004803603810190620001e1919062000f36565b62000bb4565b604051620001f691906200121d565b60405180910390f35b600030848484604051620002139062000d8a565b62000222949392919062001258565b604051809103906000f0801580156200023f573d6000803e3d6000fd5b5090506000819080600181540180825580915050600190039060005260206000200160009091909190916101000a81548173ffffffffffffffffffffffffffffffffffffffff021916908373ffffffffffffffffffffffffffffffffffffffff160217905550600160009054906101000a900473ffffffffffffffffffffffffffffffffffffffff1673ffffffffffffffffffffffffffffffffffffffff166363441ab2846040518263ffffffff1660e01b81526004016200030291906200137a565b600060405180830381600087803b1580156200031d57600080fd5b505af115801562000332573d6000803e3d6000fd5b50505050600160009054906101000a900473ffffffffffffffffffffffffffffffffffffffff1673ffffffffffffffffffffffffffffffffffffffff166363441ab2856040518263ffffffff1660e01b815260040162000393919062001333565b600060405180830381600087803b158015620003ae57600080fd5b505af1158015620003c3573d6000803e3d6000fd5b5050505050505050565b600160009054906101000a900473ffffffffffffffffffffffffffffffffffffffff1681565b60005b60008054905081101562000568578173ffffffffffffffffffffffffffffffffffffffff16600082815481106200042957fe5b9060005260206000200160009054906101000a900473ffffffffffffffffffffffffffffffffffffffff1673ffffffffffffffffffffffffffffffffffffffff1614156200055a5760006001600080549050039050808210156200051757600081815481106200049557fe5b9060005260206000200160009054906101000a900473ffffffffffffffffffffffffffffffffffffffff1660008381548110620004ce57fe5b9060005260206000200160006101000a81548173ffffffffffffffffffffffffffffffffffffffff021916908373ffffffffffffffffffffffffffffffffffffffff1602179055505b60008054806200052357fe5b6001900381819060005260206000200160006101000a81549073ffffffffffffffffffffffffffffffffffffffff02191690559055505b8080600101915050620003f6565b50600160009054906101000a900473ffffffffffffffffffffffffffffffffffffffff1673ffffffffffffffffffffffffffffffffffffffff166363441ab28273ffffffffffffffffffffffffffffffffffffffff1663d1384eb66040518163ffffffff1660e01b815260040160206040518083038186803b158015620005ee57600080fd5b505afa15801562000603573d6000803e3d6000fd5b505050506040513d601f19601f8201168201806040525081019062000629919062000fa3565b6040518263ffffffff1660e01b8152600401620006479190620012ec565b600060405180830381600087803b1580156200066257600080fd5b505af115801562000677573d6000803e3d6000fd5b50505050600160009054906101000a900473ffffffffffffffffffffffffffffffffffffffff1673ffffffffffffffffffffffffffffffffffffffff166363441ab28273ffffffffffffffffffffffffffffffffffffffff16631080d5f86040518163ffffffff1660e01b815260040160206040518083038186803b1580156200070057600080fd5b505afa15801562000715573d6000803e3d6000fd5b505050506040513d601f19601f820116820180604052508101906200073b919062000eb4565b6040518263ffffffff1660e01b8152600401620007599190620012a5565b600060405180830381600087803b1580156200077457600080fd5b505af115801562000789573d6000803e3d6000fd5b5050505050565b6000806000905060005b600080549050811015620008ad578373ffffffffffffffffffffffffffffffffffffffff1660008281548110620007cd57fe5b9060005260206000200160009054906101000a900473ffffffffffffffffffffffffffffffffffffffff1673ffffffffffffffffffffffffffffffffffffffff1663d1384eb66040518163ffffffff1660e01b815260040160206040518083038186803b1580156200083e57600080fd5b505afa15801562000853573d6000803e3d6000fd5b505050506040513d601f19601f8201168201806040525081019062000879919062000fa3565b73ffffffffffffffffffffffffffffffffffffffff1614156200089f5781806001019250505b80806001019150506200079a565b5080915050919050565b6000806000905060005b600080549050811015620009d4578373ffffffffffffffffffffffffffffffffffffffff1660008281548110620008f457fe5b9060005260206000200160009054906101000a900473ffffffffffffffffffffffffffffffffffffffff1673ffffffffffffffffffffffffffffffffffffffff16631080d5f86040518163ffffffff1660e01b815260040160206040518083038186803b1580156200096557600080fd5b505afa1580156200097a573d6000803e3d6000fd5b505050506040513d601f19601f82011682018060405250810190620009a0919062000eb4565b73ffffffffffffffffffffffffffffffffffffffff161415620009c65781806001019250505b8080600101915050620008c1565b5080915050919050565b620009e862000d98565b620009f262000d98565b60008060005b6000805490508110801562000a0e5750600a8311155b1562000ba7578673ffffffffffffffffffffffffffffffffffffffff166000828154811062000a3957fe5b9060005260206000200160009054906101000a900473ffffffffffffffffffffffffffffffffffffffff1673ffffffffffffffffffffffffffffffffffffffff1663d1384eb66040518163ffffffff1660e01b815260040160206040518083038186803b15801562000aaa57600080fd5b505afa15801562000abf573d6000803e3d6000fd5b505050506040513d601f19601f8201168201806040525081019062000ae5919062000fa3565b73ffffffffffffffffffffffffffffffffffffffff16141562000b995785821062000b90576000818154811062000b1857fe5b9060005260206000200160009054906101000a900473ffffffffffffffffffffffffffffffffffffffff168484600a811062000b5057fe5b602002019073ffffffffffffffffffffffffffffffffffffffff16908173ffffffffffffffffffffffffffffffffffffffff168152505082806001019350505b81806001019250505b8080600101915050620009f8565b5082935050505092915050565b62000bbe62000d98565b62000bc862000d98565b60008060005b6000805490508110801562000be45750600a8311155b1562000d7d578673ffffffffffffffffffffffffffffffffffffffff166000828154811062000c0f57fe5b9060005260206000200160009054906101000a900473ffffffffffffffffffffffffffffffffffffffff1673ffffffffffffffffffffffffffffffffffffffff16631080d5f86040518163ffffffff1660e01b815260040160206040518083038186803b15801562000c8057600080fd5b505afa15801562000c95573d6000803e3d6000fd5b505050506040513d601f19601f8201168201806040525081019062000cbb919062000eb4565b73ffffffffffffffffffffffffffffffffffffffff16141562000d6f5785821062000d66576000818154811062000cee57fe5b9060005260206000200160009054906101000a900473ffffffffffffffffffffffffffffffffffffffff168484600a811062000d2657fe5b602002019073ffffffffffffffffffffffffffffffffffffffff16908173ffffffffffffffffffffffffffffffffffffffff168152505082806001019350505b81806001019250505b808060010191505062000bce565b5082935050505092915050565b6112e1806200161a83390190565b604051806101400160405280600a90602082028036833780820191505090505090565b60008135905062000dcc81620015a0565b92915050565b60008135905062000de381620015ba565b92915050565b60008151905062000dfa81620015ba565b92915050565b60008135905062000e1181620015d4565b92915050565b60008151905062000e2881620015d4565b92915050565b60008135905062000e3f81620015ee565b92915050565b60008135905062000e5681620015ff565b92915050565b60006020828403121562000e6f57600080fd5b600062000e7f8482850162000dbb565b91505092915050565b60006020828403121562000e9b57600080fd5b600062000eab8482850162000dd2565b91505092915050565b60006020828403121562000ec757600080fd5b600062000ed78482850162000de9565b91505092915050565b60008060006060848603121562000ef657600080fd5b600062000f068682870162000dd2565b935050602062000f198682870162000e00565b925050604062000f2c8682870162000e2e565b9150509250925092565b6000806040838503121562000f4a57600080fd5b600062000f5a8582860162000dd2565b925050602062000f6d8582860162000e45565b9150509250929050565b60006020828403121562000f8a57600080fd5b600062000f9a8482850162000e00565b91505092915050565b60006020828403121562000fb657600080fd5b600062000fc68482850162000e17565b91505092915050565b6000806040838503121562000fe357600080fd5b600062000ff38582860162000e00565b9250506020620010068582860162000e45565b9150509250929050565b60006200101e8383620010af565b60208301905092915050565b62001035816200141c565b82525050565b6200104681620013e8565b62001052818462001400565b92506200105f82620013de565b8060005b83811015620010965781516200107a878262001010565b96506200108783620013f3565b92505060018101905062001063565b505050505050565b620010a981620014ab565b82525050565b620010ba81620014d3565b82525050565b620010cb81620014fb565b82525050565b620010dc8162001523565b82525050565b620010ed816200154b565b82525050565b620010fe8162001573565b82525050565b6000620011136007836200140b565b91507f464143554c5459000000000000000000000000000000000000000000000000006000830152602082019050919050565b6000620011556012836200140b565b91507f43455254494649434154455f52454d4f564500000000000000000000000000006000830152602082019050919050565b6000620011976013836200140b565b91507f524551554553545f4345525449464943415445000000000000000000000000006000830152602082019050919050565b6000620011d9600b836200140b565b91507f494e535449545554494f4e0000000000000000000000000000000000000000006000830152602082019050919050565b6200121781620014a1565b82525050565b6000610140820190506200123560008301846200103b565b92915050565b60006020820190506200125260008301846200109e565b92915050565b60006080820190506200126f6000830187620010c0565b6200127e6020830186620010d1565b6200128d6040830185620010e2565b6200129c6060830184620010f3565b95945050505050565b60006060820190508181036000830152620012c08162001146565b90508181036020830152620012d58162001104565b9050620012e660408301846200102a565b92915050565b60006060820190508181036000830152620013078162001146565b905081810360208301526200131c81620011ca565b90506200132d60408301846200102a565b92915050565b600060608201905081810360008301526200134e8162001188565b90508181036020830152620013638162001104565b90506200137460408301846200102a565b92915050565b60006060820190508181036000830152620013958162001188565b90508181036020830152620013aa81620011ca565b9050620013bb60408301846200102a565b92915050565b6000602082019050620013d860008301846200120c565b92915050565b6000819050919050565b6000600a9050919050565b6000602082019050919050565b600081905092915050565b600082825260208201905092915050565b6000620014298262001481565b9050919050565b60006200143d826200141c565b9050919050565b600062001451826200141c565b9050919050565b600062001465826200141c565b9050919050565b60008190506200147c8262001589565b919050565b600073ffffffffffffffffffffffffffffffffffffffff82169050919050565b6000819050919050565b6000620014b882620014bf565b9050919050565b6000620014cc8262001481565b9050919050565b6000620014e082620014e7565b9050919050565b6000620014f48262001481565b9050919050565b600062001508826200150f565b9050919050565b60006200151c8262001481565b9050919050565b6000620015308262001537565b9050919050565b6000620015448262001481565b9050919050565b600062001558826200155f565b9050919050565b60006200156c8262001481565b9050919050565b600062001580826200146c565b9050919050565bfe5b600481106200159d576200159c62001587565b5b50565b620015ab8162001430565b8114620015b757600080fd5b50565b620015c58162001444565b8114620015d157600080fd5b50565b620015df8162001458565b8114620015eb57600080fd5b50565b60048110620015fc57600080fd5b50565b6200160a81620014a1565b81146200161657600080fd5b5056fe60806040526000600160156101000a81548160ff021916908360028111156200002457fe5b02179055503480156200003657600080fd5b50604051620012e1380380620012e183398181016040528101906200005c9190620001a8565b83600260006101000a81548173ffffffffffffffffffffffffffffffffffffffff021916908373ffffffffffffffffffffffffffffffffffffffff160217905550826000806101000a81548173ffffffffffffffffffffffffffffffffffffffff021916908373ffffffffffffffffffffffffffffffffffffffff16021790555081600160006101000a81548173ffffffffffffffffffffffffffffffffffffffff021916908373ffffffffffffffffffffffffffffffffffffffff16021790555080600160146101000a81548160ff021916908360038111156200013d57fe5b021790555050505050620002e3565b6000815190506200015d8162000284565b92915050565b60008151905062000174816200029e565b92915050565b6000815190506200018b81620002b8565b92915050565b600081519050620001a281620002d2565b92915050565b60008060008060808587031215620001bf57600080fd5b6000620001cf878288016200014c565b9450506020620001e28782880162000163565b9350506040620001f5878288016200017a565b9250506060620002088782880162000191565b91505092959194509250565b6000620002218262000264565b9050919050565b6000620002358262000214565b9050919050565b6000620002498262000214565b9050919050565b60006200025d8262000214565b9050919050565b600073ffffffffffffffffffffffffffffffffffffffff82169050919050565b6200028f8162000228565b81146200029b57600080fd5b50565b620002a9816200023c565b8114620002b557600080fd5b50565b620002c38162000250565b8114620002cf57600080fd5b50565b60048110620002e057600080fd5b50565b610fee80620002f36000396000f3fe6080604052600436106100705760003560e01c80634dc415de1161004e5780634dc415de146100d5578063d1384eb6146100df578063f35d71021461010a578063fc66c5d31461013557610070565b80631080d5f81461007557806312424e3f146100a0578063200d2ed2146100aa575b600080fd5b34801561008157600080fd5b5061008a610172565b6040516100979190610ce5565b60405180910390f35b6100a8610196565b005b3480156100b657600080fd5b506100bf61062a565b6040516100cc9190610d36565b60405180910390f35b6100dd61063d565b005b3480156100eb57600080fd5b506100f4610903565b6040516101019190610d00565b60405180910390f35b34801561011657600080fd5b5061011f610929565b60405161012c9190610d1b565b60405180910390f35b34801561014157600080fd5b5061015c60048036038101906101579190610a74565b61093c565b6040516101699190610c86565b60405180910390f35b60008054906101000a900473ffffffffffffffffffffffffffffffffffffffff1681565b61019f3361093c565b80156102525750600160009054906101000a900473ffffffffffffffffffffffffffffffffffffffff1673ffffffffffffffffffffffffffffffffffffffff1663d63a8e11336040518263ffffffff1660e01b81526004016102019190610c6b565b60206040518083038186803b15801561021957600080fd5b505afa15801561022d573d6000803e3d6000fd5b505050506040513d601f19601f820116820180604052508101906102519190610a9d565b5b156106285760018060156101000a81548160ff0219169083600281111561027557fe5b021790555060008054906101000a900473ffffffffffffffffffffffffffffffffffffffff1673ffffffffffffffffffffffffffffffffffffffff1663781dd72230336040518363ffffffff1660e01b81526004016102d5929190610cbc565b600060405180830381600087803b1580156102ef57600080fd5b505af1158015610303573d6000803e3d6000fd5b50505050600160009054906101000a900473ffffffffffffffffffffffffffffffffffffffff1673ffffffffffffffffffffffffffffffffffffffff1663781dd72230336040518363ffffffff1660e01b8152600401610364929190610cbc565b600060405180830381600087803b15801561037e57600080fd5b505af1158015610392573d6000803e3d6000fd5b50505050600260009054906101000a900473ffffffffffffffffffffffffffffffffffffffff1673ffffffffffffffffffffffffffffffffffffffff166326e4ca826040518163ffffffff1660e01b815260040160206040518083038186803b1580156103fe57600080fd5b505afa158015610412573d6000803e3d6000fd5b505050506040513d601f19601f820116820180604052508101906104369190610ac6565b73ffffffffffffffffffffffffffffffffffffffff1663ff25025b6040518163ffffffff1660e01b815260040160206040518083038186803b15801561047b57600080fd5b505afa15801561048f573d6000803e3d6000fd5b505050506040513d601f19601f820116820180604052508101906104b39190610aef565b73ffffffffffffffffffffffffffffffffffffffff16634069e45d306040518263ffffffff1660e01b81526004016104eb9190610ca1565b600060405180830381600087803b15801561050557600080fd5b505af1158015610519573d6000803e3d6000fd5b50505050600260009054906101000a900473ffffffffffffffffffffffffffffffffffffffff1673ffffffffffffffffffffffffffffffffffffffff166326e4ca826040518163ffffffff1660e01b815260040160206040518083038186803b15801561058557600080fd5b505afa158015610599573d6000803e3d6000fd5b505050506040513d601f19601f820116820180604052508101906105bd9190610ac6565b73ffffffffffffffffffffffffffffffffffffffff166363441ab2306040518263ffffffff1660e01b81526004016105f59190610d92565b600060405180830381600087803b15801561060f57600080fd5b505af1158015610623573d6000803e3d6000fd5b505050505b565b600160159054906101000a900460ff1681565b6106463361093c565b15610901576002600160156101000a81548160ff0219169083600281111561066a57fe5b0217905550600260009054906101000a900473ffffffffffffffffffffffffffffffffffffffff1673ffffffffffffffffffffffffffffffffffffffff166326e4ca826040518163ffffffff1660e01b815260040160206040518083038186803b1580156106d757600080fd5b505afa1580156106eb573d6000803e3d6000fd5b505050506040513d601f19601f8201168201806040525081019061070f9190610ac6565b73ffffffffffffffffffffffffffffffffffffffff1663ff25025b6040518163ffffffff1660e01b815260040160206040518083038186803b15801561075457600080fd5b505afa158015610768573d6000803e3d6000fd5b505050506040513d601f19601f8201168201806040525081019061078c9190610aef565b73ffffffffffffffffffffffffffffffffffffffff16634069e45d306040518263ffffffff1660e01b81526004016107c49190610ca1565b600060405180830381600087803b1580156107de57600080fd5b505af11580156107f2573d6000803e3d6000fd5b50505050600260009054906101000a900473ffffffffffffffffffffffffffffffffffffffff1673ffffffffffffffffffffffffffffffffffffffff166326e4ca826040518163ffffffff1660e01b815260040160206040518083038186803b15801561085e57600080fd5b505afa158015610872573d6000803e3d6000fd5b505050506040513d601f19601f820116820180604052508101906108969190610ac6565b73ffffffffffffffffffffffffffffffffffffffff166363441ab2306040518263ffffffff1660e01b81526004016108ce9190610d51565b600060405180830381600087803b1580156108e857600080fd5b505af11580156108fc573d6000803e3d6000fd5b505050505b565b600160009054906101000a900473ffffffffffffffffffffffffffffffffffffffff1681565b600160149054906101000a900460ff1681565b600080600281111561094a57fe5b600160159054906101000a900460ff16600281111561096557fe5b148015610a195750600160009054906101000a900473ffffffffffffffffffffffffffffffffffffffff1673ffffffffffffffffffffffffffffffffffffffff1663d63a8e11836040518263ffffffff1660e01b81526004016109c89190610c50565b60206040518083038186803b1580156109e057600080fd5b505afa1580156109f4573d6000803e3d6000fd5b505050506040513d601f19601f82011682018060405250810190610a189190610a9d565b5b9050919050565b600081359050610a2f81610f5c565b92915050565b600081519050610a4481610f73565b92915050565b600081519050610a5981610f8a565b92915050565b600081519050610a6e81610fa1565b92915050565b600060208284031215610a8657600080fd5b6000610a9484828501610a20565b91505092915050565b600060208284031215610aaf57600080fd5b6000610abd84828501610a35565b91505092915050565b600060208284031215610ad857600080fd5b6000610ae684828501610a4a565b91505092915050565b600060208284031215610b0157600080fd5b6000610b0f84828501610a5f565b91505092915050565b610b2181610e6c565b82525050565b610b3081610de4565b82525050565b610b3f81610df6565b82525050565b610b4e81610e7e565b82525050565b610b5d81610ea2565b82525050565b610b6c81610ec6565b82525050565b610b7b81610eea565b82525050565b610b8a81610efc565b82525050565b6000610b9d600b83610dd3565b91507f43455254494649434154450000000000000000000000000000000000000000006000830152602082019050919050565b6000610bdd601283610dd3565b91507f52454a4563545f434552544946494341544500000000000000000000000000006000830152602082019050919050565b6000610c1d601383610dd3565b91507f415050524f56455f4345525449464943415445000000000000000000000000006000830152602082019050919050565b6000602082019050610c656000830184610b27565b92915050565b6000602082019050610c806000830184610b18565b92915050565b6000602082019050610c9b6000830184610b36565b92915050565b6000602082019050610cb66000830184610b45565b92915050565b6000604082019050610cd16000830185610b45565b610cde6020830184610b18565b9392505050565b6000602082019050610cfa6000830184610b54565b92915050565b6000602082019050610d156000830184610b63565b92915050565b6000602082019050610d306000830184610b72565b92915050565b6000602082019050610d4b6000830184610b81565b92915050565b60006060820190508181036000830152610d6a81610bd0565b90508181036020830152610d7d81610b90565b9050610d8c6040830184610b27565b92915050565b60006060820190508181036000830152610dab81610c10565b90508181036020830152610dbe81610b90565b9050610dcd6040830184610b27565b92915050565b600082825260208201905092915050565b6000610def82610e4c565b9050919050565b60008115159050919050565b6000610e0d82610de4565b9050919050565b6000610e1f82610de4565b9050919050565b6000819050610e3482610f34565b919050565b6000819050610e4782610f48565b919050565b600073ffffffffffffffffffffffffffffffffffffffff82169050919050565b6000610e7782610f0e565b9050919050565b6000610e8982610e90565b9050919050565b6000610e9b82610e4c565b9050919050565b6000610ead82610eb4565b9050919050565b6000610ebf82610e4c565b9050919050565b6000610ed182610ed8565b9050919050565b6000610ee382610e4c565b9050919050565b6000610ef582610e26565b9050919050565b6000610f0782610e39565b9050919050565b6000610f1982610f20565b9050919050565b6000610f2b82610e4c565b9050919050565bfe5b60048110610f4557610f44610f32565b5b50565b60038110610f5957610f58610f32565b5b50565b610f6581610de4565b8114610f7057600080fd5b50565b610f7c81610df6565b8114610f8757600080fd5b50565b610f9381610e02565b8114610f9e57600080fd5b50565b610faa81610e14565b8114610fb557600080fd5b5056fea2646970667358221220dcc81178e5bb0ff32d8b88e361ea9c7d699f8f26ebf413a73e0a2502c4941dea64736f6c63430007050033a26469706673582212206c7cf46f4824b8d180d9bbbb887345064ef53a070af74a3289271eaf57d94d6164736f6c634300070500336080604052600060035534801561001557600080fd5b50604051612bba380380612bba83398181016040528101906100379190610092565b806000806101000a81548173ffffffffffffffffffffffffffffffffffffffff021916908373ffffffffffffffffffffffffffffffffffffffff16021790555050610116565b60008151905061008c816100ff565b92915050565b6000602082840312156100a457600080fd5b60006100b28482850161007d565b91505092915050565b60006100c6826100df565b9050919050565b60006100d8826100bb565b9050919050565b600073ffffffffffffffffffffffffffffffffffffffff82169050919050565b610108816100cd565b811461011357600080fd5b50565b612a95806101256000396000f3fe608060405260043610620000505760003560e01c806326e4ca8214620000555780633269389a146200008557806381a0677714620000b5578063b5fdf25214620000d5578063ee84ab761462000119575b600080fd5b3480156200006257600080fd5b506200006d6200015d565b6040516200007c9190620007f2565b60405180910390f35b3480156200009257600080fd5b506200009d62000181565b604051620000ac9190620008c7565b60405180910390f35b620000d36004803603810190620000cd9190620005aa565b6200018b565b005b348015620000e257600080fd5b50620001016004803603810190620000fb91906200057e565b620003dd565b60405162000110919062000863565b60405180910390f35b3480156200012657600080fd5b506200014560048036038101906200013f9190620005ef565b62000410565b604051620001549190620007d4565b60405180910390f35b60008054906101000a900473ffffffffffffffffffffffffffffffffffffffff1681565b6000600354905090565b600073ffffffffffffffffffffffffffffffffffffffff16600160003373ffffffffffffffffffffffffffffffffffffffff1673ffffffffffffffffffffffffffffffffffffffff16815260200190815260200160002060009054906101000a900473ffffffffffffffffffffffffffffffffffffffff1673ffffffffffffffffffffffffffffffffffffffff161415620003da576000600360008154809291906001019190505590506000308284336040516200024990620004c3565b6200025894939291906200080f565b604051809103906000f08015801562000275573d6000803e3d6000fd5b509050806002600084815260200190815260200160002060006101000a81548173ffffffffffffffffffffffffffffffffffffffff021916908373ffffffffffffffffffffffffffffffffffffffff16021790555080600160003373ffffffffffffffffffffffffffffffffffffffff1673ffffffffffffffffffffffffffffffffffffffff16815260200190815260200160002060006101000a81548173ffffffffffffffffffffffffffffffffffffffff021916908373ffffffffffffffffffffffffffffffffffffffff16021790555060008054906101000a900473ffffffffffffffffffffffffffffffffffffffff1673ffffffffffffffffffffffffffffffffffffffff166363441ab2826040518263ffffffff1660e01b8152600401620003a3919062000880565b600060405180830381600087803b158015620003be57600080fd5b505af1158015620003d3573d6000803e3d6000fd5b5050505050505b50565b60016020528060005260406000206000915054906101000a900473ffffffffffffffffffffffffffffffffffffffff1681565b6200041a620004d1565b62000424620004d1565b60005b600a811015620004b95760026000858301815260200190815260200160002060009054906101000a900473ffffffffffffffffffffffffffffffffffffffff168282600a81106200047457fe5b602002019073ffffffffffffffffffffffffffffffffffffffff16908173ffffffffffffffffffffffffffffffffffffffff1681525050808060010191505062000427565b5080915050919050565b611f4d8062000b1383390190565b604051806101400160405280600a90602082028036833780820191505090505090565b600081359050620005058162000ade565b92915050565b600082601f8301126200051d57600080fd5b8135620005346200052e8262000918565b620008e4565b915080825260208301602083018583830111156200055157600080fd5b6200055e83828462000a86565b50505092915050565b600081359050620005788162000af8565b92915050565b6000602082840312156200059157600080fd5b6000620005a184828501620004f4565b91505092915050565b600060208284031215620005bd57600080fd5b600082013567ffffffffffffffff811115620005d857600080fd5b620005e6848285016200050b565b91505092915050565b6000602082840312156200060257600080fd5b6000620006128482850162000567565b91505092915050565b6000620006298383620006dc565b60208301905092915050565b6200064081620009d2565b82525050565b620006518162000994565b82525050565b620006628162000955565b6200066e818462000978565b92506200067b826200094b565b8060005b83811015620006b25781516200069687826200061b565b9650620006a3836200096b565b9250506001810190506200067f565b505050505050565b620006c581620009e6565b82525050565b620006d68162000a0e565b82525050565b620006e78162000a36565b82525050565b620006f88162000a36565b82525050565b60006200070b8262000960565b62000717818562000983565b93506200072981856020860162000a95565b620007348162000acd565b840191505092915050565b60006200074e600e8362000983565b91507f4352454154455f464143554c54590000000000000000000000000000000000006000830152602082019050919050565b60006200079060078362000983565b91507f464143554c5459000000000000000000000000000000000000000000000000006000830152602082019050919050565b620007ce81620009c8565b82525050565b600061014082019050620007ec600083018462000657565b92915050565b6000602082019050620008096000830184620006ba565b92915050565b6000608082019050620008266000830187620006cb565b620008356020830186620007c3565b8181036040830152620008498185620006fe565b90506200085a606083018462000635565b95945050505050565b60006020820190506200087a6000830184620006ed565b92915050565b600060608201905081810360008301526200089b816200073f565b90508181036020830152620008b08162000781565b9050620008c1604083018462000646565b92915050565b6000602082019050620008de6000830184620007c3565b92915050565b6000604051905081810181811067ffffffffffffffff821117156200090e576200090d62000acb565b5b8060405250919050565b600067ffffffffffffffff82111562000936576200093562000acb565b5b601f19601f8301169050602081019050919050565b6000819050919050565b6000600a9050919050565b600081519050919050565b6000602082019050919050565b600081905092915050565b600082825260208201905092915050565b6000620009a182620009a8565b9050919050565b600073ffffffffffffffffffffffffffffffffffffffff82169050919050565b6000819050919050565b6000620009df8262000a5e565b9050919050565b6000620009f382620009fa565b9050919050565b600062000a0782620009a8565b9050919050565b600062000a1b8262000a22565b9050919050565b600062000a2f82620009a8565b9050919050565b600062000a438262000a4a565b9050919050565b600062000a5782620009a8565b9050919050565b600062000a6b8262000a72565b9050919050565b600062000a7f82620009a8565b9050919050565b82818337600083830152505050565b60005b8381101562000ab557808201518184015260208101905062000a98565b8381111562000ac5576000848401525b50505050565bfe5b6000601f19601f8301169050919050565b62000ae98162000994565b811462000af557600080fd5b50565b62000b0381620009c8565b811462000b0f57600080fd5b5056fe60806040523480156200001157600080fd5b5060405162001f4d38038062001f4d83398181016040528101906200003791906200023a565b83600560006101000a81548173ffffffffffffffffffffffffffffffffffffffff021916908373ffffffffffffffffffffffffffffffffffffffff160217905550816001908051906020019062000090929190620000e3565b508260008190555080600260006101000a81548173ffffffffffffffffffffffffffffffffffffffff021916908373ffffffffffffffffffffffffffffffffffffffff16021790555050505050620003fe565b828054600181600116156101000203166002900490600052602060002090601f0160209004810192826200011b576000855562000167565b82601f106200013657805160ff191683800117855562000167565b8280016001018555821562000167579182015b828111156200016657825182559160200191906001019062000149565b5b5090506200017691906200017a565b5090565b5b80821115620001955760008160009055506001016200017b565b5090565b600081519050620001aa81620003b0565b92915050565b600081519050620001c181620003ca565b92915050565b600082601f830112620001d957600080fd5b8151620001f0620001ea82620002f3565b620002bf565b915080825260208301602083018583830111156200020d57600080fd5b6200021a83828462000378565b50505092915050565b6000815190506200023481620003e4565b92915050565b600080600080608085870312156200025157600080fd5b60006200026187828801620001b0565b9450506020620002748782880162000223565b935050604085015167ffffffffffffffff8111156200029257600080fd5b620002a087828801620001c7565b9250506060620002b38782880162000199565b91505092959194509250565b6000604051905081810181811067ffffffffffffffff82111715620002e957620002e8620003ae565b5b8060405250919050565b600067ffffffffffffffff821115620003115762000310620003ae565b5b601f19601f8301169050602081019050919050565b600062000333826200034e565b9050919050565b6000620003478262000326565b9050919050565b600073ffffffffffffffffffffffffffffffffffffffff82169050919050565b6000819050919050565b60005b83811015620003985780820151818401526020810190506200037b565b83811115620003a8576000848401525b50505050565bfe5b620003bb8162000326565b8114620003c757600080fd5b50565b620003d5816200033a565b8114620003e157600080fd5b50565b620003ef816200036e565b8114620003fb57600080fd5b50565b611b3f806200040e6000396000f3fe6080604052600436106100a75760003560e01c80638da5cb5b116100645780638da5cb5b146101a2578063ac51fddb146101cd578063ad41b39b1461020a578063d63a8e1114610235578063d90c137e14610272578063e08b2ab61461028e576100a7565b806306fdde03146100ac5780633d7403a3146100d75780634e8ef753146100f35780635822cb311461011e578063663b3e2214610149578063781dd72214610186575b600080fd5b3480156100b857600080fd5b506100c16102cb565b6040516100ce919061170e565b60405180910390f35b6100f160048036038101906100ec919061139e565b610369565b005b3480156100ff57600080fd5b5061010861049c565b60405161011591906116f3565b60405180910390f35b34801561012a57600080fd5b506101336104c2565b60405161014091906117f3565b60405180910390f35b34801561015557600080fd5b50610170600480360381019061016b91906113df565b61066e565b60405161017d9190611694565b60405180910390f35b6101a0600480360381019061019b9190611295565b6106ad565b005b3480156101ae57600080fd5b506101b7610a7d565b6040516101c49190611642565b60405180910390f35b3480156101d957600080fd5b506101f460048036038101906101ef91906113df565b610aa3565b604051610201919061165d565b60405180910390f35b34801561021657600080fd5b5061021f610b65565b60405161022c91906117f3565b60405180910390f35b34801561024157600080fd5b5061025c600480360381019061025791906111f0565b610b72565b6040516102699190611679565b60405180910390f35b61028c60048036038101906102879190611323565b610bcc565b005b34801561029a57600080fd5b506102b560048036038101906102b091906113df565b610da7565b6040516102c2919061165d565b60405180910390f35b60018054600181600116156101000203166002900480601f0160208091040260200160405190810160405280929190818152602001828054600181600116156101000203166002900480156103615780601f1061033657610100808354040283529160200191610361565b820191906000526020600020905b81548152906001019060200180831161034457829003601f168201915b505050505081565b61037233610b72565b1561049957806001908051906020019061038d929190610f5e565b50600560009054906101000a900473ffffffffffffffffffffffffffffffffffffffff1673ffffffffffffffffffffffffffffffffffffffff166326e4ca826040518163ffffffff1660e01b815260040160206040518083038186803b1580156103f657600080fd5b505afa15801561040a573d6000803e3d6000fd5b505050506040513d601f19601f8201168201806040525081019061042e919061126c565b73ffffffffffffffffffffffffffffffffffffffff166363441ab2306040518263ffffffff1660e01b81526004016104669190611730565b600060405180830381600087803b15801561048057600080fd5b505af1158015610494573d6000803e3d6000fd5b505050505b50565b600460009054906101000a900473ffffffffffffffffffffffffffffffffffffffff1681565b6000600560009054906101000a900473ffffffffffffffffffffffffffffffffffffffff1673ffffffffffffffffffffffffffffffffffffffff166326e4ca826040518163ffffffff1660e01b815260040160206040518083038186803b15801561052c57600080fd5b505afa158015610540573d6000803e3d6000fd5b505050506040513d601f19601f82011682018060405250810190610564919061126c565b73ffffffffffffffffffffffffffffffffffffffff1663ff25025b6040518163ffffffff1660e01b815260040160206040518083038186803b1580156105a957600080fd5b505afa1580156105bd573d6000803e3d6000fd5b505050506040513d601f19601f820116820180604052508101906105e191906112d1565b73ffffffffffffffffffffffffffffffffffffffff16639a2393f6306040518263ffffffff1660e01b815260040161061991906116af565b60206040518083038186803b15801561063157600080fd5b505afa158015610645573d6000803e3d6000fd5b505050506040513d601f19601f820116820180604052508101906106699190611408565b905090565b6003818154811061067e57600080fd5b906000526020600020016000915054906101000a900473ffffffffffffffffffffffffffffffffffffffff1681565b8173ffffffffffffffffffffffffffffffffffffffff1663d1384eb66040518163ffffffff1660e01b815260040160206040518083038186803b1580156106f357600080fd5b505afa158015610707573d6000803e3d6000fd5b505050506040513d601f19601f8201168201806040525081019061072b919061134c565b73ffffffffffffffffffffffffffffffffffffffff1663d63a8e11826040518263ffffffff1660e01b81526004016107639190611642565b60206040518083038186803b15801561077b57600080fd5b505afa15801561078f573d6000803e3d6000fd5b505050506040513d601f19601f820116820180604052508101906107b39190611243565b80156108525750600160028111156107c757fe5b8273ffffffffffffffffffffffffffffffffffffffff1663200d2ed26040518163ffffffff1660e01b815260040160206040518083038186803b15801561080d57600080fd5b505afa158015610821573d6000803e3d6000fd5b505050506040513d601f19601f820116820180604052508101906108459190611375565b600281111561085057fe5b145b801561090657503073ffffffffffffffffffffffffffffffffffffffff168273ffffffffffffffffffffffffffffffffffffffff16631080d5f86040518163ffffffff1660e01b815260040160206040518083038186803b1580156108b657600080fd5b505afa1580156108ca573d6000803e3d6000fd5b505050506040513d601f19601f820116820180604052508101906108ee91906112fa565b73ffffffffffffffffffffffffffffffffffffffff16145b15610a79576003829080600181540180825580915050600190039060005260206000200160009091909190916101000a81548173ffffffffffffffffffffffffffffffffffffffff021916908373ffffffffffffffffffffffffffffffffffffffff160217905550600560009054906101000a900473ffffffffffffffffffffffffffffffffffffffff1673ffffffffffffffffffffffffffffffffffffffff166326e4ca826040518163ffffffff1660e01b815260040160206040518083038186803b1580156109d657600080fd5b505afa1580156109ea573d6000803e3d6000fd5b505050506040513d601f19601f82011682018060405250810190610a0e919061126c565b73ffffffffffffffffffffffffffffffffffffffff166363441ab2306040518263ffffffff1660e01b8152600401610a469190611771565b600060405180830381600087803b158015610a6057600080fd5b505af1158015610a74573d6000803e3d6000fd5b505050505b5050565b600260009054906101000a900473ffffffffffffffffffffffffffffffffffffffff1681565b610aab610fec565b610ab3610fec565b60005b600a81108015610acc5750600380549050848201105b15610b5b57600384820181548110610ae057fe5b9060005260206000200160009054906101000a900473ffffffffffffffffffffffffffffffffffffffff168282600a8110610b1757fe5b602002019073ffffffffffffffffffffffffffffffffffffffff16908173ffffffffffffffffffffffffffffffffffffffff16815250508080600101915050610ab6565b5080915050919050565b6000600380549050905090565b6000600260009054906101000a900473ffffffffffffffffffffffffffffffffffffffff1673ffffffffffffffffffffffffffffffffffffffff168273ffffffffffffffffffffffffffffffffffffffff16149050919050565b3373ffffffffffffffffffffffffffffffffffffffff168173ffffffffffffffffffffffffffffffffffffffff161480610c5357503373ffffffffffffffffffffffffffffffffffffffff16600460009054906101000a900473ffffffffffffffffffffffffffffffffffffffff1673ffffffffffffffffffffffffffffffffffffffff16145b15610da45780600460006101000a81548173ffffffffffffffffffffffffffffffffffffffff021916908373ffffffffffffffffffffffffffffffffffffffff160217905550600560009054906101000a900473ffffffffffffffffffffffffffffffffffffffff1673ffffffffffffffffffffffffffffffffffffffff166326e4ca826040518163ffffffff1660e01b815260040160206040518083038186803b158015610d0157600080fd5b505afa158015610d15573d6000803e3d6000fd5b505050506040513d601f19601f82011682018060405250810190610d39919061126c565b73ffffffffffffffffffffffffffffffffffffffff166363441ab2306040518263ffffffff1660e01b8152600401610d7191906117b2565b600060405180830381600087803b158015610d8b57600080fd5b505af1158015610d9f573d6000803e3d6000fd5b505050505b50565b610daf610fec565b600560009054906101000a900473ffffffffffffffffffffffffffffffffffffffff1673ffffffffffffffffffffffffffffffffffffffff166326e4ca826040518163ffffffff1660e01b815260040160206040518083038186803b158015610e1757600080fd5b505afa158015610e2b573d6000803e3d6000fd5b505050506040513d601f19601f82011682018060405250810190610e4f919061126c565b73ffffffffffffffffffffffffffffffffffffffff1663ff25025b6040518163ffffffff1660e01b815260040160206040518083038186803b158015610e9457600080fd5b505afa158015610ea8573d6000803e3d6000fd5b505050506040513d601f19601f82011682018060405250810190610ecc91906112d1565b73ffffffffffffffffffffffffffffffffffffffff1663da60f30d30846040518363ffffffff1660e01b8152600401610f069291906116ca565b6101406040518083038186803b158015610f1f57600080fd5b505afa158015610f33573d6000803e3d6000fd5b505050506040513d601f19601f82011682018060405250810190610f579190611219565b9050919050565b828054600181600116156101000203166002900490600052602060002090601f016020900481019282610f945760008555610fdb565b82601f10610fad57805160ff1916838001178555610fdb565b82800160010185558215610fdb579182015b82811115610fda578251825591602001919060010190610fbf565b5b509050610fe8919061100f565b5090565b604051806101400160405280600a90602082028036833780820191505090505090565b5b80821115611028576000816000905550600101611010565b5090565b60008135905061103b81611a41565b92915050565b600082601f83011261105257600080fd5b600a6110656110608261183f565b61180e565b9150818385602084028201111561107b57600080fd5b60005b838110156110ab578161109188826110f4565b84526020840193506020830192505060018101905061107e565b5050505092915050565b6000815190506110c481611a58565b92915050565b6000815190506110d981611a6f565b92915050565b6000813590506110ee81611a86565b92915050565b60008151905061110381611a86565b92915050565b60008151905061111881611a9d565b92915050565b60008151905061112d81611ab4565b92915050565b60008135905061114281611acb565b92915050565b60008151905061115781611acb565b92915050565b60008151905061116c81611ae2565b92915050565b600082601f83011261118357600080fd5b813561119661119182611865565b61180e565b915080825260208301602083018583830111156111b257600080fd5b6111bd8382846119ec565b50505092915050565b6000813590506111d581611af2565b92915050565b6000815190506111ea81611af2565b92915050565b60006020828403121561120257600080fd5b60006112108482850161102c565b91505092915050565b6000610140828403121561122c57600080fd5b600061123a84828501611041565b91505092915050565b60006020828403121561125557600080fd5b6000611263848285016110b5565b91505092915050565b60006020828403121561127e57600080fd5b600061128c848285016110ca565b91505092915050565b600080604083850312156112a857600080fd5b60006112b6858286016110df565b92505060206112c78582860161102c565b9150509250929050565b6000602082840312156112e357600080fd5b60006112f184828501611109565b91505092915050565b60006020828403121561130c57600080fd5b600061131a8482850161111e565b91505092915050565b60006020828403121561133557600080fd5b600061134384828501611133565b91505092915050565b60006020828403121561135e57600080fd5b600061136c84828501611148565b91505092915050565b60006020828403121561138757600080fd5b60006113958482850161115d565b91505092915050565b6000602082840312156113b057600080fd5b600082013567ffffffffffffffff8111156113ca57600080fd5b6113d684828501611172565b91505092915050565b6000602082840312156113f157600080fd5b60006113ff848285016111c6565b91505092915050565b60006020828403121561141a57600080fd5b6000611428848285016111db565b91505092915050565b600061143d83836114be565b60208301905092915050565b611452816118de565b82525050565b6114618161189f565b61146b81846118c2565b925061147682611895565b8060005b838110156114a757815161148e8782611431565b9650611499836118b5565b92505060018101905061147a565b505050505050565b6114b8816118f0565b82525050565b6114c781611980565b82525050565b6114d681611980565b82525050565b6114e5816119a4565b82525050565b6114f4816119c8565b82525050565b6000611505826118aa565b61150f81856118cd565b935061151f8185602086016119fb565b61152881611a30565b840191505092915050565b6000611540600e836118cd565b91507f5550444154455f464143554c54590000000000000000000000000000000000006000830152602082019050919050565b6000611580600f836118cd565b91507f4144445f434552544946494341544500000000000000000000000000000000006000830152602082019050919050565b60006115c06011836118cd565b91507f41535349474e5f494e5354495455494f4e0000000000000000000000000000006000830152602082019050919050565b60006116006007836118cd565b91507f464143554c5459000000000000000000000000000000000000000000000000006000830152602082019050919050565b61163c81611976565b82525050565b60006020820190506116576000830184611449565b92915050565b6000610140820190506116736000830184611458565b92915050565b600060208201905061168e60008301846114af565b92915050565b60006020820190506116a960008301846114cd565b92915050565b60006020820190506116c460008301846114dc565b92915050565b60006040820190506116df60008301856114dc565b6116ec6020830184611633565b9392505050565b600060208201905061170860008301846114eb565b92915050565b6000602082019050818103600083015261172881846114fa565b905092915050565b6000606082019050818103600083015261174981611533565b9050818103602083015261175c816115f3565b905061176b6040830184611449565b92915050565b6000606082019050818103600083015261178a81611573565b9050818103602083015261179d816115f3565b90506117ac6040830184611449565b92915050565b600060608201905081810360008301526117cb816115b3565b905081810360208301526117de816115f3565b90506117ed6040830184611449565b92915050565b60006020820190506118086000830184611633565b92915050565b6000604051905081810181811067ffffffffffffffff8211171561183557611834611a2e565b5b8060405250919050565b600067ffffffffffffffff82111561185a57611859611a2e565b5b602082029050919050565b600067ffffffffffffffff8211156118805761187f611a2e565b5b601f19601f8301169050602081019050919050565b6000819050919050565b6000600a9050919050565b600081519050919050565b6000602082019050919050565b600081905092915050565b600082825260208201905092915050565b60006118e982611956565b9050919050565b60008115159050919050565b6000611907826118de565b9050919050565b6000611919826118de565b9050919050565b600061192b826118de565b9050919050565b600061193d826118de565b9050919050565b600061194f826118de565b9050919050565b600073ffffffffffffffffffffffffffffffffffffffff82169050919050565b6000819050919050565b600061198b82611992565b9050919050565b600061199d82611956565b9050919050565b60006119af826119b6565b9050919050565b60006119c182611956565b9050919050565b60006119d3826119da565b9050919050565b60006119e582611956565b9050919050565b82818337600083830152505050565b60005b83811015611a195780820151818401526020810190506119fe565b83811115611a28576000848401525b50505050565bfe5b6000601f19601f8301169050919050565b611a4a816118de565b8114611a5557600080fd5b50565b611a61816118f0565b8114611a6c57600080fd5b50565b611a78816118fc565b8114611a8357600080fd5b50565b611a8f8161190e565b8114611a9a57600080fd5b50565b611aa681611920565b8114611ab157600080fd5b50565b611abd81611932565b8114611ac857600080fd5b50565b611ad481611944565b8114611adf57600080fd5b50565b60038110611aef57600080fd5b50565b611afb81611976565b8114611b0657600080fd5b5056fea2646970667358221220299ab0fd1f1ba4c08c872b673e0e8db462e73f8c574d4cef9b730f976bf0d17664736f6c63430007050033a2646970667358221220e1eca97cfddb62bf2b86f3db84cc1bbd432457f55dd1e1b256b780dbc7d1151c64736f6c634300070500336080604052600060025534801561001557600080fd5b506040516144d83803806144d883398181016040528101906100379190610092565b806000806101000a81548173ffffffffffffffffffffffffffffffffffffffff021916908373ffffffffffffffffffffffffffffffffffffffff16021790555050610116565b60008151905061008c816100ff565b92915050565b6000602082840312156100a457600080fd5b60006100b28482850161007d565b91505092915050565b60006100c6826100df565b9050919050565b60006100d8826100bb565b9050919050565b600073ffffffffffffffffffffffffffffffffffffffff82169050919050565b610108816100cd565b811461011357600080fd5b50565b6143b3806101256000396000f3fe608060405260043610620000505760003560e01c8063029bf701146200005557806326e4ca82146200007557806377104d9214620000a557806386906afa14620000e9578063c3b59d001462000119575b600080fd5b6200007360048036038101906200006d919062000453565b6200015d565b005b3480156200008257600080fd5b506200008d6200029b565b6040516200009c91906200069b565b60405180910390f35b348015620000b257600080fd5b50620000d16004803603810190620000cb919062000498565b620002bf565b604051620000e091906200067d565b60405180910390f35b348015620000f657600080fd5b506200010162000372565b60405162000110919062000770565b60405180910390f35b3480156200012657600080fd5b506200014560048036038101906200013f919062000498565b6200037c565b6040516200015491906200070c565b60405180910390f35b6000600260008154809291906001019190505590506000308284336040516200018690620003af565b620001959493929190620006b8565b604051809103906000f080158015620001b2573d6000803e3d6000fd5b509050806001600084815260200190815260200160002060006101000a81548173ffffffffffffffffffffffffffffffffffffffff021916908373ffffffffffffffffffffffffffffffffffffffff16021790555060008054906101000a900473ffffffffffffffffffffffffffffffffffffffff1673ffffffffffffffffffffffffffffffffffffffff166363441ab2826040518263ffffffff1660e01b815260040162000262919062000729565b600060405180830381600087803b1580156200027d57600080fd5b505af115801562000292573d6000803e3d6000fd5b50505050505050565b60008054906101000a900473ffffffffffffffffffffffffffffffffffffffff1681565b620002c9620003bd565b620002d3620003bd565b60005b600a811015620003685760016000858301815260200190815260200160002060009054906101000a900473ffffffffffffffffffffffffffffffffffffffff168282600a81106200032357fe5b602002019073ffffffffffffffffffffffffffffffffffffffff16908173ffffffffffffffffffffffffffffffffffffffff16815250508080600101915050620002d6565b5080915050919050565b6000600254905090565b60016020528060005260406000206000915054906101000a900473ffffffffffffffffffffffffffffffffffffffff1681565b6139dc80620009a283390190565b604051806101400160405280600a90602082028036833780820191505090505090565b600082601f830112620003f257600080fd5b8135620004096200040382620007c1565b6200078d565b915080825260208301602083018583830111156200042657600080fd5b620004338382846200092f565b50505092915050565b6000813590506200044d8162000987565b92915050565b6000602082840312156200046657600080fd5b600082013567ffffffffffffffff8111156200048157600080fd5b6200048f84828501620003e0565b91505092915050565b600060208284031215620004ab57600080fd5b6000620004bb848285016200043c565b91505092915050565b6000620004d2838362000585565b60208301905092915050565b620004e9816200087b565b82525050565b620004fa816200083d565b82525050565b6200050b81620007fe565b62000517818462000821565b92506200052482620007f4565b8060005b838110156200055b5781516200053f8782620004c4565b96506200054c8362000814565b92505060018101905062000528565b505050505050565b6200056e816200088f565b82525050565b6200057f81620008b7565b82525050565b6200059081620008df565b82525050565b620005a181620008df565b82525050565b6000620005b48262000809565b620005c081856200082c565b9350620005d28185602086016200093e565b620005dd8162000976565b840191505092915050565b6000620005f76012836200082c565b91507f4352454154455f494e535449545554494f4e00000000000000000000000000006000830152602082019050919050565b600062000639600b836200082c565b91507f494e535449545554494f4e0000000000000000000000000000000000000000006000830152602082019050919050565b620006778162000871565b82525050565b60006101408201905062000695600083018462000500565b92915050565b6000602082019050620006b2600083018462000563565b92915050565b6000608082019050620006cf600083018762000574565b620006de60208301866200066c565b8181036040830152620006f28185620005a7565b9050620007036060830184620004de565b95945050505050565b600060208201905062000723600083018462000596565b92915050565b600060608201905081810360008301526200074481620005e8565b9050818103602083015262000759816200062a565b90506200076a6040830184620004ef565b92915050565b60006020820190506200078760008301846200066c565b92915050565b6000604051905081810181811067ffffffffffffffff82111715620007b757620007b662000974565b5b8060405250919050565b600067ffffffffffffffff821115620007df57620007de62000974565b5b601f19601f8301169050602081019050919050565b6000819050919050565b6000600a9050919050565b600081519050919050565b6000602082019050919050565b600081905092915050565b600082825260208201905092915050565b60006200084a8262000851565b9050919050565b600073ffffffffffffffffffffffffffffffffffffffff82169050919050565b6000819050919050565b6000620008888262000907565b9050919050565b60006200089c82620008a3565b9050919050565b6000620008b08262000851565b9050919050565b6000620008c482620008cb565b9050919050565b6000620008d88262000851565b9050919050565b6000620008ec82620008f3565b9050919050565b6000620009008262000851565b9050919050565b600062000914826200091b565b9050919050565b6000620009288262000851565b9050919050565b82818337600083830152505050565b60005b838110156200095e57808201518184015260208101905062000941565b838111156200096e576000848401525b50505050565bfe5b6000601f19601f8301169050919050565b620009928162000871565b81146200099e57600080fd5b5056fe608060405260016008553480156200001657600080fd5b50604051620039dc380380620039dc83398181016040528101906200003c9190620002fa565b83600460006101000a81548173ffffffffffffffffffffffffffffffffffffffff021916908373ffffffffffffffffffffffffffffffffffffffff1602179055508260008190555081600190805190602001906200009c929190620001a3565b5080600260006101000a81548173ffffffffffffffffffffffffffffffffffffffff021916908373ffffffffffffffffffffffffffffffffffffffff1602179055506005819080600181540180825580915050600190039060005260206000200160009091909190916101000a81548173ffffffffffffffffffffffffffffffffffffffff021916908373ffffffffffffffffffffffffffffffffffffffff1602179055506001600660008373ffffffffffffffffffffffffffffffffffffffff1673ffffffffffffffffffffffffffffffffffffffff16815260200190815260200160002060006101000a81548160ff02191690831515021790555050505050620004be565b828054600181600116156101000203166002900490600052602060002090601f016020900481019282620001db576000855562000227565b82601f10620001f657805160ff191683800117855562000227565b8280016001018555821562000227579182015b828111156200022657825182559160200191906001019062000209565b5b5090506200023691906200023a565b5090565b5b80821115620002555760008160009055506001016200023b565b5090565b6000815190506200026a8162000470565b92915050565b60008151905062000281816200048a565b92915050565b600082601f8301126200029957600080fd5b8151620002b0620002aa82620003b3565b6200037f565b91508082526020830160208301858383011115620002cd57600080fd5b620002da83828462000438565b50505092915050565b600081519050620002f481620004a4565b92915050565b600080600080608085870312156200031157600080fd5b6000620003218782880162000270565b94505060206200033487828801620002e3565b935050604085015167ffffffffffffffff8111156200035257600080fd5b620003608782880162000287565b9250506060620003738782880162000259565b91505092959194509250565b6000604051905081810181811067ffffffffffffffff82111715620003a957620003a86200046e565b5b8060405250919050565b600067ffffffffffffffff821115620003d157620003d06200046e565b5b601f19601f8301169050602081019050919050565b6000620003f3826200040e565b9050919050565b60006200040782620003e6565b9050919050565b600073ffffffffffffffffffffffffffffffffffffffff82169050919050565b6000819050919050565b60005b83811015620004585780820151818401526020810190506200043b565b8381111562000468576000848401525b50505050565bfe5b6200047b81620003e6565b81146200048757600080fd5b50565b6200049581620003fa565b8114620004a157600080fd5b50565b620004af816200042e565b8114620004bb57600080fd5b50565b61350e80620004ce6000396000f3fe6080604052600436106101665760003560e01c80636bd5b694116100d1578063af640d0f1161008a578063d63a8e1111610064578063d63a8e11146104f5578063e08b2ab614610532578063eafb96bd1461056f578063ee84ab761461058b57610166565b8063af640d0f14610471578063c16ebe5a1461049c578063d2e3f3b7146104b857610166565b80636bd5b6941461038a57806370927f78146103c7578063781dd722146103f25780638da5cb5b1461040e57806393a8653214610439578063a013fe301461045557610166565b80633c98ccee116101235780633c98ccee146102945780633d7403a3146102bf5780634225674d146102db57806344e538ae146103185780635822cb3114610343578063636558a51461036e57610166565b8063068d81741461016b57806306fdde03146101a857806308e0018b146101d3578063262e025b146102105780633269389a1461024d578063396ff3ed14610278575b600080fd5b34801561017757600080fd5b50610192600480360381019061018d91906127e1565b6105c8565b60405161019f9190612e45565b60405180910390f35b3480156101b457600080fd5b506101bd610607565b6040516101ca9190612f35565b60405180910390f35b3480156101df57600080fd5b506101fa60048036038101906101f59190612631565b6106a5565b6040516102079190612ed6565b60405180910390f35b34801561021c57600080fd5b50610237600480360381019061023291906127e1565b610765565b604051610244919061311e565b60405180910390f35b34801561025957600080fd5b50610262610859565b60405161026f9190613140565b60405180910390f35b610292600480360381019061028d9190612725565b610866565b005b3480156102a057600080fd5b506102a9610bb3565b6040516102b69190613140565b60405180910390f35b6102d960048036038101906102d491906127a0565b610bc0565b005b3480156102e757600080fd5b5061030260048036038101906102fd9190612833565b610be9565b60405161030f9190612eb4565b60405180910390f35b34801561032457600080fd5b5061032d610d7c565b60405161033a9190613140565b60405180910390f35b34801561034f57600080fd5b50610358610d89565b6040516103659190613140565b60405180910390f35b610388600480360381019061038391906127a0565b610f35565b005b34801561039657600080fd5b506103b160048036038101906103ac91906127e1565b6110be565b6040516103be9190612e7c565b60405180910390f35b3480156103d357600080fd5b506103dc611189565b6040516103e99190613140565b60405180910390f35b61040c600480360381019061040791906126c0565b611196565b005b34801561041a57600080fd5b50610423611469565b6040516104309190612e45565b60405180910390f35b610453600480360381019061044e9190612725565b61148f565b005b61046f600480360381019061046a9190612608565b611888565b005b34801561047d57600080fd5b50610486611ab5565b6040516104939190613140565b60405180910390f35b6104b660048036038101906104b1919061286f565b611abb565b005b3480156104c457600080fd5b506104df60048036038101906104da91906127e1565b611c26565b6040516104ec9190612e60565b60405180910390f35b34801561050157600080fd5b5061051c60048036038101906105179190612608565b611ce8565b6040516105299190612ed6565b60405180910390f35b34801561053e57600080fd5b50610559600480360381019061055491906127e1565b611cfc565b6040516105669190612e7c565b60405180910390f35b61058960048036038101906105849190612608565b611eb3565b005b34801561059757600080fd5b506105b260048036038101906105ad91906127e1565b61218d565b6040516105bf9190612e98565b60405180910390f35b600581815481106105d857600080fd5b906000526020600020016000915054906101000a900473ffffffffffffffffffffffffffffffffffffffff1681565b60018054600181600116156101000203166002900480601f01602080910402602001604051908101604052809291908181526020018280546001816001161561010002031660029004801561069d5780601f106106725761010080835404028352916020019161069d565b820191906000526020600020905b81548152906001019060200180831161068057829003601f168201915b505050505081565b60006106b083611ce8565b1561075a578173ffffffffffffffffffffffffffffffffffffffff168373ffffffffffffffffffffffffffffffffffffffff1614156106f2576000905061075f565b600260009054906101000a900473ffffffffffffffffffffffffffffffffffffffff1673ffffffffffffffffffffffffffffffffffffffff168273ffffffffffffffffffffffffffffffffffffffff161415610751576000905061075f565b6001905061075f565b600090505b92915050565b61076d6122f4565b6007600083815260200190815260200160002060405180606001604052908160008201548152602001600182018054600181600116156101000203166002900480601f01602080910402602001604051908101604052809291908181526020018280546001816001161561010002031660029004801561082e5780601f106108035761010080835404028352916020019161082e565b820191906000526020600020905b81548152906001019060200180831161081157829003601f168201915b505050505081526020016002820160009054906101000a900460ff1615151515815250509050919050565b6000600980549050905090565b61086f33611ce8565b80156109245750600073ffffffffffffffffffffffffffffffffffffffff168173ffffffffffffffffffffffffffffffffffffffff16634e8ef7536040518163ffffffff1660e01b815260040160206040518083038186803b1580156108d457600080fd5b505afa1580156108e8573d6000803e3d6000fd5b505050506040513d601f19601f8201168201806040525081019061090c919061274e565b73ffffffffffffffffffffffffffffffffffffffff16145b801561097a5750600a60008273ffffffffffffffffffffffffffffffffffffffff1673ffffffffffffffffffffffffffffffffffffffff16815260200190815260200160002060009054906101000a900460ff16155b15610bb0576009819080600181540180825580915050600190039060005260206000200160009091909190916101000a81548173ffffffffffffffffffffffffffffffffffffffff021916908373ffffffffffffffffffffffffffffffffffffffff1602179055506001600a60008373ffffffffffffffffffffffffffffffffffffffff1673ffffffffffffffffffffffffffffffffffffffff16815260200190815260200160002060006101000a81548160ff0219169083151502179055508073ffffffffffffffffffffffffffffffffffffffff1663d90c137e306040518263ffffffff1660e01b8152600401610a739190612ef1565b600060405180830381600087803b158015610a8d57600080fd5b505af1158015610aa1573d6000803e3d6000fd5b50505050600460009054906101000a900473ffffffffffffffffffffffffffffffffffffffff1673ffffffffffffffffffffffffffffffffffffffff166326e4ca826040518163ffffffff1660e01b815260040160206040518083038186803b158015610b0d57600080fd5b505afa158015610b21573d6000803e3d6000fd5b505050506040513d601f19601f82011682018060405250810190610b459190612697565b73ffffffffffffffffffffffffffffffffffffffff166363441ab2306040518263ffffffff1660e01b8152600401610b7d9190612fd9565b600060405180830381600087803b158015610b9757600080fd5b505af1158015610bab573d6000803e3d6000fd5b505050505b50565b6000600580549050905090565b610bc933611ce8565b15610be6578060019080519060200190610be4929190612317565b505b50565b610bf16123a5565b610bf96123a5565b60005b600a81108015610c125750600185820101600854105b15610d7157838015610c4a575060076000600187840101815260200190815260200160002060020160009054906101000a900460ff16155b15610c65578480600101955050808060019003915050610d64565b60076000600187840101815260200190815260200160002060405180606001604052908160008201548152602001600182018054600181600116156101000203166002900480601f016020809104026020016040519081016040528092919081815260200182805460018160011615610100020316600290048015610d2b5780601f10610d0057610100808354040283529160200191610d2b565b820191906000526020600020905b815481529060010190602001808311610d0e57829003601f168201915b505050505081526020016002820160009054906101000a900460ff1615151515815250508282600a8110610d5b57fe5b60200201819052505b8080600101915050610bfc565b508091505092915050565b6000600160085403905090565b6000600460009054906101000a900473ffffffffffffffffffffffffffffffffffffffff1673ffffffffffffffffffffffffffffffffffffffff166326e4ca826040518163ffffffff1660e01b815260040160206040518083038186803b158015610df357600080fd5b505afa158015610e07573d6000803e3d6000fd5b505050506040513d601f19601f82011682018060405250810190610e2b9190612697565b73ffffffffffffffffffffffffffffffffffffffff1663ff25025b6040518163ffffffff1660e01b815260040160206040518083038186803b158015610e7057600080fd5b505afa158015610e84573d6000803e3d6000fd5b505050506040513d601f19601f82011682018060405250810190610ea891906126fc565b73ffffffffffffffffffffffffffffffffffffffff1663910b70cc306040518263ffffffff1660e01b8152600401610ee09190612ef1565b60206040518083038186803b158015610ef857600080fd5b505afa158015610f0c573d6000803e3d6000fd5b505050506040513d601f19601f82011682018060405250810190610f30919061280a565b905090565b610f3e33611ce8565b156110bb57600060086000815480929190600101919050559050600060076000838152602001908152602001600020905081816000018190555082816001019080519060200190610f90929190612317565b5060018160020160006101000a81548160ff021916908315150217905550600460009054906101000a900473ffffffffffffffffffffffffffffffffffffffff1673ffffffffffffffffffffffffffffffffffffffff166326e4ca826040518163ffffffff1660e01b815260040160206040518083038186803b15801561101657600080fd5b505afa15801561102a573d6000803e3d6000fd5b505050506040513d601f19601f8201168201806040525081019061104e9190612697565b73ffffffffffffffffffffffffffffffffffffffff166363441ab2306040518263ffffffff1660e01b81526004016110869190612f98565b600060405180830381600087803b1580156110a057600080fd5b505af11580156110b4573d6000803e3d6000fd5b5050505050505b50565b6110c66123d3565b6110ce6123d3565b6000808490505b600380549050811080156110e95750600a82105b1561117e57600381815481106110fb57fe5b9060005260206000200160009054906101000a900473ffffffffffffffffffffffffffffffffffffffff168383600a811061113257fe5b602002019073ffffffffffffffffffffffffffffffffffffffff16908173ffffffffffffffffffffffffffffffffffffffff1681525050818060010192505080806001019150506110d5565b508192505050919050565b6000600380549050905090565b61119f81611ce8565b801561123e5750600160028111156111b357fe5b8273ffffffffffffffffffffffffffffffffffffffff1663200d2ed26040518163ffffffff1660e01b815260040160206040518083038186803b1580156111f957600080fd5b505afa15801561120d573d6000803e3d6000fd5b505050506040513d601f19601f820116820180604052508101906112319190612777565b600281111561123c57fe5b145b80156112f257503073ffffffffffffffffffffffffffffffffffffffff168273ffffffffffffffffffffffffffffffffffffffff1663d1384eb66040518163ffffffff1660e01b815260040160206040518083038186803b1580156112a257600080fd5b505afa1580156112b6573d6000803e3d6000fd5b505050506040513d601f19601f820116820180604052508101906112da919061274e565b73ffffffffffffffffffffffffffffffffffffffff16145b15611465576003829080600181540180825580915050600190039060005260206000200160009091909190916101000a81548173ffffffffffffffffffffffffffffffffffffffff021916908373ffffffffffffffffffffffffffffffffffffffff160217905550600460009054906101000a900473ffffffffffffffffffffffffffffffffffffffff1673ffffffffffffffffffffffffffffffffffffffff166326e4ca826040518163ffffffff1660e01b815260040160206040518083038186803b1580156113c257600080fd5b505afa1580156113d6573d6000803e3d6000fd5b505050506040513d601f19601f820116820180604052508101906113fa9190612697565b73ffffffffffffffffffffffffffffffffffffffff166363441ab2306040518263ffffffff1660e01b815260040161143291906130dd565b600060405180830381600087803b15801561144c57600080fd5b505af1158015611460573d6000803e3d6000fd5b505050505b5050565b600260009054906101000a900473ffffffffffffffffffffffffffffffffffffffff1681565b61149833611ce8565b801561154c57503073ffffffffffffffffffffffffffffffffffffffff168173ffffffffffffffffffffffffffffffffffffffff16634e8ef7536040518163ffffffff1660e01b815260040160206040518083038186803b1580156114fc57600080fd5b505afa158015611510573d6000803e3d6000fd5b505050506040513d601f19601f82011682018060405250810190611534919061274e565b73ffffffffffffffffffffffffffffffffffffffff16145b156118855760005b6009805490508110156116be578173ffffffffffffffffffffffffffffffffffffffff166009828154811061158557fe5b9060005260206000200160009054906101000a900473ffffffffffffffffffffffffffffffffffffffff1673ffffffffffffffffffffffffffffffffffffffff1614156116b157600060016009805490500390508082101561166f57600981815481106115ee57fe5b9060005260206000200160009054906101000a900473ffffffffffffffffffffffffffffffffffffffff166009838154811061162657fe5b9060005260206000200160006101000a81548173ffffffffffffffffffffffffffffffffffffffff021916908373ffffffffffffffffffffffffffffffffffffffff1602179055505b600980548061167a57fe5b6001900381819060005260206000200160006101000a81549073ffffffffffffffffffffffffffffffffffffffff02191690559055505b8080600101915050611554565b50600a60008273ffffffffffffffffffffffffffffffffffffffff1673ffffffffffffffffffffffffffffffffffffffff16815260200190815260200160002060006101000a81549060ff02191690558073ffffffffffffffffffffffffffffffffffffffff1663d90c137e60006040518263ffffffff1660e01b81526004016117489190612ef1565b600060405180830381600087803b15801561176257600080fd5b505af1158015611776573d6000803e3d6000fd5b50505050600460009054906101000a900473ffffffffffffffffffffffffffffffffffffffff1673ffffffffffffffffffffffffffffffffffffffff166326e4ca826040518163ffffffff1660e01b815260040160206040518083038186803b1580156117e257600080fd5b505afa1580156117f6573d6000803e3d6000fd5b505050506040513d601f19601f8201168201806040525081019061181a9190612697565b73ffffffffffffffffffffffffffffffffffffffff166363441ab2306040518263ffffffff1660e01b8152600401611852919061301a565b600060405180830381600087803b15801561186c57600080fd5b505af1158015611880573d6000803e3d6000fd5b505050505b50565b61189133611ce8565b80156118e75750600660008273ffffffffffffffffffffffffffffffffffffffff1673ffffffffffffffffffffffffffffffffffffffff16815260200190815260200160002060009054906101000a900460ff16155b15611ab2576005819080600181540180825580915050600190039060005260206000200160009091909190916101000a81548173ffffffffffffffffffffffffffffffffffffffff021916908373ffffffffffffffffffffffffffffffffffffffff1602179055506001600660008373ffffffffffffffffffffffffffffffffffffffff1673ffffffffffffffffffffffffffffffffffffffff16815260200190815260200160002060006101000a81548160ff021916908315150217905550600460009054906101000a900473ffffffffffffffffffffffffffffffffffffffff1673ffffffffffffffffffffffffffffffffffffffff166326e4ca826040518163ffffffff1660e01b815260040160206040518083038186803b158015611a0f57600080fd5b505afa158015611a23573d6000803e3d6000fd5b505050506040513d601f19601f82011682018060405250810190611a479190612697565b73ffffffffffffffffffffffffffffffffffffffff166363441ab2306040518263ffffffff1660e01b8152600401611a7f9190612f57565b600060405180830381600087803b158015611a9957600080fd5b505af1158015611aad573d6000803e3d6000fd5b505050505b50565b60005481565b611ac433611ce8565b15611c2157600060076000858152602001908152602001600020905082816001019080519060200190611af8929190612317565b50818160020160006101000a81548160ff021916908315150217905550600460009054906101000a900473ffffffffffffffffffffffffffffffffffffffff1673ffffffffffffffffffffffffffffffffffffffff166326e4ca826040518163ffffffff1660e01b815260040160206040518083038186803b158015611b7d57600080fd5b505afa158015611b91573d6000803e3d6000fd5b505050506040513d601f19601f82011682018060405250810190611bb59190612697565b73ffffffffffffffffffffffffffffffffffffffff166363441ab2306040518263ffffffff1660e01b8152600401611bed919061305b565b600060405180830381600087803b158015611c0757600080fd5b505af1158015611c1b573d6000803e3d6000fd5b50505050505b505050565b611c2e6123f6565b611c366123f6565b60005b600a81108015611c4f5750600580549050848201105b15611cde57600584820181548110611c6357fe5b9060005260206000200160009054906101000a900473ffffffffffffffffffffffffffffffffffffffff168282600a8110611c9a57fe5b602002019073ffffffffffffffffffffffffffffffffffffffff16908173ffffffffffffffffffffffffffffffffffffffff16815250508080600101915050611c39565b5080915050919050565b6000611cf582600061224f565b9050919050565b611d046123d3565b600460009054906101000a900473ffffffffffffffffffffffffffffffffffffffff1673ffffffffffffffffffffffffffffffffffffffff166326e4ca826040518163ffffffff1660e01b815260040160206040518083038186803b158015611d6c57600080fd5b505afa158015611d80573d6000803e3d6000fd5b505050506040513d601f19601f82011682018060405250810190611da49190612697565b73ffffffffffffffffffffffffffffffffffffffff1663ff25025b6040518163ffffffff1660e01b815260040160206040518083038186803b158015611de957600080fd5b505afa158015611dfd573d6000803e3d6000fd5b505050506040513d601f19601f82011682018060405250810190611e2191906126fc565b73ffffffffffffffffffffffffffffffffffffffff1663ad7a592f30846040518363ffffffff1660e01b8152600401611e5b929190612f0c565b6101406040518083038186803b158015611e7457600080fd5b505afa158015611e88573d6000803e3d6000fd5b505050506040513d601f19601f82011682018060405250810190611eac919061266d565b9050919050565b611ebd33826106a5565b1561218a5760005b60058054905081101561202f578173ffffffffffffffffffffffffffffffffffffffff1660058281548110611ef657fe5b9060005260206000200160009054906101000a900473ffffffffffffffffffffffffffffffffffffffff1673ffffffffffffffffffffffffffffffffffffffff161415612022576000600160058054905003905080821015611fe05760058181548110611f5f57fe5b9060005260206000200160009054906101000a900473ffffffffffffffffffffffffffffffffffffffff1660058381548110611f9757fe5b9060005260206000200160006101000a81548173ffffffffffffffffffffffffffffffffffffffff021916908373ffffffffffffffffffffffffffffffffffffffff1602179055505b6005805480611feb57fe5b6001900381819060005260206000200160006101000a81549073ffffffffffffffffffffffffffffffffffffffff02191690559055505b8080600101915050611ec5565b50600660008273ffffffffffffffffffffffffffffffffffffffff1673ffffffffffffffffffffffffffffffffffffffff16815260200190815260200160002060006101000a81549060ff0219169055600460009054906101000a900473ffffffffffffffffffffffffffffffffffffffff1673ffffffffffffffffffffffffffffffffffffffff166326e4ca826040518163ffffffff1660e01b815260040160206040518083038186803b1580156120e757600080fd5b505afa1580156120fb573d6000803e3d6000fd5b505050506040513d601f19601f8201168201806040525081019061211f9190612697565b73ffffffffffffffffffffffffffffffffffffffff166363441ab2306040518263ffffffff1660e01b8152600401612157919061309c565b600060405180830381600087803b15801561217157600080fd5b505af1158015612185573d6000803e3d6000fd5b505050505b50565b612195612419565b61219d612419565b60005b600a811080156121b65750600980549050848201105b15612245576009848201815481106121ca57fe5b9060005260206000200160009054906101000a900473ffffffffffffffffffffffffffffffffffffffff168282600a811061220157fe5b602002019073ffffffffffffffffffffffffffffffffffffffff16908173ffffffffffffffffffffffffffffffffffffffff168152505080806001019150506121a0565b5080915050919050565b60006005828154811061225e57fe5b9060005260206000200160009054906101000a900473ffffffffffffffffffffffffffffffffffffffff1673ffffffffffffffffffffffffffffffffffffffff168373ffffffffffffffffffffffffffffffffffffffff1614156122c557600190506122ee565b6001600580549050038210156122e9576122e2836001840161224f565b90506122ee565b600090505b92915050565b604051806060016040528060008152602001606081526020016000151581525090565b828054600181600116156101000203166002900490600052602060002090601f01602090048101928261234d5760008555612394565b82601f1061236657805160ff1916838001178555612394565b82800160010185558215612394579182015b82811115612393578251825591602001919060010190612378565b5b5090506123a1919061243c565b5090565b604051806101400160405280600a905b6123bd6122f4565b8152602001906001900390816123b55790505090565b604051806101400160405280600a90602082028036833780820191505090505090565b604051806101400160405280600a90602082028036833780820191505090505090565b604051806101400160405280600a90602082028036833780820191505090505090565b5b8082111561245557600081600090555060010161243d565b5090565b60008135905061246881613410565b92915050565b600082601f83011261247f57600080fd5b600a61249261248d8261318c565b61315b565b915081838560208402820111156124a857600080fd5b60005b838110156124d857816124be8882612521565b8452602084019350602083019250506001810190506124ab565b5050505092915050565b6000813590506124f181613427565b92915050565b6000815190506125068161343e565b92915050565b60008135905061251b81613455565b92915050565b60008151905061253081613455565b92915050565b6000815190506125458161346c565b92915050565b60008135905061255a81613483565b92915050565b60008151905061256f8161349a565b92915050565b600081519050612584816134b1565b92915050565b600082601f83011261259b57600080fd5b81356125ae6125a9826131b2565b61315b565b915080825260208301602083018583830111156125ca57600080fd5b6125d58382846133bb565b50505092915050565b6000813590506125ed816134c1565b92915050565b600081519050612602816134c1565b92915050565b60006020828403121561261a57600080fd5b600061262884828501612459565b91505092915050565b6000806040838503121561264457600080fd5b600061265285828601612459565b925050602061266385828601612459565b9150509250929050565b6000610140828403121561268057600080fd5b600061268e8482850161246e565b91505092915050565b6000602082840312156126a957600080fd5b60006126b7848285016124f7565b91505092915050565b600080604083850312156126d357600080fd5b60006126e18582860161250c565b92505060206126f285828601612459565b9150509250929050565b60006020828403121561270e57600080fd5b600061271c84828501612536565b91505092915050565b60006020828403121561273757600080fd5b60006127458482850161254b565b91505092915050565b60006020828403121561276057600080fd5b600061276e84828501612560565b91505092915050565b60006020828403121561278957600080fd5b600061279784828501612575565b91505092915050565b6000602082840312156127b257600080fd5b600082013567ffffffffffffffff8111156127cc57600080fd5b6127d88482850161258a565b91505092915050565b6000602082840312156127f357600080fd5b6000612801848285016125de565b91505092915050565b60006020828403121561281c57600080fd5b600061282a848285016125f3565b91505092915050565b6000806040838503121561284657600080fd5b6000612854858286016125de565b9250506020612865858286016124e2565b9150509250929050565b60008060006060848603121561288457600080fd5b6000612892868287016125de565b935050602084013567ffffffffffffffff8111156128af57600080fd5b6128bb8682870161258a565b92505060406128cc868287016124e2565b9150509250925092565b60006128e28383612932565b60208301905092915050565b60006128fa8383612ae8565b60208301905092915050565b60006129128383612af7565b60208301905092915050565b600061292a8383612d87565b905092915050565b61293b816132ad565b82525050565b61294a816132ad565b82525050565b6129598161320a565b6129638184613275565b925061296e826131e2565b8060005b8381101561299f57815161298687826128d6565b965061299183613241565b925050600181019050612972565b505050505050565b6129b081613215565b6129ba8184613275565b92506129c5826131ec565b8060005b838110156129f65781516129dd87826128ee565b96506129e88361324e565b9250506001810190506129c9565b505050505050565b612a0781613220565b612a118184613275565b9250612a1c826131f6565b8060005b83811015612a4d578151612a348782612906565b9650612a3f8361325b565b925050600181019050612a20565b505050505050565b6000612a608261322b565b612a6a8185613280565b935083602082028501612a7c85613200565b8060005b85811015612ab85784840389528151612a99858261291e565b9450612aa483613268565b925060208a01995050600181019050612a80565b50829750879550505050505092915050565b612ad3816132bf565b82525050565b612ae2816132bf565b82525050565b612af18161334f565b82525050565b612b0081613373565b82525050565b612b0f81613397565b82525050565b6000612b2082613236565b612b2a818561328b565b9350612b3a8185602086016133ca565b612b43816133ff565b840191505092915050565b6000612b5982613236565b612b63818561329c565b9350612b738185602086016133ca565b612b7c816133ff565b840191505092915050565b6000612b9460188361329c565b91507f4144445f4d4f4449464945525f494e535449545554494f4e00000000000000006000830152602082019050919050565b6000612bd4601c8361329c565b91507f4144445f53544146465f4d454d4245525f494e535449545554494f4e000000006000830152602082019050919050565b6000612c1460178361329c565b91507f4144445f464143554c54595f494e535449545554494f4e0000000000000000006000830152602082019050919050565b6000612c54601a8361329c565b91507f52454d4f56455f464143554c54595f494e535449545554494f4e0000000000006000830152602082019050919050565b6000612c94600b8361329c565b91507f494e535449545554494f4e0000000000000000000000000000000000000000006000830152602082019050919050565b6000612cd4601f8361329c565b91507f5550444154455f53544146465f4d454d4245525f494e535449545554494f4e006000830152602082019050919050565b6000612d14601b8361329c565b91507f52454d4f56455f4d4f4449464945525f494e535449545554494f4e00000000006000830152602082019050919050565b6000612d54601b8361329c565b91507f4144445f43455254494649434154455f494e535449545554494f4e00000000006000830152602082019050919050565b6000606083016000830151612d9f6000860182612e27565b5060208301518482036020860152612db78282612b15565b9150506040830151612dcc6040860182612aca565b508091505092915050565b6000606083016000830151612def6000860182612e27565b5060208301518482036020860152612e078282612b15565b9150506040830151612e1c6040860182612aca565b508091505092915050565b612e3081613345565b82525050565b612e3f81613345565b82525050565b6000602082019050612e5a6000830184612941565b92915050565b600061014082019050612e766000830184612950565b92915050565b600061014082019050612e9260008301846129a7565b92915050565b600061014082019050612eae60008301846129fe565b92915050565b60006020820190508181036000830152612ece8184612a55565b905092915050565b6000602082019050612eeb6000830184612ad9565b92915050565b6000602082019050612f066000830184612b06565b92915050565b6000604082019050612f216000830185612b06565b612f2e6020830184612e36565b9392505050565b60006020820190508181036000830152612f4f8184612b4e565b905092915050565b60006060820190508181036000830152612f7081612b87565b90508181036020830152612f8381612c87565b9050612f926040830184612941565b92915050565b60006060820190508181036000830152612fb181612bc7565b90508181036020830152612fc481612c87565b9050612fd36040830184612941565b92915050565b60006060820190508181036000830152612ff281612c07565b9050818103602083015261300581612c87565b90506130146040830184612941565b92915050565b6000606082019050818103600083015261303381612c47565b9050818103602083015261304681612c87565b90506130556040830184612941565b92915050565b6000606082019050818103600083015261307481612cc7565b9050818103602083015261308781612c87565b90506130966040830184612941565b92915050565b600060608201905081810360008301526130b581612d07565b905081810360208301526130c881612c87565b90506130d76040830184612941565b92915050565b600060608201905081810360008301526130f681612d47565b9050818103602083015261310981612c87565b90506131186040830184612941565b92915050565b600060208201905081810360008301526131388184612dd7565b905092915050565b60006020820190506131556000830184612e36565b92915050565b6000604051905081810181811067ffffffffffffffff82111715613182576131816133fd565b5b8060405250919050565b600067ffffffffffffffff8211156131a7576131a66133fd565b5b602082029050919050565b600067ffffffffffffffff8211156131cd576131cc6133fd565b5b601f19601f8301169050602081019050919050565b6000819050919050565b6000819050919050565b6000819050919050565b6000819050919050565b6000600a9050919050565b6000600a9050919050565b6000600a9050919050565b6000600a9050919050565b600081519050919050565b6000602082019050919050565b6000602082019050919050565b6000602082019050919050565b6000602082019050919050565b600081905092915050565b600081905092915050565b600082825260208201905092915050565b600082825260208201905092915050565b60006132b882613325565b9050919050565b60008115159050919050565b60006132d6826132ad565b9050919050565b60006132e8826132ad565b9050919050565b60006132fa826132ad565b9050919050565b600061330c826132ad565b9050919050565b600061331e826132ad565b9050919050565b600073ffffffffffffffffffffffffffffffffffffffff82169050919050565b6000819050919050565b600061335a82613361565b9050919050565b600061336c82613325565b9050919050565b600061337e82613385565b9050919050565b600061339082613325565b9050919050565b60006133a2826133a9565b9050919050565b60006133b482613325565b9050919050565b82818337600083830152505050565b60005b838110156133e85780820151818401526020810190506133cd565b838111156133f7576000848401525b50505050565bfe5b6000601f19601f8301169050919050565b613419816132ad565b811461342457600080fd5b50565b613430816132bf565b811461343b57600080fd5b50565b613447816132cb565b811461345257600080fd5b50565b61345e816132dd565b811461346957600080fd5b50565b613475816132ef565b811461348057600080fd5b50565b61348c81613301565b811461349757600080fd5b50565b6134a381613313565b81146134ae57600080fd5b50565b600381106134be57600080fd5b50565b6134ca81613345565b81146134d557600080fd5b5056fea26469706673582212201cd5f88e53539546fcbd844216bd5e283aec3fc349ef6ddb6afdb3ab097b9e0464736f6c63430007050033a2646970667358221220665dcfc929a787c6b6444c6c0c81a6155dd5925b0b55a74077e439ff12039af664736f6c63430007050033",
  "immutableReferences": {},
  "source": "// SPDX-License-Identifier: GPL-3.0\npragma solidity >=0.5.0 <0.8.0;\npragma abicoder v2;\nenum Degree {\n    ScholarlyAcademics,\n    PracticeAcademics,\n    ScholarlyPractitioner,\n    InstructionalPractitioner\n}\n\ncontract Certificate {\n    enum State {requested, approved, rejected}\n\n    Faculty public faculty;\n    Institution public institution;\n    Degree public degree;\n    State public status = State.requested;\n    CertificatesManager certificatesManager;\n\n    constructor(\n        CertificatesManager _certificatesManager,\n        Faculty _faculty,\n        Institution _institution,\n        Degree _degree\n    ) {\n        certificatesManager = _certificatesManager;\n        faculty = _faculty;\n        institution = _institution;\n        degree = _degree;\n    }\n\n    function reject() public payable {\n        if (editable(msg.sender)) {\n            status = State.rejected;\n            certificatesManager\n                .application()\n                .certificatesManager()\n                .removeCertificate(this);\n            certificatesManager.application().emitEvent(\n                \"REJEcT_CERTIFICATE\",\n                \"CERTIFICATE\",\n                address(this)\n            );\n        }\n    }\n\n    function approve() public payable {\n        if (editable(msg.sender) && institution.allowed(msg.sender)) {\n            status = State.approved;\n            faculty.addCertificate(this, msg.sender);\n            institution.addCertificate(this, msg.sender);\n            certificatesManager\n                .application()\n                .certificatesManager()\n                .removeCertificate(this);\n            certificatesManager.application().emitEvent(\n                \"APPROVE_CERTIFICATE\",\n                \"CERTIFICATE\",\n                address(this)\n            );\n        }\n    }\n\n    function editable(address _address) public view returns (bool) {\n        return status == State.requested && institution.allowed(_address);\n    }\n}\n\ncontract Faculty {\n    uint256 id;\n    string public name;\n    address public owner;\n    Certificate[] public certificates;\n    Institution public currentInstitution;\n    FacultiesManager facultiesManager;\n\n    constructor(\n        FacultiesManager _facultiesManager,\n        uint256 _id,\n        string memory _name,\n        address _owner\n    ) {\n        facultiesManager = _facultiesManager;\n        name = _name;\n        id = _id;\n        owner = _owner;\n    }\n\n    function update(string memory _name) public payable {\n        if (allowed(msg.sender)) {\n            name = _name;\n            facultiesManager.application().emitEvent(\n                \"UPDATE_FACULTY\",\n                \"FACULTY\",\n                address(this)\n            );\n        }\n    }\n\n    function assignInstitution(Institution _institution) public payable {\n        if (\n            address(_institution) == msg.sender ||\n            address(currentInstitution) == msg.sender\n        ) {\n            currentInstitution = _institution;\n            facultiesManager.application().emitEvent(\n                \"ASSIGN_INSTITUION\",\n                \"FACULTY\",\n                address(this)\n            );\n        }\n    }\n\n    function allowed(address _address) public view returns (bool) {\n        return _address == owner;\n    }\n\n    function addCertificate(Certificate _certificate, address _address)\n        public\n        payable\n    {\n        if (\n            _certificate.institution().allowed(_address) &&\n            _certificate.status() == Certificate.State.approved &&\n            _certificate.faculty() == this\n        ) {\n            certificates.push(_certificate);\n            facultiesManager.application().emitEvent(\n                \"ADD_CERTIFICATE\",\n                \"FACULTY\",\n                address(this)\n            );\n        }\n    }\n\n    function certificatesLength() public view returns (uint256) {\n        return certificates.length;\n    }\n\n    function listCertificates(uint256 _from)\n        public\n        view\n        returns (Certificate[10] memory)\n    {\n        Certificate[10] memory list;\n        for (uint256 i = 0; i < 10 && i + _from < certificates.length; i++) {\n            list[i] = certificates[i + _from];\n        }\n        return list;\n    }\n\n    function pendingCertificatesLength() public view returns (uint256) {\n        return\n            facultiesManager\n                .application()\n                .certificatesManager()\n                .pendingCertificateLengthForFaculty(this);\n    }\n\n    function pendingCertificates(uint256 _from)\n        public\n        view\n        returns (Certificate[10] memory)\n    {\n        return\n            facultiesManager\n                .application()\n                .certificatesManager()\n                .pendingCertificateForFaculty(this, _from);\n    }\n}\n\ncontract Institution {\n    struct StaffMember {\n        uint256 id;\n        string name;\n        bool active;\n    }\n\n    uint256 public id;\n    string public name;\n    address public owner;\n\n    Certificate[] certificates;\n    InstituionsManager instituionsManager;\n    address[] public allowedModifiers;\n    mapping(address => bool) allowedModifiersMap;\n\n    mapping(uint256 => StaffMember) staffMembers;\n    uint256 nextStaffMembersId = 1;\n\n    Faculty[] faculties;\n    mapping(Faculty => bool) facultiesMap;\n\n    constructor(\n        InstituionsManager _instituionsManager,\n        uint256 _id,\n        string memory _name,\n        address sender\n    ) {\n        instituionsManager = _instituionsManager;\n        id = _id;\n        name = _name;\n        owner = sender;\n        allowedModifiers.push(sender);\n        allowedModifiersMap[sender] = true;\n    }\n\n    function update(string memory _name) public payable {\n        if (allowed(msg.sender)) {\n            name = _name;\n        }\n    }\n\n    function staffMember(uint256 _from)\n        public\n        view\n        returns (StaffMember memory)\n    {\n        return staffMembers[_from];\n    }\n\n    function listStaffMembers(uint256 _from, bool skipInactive)\n        public\n        view\n        returns (StaffMember[10] memory)\n    {\n        StaffMember[10] memory list;\n        for (uint256 i = 0; i < 10 && nextStaffMembersId < i + _from + 1; i++) {\n            if (skipInactive && !staffMembers[i + _from + 1].active) {\n                _from++;\n                i--;\n            } else {\n                list[i] = staffMembers[i + _from + 1];\n            }\n        }\n        return list;\n    }\n\n    function staffMembersLength() public view returns (uint256) {\n        return nextStaffMembersId - 1;\n    }\n\n    function createStaffMember(string memory _name) public payable {\n        if (allowed(msg.sender)) {\n            uint256 _nextStaffMemberId = nextStaffMembersId++;\n            StaffMember storage _staffMember = staffMembers[_nextStaffMemberId];\n            _staffMember.id = _nextStaffMemberId;\n            _staffMember.name = _name;\n            _staffMember.active = true;\n            instituionsManager.application().emitEvent(\n                \"ADD_STAFF_MEMBER_INSTITUTION\",\n                \"INSTITUTION\",\n                address(this)\n            );\n        }\n    }\n\n    function updateStaffMember(\n        uint256 _staffMemberId,\n        string memory _name,\n        bool _active\n    ) public payable {\n        if (allowed(msg.sender)) {\n            StaffMember storage _staffMember = staffMembers[_staffMemberId];\n            _staffMember.name = _name;\n            _staffMember.active = _active;\n            instituionsManager.application().emitEvent(\n                \"UPDATE_STAFF_MEMBER_INSTITUTION\",\n                \"INSTITUTION\",\n                address(this)\n            );\n        }\n    }\n\n    function listModifiers(uint256 _from)\n        public\n        view\n        returns (address[10] memory)\n    {\n        address[10] memory list;\n        for (\n            uint256 i = 0;\n            i < 10 && i + _from < allowedModifiers.length;\n            i++\n        ) {\n            list[i] = allowedModifiers[i + _from];\n        }\n        return list;\n    }\n\n    function modifiersLength() public view returns (uint256) {\n        return allowedModifiers.length;\n    }\n\n    function addModifier(address _modifier) public payable {\n        if (allowed(msg.sender) && !allowedModifiersMap[_modifier]) {\n            allowedModifiers.push(_modifier);\n            allowedModifiersMap[_modifier] = true;\n            instituionsManager.application().emitEvent(\n                \"ADD_MODIFIER_INSTITUTION\",\n                \"INSTITUTION\",\n                address(this)\n            );\n        }\n    }\n\n    function removeModifier(address _modifier) public payable {\n        if (allowedToRemove(msg.sender, _modifier)) {\n            for (uint256 i = 0; i < allowedModifiers.length; i++) {\n                if (allowedModifiers[i] == _modifier) {\n                    uint256 _lastIndex = allowedModifiers.length - 1;\n                    if (i < _lastIndex) {\n                        allowedModifiers[i] = allowedModifiers[_lastIndex];\n                    }\n                    allowedModifiers.pop();\n                }\n            }\n            delete allowedModifiersMap[_modifier];\n            instituionsManager.application().emitEvent(\n                \"REMOVE_MODIFIER_INSTITUTION\",\n                \"INSTITUTION\",\n                address(this)\n            );\n        }\n    }\n\n    function allowedToRemove(address _sender, address _toRemove)\n        public\n        view\n        returns (bool)\n    {\n        if (allowed(_sender)) {\n            if (_sender == _toRemove) {\n                return false;\n            } else if (_toRemove == owner) {\n                return false;\n            } else {\n                return true;\n            }\n        } else {\n            return false;\n        }\n    }\n\n    function allowed(address _modifierAddress) public view returns (bool) {\n        return allowed(_modifierAddress, 0);\n    }\n\n    function allowed(address modifierAddress, uint256 index)\n        private\n        view\n        returns (bool)\n    {\n        if (modifierAddress == allowedModifiers[index]) {\n            return true;\n        } else if (index < allowedModifiers.length - 1) {\n            return allowed(modifierAddress, index + 1);\n        } else {\n            return false;\n        }\n    }\n\n    function addCertificate(Certificate _certificate, address _address)\n        public\n        payable\n    {\n        if (\n            allowed(_address) &&\n            _certificate.status() == Certificate.State.approved &&\n            _certificate.institution() == this\n        ) {\n            certificates.push(_certificate);\n            instituionsManager.application().emitEvent(\n                \"ADD_CERTIFICATE_INSTITUTION\",\n                \"INSTITUTION\",\n                address(this)\n            );\n        }\n    }\n\n    function issuedCertificates(uint256 _from)\n        public\n        view\n        returns (Certificate[10] memory)\n    {\n        Certificate[10] memory _list;\n        uint256 _count = 0;\n        for (uint256 i = _from; i < certificates.length && _count < 10; i++) {\n            _list[_count] = certificates[i];\n            _count++;\n        }\n        return _list;\n    }\n\n    function issuedCertificatesLength() public view returns (uint256) {\n        return certificates.length;\n    }\n\n    function pendingCertificatesLength() public view returns (uint256) {\n        return\n            instituionsManager\n                .application()\n                .certificatesManager()\n                .pendingCertificateLengthForInstitution(this);\n    }\n\n    function pendingCertificates(uint256 _from)\n        public\n        view\n        returns (Certificate[10] memory)\n    {\n        return\n            instituionsManager\n                .application()\n                .certificatesManager()\n                .pendingCertificateForInstitution(this, _from);\n    }\n\n    function listFaculties(uint256 _from)\n        public\n        view\n        returns (Faculty[10] memory)\n    {\n        Faculty[10] memory list;\n        for (uint256 i = 0; i < 10 && i + _from < faculties.length; i++) {\n            list[i] = faculties[i + _from];\n        }\n        return list;\n    }\n\n    function facultiesLength() public view returns (uint256) {\n        return faculties.length;\n    }\n\n    function addFaculty(Faculty _faculty) public payable {\n        if (\n            allowed(msg.sender) &&\n            _faculty.currentInstitution() == Institution(0) &&\n            !facultiesMap[_faculty]\n        ) {\n            faculties.push(_faculty);\n            facultiesMap[_faculty] = true;\n            _faculty.assignInstitution(this);\n            instituionsManager.application().emitEvent(\n                \"ADD_FACULTY_INSTITUTION\",\n                \"INSTITUTION\",\n                address(this)\n            );\n        }\n    }\n\n    function removeFaculty(Faculty _faculty) public payable {\n        if (allowed(msg.sender) && _faculty.currentInstitution() == this) {\n            for (uint256 i = 0; i < faculties.length; i++) {\n                if (faculties[i] == _faculty) {\n                    uint256 _lastIndex = faculties.length - 1;\n                    if (i < _lastIndex) {\n                        faculties[i] = faculties[_lastIndex];\n                    }\n                    faculties.pop();\n                }\n            }\n            delete facultiesMap[_faculty];\n            _faculty.assignInstitution(Institution(0));\n            instituionsManager.application().emitEvent(\n                \"REMOVE_FACULTY_INSTITUTION\",\n                \"INSTITUTION\",\n                address(this)\n            );\n        }\n    }\n}\n\ncontract CertificatesManager {\n    Certificate[] pendingCertificates;\n    Application public application;\n\n    constructor(Application _application) {\n        application = _application;\n    }\n\n    function requestCertificate(\n        Faculty _faculty,\n        Institution _institution,\n        Degree _degree\n    ) public payable {\n        Certificate _certificate =\n            new Certificate(this, _faculty, _institution, _degree);\n        pendingCertificates.push(_certificate);\n        application.emitEvent(\n            \"REQUEST_CERTIFICATE\",\n            \"INSTITUTION\",\n            address(_institution)\n        );\n        application.emitEvent(\n            \"REQUEST_CERTIFICATE\",\n            \"FACULTY\",\n            address(_faculty)\n        );\n    }\n\n    function removeCertificate(Certificate _certificate) public payable {\n        for (uint256 i = 0; i < pendingCertificates.length; i++) {\n            if (pendingCertificates[i] == _certificate) {\n                uint256 _lastIndex = pendingCertificates.length - 1;\n                if (i < _lastIndex) {\n                    pendingCertificates[i] = pendingCertificates[_lastIndex];\n                }\n                pendingCertificates.pop();\n            }\n        }\n        application.emitEvent(\n            \"CERTIFICATE_REMOVE\",\n            \"INSTITUTION\",\n            address(_certificate.institution())\n        );\n        application.emitEvent(\n            \"CERTIFICATE_REMOVE\",\n            \"FACULTY\",\n            address(_certificate.faculty())\n        );\n    }\n\n    function pendingCertificateLengthForFaculty(Faculty _faculty)\n        public\n        view\n        returns (uint256)\n    {\n        uint256 _count = 0;\n        for (uint256 i = 0; i < pendingCertificates.length; i++) {\n            if (pendingCertificates[i].faculty() == _faculty) {\n                _count++;\n            }\n        }\n        return _count;\n    }\n\n    function pendingCertificateForFaculty(Faculty _faculty, uint256 _from)\n        public\n        view\n        returns (Certificate[10] memory)\n    {\n        Certificate[10] memory _list;\n        uint256 _count = 0;\n        uint256 _toSkip = 0;\n        for (\n            uint256 i = 0;\n            i < pendingCertificates.length && _count <= 10;\n            i++\n        ) {\n            if (pendingCertificates[i].faculty() == _faculty) {\n                if (_toSkip >= _from) {\n                    _list[_count] = pendingCertificates[i];\n                    _count++;\n                }\n                _toSkip++;\n            }\n        }\n        return _list;\n    }\n\n    function pendingCertificateLengthForInstitution(Institution _institution)\n        public\n        view\n        returns (uint256)\n    {\n        uint256 _count = 0;\n        for (uint256 i = 0; i < pendingCertificates.length; i++) {\n            if (pendingCertificates[i].institution() == _institution) {\n                _count++;\n            }\n        }\n        return _count;\n    }\n\n    function pendingCertificateForInstitution(\n        Institution _institution,\n        uint256 _from\n    ) public view returns (Certificate[10] memory) {\n        Certificate[10] memory _list;\n        uint256 _count = 0;\n        uint256 _toSkip = 0;\n        for (\n            uint256 i = 0;\n            i < pendingCertificates.length && _count <= 10;\n            i++\n        ) {\n            if (pendingCertificates[i].institution() == _institution) {\n                if (_toSkip >= _from) {\n                    _list[_count] = pendingCertificates[i];\n                    _count++;\n                }\n                _toSkip++;\n            }\n        }\n        return _list;\n    }\n}\n\ncontract FacultiesManager {\n    Application public application;\n    mapping(address => Faculty) public faculties;\n    mapping(uint256 => Faculty) facultiesByIndex;\n    uint256 nextFacultyId = 0;\n\n    constructor(Application _application) {\n        application = _application;\n    }\n\n    function facultiesLength() public view returns (uint256) {\n        return nextFacultyId;\n    }\n\n    function createFaculty(string memory _name) public payable {\n        if (address(faculties[msg.sender]) == address(0x0)) {\n            uint256 _id = nextFacultyId++;\n            Faculty faculty = new Faculty(this, _id, _name, msg.sender);\n            facultiesByIndex[_id] = faculty;\n            faculties[msg.sender] = faculty;\n            application.emitEvent(\n                \"CREATE_FACULTY\",\n                \"FACULTY\",\n                address(faculty)\n            );\n        }\n    }\n\n    function listFaculties(uint256 _from)\n        public\n        view\n        returns (Faculty[10] memory)\n    {\n        Faculty[10] memory list;\n        for (uint256 i = 0; i < 10; i++) {\n            list[i] = facultiesByIndex[i + _from];\n        }\n        return list;\n    }\n}\n\ncontract InstituionsManager {\n    Application public application;\n    mapping(uint256 => Institution) public institutions;\n    uint256 nextInstitutionId = 0;\n\n    constructor(Application _application) {\n        application = _application;\n    }\n\n    function institutionsLength() public view returns (uint256) {\n        return nextInstitutionId;\n    }\n\n    function createInstitution(string memory _name) public payable {\n        uint256 _id = nextInstitutionId++;\n        Institution _institution =\n            new Institution(this, _id, _name, msg.sender);\n        institutions[_id] = _institution;\n        application.emitEvent(\n            \"CREATE_INSTITUTION\",\n            \"INSTITUTION\",\n            address(_institution)\n        );\n    }\n\n    function listInstitutions(uint256 _from)\n        public\n        view\n        returns (Institution[10] memory)\n    {\n        Institution[10] memory list;\n        for (uint256 i = 0; i < 10; i++) {\n            list[i] = institutions[i + _from];\n        }\n        return list;\n    }\n}\n\ncontract Application {\n    /*\n    Application is the root contract that the UI will use to interact with sub contracts \n    */\n    CertificatesManager public certificatesManager;\n    FacultiesManager public facultiesManager;\n    InstituionsManager public instituionsManager;\n    event ApplicationEvent(\n        string eventType,\n        string targetType,\n        address targetAddress\n    );\n\n    constructor() {\n        certificatesManager = new CertificatesManager(this);\n        facultiesManager = new FacultiesManager(this);\n        instituionsManager = new InstituionsManager(this);\n    }\n\n    function emitEvent(\n        string memory eventType,\n        string memory targetType,\n        address targetAddress\n    ) public payable {\n        emit ApplicationEvent(eventType, targetType, targetAddress);\n    }\n}\n",
  "sourcePath": "/home/mortadaak/projects/aacsb_accreditiation/contracts/Application.sol",
  "compiler": {
    "name": "solc",
    "version": "0.7.5+commit.eb77ed08.Emscripten.clang"
  },
  "schemaVersion": "3.3.3",
  "updatedAt": "2021-02-01T09:45:59.942Z",
  "networkType": "ethereum",
  "devdoc": {
    "kind": "dev",
    "methods": {},
    "version": 1
  },
  "userdoc": {
    "kind": "user",
    "methods": {},
    "version": 1
  }
}