{
  "contractName": "Application",
  "abi": [
    {
      "inputs": [],
      "stateMutability": "nonpayable",
      "type": "constructor"
    },
    {
      "anonymous": false,
      "inputs": [
        {
          "indexed": false,
          "internalType": "string",
          "name": "eventType",
          "type": "string"
        },
        {
          "indexed": false,
          "internalType": "string",
          "name": "targetType",
          "type": "string"
        },
        {
          "indexed": false,
          "internalType": "address",
          "name": "targetAddress",
          "type": "address"
        }
      ],
      "name": "ApplicationEvent",
      "type": "event"
    },
    {
      "inputs": [],
      "name": "certificatesManager",
      "outputs": [
        {
          "internalType": "contract CertificatesManager",
          "name": "",
          "type": "address"
        }
      ],
      "stateMutability": "view",
      "type": "function",
      "constant": true
    },
    {
      "inputs": [],
      "name": "facultiesManager",
      "outputs": [
        {
          "internalType": "contract FacultiesManager",
          "name": "",
          "type": "address"
        }
      ],
      "stateMutability": "view",
      "type": "function",
      "constant": true
    },
    {
      "inputs": [],
      "name": "instituionsManager",
      "outputs": [
        {
          "internalType": "contract InstituionsManager",
          "name": "",
          "type": "address"
        }
      ],
      "stateMutability": "view",
      "type": "function",
      "constant": true
    },
    {
      "inputs": [
        {
          "internalType": "string",
          "name": "eventType",
          "type": "string"
        },
        {
          "internalType": "string",
          "name": "targetType",
          "type": "string"
        },
        {
          "internalType": "address",
          "name": "targetAddress",
          "type": "address"
        }
      ],
      "name": "emitEvent",
      "outputs": [],
      "stateMutability": "payable",
      "type": "function",
      "payable": true
    }
  ],
  "bytecode": "0x608060405234801561001057600080fd5b503060405161001e90610171565b61002891906101aa565b604051809103906000f080158015610044573d6000803e3d6000fd5b506000806101000a81548173ffffffffffffffffffffffffffffffffffffffff021916908373ffffffffffffffffffffffffffffffffffffffff160217905550306040516100919061017f565b61009b91906101aa565b604051809103906000f0801580156100b7573d6000803e3d6000fd5b50600160006101000a81548173ffffffffffffffffffffffffffffffffffffffff021916908373ffffffffffffffffffffffffffffffffffffffff160217905550306040516101059061018d565b61010f91906101aa565b604051809103906000f08015801561012b573d6000803e3d6000fd5b50600260006101000a81548173ffffffffffffffffffffffffffffffffffffffff021916908373ffffffffffffffffffffffffffffffffffffffff160217905550610209565b6129a0806200075a83390190565b612bba80620030fa83390190565b6144d58062005cb483390190565b6101a4816101e5565b82525050565b60006020820190506101bf600083018461019b565b92915050565b600073ffffffffffffffffffffffffffffffffffffffff82169050919050565b60006101f0826101f7565b9050919050565b6000610202826101c5565b9050919050565b61054180620002196000396000f3fe60806040526004361061003f5760003560e01c806323a4cbea1461004457806363441ab21461006f578063a3bf8aa11461008b578063ff25025b146100b6575b600080fd5b34801561005057600080fd5b506100596100e1565b6040516100669190610309565b60405180910390f35b610089600480360381019061008491906101fa565b610107565b005b34801561009757600080fd5b506100a0610147565b6040516100ad9190610324565b60405180910390f35b3480156100c257600080fd5b506100cb61016d565b6040516100d891906102ee565b60405180910390f35b600160009054906101000a900473ffffffffffffffffffffffffffffffffffffffff1681565b7f7100b3416f6d934993a9f327aba48b7664481b8eb193b6c86ea9c4fe6bac490f83838360405161013a9392919061033f565b60405180910390a1505050565b600260009054906101000a900473ffffffffffffffffffffffffffffffffffffffff1681565b60008054906101000a900473ffffffffffffffffffffffffffffffffffffffff1681565b6000813590506101a0816104f4565b92915050565b600082601f8301126101b757600080fd5b81356101ca6101c5826103b5565b610384565b915080825260208301602083018583830111156101e657600080fd5b6101f183828461049f565b50505092915050565b60008060006060848603121561020f57600080fd5b600084013567ffffffffffffffff81111561022957600080fd5b610235868287016101a6565b935050602084013567ffffffffffffffff81111561025257600080fd5b61025e868287016101a6565b925050604061026f86828701610191565b9150509250925092565b61028281610401565b82525050565b61029181610433565b82525050565b6102a081610457565b82525050565b6102af8161047b565b82525050565b60006102c0826103e5565b6102ca81856103f0565b93506102da8185602086016104ae565b6102e3816104e3565b840191505092915050565b60006020820190506103036000830184610288565b92915050565b600060208201905061031e6000830184610297565b92915050565b600060208201905061033960008301846102a6565b92915050565b6000606082019050818103600083015261035981866102b5565b9050818103602083015261036d81856102b5565b905061037c6040830184610279565b949350505050565b6000604051905081810181811067ffffffffffffffff821117156103ab576103aa6104e1565b5b8060405250919050565b600067ffffffffffffffff8211156103d0576103cf6104e1565b5b601f19601f8301169050602081019050919050565b600081519050919050565b600082825260208201905092915050565b600061040c82610413565b9050919050565b600073ffffffffffffffffffffffffffffffffffffffff82169050919050565b600061043e82610445565b9050919050565b600061045082610413565b9050919050565b600061046282610469565b9050919050565b600061047482610413565b9050919050565b60006104868261048d565b9050919050565b600061049882610413565b9050919050565b82818337600083830152505050565b60005b838110156104cc5780820151818401526020810190506104b1565b838111156104db576000848401525b50505050565bfe5b6000601f19601f8301169050919050565b6104fd81610401565b811461050857600080fd5b5056fea26469706673582212204c264779d9fc71fd0c094dcf764d7f813bef07ab02337619a3dc2577937c346664736f6c6343000705003360806040523480156200001157600080fd5b50604051620029a0380380620029a0833981810160405281019062000037919062000096565b80600160006101000a81548173ffffffffffffffffffffffffffffffffffffffff021916908373ffffffffffffffffffffffffffffffffffffffff1602179055505062000124565b60008151905062000090816200010a565b92915050565b600060208284031215620000a957600080fd5b6000620000b9848285016200007f565b91505092915050565b6000620000cf82620000ea565b9050919050565b6000620000e382620000c2565b9050919050565b600073ffffffffffffffffffffffffffffffffffffffff82169050919050565b6200011581620000d6565b81146200012157600080fd5b50565b61286c80620001346000396000f3fe6080604052600436106200007a5760003560e01c80634069e45d11620000555780634069e45d1462000113578063aa5e41271462000133578063af4cb78b1462000177578063b0fb271414620001bb576200007a565b8063062cd999146200007f57806326e4ca82146200009f5780632d44154914620000cf575b600080fd5b6200009d600480360381019062000097919062000eea565b620001ff565b005b348015620000ac57600080fd5b50620000b7620003cd565b604051620000c6919062001245565b60405180910390f35b348015620000dc57600080fd5b50620000fb6004803603810190620000f5919062000f81565b620003f3565b6040516200010a9190620013cb565b60405180910390f35b6200013160048036038101906200012b919062000e66565b6200051a565b005b3480156200014057600080fd5b506200015f600480360381019062000159919062000fd9565b620008b7565b6040516200016e919062001227565b60405180910390f35b3480156200018457600080fd5b50620001a360048036038101906200019d919062000e92565b62000a92565b604051620001b29190620013cb565b60405180910390f35b348015620001c857600080fd5b50620001e76004803603810190620001e1919062000f40565b62000bb9565b604051620001f6919062001227565b60405180910390f35b600030848484604051620002139062000d94565b62000222949392919062001262565b604051809103906000f0801580156200023f573d6000803e3d6000fd5b5090506000819080600181540180825580915050600190039060005260206000200160009091909190916101000a81548173ffffffffffffffffffffffffffffffffffffffff021916908373ffffffffffffffffffffffffffffffffffffffff160217905550600160009054906101000a900473ffffffffffffffffffffffffffffffffffffffff1673ffffffffffffffffffffffffffffffffffffffff166363441ab2846040518263ffffffff1660e01b815260040162000302919062001384565b600060405180830381600087803b1580156200031d57600080fd5b505af115801562000332573d6000803e3d6000fd5b50505050600160009054906101000a900473ffffffffffffffffffffffffffffffffffffffff1673ffffffffffffffffffffffffffffffffffffffff166363441ab2856040518263ffffffff1660e01b81526004016200039391906200133d565b600060405180830381600087803b158015620003ae57600080fd5b505af1158015620003c3573d6000803e3d6000fd5b5050505050505050565b600160009054906101000a900473ffffffffffffffffffffffffffffffffffffffff1681565b6000806000905060005b60008054905081101562000510578373ffffffffffffffffffffffffffffffffffffffff16600082815481106200043057fe5b9060005260206000200160009054906101000a900473ffffffffffffffffffffffffffffffffffffffff1673ffffffffffffffffffffffffffffffffffffffff1663d1384eb66040518163ffffffff1660e01b815260040160206040518083038186803b158015620004a157600080fd5b505afa158015620004b6573d6000803e3d6000fd5b505050506040513d601f19601f82011682018060405250810190620004dc919062000fad565b73ffffffffffffffffffffffffffffffffffffffff161415620005025781806001019250505b8080600101915050620003fd565b5080915050919050565b60005b6000805490508110156200068f578173ffffffffffffffffffffffffffffffffffffffff16600082815481106200055057fe5b9060005260206000200160009054906101000a900473ffffffffffffffffffffffffffffffffffffffff1673ffffffffffffffffffffffffffffffffffffffff161415620006815760006001600080549050039050808210156200063e5760008181548110620005bc57fe5b9060005260206000200160009054906101000a900473ffffffffffffffffffffffffffffffffffffffff1660008381548110620005f557fe5b9060005260206000200160006101000a81548173ffffffffffffffffffffffffffffffffffffffff021916908373ffffffffffffffffffffffffffffffffffffffff1602179055505b60008054806200064a57fe5b6001900381819060005260206000200160006101000a81549073ffffffffffffffffffffffffffffffffffffffff02191690559055505b80806001019150506200051d565b50600160009054906101000a900473ffffffffffffffffffffffffffffffffffffffff1673ffffffffffffffffffffffffffffffffffffffff166363441ab28273ffffffffffffffffffffffffffffffffffffffff1663d1384eb66040518163ffffffff1660e01b815260040160206040518083038186803b1580156200071557600080fd5b505afa1580156200072a573d6000803e3d6000fd5b505050506040513d601f19601f8201168201806040525081019062000750919062000fad565b6040518263ffffffff1660e01b81526004016200076e9190620012f6565b600060405180830381600087803b1580156200078957600080fd5b505af11580156200079e573d6000803e3d6000fd5b50505050600160009054906101000a900473ffffffffffffffffffffffffffffffffffffffff1673ffffffffffffffffffffffffffffffffffffffff166363441ab28273ffffffffffffffffffffffffffffffffffffffff16631080d5f86040518163ffffffff1660e01b815260040160206040518083038186803b1580156200082757600080fd5b505afa1580156200083c573d6000803e3d6000fd5b505050506040513d601f19601f8201168201806040525081019062000862919062000ebe565b6040518263ffffffff1660e01b8152600401620008809190620012af565b600060405180830381600087803b1580156200089b57600080fd5b505af1158015620008b0573d6000803e3d6000fd5b5050505050565b620008c162000da2565b620008cb62000da2565b60008060005b60008054905081108015620008e65750600a83105b1562000a85578673ffffffffffffffffffffffffffffffffffffffff16600082815481106200091157fe5b9060005260206000200160009054906101000a900473ffffffffffffffffffffffffffffffffffffffff1673ffffffffffffffffffffffffffffffffffffffff1663d1384eb66040518163ffffffff1660e01b815260040160206040518083038186803b1580156200098257600080fd5b505afa15801562000997573d6000803e3d6000fd5b505050506040513d601f19601f82011682018060405250810190620009bd919062000fad565b73ffffffffffffffffffffffffffffffffffffffff16141562000a775785821062000a6d5760008181548110620009f057fe5b9060005260206000200160009054906101000a900473ffffffffffffffffffffffffffffffffffffffff168484600a811062000a2857fe5b602002019073ffffffffffffffffffffffffffffffffffffffff16908173ffffffffffffffffffffffffffffffffffffffff1681525050828060010193505062000a76565b81806001019250505b5b8080600101915050620008d1565b5082935050505092915050565b6000806000905060005b60008054905081101562000baf578373ffffffffffffffffffffffffffffffffffffffff166000828154811062000acf57fe5b9060005260206000200160009054906101000a900473ffffffffffffffffffffffffffffffffffffffff1673ffffffffffffffffffffffffffffffffffffffff16631080d5f86040518163ffffffff1660e01b815260040160206040518083038186803b15801562000b4057600080fd5b505afa15801562000b55573d6000803e3d6000fd5b505050506040513d601f19601f8201168201806040525081019062000b7b919062000ebe565b73ffffffffffffffffffffffffffffffffffffffff16141562000ba15781806001019250505b808060010191505062000a9c565b5080915050919050565b62000bc362000da2565b62000bcd62000da2565b60008060005b6000805490508110801562000be85750600a83105b1562000d87578673ffffffffffffffffffffffffffffffffffffffff166000828154811062000c1357fe5b9060005260206000200160009054906101000a900473ffffffffffffffffffffffffffffffffffffffff1673ffffffffffffffffffffffffffffffffffffffff16631080d5f86040518163ffffffff1660e01b815260040160206040518083038186803b15801562000c8457600080fd5b505afa15801562000c99573d6000803e3d6000fd5b505050506040513d601f19601f8201168201806040525081019062000cbf919062000ebe565b73ffffffffffffffffffffffffffffffffffffffff16141562000d795785821062000d6f576000818154811062000cf257fe5b9060005260206000200160009054906101000a900473ffffffffffffffffffffffffffffffffffffffff168484600a811062000d2a57fe5b602002019073ffffffffffffffffffffffffffffffffffffffff16908173ffffffffffffffffffffffffffffffffffffffff1681525050828060010193505062000d78565b81806001019250505b5b808060010191505062000bd3565b5082935050505092915050565b611213806200162483390190565b604051806101400160405280600a90602082028036833780820191505090505090565b60008135905062000dd681620015aa565b92915050565b60008135905062000ded81620015c4565b92915050565b60008151905062000e0481620015c4565b92915050565b60008135905062000e1b81620015de565b92915050565b60008151905062000e3281620015de565b92915050565b60008135905062000e4981620015f8565b92915050565b60008135905062000e608162001609565b92915050565b60006020828403121562000e7957600080fd5b600062000e898482850162000dc5565b91505092915050565b60006020828403121562000ea557600080fd5b600062000eb58482850162000ddc565b91505092915050565b60006020828403121562000ed157600080fd5b600062000ee18482850162000df3565b91505092915050565b60008060006060848603121562000f0057600080fd5b600062000f108682870162000ddc565b935050602062000f238682870162000e0a565b925050604062000f368682870162000e38565b9150509250925092565b6000806040838503121562000f5457600080fd5b600062000f648582860162000ddc565b925050602062000f778582860162000e4f565b9150509250929050565b60006020828403121562000f9457600080fd5b600062000fa48482850162000e0a565b91505092915050565b60006020828403121562000fc057600080fd5b600062000fd08482850162000e21565b91505092915050565b6000806040838503121562000fed57600080fd5b600062000ffd8582860162000e0a565b9250506020620010108582860162000e4f565b9150509250929050565b6000620010288383620010b9565b60208301905092915050565b6200103f8162001426565b82525050565b6200105081620013f2565b6200105c81846200140a565b92506200106982620013e8565b8060005b83811015620010a05781516200108487826200101a565b96506200109183620013fd565b9250506001810190506200106d565b505050505050565b620010b381620014b5565b82525050565b620010c481620014dd565b82525050565b620010d58162001505565b82525050565b620010e6816200152d565b82525050565b620010f78162001555565b82525050565b62001108816200157d565b82525050565b60006200111d60078362001415565b91507f464143554c5459000000000000000000000000000000000000000000000000006000830152602082019050919050565b60006200115f60128362001415565b91507f43455254494649434154455f52454d4f564500000000000000000000000000006000830152602082019050919050565b6000620011a160138362001415565b91507f524551554553545f4345525449464943415445000000000000000000000000006000830152602082019050919050565b6000620011e3600b8362001415565b91507f494e535449545554494f4e0000000000000000000000000000000000000000006000830152602082019050919050565b6200122181620014ab565b82525050565b6000610140820190506200123f600083018462001045565b92915050565b60006020820190506200125c6000830184620010a8565b92915050565b6000608082019050620012796000830187620010ca565b620012886020830186620010db565b620012976040830185620010ec565b620012a66060830184620010fd565b95945050505050565b60006060820190508181036000830152620012ca8162001150565b90508181036020830152620012df816200110e565b9050620012f0604083018462001034565b92915050565b60006060820190508181036000830152620013118162001150565b905081810360208301526200132681620011d4565b905062001337604083018462001034565b92915050565b60006060820190508181036000830152620013588162001192565b905081810360208301526200136d816200110e565b90506200137e604083018462001034565b92915050565b600060608201905081810360008301526200139f8162001192565b90508181036020830152620013b481620011d4565b9050620013c5604083018462001034565b92915050565b6000602082019050620013e2600083018462001216565b92915050565b6000819050919050565b6000600a9050919050565b6000602082019050919050565b600081905092915050565b600082825260208201905092915050565b600062001433826200148b565b9050919050565b6000620014478262001426565b9050919050565b60006200145b8262001426565b9050919050565b60006200146f8262001426565b9050919050565b6000819050620014868262001593565b919050565b600073ffffffffffffffffffffffffffffffffffffffff82169050919050565b6000819050919050565b6000620014c282620014c9565b9050919050565b6000620014d6826200148b565b9050919050565b6000620014ea82620014f1565b9050919050565b6000620014fe826200148b565b9050919050565b6000620015128262001519565b9050919050565b600062001526826200148b565b9050919050565b60006200153a8262001541565b9050919050565b60006200154e826200148b565b9050919050565b6000620015628262001569565b9050919050565b600062001576826200148b565b9050919050565b60006200158a8262001476565b9050919050565bfe5b60048110620015a757620015a662001591565b5b50565b620015b5816200143a565b8114620015c157600080fd5b50565b620015cf816200144e565b8114620015db57600080fd5b50565b620015e98162001462565b8114620015f557600080fd5b50565b600481106200160657600080fd5b50565b6200161481620014ab565b81146200162057600080fd5b5056fe60806040526000600160156101000a81548160ff021916908360028111156200002457fe5b02179055503480156200003657600080fd5b50604051620012133803806200121383398181016040528101906200005c9190620001a8565b83600260006101000a81548173ffffffffffffffffffffffffffffffffffffffff021916908373ffffffffffffffffffffffffffffffffffffffff160217905550826000806101000a81548173ffffffffffffffffffffffffffffffffffffffff021916908373ffffffffffffffffffffffffffffffffffffffff16021790555081600160006101000a81548173ffffffffffffffffffffffffffffffffffffffff021916908373ffffffffffffffffffffffffffffffffffffffff16021790555080600160146101000a81548160ff021916908360038111156200013d57fe5b021790555050505050620002e3565b6000815190506200015d8162000284565b92915050565b60008151905062000174816200029e565b92915050565b6000815190506200018b81620002b8565b92915050565b600081519050620001a281620002d2565b92915050565b60008060008060808587031215620001bf57600080fd5b6000620001cf878288016200014c565b9450506020620001e28782880162000163565b9350506040620001f5878288016200017a565b9250506060620002088782880162000191565b91505092959194509250565b6000620002218262000264565b9050919050565b6000620002358262000214565b9050919050565b6000620002498262000214565b9050919050565b60006200025d8262000214565b9050919050565b600073ffffffffffffffffffffffffffffffffffffffff82169050919050565b6200028f8162000228565b81146200029b57600080fd5b50565b620002a9816200023c565b8114620002b557600080fd5b50565b620002c38162000250565b8114620002cf57600080fd5b50565b60048110620002e057600080fd5b50565b610f2080620002f36000396000f3fe6080604052600436106100705760003560e01c80634dc415de1161004e5780634dc415de146100d5578063d1384eb6146100df578063f35d71021461010a578063fc66c5d31461013557610070565b80631080d5f81461007557806312424e3f146100a0578063200d2ed2146100aa575b600080fd5b34801561008157600080fd5b5061008a610172565b6040516100979190610c17565b60405180910390f35b6100a8610196565b005b3480156100b657600080fd5b506100bf610577565b6040516100cc9190610c68565b60405180910390f35b6100dd61058a565b005b3480156100eb57600080fd5b506100f4610850565b6040516101019190610c32565b60405180910390f35b34801561011657600080fd5b5061011f610876565b60405161012c9190610c4d565b60405180910390f35b34801561014157600080fd5b5061015c600480360381019061015791906109c1565b610889565b6040516101699190610bb8565b60405180910390f35b60008054906101000a900473ffffffffffffffffffffffffffffffffffffffff1681565b61019f33610889565b156105755760018060156101000a81548160ff021916908360028111156101c257fe5b021790555060008054906101000a900473ffffffffffffffffffffffffffffffffffffffff1673ffffffffffffffffffffffffffffffffffffffff1663781dd72230336040518363ffffffff1660e01b8152600401610222929190610bee565b600060405180830381600087803b15801561023c57600080fd5b505af1158015610250573d6000803e3d6000fd5b50505050600160009054906101000a900473ffffffffffffffffffffffffffffffffffffffff1673ffffffffffffffffffffffffffffffffffffffff1663781dd72230336040518363ffffffff1660e01b81526004016102b1929190610bee565b600060405180830381600087803b1580156102cb57600080fd5b505af11580156102df573d6000803e3d6000fd5b50505050600260009054906101000a900473ffffffffffffffffffffffffffffffffffffffff1673ffffffffffffffffffffffffffffffffffffffff166326e4ca826040518163ffffffff1660e01b815260040160206040518083038186803b15801561034b57600080fd5b505afa15801561035f573d6000803e3d6000fd5b505050506040513d601f19601f820116820180604052508101906103839190610a13565b73ffffffffffffffffffffffffffffffffffffffff1663ff25025b6040518163ffffffff1660e01b815260040160206040518083038186803b1580156103c857600080fd5b505afa1580156103dc573d6000803e3d6000fd5b505050506040513d601f19601f820116820180604052508101906104009190610a3c565b73ffffffffffffffffffffffffffffffffffffffff16634069e45d306040518263ffffffff1660e01b81526004016104389190610bd3565b600060405180830381600087803b15801561045257600080fd5b505af1158015610466573d6000803e3d6000fd5b50505050600260009054906101000a900473ffffffffffffffffffffffffffffffffffffffff1673ffffffffffffffffffffffffffffffffffffffff166326e4ca826040518163ffffffff1660e01b815260040160206040518083038186803b1580156104d257600080fd5b505afa1580156104e6573d6000803e3d6000fd5b505050506040513d601f19601f8201168201806040525081019061050a9190610a13565b73ffffffffffffffffffffffffffffffffffffffff166363441ab2306040518263ffffffff1660e01b81526004016105429190610cc4565b600060405180830381600087803b15801561055c57600080fd5b505af1158015610570573d6000803e3d6000fd5b505050505b565b600160159054906101000a900460ff1681565b61059333610889565b1561084e576002600160156101000a81548160ff021916908360028111156105b757fe5b0217905550600260009054906101000a900473ffffffffffffffffffffffffffffffffffffffff1673ffffffffffffffffffffffffffffffffffffffff166326e4ca826040518163ffffffff1660e01b815260040160206040518083038186803b15801561062457600080fd5b505afa158015610638573d6000803e3d6000fd5b505050506040513d601f19601f8201168201806040525081019061065c9190610a13565b73ffffffffffffffffffffffffffffffffffffffff1663ff25025b6040518163ffffffff1660e01b815260040160206040518083038186803b1580156106a157600080fd5b505afa1580156106b5573d6000803e3d6000fd5b505050506040513d601f19601f820116820180604052508101906106d99190610a3c565b73ffffffffffffffffffffffffffffffffffffffff16634069e45d306040518263ffffffff1660e01b81526004016107119190610bd3565b600060405180830381600087803b15801561072b57600080fd5b505af115801561073f573d6000803e3d6000fd5b50505050600260009054906101000a900473ffffffffffffffffffffffffffffffffffffffff1673ffffffffffffffffffffffffffffffffffffffff166326e4ca826040518163ffffffff1660e01b815260040160206040518083038186803b1580156107ab57600080fd5b505afa1580156107bf573d6000803e3d6000fd5b505050506040513d601f19601f820116820180604052508101906107e39190610a13565b73ffffffffffffffffffffffffffffffffffffffff166363441ab2306040518263ffffffff1660e01b815260040161081b9190610c83565b600060405180830381600087803b15801561083557600080fd5b505af1158015610849573d6000803e3d6000fd5b505050505b565b600160009054906101000a900473ffffffffffffffffffffffffffffffffffffffff1681565b600160149054906101000a900460ff1681565b600080600281111561089757fe5b600160159054906101000a900460ff1660028111156108b257fe5b1480156109665750600160009054906101000a900473ffffffffffffffffffffffffffffffffffffffff1673ffffffffffffffffffffffffffffffffffffffff1663d63a8e11836040518263ffffffff1660e01b81526004016109159190610b9d565b60206040518083038186803b15801561092d57600080fd5b505afa158015610941573d6000803e3d6000fd5b505050506040513d601f19601f8201168201806040525081019061096591906109ea565b5b9050919050565b60008135905061097c81610e8e565b92915050565b60008151905061099181610ea5565b92915050565b6000815190506109a681610ebc565b92915050565b6000815190506109bb81610ed3565b92915050565b6000602082840312156109d357600080fd5b60006109e18482850161096d565b91505092915050565b6000602082840312156109fc57600080fd5b6000610a0a84828501610982565b91505092915050565b600060208284031215610a2557600080fd5b6000610a3384828501610997565b91505092915050565b600060208284031215610a4e57600080fd5b6000610a5c848285016109ac565b91505092915050565b610a6e81610d9e565b82525050565b610a7d81610d16565b82525050565b610a8c81610d28565b82525050565b610a9b81610db0565b82525050565b610aaa81610dd4565b82525050565b610ab981610df8565b82525050565b610ac881610e1c565b82525050565b610ad781610e2e565b82525050565b6000610aea600b83610d05565b91507f43455254494649434154450000000000000000000000000000000000000000006000830152602082019050919050565b6000610b2a601283610d05565b91507f52454a4563545f434552544946494341544500000000000000000000000000006000830152602082019050919050565b6000610b6a601383610d05565b91507f415050524f56455f4345525449464943415445000000000000000000000000006000830152602082019050919050565b6000602082019050610bb26000830184610a74565b92915050565b6000602082019050610bcd6000830184610a83565b92915050565b6000602082019050610be86000830184610a92565b92915050565b6000604082019050610c036000830185610a92565b610c106020830184610a65565b9392505050565b6000602082019050610c2c6000830184610aa1565b92915050565b6000602082019050610c476000830184610ab0565b92915050565b6000602082019050610c626000830184610abf565b92915050565b6000602082019050610c7d6000830184610ace565b92915050565b60006060820190508181036000830152610c9c81610b1d565b90508181036020830152610caf81610add565b9050610cbe6040830184610a74565b92915050565b60006060820190508181036000830152610cdd81610b5d565b90508181036020830152610cf081610add565b9050610cff6040830184610a74565b92915050565b600082825260208201905092915050565b6000610d2182610d7e565b9050919050565b60008115159050919050565b6000610d3f82610d16565b9050919050565b6000610d5182610d16565b9050919050565b6000819050610d6682610e66565b919050565b6000819050610d7982610e7a565b919050565b600073ffffffffffffffffffffffffffffffffffffffff82169050919050565b6000610da982610e40565b9050919050565b6000610dbb82610dc2565b9050919050565b6000610dcd82610d7e565b9050919050565b6000610ddf82610de6565b9050919050565b6000610df182610d7e565b9050919050565b6000610e0382610e0a565b9050919050565b6000610e1582610d7e565b9050919050565b6000610e2782610d58565b9050919050565b6000610e3982610d6b565b9050919050565b6000610e4b82610e52565b9050919050565b6000610e5d82610d7e565b9050919050565bfe5b60048110610e7757610e76610e64565b5b50565b60038110610e8b57610e8a610e64565b5b50565b610e9781610d16565b8114610ea257600080fd5b50565b610eae81610d28565b8114610eb957600080fd5b50565b610ec581610d34565b8114610ed057600080fd5b50565b610edc81610d46565b8114610ee757600080fd5b5056fea2646970667358221220f53adfdb0d8021bdfd3dc6ca46bede6297cc66f3b00062fab809d33a2ec5a3e664736f6c63430007050033a2646970667358221220300846e70fd066b19148d8a3172edd20c035d364fbcc81f6eab89f83d31d842c64736f6c634300070500336080604052600060035534801561001557600080fd5b50604051612bba380380612bba83398181016040528101906100379190610092565b806000806101000a81548173ffffffffffffffffffffffffffffffffffffffff021916908373ffffffffffffffffffffffffffffffffffffffff16021790555050610116565b60008151905061008c816100ff565b92915050565b6000602082840312156100a457600080fd5b60006100b28482850161007d565b91505092915050565b60006100c6826100df565b9050919050565b60006100d8826100bb565b9050919050565b600073ffffffffffffffffffffffffffffffffffffffff82169050919050565b610108816100cd565b811461011357600080fd5b50565b612a95806101256000396000f3fe608060405260043610620000505760003560e01c806326e4ca8214620000555780633269389a146200008557806381a0677714620000b5578063b5fdf25214620000d5578063ee84ab761462000119575b600080fd5b3480156200006257600080fd5b506200006d6200015d565b6040516200007c9190620007f2565b60405180910390f35b3480156200009257600080fd5b506200009d62000181565b604051620000ac9190620008c7565b60405180910390f35b620000d36004803603810190620000cd9190620005aa565b6200018b565b005b348015620000e257600080fd5b50620001016004803603810190620000fb91906200057e565b620003dd565b60405162000110919062000863565b60405180910390f35b3480156200012657600080fd5b506200014560048036038101906200013f9190620005ef565b62000410565b604051620001549190620007d4565b60405180910390f35b60008054906101000a900473ffffffffffffffffffffffffffffffffffffffff1681565b6000600354905090565b600073ffffffffffffffffffffffffffffffffffffffff16600160003373ffffffffffffffffffffffffffffffffffffffff1673ffffffffffffffffffffffffffffffffffffffff16815260200190815260200160002060009054906101000a900473ffffffffffffffffffffffffffffffffffffffff1673ffffffffffffffffffffffffffffffffffffffff161415620003da576000600360008154809291906001019190505590506000308284336040516200024990620004c3565b6200025894939291906200080f565b604051809103906000f08015801562000275573d6000803e3d6000fd5b509050806002600084815260200190815260200160002060006101000a81548173ffffffffffffffffffffffffffffffffffffffff021916908373ffffffffffffffffffffffffffffffffffffffff16021790555080600160003373ffffffffffffffffffffffffffffffffffffffff1673ffffffffffffffffffffffffffffffffffffffff16815260200190815260200160002060006101000a81548173ffffffffffffffffffffffffffffffffffffffff021916908373ffffffffffffffffffffffffffffffffffffffff16021790555060008054906101000a900473ffffffffffffffffffffffffffffffffffffffff1673ffffffffffffffffffffffffffffffffffffffff166363441ab2826040518263ffffffff1660e01b8152600401620003a3919062000880565b600060405180830381600087803b158015620003be57600080fd5b505af1158015620003d3573d6000803e3d6000fd5b5050505050505b50565b60016020528060005260406000206000915054906101000a900473ffffffffffffffffffffffffffffffffffffffff1681565b6200041a620004d1565b62000424620004d1565b60005b600a811015620004b95760026000858301815260200190815260200160002060009054906101000a900473ffffffffffffffffffffffffffffffffffffffff168282600a81106200047457fe5b602002019073ffffffffffffffffffffffffffffffffffffffff16908173ffffffffffffffffffffffffffffffffffffffff1681525050808060010191505062000427565b5080915050919050565b611f4d8062000b1383390190565b604051806101400160405280600a90602082028036833780820191505090505090565b600081359050620005058162000ade565b92915050565b600082601f8301126200051d57600080fd5b8135620005346200052e8262000918565b620008e4565b915080825260208301602083018583830111156200055157600080fd5b6200055e83828462000a86565b50505092915050565b600081359050620005788162000af8565b92915050565b6000602082840312156200059157600080fd5b6000620005a184828501620004f4565b91505092915050565b600060208284031215620005bd57600080fd5b600082013567ffffffffffffffff811115620005d857600080fd5b620005e6848285016200050b565b91505092915050565b6000602082840312156200060257600080fd5b6000620006128482850162000567565b91505092915050565b6000620006298383620006dc565b60208301905092915050565b6200064081620009d2565b82525050565b620006518162000994565b82525050565b620006628162000955565b6200066e818462000978565b92506200067b826200094b565b8060005b83811015620006b25781516200069687826200061b565b9650620006a3836200096b565b9250506001810190506200067f565b505050505050565b620006c581620009e6565b82525050565b620006d68162000a0e565b82525050565b620006e78162000a36565b82525050565b620006f88162000a36565b82525050565b60006200070b8262000960565b62000717818562000983565b93506200072981856020860162000a95565b620007348162000acd565b840191505092915050565b60006200074e600e8362000983565b91507f4352454154455f464143554c54590000000000000000000000000000000000006000830152602082019050919050565b60006200079060078362000983565b91507f464143554c5459000000000000000000000000000000000000000000000000006000830152602082019050919050565b620007ce81620009c8565b82525050565b600061014082019050620007ec600083018462000657565b92915050565b6000602082019050620008096000830184620006ba565b92915050565b6000608082019050620008266000830187620006cb565b620008356020830186620007c3565b8181036040830152620008498185620006fe565b90506200085a606083018462000635565b95945050505050565b60006020820190506200087a6000830184620006ed565b92915050565b600060608201905081810360008301526200089b816200073f565b90508181036020830152620008b08162000781565b9050620008c1604083018462000646565b92915050565b6000602082019050620008de6000830184620007c3565b92915050565b6000604051905081810181811067ffffffffffffffff821117156200090e576200090d62000acb565b5b8060405250919050565b600067ffffffffffffffff82111562000936576200093562000acb565b5b601f19601f8301169050602081019050919050565b6000819050919050565b6000600a9050919050565b600081519050919050565b6000602082019050919050565b600081905092915050565b600082825260208201905092915050565b6000620009a182620009a8565b9050919050565b600073ffffffffffffffffffffffffffffffffffffffff82169050919050565b6000819050919050565b6000620009df8262000a5e565b9050919050565b6000620009f382620009fa565b9050919050565b600062000a0782620009a8565b9050919050565b600062000a1b8262000a22565b9050919050565b600062000a2f82620009a8565b9050919050565b600062000a438262000a4a565b9050919050565b600062000a5782620009a8565b9050919050565b600062000a6b8262000a72565b9050919050565b600062000a7f82620009a8565b9050919050565b82818337600083830152505050565b60005b8381101562000ab557808201518184015260208101905062000a98565b8381111562000ac5576000848401525b50505050565bfe5b6000601f19601f8301169050919050565b62000ae98162000994565b811462000af557600080fd5b50565b62000b0381620009c8565b811462000b0f57600080fd5b5056fe60806040523480156200001157600080fd5b5060405162001f4d38038062001f4d83398181016040528101906200003791906200023a565b83600560006101000a81548173ffffffffffffffffffffffffffffffffffffffff021916908373ffffffffffffffffffffffffffffffffffffffff160217905550816001908051906020019062000090929190620000e3565b508260008190555080600260006101000a81548173ffffffffffffffffffffffffffffffffffffffff021916908373ffffffffffffffffffffffffffffffffffffffff16021790555050505050620003fe565b828054600181600116156101000203166002900490600052602060002090601f0160209004810192826200011b576000855562000167565b82601f106200013657805160ff191683800117855562000167565b8280016001018555821562000167579182015b828111156200016657825182559160200191906001019062000149565b5b5090506200017691906200017a565b5090565b5b80821115620001955760008160009055506001016200017b565b5090565b600081519050620001aa81620003b0565b92915050565b600081519050620001c181620003ca565b92915050565b600082601f830112620001d957600080fd5b8151620001f0620001ea82620002f3565b620002bf565b915080825260208301602083018583830111156200020d57600080fd5b6200021a83828462000378565b50505092915050565b6000815190506200023481620003e4565b92915050565b600080600080608085870312156200025157600080fd5b60006200026187828801620001b0565b9450506020620002748782880162000223565b935050604085015167ffffffffffffffff8111156200029257600080fd5b620002a087828801620001c7565b9250506060620002b38782880162000199565b91505092959194509250565b6000604051905081810181811067ffffffffffffffff82111715620002e957620002e8620003ae565b5b8060405250919050565b600067ffffffffffffffff821115620003115762000310620003ae565b5b601f19601f8301169050602081019050919050565b600062000333826200034e565b9050919050565b6000620003478262000326565b9050919050565b600073ffffffffffffffffffffffffffffffffffffffff82169050919050565b6000819050919050565b60005b83811015620003985780820151818401526020810190506200037b565b83811115620003a8576000848401525b50505050565bfe5b620003bb8162000326565b8114620003c757600080fd5b50565b620003d5816200033a565b8114620003e157600080fd5b50565b620003ef816200036e565b8114620003fb57600080fd5b50565b611b3f806200040e6000396000f3fe6080604052600436106100a75760003560e01c80638da5cb5b116100645780638da5cb5b146101a2578063ac51fddb146101cd578063ad41b39b1461020a578063d63a8e1114610235578063d90c137e14610272578063e08b2ab61461028e576100a7565b806306fdde03146100ac5780633d7403a3146100d75780634e8ef753146100f35780635822cb311461011e578063663b3e2214610149578063781dd72214610186575b600080fd5b3480156100b857600080fd5b506100c16102cb565b6040516100ce919061170e565b60405180910390f35b6100f160048036038101906100ec919061139e565b610369565b005b3480156100ff57600080fd5b5061010861049c565b60405161011591906116f3565b60405180910390f35b34801561012a57600080fd5b506101336104c2565b60405161014091906117f3565b60405180910390f35b34801561015557600080fd5b50610170600480360381019061016b91906113df565b61066e565b60405161017d9190611694565b60405180910390f35b6101a0600480360381019061019b9190611295565b6106ad565b005b3480156101ae57600080fd5b506101b7610a7d565b6040516101c49190611642565b60405180910390f35b3480156101d957600080fd5b506101f460048036038101906101ef91906113df565b610aa3565b604051610201919061165d565b60405180910390f35b34801561021657600080fd5b5061021f610b65565b60405161022c91906117f3565b60405180910390f35b34801561024157600080fd5b5061025c600480360381019061025791906111f0565b610b72565b6040516102699190611679565b60405180910390f35b61028c60048036038101906102879190611323565b610bcc565b005b34801561029a57600080fd5b506102b560048036038101906102b091906113df565b610da7565b6040516102c2919061165d565b60405180910390f35b60018054600181600116156101000203166002900480601f0160208091040260200160405190810160405280929190818152602001828054600181600116156101000203166002900480156103615780601f1061033657610100808354040283529160200191610361565b820191906000526020600020905b81548152906001019060200180831161034457829003601f168201915b505050505081565b61037233610b72565b1561049957806001908051906020019061038d929190610f5e565b50600560009054906101000a900473ffffffffffffffffffffffffffffffffffffffff1673ffffffffffffffffffffffffffffffffffffffff166326e4ca826040518163ffffffff1660e01b815260040160206040518083038186803b1580156103f657600080fd5b505afa15801561040a573d6000803e3d6000fd5b505050506040513d601f19601f8201168201806040525081019061042e919061126c565b73ffffffffffffffffffffffffffffffffffffffff166363441ab2306040518263ffffffff1660e01b81526004016104669190611730565b600060405180830381600087803b15801561048057600080fd5b505af1158015610494573d6000803e3d6000fd5b505050505b50565b600460009054906101000a900473ffffffffffffffffffffffffffffffffffffffff1681565b6000600560009054906101000a900473ffffffffffffffffffffffffffffffffffffffff1673ffffffffffffffffffffffffffffffffffffffff166326e4ca826040518163ffffffff1660e01b815260040160206040518083038186803b15801561052c57600080fd5b505afa158015610540573d6000803e3d6000fd5b505050506040513d601f19601f82011682018060405250810190610564919061126c565b73ffffffffffffffffffffffffffffffffffffffff1663ff25025b6040518163ffffffff1660e01b815260040160206040518083038186803b1580156105a957600080fd5b505afa1580156105bd573d6000803e3d6000fd5b505050506040513d601f19601f820116820180604052508101906105e191906112d1565b73ffffffffffffffffffffffffffffffffffffffff1663af4cb78b306040518263ffffffff1660e01b815260040161061991906116af565b60206040518083038186803b15801561063157600080fd5b505afa158015610645573d6000803e3d6000fd5b505050506040513d601f19601f820116820180604052508101906106699190611408565b905090565b6003818154811061067e57600080fd5b906000526020600020016000915054906101000a900473ffffffffffffffffffffffffffffffffffffffff1681565b8173ffffffffffffffffffffffffffffffffffffffff1663d1384eb66040518163ffffffff1660e01b815260040160206040518083038186803b1580156106f357600080fd5b505afa158015610707573d6000803e3d6000fd5b505050506040513d601f19601f8201168201806040525081019061072b919061134c565b73ffffffffffffffffffffffffffffffffffffffff1663d63a8e11826040518263ffffffff1660e01b81526004016107639190611642565b60206040518083038186803b15801561077b57600080fd5b505afa15801561078f573d6000803e3d6000fd5b505050506040513d601f19601f820116820180604052508101906107b39190611243565b80156108525750600160028111156107c757fe5b8273ffffffffffffffffffffffffffffffffffffffff1663200d2ed26040518163ffffffff1660e01b815260040160206040518083038186803b15801561080d57600080fd5b505afa158015610821573d6000803e3d6000fd5b505050506040513d601f19601f820116820180604052508101906108459190611375565b600281111561085057fe5b145b801561090657503073ffffffffffffffffffffffffffffffffffffffff168273ffffffffffffffffffffffffffffffffffffffff16631080d5f86040518163ffffffff1660e01b815260040160206040518083038186803b1580156108b657600080fd5b505afa1580156108ca573d6000803e3d6000fd5b505050506040513d601f19601f820116820180604052508101906108ee91906112fa565b73ffffffffffffffffffffffffffffffffffffffff16145b15610a79576003829080600181540180825580915050600190039060005260206000200160009091909190916101000a81548173ffffffffffffffffffffffffffffffffffffffff021916908373ffffffffffffffffffffffffffffffffffffffff160217905550600560009054906101000a900473ffffffffffffffffffffffffffffffffffffffff1673ffffffffffffffffffffffffffffffffffffffff166326e4ca826040518163ffffffff1660e01b815260040160206040518083038186803b1580156109d657600080fd5b505afa1580156109ea573d6000803e3d6000fd5b505050506040513d601f19601f82011682018060405250810190610a0e919061126c565b73ffffffffffffffffffffffffffffffffffffffff166363441ab2306040518263ffffffff1660e01b8152600401610a469190611771565b600060405180830381600087803b158015610a6057600080fd5b505af1158015610a74573d6000803e3d6000fd5b505050505b5050565b600260009054906101000a900473ffffffffffffffffffffffffffffffffffffffff1681565b610aab610fec565b610ab3610fec565b60005b600a81108015610acc5750600380549050848201105b15610b5b57600384820181548110610ae057fe5b9060005260206000200160009054906101000a900473ffffffffffffffffffffffffffffffffffffffff168282600a8110610b1757fe5b602002019073ffffffffffffffffffffffffffffffffffffffff16908173ffffffffffffffffffffffffffffffffffffffff16815250508080600101915050610ab6565b5080915050919050565b6000600380549050905090565b6000600260009054906101000a900473ffffffffffffffffffffffffffffffffffffffff1673ffffffffffffffffffffffffffffffffffffffff168273ffffffffffffffffffffffffffffffffffffffff16149050919050565b3373ffffffffffffffffffffffffffffffffffffffff168173ffffffffffffffffffffffffffffffffffffffff161480610c5357503373ffffffffffffffffffffffffffffffffffffffff16600460009054906101000a900473ffffffffffffffffffffffffffffffffffffffff1673ffffffffffffffffffffffffffffffffffffffff16145b15610da45780600460006101000a81548173ffffffffffffffffffffffffffffffffffffffff021916908373ffffffffffffffffffffffffffffffffffffffff160217905550600560009054906101000a900473ffffffffffffffffffffffffffffffffffffffff1673ffffffffffffffffffffffffffffffffffffffff166326e4ca826040518163ffffffff1660e01b815260040160206040518083038186803b158015610d0157600080fd5b505afa158015610d15573d6000803e3d6000fd5b505050506040513d601f19601f82011682018060405250810190610d39919061126c565b73ffffffffffffffffffffffffffffffffffffffff166363441ab2306040518263ffffffff1660e01b8152600401610d7191906117b2565b600060405180830381600087803b158015610d8b57600080fd5b505af1158015610d9f573d6000803e3d6000fd5b505050505b50565b610daf610fec565b600560009054906101000a900473ffffffffffffffffffffffffffffffffffffffff1673ffffffffffffffffffffffffffffffffffffffff166326e4ca826040518163ffffffff1660e01b815260040160206040518083038186803b158015610e1757600080fd5b505afa158015610e2b573d6000803e3d6000fd5b505050506040513d601f19601f82011682018060405250810190610e4f919061126c565b73ffffffffffffffffffffffffffffffffffffffff1663ff25025b6040518163ffffffff1660e01b815260040160206040518083038186803b158015610e9457600080fd5b505afa158015610ea8573d6000803e3d6000fd5b505050506040513d601f19601f82011682018060405250810190610ecc91906112d1565b73ffffffffffffffffffffffffffffffffffffffff1663b0fb271430846040518363ffffffff1660e01b8152600401610f069291906116ca565b6101406040518083038186803b158015610f1f57600080fd5b505afa158015610f33573d6000803e3d6000fd5b505050506040513d601f19601f82011682018060405250810190610f579190611219565b9050919050565b828054600181600116156101000203166002900490600052602060002090601f016020900481019282610f945760008555610fdb565b82601f10610fad57805160ff1916838001178555610fdb565b82800160010185558215610fdb579182015b82811115610fda578251825591602001919060010190610fbf565b5b509050610fe8919061100f565b5090565b604051806101400160405280600a90602082028036833780820191505090505090565b5b80821115611028576000816000905550600101611010565b5090565b60008135905061103b81611a41565b92915050565b600082601f83011261105257600080fd5b600a6110656110608261183f565b61180e565b9150818385602084028201111561107b57600080fd5b60005b838110156110ab578161109188826110f4565b84526020840193506020830192505060018101905061107e565b5050505092915050565b6000815190506110c481611a58565b92915050565b6000815190506110d981611a6f565b92915050565b6000813590506110ee81611a86565b92915050565b60008151905061110381611a86565b92915050565b60008151905061111881611a9d565b92915050565b60008151905061112d81611ab4565b92915050565b60008135905061114281611acb565b92915050565b60008151905061115781611acb565b92915050565b60008151905061116c81611ae2565b92915050565b600082601f83011261118357600080fd5b813561119661119182611865565b61180e565b915080825260208301602083018583830111156111b257600080fd5b6111bd8382846119ec565b50505092915050565b6000813590506111d581611af2565b92915050565b6000815190506111ea81611af2565b92915050565b60006020828403121561120257600080fd5b60006112108482850161102c565b91505092915050565b6000610140828403121561122c57600080fd5b600061123a84828501611041565b91505092915050565b60006020828403121561125557600080fd5b6000611263848285016110b5565b91505092915050565b60006020828403121561127e57600080fd5b600061128c848285016110ca565b91505092915050565b600080604083850312156112a857600080fd5b60006112b6858286016110df565b92505060206112c78582860161102c565b9150509250929050565b6000602082840312156112e357600080fd5b60006112f184828501611109565b91505092915050565b60006020828403121561130c57600080fd5b600061131a8482850161111e565b91505092915050565b60006020828403121561133557600080fd5b600061134384828501611133565b91505092915050565b60006020828403121561135e57600080fd5b600061136c84828501611148565b91505092915050565b60006020828403121561138757600080fd5b60006113958482850161115d565b91505092915050565b6000602082840312156113b057600080fd5b600082013567ffffffffffffffff8111156113ca57600080fd5b6113d684828501611172565b91505092915050565b6000602082840312156113f157600080fd5b60006113ff848285016111c6565b91505092915050565b60006020828403121561141a57600080fd5b6000611428848285016111db565b91505092915050565b600061143d83836114be565b60208301905092915050565b611452816118de565b82525050565b6114618161189f565b61146b81846118c2565b925061147682611895565b8060005b838110156114a757815161148e8782611431565b9650611499836118b5565b92505060018101905061147a565b505050505050565b6114b8816118f0565b82525050565b6114c781611980565b82525050565b6114d681611980565b82525050565b6114e5816119a4565b82525050565b6114f4816119c8565b82525050565b6000611505826118aa565b61150f81856118cd565b935061151f8185602086016119fb565b61152881611a30565b840191505092915050565b6000611540600e836118cd565b91507f5550444154455f464143554c54590000000000000000000000000000000000006000830152602082019050919050565b6000611580600f836118cd565b91507f4144445f434552544946494341544500000000000000000000000000000000006000830152602082019050919050565b60006115c06011836118cd565b91507f41535349474e5f494e5354495455494f4e0000000000000000000000000000006000830152602082019050919050565b60006116006007836118cd565b91507f464143554c5459000000000000000000000000000000000000000000000000006000830152602082019050919050565b61163c81611976565b82525050565b60006020820190506116576000830184611449565b92915050565b6000610140820190506116736000830184611458565b92915050565b600060208201905061168e60008301846114af565b92915050565b60006020820190506116a960008301846114cd565b92915050565b60006020820190506116c460008301846114dc565b92915050565b60006040820190506116df60008301856114dc565b6116ec6020830184611633565b9392505050565b600060208201905061170860008301846114eb565b92915050565b6000602082019050818103600083015261172881846114fa565b905092915050565b6000606082019050818103600083015261174981611533565b9050818103602083015261175c816115f3565b905061176b6040830184611449565b92915050565b6000606082019050818103600083015261178a81611573565b9050818103602083015261179d816115f3565b90506117ac6040830184611449565b92915050565b600060608201905081810360008301526117cb816115b3565b905081810360208301526117de816115f3565b90506117ed6040830184611449565b92915050565b60006020820190506118086000830184611633565b92915050565b6000604051905081810181811067ffffffffffffffff8211171561183557611834611a2e565b5b8060405250919050565b600067ffffffffffffffff82111561185a57611859611a2e565b5b602082029050919050565b600067ffffffffffffffff8211156118805761187f611a2e565b5b601f19601f8301169050602081019050919050565b6000819050919050565b6000600a9050919050565b600081519050919050565b6000602082019050919050565b600081905092915050565b600082825260208201905092915050565b60006118e982611956565b9050919050565b60008115159050919050565b6000611907826118de565b9050919050565b6000611919826118de565b9050919050565b600061192b826118de565b9050919050565b600061193d826118de565b9050919050565b600061194f826118de565b9050919050565b600073ffffffffffffffffffffffffffffffffffffffff82169050919050565b6000819050919050565b600061198b82611992565b9050919050565b600061199d82611956565b9050919050565b60006119af826119b6565b9050919050565b60006119c182611956565b9050919050565b60006119d3826119da565b9050919050565b60006119e582611956565b9050919050565b82818337600083830152505050565b60005b83811015611a195780820151818401526020810190506119fe565b83811115611a28576000848401525b50505050565bfe5b6000601f19601f8301169050919050565b611a4a816118de565b8114611a5557600080fd5b50565b611a61816118f0565b8114611a6c57600080fd5b50565b611a78816118fc565b8114611a8357600080fd5b50565b611a8f8161190e565b8114611a9a57600080fd5b50565b611aa681611920565b8114611ab157600080fd5b50565b611abd81611932565b8114611ac857600080fd5b50565b611ad481611944565b8114611adf57600080fd5b50565b60038110611aef57600080fd5b50565b611afb81611976565b8114611b0657600080fd5b5056fea2646970667358221220bfc631995779d428ff7f1097ae0b28781d3ad91d83c464faa8aae83bdf2319f864736f6c63430007050033a26469706673582212204078cd7e007e021e5c7e080d93cc3fd668da995c5770b74ce9c628f352fbe73364736f6c634300070500336080604052600060025534801561001557600080fd5b506040516144d53803806144d583398181016040528101906100379190610092565b806000806101000a81548173ffffffffffffffffffffffffffffffffffffffff021916908373ffffffffffffffffffffffffffffffffffffffff16021790555050610116565b60008151905061008c816100ff565b92915050565b6000602082840312156100a457600080fd5b60006100b28482850161007d565b91505092915050565b60006100c6826100df565b9050919050565b60006100d8826100bb565b9050919050565b600073ffffffffffffffffffffffffffffffffffffffff82169050919050565b610108816100cd565b811461011357600080fd5b50565b6143b0806101256000396000f3fe608060405260043610620000505760003560e01c8063029bf701146200005557806326e4ca82146200007557806377104d9214620000a557806386906afa14620000e9578063c3b59d001462000119575b600080fd5b6200007360048036038101906200006d919062000453565b6200015d565b005b3480156200008257600080fd5b506200008d6200029b565b6040516200009c91906200069b565b60405180910390f35b348015620000b257600080fd5b50620000d16004803603810190620000cb919062000498565b620002bf565b604051620000e091906200067d565b60405180910390f35b348015620000f657600080fd5b506200010162000372565b60405162000110919062000770565b60405180910390f35b3480156200012657600080fd5b506200014560048036038101906200013f919062000498565b6200037c565b6040516200015491906200070c565b60405180910390f35b6000600260008154809291906001019190505590506000308284336040516200018690620003af565b620001959493929190620006b8565b604051809103906000f080158015620001b2573d6000803e3d6000fd5b509050806001600084815260200190815260200160002060006101000a81548173ffffffffffffffffffffffffffffffffffffffff021916908373ffffffffffffffffffffffffffffffffffffffff16021790555060008054906101000a900473ffffffffffffffffffffffffffffffffffffffff1673ffffffffffffffffffffffffffffffffffffffff166363441ab2826040518263ffffffff1660e01b815260040162000262919062000729565b600060405180830381600087803b1580156200027d57600080fd5b505af115801562000292573d6000803e3d6000fd5b50505050505050565b60008054906101000a900473ffffffffffffffffffffffffffffffffffffffff1681565b620002c9620003bd565b620002d3620003bd565b60005b600a811015620003685760016000858301815260200190815260200160002060009054906101000a900473ffffffffffffffffffffffffffffffffffffffff168282600a81106200032357fe5b602002019073ffffffffffffffffffffffffffffffffffffffff16908173ffffffffffffffffffffffffffffffffffffffff16815250508080600101915050620002d6565b5080915050919050565b6000600254905090565b60016020528060005260406000206000915054906101000a900473ffffffffffffffffffffffffffffffffffffffff1681565b6139d980620009a283390190565b604051806101400160405280600a90602082028036833780820191505090505090565b600082601f830112620003f257600080fd5b8135620004096200040382620007c1565b6200078d565b915080825260208301602083018583830111156200042657600080fd5b620004338382846200092f565b50505092915050565b6000813590506200044d8162000987565b92915050565b6000602082840312156200046657600080fd5b600082013567ffffffffffffffff8111156200048157600080fd5b6200048f84828501620003e0565b91505092915050565b600060208284031215620004ab57600080fd5b6000620004bb848285016200043c565b91505092915050565b6000620004d2838362000585565b60208301905092915050565b620004e9816200087b565b82525050565b620004fa816200083d565b82525050565b6200050b81620007fe565b62000517818462000821565b92506200052482620007f4565b8060005b838110156200055b5781516200053f8782620004c4565b96506200054c8362000814565b92505060018101905062000528565b505050505050565b6200056e816200088f565b82525050565b6200057f81620008b7565b82525050565b6200059081620008df565b82525050565b620005a181620008df565b82525050565b6000620005b48262000809565b620005c081856200082c565b9350620005d28185602086016200093e565b620005dd8162000976565b840191505092915050565b6000620005f76012836200082c565b91507f4352454154455f494e535449545554494f4e00000000000000000000000000006000830152602082019050919050565b600062000639600b836200082c565b91507f494e535449545554494f4e0000000000000000000000000000000000000000006000830152602082019050919050565b620006778162000871565b82525050565b60006101408201905062000695600083018462000500565b92915050565b6000602082019050620006b2600083018462000563565b92915050565b6000608082019050620006cf600083018762000574565b620006de60208301866200066c565b8181036040830152620006f28185620005a7565b9050620007036060830184620004de565b95945050505050565b600060208201905062000723600083018462000596565b92915050565b600060608201905081810360008301526200074481620005e8565b9050818103602083015262000759816200062a565b90506200076a6040830184620004ef565b92915050565b60006020820190506200078760008301846200066c565b92915050565b6000604051905081810181811067ffffffffffffffff82111715620007b757620007b662000974565b5b8060405250919050565b600067ffffffffffffffff821115620007df57620007de62000974565b5b601f19601f8301169050602081019050919050565b6000819050919050565b6000600a9050919050565b600081519050919050565b6000602082019050919050565b600081905092915050565b600082825260208201905092915050565b60006200084a8262000851565b9050919050565b600073ffffffffffffffffffffffffffffffffffffffff82169050919050565b6000819050919050565b6000620008888262000907565b9050919050565b60006200089c82620008a3565b9050919050565b6000620008b08262000851565b9050919050565b6000620008c482620008cb565b9050919050565b6000620008d88262000851565b9050919050565b6000620008ec82620008f3565b9050919050565b6000620009008262000851565b9050919050565b600062000914826200091b565b9050919050565b6000620009288262000851565b9050919050565b82818337600083830152505050565b60005b838110156200095e57808201518184015260208101905062000941565b838111156200096e576000848401525b50505050565bfe5b6000601f19601f8301169050919050565b620009928162000871565b81146200099e57600080fd5b5056fe608060405260016008553480156200001657600080fd5b50604051620039d9380380620039d983398181016040528101906200003c9190620002fa565b83600460006101000a81548173ffffffffffffffffffffffffffffffffffffffff021916908373ffffffffffffffffffffffffffffffffffffffff1602179055508260008190555081600190805190602001906200009c929190620001a3565b5080600260006101000a81548173ffffffffffffffffffffffffffffffffffffffff021916908373ffffffffffffffffffffffffffffffffffffffff1602179055506005819080600181540180825580915050600190039060005260206000200160009091909190916101000a81548173ffffffffffffffffffffffffffffffffffffffff021916908373ffffffffffffffffffffffffffffffffffffffff1602179055506001600660008373ffffffffffffffffffffffffffffffffffffffff1673ffffffffffffffffffffffffffffffffffffffff16815260200190815260200160002060006101000a81548160ff02191690831515021790555050505050620004be565b828054600181600116156101000203166002900490600052602060002090601f016020900481019282620001db576000855562000227565b82601f10620001f657805160ff191683800117855562000227565b8280016001018555821562000227579182015b828111156200022657825182559160200191906001019062000209565b5b5090506200023691906200023a565b5090565b5b80821115620002555760008160009055506001016200023b565b5090565b6000815190506200026a8162000470565b92915050565b60008151905062000281816200048a565b92915050565b600082601f8301126200029957600080fd5b8151620002b0620002aa82620003b3565b6200037f565b91508082526020830160208301858383011115620002cd57600080fd5b620002da83828462000438565b50505092915050565b600081519050620002f481620004a4565b92915050565b600080600080608085870312156200031157600080fd5b6000620003218782880162000270565b94505060206200033487828801620002e3565b935050604085015167ffffffffffffffff8111156200035257600080fd5b620003608782880162000287565b9250506060620003738782880162000259565b91505092959194509250565b6000604051905081810181811067ffffffffffffffff82111715620003a957620003a86200046e565b5b8060405250919050565b600067ffffffffffffffff821115620003d157620003d06200046e565b5b601f19601f8301169050602081019050919050565b6000620003f3826200040e565b9050919050565b60006200040782620003e6565b9050919050565b600073ffffffffffffffffffffffffffffffffffffffff82169050919050565b6000819050919050565b60005b83811015620004585780820151818401526020810190506200043b565b8381111562000468576000848401525b50505050565bfe5b6200047b81620003e6565b81146200048757600080fd5b50565b6200049581620003fa565b8114620004a157600080fd5b50565b620004af816200042e565b8114620004bb57600080fd5b50565b61350b80620004ce6000396000f3fe6080604052600436106101665760003560e01c80636bd5b694116100d1578063af640d0f1161008a578063d63a8e1111610064578063d63a8e11146104f5578063e08b2ab614610532578063eafb96bd1461056f578063ee84ab761461058b57610166565b8063af640d0f14610471578063c16ebe5a1461049c578063d2e3f3b7146104b857610166565b80636bd5b6941461038a57806370927f78146103c7578063781dd722146103f25780638da5cb5b1461040e57806393a8653214610439578063a013fe301461045557610166565b80633c98ccee116101235780633c98ccee146102945780633d7403a3146102bf5780634225674d146102db57806344e538ae146103185780635822cb3114610343578063636558a51461036e57610166565b8063068d81741461016b57806306fdde03146101a857806308e0018b146101d3578063262e025b146102105780633269389a1461024d578063396ff3ed14610278575b600080fd5b34801561017757600080fd5b50610192600480360381019061018d91906127de565b6105c8565b60405161019f9190612e42565b60405180910390f35b3480156101b457600080fd5b506101bd610607565b6040516101ca9190612f32565b60405180910390f35b3480156101df57600080fd5b506101fa60048036038101906101f5919061262e565b6106a5565b6040516102079190612ed3565b60405180910390f35b34801561021c57600080fd5b50610237600480360381019061023291906127de565b610765565b604051610244919061311b565b60405180910390f35b34801561025957600080fd5b50610262610859565b60405161026f919061313d565b60405180910390f35b610292600480360381019061028d9190612722565b610866565b005b3480156102a057600080fd5b506102a9610bb3565b6040516102b6919061313d565b60405180910390f35b6102d960048036038101906102d4919061279d565b610bc0565b005b3480156102e757600080fd5b5061030260048036038101906102fd9190612830565b610be9565b60405161030f9190612eb1565b60405180910390f35b34801561032457600080fd5b5061032d610d79565b60405161033a919061313d565b60405180910390f35b34801561034f57600080fd5b50610358610d86565b604051610365919061313d565b60405180910390f35b6103886004803603810190610383919061279d565b610f32565b005b34801561039657600080fd5b506103b160048036038101906103ac91906127de565b6110bb565b6040516103be9190612e79565b60405180910390f35b3480156103d357600080fd5b506103dc611186565b6040516103e9919061313d565b60405180910390f35b61040c600480360381019061040791906126bd565b611193565b005b34801561041a57600080fd5b50610423611466565b6040516104309190612e42565b60405180910390f35b610453600480360381019061044e9190612722565b61148c565b005b61046f600480360381019061046a9190612605565b611885565b005b34801561047d57600080fd5b50610486611ab2565b604051610493919061313d565b60405180910390f35b6104b660048036038101906104b1919061286c565b611ab8565b005b3480156104c457600080fd5b506104df60048036038101906104da91906127de565b611c23565b6040516104ec9190612e5d565b60405180910390f35b34801561050157600080fd5b5061051c60048036038101906105179190612605565b611ce5565b6040516105299190612ed3565b60405180910390f35b34801561053e57600080fd5b50610559600480360381019061055491906127de565b611cf9565b6040516105669190612e79565b60405180910390f35b61058960048036038101906105849190612605565b611eb0565b005b34801561059757600080fd5b506105b260048036038101906105ad91906127de565b61218a565b6040516105bf9190612e95565b60405180910390f35b600581815481106105d857600080fd5b906000526020600020016000915054906101000a900473ffffffffffffffffffffffffffffffffffffffff1681565b60018054600181600116156101000203166002900480601f01602080910402602001604051908101604052809291908181526020018280546001816001161561010002031660029004801561069d5780601f106106725761010080835404028352916020019161069d565b820191906000526020600020905b81548152906001019060200180831161068057829003601f168201915b505050505081565b60006106b083611ce5565b1561075a578173ffffffffffffffffffffffffffffffffffffffff168373ffffffffffffffffffffffffffffffffffffffff1614156106f2576000905061075f565b600260009054906101000a900473ffffffffffffffffffffffffffffffffffffffff1673ffffffffffffffffffffffffffffffffffffffff168273ffffffffffffffffffffffffffffffffffffffff161415610751576000905061075f565b6001905061075f565b600090505b92915050565b61076d6122f1565b6007600083815260200190815260200160002060405180606001604052908160008201548152602001600182018054600181600116156101000203166002900480601f01602080910402602001604051908101604052809291908181526020018280546001816001161561010002031660029004801561082e5780601f106108035761010080835404028352916020019161082e565b820191906000526020600020905b81548152906001019060200180831161081157829003601f168201915b505050505081526020016002820160009054906101000a900460ff1615151515815250509050919050565b6000600980549050905090565b61086f33611ce5565b80156109245750600073ffffffffffffffffffffffffffffffffffffffff168173ffffffffffffffffffffffffffffffffffffffff16634e8ef7536040518163ffffffff1660e01b815260040160206040518083038186803b1580156108d457600080fd5b505afa1580156108e8573d6000803e3d6000fd5b505050506040513d601f19601f8201168201806040525081019061090c919061274b565b73ffffffffffffffffffffffffffffffffffffffff16145b801561097a5750600a60008273ffffffffffffffffffffffffffffffffffffffff1673ffffffffffffffffffffffffffffffffffffffff16815260200190815260200160002060009054906101000a900460ff16155b15610bb0576009819080600181540180825580915050600190039060005260206000200160009091909190916101000a81548173ffffffffffffffffffffffffffffffffffffffff021916908373ffffffffffffffffffffffffffffffffffffffff1602179055506001600a60008373ffffffffffffffffffffffffffffffffffffffff1673ffffffffffffffffffffffffffffffffffffffff16815260200190815260200160002060006101000a81548160ff0219169083151502179055508073ffffffffffffffffffffffffffffffffffffffff1663d90c137e306040518263ffffffff1660e01b8152600401610a739190612eee565b600060405180830381600087803b158015610a8d57600080fd5b505af1158015610aa1573d6000803e3d6000fd5b50505050600460009054906101000a900473ffffffffffffffffffffffffffffffffffffffff1673ffffffffffffffffffffffffffffffffffffffff166326e4ca826040518163ffffffff1660e01b815260040160206040518083038186803b158015610b0d57600080fd5b505afa158015610b21573d6000803e3d6000fd5b505050506040513d601f19601f82011682018060405250810190610b459190612694565b73ffffffffffffffffffffffffffffffffffffffff166363441ab2306040518263ffffffff1660e01b8152600401610b7d9190612fd6565b600060405180830381600087803b158015610b9757600080fd5b505af1158015610bab573d6000803e3d6000fd5b505050505b50565b6000600580549050905090565b610bc933611ce5565b15610be6578060019080519060200190610be4929190612314565b505b50565b610bf16123a2565b610bf96123a2565b60008060005b60085481108015610c105750600a83105b15610d6c576007600060018301815260200190815260200160002060020160009054906101000a900460ff1680610c45575085155b15610d5f57868310610d56576007600060018301815260200190815260200160002060405180606001604052908160008201548152602001600182018054600181600116156101000203166002900480601f016020809104026020016040519081016040528092919081815260200182805460018160011615610100020316600290048015610d155780601f10610cea57610100808354040283529160200191610d15565b820191906000526020600020905b815481529060010190602001808311610cf857829003601f168201915b505050505081526020016002820160009054906101000a900460ff1615151515815250508483600a8110610d4557fe5b602002018190525081806001019250505b82806001019350505b8080600101915050610bff565b8394505050505092915050565b6000600160085403905090565b6000600460009054906101000a900473ffffffffffffffffffffffffffffffffffffffff1673ffffffffffffffffffffffffffffffffffffffff166326e4ca826040518163ffffffff1660e01b815260040160206040518083038186803b158015610df057600080fd5b505afa158015610e04573d6000803e3d6000fd5b505050506040513d601f19601f82011682018060405250810190610e289190612694565b73ffffffffffffffffffffffffffffffffffffffff1663ff25025b6040518163ffffffff1660e01b815260040160206040518083038186803b158015610e6d57600080fd5b505afa158015610e81573d6000803e3d6000fd5b505050506040513d601f19601f82011682018060405250810190610ea591906126f9565b73ffffffffffffffffffffffffffffffffffffffff16632d441549306040518263ffffffff1660e01b8152600401610edd9190612eee565b60206040518083038186803b158015610ef557600080fd5b505afa158015610f09573d6000803e3d6000fd5b505050506040513d601f19601f82011682018060405250810190610f2d9190612807565b905090565b610f3b33611ce5565b156110b857600060086000815480929190600101919050559050600060076000838152602001908152602001600020905081816000018190555082816001019080519060200190610f8d929190612314565b5060018160020160006101000a81548160ff021916908315150217905550600460009054906101000a900473ffffffffffffffffffffffffffffffffffffffff1673ffffffffffffffffffffffffffffffffffffffff166326e4ca826040518163ffffffff1660e01b815260040160206040518083038186803b15801561101357600080fd5b505afa158015611027573d6000803e3d6000fd5b505050506040513d601f19601f8201168201806040525081019061104b9190612694565b73ffffffffffffffffffffffffffffffffffffffff166363441ab2306040518263ffffffff1660e01b81526004016110839190612f95565b600060405180830381600087803b15801561109d57600080fd5b505af11580156110b1573d6000803e3d6000fd5b5050505050505b50565b6110c36123d0565b6110cb6123d0565b6000808490505b600380549050811080156110e65750600a82105b1561117b57600381815481106110f857fe5b9060005260206000200160009054906101000a900473ffffffffffffffffffffffffffffffffffffffff168383600a811061112f57fe5b602002019073ffffffffffffffffffffffffffffffffffffffff16908173ffffffffffffffffffffffffffffffffffffffff1681525050818060010192505080806001019150506110d2565b508192505050919050565b6000600380549050905090565b61119c81611ce5565b801561123b5750600160028111156111b057fe5b8273ffffffffffffffffffffffffffffffffffffffff1663200d2ed26040518163ffffffff1660e01b815260040160206040518083038186803b1580156111f657600080fd5b505afa15801561120a573d6000803e3d6000fd5b505050506040513d601f19601f8201168201806040525081019061122e9190612774565b600281111561123957fe5b145b80156112ef57503073ffffffffffffffffffffffffffffffffffffffff168273ffffffffffffffffffffffffffffffffffffffff1663d1384eb66040518163ffffffff1660e01b815260040160206040518083038186803b15801561129f57600080fd5b505afa1580156112b3573d6000803e3d6000fd5b505050506040513d601f19601f820116820180604052508101906112d7919061274b565b73ffffffffffffffffffffffffffffffffffffffff16145b15611462576003829080600181540180825580915050600190039060005260206000200160009091909190916101000a81548173ffffffffffffffffffffffffffffffffffffffff021916908373ffffffffffffffffffffffffffffffffffffffff160217905550600460009054906101000a900473ffffffffffffffffffffffffffffffffffffffff1673ffffffffffffffffffffffffffffffffffffffff166326e4ca826040518163ffffffff1660e01b815260040160206040518083038186803b1580156113bf57600080fd5b505afa1580156113d3573d6000803e3d6000fd5b505050506040513d601f19601f820116820180604052508101906113f79190612694565b73ffffffffffffffffffffffffffffffffffffffff166363441ab2306040518263ffffffff1660e01b815260040161142f91906130da565b600060405180830381600087803b15801561144957600080fd5b505af115801561145d573d6000803e3d6000fd5b505050505b5050565b600260009054906101000a900473ffffffffffffffffffffffffffffffffffffffff1681565b61149533611ce5565b801561154957503073ffffffffffffffffffffffffffffffffffffffff168173ffffffffffffffffffffffffffffffffffffffff16634e8ef7536040518163ffffffff1660e01b815260040160206040518083038186803b1580156114f957600080fd5b505afa15801561150d573d6000803e3d6000fd5b505050506040513d601f19601f82011682018060405250810190611531919061274b565b73ffffffffffffffffffffffffffffffffffffffff16145b156118825760005b6009805490508110156116bb578173ffffffffffffffffffffffffffffffffffffffff166009828154811061158257fe5b9060005260206000200160009054906101000a900473ffffffffffffffffffffffffffffffffffffffff1673ffffffffffffffffffffffffffffffffffffffff1614156116ae57600060016009805490500390508082101561166c57600981815481106115eb57fe5b9060005260206000200160009054906101000a900473ffffffffffffffffffffffffffffffffffffffff166009838154811061162357fe5b9060005260206000200160006101000a81548173ffffffffffffffffffffffffffffffffffffffff021916908373ffffffffffffffffffffffffffffffffffffffff1602179055505b600980548061167757fe5b6001900381819060005260206000200160006101000a81549073ffffffffffffffffffffffffffffffffffffffff02191690559055505b8080600101915050611551565b50600a60008273ffffffffffffffffffffffffffffffffffffffff1673ffffffffffffffffffffffffffffffffffffffff16815260200190815260200160002060006101000a81549060ff02191690558073ffffffffffffffffffffffffffffffffffffffff1663d90c137e60006040518263ffffffff1660e01b81526004016117459190612eee565b600060405180830381600087803b15801561175f57600080fd5b505af1158015611773573d6000803e3d6000fd5b50505050600460009054906101000a900473ffffffffffffffffffffffffffffffffffffffff1673ffffffffffffffffffffffffffffffffffffffff166326e4ca826040518163ffffffff1660e01b815260040160206040518083038186803b1580156117df57600080fd5b505afa1580156117f3573d6000803e3d6000fd5b505050506040513d601f19601f820116820180604052508101906118179190612694565b73ffffffffffffffffffffffffffffffffffffffff166363441ab2306040518263ffffffff1660e01b815260040161184f9190613017565b600060405180830381600087803b15801561186957600080fd5b505af115801561187d573d6000803e3d6000fd5b505050505b50565b61188e33611ce5565b80156118e45750600660008273ffffffffffffffffffffffffffffffffffffffff1673ffffffffffffffffffffffffffffffffffffffff16815260200190815260200160002060009054906101000a900460ff16155b15611aaf576005819080600181540180825580915050600190039060005260206000200160009091909190916101000a81548173ffffffffffffffffffffffffffffffffffffffff021916908373ffffffffffffffffffffffffffffffffffffffff1602179055506001600660008373ffffffffffffffffffffffffffffffffffffffff1673ffffffffffffffffffffffffffffffffffffffff16815260200190815260200160002060006101000a81548160ff021916908315150217905550600460009054906101000a900473ffffffffffffffffffffffffffffffffffffffff1673ffffffffffffffffffffffffffffffffffffffff166326e4ca826040518163ffffffff1660e01b815260040160206040518083038186803b158015611a0c57600080fd5b505afa158015611a20573d6000803e3d6000fd5b505050506040513d601f19601f82011682018060405250810190611a449190612694565b73ffffffffffffffffffffffffffffffffffffffff166363441ab2306040518263ffffffff1660e01b8152600401611a7c9190612f54565b600060405180830381600087803b158015611a9657600080fd5b505af1158015611aaa573d6000803e3d6000fd5b505050505b50565b60005481565b611ac133611ce5565b15611c1e57600060076000858152602001908152602001600020905082816001019080519060200190611af5929190612314565b50818160020160006101000a81548160ff021916908315150217905550600460009054906101000a900473ffffffffffffffffffffffffffffffffffffffff1673ffffffffffffffffffffffffffffffffffffffff166326e4ca826040518163ffffffff1660e01b815260040160206040518083038186803b158015611b7a57600080fd5b505afa158015611b8e573d6000803e3d6000fd5b505050506040513d601f19601f82011682018060405250810190611bb29190612694565b73ffffffffffffffffffffffffffffffffffffffff166363441ab2306040518263ffffffff1660e01b8152600401611bea9190613058565b600060405180830381600087803b158015611c0457600080fd5b505af1158015611c18573d6000803e3d6000fd5b50505050505b505050565b611c2b6123f3565b611c336123f3565b60005b600a81108015611c4c5750600580549050848201105b15611cdb57600584820181548110611c6057fe5b9060005260206000200160009054906101000a900473ffffffffffffffffffffffffffffffffffffffff168282600a8110611c9757fe5b602002019073ffffffffffffffffffffffffffffffffffffffff16908173ffffffffffffffffffffffffffffffffffffffff16815250508080600101915050611c36565b5080915050919050565b6000611cf282600061224c565b9050919050565b611d016123d0565b600460009054906101000a900473ffffffffffffffffffffffffffffffffffffffff1673ffffffffffffffffffffffffffffffffffffffff166326e4ca826040518163ffffffff1660e01b815260040160206040518083038186803b158015611d6957600080fd5b505afa158015611d7d573d6000803e3d6000fd5b505050506040513d601f19601f82011682018060405250810190611da19190612694565b73ffffffffffffffffffffffffffffffffffffffff1663ff25025b6040518163ffffffff1660e01b815260040160206040518083038186803b158015611de657600080fd5b505afa158015611dfa573d6000803e3d6000fd5b505050506040513d601f19601f82011682018060405250810190611e1e91906126f9565b73ffffffffffffffffffffffffffffffffffffffff1663aa5e412730846040518363ffffffff1660e01b8152600401611e58929190612f09565b6101406040518083038186803b158015611e7157600080fd5b505afa158015611e85573d6000803e3d6000fd5b505050506040513d601f19601f82011682018060405250810190611ea9919061266a565b9050919050565b611eba33826106a5565b156121875760005b60058054905081101561202c578173ffffffffffffffffffffffffffffffffffffffff1660058281548110611ef357fe5b9060005260206000200160009054906101000a900473ffffffffffffffffffffffffffffffffffffffff1673ffffffffffffffffffffffffffffffffffffffff16141561201f576000600160058054905003905080821015611fdd5760058181548110611f5c57fe5b9060005260206000200160009054906101000a900473ffffffffffffffffffffffffffffffffffffffff1660058381548110611f9457fe5b9060005260206000200160006101000a81548173ffffffffffffffffffffffffffffffffffffffff021916908373ffffffffffffffffffffffffffffffffffffffff1602179055505b6005805480611fe857fe5b6001900381819060005260206000200160006101000a81549073ffffffffffffffffffffffffffffffffffffffff02191690559055505b8080600101915050611ec2565b50600660008273ffffffffffffffffffffffffffffffffffffffff1673ffffffffffffffffffffffffffffffffffffffff16815260200190815260200160002060006101000a81549060ff0219169055600460009054906101000a900473ffffffffffffffffffffffffffffffffffffffff1673ffffffffffffffffffffffffffffffffffffffff166326e4ca826040518163ffffffff1660e01b815260040160206040518083038186803b1580156120e457600080fd5b505afa1580156120f8573d6000803e3d6000fd5b505050506040513d601f19601f8201168201806040525081019061211c9190612694565b73ffffffffffffffffffffffffffffffffffffffff166363441ab2306040518263ffffffff1660e01b81526004016121549190613099565b600060405180830381600087803b15801561216e57600080fd5b505af1158015612182573d6000803e3d6000fd5b505050505b50565b612192612416565b61219a612416565b60005b600a811080156121b35750600980549050848201105b15612242576009848201815481106121c757fe5b9060005260206000200160009054906101000a900473ffffffffffffffffffffffffffffffffffffffff168282600a81106121fe57fe5b602002019073ffffffffffffffffffffffffffffffffffffffff16908173ffffffffffffffffffffffffffffffffffffffff1681525050808060010191505061219d565b5080915050919050565b60006005828154811061225b57fe5b9060005260206000200160009054906101000a900473ffffffffffffffffffffffffffffffffffffffff1673ffffffffffffffffffffffffffffffffffffffff168373ffffffffffffffffffffffffffffffffffffffff1614156122c257600190506122eb565b6001600580549050038210156122e6576122df836001840161224c565b90506122eb565b600090505b92915050565b604051806060016040528060008152602001606081526020016000151581525090565b828054600181600116156101000203166002900490600052602060002090601f01602090048101928261234a5760008555612391565b82601f1061236357805160ff1916838001178555612391565b82800160010185558215612391579182015b82811115612390578251825591602001919060010190612375565b5b50905061239e9190612439565b5090565b604051806101400160405280600a905b6123ba6122f1565b8152602001906001900390816123b25790505090565b604051806101400160405280600a90602082028036833780820191505090505090565b604051806101400160405280600a90602082028036833780820191505090505090565b604051806101400160405280600a90602082028036833780820191505090505090565b5b8082111561245257600081600090555060010161243a565b5090565b6000813590506124658161340d565b92915050565b600082601f83011261247c57600080fd5b600a61248f61248a82613189565b613158565b915081838560208402820111156124a557600080fd5b60005b838110156124d557816124bb888261251e565b8452602084019350602083019250506001810190506124a8565b5050505092915050565b6000813590506124ee81613424565b92915050565b6000815190506125038161343b565b92915050565b60008135905061251881613452565b92915050565b60008151905061252d81613452565b92915050565b60008151905061254281613469565b92915050565b60008135905061255781613480565b92915050565b60008151905061256c81613497565b92915050565b600081519050612581816134ae565b92915050565b600082601f83011261259857600080fd5b81356125ab6125a6826131af565b613158565b915080825260208301602083018583830111156125c757600080fd5b6125d28382846133b8565b50505092915050565b6000813590506125ea816134be565b92915050565b6000815190506125ff816134be565b92915050565b60006020828403121561261757600080fd5b600061262584828501612456565b91505092915050565b6000806040838503121561264157600080fd5b600061264f85828601612456565b925050602061266085828601612456565b9150509250929050565b6000610140828403121561267d57600080fd5b600061268b8482850161246b565b91505092915050565b6000602082840312156126a657600080fd5b60006126b4848285016124f4565b91505092915050565b600080604083850312156126d057600080fd5b60006126de85828601612509565b92505060206126ef85828601612456565b9150509250929050565b60006020828403121561270b57600080fd5b600061271984828501612533565b91505092915050565b60006020828403121561273457600080fd5b600061274284828501612548565b91505092915050565b60006020828403121561275d57600080fd5b600061276b8482850161255d565b91505092915050565b60006020828403121561278657600080fd5b600061279484828501612572565b91505092915050565b6000602082840312156127af57600080fd5b600082013567ffffffffffffffff8111156127c957600080fd5b6127d584828501612587565b91505092915050565b6000602082840312156127f057600080fd5b60006127fe848285016125db565b91505092915050565b60006020828403121561281957600080fd5b6000612827848285016125f0565b91505092915050565b6000806040838503121561284357600080fd5b6000612851858286016125db565b9250506020612862858286016124df565b9150509250929050565b60008060006060848603121561288157600080fd5b600061288f868287016125db565b935050602084013567ffffffffffffffff8111156128ac57600080fd5b6128b886828701612587565b92505060406128c9868287016124df565b9150509250925092565b60006128df838361292f565b60208301905092915050565b60006128f78383612ae5565b60208301905092915050565b600061290f8383612af4565b60208301905092915050565b60006129278383612d84565b905092915050565b612938816132aa565b82525050565b612947816132aa565b82525050565b61295681613207565b6129608184613272565b925061296b826131df565b8060005b8381101561299c57815161298387826128d3565b965061298e8361323e565b92505060018101905061296f565b505050505050565b6129ad81613212565b6129b78184613272565b92506129c2826131e9565b8060005b838110156129f35781516129da87826128eb565b96506129e58361324b565b9250506001810190506129c6565b505050505050565b612a048161321d565b612a0e8184613272565b9250612a19826131f3565b8060005b83811015612a4a578151612a318782612903565b9650612a3c83613258565b925050600181019050612a1d565b505050505050565b6000612a5d82613228565b612a67818561327d565b935083602082028501612a79856131fd565b8060005b85811015612ab55784840389528151612a96858261291b565b9450612aa183613265565b925060208a01995050600181019050612a7d565b50829750879550505050505092915050565b612ad0816132bc565b82525050565b612adf816132bc565b82525050565b612aee8161334c565b82525050565b612afd81613370565b82525050565b612b0c81613394565b82525050565b6000612b1d82613233565b612b278185613288565b9350612b378185602086016133c7565b612b40816133fc565b840191505092915050565b6000612b5682613233565b612b608185613299565b9350612b708185602086016133c7565b612b79816133fc565b840191505092915050565b6000612b91601883613299565b91507f4144445f4d4f4449464945525f494e535449545554494f4e00000000000000006000830152602082019050919050565b6000612bd1601c83613299565b91507f4144445f53544146465f4d454d4245525f494e535449545554494f4e000000006000830152602082019050919050565b6000612c11601783613299565b91507f4144445f464143554c54595f494e535449545554494f4e0000000000000000006000830152602082019050919050565b6000612c51601a83613299565b91507f52454d4f56455f464143554c54595f494e535449545554494f4e0000000000006000830152602082019050919050565b6000612c91600b83613299565b91507f494e535449545554494f4e0000000000000000000000000000000000000000006000830152602082019050919050565b6000612cd1601f83613299565b91507f5550444154455f53544146465f4d454d4245525f494e535449545554494f4e006000830152602082019050919050565b6000612d11601b83613299565b91507f52454d4f56455f4d4f4449464945525f494e535449545554494f4e00000000006000830152602082019050919050565b6000612d51601b83613299565b91507f4144445f43455254494649434154455f494e535449545554494f4e00000000006000830152602082019050919050565b6000606083016000830151612d9c6000860182612e24565b5060208301518482036020860152612db48282612b12565b9150506040830151612dc96040860182612ac7565b508091505092915050565b6000606083016000830151612dec6000860182612e24565b5060208301518482036020860152612e048282612b12565b9150506040830151612e196040860182612ac7565b508091505092915050565b612e2d81613342565b82525050565b612e3c81613342565b82525050565b6000602082019050612e57600083018461293e565b92915050565b600061014082019050612e73600083018461294d565b92915050565b600061014082019050612e8f60008301846129a4565b92915050565b600061014082019050612eab60008301846129fb565b92915050565b60006020820190508181036000830152612ecb8184612a52565b905092915050565b6000602082019050612ee86000830184612ad6565b92915050565b6000602082019050612f036000830184612b03565b92915050565b6000604082019050612f1e6000830185612b03565b612f2b6020830184612e33565b9392505050565b60006020820190508181036000830152612f4c8184612b4b565b905092915050565b60006060820190508181036000830152612f6d81612b84565b90508181036020830152612f8081612c84565b9050612f8f604083018461293e565b92915050565b60006060820190508181036000830152612fae81612bc4565b90508181036020830152612fc181612c84565b9050612fd0604083018461293e565b92915050565b60006060820190508181036000830152612fef81612c04565b9050818103602083015261300281612c84565b9050613011604083018461293e565b92915050565b6000606082019050818103600083015261303081612c44565b9050818103602083015261304381612c84565b9050613052604083018461293e565b92915050565b6000606082019050818103600083015261307181612cc4565b9050818103602083015261308481612c84565b9050613093604083018461293e565b92915050565b600060608201905081810360008301526130b281612d04565b905081810360208301526130c581612c84565b90506130d4604083018461293e565b92915050565b600060608201905081810360008301526130f381612d44565b9050818103602083015261310681612c84565b9050613115604083018461293e565b92915050565b600060208201905081810360008301526131358184612dd4565b905092915050565b60006020820190506131526000830184612e33565b92915050565b6000604051905081810181811067ffffffffffffffff8211171561317f5761317e6133fa565b5b8060405250919050565b600067ffffffffffffffff8211156131a4576131a36133fa565b5b602082029050919050565b600067ffffffffffffffff8211156131ca576131c96133fa565b5b601f19601f8301169050602081019050919050565b6000819050919050565b6000819050919050565b6000819050919050565b6000819050919050565b6000600a9050919050565b6000600a9050919050565b6000600a9050919050565b6000600a9050919050565b600081519050919050565b6000602082019050919050565b6000602082019050919050565b6000602082019050919050565b6000602082019050919050565b600081905092915050565b600081905092915050565b600082825260208201905092915050565b600082825260208201905092915050565b60006132b582613322565b9050919050565b60008115159050919050565b60006132d3826132aa565b9050919050565b60006132e5826132aa565b9050919050565b60006132f7826132aa565b9050919050565b6000613309826132aa565b9050919050565b600061331b826132aa565b9050919050565b600073ffffffffffffffffffffffffffffffffffffffff82169050919050565b6000819050919050565b60006133578261335e565b9050919050565b600061336982613322565b9050919050565b600061337b82613382565b9050919050565b600061338d82613322565b9050919050565b600061339f826133a6565b9050919050565b60006133b182613322565b9050919050565b82818337600083830152505050565b60005b838110156133e55780820151818401526020810190506133ca565b838111156133f4576000848401525b50505050565bfe5b6000601f19601f8301169050919050565b613416816132aa565b811461342157600080fd5b50565b61342d816132bc565b811461343857600080fd5b50565b613444816132c8565b811461344f57600080fd5b50565b61345b816132da565b811461346657600080fd5b50565b613472816132ec565b811461347d57600080fd5b50565b613489816132fe565b811461349457600080fd5b50565b6134a081613310565b81146134ab57600080fd5b50565b600381106134bb57600080fd5b50565b6134c781613342565b81146134d257600080fd5b5056fea2646970667358221220e3166da09b330e3f72a6188742a392f48aa4d763214d23897190a921ea1b462b64736f6c63430007050033a264697066735822122058428598a65f1f8526b71bff6169040c5da5f749b4b201aed57f1e5e745504b364736f6c63430007050033",
  "immutableReferences": {},
  "source": "// SPDX-License-Identifier: GPL-3.0\npragma solidity >=0.5.0 <0.8.0;\npragma abicoder v2;\nenum Degree {\n    ScholarlyAcademics,\n    PracticeAcademics,\n    ScholarlyPractitioner,\n    InstructionalPractitioner\n}\n\ncontract Certificate {\n    enum State {requested, approved, rejected}\n\n    Faculty public faculty;\n    Institution public institution;\n    Degree public degree;\n    State public status = State.requested;\n    CertificatesManager certificatesManager;\n\n    constructor(\n        CertificatesManager _certificatesManager,\n        Faculty _faculty,\n        Institution _institution,\n        Degree _degree\n    ) {\n        certificatesManager = _certificatesManager;\n        faculty = _faculty;\n        institution = _institution;\n        degree = _degree;\n    }\n\n    function reject() public payable {\n        if (editable(msg.sender)) {\n            status = State.rejected;\n            certificatesManager\n                .application()\n                .certificatesManager()\n                .removeCertificate(this);\n            certificatesManager.application().emitEvent(\n                \"REJEcT_CERTIFICATE\",\n                \"CERTIFICATE\",\n                address(this)\n            );\n        }\n    }\n\n    function approve() public payable {\n        if (editable(msg.sender)) {\n            status = State.approved;\n            faculty.addCertificate(this, msg.sender);\n            institution.addCertificate(this, msg.sender);\n            certificatesManager\n                .application()\n                .certificatesManager()\n                .removeCertificate(this);\n            certificatesManager.application().emitEvent(\n                \"APPROVE_CERTIFICATE\",\n                \"CERTIFICATE\",\n                address(this)\n            );\n        }\n    }\n\n    function editable(address _address) public view returns (bool) {\n        return status == State.requested && institution.allowed(_address);\n    }\n}\n\ncontract Faculty {\n    uint256 id;\n    string public name;\n    address public owner;\n    Certificate[] public certificates;\n    Institution public currentInstitution;\n    FacultiesManager facultiesManager;\n\n    constructor(\n        FacultiesManager _facultiesManager,\n        uint256 _id,\n        string memory _name,\n        address _owner\n    ) {\n        facultiesManager = _facultiesManager;\n        name = _name;\n        id = _id;\n        owner = _owner;\n    }\n\n    function update(string memory _name) public payable {\n        if (allowed(msg.sender)) {\n            name = _name;\n            facultiesManager.application().emitEvent(\n                \"UPDATE_FACULTY\",\n                \"FACULTY\",\n                address(this)\n            );\n        }\n    }\n\n    function assignInstitution(Institution _institution) public payable {\n        if (\n            address(_institution) == msg.sender ||\n            address(currentInstitution) == msg.sender\n        ) {\n            currentInstitution = _institution;\n            facultiesManager.application().emitEvent(\n                \"ASSIGN_INSTITUION\",\n                \"FACULTY\",\n                address(this)\n            );\n        }\n    }\n\n    function allowed(address _address) public view returns (bool) {\n        return _address == owner;\n    }\n\n    function addCertificate(Certificate _certificate, address _address)\n        public\n        payable\n    {\n        if (\n            _certificate.institution().allowed(_address) &&\n            _certificate.status() == Certificate.State.approved &&\n            _certificate.faculty() == this\n        ) {\n            certificates.push(_certificate);\n            facultiesManager.application().emitEvent(\n                \"ADD_CERTIFICATE\",\n                \"FACULTY\",\n                address(this)\n            );\n        }\n    }\n\n    function certificatesLength() public view returns (uint256) {\n        return certificates.length;\n    }\n\n    function listCertificates(uint256 _from)\n        public\n        view\n        returns (Certificate[10] memory)\n    {\n        Certificate[10] memory list;\n        for (uint256 i = 0; i < 10 && i + _from < certificates.length; i++) {\n            list[i] = certificates[i + _from];\n        }\n        return list;\n    }\n\n    function pendingCertificatesLength() public view returns (uint256) {\n        return\n            facultiesManager\n                .application()\n                .certificatesManager()\n                .pendingCertificatesLengthForFaculty(this);\n    }\n\n    function pendingCertificates(uint256 _from)\n        public\n        view\n        returns (Certificate[10] memory)\n    {\n        return\n            facultiesManager\n                .application()\n                .certificatesManager()\n                .pendingCertificatesForFaculty(this, _from);\n    }\n}\n\ncontract Institution {\n    struct StaffMember {\n        uint256 id;\n        string name;\n        bool active;\n    }\n\n    uint256 public id;\n    string public name;\n    address public owner;\n\n    Certificate[] certificates;\n    InstituionsManager instituionsManager;\n    address[] public allowedModifiers;\n    mapping(address => bool) allowedModifiersMap;\n\n    mapping(uint256 => StaffMember) staffMembers;\n    uint256 nextStaffMembersId = 1;\n\n    Faculty[] faculties;\n    mapping(Faculty => bool) facultiesMap;\n\n    constructor(\n        InstituionsManager _instituionsManager,\n        uint256 _id,\n        string memory _name,\n        address sender\n    ) {\n        instituionsManager = _instituionsManager;\n        id = _id;\n        name = _name;\n        owner = sender;\n        allowedModifiers.push(sender);\n        allowedModifiersMap[sender] = true;\n    }\n\n    function update(string memory _name) public payable {\n        if (allowed(msg.sender)) {\n            name = _name;\n        }\n    }\n\n    function staffMember(uint256 _from)\n        public\n        view\n        returns (StaffMember memory)\n    {\n        return staffMembers[_from];\n    }\n\n    function listStaffMembers(uint256 _from, bool skipInactive)\n        public\n        view\n        returns (StaffMember[10] memory)\n    {\n        StaffMember[10] memory list;\n        uint256 _count = 0;\n        uint256 _list_index = 0;\n        uint256 _i = 0;\n        while (_i < nextStaffMembersId && _count < 10) {\n            if (staffMembers[_i + 1].active || !skipInactive) {\n                if (_count >= _from) {\n                    list[_list_index] = staffMembers[_i + 1];\n                    _list_index++;\n                }\n                _count++;\n            }\n            _i++;\n        }\n        return list;\n    }\n\n    function staffMembersLength() public view returns (uint256) {\n        return nextStaffMembersId - 1;\n    }\n\n    function createStaffMember(string memory _name) public payable {\n        if (allowed(msg.sender)) {\n            uint256 _nextStaffMemberId = nextStaffMembersId++;\n            StaffMember storage _staffMember = staffMembers[_nextStaffMemberId];\n            _staffMember.id = _nextStaffMemberId;\n            _staffMember.name = _name;\n            _staffMember.active = true;\n            instituionsManager.application().emitEvent(\n                \"ADD_STAFF_MEMBER_INSTITUTION\",\n                \"INSTITUTION\",\n                address(this)\n            );\n        }\n    }\n\n    function updateStaffMember(\n        uint256 _staffMemberId,\n        string memory _name,\n        bool _active\n    ) public payable {\n        if (allowed(msg.sender)) {\n            StaffMember storage _staffMember = staffMembers[_staffMemberId];\n            _staffMember.name = _name;\n            _staffMember.active = _active;\n            instituionsManager.application().emitEvent(\n                \"UPDATE_STAFF_MEMBER_INSTITUTION\",\n                \"INSTITUTION\",\n                address(this)\n            );\n        }\n    }\n\n    function listModifiers(uint256 _from)\n        public\n        view\n        returns (address[10] memory)\n    {\n        address[10] memory list;\n        for (\n            uint256 i = 0;\n            i < 10 && i + _from < allowedModifiers.length;\n            i++\n        ) {\n            list[i] = allowedModifiers[i + _from];\n        }\n        return list;\n    }\n\n    function modifiersLength() public view returns (uint256) {\n        return allowedModifiers.length;\n    }\n\n    function addModifier(address _modifier) public payable {\n        if (allowed(msg.sender) && !allowedModifiersMap[_modifier]) {\n            allowedModifiers.push(_modifier);\n            allowedModifiersMap[_modifier] = true;\n            instituionsManager.application().emitEvent(\n                \"ADD_MODIFIER_INSTITUTION\",\n                \"INSTITUTION\",\n                address(this)\n            );\n        }\n    }\n\n    function removeModifier(address _modifier) public payable {\n        if (allowedToRemove(msg.sender, _modifier)) {\n            for (uint256 i = 0; i < allowedModifiers.length; i++) {\n                if (allowedModifiers[i] == _modifier) {\n                    uint256 _lastIndex = allowedModifiers.length - 1;\n                    if (i < _lastIndex) {\n                        allowedModifiers[i] = allowedModifiers[_lastIndex];\n                    }\n                    allowedModifiers.pop();\n                }\n            }\n            delete allowedModifiersMap[_modifier];\n            instituionsManager.application().emitEvent(\n                \"REMOVE_MODIFIER_INSTITUTION\",\n                \"INSTITUTION\",\n                address(this)\n            );\n        }\n    }\n\n    function allowedToRemove(address _sender, address _toRemove)\n        public\n        view\n        returns (bool)\n    {\n        if (allowed(_sender)) {\n            if (_sender == _toRemove) {\n                return false;\n            } else if (_toRemove == owner) {\n                return false;\n            } else {\n                return true;\n            }\n        } else {\n            return false;\n        }\n    }\n\n    function allowed(address _modifierAddress) public view returns (bool) {\n        return allowed(_modifierAddress, 0);\n    }\n\n    function allowed(address modifierAddress, uint256 index)\n        private\n        view\n        returns (bool)\n    {\n        if (modifierAddress == allowedModifiers[index]) {\n            return true;\n        } else if (index < allowedModifiers.length - 1) {\n            return allowed(modifierAddress, index + 1);\n        } else {\n            return false;\n        }\n    }\n\n    function addCertificate(Certificate _certificate, address _address)\n        public\n        payable\n    {\n        if (\n            allowed(_address) &&\n            _certificate.status() == Certificate.State.approved &&\n            _certificate.institution() == this\n        ) {\n            certificates.push(_certificate);\n            instituionsManager.application().emitEvent(\n                \"ADD_CERTIFICATE_INSTITUTION\",\n                \"INSTITUTION\",\n                address(this)\n            );\n        }\n    }\n\n    function issuedCertificates(uint256 _from)\n        public\n        view\n        returns (Certificate[10] memory)\n    {\n        Certificate[10] memory _list;\n        uint256 _count = 0;\n        for (uint256 i = _from; i < certificates.length && _count < 10; i++) {\n            _list[_count] = certificates[i];\n            _count++;\n        }\n        return _list;\n    }\n\n    function issuedCertificatesLength() public view returns (uint256) {\n        return certificates.length;\n    }\n\n    function pendingCertificatesLength() public view returns (uint256) {\n        return\n            instituionsManager\n                .application()\n                .certificatesManager()\n                .pendingCertificatesLengthForInstitution(this);\n    }\n\n    function pendingCertificates(uint256 _from)\n        public\n        view\n        returns (Certificate[10] memory)\n    {\n        return\n            instituionsManager\n                .application()\n                .certificatesManager()\n                .pendingCertificatesForInstitution(this, _from);\n    }\n\n    function listFaculties(uint256 _from)\n        public\n        view\n        returns (Faculty[10] memory)\n    {\n        Faculty[10] memory list;\n        for (uint256 i = 0; i < 10 && i + _from < faculties.length; i++) {\n            list[i] = faculties[i + _from];\n        }\n        return list;\n    }\n\n    function facultiesLength() public view returns (uint256) {\n        return faculties.length;\n    }\n\n    function addFaculty(Faculty _faculty) public payable {\n        if (\n            allowed(msg.sender) &&\n            _faculty.currentInstitution() == Institution(0) &&\n            !facultiesMap[_faculty]\n        ) {\n            faculties.push(_faculty);\n            facultiesMap[_faculty] = true;\n            _faculty.assignInstitution(this);\n            instituionsManager.application().emitEvent(\n                \"ADD_FACULTY_INSTITUTION\",\n                \"INSTITUTION\",\n                address(this)\n            );\n        }\n    }\n\n    function removeFaculty(Faculty _faculty) public payable {\n        if (allowed(msg.sender) && _faculty.currentInstitution() == this) {\n            for (uint256 i = 0; i < faculties.length; i++) {\n                if (faculties[i] == _faculty) {\n                    uint256 _lastIndex = faculties.length - 1;\n                    if (i < _lastIndex) {\n                        faculties[i] = faculties[_lastIndex];\n                    }\n                    faculties.pop();\n                }\n            }\n            delete facultiesMap[_faculty];\n            _faculty.assignInstitution(Institution(0));\n            instituionsManager.application().emitEvent(\n                \"REMOVE_FACULTY_INSTITUTION\",\n                \"INSTITUTION\",\n                address(this)\n            );\n        }\n    }\n}\n\ncontract CertificatesManager {\n    Certificate[] pendingCertificates;\n    Application public application;\n\n    constructor(Application _application) {\n        application = _application;\n    }\n\n    function requestCertificate(\n        Faculty _faculty,\n        Institution _institution,\n        Degree _degree\n    ) public payable {\n        Certificate _certificate =\n            new Certificate(this, _faculty, _institution, _degree);\n        pendingCertificates.push(_certificate);\n        application.emitEvent(\n            \"REQUEST_CERTIFICATE\",\n            \"INSTITUTION\",\n            address(_institution)\n        );\n        application.emitEvent(\n            \"REQUEST_CERTIFICATE\",\n            \"FACULTY\",\n            address(_faculty)\n        );\n    }\n\n    function removeCertificate(Certificate _certificate) public payable {\n        for (uint256 i = 0; i < pendingCertificates.length; i++) {\n            if (pendingCertificates[i] == _certificate) {\n                uint256 _lastIndex = pendingCertificates.length - 1;\n                if (i < _lastIndex) {\n                    pendingCertificates[i] = pendingCertificates[_lastIndex];\n                }\n                pendingCertificates.pop();\n            }\n        }\n        application.emitEvent(\n            \"CERTIFICATE_REMOVE\",\n            \"INSTITUTION\",\n            address(_certificate.institution())\n        );\n        application.emitEvent(\n            \"CERTIFICATE_REMOVE\",\n            \"FACULTY\",\n            address(_certificate.faculty())\n        );\n    }\n\n    function pendingCertificatesLengthForFaculty(Faculty _faculty)\n        public\n        view\n        returns (uint256)\n    {\n        uint256 _count = 0;\n        for (uint256 i = 0; i < pendingCertificates.length; i++) {\n            if (pendingCertificates[i].faculty() == _faculty) {\n                _count++;\n            }\n        }\n        return _count;\n    }\n\n    function pendingCertificatesForFaculty(Faculty _faculty, uint256 _from)\n        public\n        view\n        returns (Certificate[10] memory)\n    {\n        Certificate[10] memory _list;\n        uint256 _count = 0;\n        uint256 _toSkip = 0;\n        for (\n            uint256 i = 0;\n            i < pendingCertificates.length && _count < 10;\n            i++\n        ) {\n            if (pendingCertificates[i].faculty() == _faculty) {\n                if (_toSkip >= _from) {\n                    _list[_count] = pendingCertificates[i];\n                    _count++;\n                } else {\n                    _toSkip++;\n                }\n            }\n        }\n        return _list;\n    }\n\n    function pendingCertificatesLengthForInstitution(Institution _institution)\n        public\n        view\n        returns (uint256)\n    {\n        uint256 _count = 0;\n        for (uint256 i = 0; i < pendingCertificates.length; i++) {\n            if (pendingCertificates[i].institution() == _institution) {\n                _count++;\n            }\n        }\n        return _count;\n    }\n\n    function pendingCertificatesForInstitution(\n        Institution _institution,\n        uint256 _from\n    ) public view returns (Certificate[10] memory) {\n        Certificate[10] memory _list;\n        uint256 _count = 0;\n        uint256 _toSkip = 0;\n        for (\n            uint256 i = 0;\n            i < pendingCertificates.length && _count < 10;\n            i++\n        ) {\n            if (pendingCertificates[i].institution() == _institution) {\n                if (_toSkip >= _from) {\n                    _list[_count] = pendingCertificates[i];\n                    _count++;\n                } else {\n                    _toSkip++;\n                }\n            }\n        }\n        return _list;\n    }\n}\n\ncontract FacultiesManager {\n    Application public application;\n    mapping(address => Faculty) public faculties;\n    mapping(uint256 => Faculty) facultiesByIndex;\n    uint256 nextFacultyId = 0;\n\n    constructor(Application _application) {\n        application = _application;\n    }\n\n    function facultiesLength() public view returns (uint256) {\n        return nextFacultyId;\n    }\n\n    function createFaculty(string memory _name) public payable {\n        if (address(faculties[msg.sender]) == address(0x0)) {\n            uint256 _id = nextFacultyId++;\n            Faculty faculty = new Faculty(this, _id, _name, msg.sender);\n            facultiesByIndex[_id] = faculty;\n            faculties[msg.sender] = faculty;\n            application.emitEvent(\n                \"CREATE_FACULTY\",\n                \"FACULTY\",\n                address(faculty)\n            );\n        }\n    }\n\n    function listFaculties(uint256 _from)\n        public\n        view\n        returns (Faculty[10] memory)\n    {\n        Faculty[10] memory list;\n        for (uint256 i = 0; i < 10; i++) {\n            list[i] = facultiesByIndex[i + _from];\n        }\n        return list;\n    }\n}\n\ncontract InstituionsManager {\n    Application public application;\n    mapping(uint256 => Institution) public institutions;\n    uint256 nextInstitutionId = 0;\n\n    constructor(Application _application) {\n        application = _application;\n    }\n\n    function institutionsLength() public view returns (uint256) {\n        return nextInstitutionId;\n    }\n\n    function createInstitution(string memory _name) public payable {\n        uint256 _id = nextInstitutionId++;\n        Institution _institution =\n            new Institution(this, _id, _name, msg.sender);\n        institutions[_id] = _institution;\n        application.emitEvent(\n            \"CREATE_INSTITUTION\",\n            \"INSTITUTION\",\n            address(_institution)\n        );\n    }\n\n    function listInstitutions(uint256 _from)\n        public\n        view\n        returns (Institution[10] memory)\n    {\n        Institution[10] memory list;\n        for (uint256 i = 0; i < 10; i++) {\n            list[i] = institutions[i + _from];\n        }\n        return list;\n    }\n}\n\ncontract Application {\n    /*\n    Application is the root contract that the UI will use to interact with sub contracts \n    */\n    CertificatesManager public certificatesManager;\n    FacultiesManager public facultiesManager;\n    InstituionsManager public instituionsManager;\n    event ApplicationEvent(\n        string eventType,\n        string targetType,\n        address targetAddress\n    );\n\n    constructor() {\n        certificatesManager = new CertificatesManager(this);\n        facultiesManager = new FacultiesManager(this);\n        instituionsManager = new InstituionsManager(this);\n    }\n\n    function emitEvent(\n        string memory eventType,\n        string memory targetType,\n        address targetAddress\n    ) public payable {\n        emit ApplicationEvent(eventType, targetType, targetAddress);\n    }\n}\n",
  "sourcePath": "/home/mortadaak/Projects/aacsb_accreditiation/contracts/Application.sol",
  "compiler": {
    "name": "solc",
    "version": "0.7.5+commit.eb77ed08.Emscripten.clang"
  },
  "schemaVersion": "3.3.3",
  "updatedAt": "2021-02-27T16:01:09.289Z",
  "networkType": "ethereum",
  "devdoc": {
    "kind": "dev",
    "methods": {},
    "version": 1
  },
  "userdoc": {
    "kind": "user",
    "methods": {},
    "version": 1
  }
}