{
  "contractName": "Application",
  "abi": [
    {
      "inputs": [],
      "stateMutability": "nonpayable",
      "type": "constructor"
    },
    {
      "anonymous": false,
      "inputs": [
        {
          "indexed": false,
          "internalType": "string",
          "name": "eventType",
          "type": "string"
        },
        {
          "indexed": false,
          "internalType": "string",
          "name": "targetType",
          "type": "string"
        },
        {
          "indexed": false,
          "internalType": "address",
          "name": "targetAddress",
          "type": "address"
        }
      ],
      "name": "ApplicationEvent",
      "type": "event"
    },
    {
      "inputs": [],
      "name": "certificatesManager",
      "outputs": [
        {
          "internalType": "contract CertificatesManager",
          "name": "",
          "type": "address"
        }
      ],
      "stateMutability": "view",
      "type": "function"
    },
    {
      "inputs": [],
      "name": "facultiesManager",
      "outputs": [
        {
          "internalType": "contract FacultiesManager",
          "name": "",
          "type": "address"
        }
      ],
      "stateMutability": "view",
      "type": "function"
    },
    {
      "inputs": [],
      "name": "instituionsManager",
      "outputs": [
        {
          "internalType": "contract InstituionsManager",
          "name": "",
          "type": "address"
        }
      ],
      "stateMutability": "view",
      "type": "function"
    },
    {
      "inputs": [
        {
          "internalType": "string",
          "name": "eventType",
          "type": "string"
        },
        {
          "internalType": "string",
          "name": "targetType",
          "type": "string"
        },
        {
          "internalType": "address",
          "name": "targetAddress",
          "type": "address"
        }
      ],
      "name": "emitEvent",
      "outputs": [],
      "stateMutability": "payable",
      "type": "function"
    }
  ],
  "bytecode": "0x608060405234801561001057600080fd5b503060405161001e90610171565b61002891906101aa565b604051809103906000f080158015610044573d6000803e3d6000fd5b506000806101000a81548173ffffffffffffffffffffffffffffffffffffffff021916908373ffffffffffffffffffffffffffffffffffffffff160217905550306040516100919061017f565b61009b91906101aa565b604051809103906000f0801580156100b7573d6000803e3d6000fd5b50600160006101000a81548173ffffffffffffffffffffffffffffffffffffffff021916908373ffffffffffffffffffffffffffffffffffffffff160217905550306040516101059061018d565b61010f91906101aa565b604051809103906000f08015801561012b573d6000803e3d6000fd5b50600260006101000a81548173ffffffffffffffffffffffffffffffffffffffff021916908373ffffffffffffffffffffffffffffffffffffffff160217905550610209565b612d49806200075a83390190565b61294f80620034a383390190565b6139888062005df283390190565b6101a4816101e5565b82525050565b60006020820190506101bf600083018461019b565b92915050565b600073ffffffffffffffffffffffffffffffffffffffff82169050919050565b60006101f0826101f7565b9050919050565b6000610202826101c5565b9050919050565b61054180620002196000396000f3fe60806040526004361061003f5760003560e01c806323a4cbea1461004457806363441ab21461006f578063a3bf8aa11461008b578063ff25025b146100b6575b600080fd5b34801561005057600080fd5b506100596100e1565b6040516100669190610309565b60405180910390f35b610089600480360381019061008491906101fa565b610107565b005b34801561009757600080fd5b506100a0610147565b6040516100ad9190610324565b60405180910390f35b3480156100c257600080fd5b506100cb61016d565b6040516100d891906102ee565b60405180910390f35b600160009054906101000a900473ffffffffffffffffffffffffffffffffffffffff1681565b7f7100b3416f6d934993a9f327aba48b7664481b8eb193b6c86ea9c4fe6bac490f83838360405161013a9392919061033f565b60405180910390a1505050565b600260009054906101000a900473ffffffffffffffffffffffffffffffffffffffff1681565b60008054906101000a900473ffffffffffffffffffffffffffffffffffffffff1681565b6000813590506101a0816104f4565b92915050565b600082601f8301126101b757600080fd5b81356101ca6101c5826103b5565b610384565b915080825260208301602083018583830111156101e657600080fd5b6101f183828461049f565b50505092915050565b60008060006060848603121561020f57600080fd5b600084013567ffffffffffffffff81111561022957600080fd5b610235868287016101a6565b935050602084013567ffffffffffffffff81111561025257600080fd5b61025e868287016101a6565b925050604061026f86828701610191565b9150509250925092565b61028281610401565b82525050565b61029181610433565b82525050565b6102a081610457565b82525050565b6102af8161047b565b82525050565b60006102c0826103e5565b6102ca81856103f0565b93506102da8185602086016104ae565b6102e3816104e3565b840191505092915050565b60006020820190506103036000830184610288565b92915050565b600060208201905061031e6000830184610297565b92915050565b600060208201905061033960008301846102a6565b92915050565b6000606082019050818103600083015261035981866102b5565b9050818103602083015261036d81856102b5565b905061037c6040830184610279565b949350505050565b6000604051905081810181811067ffffffffffffffff821117156103ab576103aa6104e1565b5b8060405250919050565b600067ffffffffffffffff8211156103d0576103cf6104e1565b5b601f19601f8301169050602081019050919050565b600081519050919050565b600082825260208201905092915050565b600061040c82610413565b9050919050565b600073ffffffffffffffffffffffffffffffffffffffff82169050919050565b600061043e82610445565b9050919050565b600061045082610413565b9050919050565b600061046282610469565b9050919050565b600061047482610413565b9050919050565b60006104868261048d565b9050919050565b600061049882610413565b9050919050565b82818337600083830152505050565b60005b838110156104cc5780820151818401526020810190506104b1565b838111156104db576000848401525b50505050565bfe5b6000601f19601f8301169050919050565b6104fd81610401565b811461050857600080fd5b5056fea2646970667358221220213b8f0dff6109ede9901ff100e4d6a8e72b346cfcf058a4595a5c3687bb038264736f6c6343000705003360806040523480156200001157600080fd5b5060405162002d4938038062002d49833981810160405281019062000037919062000096565b80600160006101000a81548173ffffffffffffffffffffffffffffffffffffffff021916908373ffffffffffffffffffffffffffffffffffffffff1602179055505062000124565b60008151905062000090816200010a565b92915050565b600060208284031215620000a957600080fd5b6000620000b9848285016200007f565b91505092915050565b6000620000cf82620000ea565b9050919050565b6000620000e382620000c2565b9050919050565b600073ffffffffffffffffffffffffffffffffffffffff82169050919050565b6200011581620000d6565b81146200012157600080fd5b50565b612c1580620001346000396000f3fe6080604052600436106200007a5760003560e01c8063910b70cc1162000055578063910b70cc14620000ef5780639a2393f61462000133578063ad7a592f1462000177578063da60f30d14620001bb576200007a565b8063062cd999146200007f57806326e4ca82146200009f5780634069e45d14620000cf575b600080fd5b6200009d600480360381019062000097919062000ee0565b620001ff565b005b348015620000ac57600080fd5b50620000b7620003cd565b604051620000c691906200123b565b60405180910390f35b620000ed6004803603810190620000e7919062000e5c565b620003f3565b005b348015620000fc57600080fd5b506200011b600480360381019062000115919062000f77565b62000790565b6040516200012a9190620013c1565b60405180910390f35b3480156200014057600080fd5b506200015f600480360381019062000159919062000e88565b620008b7565b6040516200016e9190620013c1565b60405180910390f35b3480156200018457600080fd5b50620001a360048036038101906200019d919062000fcf565b620009de565b604051620001b291906200121d565b60405180910390f35b348015620001c857600080fd5b50620001e76004803603810190620001e1919062000f36565b62000bb4565b604051620001f691906200121d565b60405180910390f35b600030848484604051620002139062000d8a565b62000222949392919062001258565b604051809103906000f0801580156200023f573d6000803e3d6000fd5b5090506000819080600181540180825580915050600190039060005260206000200160009091909190916101000a81548173ffffffffffffffffffffffffffffffffffffffff021916908373ffffffffffffffffffffffffffffffffffffffff160217905550600160009054906101000a900473ffffffffffffffffffffffffffffffffffffffff1673ffffffffffffffffffffffffffffffffffffffff166363441ab2846040518263ffffffff1660e01b81526004016200030291906200137a565b600060405180830381600087803b1580156200031d57600080fd5b505af115801562000332573d6000803e3d6000fd5b50505050600160009054906101000a900473ffffffffffffffffffffffffffffffffffffffff1673ffffffffffffffffffffffffffffffffffffffff166363441ab2856040518263ffffffff1660e01b815260040162000393919062001333565b600060405180830381600087803b158015620003ae57600080fd5b505af1158015620003c3573d6000803e3d6000fd5b5050505050505050565b600160009054906101000a900473ffffffffffffffffffffffffffffffffffffffff1681565b60005b60008054905081101562000568578173ffffffffffffffffffffffffffffffffffffffff16600082815481106200042957fe5b9060005260206000200160009054906101000a900473ffffffffffffffffffffffffffffffffffffffff1673ffffffffffffffffffffffffffffffffffffffff1614156200055a5760006001600080549050039050808210156200051757600081815481106200049557fe5b9060005260206000200160009054906101000a900473ffffffffffffffffffffffffffffffffffffffff1660008381548110620004ce57fe5b9060005260206000200160006101000a81548173ffffffffffffffffffffffffffffffffffffffff021916908373ffffffffffffffffffffffffffffffffffffffff1602179055505b60008054806200052357fe5b6001900381819060005260206000200160006101000a81549073ffffffffffffffffffffffffffffffffffffffff02191690559055505b8080600101915050620003f6565b50600160009054906101000a900473ffffffffffffffffffffffffffffffffffffffff1673ffffffffffffffffffffffffffffffffffffffff166363441ab28273ffffffffffffffffffffffffffffffffffffffff1663d1384eb66040518163ffffffff1660e01b815260040160206040518083038186803b158015620005ee57600080fd5b505afa15801562000603573d6000803e3d6000fd5b505050506040513d601f19601f8201168201806040525081019062000629919062000fa3565b6040518263ffffffff1660e01b8152600401620006479190620012ec565b600060405180830381600087803b1580156200066257600080fd5b505af115801562000677573d6000803e3d6000fd5b50505050600160009054906101000a900473ffffffffffffffffffffffffffffffffffffffff1673ffffffffffffffffffffffffffffffffffffffff166363441ab28273ffffffffffffffffffffffffffffffffffffffff16631080d5f86040518163ffffffff1660e01b815260040160206040518083038186803b1580156200070057600080fd5b505afa15801562000715573d6000803e3d6000fd5b505050506040513d601f19601f820116820180604052508101906200073b919062000eb4565b6040518263ffffffff1660e01b8152600401620007599190620012a5565b600060405180830381600087803b1580156200077457600080fd5b505af115801562000789573d6000803e3d6000fd5b5050505050565b6000806000905060005b600080549050811015620008ad578373ffffffffffffffffffffffffffffffffffffffff1660008281548110620007cd57fe5b9060005260206000200160009054906101000a900473ffffffffffffffffffffffffffffffffffffffff1673ffffffffffffffffffffffffffffffffffffffff1663d1384eb66040518163ffffffff1660e01b815260040160206040518083038186803b1580156200083e57600080fd5b505afa15801562000853573d6000803e3d6000fd5b505050506040513d601f19601f8201168201806040525081019062000879919062000fa3565b73ffffffffffffffffffffffffffffffffffffffff1614156200089f5781806001019250505b80806001019150506200079a565b5080915050919050565b6000806000905060005b600080549050811015620009d4578373ffffffffffffffffffffffffffffffffffffffff1660008281548110620008f457fe5b9060005260206000200160009054906101000a900473ffffffffffffffffffffffffffffffffffffffff1673ffffffffffffffffffffffffffffffffffffffff16631080d5f86040518163ffffffff1660e01b815260040160206040518083038186803b1580156200096557600080fd5b505afa1580156200097a573d6000803e3d6000fd5b505050506040513d601f19601f82011682018060405250810190620009a0919062000eb4565b73ffffffffffffffffffffffffffffffffffffffff161415620009c65781806001019250505b8080600101915050620008c1565b5080915050919050565b620009e862000d98565b620009f262000d98565b60008060005b6000805490508110801562000a0e5750600a8311155b1562000ba7578673ffffffffffffffffffffffffffffffffffffffff166000828154811062000a3957fe5b9060005260206000200160009054906101000a900473ffffffffffffffffffffffffffffffffffffffff1673ffffffffffffffffffffffffffffffffffffffff1663d1384eb66040518163ffffffff1660e01b815260040160206040518083038186803b15801562000aaa57600080fd5b505afa15801562000abf573d6000803e3d6000fd5b505050506040513d601f19601f8201168201806040525081019062000ae5919062000fa3565b73ffffffffffffffffffffffffffffffffffffffff16141562000b995785821062000b90576000818154811062000b1857fe5b9060005260206000200160009054906101000a900473ffffffffffffffffffffffffffffffffffffffff168484600a811062000b5057fe5b602002019073ffffffffffffffffffffffffffffffffffffffff16908173ffffffffffffffffffffffffffffffffffffffff168152505082806001019350505b81806001019250505b8080600101915050620009f8565b5082935050505092915050565b62000bbe62000d98565b62000bc862000d98565b60008060005b6000805490508110801562000be45750600a8311155b1562000d7d578673ffffffffffffffffffffffffffffffffffffffff166000828154811062000c0f57fe5b9060005260206000200160009054906101000a900473ffffffffffffffffffffffffffffffffffffffff1673ffffffffffffffffffffffffffffffffffffffff16631080d5f86040518163ffffffff1660e01b815260040160206040518083038186803b15801562000c8057600080fd5b505afa15801562000c95573d6000803e3d6000fd5b505050506040513d601f19601f8201168201806040525081019062000cbb919062000eb4565b73ffffffffffffffffffffffffffffffffffffffff16141562000d6f5785821062000d66576000818154811062000cee57fe5b9060005260206000200160009054906101000a900473ffffffffffffffffffffffffffffffffffffffff168484600a811062000d2657fe5b602002019073ffffffffffffffffffffffffffffffffffffffff16908173ffffffffffffffffffffffffffffffffffffffff168152505082806001019350505b81806001019250505b808060010191505062000bce565b5082935050505092915050565b6115c6806200161a83390190565b604051806101400160405280600a90602082028036833780820191505090505090565b60008135905062000dcc81620015a0565b92915050565b60008135905062000de381620015ba565b92915050565b60008151905062000dfa81620015ba565b92915050565b60008135905062000e1181620015d4565b92915050565b60008151905062000e2881620015d4565b92915050565b60008135905062000e3f81620015ee565b92915050565b60008135905062000e5681620015ff565b92915050565b60006020828403121562000e6f57600080fd5b600062000e7f8482850162000dbb565b91505092915050565b60006020828403121562000e9b57600080fd5b600062000eab8482850162000dd2565b91505092915050565b60006020828403121562000ec757600080fd5b600062000ed78482850162000de9565b91505092915050565b60008060006060848603121562000ef657600080fd5b600062000f068682870162000dd2565b935050602062000f198682870162000e00565b925050604062000f2c8682870162000e2e565b9150509250925092565b6000806040838503121562000f4a57600080fd5b600062000f5a8582860162000dd2565b925050602062000f6d8582860162000e45565b9150509250929050565b60006020828403121562000f8a57600080fd5b600062000f9a8482850162000e00565b91505092915050565b60006020828403121562000fb657600080fd5b600062000fc68482850162000e17565b91505092915050565b6000806040838503121562000fe357600080fd5b600062000ff38582860162000e00565b9250506020620010068582860162000e45565b9150509250929050565b60006200101e8383620010af565b60208301905092915050565b62001035816200141c565b82525050565b6200104681620013e8565b62001052818462001400565b92506200105f82620013de565b8060005b83811015620010965781516200107a878262001010565b96506200108783620013f3565b92505060018101905062001063565b505050505050565b620010a981620014ab565b82525050565b620010ba81620014d3565b82525050565b620010cb81620014fb565b82525050565b620010dc8162001523565b82525050565b620010ed816200154b565b82525050565b620010fe8162001573565b82525050565b6000620011136007836200140b565b91507f464143554c5459000000000000000000000000000000000000000000000000006000830152602082019050919050565b6000620011556012836200140b565b91507f43455254494649434154455f52454d4f564500000000000000000000000000006000830152602082019050919050565b6000620011976013836200140b565b91507f524551554553545f4345525449464943415445000000000000000000000000006000830152602082019050919050565b6000620011d9600b836200140b565b91507f494e535449545554494f4e0000000000000000000000000000000000000000006000830152602082019050919050565b6200121781620014a1565b82525050565b6000610140820190506200123560008301846200103b565b92915050565b60006020820190506200125260008301846200109e565b92915050565b60006080820190506200126f6000830187620010c0565b6200127e6020830186620010d1565b6200128d6040830185620010e2565b6200129c6060830184620010f3565b95945050505050565b60006060820190508181036000830152620012c08162001146565b90508181036020830152620012d58162001104565b9050620012e660408301846200102a565b92915050565b60006060820190508181036000830152620013078162001146565b905081810360208301526200131c81620011ca565b90506200132d60408301846200102a565b92915050565b600060608201905081810360008301526200134e8162001188565b90508181036020830152620013638162001104565b90506200137460408301846200102a565b92915050565b60006060820190508181036000830152620013958162001188565b90508181036020830152620013aa81620011ca565b9050620013bb60408301846200102a565b92915050565b6000602082019050620013d860008301846200120c565b92915050565b6000819050919050565b6000600a9050919050565b6000602082019050919050565b600081905092915050565b600082825260208201905092915050565b6000620014298262001481565b9050919050565b60006200143d826200141c565b9050919050565b600062001451826200141c565b9050919050565b600062001465826200141c565b9050919050565b60008190506200147c8262001589565b919050565b600073ffffffffffffffffffffffffffffffffffffffff82169050919050565b6000819050919050565b6000620014b882620014bf565b9050919050565b6000620014cc8262001481565b9050919050565b6000620014e082620014e7565b9050919050565b6000620014f48262001481565b9050919050565b600062001508826200150f565b9050919050565b60006200151c8262001481565b9050919050565b6000620015308262001537565b9050919050565b6000620015448262001481565b9050919050565b600062001558826200155f565b9050919050565b60006200156c8262001481565b9050919050565b600062001580826200146c565b9050919050565bfe5b600481106200159d576200159c62001587565b5b50565b620015ab8162001430565b8114620015b757600080fd5b50565b620015c58162001444565b8114620015d157600080fd5b50565b620015df8162001458565b8114620015eb57600080fd5b50565b60048110620015fc57600080fd5b50565b6200160a81620014a1565b81146200161657600080fd5b5056fe60806040526000600160156101000a81548160ff021916908360028111156200002457fe5b02179055503480156200003657600080fd5b50604051620015c6380380620015c683398181016040528101906200005c9190620001a8565b83600260006101000a81548173ffffffffffffffffffffffffffffffffffffffff021916908373ffffffffffffffffffffffffffffffffffffffff160217905550826000806101000a81548173ffffffffffffffffffffffffffffffffffffffff021916908373ffffffffffffffffffffffffffffffffffffffff16021790555081600160006101000a81548173ffffffffffffffffffffffffffffffffffffffff021916908373ffffffffffffffffffffffffffffffffffffffff16021790555080600160146101000a81548160ff021916908360038111156200013d57fe5b021790555050505050620002e3565b6000815190506200015d8162000284565b92915050565b60008151905062000174816200029e565b92915050565b6000815190506200018b81620002b8565b92915050565b600081519050620001a281620002d2565b92915050565b60008060008060808587031215620001bf57600080fd5b6000620001cf878288016200014c565b9450506020620001e28782880162000163565b9350506040620001f5878288016200017a565b9250506060620002088782880162000191565b91505092959194509250565b6000620002218262000264565b9050919050565b6000620002358262000214565b9050919050565b6000620002498262000214565b9050919050565b60006200025d8262000214565b9050919050565b600073ffffffffffffffffffffffffffffffffffffffff82169050919050565b6200028f8162000228565b81146200029b57600080fd5b50565b620002a9816200023c565b8114620002b557600080fd5b50565b620002c38162000250565b8114620002cf57600080fd5b50565b60048110620002e057600080fd5b50565b6112d380620002f36000396000f3fe60806040526004361061007b5760003560e01c8063d1384eb61161004e578063d1384eb6146100ea578063f35d710214610115578063f929dba714610140578063fc66c5d31461015c5761007b565b80631080d5f81461008057806312424e3f146100ab578063200d2ed2146100b55780634dc415de146100e0575b600080fd5b34801561008c57600080fd5b50610095610199565b6040516100a29190610f79565b60405180910390f35b6100b36101bd565b005b3480156100c157600080fd5b506100ca610651565b6040516100d79190610fca565b60405180910390f35b6100e8610664565b005b3480156100f657600080fd5b506100ff61092a565b60405161010c9190610f94565b60405180910390f35b34801561012157600080fd5b5061012a610950565b6040516101379190610faf565b60405180910390f35b61015a60048036038101906101559190610d43565b610963565b005b34801561016857600080fd5b50610183600480360381019061017e9190610c9f565b610aa2565b6040516101909190610f1a565b60405180910390f35b60008054906101000a900473ffffffffffffffffffffffffffffffffffffffff1681565b6101c633610aa2565b80156102795750600160009054906101000a900473ffffffffffffffffffffffffffffffffffffffff1673ffffffffffffffffffffffffffffffffffffffff1663d63a8e11336040518263ffffffff1660e01b81526004016102289190610eff565b60206040518083038186803b15801561024057600080fd5b505afa158015610254573d6000803e3d6000fd5b505050506040513d601f19601f820116820180604052508101906102789190610cc8565b5b1561064f5760018060156101000a81548160ff0219169083600281111561029c57fe5b021790555060008054906101000a900473ffffffffffffffffffffffffffffffffffffffff1673ffffffffffffffffffffffffffffffffffffffff1663781dd72230336040518363ffffffff1660e01b81526004016102fc929190610f50565b600060405180830381600087803b15801561031657600080fd5b505af115801561032a573d6000803e3d6000fd5b50505050600160009054906101000a900473ffffffffffffffffffffffffffffffffffffffff1673ffffffffffffffffffffffffffffffffffffffff1663781dd72230336040518363ffffffff1660e01b815260040161038b929190610f50565b600060405180830381600087803b1580156103a557600080fd5b505af11580156103b9573d6000803e3d6000fd5b50505050600260009054906101000a900473ffffffffffffffffffffffffffffffffffffffff1673ffffffffffffffffffffffffffffffffffffffff166326e4ca826040518163ffffffff1660e01b815260040160206040518083038186803b15801561042557600080fd5b505afa158015610439573d6000803e3d6000fd5b505050506040513d601f19601f8201168201806040525081019061045d9190610cf1565b73ffffffffffffffffffffffffffffffffffffffff1663ff25025b6040518163ffffffff1660e01b815260040160206040518083038186803b1580156104a257600080fd5b505afa1580156104b6573d6000803e3d6000fd5b505050506040513d601f19601f820116820180604052508101906104da9190610d1a565b73ffffffffffffffffffffffffffffffffffffffff16634069e45d306040518263ffffffff1660e01b81526004016105129190610f35565b600060405180830381600087803b15801561052c57600080fd5b505af1158015610540573d6000803e3d6000fd5b50505050600260009054906101000a900473ffffffffffffffffffffffffffffffffffffffff1673ffffffffffffffffffffffffffffffffffffffff166326e4ca826040518163ffffffff1660e01b815260040160206040518083038186803b1580156105ac57600080fd5b505afa1580156105c0573d6000803e3d6000fd5b505050506040513d601f19601f820116820180604052508101906105e49190610cf1565b73ffffffffffffffffffffffffffffffffffffffff166363441ab2306040518263ffffffff1660e01b815260040161061c9190611067565b600060405180830381600087803b15801561063657600080fd5b505af115801561064a573d6000803e3d6000fd5b505050505b565b600160159054906101000a900460ff1681565b61066d33610aa2565b15610928576002600160156101000a81548160ff0219169083600281111561069157fe5b0217905550600260009054906101000a900473ffffffffffffffffffffffffffffffffffffffff1673ffffffffffffffffffffffffffffffffffffffff166326e4ca826040518163ffffffff1660e01b815260040160206040518083038186803b1580156106fe57600080fd5b505afa158015610712573d6000803e3d6000fd5b505050506040513d601f19601f820116820180604052508101906107369190610cf1565b73ffffffffffffffffffffffffffffffffffffffff1663ff25025b6040518163ffffffff1660e01b815260040160206040518083038186803b15801561077b57600080fd5b505afa15801561078f573d6000803e3d6000fd5b505050506040513d601f19601f820116820180604052508101906107b39190610d1a565b73ffffffffffffffffffffffffffffffffffffffff16634069e45d306040518263ffffffff1660e01b81526004016107eb9190610f35565b600060405180830381600087803b15801561080557600080fd5b505af1158015610819573d6000803e3d6000fd5b50505050600260009054906101000a900473ffffffffffffffffffffffffffffffffffffffff1673ffffffffffffffffffffffffffffffffffffffff166326e4ca826040518163ffffffff1660e01b815260040160206040518083038186803b15801561088557600080fd5b505afa158015610899573d6000803e3d6000fd5b505050506040513d601f19601f820116820180604052508101906108bd9190610cf1565b73ffffffffffffffffffffffffffffffffffffffff166363441ab2306040518263ffffffff1660e01b81526004016108f59190611026565b600060405180830381600087803b15801561090f57600080fd5b505af1158015610923573d6000803e3d6000fd5b505050505b565b600160009054906101000a900473ffffffffffffffffffffffffffffffffffffffff1681565b600160149054906101000a900460ff1681565b61096c33610aa2565b15610a9f5780600160146101000a81548160ff0219169083600381111561098f57fe5b0217905550600260009054906101000a900473ffffffffffffffffffffffffffffffffffffffff1673ffffffffffffffffffffffffffffffffffffffff166326e4ca826040518163ffffffff1660e01b815260040160206040518083038186803b1580156109fc57600080fd5b505afa158015610a10573d6000803e3d6000fd5b505050506040513d601f19601f82011682018060405250810190610a349190610cf1565b73ffffffffffffffffffffffffffffffffffffffff166363441ab2306040518263ffffffff1660e01b8152600401610a6c9190610fe5565b600060405180830381600087803b158015610a8657600080fd5b505af1158015610a9a573d6000803e3d6000fd5b505050505b50565b6000806002811115610ab057fe5b600160159054906101000a900460ff166002811115610acb57fe5b148015610b7f5750600160009054906101000a900473ffffffffffffffffffffffffffffffffffffffff1673ffffffffffffffffffffffffffffffffffffffff1663d63a8e11836040518263ffffffff1660e01b8152600401610b2e9190610ee4565b60206040518083038186803b158015610b4657600080fd5b505afa158015610b5a573d6000803e3d6000fd5b505050506040513d601f19601f82011682018060405250810190610b7e9190610cc8565b5b80610c2f575060008054906101000a900473ffffffffffffffffffffffffffffffffffffffff1673ffffffffffffffffffffffffffffffffffffffff1663d63a8e11836040518263ffffffff1660e01b8152600401610bde9190610ee4565b60206040518083038186803b158015610bf657600080fd5b505afa158015610c0a573d6000803e3d6000fd5b505050506040513d601f19601f82011682018060405250810190610c2e9190610cc8565b5b9050919050565b600081359050610c4581611231565b92915050565b600081519050610c5a81611248565b92915050565b600081519050610c6f8161125f565b92915050565b600081519050610c8481611276565b92915050565b600081359050610c998161128d565b92915050565b600060208284031215610cb157600080fd5b6000610cbf84828501610c36565b91505092915050565b600060208284031215610cda57600080fd5b6000610ce884828501610c4b565b91505092915050565b600060208284031215610d0357600080fd5b6000610d1184828501610c60565b91505092915050565b600060208284031215610d2c57600080fd5b6000610d3a84828501610c75565b91505092915050565b600060208284031215610d5557600080fd5b6000610d6384828501610c8a565b91505092915050565b610d7581611141565b82525050565b610d84816110b9565b82525050565b610d93816110cb565b82525050565b610da281611153565b82525050565b610db181611177565b82525050565b610dc08161119b565b82525050565b610dcf816111bf565b82525050565b610dde816111d1565b82525050565b6000610df16012836110a8565b91507f5550444154455f434552544946494341544500000000000000000000000000006000830152602082019050919050565b6000610e31600b836110a8565b91507f43455254494649434154450000000000000000000000000000000000000000006000830152602082019050919050565b6000610e716012836110a8565b91507f52454a4563545f434552544946494341544500000000000000000000000000006000830152602082019050919050565b6000610eb16013836110a8565b91507f415050524f56455f4345525449464943415445000000000000000000000000006000830152602082019050919050565b6000602082019050610ef96000830184610d7b565b92915050565b6000602082019050610f146000830184610d6c565b92915050565b6000602082019050610f2f6000830184610d8a565b92915050565b6000602082019050610f4a6000830184610d99565b92915050565b6000604082019050610f656000830185610d99565b610f726020830184610d6c565b9392505050565b6000602082019050610f8e6000830184610da8565b92915050565b6000602082019050610fa96000830184610db7565b92915050565b6000602082019050610fc46000830184610dc6565b92915050565b6000602082019050610fdf6000830184610dd5565b92915050565b60006060820190508181036000830152610ffe81610de4565b9050818103602083015261101181610e24565b90506110206040830184610d7b565b92915050565b6000606082019050818103600083015261103f81610e64565b9050818103602083015261105281610e24565b90506110616040830184610d7b565b92915050565b6000606082019050818103600083015261108081610ea4565b9050818103602083015261109381610e24565b90506110a26040830184610d7b565b92915050565b600082825260208201905092915050565b60006110c482611121565b9050919050565b60008115159050919050565b60006110e2826110b9565b9050919050565b60006110f4826110b9565b9050919050565b600081905061110982611209565b919050565b600081905061111c8261121d565b919050565b600073ffffffffffffffffffffffffffffffffffffffff82169050919050565b600061114c826111e3565b9050919050565b600061115e82611165565b9050919050565b600061117082611121565b9050919050565b600061118282611189565b9050919050565b600061119482611121565b9050919050565b60006111a6826111ad565b9050919050565b60006111b882611121565b9050919050565b60006111ca826110fb565b9050919050565b60006111dc8261110e565b9050919050565b60006111ee826111f5565b9050919050565b600061120082611121565b9050919050565bfe5b6004811061121a57611219611207565b5b50565b6003811061122e5761122d611207565b5b50565b61123a816110b9565b811461124557600080fd5b50565b611251816110cb565b811461125c57600080fd5b50565b611268816110d7565b811461127357600080fd5b50565b61127f816110e9565b811461128a57600080fd5b50565b6004811061129a57600080fd5b5056fea264697066735822122075ab368b40cb8b10c299ecf0a097d347b0db1ac32b64248eb2ba4f3755e603a264736f6c63430007050033a264697066735822122048b9aa3d969f010d2520b7b7d699f08d1ae95fb653543219a10290299ded269e64736f6c634300070500336080604052600060035534801561001557600080fd5b5060405161294f38038061294f83398181016040528101906100379190610092565b806000806101000a81548173ffffffffffffffffffffffffffffffffffffffff021916908373ffffffffffffffffffffffffffffffffffffffff16021790555050610116565b60008151905061008c816100ff565b92915050565b6000602082840312156100a457600080fd5b60006100b28482850161007d565b91505092915050565b60006100c6826100df565b9050919050565b60006100d8826100bb565b9050919050565b600073ffffffffffffffffffffffffffffffffffffffff82169050919050565b610108816100cd565b811461011357600080fd5b50565b61282a806101256000396000f3fe608060405260043610620000505760003560e01c806326e4ca8214620000555780633269389a146200008557806381a0677714620000b5578063b5fdf25214620000d5578063ee84ab761462000119575b600080fd5b3480156200006257600080fd5b506200006d6200015d565b6040516200007c9190620007f2565b60405180910390f35b3480156200009257600080fd5b506200009d62000181565b604051620000ac9190620008c7565b60405180910390f35b620000d36004803603810190620000cd9190620005aa565b6200018b565b005b348015620000e257600080fd5b50620001016004803603810190620000fb91906200057e565b620003dd565b60405162000110919062000863565b60405180910390f35b3480156200012657600080fd5b506200014560048036038101906200013f9190620005ef565b62000410565b604051620001549190620007d4565b60405180910390f35b60008054906101000a900473ffffffffffffffffffffffffffffffffffffffff1681565b6000600354905090565b600073ffffffffffffffffffffffffffffffffffffffff16600160003373ffffffffffffffffffffffffffffffffffffffff1673ffffffffffffffffffffffffffffffffffffffff16815260200190815260200160002060009054906101000a900473ffffffffffffffffffffffffffffffffffffffff1673ffffffffffffffffffffffffffffffffffffffff161415620003da576000600360008154809291906001019190505590506000308284336040516200024990620004c3565b6200025894939291906200080f565b604051809103906000f08015801562000275573d6000803e3d6000fd5b509050806002600084815260200190815260200160002060006101000a81548173ffffffffffffffffffffffffffffffffffffffff021916908373ffffffffffffffffffffffffffffffffffffffff16021790555080600160003373ffffffffffffffffffffffffffffffffffffffff1673ffffffffffffffffffffffffffffffffffffffff16815260200190815260200160002060006101000a81548173ffffffffffffffffffffffffffffffffffffffff021916908373ffffffffffffffffffffffffffffffffffffffff16021790555060008054906101000a900473ffffffffffffffffffffffffffffffffffffffff1673ffffffffffffffffffffffffffffffffffffffff166363441ab2826040518263ffffffff1660e01b8152600401620003a3919062000880565b600060405180830381600087803b158015620003be57600080fd5b505af1158015620003d3573d6000803e3d6000fd5b5050505050505b50565b60016020528060005260406000206000915054906101000a900473ffffffffffffffffffffffffffffffffffffffff1681565b6200041a620004d1565b62000424620004d1565b60005b600a811015620004b95760026000858301815260200190815260200160002060009054906101000a900473ffffffffffffffffffffffffffffffffffffffff168282600a81106200047457fe5b602002019073ffffffffffffffffffffffffffffffffffffffff16908173ffffffffffffffffffffffffffffffffffffffff1681525050808060010191505062000427565b5080915050919050565b611ce28062000b1383390190565b604051806101400160405280600a90602082028036833780820191505090505090565b600081359050620005058162000ade565b92915050565b600082601f8301126200051d57600080fd5b8135620005346200052e8262000918565b620008e4565b915080825260208301602083018583830111156200055157600080fd5b6200055e83828462000a86565b50505092915050565b600081359050620005788162000af8565b92915050565b6000602082840312156200059157600080fd5b6000620005a184828501620004f4565b91505092915050565b600060208284031215620005bd57600080fd5b600082013567ffffffffffffffff811115620005d857600080fd5b620005e6848285016200050b565b91505092915050565b6000602082840312156200060257600080fd5b6000620006128482850162000567565b91505092915050565b6000620006298383620006dc565b60208301905092915050565b6200064081620009d2565b82525050565b620006518162000994565b82525050565b620006628162000955565b6200066e818462000978565b92506200067b826200094b565b8060005b83811015620006b25781516200069687826200061b565b9650620006a3836200096b565b9250506001810190506200067f565b505050505050565b620006c581620009e6565b82525050565b620006d68162000a0e565b82525050565b620006e78162000a36565b82525050565b620006f88162000a36565b82525050565b60006200070b8262000960565b62000717818562000983565b93506200072981856020860162000a95565b620007348162000acd565b840191505092915050565b60006200074e600e8362000983565b91507f4352454154455f464143554c54590000000000000000000000000000000000006000830152602082019050919050565b60006200079060078362000983565b91507f464143554c5459000000000000000000000000000000000000000000000000006000830152602082019050919050565b620007ce81620009c8565b82525050565b600061014082019050620007ec600083018462000657565b92915050565b6000602082019050620008096000830184620006ba565b92915050565b6000608082019050620008266000830187620006cb565b620008356020830186620007c3565b8181036040830152620008498185620006fe565b90506200085a606083018462000635565b95945050505050565b60006020820190506200087a6000830184620006ed565b92915050565b600060608201905081810360008301526200089b816200073f565b90508181036020830152620008b08162000781565b9050620008c1604083018462000646565b92915050565b6000602082019050620008de6000830184620007c3565b92915050565b6000604051905081810181811067ffffffffffffffff821117156200090e576200090d62000acb565b5b8060405250919050565b600067ffffffffffffffff82111562000936576200093562000acb565b5b601f19601f8301169050602081019050919050565b6000819050919050565b6000600a9050919050565b600081519050919050565b6000602082019050919050565b600081905092915050565b600082825260208201905092915050565b6000620009a182620009a8565b9050919050565b600073ffffffffffffffffffffffffffffffffffffffff82169050919050565b6000819050919050565b6000620009df8262000a5e565b9050919050565b6000620009f382620009fa565b9050919050565b600062000a0782620009a8565b9050919050565b600062000a1b8262000a22565b9050919050565b600062000a2f82620009a8565b9050919050565b600062000a438262000a4a565b9050919050565b600062000a5782620009a8565b9050919050565b600062000a6b8262000a72565b9050919050565b600062000a7f82620009a8565b9050919050565b82818337600083830152505050565b60005b8381101562000ab557808201518184015260208101905062000a98565b8381111562000ac5576000848401525b50505050565bfe5b6000601f19601f8301169050919050565b62000ae98162000994565b811462000af557600080fd5b50565b62000b0381620009c8565b811462000b0f57600080fd5b5056fe60806040523480156200001157600080fd5b5060405162001ce238038062001ce283398181016040528101906200003791906200023a565b83600560006101000a81548173ffffffffffffffffffffffffffffffffffffffff021916908373ffffffffffffffffffffffffffffffffffffffff160217905550816001908051906020019062000090929190620000e3565b508260008190555080600260006101000a81548173ffffffffffffffffffffffffffffffffffffffff021916908373ffffffffffffffffffffffffffffffffffffffff16021790555050505050620003fe565b828054600181600116156101000203166002900490600052602060002090601f0160209004810192826200011b576000855562000167565b82601f106200013657805160ff191683800117855562000167565b8280016001018555821562000167579182015b828111156200016657825182559160200191906001019062000149565b5b5090506200017691906200017a565b5090565b5b80821115620001955760008160009055506001016200017b565b5090565b600081519050620001aa81620003b0565b92915050565b600081519050620001c181620003ca565b92915050565b600082601f830112620001d957600080fd5b8151620001f0620001ea82620002f3565b620002bf565b915080825260208301602083018583830111156200020d57600080fd5b6200021a83828462000378565b50505092915050565b6000815190506200023481620003e4565b92915050565b600080600080608085870312156200025157600080fd5b60006200026187828801620001b0565b9450506020620002748782880162000223565b935050604085015167ffffffffffffffff8111156200029257600080fd5b620002a087828801620001c7565b9250506060620002b38782880162000199565b91505092959194509250565b6000604051905081810181811067ffffffffffffffff82111715620002e957620002e8620003ae565b5b8060405250919050565b600067ffffffffffffffff821115620003115762000310620003ae565b5b601f19601f8301169050602081019050919050565b600062000333826200034e565b9050919050565b6000620003478262000326565b9050919050565b600073ffffffffffffffffffffffffffffffffffffffff82169050919050565b6000819050919050565b60005b83811015620003985780820151818401526020810190506200037b565b83811115620003a8576000848401525b50505050565bfe5b620003bb8162000326565b8114620003c757600080fd5b50565b620003d5816200033a565b8114620003e157600080fd5b50565b620003ef816200036e565b8114620003fb57600080fd5b50565b6118d4806200040e6000396000f3fe60806040526004361061009c5760003560e01c8063781dd72211610064578063781dd7221461017b5780638da5cb5b14610197578063ad41b39b146101c2578063d63a8e11146101ed578063d90c137e1461022a578063e08b2ab6146102465761009c565b806306fdde03146100a15780633d7403a3146100cc5780634e8ef753146100e85780635822cb3114610113578063663b3e221461013e575b600080fd5b3480156100ad57600080fd5b506100b6610283565b6040516100c391906114ae565b60405180910390f35b6100e660048036038101906100e19190611154565b610321565b005b3480156100f457600080fd5b506100fd610454565b60405161010a9190611493565b60405180910390f35b34801561011f57600080fd5b5061012861047a565b6040516101359190611552565b60405180910390f35b34801561014a57600080fd5b5061016560048036038101906101609190611195565b610626565b6040516101729190611434565b60405180910390f35b61019560048036038101906101909190611074565b610665565b005b3480156101a357600080fd5b506101ac610a35565b6040516101b991906113c7565b60405180910390f35b3480156101ce57600080fd5b506101d7610a5b565b6040516101e49190611552565b60405180910390f35b3480156101f957600080fd5b50610214600480360381019061020f9190610fcf565b610a68565b6040516102219190611419565b60405180910390f35b610244600480360381019061023f9190610fcf565b610ac2565b005b34801561025257600080fd5b5061026d60048036038101906102689190611195565b610b9b565b60405161027a91906113fd565b60405180910390f35b60018054600181600116156101000203166002900480601f0160208091040260200160405190810160405280929190818152602001828054600181600116156101000203166002900480156103195780601f106102ee57610100808354040283529160200191610319565b820191906000526020600020905b8154815290600101906020018083116102fc57829003601f168201915b505050505081565b61032a33610a68565b15610451578060019080519060200190610345929190610d52565b50600560009054906101000a900473ffffffffffffffffffffffffffffffffffffffff1673ffffffffffffffffffffffffffffffffffffffff166326e4ca826040518163ffffffff1660e01b815260040160206040518083038186803b1580156103ae57600080fd5b505afa1580156103c2573d6000803e3d6000fd5b505050506040513d601f19601f820116820180604052508101906103e6919061104b565b73ffffffffffffffffffffffffffffffffffffffff166363441ab2306040518263ffffffff1660e01b815260040161041e91906114d0565b600060405180830381600087803b15801561043857600080fd5b505af115801561044c573d6000803e3d6000fd5b505050505b50565b600460009054906101000a900473ffffffffffffffffffffffffffffffffffffffff1681565b6000600560009054906101000a900473ffffffffffffffffffffffffffffffffffffffff1673ffffffffffffffffffffffffffffffffffffffff166326e4ca826040518163ffffffff1660e01b815260040160206040518083038186803b1580156104e457600080fd5b505afa1580156104f8573d6000803e3d6000fd5b505050506040513d601f19601f8201168201806040525081019061051c919061104b565b73ffffffffffffffffffffffffffffffffffffffff1663ff25025b6040518163ffffffff1660e01b815260040160206040518083038186803b15801561056157600080fd5b505afa158015610575573d6000803e3d6000fd5b505050506040513d601f19601f8201168201806040525081019061059991906110b0565b73ffffffffffffffffffffffffffffffffffffffff16639a2393f6306040518263ffffffff1660e01b81526004016105d1919061144f565b60206040518083038186803b1580156105e957600080fd5b505afa1580156105fd573d6000803e3d6000fd5b505050506040513d601f19601f8201168201806040525081019061062191906111be565b905090565b6003818154811061063657600080fd5b906000526020600020016000915054906101000a900473ffffffffffffffffffffffffffffffffffffffff1681565b8173ffffffffffffffffffffffffffffffffffffffff1663d1384eb66040518163ffffffff1660e01b815260040160206040518083038186803b1580156106ab57600080fd5b505afa1580156106bf573d6000803e3d6000fd5b505050506040513d601f19601f820116820180604052508101906106e39190611102565b73ffffffffffffffffffffffffffffffffffffffff1663d63a8e11826040518263ffffffff1660e01b815260040161071b91906113c7565b60206040518083038186803b15801561073357600080fd5b505afa158015610747573d6000803e3d6000fd5b505050506040513d601f19601f8201168201806040525081019061076b9190611022565b801561080a57506001600281111561077f57fe5b8273ffffffffffffffffffffffffffffffffffffffff1663200d2ed26040518163ffffffff1660e01b815260040160206040518083038186803b1580156107c557600080fd5b505afa1580156107d9573d6000803e3d6000fd5b505050506040513d601f19601f820116820180604052508101906107fd919061112b565b600281111561080857fe5b145b80156108be57503073ffffffffffffffffffffffffffffffffffffffff168273ffffffffffffffffffffffffffffffffffffffff16631080d5f86040518163ffffffff1660e01b815260040160206040518083038186803b15801561086e57600080fd5b505afa158015610882573d6000803e3d6000fd5b505050506040513d601f19601f820116820180604052508101906108a691906110d9565b73ffffffffffffffffffffffffffffffffffffffff16145b15610a31576003829080600181540180825580915050600190039060005260206000200160009091909190916101000a81548173ffffffffffffffffffffffffffffffffffffffff021916908373ffffffffffffffffffffffffffffffffffffffff160217905550600560009054906101000a900473ffffffffffffffffffffffffffffffffffffffff1673ffffffffffffffffffffffffffffffffffffffff166326e4ca826040518163ffffffff1660e01b815260040160206040518083038186803b15801561098e57600080fd5b505afa1580156109a2573d6000803e3d6000fd5b505050506040513d601f19601f820116820180604052508101906109c6919061104b565b73ffffffffffffffffffffffffffffffffffffffff166363441ab2306040518263ffffffff1660e01b81526004016109fe9190611511565b600060405180830381600087803b158015610a1857600080fd5b505af1158015610a2c573d6000803e3d6000fd5b505050505b5050565b600260009054906101000a900473ffffffffffffffffffffffffffffffffffffffff1681565b6000600380549050905090565b6000600260009054906101000a900473ffffffffffffffffffffffffffffffffffffffff1673ffffffffffffffffffffffffffffffffffffffff168273ffffffffffffffffffffffffffffffffffffffff16149050919050565b60008190508073ffffffffffffffffffffffffffffffffffffffff1663d63a8e11336040518263ffffffff1660e01b8152600401610b0091906113e2565b60206040518083038186803b158015610b1857600080fd5b505afa158015610b2c573d6000803e3d6000fd5b505050506040513d601f19601f82011682018060405250810190610b509190611022565b15610b975780600460006101000a81548173ffffffffffffffffffffffffffffffffffffffff021916908373ffffffffffffffffffffffffffffffffffffffff1602179055505b5050565b610ba3610de0565b600560009054906101000a900473ffffffffffffffffffffffffffffffffffffffff1673ffffffffffffffffffffffffffffffffffffffff166326e4ca826040518163ffffffff1660e01b815260040160206040518083038186803b158015610c0b57600080fd5b505afa158015610c1f573d6000803e3d6000fd5b505050506040513d601f19601f82011682018060405250810190610c43919061104b565b73ffffffffffffffffffffffffffffffffffffffff1663ff25025b6040518163ffffffff1660e01b815260040160206040518083038186803b158015610c8857600080fd5b505afa158015610c9c573d6000803e3d6000fd5b505050506040513d601f19601f82011682018060405250810190610cc091906110b0565b73ffffffffffffffffffffffffffffffffffffffff1663da60f30d30846040518363ffffffff1660e01b8152600401610cfa92919061146a565b6101406040518083038186803b158015610d1357600080fd5b505afa158015610d27573d6000803e3d6000fd5b505050506040513d601f19601f82011682018060405250810190610d4b9190610ff8565b9050919050565b828054600181600116156101000203166002900490600052602060002090601f016020900481019282610d885760008555610dcf565b82601f10610da157805160ff1916838001178555610dcf565b82800160010185558215610dcf579182015b82811115610dce578251825591602001919060010190610db3565b5b509050610ddc9190610e03565b5090565b604051806101400160405280600a90602082028036833780820191505090505090565b5b80821115610e1c576000816000905550600101610e04565b5090565b600081359050610e2f816117d6565b92915050565b600082601f830112610e4657600080fd5b600a610e59610e548261159e565b61156d565b91508183856020840282011115610e6f57600080fd5b60005b83811015610e9f5781610e858882610ee8565b845260208401935060208301925050600181019050610e72565b5050505092915050565b600081519050610eb8816117ed565b92915050565b600081519050610ecd81611804565b92915050565b600081359050610ee28161181b565b92915050565b600081519050610ef78161181b565b92915050565b600081519050610f0c81611832565b92915050565b600081519050610f2181611849565b92915050565b600081519050610f3681611860565b92915050565b600081519050610f4b81611877565b92915050565b600082601f830112610f6257600080fd5b8135610f75610f70826115c4565b61156d565b91508082526020830160208301858383011115610f9157600080fd5b610f9c838284611781565b50505092915050565b600081359050610fb481611887565b92915050565b600081519050610fc981611887565b92915050565b600060208284031215610fe157600080fd5b6000610fef84828501610e20565b91505092915050565b6000610140828403121561100b57600080fd5b600061101984828501610e35565b91505092915050565b60006020828403121561103457600080fd5b600061104284828501610ea9565b91505092915050565b60006020828403121561105d57600080fd5b600061106b84828501610ebe565b91505092915050565b6000806040838503121561108757600080fd5b600061109585828601610ed3565b92505060206110a685828601610e20565b9150509250929050565b6000602082840312156110c257600080fd5b60006110d084828501610efd565b91505092915050565b6000602082840312156110eb57600080fd5b60006110f984828501610f12565b91505092915050565b60006020828403121561111457600080fd5b600061112284828501610f27565b91505092915050565b60006020828403121561113d57600080fd5b600061114b84828501610f3c565b91505092915050565b60006020828403121561116657600080fd5b600082013567ffffffffffffffff81111561118057600080fd5b61118c84828501610f51565b91505092915050565b6000602082840312156111a757600080fd5b60006111b584828501610fa5565b91505092915050565b6000602082840312156111d057600080fd5b60006111de84828501610fba565b91505092915050565b60006111f38383611283565b60208301905092915050565b611208816116df565b82525050565b6112178161163d565b82525050565b611226816115fe565b6112308184611621565b925061123b826115f4565b8060005b8381101561126c57815161125387826111e7565b965061125e83611614565b92505060018101905061123f565b505050505050565b61127d8161164f565b82525050565b61128c816116f1565b82525050565b61129b816116f1565b82525050565b6112aa81611715565b82525050565b6112b981611739565b82525050565b60006112ca82611609565b6112d4818561162c565b93506112e4818560208601611790565b6112ed816117c5565b840191505092915050565b6000611305600e8361162c565b91507f5550444154455f464143554c54590000000000000000000000000000000000006000830152602082019050919050565b6000611345600f8361162c565b91507f4144445f434552544946494341544500000000000000000000000000000000006000830152602082019050919050565b600061138560078361162c565b91507f464143554c5459000000000000000000000000000000000000000000000000006000830152602082019050919050565b6113c1816116d5565b82525050565b60006020820190506113dc600083018461120e565b92915050565b60006020820190506113f760008301846111ff565b92915050565b600061014082019050611413600083018461121d565b92915050565b600060208201905061142e6000830184611274565b92915050565b60006020820190506114496000830184611292565b92915050565b600060208201905061146460008301846112a1565b92915050565b600060408201905061147f60008301856112a1565b61148c60208301846113b8565b9392505050565b60006020820190506114a860008301846112b0565b92915050565b600060208201905081810360008301526114c881846112bf565b905092915050565b600060608201905081810360008301526114e9816112f8565b905081810360208301526114fc81611378565b905061150b604083018461120e565b92915050565b6000606082019050818103600083015261152a81611338565b9050818103602083015261153d81611378565b905061154c604083018461120e565b92915050565b600060208201905061156760008301846113b8565b92915050565b6000604051905081810181811067ffffffffffffffff82111715611594576115936117c3565b5b8060405250919050565b600067ffffffffffffffff8211156115b9576115b86117c3565b5b602082029050919050565b600067ffffffffffffffff8211156115df576115de6117c3565b5b601f19601f8301169050602081019050919050565b6000819050919050565b6000600a9050919050565b600081519050919050565b6000602082019050919050565b600081905092915050565b600082825260208201905092915050565b6000611648826116b5565b9050919050565b60008115159050919050565b60006116668261163d565b9050919050565b60006116788261163d565b9050919050565b600061168a8261163d565b9050919050565b600061169c8261163d565b9050919050565b60006116ae8261163d565b9050919050565b600073ffffffffffffffffffffffffffffffffffffffff82169050919050565b6000819050919050565b60006116ea8261175d565b9050919050565b60006116fc82611703565b9050919050565b600061170e826116b5565b9050919050565b600061172082611727565b9050919050565b6000611732826116b5565b9050919050565b60006117448261174b565b9050919050565b6000611756826116b5565b9050919050565b60006117688261176f565b9050919050565b600061177a826116b5565b9050919050565b82818337600083830152505050565b60005b838110156117ae578082015181840152602081019050611793565b838111156117bd576000848401525b50505050565bfe5b6000601f19601f8301169050919050565b6117df8161163d565b81146117ea57600080fd5b50565b6117f68161164f565b811461180157600080fd5b50565b61180d8161165b565b811461181857600080fd5b50565b6118248161166d565b811461182f57600080fd5b50565b61183b8161167f565b811461184657600080fd5b50565b61185281611691565b811461185d57600080fd5b50565b611869816116a3565b811461187457600080fd5b50565b6003811061188457600080fd5b50565b611890816116d5565b811461189b57600080fd5b5056fea26469706673582212202a228bd35ae3a130c8cf6f68102e76609ef0e1661fa982328aa31b4af44ed69964736f6c63430007050033a2646970667358221220864b21804c4093a04bd0be9198dcec6d49f61404a7b85c3b6c1e0ebf1271822664736f6c634300070500336080604052600060025534801561001557600080fd5b5060405161398838038061398883398181016040528101906100379190610092565b806000806101000a81548173ffffffffffffffffffffffffffffffffffffffff021916908373ffffffffffffffffffffffffffffffffffffffff16021790555050610116565b60008151905061008c816100ff565b92915050565b6000602082840312156100a457600080fd5b60006100b28482850161007d565b91505092915050565b60006100c6826100df565b9050919050565b60006100d8826100bb565b9050919050565b600073ffffffffffffffffffffffffffffffffffffffff82169050919050565b610108816100cd565b811461011357600080fd5b50565b613863806101256000396000f3fe608060405260043610620000505760003560e01c8063029bf701146200005557806326e4ca82146200007557806377104d9214620000a557806386906afa14620000e9578063c3b59d001462000119575b600080fd5b6200007360048036038101906200006d919062000453565b6200015d565b005b3480156200008257600080fd5b506200008d6200029b565b6040516200009c91906200069b565b60405180910390f35b348015620000b257600080fd5b50620000d16004803603810190620000cb919062000498565b620002bf565b604051620000e091906200067d565b60405180910390f35b348015620000f657600080fd5b506200010162000372565b60405162000110919062000770565b60405180910390f35b3480156200012657600080fd5b506200014560048036038101906200013f919062000498565b6200037c565b6040516200015491906200070c565b60405180910390f35b6000600260008154809291906001019190505590506000308284336040516200018690620003af565b620001959493929190620006b8565b604051809103906000f080158015620001b2573d6000803e3d6000fd5b509050806001600084815260200190815260200160002060006101000a81548173ffffffffffffffffffffffffffffffffffffffff021916908373ffffffffffffffffffffffffffffffffffffffff16021790555060008054906101000a900473ffffffffffffffffffffffffffffffffffffffff1673ffffffffffffffffffffffffffffffffffffffff166363441ab2826040518263ffffffff1660e01b815260040162000262919062000729565b600060405180830381600087803b1580156200027d57600080fd5b505af115801562000292573d6000803e3d6000fd5b50505050505050565b60008054906101000a900473ffffffffffffffffffffffffffffffffffffffff1681565b620002c9620003bd565b620002d3620003bd565b60005b600a811015620003685760016000858301815260200190815260200160002060009054906101000a900473ffffffffffffffffffffffffffffffffffffffff168282600a81106200032357fe5b602002019073ffffffffffffffffffffffffffffffffffffffff16908173ffffffffffffffffffffffffffffffffffffffff16815250508080600101915050620002d6565b5080915050919050565b6000600254905090565b60016020528060005260406000206000915054906101000a900473ffffffffffffffffffffffffffffffffffffffff1681565b612e8c80620009a283390190565b604051806101400160405280600a90602082028036833780820191505090505090565b600082601f830112620003f257600080fd5b8135620004096200040382620007c1565b6200078d565b915080825260208301602083018583830111156200042657600080fd5b620004338382846200092f565b50505092915050565b6000813590506200044d8162000987565b92915050565b6000602082840312156200046657600080fd5b600082013567ffffffffffffffff8111156200048157600080fd5b6200048f84828501620003e0565b91505092915050565b600060208284031215620004ab57600080fd5b6000620004bb848285016200043c565b91505092915050565b6000620004d2838362000585565b60208301905092915050565b620004e9816200087b565b82525050565b620004fa816200083d565b82525050565b6200050b81620007fe565b62000517818462000821565b92506200052482620007f4565b8060005b838110156200055b5781516200053f8782620004c4565b96506200054c8362000814565b92505060018101905062000528565b505050505050565b6200056e816200088f565b82525050565b6200057f81620008b7565b82525050565b6200059081620008df565b82525050565b620005a181620008df565b82525050565b6000620005b48262000809565b620005c081856200082c565b9350620005d28185602086016200093e565b620005dd8162000976565b840191505092915050565b6000620005f76012836200082c565b91507f4352454154455f494e535449545554494f4e00000000000000000000000000006000830152602082019050919050565b600062000639600b836200082c565b91507f494e535449545554494f4e0000000000000000000000000000000000000000006000830152602082019050919050565b620006778162000871565b82525050565b60006101408201905062000695600083018462000500565b92915050565b6000602082019050620006b2600083018462000563565b92915050565b6000608082019050620006cf600083018762000574565b620006de60208301866200066c565b8181036040830152620006f28185620005a7565b9050620007036060830184620004de565b95945050505050565b600060208201905062000723600083018462000596565b92915050565b600060608201905081810360008301526200074481620005e8565b9050818103602083015262000759816200062a565b90506200076a6040830184620004ef565b92915050565b60006020820190506200078760008301846200066c565b92915050565b6000604051905081810181811067ffffffffffffffff82111715620007b757620007b662000974565b5b8060405250919050565b600067ffffffffffffffff821115620007df57620007de62000974565b5b601f19601f8301169050602081019050919050565b6000819050919050565b6000600a9050919050565b600081519050919050565b6000602082019050919050565b600081905092915050565b600082825260208201905092915050565b60006200084a8262000851565b9050919050565b600073ffffffffffffffffffffffffffffffffffffffff82169050919050565b6000819050919050565b6000620008888262000907565b9050919050565b60006200089c82620008a3565b9050919050565b6000620008b08262000851565b9050919050565b6000620008c482620008cb565b9050919050565b6000620008d88262000851565b9050919050565b6000620008ec82620008f3565b9050919050565b6000620009008262000851565b9050919050565b600062000914826200091b565b9050919050565b6000620009288262000851565b9050919050565b82818337600083830152505050565b60005b838110156200095e57808201518184015260208101905062000941565b838111156200096e576000848401525b50505050565bfe5b6000601f19601f8301169050919050565b620009928162000871565b81146200099e57600080fd5b5056fe608060405260016008553480156200001657600080fd5b5060405162002e8c38038062002e8c83398181016040528101906200003c9190620002fa565b83600460006101000a81548173ffffffffffffffffffffffffffffffffffffffff021916908373ffffffffffffffffffffffffffffffffffffffff1602179055508260008190555081600190805190602001906200009c929190620001a3565b5080600260006101000a81548173ffffffffffffffffffffffffffffffffffffffff021916908373ffffffffffffffffffffffffffffffffffffffff1602179055506005819080600181540180825580915050600190039060005260206000200160009091909190916101000a81548173ffffffffffffffffffffffffffffffffffffffff021916908373ffffffffffffffffffffffffffffffffffffffff1602179055506001600660008373ffffffffffffffffffffffffffffffffffffffff1673ffffffffffffffffffffffffffffffffffffffff16815260200190815260200160002060006101000a81548160ff02191690831515021790555050505050620004be565b828054600181600116156101000203166002900490600052602060002090601f016020900481019282620001db576000855562000227565b82601f10620001f657805160ff191683800117855562000227565b8280016001018555821562000227579182015b828111156200022657825182559160200191906001019062000209565b5b5090506200023691906200023a565b5090565b5b80821115620002555760008160009055506001016200023b565b5090565b6000815190506200026a8162000470565b92915050565b60008151905062000281816200048a565b92915050565b600082601f8301126200029957600080fd5b8151620002b0620002aa82620003b3565b6200037f565b91508082526020830160208301858383011115620002cd57600080fd5b620002da83828462000438565b50505092915050565b600081519050620002f481620004a4565b92915050565b600080600080608085870312156200031157600080fd5b6000620003218782880162000270565b94505060206200033487828801620002e3565b935050604085015167ffffffffffffffff8111156200035257600080fd5b620003608782880162000287565b9250506060620003738782880162000259565b91505092959194509250565b6000604051905081810181811067ffffffffffffffff82111715620003a957620003a86200046e565b5b8060405250919050565b600067ffffffffffffffff821115620003d157620003d06200046e565b5b601f19601f8301169050602081019050919050565b6000620003f3826200040e565b9050919050565b60006200040782620003e6565b9050919050565b600073ffffffffffffffffffffffffffffffffffffffff82169050919050565b6000819050919050565b60005b83811015620004585780820151818401526020810190506200043b565b8381111562000468576000848401525b50505050565bfe5b6200047b81620003e6565b81146200048757600080fd5b50565b6200049581620003fa565b8114620004a157600080fd5b50565b620004af816200042e565b8114620004bb57600080fd5b50565b6129be80620004ce6000396000f3fe60806040526004361061012a5760003560e01c80636bd5b694116100ab578063af640d0f1161006f578063af640d0f146103d2578063c16ebe5a146103fd578063d2e3f3b714610419578063d63a8e1114610456578063e08b2ab614610493578063eafb96bd146104d05761012a565b80636bd5b6941461030757806370927f7814610344578063781dd7221461036f5780638da5cb5b1461038b578063a013fe30146103b65761012a565b80633d7403a3116100f25780633d7403a31461023c5780634225674d1461025857806344e538ae146102955780635822cb31146102c0578063636558a5146102eb5761012a565b8063068d81741461012f57806306fdde031461016c57806308e0018b14610197578063262e025b146101d45780633c98ccee14610211575b600080fd5b34801561013b57600080fd5b5061015660048036038101906101519190611e9c565b6104ec565b6040516101639190612402565b60405180910390f35b34801561017857600080fd5b5061018161052b565b60405161018e91906124d6565b60405180910390f35b3480156101a357600080fd5b506101be60048036038101906101b99190611d15565b6105c9565b6040516101cb9190612477565b60405180910390f35b3480156101e057600080fd5b506101fb60048036038101906101f69190611e9c565b610689565b604051610208919061263d565b60405180910390f35b34801561021d57600080fd5b5061022661077d565b604051610233919061265f565b60405180910390f35b61025660048036038101906102519190611e5b565b61078a565b005b34801561026457600080fd5b5061027f600480360381019061027a9190611eee565b6107b3565b60405161028c9190612455565b60405180910390f35b3480156102a157600080fd5b506102aa61094d565b6040516102b7919061265f565b60405180910390f35b3480156102cc57600080fd5b506102d561095a565b6040516102e2919061265f565b60405180910390f35b61030560048036038101906103009190611e5b565b610b06565b005b34801561031357600080fd5b5061032e60048036038101906103299190611e9c565b610c8f565b60405161033b9190612439565b60405180910390f35b34801561035057600080fd5b50610359610d5a565b604051610366919061265f565b60405180910390f35b61038960048036038101906103849190611da4565b610d67565b005b34801561039757600080fd5b506103a061103a565b6040516103ad9190612402565b60405180910390f35b6103d060048036038101906103cb9190611cec565b611060565b005b3480156103de57600080fd5b506103e761128d565b6040516103f4919061265f565b60405180910390f35b61041760048036038101906104129190611f2a565b611293565b005b34801561042557600080fd5b50610440600480360381019061043b9190611e9c565b6113fe565b60405161044d919061241d565b60405180910390f35b34801561046257600080fd5b5061047d60048036038101906104789190611cec565b6114c6565b60405161048a9190612477565b60405180910390f35b34801561049f57600080fd5b506104ba60048036038101906104b59190611e9c565b6114da565b6040516104c79190612439565b60405180910390f35b6104ea60048036038101906104e59190611cec565b611691565b005b600581815481106104fc57600080fd5b906000526020600020016000915054906101000a900473ffffffffffffffffffffffffffffffffffffffff1681565b60018054600181600116156101000203166002900480601f0160208091040260200160405190810160405280929190818152602001828054600181600116156101000203166002900480156105c15780601f10610596576101008083540402835291602001916105c1565b820191906000526020600020905b8154815290600101906020018083116105a457829003601f168201915b505050505081565b60006105d4836114c6565b1561067e578173ffffffffffffffffffffffffffffffffffffffff168373ffffffffffffffffffffffffffffffffffffffff1614156106165760009050610683565b600260009054906101000a900473ffffffffffffffffffffffffffffffffffffffff1673ffffffffffffffffffffffffffffffffffffffff168273ffffffffffffffffffffffffffffffffffffffff1614156106755760009050610683565b60019050610683565b600090505b92915050565b610691611a10565b6007600083815260200190815260200160002060405180606001604052908160008201548152602001600182018054600181600116156101000203166002900480601f0160208091040260200160405190810160405280929190818152602001828054600181600116156101000203166002900480156107525780601f1061072757610100808354040283529160200191610752565b820191906000526020600020905b81548152906001019060200180831161073557829003601f168201915b505050505081526020016002820160009054906101000a900460ff1615151515815250509050919050565b6000600580549050905090565b610793336114c6565b156107b05780600190805190602001906107ae929190611a33565b505b50565b6107bb611ac1565b6107c3611ac1565b60005b600a8110156109425760018582010160085410156107e757600a9050610935565b83801561081a575060076000600187840101815260200190815260200160002060020160009054906101000a900460ff16155b15610835578480600101955050808060019003915050610934565b60076000600187840101815260200190815260200160002060405180606001604052908160008201548152602001600182018054600181600116156101000203166002900480601f0160208091040260200160405190810160405280929190818152602001828054600181600116156101000203166002900480156108fb5780601f106108d0576101008083540402835291602001916108fb565b820191906000526020600020905b8154815290600101906020018083116108de57829003601f168201915b505050505081526020016002820160009054906101000a900460ff1615151515815250508282600a811061092b57fe5b60200201819052505b5b80806001019150506107c6565b508091505092915050565b6000600160085403905090565b6000600460009054906101000a900473ffffffffffffffffffffffffffffffffffffffff1673ffffffffffffffffffffffffffffffffffffffff166326e4ca826040518163ffffffff1660e01b815260040160206040518083038186803b1580156109c457600080fd5b505afa1580156109d8573d6000803e3d6000fd5b505050506040513d601f19601f820116820180604052508101906109fc9190611d7b565b73ffffffffffffffffffffffffffffffffffffffff1663ff25025b6040518163ffffffff1660e01b815260040160206040518083038186803b158015610a4157600080fd5b505afa158015610a55573d6000803e3d6000fd5b505050506040513d601f19601f82011682018060405250810190610a799190611de0565b73ffffffffffffffffffffffffffffffffffffffff1663910b70cc306040518263ffffffff1660e01b8152600401610ab19190612492565b60206040518083038186803b158015610ac957600080fd5b505afa158015610add573d6000803e3d6000fd5b505050506040513d601f19601f82011682018060405250810190610b019190611ec5565b905090565b610b0f336114c6565b15610c8c57600060086000815480929190600101919050559050600060076000838152602001908152602001600020905081816000018190555082816001019080519060200190610b61929190611a33565b5060018160020160006101000a81548160ff021916908315150217905550600460009054906101000a900473ffffffffffffffffffffffffffffffffffffffff1673ffffffffffffffffffffffffffffffffffffffff166326e4ca826040518163ffffffff1660e01b815260040160206040518083038186803b158015610be757600080fd5b505afa158015610bfb573d6000803e3d6000fd5b505050506040513d601f19601f82011682018060405250810190610c1f9190611d7b565b73ffffffffffffffffffffffffffffffffffffffff166363441ab2306040518263ffffffff1660e01b8152600401610c579190612539565b600060405180830381600087803b158015610c7157600080fd5b505af1158015610c85573d6000803e3d6000fd5b5050505050505b50565b610c97611aef565b610c9f611aef565b6000808490505b60038054905081108015610cba5750600a82105b15610d4f5760038181548110610ccc57fe5b9060005260206000200160009054906101000a900473ffffffffffffffffffffffffffffffffffffffff168383600a8110610d0357fe5b602002019073ffffffffffffffffffffffffffffffffffffffff16908173ffffffffffffffffffffffffffffffffffffffff168152505081806001019250508080600101915050610ca6565b508192505050919050565b6000600380549050905090565b610d70816114c6565b8015610e0f575060016002811115610d8457fe5b8273ffffffffffffffffffffffffffffffffffffffff1663200d2ed26040518163ffffffff1660e01b815260040160206040518083038186803b158015610dca57600080fd5b505afa158015610dde573d6000803e3d6000fd5b505050506040513d601f19601f82011682018060405250810190610e029190611e32565b6002811115610e0d57fe5b145b8015610ec357503073ffffffffffffffffffffffffffffffffffffffff168273ffffffffffffffffffffffffffffffffffffffff1663d1384eb66040518163ffffffff1660e01b815260040160206040518083038186803b158015610e7357600080fd5b505afa158015610e87573d6000803e3d6000fd5b505050506040513d601f19601f82011682018060405250810190610eab9190611e09565b73ffffffffffffffffffffffffffffffffffffffff16145b15611036576003829080600181540180825580915050600190039060005260206000200160009091909190916101000a81548173ffffffffffffffffffffffffffffffffffffffff021916908373ffffffffffffffffffffffffffffffffffffffff160217905550600460009054906101000a900473ffffffffffffffffffffffffffffffffffffffff1673ffffffffffffffffffffffffffffffffffffffff166326e4ca826040518163ffffffff1660e01b815260040160206040518083038186803b158015610f9357600080fd5b505afa158015610fa7573d6000803e3d6000fd5b505050506040513d601f19601f82011682018060405250810190610fcb9190611d7b565b73ffffffffffffffffffffffffffffffffffffffff166363441ab2306040518263ffffffff1660e01b815260040161100391906125fc565b600060405180830381600087803b15801561101d57600080fd5b505af1158015611031573d6000803e3d6000fd5b505050505b5050565b600260009054906101000a900473ffffffffffffffffffffffffffffffffffffffff1681565b611069336114c6565b80156110bf5750600660008273ffffffffffffffffffffffffffffffffffffffff1673ffffffffffffffffffffffffffffffffffffffff16815260200190815260200160002060009054906101000a900460ff16155b1561128a576005819080600181540180825580915050600190039060005260206000200160009091909190916101000a81548173ffffffffffffffffffffffffffffffffffffffff021916908373ffffffffffffffffffffffffffffffffffffffff1602179055506001600660008373ffffffffffffffffffffffffffffffffffffffff1673ffffffffffffffffffffffffffffffffffffffff16815260200190815260200160002060006101000a81548160ff021916908315150217905550600460009054906101000a900473ffffffffffffffffffffffffffffffffffffffff1673ffffffffffffffffffffffffffffffffffffffff166326e4ca826040518163ffffffff1660e01b815260040160206040518083038186803b1580156111e757600080fd5b505afa1580156111fb573d6000803e3d6000fd5b505050506040513d601f19601f8201168201806040525081019061121f9190611d7b565b73ffffffffffffffffffffffffffffffffffffffff166363441ab2306040518263ffffffff1660e01b815260040161125791906124f8565b600060405180830381600087803b15801561127157600080fd5b505af1158015611285573d6000803e3d6000fd5b505050505b50565b60005481565b61129c336114c6565b156113f9576000600760008581526020019081526020016000209050828160010190805190602001906112d0929190611a33565b50818160020160006101000a81548160ff021916908315150217905550600460009054906101000a900473ffffffffffffffffffffffffffffffffffffffff1673ffffffffffffffffffffffffffffffffffffffff166326e4ca826040518163ffffffff1660e01b815260040160206040518083038186803b15801561135557600080fd5b505afa158015611369573d6000803e3d6000fd5b505050506040513d601f19601f8201168201806040525081019061138d9190611d7b565b73ffffffffffffffffffffffffffffffffffffffff166363441ab2306040518263ffffffff1660e01b81526004016113c5919061257a565b600060405180830381600087803b1580156113df57600080fd5b505af11580156113f3573d6000803e3d6000fd5b50505050505b505050565b611406611b12565b61140e611b12565b60005b600a8110156114bc576005805490508482011061143157600a90506114af565b60058482018154811061144057fe5b9060005260206000200160009054906101000a900473ffffffffffffffffffffffffffffffffffffffff168282600a811061147757fe5b602002019073ffffffffffffffffffffffffffffffffffffffff16908173ffffffffffffffffffffffffffffffffffffffff16815250505b8080600101915050611411565b5080915050919050565b60006114d382600061196b565b9050919050565b6114e2611aef565b600460009054906101000a900473ffffffffffffffffffffffffffffffffffffffff1673ffffffffffffffffffffffffffffffffffffffff166326e4ca826040518163ffffffff1660e01b815260040160206040518083038186803b15801561154a57600080fd5b505afa15801561155e573d6000803e3d6000fd5b505050506040513d601f19601f820116820180604052508101906115829190611d7b565b73ffffffffffffffffffffffffffffffffffffffff1663ff25025b6040518163ffffffff1660e01b815260040160206040518083038186803b1580156115c757600080fd5b505afa1580156115db573d6000803e3d6000fd5b505050506040513d601f19601f820116820180604052508101906115ff9190611de0565b73ffffffffffffffffffffffffffffffffffffffff1663ad7a592f30846040518363ffffffff1660e01b81526004016116399291906124ad565b6101406040518083038186803b15801561165257600080fd5b505afa158015611666573d6000803e3d6000fd5b505050506040513d601f19601f8201168201806040525081019061168a9190611d51565b9050919050565b61169b33826105c9565b156119685760005b60058054905081101561180d578173ffffffffffffffffffffffffffffffffffffffff16600582815481106116d457fe5b9060005260206000200160009054906101000a900473ffffffffffffffffffffffffffffffffffffffff1673ffffffffffffffffffffffffffffffffffffffff1614156118005760006001600580549050039050808210156117be576005818154811061173d57fe5b9060005260206000200160009054906101000a900473ffffffffffffffffffffffffffffffffffffffff166005838154811061177557fe5b9060005260206000200160006101000a81548173ffffffffffffffffffffffffffffffffffffffff021916908373ffffffffffffffffffffffffffffffffffffffff1602179055505b60058054806117c957fe5b6001900381819060005260206000200160006101000a81549073ffffffffffffffffffffffffffffffffffffffff02191690559055505b80806001019150506116a3565b50600660008273ffffffffffffffffffffffffffffffffffffffff1673ffffffffffffffffffffffffffffffffffffffff16815260200190815260200160002060006101000a81549060ff0219169055600460009054906101000a900473ffffffffffffffffffffffffffffffffffffffff1673ffffffffffffffffffffffffffffffffffffffff166326e4ca826040518163ffffffff1660e01b815260040160206040518083038186803b1580156118c557600080fd5b505afa1580156118d9573d6000803e3d6000fd5b505050506040513d601f19601f820116820180604052508101906118fd9190611d7b565b73ffffffffffffffffffffffffffffffffffffffff166363441ab2306040518263ffffffff1660e01b815260040161193591906125bb565b600060405180830381600087803b15801561194f57600080fd5b505af1158015611963573d6000803e3d6000fd5b505050505b50565b60006005828154811061197a57fe5b9060005260206000200160009054906101000a900473ffffffffffffffffffffffffffffffffffffffff1673ffffffffffffffffffffffffffffffffffffffff168373ffffffffffffffffffffffffffffffffffffffff1614156119e15760019050611a0a565b600160058054905003821015611a05576119fe836001840161196b565b9050611a0a565b600090505b92915050565b604051806060016040528060008152602001606081526020016000151581525090565b828054600181600116156101000203166002900490600052602060002090601f016020900481019282611a695760008555611ab0565b82601f10611a8257805160ff1916838001178555611ab0565b82800160010185558215611ab0579182015b82811115611aaf578251825591602001919060010190611a94565b5b509050611abd9190611b35565b5090565b604051806101400160405280600a905b611ad9611a10565b815260200190600190039081611ad15790505090565b604051806101400160405280600a90602082028036833780820191505090505090565b604051806101400160405280600a90602082028036833780820191505090505090565b5b80821115611b4e576000816000905550600101611b36565b5090565b600081359050611b61816128d7565b92915050565b600082601f830112611b7857600080fd5b600a611b8b611b86826126ab565b61267a565b91508183856020840282011115611ba157600080fd5b60005b83811015611bd15781611bb78882611c1a565b845260208401935060208301925050600181019050611ba4565b5050505092915050565b600081359050611bea816128ee565b92915050565b600081519050611bff81612905565b92915050565b600081359050611c148161291c565b92915050565b600081519050611c298161291c565b92915050565b600081519050611c3e81612933565b92915050565b600081519050611c538161294a565b92915050565b600081519050611c6881612961565b92915050565b600082601f830112611c7f57600080fd5b8135611c92611c8d826126d1565b61267a565b91508082526020830160208301858383011115611cae57600080fd5b611cb9838284612882565b50505092915050565b600081359050611cd181612971565b92915050565b600081519050611ce681612971565b92915050565b600060208284031215611cfe57600080fd5b6000611d0c84828501611b52565b91505092915050565b60008060408385031215611d2857600080fd5b6000611d3685828601611b52565b9250506020611d4785828601611b52565b9150509250929050565b60006101408284031215611d6457600080fd5b6000611d7284828501611b67565b91505092915050565b600060208284031215611d8d57600080fd5b6000611d9b84828501611bf0565b91505092915050565b60008060408385031215611db757600080fd5b6000611dc585828601611c05565b9250506020611dd685828601611b52565b9150509250929050565b600060208284031215611df257600080fd5b6000611e0084828501611c2f565b91505092915050565b600060208284031215611e1b57600080fd5b6000611e2984828501611c44565b91505092915050565b600060208284031215611e4457600080fd5b6000611e5284828501611c59565b91505092915050565b600060208284031215611e6d57600080fd5b600082013567ffffffffffffffff811115611e8757600080fd5b611e9384828501611c6e565b91505092915050565b600060208284031215611eae57600080fd5b6000611ebc84828501611cc2565b91505092915050565b600060208284031215611ed757600080fd5b6000611ee584828501611cd7565b91505092915050565b60008060408385031215611f0157600080fd5b6000611f0f85828601611cc2565b9250506020611f2085828601611bdb565b9150509250929050565b600080600060608486031215611f3f57600080fd5b6000611f4d86828701611cc2565b935050602084013567ffffffffffffffff811115611f6a57600080fd5b611f7686828701611c6e565b9250506040611f8786828701611bdb565b9150509250925092565b6000611f9d8383611fd5565b60208301905092915050565b6000611fb58383612134565b60208301905092915050565b6000611fcd8383612344565b905092915050565b611fde816127aa565b82525050565b611fed816127aa565b82525050565b611ffc8161271f565b6120068184612772565b925061201182612701565b8060005b838110156120425781516120298782611f91565b96506120348361274b565b925050600181019050612015565b505050505050565b6120538161272a565b61205d8184612772565b92506120688261270b565b8060005b838110156120995781516120808782611fa9565b965061208b83612758565b92505060018101905061206c565b505050505050565b60006120ac82612735565b6120b6818561277d565b9350836020820285016120c885612715565b8060005b8581101561210457848403895281516120e58582611fc1565b94506120f083612765565b925060208a019950506001810190506120cc565b50829750879550505050505092915050565b61211f816127bc565b82525050565b61212e816127bc565b82525050565b61213d8161283a565b82525050565b61214c8161285e565b82525050565b600061215d82612740565b6121678185612788565b9350612177818560208601612891565b612180816128c6565b840191505092915050565b600061219682612740565b6121a08185612799565b93506121b0818560208601612891565b6121b9816128c6565b840191505092915050565b60006121d1601883612799565b91507f4144445f4d4f4449464945525f494e535449545554494f4e00000000000000006000830152602082019050919050565b6000612211601c83612799565b91507f4144445f53544146465f4d454d4245525f494e535449545554494f4e000000006000830152602082019050919050565b6000612251600b83612799565b91507f494e535449545554494f4e0000000000000000000000000000000000000000006000830152602082019050919050565b6000612291601f83612799565b91507f5550444154455f53544146465f4d454d4245525f494e535449545554494f4e006000830152602082019050919050565b60006122d1601b83612799565b91507f52454d4f56455f4d4f4449464945525f494e535449545554494f4e00000000006000830152602082019050919050565b6000612311601b83612799565b91507f4144445f43455254494649434154455f494e535449545554494f4e00000000006000830152602082019050919050565b600060608301600083015161235c60008601826123e4565b50602083015184820360208601526123748282612152565b91505060408301516123896040860182612116565b508091505092915050565b60006060830160008301516123ac60008601826123e4565b50602083015184820360208601526123c48282612152565b91505060408301516123d96040860182612116565b508091505092915050565b6123ed81612830565b82525050565b6123fc81612830565b82525050565b60006020820190506124176000830184611fe4565b92915050565b6000610140820190506124336000830184611ff3565b92915050565b60006101408201905061244f600083018461204a565b92915050565b6000602082019050818103600083015261246f81846120a1565b905092915050565b600060208201905061248c6000830184612125565b92915050565b60006020820190506124a76000830184612143565b92915050565b60006040820190506124c26000830185612143565b6124cf60208301846123f3565b9392505050565b600060208201905081810360008301526124f0818461218b565b905092915050565b60006060820190508181036000830152612511816121c4565b9050818103602083015261252481612244565b90506125336040830184611fe4565b92915050565b6000606082019050818103600083015261255281612204565b9050818103602083015261256581612244565b90506125746040830184611fe4565b92915050565b6000606082019050818103600083015261259381612284565b905081810360208301526125a681612244565b90506125b56040830184611fe4565b92915050565b600060608201905081810360008301526125d4816122c4565b905081810360208301526125e781612244565b90506125f66040830184611fe4565b92915050565b6000606082019050818103600083015261261581612304565b9050818103602083015261262881612244565b90506126376040830184611fe4565b92915050565b600060208201905081810360008301526126578184612394565b905092915050565b600060208201905061267460008301846123f3565b92915050565b6000604051905081810181811067ffffffffffffffff821117156126a1576126a06128c4565b5b8060405250919050565b600067ffffffffffffffff8211156126c6576126c56128c4565b5b602082029050919050565b600067ffffffffffffffff8211156126ec576126eb6128c4565b5b601f19601f8301169050602081019050919050565b6000819050919050565b6000819050919050565b6000819050919050565b6000600a9050919050565b6000600a9050919050565b6000600a9050919050565b600081519050919050565b6000602082019050919050565b6000602082019050919050565b6000602082019050919050565b600081905092915050565b600081905092915050565b600082825260208201905092915050565b600082825260208201905092915050565b60006127b582612810565b9050919050565b60008115159050919050565b60006127d3826127aa565b9050919050565b60006127e5826127aa565b9050919050565b60006127f7826127aa565b9050919050565b6000612809826127aa565b9050919050565b600073ffffffffffffffffffffffffffffffffffffffff82169050919050565b6000819050919050565b60006128458261284c565b9050919050565b600061285782612810565b9050919050565b600061286982612870565b9050919050565b600061287b82612810565b9050919050565b82818337600083830152505050565b60005b838110156128af578082015181840152602081019050612894565b838111156128be576000848401525b50505050565bfe5b6000601f19601f8301169050919050565b6128e0816127aa565b81146128eb57600080fd5b50565b6128f7816127bc565b811461290257600080fd5b50565b61290e816127c8565b811461291957600080fd5b50565b612925816127da565b811461293057600080fd5b50565b61293c816127ec565b811461294757600080fd5b50565b612953816127fe565b811461295e57600080fd5b50565b6003811061296e57600080fd5b50565b61297a81612830565b811461298557600080fd5b5056fea2646970667358221220d75aeddd07c69a0e5a3ed33b96b50214f33b9dd2cc8de338456b4d5770dc282e64736f6c63430007050033a26469706673582212203c6b42aeeeb794d5e84c082afd8b5ef03d95524fe92330bd98117bfcf2de719664736f6c63430007050033",
  "immutableReferences": {},
  "source": "// SPDX-License-Identifier: GPL-3.0\npragma solidity >=0.5.0 <0.8.0;\npragma abicoder v2;\nenum Degree {\n    ScholarlyAcademics,\n    PracticeAcademics,\n    ScholarlyPractitioner,\n    InstructionalPractitioner\n}\n\ncontract Certificate {\n    enum State {requested, approved, rejected}\n\n    Faculty public faculty;\n    Institution public institution;\n    Degree public degree;\n    State public status = State.requested;\n    CertificatesManager certificatesManager;\n\n    constructor(\n        CertificatesManager _certificatesManager,\n        Faculty _faculty,\n        Institution _institution,\n        Degree _degree\n    ) {\n        certificatesManager = _certificatesManager;\n        faculty = _faculty;\n        institution = _institution;\n        degree = _degree;\n    }\n\n    function update(Degree _degree) public payable {\n        if (editable(msg.sender)) {\n            degree = _degree;\n            certificatesManager.application().emitEvent(\n                \"UPDATE_CERTIFICATE\",\n                \"CERTIFICATE\",\n                address(this)\n            );\n        }\n    }\n\n    function reject() public payable {\n        if (editable(msg.sender)) {\n            status = State.rejected;\n            certificatesManager\n                .application()\n                .certificatesManager()\n                .removeCertificate(this);\n            certificatesManager.application().emitEvent(\n                \"REJEcT_CERTIFICATE\",\n                \"CERTIFICATE\",\n                address(this)\n            );\n        }\n    }\n\n    function approve() public payable {\n        if (editable(msg.sender) && institution.allowed(msg.sender)) {\n            status = State.approved;\n            faculty.addCertificate(this, msg.sender);\n            institution.addCertificate(this, msg.sender);\n            certificatesManager\n                .application()\n                .certificatesManager()\n                .removeCertificate(this);\n            certificatesManager.application().emitEvent(\n                \"APPROVE_CERTIFICATE\",\n                \"CERTIFICATE\",\n                address(this)\n            );\n        }\n    }\n\n    function editable(address _address) public view returns (bool) {\n        return ((status == State.requested &&\n            (institution.allowed(_address))) || faculty.allowed(_address));\n    }\n}\n\ncontract Faculty {\n    uint256 id;\n    string public name;\n    address public owner;\n    Certificate[] public certificates;\n    Institution public currentInstitution;\n    FacultiesManager facultiesManager;\n\n    constructor(\n        FacultiesManager _facultiesManager,\n        uint256 _id,\n        string memory _name,\n        address _owner\n    ) {\n        facultiesManager = _facultiesManager;\n        name = _name;\n        id = _id;\n        owner = _owner;\n    }\n\n    function update(string memory _name) public payable {\n        if (allowed(msg.sender)) {\n            name = _name;\n            facultiesManager.application().emitEvent(\n                \"UPDATE_FACULTY\",\n                \"FACULTY\",\n                address(this)\n            );\n        }\n    }\n\n    function assignInstitution(address _institutionAddress) public payable {\n        Institution _institution = Institution(_institutionAddress);\n        if (_institution.allowed(msg.sender)) {\n            currentInstitution = _institution;\n        }\n    }\n\n    function allowed(address _address) public view returns (bool) {\n        return _address == owner;\n    }\n\n    function addCertificate(Certificate _certificate, address _address)\n        public\n        payable\n    {\n        if (\n            _certificate.institution().allowed(_address) &&\n            _certificate.status() == Certificate.State.approved &&\n            _certificate.faculty() == this\n        ) {\n            certificates.push(_certificate);\n            facultiesManager.application().emitEvent(\n                \"ADD_CERTIFICATE\",\n                \"FACULTY\",\n                address(this)\n            );\n        }\n    }\n\n    function certificatesLength() public view returns (uint256) {\n        return certificates.length;\n    }\n\n    function pendingCertificatesLength() public view returns (uint256) {\n        return\n            facultiesManager\n                .application()\n                .certificatesManager()\n                .pendingCertificateLengthForFaculty(this);\n    }\n\n    function pendingCertificates(uint256 _from)\n        public\n        view\n        returns (Certificate[10] memory)\n    {\n        return\n            facultiesManager\n                .application()\n                .certificatesManager()\n                .pendingCertificateForFaculty(this, _from);\n    }\n}\n\ncontract Institution {\n    struct StaffMember {\n        uint256 id;\n        string name;\n        bool active;\n    }\n\n    uint256 public id;\n    string public name;\n    address public owner;\n\n    Certificate[] certificates;\n    InstituionsManager instituionsManager;\n    address[] public allowedModifiers;\n    mapping(address => bool) allowedModifiersMap;\n\n    mapping(uint256 => StaffMember) staffMembers;\n    uint256 nextStaffMembersId = 1;\n\n    mapping(uint256 => Faculty) faculties;\n    uint256 nextFacultyId;\n\n    constructor(\n        InstituionsManager _instituionsManager,\n        uint256 _id,\n        string memory _name,\n        address sender\n    ) {\n        instituionsManager = _instituionsManager;\n        id = _id;\n        name = _name;\n        owner = sender;\n        allowedModifiers.push(sender);\n        allowedModifiersMap[sender] = true;\n    }\n\n    function update(string memory _name) public payable {\n        if (allowed(msg.sender)) {\n            name = _name;\n        }\n    }\n\n    function staffMember(uint256 _from)\n        public\n        view\n        returns (StaffMember memory)\n    {\n        return staffMembers[_from];\n    }\n\n    function listStaffMembers(uint256 _from, bool skipInactive)\n        public\n        view\n        returns (StaffMember[10] memory)\n    {\n        StaffMember[10] memory list;\n        for (uint256 i = 0; i < 10; i++) {\n            if (nextStaffMembersId < i + _from + 1) {\n                i = 10;\n            } else if (skipInactive && !staffMembers[i + _from + 1].active) {\n                _from++;\n                i--;\n            } else {\n                list[i] = staffMembers[i + _from + 1];\n            }\n        }\n        return list;\n    }\n\n    function staffMembersLength() public view returns (uint256) {\n        return nextStaffMembersId - 1;\n    }\n\n    function createStaffMember(string memory _name) public payable {\n        if (allowed(msg.sender)) {\n            uint256 _nextStaffMemberId = nextStaffMembersId++;\n            StaffMember storage _staffMember = staffMembers[_nextStaffMemberId];\n            _staffMember.id = _nextStaffMemberId;\n            _staffMember.name = _name;\n            _staffMember.active = true;\n            instituionsManager.application().emitEvent(\n                \"ADD_STAFF_MEMBER_INSTITUTION\",\n                \"INSTITUTION\",\n                address(this)\n            );\n        }\n    }\n\n    function updateStaffMember(\n        uint256 _staffMemberId,\n        string memory _name,\n        bool _active\n    ) public payable {\n        if (allowed(msg.sender)) {\n            StaffMember storage _staffMember = staffMembers[_staffMemberId];\n            _staffMember.name = _name;\n            _staffMember.active = _active;\n            instituionsManager.application().emitEvent(\n                \"UPDATE_STAFF_MEMBER_INSTITUTION\",\n                \"INSTITUTION\",\n                address(this)\n            );\n        }\n    }\n\n    function listModifiers(uint256 _from)\n        public\n        view\n        returns (address[10] memory)\n    {\n        address[10] memory list;\n        for (uint256 i = 0; i < 10; i++) {\n            if (i + _from >= allowedModifiers.length) {\n                i = 10;\n            } else {\n                list[i] = allowedModifiers[i + _from];\n            }\n        }\n        return list;\n    }\n\n    function modifiersLength() public view returns (uint256) {\n        return allowedModifiers.length;\n    }\n\n    function addModifier(address _modifier) public payable {\n        if (allowed(msg.sender) && !allowedModifiersMap[_modifier]) {\n            allowedModifiers.push(_modifier);\n            allowedModifiersMap[_modifier] = true;\n            instituionsManager.application().emitEvent(\n                \"ADD_MODIFIER_INSTITUTION\",\n                \"INSTITUTION\",\n                address(this)\n            );\n        }\n    }\n\n    function removeModifier(address _modifier) public payable {\n        if (allowedToRemove(msg.sender, _modifier)) {\n            for (uint256 i = 0; i < allowedModifiers.length; i++) {\n                if (allowedModifiers[i] == _modifier) {\n                    uint256 _lastIndex = allowedModifiers.length - 1;\n                    if (i < _lastIndex) {\n                        allowedModifiers[i] = allowedModifiers[_lastIndex];\n                    }\n                    allowedModifiers.pop();\n                }\n            }\n            delete allowedModifiersMap[_modifier];\n            instituionsManager.application().emitEvent(\n                \"REMOVE_MODIFIER_INSTITUTION\",\n                \"INSTITUTION\",\n                address(this)\n            );\n        }\n    }\n\n    function allowedToRemove(address _sender, address _toRemove)\n        public\n        view\n        returns (bool)\n    {\n        if (allowed(_sender)) {\n            if (_sender == _toRemove) {\n                return false;\n            } else if (_toRemove == owner) {\n                return false;\n            } else {\n                return true;\n            }\n        } else {\n            return false;\n        }\n    }\n\n    function allowed(address _modifierAddress) public view returns (bool) {\n        return allowed(_modifierAddress, 0);\n    }\n\n    function allowed(address modifierAddress, uint256 index)\n        private\n        view\n        returns (bool)\n    {\n        if (modifierAddress == allowedModifiers[index]) {\n            return true;\n        } else if (index < allowedModifiers.length - 1) {\n            return allowed(modifierAddress, index + 1);\n        } else {\n            return false;\n        }\n    }\n\n    function addCertificate(Certificate _certificate, address _address)\n        public\n        payable\n    {\n        if (\n            allowed(_address) &&\n            _certificate.status() == Certificate.State.approved &&\n            _certificate.institution() == this\n        ) {\n            certificates.push(_certificate);\n            instituionsManager.application().emitEvent(\n                \"ADD_CERTIFICATE_INSTITUTION\",\n                \"INSTITUTION\",\n                address(this)\n            );\n        }\n    }\n\n    function issuedCertificates(uint256 _from)\n        public\n        view\n        returns (Certificate[10] memory)\n    {\n        Certificate[10] memory _list;\n        uint256 _count = 0;\n        for (uint256 i = _from; i < certificates.length && _count < 10; i++) {\n            _list[_count] = certificates[i];\n            _count++;\n        }\n        return _list;\n    }\n\n    function issuedCertificatesLength() public view returns (uint256) {\n        return certificates.length;\n    }\n\n    function pendingCertificatesLength() public view returns (uint256) {\n        return\n            instituionsManager\n                .application()\n                .certificatesManager()\n                .pendingCertificateLengthForInstitution(this);\n    }\n\n    function pendingCertificates(uint256 _from)\n        public\n        view\n        returns (Certificate[10] memory)\n    {\n        return\n            instituionsManager\n                .application()\n                .certificatesManager()\n                .pendingCertificateForInstitution(this, _from);\n    }\n}\n\ncontract CertificatesManager {\n    Certificate[] pendingCertificates;\n    Application public application;\n\n    constructor(Application _application) {\n        application = _application;\n    }\n\n    function requestCertificate(\n        Faculty _faculty,\n        Institution _institution,\n        Degree _degree\n    ) public payable {\n        Certificate _certificate =\n            new Certificate(this, _faculty, _institution, _degree);\n        pendingCertificates.push(_certificate);\n        application.emitEvent(\n            \"REQUEST_CERTIFICATE\",\n            \"INSTITUTION\",\n            address(_institution)\n        );\n        application.emitEvent(\n            \"REQUEST_CERTIFICATE\",\n            \"FACULTY\",\n            address(_faculty)\n        );\n    }\n\n    function removeCertificate(Certificate _certificate) public payable {\n        for (uint256 i = 0; i < pendingCertificates.length; i++) {\n            if (pendingCertificates[i] == _certificate) {\n                uint256 _lastIndex = pendingCertificates.length - 1;\n                if (i < _lastIndex) {\n                    pendingCertificates[i] = pendingCertificates[_lastIndex];\n                }\n                pendingCertificates.pop();\n            }\n        }\n        application.emitEvent(\n            \"CERTIFICATE_REMOVE\",\n            \"INSTITUTION\",\n            address(_certificate.institution())\n        );\n        application.emitEvent(\n            \"CERTIFICATE_REMOVE\",\n            \"FACULTY\",\n            address(_certificate.faculty())\n        );\n    }\n\n    function pendingCertificateLengthForFaculty(Faculty _faculty)\n        public\n        view\n        returns (uint256)\n    {\n        uint256 _count = 0;\n        for (uint256 i = 0; i < pendingCertificates.length; i++) {\n            if (pendingCertificates[i].faculty() == _faculty) {\n                _count++;\n            }\n        }\n        return _count;\n    }\n\n    function pendingCertificateForFaculty(Faculty _faculty, uint256 _from)\n        public\n        view\n        returns (Certificate[10] memory)\n    {\n        Certificate[10] memory _list;\n        uint256 _count = 0;\n        uint256 _toSkip = 0;\n        for (\n            uint256 i = 0;\n            i < pendingCertificates.length && _count <= 10;\n            i++\n        ) {\n            if (pendingCertificates[i].faculty() == _faculty) {\n                if (_toSkip >= _from) {\n                    _list[_count] = pendingCertificates[i];\n                    _count++;\n                }\n                _toSkip++;\n            }\n        }\n        return _list;\n    }\n\n    function pendingCertificateLengthForInstitution(Institution _institution)\n        public\n        view\n        returns (uint256)\n    {\n        uint256 _count = 0;\n        for (uint256 i = 0; i < pendingCertificates.length; i++) {\n            if (pendingCertificates[i].institution() == _institution) {\n                _count++;\n            }\n        }\n        return _count;\n    }\n\n    function pendingCertificateForInstitution(\n        Institution _institution,\n        uint256 _from\n    ) public view returns (Certificate[10] memory) {\n        Certificate[10] memory _list;\n        uint256 _count = 0;\n        uint256 _toSkip = 0;\n        for (\n            uint256 i = 0;\n            i < pendingCertificates.length && _count <= 10;\n            i++\n        ) {\n            if (pendingCertificates[i].institution() == _institution) {\n                if (_toSkip >= _from) {\n                    _list[_count] = pendingCertificates[i];\n                    _count++;\n                }\n                _toSkip++;\n            }\n        }\n        return _list;\n    }\n}\n\ncontract FacultiesManager {\n    Application public application;\n    mapping(address => Faculty) public faculties;\n    mapping(uint256 => Faculty) facultiesByIndex;\n    uint256 nextFacultyId = 0;\n\n    constructor(Application _application) {\n        application = _application;\n    }\n\n    function facultiesLength() public view returns (uint256) {\n        return nextFacultyId;\n    }\n\n    function createFaculty(string memory _name) public payable {\n        if (address(faculties[msg.sender]) == address(0x0)) {\n            uint256 _id = nextFacultyId++;\n            Faculty faculty = new Faculty(this, _id, _name, msg.sender);\n            facultiesByIndex[_id] = faculty;\n            faculties[msg.sender] = faculty;\n            application.emitEvent(\n                \"CREATE_FACULTY\",\n                \"FACULTY\",\n                address(faculty)\n            );\n        }\n    }\n\n    function listFaculties(uint256 _from)\n        public\n        view\n        returns (Faculty[10] memory)\n    {\n        Faculty[10] memory list;\n        for (uint256 i = 0; i < 10; i++) {\n            list[i] = facultiesByIndex[i + _from];\n        }\n        return list;\n    }\n}\n\ncontract InstituionsManager {\n    Application public application;\n    mapping(uint256 => Institution) public institutions;\n    uint256 nextInstitutionId = 0;\n\n    constructor(Application _application) {\n        application = _application;\n    }\n\n    function institutionsLength() public view returns (uint256) {\n        return nextInstitutionId;\n    }\n\n    function createInstitution(string memory _name) public payable {\n        uint256 _id = nextInstitutionId++;\n        Institution _institution =\n            new Institution(this, _id, _name, msg.sender);\n        institutions[_id] = _institution;\n        application.emitEvent(\n            \"CREATE_INSTITUTION\",\n            \"INSTITUTION\",\n            address(_institution)\n        );\n    }\n\n    function listInstitutions(uint256 _from)\n        public\n        view\n        returns (Institution[10] memory)\n    {\n        Institution[10] memory list;\n        for (uint256 i = 0; i < 10; i++) {\n            list[i] = institutions[i + _from];\n        }\n        return list;\n    }\n}\n\ncontract Application {\n    /*\n    Application is the root contract that the UI will use to interact with sub contracts \n    */\n    CertificatesManager public certificatesManager;\n    FacultiesManager public facultiesManager;\n    InstituionsManager public instituionsManager;\n    event ApplicationEvent(\n        string eventType,\n        string targetType,\n        address targetAddress\n    );\n\n    constructor() {\n        certificatesManager = new CertificatesManager(this);\n        facultiesManager = new FacultiesManager(this);\n        instituionsManager = new InstituionsManager(this);\n    }\n\n    function emitEvent(\n        string memory eventType,\n        string memory targetType,\n        address targetAddress\n    ) public payable {\n        emit ApplicationEvent(eventType, targetType, targetAddress);\n    }\n}\n",
  "sourcePath": "/home/mortadaak/projects/aacsb_accreditiation/contracts/Application.sol",
  "compiler": {
    "name": "solc",
    "version": "0.7.5+commit.eb77ed08.Emscripten.clang"
  },
  "schemaVersion": "3.3.3",
  "updatedAt": "2021-01-20T13:05:50.508Z",
  "devdoc": {
    "kind": "dev",
    "methods": {},
    "version": 1
  },
  "userdoc": {
    "kind": "user",
    "methods": {},
    "version": 1
  }
}