{
  "contractName": "Application",
  "abi": [
    {
      "inputs": [
        {
          "internalType": "address",
          "name": "",
          "type": "address"
        }
      ],
      "name": "faculties",
      "outputs": [
        {
          "internalType": "contract Faculty",
          "name": "",
          "type": "address"
        }
      ],
      "stateMutability": "view",
      "type": "function",
      "constant": true
    },
    {
      "inputs": [
        {
          "internalType": "uint256",
          "name": "",
          "type": "uint256"
        }
      ],
      "name": "institutions",
      "outputs": [
        {
          "internalType": "contract Institution",
          "name": "",
          "type": "address"
        }
      ],
      "stateMutability": "view",
      "type": "function",
      "constant": true
    },
    {
      "inputs": [
        {
          "internalType": "string",
          "name": "_name",
          "type": "string"
        }
      ],
      "name": "createInstitution",
      "outputs": [],
      "stateMutability": "payable",
      "type": "function",
      "payable": true
    },
    {
      "inputs": [
        {
          "internalType": "uint256",
          "name": "_from",
          "type": "uint256"
        }
      ],
      "name": "listInstitutions",
      "outputs": [
        {
          "internalType": "contract Institution[10]",
          "name": "",
          "type": "address[10]"
        }
      ],
      "stateMutability": "view",
      "type": "function",
      "constant": true
    },
    {
      "inputs": [],
      "name": "institutionsLength",
      "outputs": [
        {
          "internalType": "uint256",
          "name": "",
          "type": "uint256"
        }
      ],
      "stateMutability": "view",
      "type": "function",
      "constant": true
    },
    {
      "inputs": [
        {
          "internalType": "string",
          "name": "_name",
          "type": "string"
        }
      ],
      "name": "createFaculty",
      "outputs": [],
      "stateMutability": "payable",
      "type": "function",
      "payable": true
    },
    {
      "inputs": [
        {
          "internalType": "uint256",
          "name": "_from",
          "type": "uint256"
        }
      ],
      "name": "listFaculties",
      "outputs": [
        {
          "internalType": "contract Faculty[10]",
          "name": "",
          "type": "address[10]"
        }
      ],
      "stateMutability": "view",
      "type": "function",
      "constant": true
    },
    {
      "inputs": [],
      "name": "facultiesLength",
      "outputs": [
        {
          "internalType": "uint256",
          "name": "",
          "type": "uint256"
        }
      ],
      "stateMutability": "view",
      "type": "function",
      "constant": true
    },
    {
      "inputs": [
        {
          "internalType": "contract Certificate",
          "name": "_certificate",
          "type": "address"
        }
      ],
      "name": "removeCertificate",
      "outputs": [],
      "stateMutability": "payable",
      "type": "function",
      "payable": true
    }
  ],
  "bytecode": "0x60806040526000600155600060045534801561001a57600080fd5b5061468a8061002a6000396000f3fe608060405260043610620000925760003560e01c806381a06777116200006157806381a06777146200014b57806386906afa146200016b578063b5fdf252146200019b578063c3b59d0014620001df578063ee84ab7614620002235762000092565b8063029bf70114620000975780633269389a14620000b75780634069e45d14620000e757806377104d921462000107575b600080fd5b620000b56004803603810190620000af919062000afb565b62000267565b005b348015620000c457600080fd5b50620000cf62000313565b604051620000de919062000daf565b60405180910390f35b620001056004803603810190620000ff919062000aa3565b6200031d565b005b3480156200011457600080fd5b506200013360048036038101906200012d919062000b40565b620005b0565b60405162000142919062000d57565b60405180910390f35b62000169600480360381019062000163919062000afb565b62000662565b005b3480156200017857600080fd5b506200018362000823565b60405162000192919062000daf565b60405180910390f35b348015620001a857600080fd5b50620001c76004803603810190620001c1919062000a77565b6200082d565b604051620001d6919062000d75565b60405180910390f35b348015620001ec57600080fd5b506200020b600480360381019062000205919062000b40565b62000860565b6040516200021a919062000d92565b60405180910390f35b3480156200023057600080fd5b506200024f600480360381019062000249919062000b40565b62000893565b6040516200025e919062000d39565b60405180910390f35b60006001600081548092919060010191905055905060008183336040516200028f9062000946565b6200029d9392919062000dcc565b604051809103906000f080158015620002ba573d6000803e3d6000fd5b5090508060008084815260200190815260200160002060006101000a81548173ffffffffffffffffffffffffffffffffffffffff021916908373ffffffffffffffffffffffffffffffffffffffff160217905550505050565b6000600454905090565b60008173ffffffffffffffffffffffffffffffffffffffff1663d1384eb66040518163ffffffff1660e01b815260040160206040518083038186803b1580156200036657600080fd5b505afa1580156200037b573d6000803e3d6000fd5b505050506040513d601f19601f82011682018060405250810190620003a1919062000acf565b73ffffffffffffffffffffffffffffffffffffffff1663af640d0f6040518163ffffffff1660e01b815260040160206040518083038186803b158015620003e757600080fd5b505afa158015620003fc573d6000803e3d6000fd5b505050506040513d601f19601f8201168201806040525081019062000422919062000b6c565b9050600060056000838152602001908152602001600020905060005b8180549050811015620005aa578373ffffffffffffffffffffffffffffffffffffffff168282815481106200046f57fe5b9060005260206000200160009054906101000a900473ffffffffffffffffffffffffffffffffffffffff1673ffffffffffffffffffffffffffffffffffffffff1614156200059c57600060018380549050039050808210156200055a57828181548110620004d957fe5b9060005260206000200160009054906101000a900473ffffffffffffffffffffffffffffffffffffffff168383815481106200051157fe5b9060005260206000200160006101000a81548173ffffffffffffffffffffffffffffffffffffffff021916908373ffffffffffffffffffffffffffffffffffffffff1602179055505b828054806200056557fe5b6001900381819060005260206000200160006101000a81549073ffffffffffffffffffffffffffffffffffffffff02191690559055505b80806001019150506200043e565b50505050565b620005ba62000954565b620005c462000954565b60005b600a8110156200065857600080858301815260200190815260200160002060009054906101000a900473ffffffffffffffffffffffffffffffffffffffff168282600a81106200061357fe5b602002019073ffffffffffffffffffffffffffffffffffffffff16908173ffffffffffffffffffffffffffffffffffffffff16815250508080600101915050620005c7565b5080915050919050565b600073ffffffffffffffffffffffffffffffffffffffff16600260003373ffffffffffffffffffffffffffffffffffffffff1673ffffffffffffffffffffffffffffffffffffffff16815260200190815260200160002060009054906101000a900473ffffffffffffffffffffffffffffffffffffffff1673ffffffffffffffffffffffffffffffffffffffff161415620008205760006004600081548092919060010191905055905060008183336040516200071f9062000977565b6200072d9392919062000dcc565b604051809103906000f0801580156200074a573d6000803e3d6000fd5b509050806003600084815260200190815260200160002060006101000a81548173ffffffffffffffffffffffffffffffffffffffff021916908373ffffffffffffffffffffffffffffffffffffffff16021790555080600260003373ffffffffffffffffffffffffffffffffffffffff1673ffffffffffffffffffffffffffffffffffffffff16815260200190815260200160002060006101000a81548173ffffffffffffffffffffffffffffffffffffffff021916908373ffffffffffffffffffffffffffffffffffffffff16021790555050505b50565b6000600154905090565b60026020528060005260406000206000915054906101000a900473ffffffffffffffffffffffffffffffffffffffff1681565b60006020528060005260406000206000915054906101000a900473ffffffffffffffffffffffffffffffffffffffff1681565b6200089d62000985565b620008a762000985565b60005b600a8110156200093c5760036000858301815260200190815260200160002060009054906101000a900473ffffffffffffffffffffffffffffffffffffffff168282600a8110620008f757fe5b602002019073ffffffffffffffffffffffffffffffffffffffff16908173ffffffffffffffffffffffffffffffffffffffff16815250508080600101915050620008aa565b5080915050919050565b61261f806200109583390190565b604051806101400160405280600a90602082028036833780820191505090505090565b610fa180620036b483390190565b604051806101400160405280600a90602082028036833780820191505090505090565b600081359050620009b9816200102c565b92915050565b600081359050620009d08162001046565b92915050565b600081519050620009e78162001060565b92915050565b600082601f830112620009ff57600080fd5b813562000a1662000a108262000e44565b62000e10565b9150808252602083016020830185838301111562000a3357600080fd5b62000a4083828462000fd4565b50505092915050565b60008135905062000a5a816200107a565b92915050565b60008151905062000a71816200107a565b92915050565b60006020828403121562000a8a57600080fd5b600062000a9a84828501620009a8565b91505092915050565b60006020828403121562000ab657600080fd5b600062000ac684828501620009bf565b91505092915050565b60006020828403121562000ae257600080fd5b600062000af284828501620009d6565b91505092915050565b60006020828403121562000b0e57600080fd5b600082013567ffffffffffffffff81111562000b2957600080fd5b62000b3784828501620009ed565b91505092915050565b60006020828403121562000b5357600080fd5b600062000b638482850162000a49565b91505092915050565b60006020828403121562000b7f57600080fd5b600062000b8f8482850162000a60565b91505092915050565b600062000ba6838362000ca3565b60208301905092915050565b600062000bc0838362000cc5565b60208301905092915050565b62000bd78162000f48565b82525050565b62000be88162000e8b565b62000bf4818462000ec6565b925062000c018262000e77565b8060005b8381101562000c3857815162000c1c878262000b98565b965062000c298362000eac565b92505060018101905062000c05565b505050505050565b62000c4b8162000e96565b62000c57818462000ec6565b925062000c648262000e81565b8060005b8381101562000c9b57815162000c7f878262000bb2565b965062000c8c8362000eb9565b92505060018101905062000c68565b505050505050565b62000cae8162000f5c565b82525050565b62000cbf8162000f5c565b82525050565b62000cd08162000f84565b82525050565b62000ce18162000f84565b82525050565b600062000cf48262000ea1565b62000d00818562000ed1565b935062000d1281856020860162000fe3565b62000d1d816200101b565b840191505092915050565b62000d338162000f3e565b82525050565b60006101408201905062000d51600083018462000bdd565b92915050565b60006101408201905062000d6f600083018462000c40565b92915050565b600060208201905062000d8c600083018462000cb4565b92915050565b600060208201905062000da9600083018462000cd6565b92915050565b600060208201905062000dc6600083018462000d28565b92915050565b600060608201905062000de3600083018662000d28565b818103602083015262000df7818562000ce7565b905062000e08604083018462000bcc565b949350505050565b6000604051905081810181811067ffffffffffffffff8211171562000e3a5762000e3962001019565b5b8060405250919050565b600067ffffffffffffffff82111562000e625762000e6162001019565b5b601f19601f8301169050602081019050919050565b6000819050919050565b6000819050919050565b6000600a9050919050565b6000600a9050919050565b600081519050919050565b6000602082019050919050565b6000602082019050919050565b600081905092915050565b600082825260208201905092915050565b600062000eef8262000f1e565b9050919050565b600062000f038262000ee2565b9050919050565b600062000f178262000ee2565b9050919050565b600073ffffffffffffffffffffffffffffffffffffffff82169050919050565b6000819050919050565b600062000f558262000fac565b9050919050565b600062000f698262000f70565b9050919050565b600062000f7d8262000f1e565b9050919050565b600062000f918262000f98565b9050919050565b600062000fa58262000f1e565b9050919050565b600062000fb98262000fc0565b9050919050565b600062000fcd8262000f1e565b9050919050565b82818337600083830152505050565b60005b838110156200100357808201518184015260208101905062000fe6565b8381111562001013576000848401525b50505050565bfe5b6000601f19601f8301169050919050565b620010378162000ee2565b81146200104357600080fd5b50565b620010518162000ef6565b81146200105d57600080fd5b50565b6200106b8162000f0a565b81146200107757600080fd5b50565b620010858162000f3e565b81146200109157600080fd5b5056fe6080604052600160075560016009556000600b553480156200002057600080fd5b506040516200261f3803806200261f8339818101604052810190620000469190620002ab565b826000819055508160019080519060200190620000659291906200016b565b5080600260006101000a81548173ffffffffffffffffffffffffffffffffffffffff021916908373ffffffffffffffffffffffffffffffffffffffff1602179055506004819080600181540180825580915050600190039060005260206000200160009091909190916101000a81548173ffffffffffffffffffffffffffffffffffffffff021916908373ffffffffffffffffffffffffffffffffffffffff1602179055506001600560008373ffffffffffffffffffffffffffffffffffffffff1673ffffffffffffffffffffffffffffffffffffffff16815260200190815260200160002060006101000a81548160ff0219169083151502179055505050506200042b565b828054600181600116156101000203166002900490600052602060002090601f016020900481019282620001a35760008555620001ef565b82601f10620001be57805160ff1916838001178555620001ef565b82800160010185558215620001ef579182015b82811115620001ee578251825591602001919060010190620001d1565b5b509050620001fe919062000202565b5090565b5b808211156200021d57600081600090555060010162000203565b5090565b6000815190506200023281620003f7565b92915050565b600082601f8301126200024a57600080fd5b8151620002616200025b826200034e565b6200031a565b915080825260208301602083018583830111156200027e57600080fd5b6200028b838284620003bf565b50505092915050565b600081519050620002a58162000411565b92915050565b600080600060608486031215620002c157600080fd5b6000620002d18682870162000294565b935050602084015167ffffffffffffffff811115620002ef57600080fd5b620002fd8682870162000238565b9250506040620003108682870162000221565b9150509250925092565b6000604051905081810181811067ffffffffffffffff82111715620003445762000343620003f5565b5b8060405250919050565b600067ffffffffffffffff8211156200036c576200036b620003f5565b5b601f19601f8301169050602081019050919050565b60006200038e8262000395565b9050919050565b600073ffffffffffffffffffffffffffffffffffffffff82169050919050565b6000819050919050565b60005b83811015620003df578082015181840152602081019050620003c2565b83811115620003ef576000848401525b50505050565bfe5b620004028162000381565b81146200040e57600080fd5b50565b6200041c81620003b5565b81146200042857600080fd5b50565b6121e4806200043b6000396000f3fe60806040526004361061014b5760003560e01c80637c6ebde9116100b6578063c52f15df1161006f578063c52f15df14610468578063d2e3f3b7146104a5578063d63a8e11146104e2578063e06d7d9b1461051f578063eafb96bd1461053b578063fd2d6c3b146105575761014b565b80637c6ebde91461038157806384b645351461039d5780638da5cb5b146103da5780638f8b3a1514610405578063a013fe3014610421578063af640d0f1461043d5761014b565b8063262e025b11610108578063262e025b146102585780633c98ccee146102955780633d7403a3146102c05780634225674d146102dc57806344e538ae146103195780636bd5b694146103445761014b565b8063068d81741461015057806306fdde031461018d57806308e0018b146101b85780630c3935b2146101f5578063103d79f3146102115780631b7b8dac1461023c575b600080fd5b34801561015c57600080fd5b50610177600480360381019061017291906118c1565b610594565b6040516101849190611da0565b60405180910390f35b34801561019957600080fd5b506101a26105d3565b6040516101af9190611e7a565b60405180910390f35b3480156101c457600080fd5b506101df60048036038101906101da9190611775565b610671565b6040516101ec9190611e44565b60405180910390f35b61020f600480360381019061020a919061197a565b610731565b005b34801561021d57600080fd5b5061022661079c565b6040516102339190611ee0565b60405180910390f35b6102566004803603810190610251919061182c565b6107a9565b005b34801561026457600080fd5b5061027f600480360381019061027a91906118c1565b610815565b60405161028c9190611ebe565b60405180910390f35b3480156102a157600080fd5b506102aa610913565b6040516102b79190611ee0565b60405180910390f35b6102da60048036038101906102d5919061182c565b610920565b005b3480156102e857600080fd5b5061030360048036038101906102fe91906118ea565b610949565b6040516103109190611e22565b60405180910390f35b34801561032557600080fd5b5061032e610aed565b60405161033b9190611ee0565b60405180910390f35b34801561035057600080fd5b5061036b600480360381019061036691906118c1565b610afa565b6040516103789190611e5f565b60405180910390f35b61039b600480360381019061039691906117b1565b610b39565b005b3480156103a957600080fd5b506103c460048036038101906103bf91906118c1565b610d01565b6040516103d19190611e9c565b60405180910390f35b3480156103e657600080fd5b506103ef610de9565b6040516103fc9190611da0565b60405180910390f35b61041f600480360381019061041a9190611926565b610e0f565b005b61043b6004803603810190610436919061174c565b610e53565b005b34801561044957600080fd5b50610452610faf565b60405161045f9190611ee0565b60405180910390f35b34801561047457600080fd5b5061048f600480360381019061048a91906118c1565b610fb5565b60405161049c9190611e22565b60405180910390f35b3480156104b157600080fd5b506104cc60048036038101906104c791906118c1565b610fcf565b6040516104d99190611de4565b60405180910390f35b3480156104ee57600080fd5b506105096004803603810190610504919061174c565b611097565b6040516105169190611e44565b60405180910390f35b6105396004803603810190610534919061186d565b6110ab565b005b6105556004803603810190610550919061174c565b611134565b005b34801561056357600080fd5b5061057e600480360381019061057991906118c1565b61133d565b60405161058b9190611e00565b60405180910390f35b600481815481106105a457600080fd5b906000526020600020016000915054906101000a900473ffffffffffffffffffffffffffffffffffffffff1681565b60018054600181600116156101000203166002900480601f0160208091040260200160405190810160405280929190818152602001828054600181600116156101000203166002900480156106695780601f1061063e57610100808354040283529160200191610669565b820191906000526020600020905b81548152906001019060200180831161064c57829003601f168201915b505050505081565b600061067c83611097565b15610726578173ffffffffffffffffffffffffffffffffffffffff168373ffffffffffffffffffffffffffffffffffffffff1614156106be576000905061072b565b600260009054906101000a900473ffffffffffffffffffffffffffffffffffffffff1673ffffffffffffffffffffffffffffffffffffffff168273ffffffffffffffffffffffffffffffffffffffff16141561071d576000905061072b565b6001905061072b565b600090505b92915050565b61073a33611097565b156107965760006008600086815260200190815260200160002090508381600101908051906020019061076e92919061150c565b50828160020181905550818160030160006101000a81548160ff021916908315150217905550505b50505050565b6000600160075403905090565b6107b233611097565b156108125760006007600081548092919060010191905055905060006006600083815260200190815260200160002090508181600001819055508281600101908051906020019061080492919061150c565b506000816003018190555050505b50565b61081d61159a565b6008600083815260200190815260200160002060405180608001604052908160008201548152602001600182018054600181600116156101000203166002900480601f0160208091040260200160405190810160405280929190818152602001828054600181600116156101000203166002900480156108de5780601f106108b3576101008083540402835291602001916108de565b820191906000526020600020905b8154815290600101906020018083116108c157829003601f168201915b50505050508152602001600282015481526020016003820160009054906101000a900460ff1615151515815250509050919050565b6000600480549050905090565b61092933611097565b1561094657806001908051906020019061094492919061150c565b505b50565b6109516115c4565b6109596115c4565b60005b600a811015610ae257838015610998575060086000600187840101815260200190815260200160002060030160009054906101000a900460ff16155b156109b3578480600101955050808060019003915050610ad5565b60018582010160095410156109cb57600a9050610ad4565b60086000600187840101815260200190815260200160002060405180608001604052908160008201548152602001600182018054600181600116156101000203166002900480601f016020809104026020016040519081016040528092919081815260200182805460018160011615610100020316600290048015610a915780601f10610a6657610100808354040283529160200191610a91565b820191906000526020600020905b815481529060010190602001808311610a7457829003601f168201915b50505050508152602001600282015481526020016003820160009054906101000a900460ff1615151515815250508282600a8110610acb57fe5b60200201819052505b5b808060010191505061095c565b508091505092915050565b6000600160095403905090565b60038181548110610b0a57600080fd5b906000526020600020016000915054906101000a900473ffffffffffffffffffffffffffffffffffffffff1681565b610b4233611097565b8015610be1575060016002811115610b5657fe5b8173ffffffffffffffffffffffffffffffffffffffff1663200d2ed26040518163ffffffff1660e01b815260040160206040518083038186803b158015610b9c57600080fd5b505afa158015610bb0573d6000803e3d6000fd5b505050506040513d601f19601f82011682018060405250810190610bd49190611803565b6002811115610bdf57fe5b145b8015610c9557503073ffffffffffffffffffffffffffffffffffffffff168173ffffffffffffffffffffffffffffffffffffffff1663d1384eb66040518163ffffffff1660e01b815260040160206040518083038186803b158015610c4557600080fd5b505afa158015610c59573d6000803e3d6000fd5b505050506040513d601f19601f82011682018060405250810190610c7d91906117da565b73ffffffffffffffffffffffffffffffffffffffff16145b15610cfe576003819080600181540180825580915050600190039060005260206000200160009091909190916101000a81548173ffffffffffffffffffffffffffffffffffffffff021916908373ffffffffffffffffffffffffffffffffffffffff1602179055505b50565b610d096115f2565b604051806040016040528060066000858152602001908152602001600020600001548152602001600660008581526020019081526020016000206001018054600181600116156101000203166002900480601f016020809104026020016040519081016040528092919081815260200182805460018160011615610100020316600290048015610dda5780601f10610daf57610100808354040283529160200191610dda565b820191906000526020600020905b815481529060010190602001808311610dbd57829003601f168201915b50505050508152509050919050565b600260009054906101000a900473ffffffffffffffffffffffffffffffffffffffff1681565b610e1833611097565b15610e4f57600060066000848152602001908152602001600020905081816001019080519060200190610e4c92919061150c565b50505b5050565b610e5c33611097565b8015610eb25750600560008273ffffffffffffffffffffffffffffffffffffffff1673ffffffffffffffffffffffffffffffffffffffff16815260200190815260200160002060009054906101000a900460ff16155b15610fac576004819080600181540180825580915050600190039060005260206000200160009091909190916101000a81548173ffffffffffffffffffffffffffffffffffffffff021916908373ffffffffffffffffffffffffffffffffffffffff1602179055506001600560008373ffffffffffffffffffffffffffffffffffffffff1673ffffffffffffffffffffffffffffffffffffffff16815260200190815260200160002060006101000a81548160ff0219169083151502179055507f4c3f8d573327070a8bdfb58632fa8057d0e0d56c4e982b03b555bdf50fd041be3382604051610fa3929190611dbb565b60405180910390a15b50565b60005481565b610fbd6115c4565b610fc8826000610949565b9050919050565b610fd761160c565b610fdf61160c565b60005b600a81101561108d576004805490508482011061100257600a9050611080565b60048482018154811061101157fe5b9060005260206000200160009054906101000a900473ffffffffffffffffffffffffffffffffffffffff168282600a811061104857fe5b602002019073ffffffffffffffffffffffffffffffffffffffff16908173ffffffffffffffffffffffffffffffffffffffff16815250505b8080600101915050610fe2565b5080915050919050565b60006110a4826000611467565b9050919050565b6110b433611097565b156111305760006009600081548092919060010191905055905060006008600083815260200190815260200160002090508181600001819055508381600101908051906020019061110692919061150c565b5082816002018190555060018160030160006101000a81548160ff02191690831515021790555050505b5050565b61113e3382610671565b1561133a5760005b6004805490508110156112b0578173ffffffffffffffffffffffffffffffffffffffff166004828154811061117757fe5b9060005260206000200160009054906101000a900473ffffffffffffffffffffffffffffffffffffffff1673ffffffffffffffffffffffffffffffffffffffff1614156112a357600060016004805490500390508082101561126157600481815481106111e057fe5b9060005260206000200160009054906101000a900473ffffffffffffffffffffffffffffffffffffffff166004838154811061121857fe5b9060005260206000200160006101000a81548173ffffffffffffffffffffffffffffffffffffffff021916908373ffffffffffffffffffffffffffffffffffffffff1602179055505b600480548061126c57fe5b6001900381819060005260206000200160006101000a81549073ffffffffffffffffffffffffffffffffffffffff02191690559055505b8080600101915050611146565b50600560008273ffffffffffffffffffffffffffffffffffffffff1673ffffffffffffffffffffffffffffffffffffffff16815260200190815260200160002060006101000a81549060ff02191690557fbcd9acfa7798dc641ff4ac996c5bac1c3453ce5b9c04a919728479f94cc9bc593382604051611331929190611dbb565b60405180910390a15b50565b61134561162f565b61134d61162f565b60005b600a81101561145d5760405180604001604052806006600060018886010181526020019081526020016000206000015481526020016006600060018886010181526020019081526020016000206001018054600181600116156101000203166002900480601f0160208091040260200160405190810160405280929190818152602001828054600181600116156101000203166002900480156114345780601f1061140957610100808354040283529160200191611434565b820191906000526020600020905b81548152906001019060200180831161141757829003601f168201915b50505050508152508282600a811061144857fe5b60200201819052508080600101915050611350565b5080915050919050565b60006004828154811061147657fe5b9060005260206000200160009054906101000a900473ffffffffffffffffffffffffffffffffffffffff1673ffffffffffffffffffffffffffffffffffffffff168373ffffffffffffffffffffffffffffffffffffffff1614156114dd5760019050611506565b600160048054905003821015611501576114fa8360018401611467565b9050611506565b600090505b92915050565b828054600181600116156101000203166002900490600052602060002090601f0160209004810192826115425760008555611589565b82601f1061155b57805160ff1916838001178555611589565b82800160010185558215611589579182015b8281111561158857825182559160200191906001019061156d565b5b509050611596919061165d565b5090565b60405180608001604052806000815260200160608152602001600081526020016000151581525090565b604051806101400160405280600a905b6115dc61159a565b8152602001906001900390816115d45790505090565b604051806040016040528060008152602001606081525090565b604051806101400160405280600a90602082028036833780820191505090505090565b604051806101400160405280600a905b6116476115f2565b81526020019060019003908161163f5790505090565b5b8082111561167657600081600090555060010161165e565b5090565b6000813590506116898161212b565b92915050565b60008135905061169e81612142565b92915050565b6000813590506116b381612159565b92915050565b6000815190506116c881612170565b92915050565b6000815190506116dd81612187565b92915050565b600082601f8301126116f457600080fd5b813561170761170282611f2c565b611efb565b9150808252602083016020830185838301111561172357600080fd5b61172e8382846120d6565b50505092915050565b60008135905061174681612197565b92915050565b60006020828403121561175e57600080fd5b600061176c8482850161167a565b91505092915050565b6000806040838503121561178857600080fd5b60006117968582860161167a565b92505060206117a78582860161167a565b9150509250929050565b6000602082840312156117c357600080fd5b60006117d1848285016116a4565b91505092915050565b6000602082840312156117ec57600080fd5b60006117fa848285016116b9565b91505092915050565b60006020828403121561181557600080fd5b6000611823848285016116ce565b91505092915050565b60006020828403121561183e57600080fd5b600082013567ffffffffffffffff81111561185857600080fd5b611864848285016116e3565b91505092915050565b6000806040838503121561188057600080fd5b600083013567ffffffffffffffff81111561189a57600080fd5b6118a6858286016116e3565b92505060206118b785828601611737565b9150509250929050565b6000602082840312156118d357600080fd5b60006118e184828501611737565b91505092915050565b600080604083850312156118fd57600080fd5b600061190b85828601611737565b925050602061191c8582860161168f565b9150509250929050565b6000806040838503121561193957600080fd5b600061194785828601611737565b925050602083013567ffffffffffffffff81111561196457600080fd5b611970858286016116e3565b9150509250929050565b6000806000806080858703121561199057600080fd5b600061199e87828801611737565b945050602085013567ffffffffffffffff8111156119bb57600080fd5b6119c7878288016116e3565b93505060406119d887828801611737565b92505060606119e98782880161168f565b91505092959194509250565b6000611a018383611a44565b60208301905092915050565b6000611a198383611c42565b905092915050565b6000611a2d8383611cbc565b905092915050565b611a3e8161207c565b82525050565b611a4d81612010565b82525050565b611a5c81612010565b82525050565b611a6b81611f7a565b611a758184611fcd565b9250611a8082611f5c565b8060005b83811015611ab1578151611a9887826119f5565b9650611aa383611fa6565b925050600181019050611a84565b505050505050565b6000611ac482611f85565b611ace8185611fd8565b935083602082028501611ae085611f66565b8060005b85811015611b1c5784840389528151611afd8582611a0d565b9450611b0883611fb3565b925060208a01995050600181019050611ae4565b50829750879550505050505092915050565b6000611b3982611f90565b611b438185611fe3565b935083602082028501611b5585611f70565b8060005b85811015611b915784840389528151611b728582611a21565b9450611b7d83611fc0565b925060208a01995050600181019050611b59565b50829750879550505050505092915050565b611bac81612022565b82525050565b611bbb81612022565b82525050565b611bca8161208e565b82525050565b6000611bdb82611f9b565b611be58185611fee565b9350611bf58185602086016120e5565b611bfe8161211a565b840191505092915050565b6000611c1482611f9b565b611c1e8185611fff565b9350611c2e8185602086016120e5565b611c378161211a565b840191505092915050565b6000604083016000830151611c5a6000860182611d82565b5060208301518482036020860152611c728282611bd0565b9150508091505092915050565b6000604083016000830151611c976000860182611d82565b5060208301518482036020860152611caf8282611bd0565b9150508091505092915050565b6000608083016000830151611cd46000860182611d82565b5060208301518482036020860152611cec8282611bd0565b9150506040830151611d016040860182611d82565b506060830151611d146060860182611ba3565b508091505092915050565b6000608083016000830151611d376000860182611d82565b5060208301518482036020860152611d4f8282611bd0565b9150506040830151611d646040860182611d82565b506060830151611d776060860182611ba3565b508091505092915050565b611d8b81612072565b82525050565b611d9a81612072565b82525050565b6000602082019050611db56000830184611a53565b92915050565b6000604082019050611dd06000830185611a35565b611ddd6020830184611a53565b9392505050565b600061014082019050611dfa6000830184611a62565b92915050565b60006020820190508181036000830152611e1a8184611ab9565b905092915050565b60006020820190508181036000830152611e3c8184611b2e565b905092915050565b6000602082019050611e596000830184611bb2565b92915050565b6000602082019050611e746000830184611bc1565b92915050565b60006020820190508181036000830152611e948184611c09565b905092915050565b60006020820190508181036000830152611eb68184611c7f565b905092915050565b60006020820190508181036000830152611ed88184611d1f565b905092915050565b6000602082019050611ef56000830184611d91565b92915050565b6000604051905081810181811067ffffffffffffffff82111715611f2257611f21612118565b5b8060405250919050565b600067ffffffffffffffff821115611f4757611f46612118565b5b601f19601f8301169050602081019050919050565b6000819050919050565b6000819050919050565b6000819050919050565b6000600a9050919050565b6000600a9050919050565b6000600a9050919050565b600081519050919050565b6000602082019050919050565b6000602082019050919050565b6000602082019050919050565b600081905092915050565b600081905092915050565b600081905092915050565b600082825260208201905092915050565b600082825260208201905092915050565b600061201b82612052565b9050919050565b60008115159050919050565b600061203982612010565b9050919050565b600061204b82612010565b9050919050565b600073ffffffffffffffffffffffffffffffffffffffff82169050919050565b6000819050919050565b6000612087826120b2565b9050919050565b6000612099826120a0565b9050919050565b60006120ab82612052565b9050919050565b60006120bd826120c4565b9050919050565b60006120cf82612052565b9050919050565b82818337600083830152505050565b60005b838110156121035780820151818401526020810190506120e8565b83811115612112576000848401525b50505050565bfe5b6000601f19601f8301169050919050565b61213481612010565b811461213f57600080fd5b50565b61214b81612022565b811461215657600080fd5b50565b6121628161202e565b811461216d57600080fd5b50565b61217981612040565b811461218457600080fd5b50565b6003811061219457600080fd5b50565b6121a081612072565b81146121ab57600080fd5b5056fea2646970667358221220e38a62abf18137443d5a6d252479ddef6ec90a4c0a4b933da193502934f966d064736f6c6343000705003360806040523480156200001157600080fd5b5060405162000fa138038062000fa18339818101604052810190620000379190620001e1565b81600190805190602001906200004f929190620000a1565b508260008190555080600260006101000a81548173ffffffffffffffffffffffffffffffffffffffff021916908373ffffffffffffffffffffffffffffffffffffffff16021790555050505062000361565b828054600181600116156101000203166002900490600052602060002090601f016020900481019282620000d9576000855562000125565b82601f10620000f457805160ff191683800117855562000125565b8280016001018555821562000125579182015b828111156200012457825182559160200191906001019062000107565b5b50905062000134919062000138565b5090565b5b808211156200015357600081600090555060010162000139565b5090565b60008151905062000168816200032d565b92915050565b600082601f8301126200018057600080fd5b815162000197620001918262000284565b62000250565b91508082526020830160208301858383011115620001b457600080fd5b620001c1838284620002f5565b50505092915050565b600081519050620001db8162000347565b92915050565b600080600060608486031215620001f757600080fd5b60006200020786828701620001ca565b935050602084015167ffffffffffffffff8111156200022557600080fd5b62000233868287016200016e565b9250506040620002468682870162000157565b9150509250925092565b6000604051905081810181811067ffffffffffffffff821117156200027a57620002796200032b565b5b8060405250919050565b600067ffffffffffffffff821115620002a257620002a16200032b565b5b601f19601f8301169050602081019050919050565b6000620002c482620002cb565b9050919050565b600073ffffffffffffffffffffffffffffffffffffffff82169050919050565b6000819050919050565b60005b8381101562000315578082015181840152602081019050620002f8565b8381111562000325576000848401525b50505050565bfe5b6200033881620002b7565b81146200034457600080fd5b50565b6200035281620002eb565b81146200035e57600080fd5b50565b610c3080620003716000396000f3fe60806040526004361061007b5760003560e01c80637c6ebde91161004e5780637c6ebde91461012f5780638da5cb5b1461014b578063d63a8e1114610176578063d90c137e146101b35761007b565b806306fdde03146100805780633d7403a3146100ab5780634e8ef753146100c7578063663b3e22146100f2575b600080fd5b34801561008c57600080fd5b506100956101cf565b6040516100a291906109a9565b60405180910390f35b6100c560048036038101906100c0919061080b565b61026d565b005b3480156100d357600080fd5b506100dc610296565b6040516100e9919061098e565b60405180910390f35b3480156100fe57600080fd5b506101196004803603810190610114919061084c565b6102bc565b6040516101269190610973565b60405180910390f35b610149600480360381019061014491906107b9565b6102fb565b005b34801561015757600080fd5b506101606104a6565b60405161016d91906108f9565b60405180910390f35b34801561018257600080fd5b5061019d60048036038101906101989190610767565b6104cc565b6040516101aa9190610958565b60405180910390f35b6101cd60048036038101906101c89190610767565b610526565b005b60018054600181600116156101000203166002900480601f0160208091040260200160405190810160405280929190818152602001828054600181600116156101000203166002900480156102655780601f1061023a57610100808354040283529160200191610265565b820191906000526020600020905b81548152906001019060200180831161024857829003601f168201915b505050505081565b610276336104cc565b156102935780600190805190602001906102919291906105ff565b505b50565b600460009054906101000a900473ffffffffffffffffffffffffffffffffffffffff1681565b600381815481106102cc57600080fd5b906000526020600020016000915054906101000a900473ffffffffffffffffffffffffffffffffffffffff1681565b8073ffffffffffffffffffffffffffffffffffffffff1663d1384eb66040518163ffffffff1660e01b815260040160206040518083038186803b15801561034157600080fd5b505afa158015610355573d6000803e3d6000fd5b505050506040513d601f19601f8201168201806040525081019061037991906107e2565b73ffffffffffffffffffffffffffffffffffffffff1663d63a8e11336040518263ffffffff1660e01b81526004016103b19190610914565b60206040518083038186803b1580156103c957600080fd5b505afa1580156103dd573d6000803e3d6000fd5b505050506040513d601f19601f820116820180604052508101906104019190610790565b156104a3576003819080600181540180825580915050600190039060005260206000200160009091909190916101000a81548173ffffffffffffffffffffffffffffffffffffffff021916908373ffffffffffffffffffffffffffffffffffffffff1602179055507fcab8446535b35de1f0ebc27aeffe078cbebbd56fa92739c56cf2a99ed79665d6338260405161049a92919061092f565b60405180910390a15b50565b600260009054906101000a900473ffffffffffffffffffffffffffffffffffffffff1681565b6000600260009054906101000a900473ffffffffffffffffffffffffffffffffffffffff1673ffffffffffffffffffffffffffffffffffffffff168273ffffffffffffffffffffffffffffffffffffffff16149050919050565b60008190508073ffffffffffffffffffffffffffffffffffffffff1663d63a8e11336040518263ffffffff1660e01b81526004016105649190610914565b60206040518083038186803b15801561057c57600080fd5b505afa158015610590573d6000803e3d6000fd5b505050506040513d601f19601f820116820180604052508101906105b49190610790565b156105fb5780600460006101000a81548173ffffffffffffffffffffffffffffffffffffffff021916908373ffffffffffffffffffffffffffffffffffffffff1602179055505b5050565b828054600181600116156101000203166002900490600052602060002090601f016020900481019282610635576000855561067c565b82601f1061064e57805160ff191683800117855561067c565b8280016001018555821561067c579182015b8281111561067b578251825591602001919060010190610660565b5b509050610689919061068d565b5090565b5b808211156106a657600081600090555060010161068e565b5090565b6000813590506106b981610b87565b92915050565b6000815190506106ce81610b9e565b92915050565b6000813590506106e381610bb5565b92915050565b6000815190506106f881610bcc565b92915050565b600082601f83011261070f57600080fd5b813561072261071d826109fc565b6109cb565b9150808252602083016020830185838301111561073e57600080fd5b610749838284610b32565b50505092915050565b60008135905061076181610be3565b92915050565b60006020828403121561077957600080fd5b6000610787848285016106aa565b91505092915050565b6000602082840312156107a257600080fd5b60006107b0848285016106bf565b91505092915050565b6000602082840312156107cb57600080fd5b60006107d9848285016106d4565b91505092915050565b6000602082840312156107f457600080fd5b6000610802848285016106e9565b91505092915050565b60006020828403121561081d57600080fd5b600082013567ffffffffffffffff81111561083757600080fd5b610843848285016106fe565b91505092915050565b60006020828403121561085e57600080fd5b600061086c84828501610752565b91505092915050565b61087e81610ab4565b82525050565b61088d81610a48565b82525050565b61089c81610a5a565b82525050565b6108ab81610ac6565b82525050565b6108ba81610aea565b82525050565b60006108cb82610a2c565b6108d58185610a37565b93506108e5818560208601610b41565b6108ee81610b76565b840191505092915050565b600060208201905061090e6000830184610884565b92915050565b60006020820190506109296000830184610875565b92915050565b60006040820190506109446000830185610875565b61095160208301846108a2565b9392505050565b600060208201905061096d6000830184610893565b92915050565b600060208201905061098860008301846108a2565b92915050565b60006020820190506109a360008301846108b1565b92915050565b600060208201905081810360008301526109c381846108c0565b905092915050565b6000604051905081810181811067ffffffffffffffff821117156109f2576109f1610b74565b5b8060405250919050565b600067ffffffffffffffff821115610a1757610a16610b74565b5b601f19601f8301169050602081019050919050565b600081519050919050565b600082825260208201905092915050565b6000610a5382610a8a565b9050919050565b60008115159050919050565b6000610a7182610a48565b9050919050565b6000610a8382610a48565b9050919050565b600073ffffffffffffffffffffffffffffffffffffffff82169050919050565b6000819050919050565b6000610abf82610b0e565b9050919050565b6000610ad182610ad8565b9050919050565b6000610ae382610a8a565b9050919050565b6000610af582610afc565b9050919050565b6000610b0782610a8a565b9050919050565b6000610b1982610b20565b9050919050565b6000610b2b82610a8a565b9050919050565b82818337600083830152505050565b60005b83811015610b5f578082015181840152602081019050610b44565b83811115610b6e576000848401525b50505050565bfe5b6000601f19601f8301169050919050565b610b9081610a48565b8114610b9b57600080fd5b50565b610ba781610a5a565b8114610bb257600080fd5b50565b610bbe81610a66565b8114610bc957600080fd5b50565b610bd581610a78565b8114610be057600080fd5b50565b610bec81610aaa565b8114610bf757600080fd5b5056fea264697066735822122028abdf934cdb8a663150924091d6eee62113cf09194465d12b8cb8dc2246195364736f6c63430007050033a26469706673582212204ffc613305066202dffdd17d9b13328f85d57f4f126c85be97c789dd7928931964736f6c63430007050033",
  "immutableReferences": {},
  "source": "// SPDX-License-Identifier: GPL-3.0\npragma solidity >=0.5.0 <0.9.0;\npragma abicoder v2;\n\ncontract Certificate {\n    enum State {requested, approved, rejected}\n    enum Degree {\n        ScholarlyAcademics,\n        PracticeAcademics,\n        ScholarlyPractitioner,\n        InstructionalPractitioner\n    }\n    string public specialtyField;\n    Faculty public faculty;\n    Institution public institution;\n    Degree public degree;\n    State public status = State.requested;\n    Application application;\n    event Request(address sender);\n    event Reject(address sender);\n    event Approve(address sender);\n\n    constructor(\n        Faculty _faculty,\n        Institution _institution,\n        Degree _degree\n    ) {\n        faculty = _faculty;\n        institution = _institution;\n        degree = _degree;\n        emit Request(msg.sender);\n    }\n\n    function reject() public payable {\n        if (editable()) {\n            status = State.rejected;\n            emit Reject(msg.sender);\n        }\n    }\n\n    function approve() public payable {\n        if (editable() && institution.allowed(msg.sender)) {\n            status = State.approved;\n            faculty.addCertificate(this);\n            institution.addCertificate(this);\n            application.removeCertificate(this);\n            emit Approve(msg.sender);\n        }\n    }\n\n    function editable() public view returns (bool) {\n        return ((status == State.requested &&\n            (institution.allowed(msg.sender))) || faculty.allowed(msg.sender));\n    }\n}\n\ncontract Faculty {\n    uint256 id;\n    string public name;\n    address public owner;\n    Certificate[] public certificates;\n    Institution public currentInstitution;\n\n    event CertificateAdded(address assigner, Certificate certificate);\n\n    constructor(\n        uint256 _id,\n        string memory _name,\n        address _owner\n    ) {\n        name = _name;\n        id = _id;\n        owner = _owner;\n    }\n\n    function update(string memory _name) public payable {\n        if (allowed(msg.sender)) {\n            name = _name;\n        }\n    }\n\n    function assignInstitution(address _institutionAddress) public payable {\n        Institution _institution = Institution(_institutionAddress);\n        if (_institution.allowed(msg.sender)) {\n            currentInstitution = _institution;\n        }\n    }\n\n    function allowed(address _address) public view returns (bool) {\n        return _address == owner;\n    }\n\n    function addCertificate(Certificate _certificate) public payable {\n        if (_certificate.institution().allowed(msg.sender)) {\n            certificates.push(_certificate);\n            emit CertificateAdded(msg.sender, _certificate);\n        }\n    }\n}\n\ncontract Institution {\n    struct Department {\n        uint256 id;\n        string name;\n        mapping(uint256 => Faculty) faculties;\n        uint256 nextFacultyId;\n    }\n    struct StaffMember {\n        uint256 id;\n        string name;\n        uint256 departmentId;\n        bool active;\n    }\n    struct PublicDepartment {\n        uint256 id;\n        string name;\n    }\n\n    uint256 public id;\n    string public name;\n    address public owner;\n\n    Certificate[] public issuedCertificates;\n\n    address[] public allowedModifiers;\n    mapping(address => bool) allowedModifiersMap;\n\n    mapping(uint256 => Department) departments;\n    uint256 nextDepartmentId = 1;\n\n    mapping(uint256 => StaffMember) staffMembers;\n    uint256 nextStaffMembersId = 1;\n\n    mapping(uint256 => Certificate) certificates;\n    uint256 nextCertificateId = 0;\n\n    event ModifierAdded(address by, address modifierAddress);\n    event ModifierRemoved(address by, address modifierAddress);\n\n    constructor(\n        uint256 _id,\n        string memory _name,\n        address sender\n    ) {\n        id = _id;\n        name = _name;\n        owner = sender;\n        allowedModifiers.push(sender);\n        allowedModifiersMap[sender] = true;\n    }\n\n    function update(string memory _name) public payable {\n        if (allowed(msg.sender)) {\n            name = _name;\n        }\n    }\n\n    function createDepartment(string memory _name) public payable {\n        if (allowed(msg.sender)) {\n            uint256 _nextDepartmentId = nextDepartmentId++;\n            Department storage _department = departments[_nextDepartmentId];\n            _department.id = _nextDepartmentId;\n            _department.name = _name;\n            _department.nextFacultyId = 0;\n        }\n    }\n\n    function updateDepartment(uint256 _departmentId, string memory _name)\n        public\n        payable\n    {\n        if (allowed(msg.sender)) {\n            Department storage _department = departments[_departmentId];\n            _department.name = _name;\n        }\n    }\n\n    function department(uint256 _from)\n        public\n        view\n        returns (PublicDepartment memory)\n    {\n        return\n            PublicDepartment({\n                id: departments[_from].id,\n                name: departments[_from].name\n            });\n    }\n\n    function listDepartments(uint256 _from)\n        public\n        view\n        returns (PublicDepartment[10] memory)\n    {\n        PublicDepartment[10] memory list;\n        for (uint256 i = 0; i < 10; i++) {\n            list[i] = PublicDepartment({\n                id: departments[i + _from + 1].id,\n                name: departments[i + _from + 1].name\n            });\n        }\n        return list;\n    }\n\n    function departmentsLength() public view returns (uint256) {\n        return nextDepartmentId - 1;\n    }\n\n    function staffMember(uint256 _from)\n        public\n        view\n        returns (StaffMember memory)\n    {\n        return staffMembers[_from];\n    }\n\n    function listStaffMembers(uint256 _from)\n        public\n        view\n        returns (StaffMember[10] memory)\n    {\n        return listStaffMembers(_from, false);\n    }\n\n    function listStaffMembers(uint256 _from, bool skipInactive)\n        public\n        view\n        returns (StaffMember[10] memory)\n    {\n        StaffMember[10] memory list;\n        for (uint256 i = 0; i < 10; i++) {\n            if (skipInactive && !staffMembers[i + _from + 1].active) {\n                _from++;\n                i--;\n            } else if (nextStaffMembersId < i + _from + 1) {\n                i = 10;\n            } else {\n                list[i] = staffMembers[i + _from + 1];\n            }\n        }\n        return list;\n    }\n\n    function staffMembersLength() public view returns (uint256) {\n        return nextStaffMembersId - 1;\n    }\n\n    function createStaffMember(string memory _name, uint256 _departmentId)\n        public\n        payable\n    {\n        if (allowed(msg.sender)) {\n            uint256 _nextStaffMemberId = nextStaffMembersId++;\n            StaffMember storage _staffMember = staffMembers[_nextStaffMemberId];\n            _staffMember.id = _nextStaffMemberId;\n            _staffMember.name = _name;\n            _staffMember.departmentId = _departmentId;\n            _staffMember.active = true;\n        }\n    }\n\n    function updateStaffMember(\n        uint256 _staffMemberId,\n        string memory _name,\n        uint256 _departmentId,\n        bool _active\n    ) public payable {\n        if (allowed(msg.sender)) {\n            StaffMember storage _staffMember = staffMembers[_staffMemberId];\n            _staffMember.name = _name;\n            _staffMember.departmentId = _departmentId;\n            _staffMember.active = _active;\n        }\n    }\n\n    function listModifiers(uint256 _from)\n        public\n        view\n        returns (address[10] memory)\n    {\n        address[10] memory list;\n        for (uint256 i = 0; i < 10; i++) {\n            if (i + _from >= allowedModifiers.length) {\n                i = 10;\n            } else {\n                list[i] = allowedModifiers[i + _from];\n            }\n        }\n        return list;\n    }\n\n    function modifiersLength() public view returns (uint256) {\n        return allowedModifiers.length;\n    }\n\n    function addModifier(address _modifier) public payable {\n        if (allowed(msg.sender) && !allowedModifiersMap[_modifier]) {\n            allowedModifiers.push(_modifier);\n            allowedModifiersMap[_modifier] = true;\n            emit ModifierAdded(msg.sender, _modifier);\n        }\n    }\n\n    function removeModifier(address _modifier) public payable {\n        if (allowedToRemove(msg.sender, _modifier)) {\n            for (uint256 i = 0; i < allowedModifiers.length; i++) {\n                if (allowedModifiers[i] == _modifier) {\n                    uint256 _lastIndex = allowedModifiers.length - 1;\n                    if (i < _lastIndex) {\n                        allowedModifiers[i] = allowedModifiers[_lastIndex];\n                    }\n                    allowedModifiers.pop();\n                }\n            }\n            delete allowedModifiersMap[_modifier];\n            emit ModifierRemoved(msg.sender, _modifier);\n        }\n    }\n\n    function allowedToRemove(address _sender, address _toRemove)\n        public\n        view\n        returns (bool)\n    {\n        if (allowed(_sender)) {\n            if (_sender == _toRemove) {\n                return false;\n            } else if (_toRemove == owner) {\n                return false;\n            } else {\n                return true;\n            }\n        } else {\n            return false;\n        }\n    }\n\n    function allowed(address _modifierAddress) public view returns (bool) {\n        return allowed(_modifierAddress, 0);\n    }\n\n    function allowed(address modifierAddress, uint256 index)\n        private\n        view\n        returns (bool)\n    {\n        if (modifierAddress == allowedModifiers[index]) {\n            return true;\n        } else if (index < allowedModifiers.length - 1) {\n            return allowed(modifierAddress, index + 1);\n        } else {\n            return false;\n        }\n    }\n\n    function addCertificate(Certificate _certificate) public payable {\n        if (\n            allowed(msg.sender) &&\n            _certificate.status() == Certificate.State.approved &&\n            _certificate.institution() == this\n        ) {\n            issuedCertificates.push(_certificate);\n        }\n    }\n}\n\ncontract Application {\n    /*\n    Application is the root contract that the UI will use to interact with sub contracts \n    */\n\n    mapping(uint256 => Institution) public institutions;\n    uint256 nextInstitutionId = 0;\n    mapping(address => Faculty) public faculties;\n    mapping(uint256 => Faculty) facultiesByIndex;\n    uint256 nextFacultyId = 0;\n\n    mapping(uint256 => Certificate[]) pendingCertificates;\n\n    function createInstitution(string memory _name) public payable {\n        uint256 _id = nextInstitutionId++;\n        Institution _institution = new Institution(_id, _name, msg.sender);\n        institutions[_id] = _institution;\n    }\n\n    function listInstitutions(uint256 _from)\n        public\n        view\n        returns (Institution[10] memory)\n    {\n        Institution[10] memory list;\n        for (uint256 i = 0; i < 10; i++) {\n            list[i] = institutions[i + _from];\n        }\n        return list;\n    }\n\n    function institutionsLength() public view returns (uint256) {\n        return nextInstitutionId;\n    }\n\n    function createFaculty(string memory _name) public payable {\n        if (address(faculties[msg.sender]) == address(0x0)) {\n            uint256 _id = nextFacultyId++;\n            Faculty faculty = new Faculty(_id, _name, msg.sender);\n            facultiesByIndex[_id] = faculty;\n            faculties[msg.sender] = faculty;\n        }\n    }\n\n    function listFaculties(uint256 _from)\n        public\n        view\n        returns (Faculty[10] memory)\n    {\n        Faculty[10] memory list;\n        for (uint256 i = 0; i < 10; i++) {\n            list[i] = facultiesByIndex[i + _from];\n        }\n        return list;\n    }\n\n    function facultiesLength() public view returns (uint256) {\n        return nextFacultyId;\n    }\n\n    function removeCertificate(Certificate _certificate) public payable {\n        uint256 _instituionId = _certificate.institution().id();\n        Certificate[] storage _pendingCertificates =\n            pendingCertificates[_instituionId];\n        for (uint256 i = 0; i < _pendingCertificates.length; i++) {\n            if (_pendingCertificates[i] == _certificate) {\n                uint256 _lastIndex = _pendingCertificates.length - 1;\n                if (i < _lastIndex) {\n                    _pendingCertificates[i] = _pendingCertificates[_lastIndex];\n                }\n                _pendingCertificates.pop();\n            }\n        }\n    }\n}\n",
  "sourcePath": "/home/mortadaak/Projects/aacsb_accreditiation/contracts/Application.sol",
  "compiler": {
    "name": "solc",
    "version": "0.7.5+commit.eb77ed08.Emscripten.clang"
  },
  "schemaVersion": "3.3.3",
  "updatedAt": "2021-01-11T13:10:13.116Z",
  "networkType": "ethereum",
  "devdoc": {
    "kind": "dev",
    "methods": {},
    "version": 1
  },
  "userdoc": {
    "kind": "user",
    "methods": {},
    "version": 1
  }
}