{
  "contractName": "CertificateManager",
  "abi": [
    {
      "inputs": [
        {
          "internalType": "contract Application",
          "name": "_application",
          "type": "address"
        }
      ],
      "stateMutability": "nonpayable",
      "type": "constructor"
    },
    {
      "inputs": [],
      "name": "application",
      "outputs": [
        {
          "internalType": "contract Application",
          "name": "",
          "type": "address"
        }
      ],
      "stateMutability": "view",
      "type": "function"
    },
    {
      "inputs": [
        {
          "internalType": "contract Faculty",
          "name": "_faculty",
          "type": "address"
        },
        {
          "internalType": "contract Institution",
          "name": "_institution",
          "type": "address"
        },
        {
          "internalType": "enum Degree",
          "name": "_degree",
          "type": "uint8"
        }
      ],
      "name": "requestCertificate",
      "outputs": [],
      "stateMutability": "payable",
      "type": "function"
    },
    {
      "inputs": [
        {
          "internalType": "contract Certificate",
          "name": "_certificate",
          "type": "address"
        }
      ],
      "name": "removeCertificate",
      "outputs": [],
      "stateMutability": "payable",
      "type": "function"
    },
    {
      "inputs": [
        {
          "internalType": "contract Faculty",
          "name": "_faculty",
          "type": "address"
        }
      ],
      "name": "pendingCertificateLengthForFaculty",
      "outputs": [
        {
          "internalType": "uint256",
          "name": "",
          "type": "uint256"
        }
      ],
      "stateMutability": "view",
      "type": "function"
    },
    {
      "inputs": [
        {
          "internalType": "contract Faculty",
          "name": "_faculty",
          "type": "address"
        },
        {
          "internalType": "uint256",
          "name": "_from",
          "type": "uint256"
        }
      ],
      "name": "pendingCertificateForFaculty",
      "outputs": [
        {
          "internalType": "contract Certificate[10]",
          "name": "",
          "type": "address[10]"
        }
      ],
      "stateMutability": "view",
      "type": "function"
    },
    {
      "inputs": [
        {
          "internalType": "contract Institution",
          "name": "_institution",
          "type": "address"
        }
      ],
      "name": "pendingCertificateLengthForInstitution",
      "outputs": [
        {
          "internalType": "uint256",
          "name": "",
          "type": "uint256"
        }
      ],
      "stateMutability": "view",
      "type": "function"
    },
    {
      "inputs": [
        {
          "internalType": "contract Institution",
          "name": "_institution",
          "type": "address"
        },
        {
          "internalType": "uint256",
          "name": "_from",
          "type": "uint256"
        }
      ],
      "name": "pendingCertificateForInstitution",
      "outputs": [
        {
          "internalType": "contract Certificate[10]",
          "name": "",
          "type": "address[10]"
        }
      ],
      "stateMutability": "view",
      "type": "function"
    }
  ],
  "bytecode": "0x60806040523480156200001157600080fd5b5060405162002d4938038062002d49833981810160405281019062000037919062000096565b80600160006101000a81548173ffffffffffffffffffffffffffffffffffffffff021916908373ffffffffffffffffffffffffffffffffffffffff1602179055505062000124565b60008151905062000090816200010a565b92915050565b600060208284031215620000a957600080fd5b6000620000b9848285016200007f565b91505092915050565b6000620000cf82620000ea565b9050919050565b6000620000e382620000c2565b9050919050565b600073ffffffffffffffffffffffffffffffffffffffff82169050919050565b6200011581620000d6565b81146200012157600080fd5b50565b612c1580620001346000396000f3fe6080604052600436106200007a5760003560e01c8063910b70cc1162000055578063910b70cc14620000ef5780639a2393f61462000133578063ad7a592f1462000177578063da60f30d14620001bb576200007a565b8063062cd999146200007f57806326e4ca82146200009f5780634069e45d14620000cf575b600080fd5b6200009d600480360381019062000097919062000ee0565b620001ff565b005b348015620000ac57600080fd5b50620000b7620003cd565b604051620000c691906200123b565b60405180910390f35b620000ed6004803603810190620000e7919062000e5c565b620003f3565b005b348015620000fc57600080fd5b506200011b600480360381019062000115919062000f77565b62000790565b6040516200012a9190620013c1565b60405180910390f35b3480156200014057600080fd5b506200015f600480360381019062000159919062000e88565b620008b7565b6040516200016e9190620013c1565b60405180910390f35b3480156200018457600080fd5b50620001a360048036038101906200019d919062000fcf565b620009de565b604051620001b291906200121d565b60405180910390f35b348015620001c857600080fd5b50620001e76004803603810190620001e1919062000f36565b62000bb4565b604051620001f691906200121d565b60405180910390f35b600030848484604051620002139062000d8a565b62000222949392919062001258565b604051809103906000f0801580156200023f573d6000803e3d6000fd5b5090506000819080600181540180825580915050600190039060005260206000200160009091909190916101000a81548173ffffffffffffffffffffffffffffffffffffffff021916908373ffffffffffffffffffffffffffffffffffffffff160217905550600160009054906101000a900473ffffffffffffffffffffffffffffffffffffffff1673ffffffffffffffffffffffffffffffffffffffff166363441ab2846040518263ffffffff1660e01b81526004016200030291906200137a565b600060405180830381600087803b1580156200031d57600080fd5b505af115801562000332573d6000803e3d6000fd5b50505050600160009054906101000a900473ffffffffffffffffffffffffffffffffffffffff1673ffffffffffffffffffffffffffffffffffffffff166363441ab2856040518263ffffffff1660e01b815260040162000393919062001333565b600060405180830381600087803b158015620003ae57600080fd5b505af1158015620003c3573d6000803e3d6000fd5b5050505050505050565b600160009054906101000a900473ffffffffffffffffffffffffffffffffffffffff1681565b60005b60008054905081101562000568578173ffffffffffffffffffffffffffffffffffffffff16600082815481106200042957fe5b9060005260206000200160009054906101000a900473ffffffffffffffffffffffffffffffffffffffff1673ffffffffffffffffffffffffffffffffffffffff1614156200055a5760006001600080549050039050808210156200051757600081815481106200049557fe5b9060005260206000200160009054906101000a900473ffffffffffffffffffffffffffffffffffffffff1660008381548110620004ce57fe5b9060005260206000200160006101000a81548173ffffffffffffffffffffffffffffffffffffffff021916908373ffffffffffffffffffffffffffffffffffffffff1602179055505b60008054806200052357fe5b6001900381819060005260206000200160006101000a81549073ffffffffffffffffffffffffffffffffffffffff02191690559055505b8080600101915050620003f6565b50600160009054906101000a900473ffffffffffffffffffffffffffffffffffffffff1673ffffffffffffffffffffffffffffffffffffffff166363441ab28273ffffffffffffffffffffffffffffffffffffffff1663d1384eb66040518163ffffffff1660e01b815260040160206040518083038186803b158015620005ee57600080fd5b505afa15801562000603573d6000803e3d6000fd5b505050506040513d601f19601f8201168201806040525081019062000629919062000fa3565b6040518263ffffffff1660e01b8152600401620006479190620012ec565b600060405180830381600087803b1580156200066257600080fd5b505af115801562000677573d6000803e3d6000fd5b50505050600160009054906101000a900473ffffffffffffffffffffffffffffffffffffffff1673ffffffffffffffffffffffffffffffffffffffff166363441ab28273ffffffffffffffffffffffffffffffffffffffff16631080d5f86040518163ffffffff1660e01b815260040160206040518083038186803b1580156200070057600080fd5b505afa15801562000715573d6000803e3d6000fd5b505050506040513d601f19601f820116820180604052508101906200073b919062000eb4565b6040518263ffffffff1660e01b8152600401620007599190620012a5565b600060405180830381600087803b1580156200077457600080fd5b505af115801562000789573d6000803e3d6000fd5b5050505050565b6000806000905060005b600080549050811015620008ad578373ffffffffffffffffffffffffffffffffffffffff1660008281548110620007cd57fe5b9060005260206000200160009054906101000a900473ffffffffffffffffffffffffffffffffffffffff1673ffffffffffffffffffffffffffffffffffffffff1663d1384eb66040518163ffffffff1660e01b815260040160206040518083038186803b1580156200083e57600080fd5b505afa15801562000853573d6000803e3d6000fd5b505050506040513d601f19601f8201168201806040525081019062000879919062000fa3565b73ffffffffffffffffffffffffffffffffffffffff1614156200089f5781806001019250505b80806001019150506200079a565b5080915050919050565b6000806000905060005b600080549050811015620009d4578373ffffffffffffffffffffffffffffffffffffffff1660008281548110620008f457fe5b9060005260206000200160009054906101000a900473ffffffffffffffffffffffffffffffffffffffff1673ffffffffffffffffffffffffffffffffffffffff16631080d5f86040518163ffffffff1660e01b815260040160206040518083038186803b1580156200096557600080fd5b505afa1580156200097a573d6000803e3d6000fd5b505050506040513d601f19601f82011682018060405250810190620009a0919062000eb4565b73ffffffffffffffffffffffffffffffffffffffff161415620009c65781806001019250505b8080600101915050620008c1565b5080915050919050565b620009e862000d98565b620009f262000d98565b60008060005b6000805490508110801562000a0e5750600a8310155b1562000ba7578673ffffffffffffffffffffffffffffffffffffffff166000828154811062000a3957fe5b9060005260206000200160009054906101000a900473ffffffffffffffffffffffffffffffffffffffff1673ffffffffffffffffffffffffffffffffffffffff1663d1384eb66040518163ffffffff1660e01b815260040160206040518083038186803b15801562000aaa57600080fd5b505afa15801562000abf573d6000803e3d6000fd5b505050506040513d601f19601f8201168201806040525081019062000ae5919062000fa3565b73ffffffffffffffffffffffffffffffffffffffff16141562000b995785821062000b90576000818154811062000b1857fe5b9060005260206000200160009054906101000a900473ffffffffffffffffffffffffffffffffffffffff168484600a811062000b5057fe5b602002019073ffffffffffffffffffffffffffffffffffffffff16908173ffffffffffffffffffffffffffffffffffffffff168152505082806001019350505b81806001019250505b8080600101915050620009f8565b5082935050505092915050565b62000bbe62000d98565b62000bc862000d98565b60008060005b6000805490508110801562000be45750600a8310155b1562000d7d578673ffffffffffffffffffffffffffffffffffffffff166000828154811062000c0f57fe5b9060005260206000200160009054906101000a900473ffffffffffffffffffffffffffffffffffffffff1673ffffffffffffffffffffffffffffffffffffffff16631080d5f86040518163ffffffff1660e01b815260040160206040518083038186803b15801562000c8057600080fd5b505afa15801562000c95573d6000803e3d6000fd5b505050506040513d601f19601f8201168201806040525081019062000cbb919062000eb4565b73ffffffffffffffffffffffffffffffffffffffff16141562000d6f5785821062000d66576000818154811062000cee57fe5b9060005260206000200160009054906101000a900473ffffffffffffffffffffffffffffffffffffffff168484600a811062000d2657fe5b602002019073ffffffffffffffffffffffffffffffffffffffff16908173ffffffffffffffffffffffffffffffffffffffff168152505082806001019350505b81806001019250505b808060010191505062000bce565b5082935050505092915050565b6115c6806200161a83390190565b604051806101400160405280600a90602082028036833780820191505090505090565b60008135905062000dcc81620015a0565b92915050565b60008135905062000de381620015ba565b92915050565b60008151905062000dfa81620015ba565b92915050565b60008135905062000e1181620015d4565b92915050565b60008151905062000e2881620015d4565b92915050565b60008135905062000e3f81620015ee565b92915050565b60008135905062000e5681620015ff565b92915050565b60006020828403121562000e6f57600080fd5b600062000e7f8482850162000dbb565b91505092915050565b60006020828403121562000e9b57600080fd5b600062000eab8482850162000dd2565b91505092915050565b60006020828403121562000ec757600080fd5b600062000ed78482850162000de9565b91505092915050565b60008060006060848603121562000ef657600080fd5b600062000f068682870162000dd2565b935050602062000f198682870162000e00565b925050604062000f2c8682870162000e2e565b9150509250925092565b6000806040838503121562000f4a57600080fd5b600062000f5a8582860162000dd2565b925050602062000f6d8582860162000e45565b9150509250929050565b60006020828403121562000f8a57600080fd5b600062000f9a8482850162000e00565b91505092915050565b60006020828403121562000fb657600080fd5b600062000fc68482850162000e17565b91505092915050565b6000806040838503121562000fe357600080fd5b600062000ff38582860162000e00565b9250506020620010068582860162000e45565b9150509250929050565b60006200101e8383620010c0565b60208301905092915050565b62001035816200141c565b82525050565b6200104681620013e8565b62001052818462001400565b92506200105f82620013de565b8060005b83811015620010965781516200107a878262001010565b96506200108783620013f3565b92505060018101905062001063565b505050505050565b620010a981620014ab565b82525050565b620010ba81620014d3565b82525050565b620010cb81620014fb565b82525050565b620010dc8162001523565b82525050565b620010ed816200154b565b82525050565b620010fe8162001573565b82525050565b6000620011136007836200140b565b91507f464143554c5459000000000000000000000000000000000000000000000000006000830152602082019050919050565b6000620011556012836200140b565b91507f43455254494649434154455f52454d4f564500000000000000000000000000006000830152602082019050919050565b6000620011976013836200140b565b91507f524551554553545f4345525449464943415445000000000000000000000000006000830152602082019050919050565b6000620011d9600b836200140b565b91507f494e535449545554494f4e0000000000000000000000000000000000000000006000830152602082019050919050565b6200121781620014a1565b82525050565b6000610140820190506200123560008301846200103b565b92915050565b60006020820190506200125260008301846200109e565b92915050565b60006080820190506200126f6000830187620010af565b6200127e6020830186620010d1565b6200128d6040830185620010e2565b6200129c6060830184620010f3565b95945050505050565b60006060820190508181036000830152620012c08162001146565b90508181036020830152620012d58162001104565b9050620012e660408301846200102a565b92915050565b60006060820190508181036000830152620013078162001146565b905081810360208301526200131c81620011ca565b90506200132d60408301846200102a565b92915050565b600060608201905081810360008301526200134e8162001188565b90508181036020830152620013638162001104565b90506200137460408301846200102a565b92915050565b60006060820190508181036000830152620013958162001188565b90508181036020830152620013aa81620011ca565b9050620013bb60408301846200102a565b92915050565b6000602082019050620013d860008301846200120c565b92915050565b6000819050919050565b6000600a9050919050565b6000602082019050919050565b600081905092915050565b600082825260208201905092915050565b6000620014298262001481565b9050919050565b60006200143d826200141c565b9050919050565b600062001451826200141c565b9050919050565b600062001465826200141c565b9050919050565b60008190506200147c8262001589565b919050565b600073ffffffffffffffffffffffffffffffffffffffff82169050919050565b6000819050919050565b6000620014b882620014bf565b9050919050565b6000620014cc8262001481565b9050919050565b6000620014e082620014e7565b9050919050565b6000620014f48262001481565b9050919050565b600062001508826200150f565b9050919050565b60006200151c8262001481565b9050919050565b6000620015308262001537565b9050919050565b6000620015448262001481565b9050919050565b600062001558826200155f565b9050919050565b60006200156c8262001481565b9050919050565b600062001580826200146c565b9050919050565bfe5b600481106200159d576200159c62001587565b5b50565b620015ab8162001430565b8114620015b757600080fd5b50565b620015c58162001444565b8114620015d157600080fd5b50565b620015df8162001458565b8114620015eb57600080fd5b50565b60048110620015fc57600080fd5b50565b6200160a81620014a1565b81146200161657600080fd5b5056fe60806040526000600160156101000a81548160ff021916908360028111156200002457fe5b02179055503480156200003657600080fd5b50604051620015c6380380620015c683398181016040528101906200005c9190620001a8565b83600260006101000a81548173ffffffffffffffffffffffffffffffffffffffff021916908373ffffffffffffffffffffffffffffffffffffffff160217905550826000806101000a81548173ffffffffffffffffffffffffffffffffffffffff021916908373ffffffffffffffffffffffffffffffffffffffff16021790555081600160006101000a81548173ffffffffffffffffffffffffffffffffffffffff021916908373ffffffffffffffffffffffffffffffffffffffff16021790555080600160146101000a81548160ff021916908360038111156200013d57fe5b021790555050505050620002e3565b6000815190506200015d8162000284565b92915050565b60008151905062000174816200029e565b92915050565b6000815190506200018b81620002b8565b92915050565b600081519050620001a281620002d2565b92915050565b60008060008060808587031215620001bf57600080fd5b6000620001cf878288016200014c565b9450506020620001e28782880162000163565b9350506040620001f5878288016200017a565b9250506060620002088782880162000191565b91505092959194509250565b6000620002218262000264565b9050919050565b6000620002358262000214565b9050919050565b6000620002498262000214565b9050919050565b60006200025d8262000214565b9050919050565b600073ffffffffffffffffffffffffffffffffffffffff82169050919050565b6200028f8162000228565b81146200029b57600080fd5b50565b620002a9816200023c565b8114620002b557600080fd5b50565b620002c38162000250565b8114620002cf57600080fd5b50565b60048110620002e057600080fd5b50565b6112d380620002f36000396000f3fe60806040526004361061007b5760003560e01c8063d1384eb61161004e578063d1384eb6146100ea578063f35d710214610115578063f929dba714610140578063fc66c5d31461015c5761007b565b80631080d5f81461008057806312424e3f146100ab578063200d2ed2146100b55780634dc415de146100e0575b600080fd5b34801561008c57600080fd5b50610095610199565b6040516100a29190610f79565b60405180910390f35b6100b36101bd565b005b3480156100c157600080fd5b506100ca610651565b6040516100d79190610fca565b60405180910390f35b6100e8610664565b005b3480156100f657600080fd5b506100ff61092a565b60405161010c9190610f94565b60405180910390f35b34801561012157600080fd5b5061012a610950565b6040516101379190610faf565b60405180910390f35b61015a60048036038101906101559190610d43565b610963565b005b34801561016857600080fd5b50610183600480360381019061017e9190610c9f565b610aa2565b6040516101909190610f1a565b60405180910390f35b60008054906101000a900473ffffffffffffffffffffffffffffffffffffffff1681565b6101c633610aa2565b80156102795750600160009054906101000a900473ffffffffffffffffffffffffffffffffffffffff1673ffffffffffffffffffffffffffffffffffffffff1663d63a8e11336040518263ffffffff1660e01b81526004016102289190610eff565b60206040518083038186803b15801561024057600080fd5b505afa158015610254573d6000803e3d6000fd5b505050506040513d601f19601f820116820180604052508101906102789190610cc8565b5b1561064f5760018060156101000a81548160ff0219169083600281111561029c57fe5b021790555060008054906101000a900473ffffffffffffffffffffffffffffffffffffffff1673ffffffffffffffffffffffffffffffffffffffff1663781dd72230336040518363ffffffff1660e01b81526004016102fc929190610f50565b600060405180830381600087803b15801561031657600080fd5b505af115801561032a573d6000803e3d6000fd5b50505050600160009054906101000a900473ffffffffffffffffffffffffffffffffffffffff1673ffffffffffffffffffffffffffffffffffffffff1663781dd72230336040518363ffffffff1660e01b815260040161038b929190610f50565b600060405180830381600087803b1580156103a557600080fd5b505af11580156103b9573d6000803e3d6000fd5b50505050600260009054906101000a900473ffffffffffffffffffffffffffffffffffffffff1673ffffffffffffffffffffffffffffffffffffffff166326e4ca826040518163ffffffff1660e01b815260040160206040518083038186803b15801561042557600080fd5b505afa158015610439573d6000803e3d6000fd5b505050506040513d601f19601f8201168201806040525081019061045d9190610cf1565b73ffffffffffffffffffffffffffffffffffffffff1663c1c161406040518163ffffffff1660e01b815260040160206040518083038186803b1580156104a257600080fd5b505afa1580156104b6573d6000803e3d6000fd5b505050506040513d601f19601f820116820180604052508101906104da9190610d1a565b73ffffffffffffffffffffffffffffffffffffffff16634069e45d306040518263ffffffff1660e01b81526004016105129190610f35565b600060405180830381600087803b15801561052c57600080fd5b505af1158015610540573d6000803e3d6000fd5b50505050600260009054906101000a900473ffffffffffffffffffffffffffffffffffffffff1673ffffffffffffffffffffffffffffffffffffffff166326e4ca826040518163ffffffff1660e01b815260040160206040518083038186803b1580156105ac57600080fd5b505afa1580156105c0573d6000803e3d6000fd5b505050506040513d601f19601f820116820180604052508101906105e49190610cf1565b73ffffffffffffffffffffffffffffffffffffffff166363441ab2306040518263ffffffff1660e01b815260040161061c9190611067565b600060405180830381600087803b15801561063657600080fd5b505af115801561064a573d6000803e3d6000fd5b505050505b565b600160159054906101000a900460ff1681565b61066d33610aa2565b15610928576002600160156101000a81548160ff0219169083600281111561069157fe5b0217905550600260009054906101000a900473ffffffffffffffffffffffffffffffffffffffff1673ffffffffffffffffffffffffffffffffffffffff166326e4ca826040518163ffffffff1660e01b815260040160206040518083038186803b1580156106fe57600080fd5b505afa158015610712573d6000803e3d6000fd5b505050506040513d601f19601f820116820180604052508101906107369190610cf1565b73ffffffffffffffffffffffffffffffffffffffff1663c1c161406040518163ffffffff1660e01b815260040160206040518083038186803b15801561077b57600080fd5b505afa15801561078f573d6000803e3d6000fd5b505050506040513d601f19601f820116820180604052508101906107b39190610d1a565b73ffffffffffffffffffffffffffffffffffffffff16634069e45d306040518263ffffffff1660e01b81526004016107eb9190610f35565b600060405180830381600087803b15801561080557600080fd5b505af1158015610819573d6000803e3d6000fd5b50505050600260009054906101000a900473ffffffffffffffffffffffffffffffffffffffff1673ffffffffffffffffffffffffffffffffffffffff166326e4ca826040518163ffffffff1660e01b815260040160206040518083038186803b15801561088557600080fd5b505afa158015610899573d6000803e3d6000fd5b505050506040513d601f19601f820116820180604052508101906108bd9190610cf1565b73ffffffffffffffffffffffffffffffffffffffff166363441ab2306040518263ffffffff1660e01b81526004016108f59190611026565b600060405180830381600087803b15801561090f57600080fd5b505af1158015610923573d6000803e3d6000fd5b505050505b565b600160009054906101000a900473ffffffffffffffffffffffffffffffffffffffff1681565b600160149054906101000a900460ff1681565b61096c33610aa2565b15610a9f5780600160146101000a81548160ff0219169083600381111561098f57fe5b0217905550600260009054906101000a900473ffffffffffffffffffffffffffffffffffffffff1673ffffffffffffffffffffffffffffffffffffffff166326e4ca826040518163ffffffff1660e01b815260040160206040518083038186803b1580156109fc57600080fd5b505afa158015610a10573d6000803e3d6000fd5b505050506040513d601f19601f82011682018060405250810190610a349190610cf1565b73ffffffffffffffffffffffffffffffffffffffff166363441ab2306040518263ffffffff1660e01b8152600401610a6c9190610fe5565b600060405180830381600087803b158015610a8657600080fd5b505af1158015610a9a573d6000803e3d6000fd5b505050505b50565b6000806002811115610ab057fe5b600160159054906101000a900460ff166002811115610acb57fe5b148015610b7f5750600160009054906101000a900473ffffffffffffffffffffffffffffffffffffffff1673ffffffffffffffffffffffffffffffffffffffff1663d63a8e11836040518263ffffffff1660e01b8152600401610b2e9190610ee4565b60206040518083038186803b158015610b4657600080fd5b505afa158015610b5a573d6000803e3d6000fd5b505050506040513d601f19601f82011682018060405250810190610b7e9190610cc8565b5b80610c2f575060008054906101000a900473ffffffffffffffffffffffffffffffffffffffff1673ffffffffffffffffffffffffffffffffffffffff1663d63a8e11836040518263ffffffff1660e01b8152600401610bde9190610ee4565b60206040518083038186803b158015610bf657600080fd5b505afa158015610c0a573d6000803e3d6000fd5b505050506040513d601f19601f82011682018060405250810190610c2e9190610cc8565b5b9050919050565b600081359050610c4581611231565b92915050565b600081519050610c5a81611248565b92915050565b600081519050610c6f8161125f565b92915050565b600081519050610c8481611276565b92915050565b600081359050610c998161128d565b92915050565b600060208284031215610cb157600080fd5b6000610cbf84828501610c36565b91505092915050565b600060208284031215610cda57600080fd5b6000610ce884828501610c4b565b91505092915050565b600060208284031215610d0357600080fd5b6000610d1184828501610c60565b91505092915050565b600060208284031215610d2c57600080fd5b6000610d3a84828501610c75565b91505092915050565b600060208284031215610d5557600080fd5b6000610d6384828501610c8a565b91505092915050565b610d7581611141565b82525050565b610d84816110b9565b82525050565b610d93816110cb565b82525050565b610da281611153565b82525050565b610db181611177565b82525050565b610dc08161119b565b82525050565b610dcf816111bf565b82525050565b610dde816111d1565b82525050565b6000610df16012836110a8565b91507f5550444154455f434552544946494341544500000000000000000000000000006000830152602082019050919050565b6000610e31600b836110a8565b91507f43455254494649434154450000000000000000000000000000000000000000006000830152602082019050919050565b6000610e716012836110a8565b91507f52454a4563545f434552544946494341544500000000000000000000000000006000830152602082019050919050565b6000610eb16013836110a8565b91507f415050524f56455f4345525449464943415445000000000000000000000000006000830152602082019050919050565b6000602082019050610ef96000830184610d7b565b92915050565b6000602082019050610f146000830184610d6c565b92915050565b6000602082019050610f2f6000830184610d8a565b92915050565b6000602082019050610f4a6000830184610d99565b92915050565b6000604082019050610f656000830185610d99565b610f726020830184610d6c565b9392505050565b6000602082019050610f8e6000830184610da8565b92915050565b6000602082019050610fa96000830184610db7565b92915050565b6000602082019050610fc46000830184610dc6565b92915050565b6000602082019050610fdf6000830184610dd5565b92915050565b60006060820190508181036000830152610ffe81610de4565b9050818103602083015261101181610e24565b90506110206040830184610d7b565b92915050565b6000606082019050818103600083015261103f81610e64565b9050818103602083015261105281610e24565b90506110616040830184610d7b565b92915050565b6000606082019050818103600083015261108081610ea4565b9050818103602083015261109381610e24565b90506110a26040830184610d7b565b92915050565b600082825260208201905092915050565b60006110c482611121565b9050919050565b60008115159050919050565b60006110e2826110b9565b9050919050565b60006110f4826110b9565b9050919050565b600081905061110982611209565b919050565b600081905061111c8261121d565b919050565b600073ffffffffffffffffffffffffffffffffffffffff82169050919050565b600061114c826111e3565b9050919050565b600061115e82611165565b9050919050565b600061117082611121565b9050919050565b600061118282611189565b9050919050565b600061119482611121565b9050919050565b60006111a6826111ad565b9050919050565b60006111b882611121565b9050919050565b60006111ca826110fb565b9050919050565b60006111dc8261110e565b9050919050565b60006111ee826111f5565b9050919050565b600061120082611121565b9050919050565bfe5b6004811061121a57611219611207565b5b50565b6003811061122e5761122d611207565b5b50565b61123a816110b9565b811461124557600080fd5b50565b611251816110cb565b811461125c57600080fd5b50565b611268816110d7565b811461127357600080fd5b50565b61127f816110e9565b811461128a57600080fd5b50565b6004811061129a57600080fd5b5056fea264697066735822122089e3cc0280c21af1bf9c8824d66331c07f30adc8f77713a7fcfda113efc30d8c64736f6c63430007050033a2646970667358221220bd035cfadfc3a05cb7f59931e5c41e20a71113a209783fe2b7b920f465ae2b2164736f6c63430007050033",
  "immutableReferences": {},
  "source": "// SPDX-License-Identifier: GPL-3.0\npragma solidity >=0.5.0 <0.8.0;\npragma abicoder v2;\nenum Degree {\n    ScholarlyAcademics,\n    PracticeAcademics,\n    ScholarlyPractitioner,\n    InstructionalPractitioner\n}\n\ncontract Certificate {\n    enum State {requested, approved, rejected}\n\n    Faculty public faculty;\n    Institution public institution;\n    Degree public degree;\n    State public status = State.requested;\n    CertificateManager certificateManager;\n\n    constructor(\n        CertificateManager _certificateManager,\n        Faculty _faculty,\n        Institution _institution,\n        Degree _degree\n    ) {\n        certificateManager = _certificateManager;\n        faculty = _faculty;\n        institution = _institution;\n        degree = _degree;\n    }\n\n    function update(Degree _degree) public payable {\n        if (editable(msg.sender)) {\n            degree = _degree;\n            certificateManager.application().emitEvent(\n                \"UPDATE_CERTIFICATE\",\n                \"CERTIFICATE\",\n                address(this)\n            );\n        }\n    }\n\n    function reject() public payable {\n        if (editable(msg.sender)) {\n            status = State.rejected;\n            certificateManager\n                .application()\n                .certificateManager()\n                .removeCertificate(this);\n            certificateManager.application().emitEvent(\n                \"REJEcT_CERTIFICATE\",\n                \"CERTIFICATE\",\n                address(this)\n            );\n        }\n    }\n\n    function approve() public payable {\n        if (editable(msg.sender) && institution.allowed(msg.sender)) {\n            status = State.approved;\n            faculty.addCertificate(this, msg.sender);\n            institution.addCertificate(this, msg.sender);\n            certificateManager\n                .application()\n                .certificateManager()\n                .removeCertificate(this);\n            certificateManager.application().emitEvent(\n                \"APPROVE_CERTIFICATE\",\n                \"CERTIFICATE\",\n                address(this)\n            );\n        }\n    }\n\n    function editable(address _address) public view returns (bool) {\n        return ((status == State.requested &&\n            (institution.allowed(_address))) || faculty.allowed(_address));\n    }\n}\n\ncontract Faculty {\n    uint256 id;\n    string public name;\n    address public owner;\n    Certificate[] public certificates;\n    Institution public currentInstitution;\n    FacultiesManager facultiesManager;\n\n    constructor(\n        FacultiesManager _facultiesManager,\n        uint256 _id,\n        string memory _name,\n        address _owner\n    ) {\n        facultiesManager = _facultiesManager;\n        name = _name;\n        id = _id;\n        owner = _owner;\n    }\n\n    function update(string memory _name) public payable {\n        if (allowed(msg.sender)) {\n            name = _name;\n            facultiesManager.application().emitEvent(\n                \"UPDATE_FACULTY\",\n                \"FACULTY\",\n                address(this)\n            );\n        }\n    }\n\n    function assignInstitution(address _institutionAddress) public payable {\n        Institution _institution = Institution(_institutionAddress);\n        if (_institution.allowed(msg.sender)) {\n            currentInstitution = _institution;\n        }\n    }\n\n    function allowed(address _address) public view returns (bool) {\n        return _address == owner;\n    }\n\n    function addCertificate(Certificate _certificate, address _address)\n        public\n        payable\n    {\n        if (\n            _certificate.institution().allowed(_address) &&\n            _certificate.status() == Certificate.State.approved &&\n            _certificate.faculty() == this\n        ) {\n            certificates.push(_certificate);\n            facultiesManager.application().emitEvent(\n                \"ADD_CERTIFICATE\",\n                \"FACULTY\",\n                address(this)\n            );\n        }\n    }\n\n    function certificatesLength() public view returns (uint256) {\n        return certificates.length;\n    }\n\n    function pendingCertificatesLength() public view returns (uint256) {\n        return\n            facultiesManager\n                .application()\n                .certificateManager()\n                .pendingCertificateLengthForFaculty(this);\n    }\n\n    function pendingCertificates(uint256 _from)\n        public\n        view\n        returns (Certificate[10] memory)\n    {\n        return\n            facultiesManager\n                .application()\n                .certificateManager()\n                .pendingCertificateForFaculty(this, _from);\n    }\n}\n\ncontract Institution {\n    struct StaffMember {\n        uint256 id;\n        string name;\n        bool active;\n    }\n\n    uint256 public id;\n    string public name;\n    address public owner;\n\n    Certificate[] certificates;\n    InstituionsManager instituionsManager;\n    address[] public allowedModifiers;\n    mapping(address => bool) allowedModifiersMap;\n\n    mapping(uint256 => StaffMember) staffMembers;\n    uint256 nextStaffMembersId = 1;\n\n    mapping(uint256 => Faculty) faculties;\n    uint256 nextFacultyId;\n\n    constructor(\n        InstituionsManager _instituionsManager,\n        uint256 _id,\n        string memory _name,\n        address sender\n    ) {\n        instituionsManager = _instituionsManager;\n        id = _id;\n        name = _name;\n        owner = sender;\n        allowedModifiers.push(sender);\n        allowedModifiersMap[sender] = true;\n    }\n\n    function update(string memory _name) public payable {\n        if (allowed(msg.sender)) {\n            name = _name;\n        }\n    }\n\n    function staffMember(uint256 _from)\n        public\n        view\n        returns (StaffMember memory)\n    {\n        return staffMembers[_from];\n    }\n\n    function listStaffMembers(uint256 _from, bool skipInactive)\n        public\n        view\n        returns (StaffMember[10] memory)\n    {\n        StaffMember[10] memory list;\n        for (uint256 i = 0; i < 10; i++) {\n            if (nextStaffMembersId < i + _from + 1) {\n                i = 10;\n            } else if (skipInactive && !staffMembers[i + _from + 1].active) {\n                _from++;\n                i--;\n            } else {\n                list[i] = staffMembers[i + _from + 1];\n            }\n        }\n        return list;\n    }\n\n    function staffMembersLength() public view returns (uint256) {\n        return nextStaffMembersId - 1;\n    }\n\n    function createStaffMember(string memory _name) public payable {\n        if (allowed(msg.sender)) {\n            uint256 _nextStaffMemberId = nextStaffMembersId++;\n            StaffMember storage _staffMember = staffMembers[_nextStaffMemberId];\n            _staffMember.id = _nextStaffMemberId;\n            _staffMember.name = _name;\n            _staffMember.active = true;\n            instituionsManager.application().emitEvent(\n                \"ADD_STAFF_MEMBER_INSTITUTION\",\n                \"INSTITUTION\",\n                address(this)\n            );\n        }\n    }\n\n    function updateStaffMember(\n        uint256 _staffMemberId,\n        string memory _name,\n        bool _active\n    ) public payable {\n        if (allowed(msg.sender)) {\n            StaffMember storage _staffMember = staffMembers[_staffMemberId];\n            _staffMember.name = _name;\n            _staffMember.active = _active;\n            instituionsManager.application().emitEvent(\n                \"UPDATE_STAFF_MEMBER_INSTITUTION\",\n                \"INSTITUTION\",\n                address(this)\n            );\n        }\n    }\n\n    function listModifiers(uint256 _from)\n        public\n        view\n        returns (address[10] memory)\n    {\n        address[10] memory list;\n        for (uint256 i = 0; i < 10; i++) {\n            if (i + _from >= allowedModifiers.length) {\n                i = 10;\n            } else {\n                list[i] = allowedModifiers[i + _from];\n            }\n        }\n        return list;\n    }\n\n    function modifiersLength() public view returns (uint256) {\n        return allowedModifiers.length;\n    }\n\n    function addModifier(address _modifier) public payable {\n        if (allowed(msg.sender) && !allowedModifiersMap[_modifier]) {\n            allowedModifiers.push(_modifier);\n            allowedModifiersMap[_modifier] = true;\n            instituionsManager.application().emitEvent(\n                \"ADD_MODIFIER_INSTITUTION\",\n                \"INSTITUTION\",\n                address(this)\n            );\n        }\n    }\n\n    function removeModifier(address _modifier) public payable {\n        if (allowedToRemove(msg.sender, _modifier)) {\n            for (uint256 i = 0; i < allowedModifiers.length; i++) {\n                if (allowedModifiers[i] == _modifier) {\n                    uint256 _lastIndex = allowedModifiers.length - 1;\n                    if (i < _lastIndex) {\n                        allowedModifiers[i] = allowedModifiers[_lastIndex];\n                    }\n                    allowedModifiers.pop();\n                }\n            }\n            delete allowedModifiersMap[_modifier];\n            instituionsManager.application().emitEvent(\n                \"REMOVE_MODIFIER_INSTITUTION\",\n                \"INSTITUTION\",\n                address(this)\n            );\n        }\n    }\n\n    function allowedToRemove(address _sender, address _toRemove)\n        public\n        view\n        returns (bool)\n    {\n        if (allowed(_sender)) {\n            if (_sender == _toRemove) {\n                return false;\n            } else if (_toRemove == owner) {\n                return false;\n            } else {\n                return true;\n            }\n        } else {\n            return false;\n        }\n    }\n\n    function allowed(address _modifierAddress) public view returns (bool) {\n        return allowed(_modifierAddress, 0);\n    }\n\n    function allowed(address modifierAddress, uint256 index)\n        private\n        view\n        returns (bool)\n    {\n        if (modifierAddress == allowedModifiers[index]) {\n            return true;\n        } else if (index < allowedModifiers.length - 1) {\n            return allowed(modifierAddress, index + 1);\n        } else {\n            return false;\n        }\n    }\n\n    function addCertificate(Certificate _certificate, address _address)\n        public\n        payable\n    {\n        if (\n            allowed(_address) &&\n            _certificate.status() == Certificate.State.approved &&\n            _certificate.institution() == this\n        ) {\n            certificates.push(_certificate);\n            instituionsManager.application().emitEvent(\n                \"ADD_CERTIFICATE_INSTITUTION\",\n                \"INSTITUTION\",\n                address(this)\n            );\n        }\n    }\n\n    function issuedCertificates(uint256 _from)\n        public\n        view\n        returns (Certificate[10] memory)\n    {\n        Certificate[10] memory _list;\n        uint256 _count = 0;\n        for (uint256 i = _from; i < certificates.length && _count < 10; i++) {\n            _list[_count] = certificates[i];\n            _count++;\n        }\n        return _list;\n    }\n\n    function issuedCertificatesLength() public view returns (uint256) {\n        return certificates.length;\n    }\n}\n\ncontract CertificateManager {\n    Certificate[] pendingCertificates;\n    Application public application;\n\n    constructor(Application _application) {\n        application = _application;\n    }\n\n    function requestCertificate(\n        Faculty _faculty,\n        Institution _institution,\n        Degree _degree\n    ) public payable {\n        Certificate _certificate =\n            new Certificate(this, _faculty, _institution, _degree);\n        pendingCertificates.push(_certificate);\n        application.emitEvent(\n            \"REQUEST_CERTIFICATE\",\n            \"INSTITUTION\",\n            address(_institution)\n        );\n        application.emitEvent(\n            \"REQUEST_CERTIFICATE\",\n            \"FACULTY\",\n            address(_faculty)\n        );\n    }\n\n    function removeCertificate(Certificate _certificate) public payable {\n        for (uint256 i = 0; i < pendingCertificates.length; i++) {\n            if (pendingCertificates[i] == _certificate) {\n                uint256 _lastIndex = pendingCertificates.length - 1;\n                if (i < _lastIndex) {\n                    pendingCertificates[i] = pendingCertificates[_lastIndex];\n                }\n                pendingCertificates.pop();\n            }\n        }\n        application.emitEvent(\n            \"CERTIFICATE_REMOVE\",\n            \"INSTITUTION\",\n            address(_certificate.institution())\n        );\n        application.emitEvent(\n            \"CERTIFICATE_REMOVE\",\n            \"FACULTY\",\n            address(_certificate.faculty())\n        );\n    }\n\n    function pendingCertificateLengthForFaculty(Faculty _faculty)\n        public\n        view\n        returns (uint256)\n    {\n        uint256 _count = 0;\n        for (uint256 i = 0; i < pendingCertificates.length; i++) {\n            if (pendingCertificates[i].faculty() == _faculty) {\n                _count++;\n            }\n        }\n        return _count;\n    }\n\n    function pendingCertificateForFaculty(Faculty _faculty, uint256 _from)\n        public\n        view\n        returns (Certificate[10] memory)\n    {\n        Certificate[10] memory _list;\n        uint256 _count = 0;\n        uint256 _toSkip = 0;\n        for (\n            uint256 i = 0;\n            i < pendingCertificates.length && _count >= 10;\n            i++\n        ) {\n            if (pendingCertificates[i].faculty() == _faculty) {\n                if (_toSkip >= _from) {\n                    _list[_count] = pendingCertificates[i];\n                    _count++;\n                }\n                _toSkip++;\n            }\n        }\n        return _list;\n    }\n\n    function pendingCertificateLengthForInstitution(Institution _institution)\n        public\n        view\n        returns (uint256)\n    {\n        uint256 _count = 0;\n        for (uint256 i = 0; i < pendingCertificates.length; i++) {\n            if (pendingCertificates[i].institution() == _institution) {\n                _count++;\n            }\n        }\n        return _count;\n    }\n\n    function pendingCertificateForInstitution(\n        Institution _institution,\n        uint256 _from\n    ) public view returns (Certificate[10] memory) {\n        Certificate[10] memory _list;\n        uint256 _count = 0;\n        uint256 _toSkip = 0;\n        for (\n            uint256 i = 0;\n            i < pendingCertificates.length && _count >= 10;\n            i++\n        ) {\n            if (pendingCertificates[i].institution() == _institution) {\n                if (_toSkip >= _from) {\n                    _list[_count] = pendingCertificates[i];\n                    _count++;\n                }\n                _toSkip++;\n            }\n        }\n        return _list;\n    }\n}\n\ncontract FacultiesManager {\n    Application public application;\n    mapping(address => Faculty) public faculties;\n    mapping(uint256 => Faculty) facultiesByIndex;\n    uint256 nextFacultyId = 0;\n\n    constructor(Application _application) {\n        application = _application;\n    }\n\n    function facultiesLength() public view returns (uint256) {\n        return nextFacultyId;\n    }\n\n    function createFaculty(string memory _name) public payable {\n        if (address(faculties[msg.sender]) == address(0x0)) {\n            uint256 _id = nextFacultyId++;\n            Faculty faculty = new Faculty(this, _id, _name, msg.sender);\n            facultiesByIndex[_id] = faculty;\n            faculties[msg.sender] = faculty;\n            application.emitEvent(\n                \"CREATE_FACULTY\",\n                \"FACULTY\",\n                address(faculty)\n            );\n        }\n    }\n\n    function listFaculties(uint256 _from)\n        public\n        view\n        returns (Faculty[10] memory)\n    {\n        Faculty[10] memory list;\n        for (uint256 i = 0; i < 10; i++) {\n            list[i] = facultiesByIndex[i + _from];\n        }\n        return list;\n    }\n}\n\ncontract InstituionsManager {\n    Application public application;\n    mapping(uint256 => Institution) public institutions;\n    uint256 nextInstitutionId = 0;\n\n    constructor(Application _application) {\n        application = _application;\n    }\n\n    function institutionsLength() public view returns (uint256) {\n        return nextInstitutionId;\n    }\n\n    function createInstitution(string memory _name) public payable {\n        uint256 _id = nextInstitutionId++;\n        Institution _institution =\n            new Institution(this, _id, _name, msg.sender);\n        institutions[_id] = _institution;\n        application.emitEvent(\n            \"CREATE_INSTITUTION\",\n            \"INSTITUTION\",\n            address(_institution)\n        );\n    }\n\n    function listInstitutions(uint256 _from)\n        public\n        view\n        returns (Institution[10] memory)\n    {\n        Institution[10] memory list;\n        for (uint256 i = 0; i < 10; i++) {\n            list[i] = institutions[i + _from];\n        }\n        return list;\n    }\n}\n\ncontract Application {\n    /*\n    Application is the root contract that the UI will use to interact with sub contracts \n    */\n    CertificateManager public certificateManager;\n    FacultiesManager public facultiesManager;\n    InstituionsManager public instituionsManager;\n    event ApplicationEvent(\n        string eventType,\n        string targetType,\n        address targetAddress\n    );\n\n    constructor() {\n        certificateManager = new CertificateManager(this);\n        facultiesManager = new FacultiesManager(this);\n        instituionsManager = new InstituionsManager(this);\n    }\n\n    function emitEvent(\n        string memory eventType,\n        string memory targetType,\n        address targetAddress\n    ) public payable {\n        emit ApplicationEvent(eventType, targetType, targetAddress);\n    }\n}\n",
  "sourcePath": "/home/mortadaak/projects/aacsb_accreditiation/contracts/Application.sol",
  "compiler": {
    "name": "solc",
    "version": "0.7.5+commit.eb77ed08.Emscripten.clang"
  },
  "schemaVersion": "3.3.3",
  "updatedAt": "2021-01-17T17:28:40.468Z",
  "devdoc": {
    "kind": "dev",
    "methods": {},
    "version": 1
  },
  "userdoc": {
    "kind": "user",
    "methods": {},
    "version": 1
  }
}