{
  "contractName": "CertificatesManager",
  "abi": [
    {
      "inputs": [
        {
          "internalType": "contract Application",
          "name": "_application",
          "type": "address"
        }
      ],
      "stateMutability": "nonpayable",
      "type": "constructor"
    },
    {
      "inputs": [],
      "name": "application",
      "outputs": [
        {
          "internalType": "contract Application",
          "name": "",
          "type": "address"
        }
      ],
      "stateMutability": "view",
      "type": "function"
    },
    {
      "inputs": [
        {
          "internalType": "contract Faculty",
          "name": "_faculty",
          "type": "address"
        },
        {
          "internalType": "contract Institution",
          "name": "_institution",
          "type": "address"
        },
        {
          "internalType": "enum Degree",
          "name": "_degree",
          "type": "uint8"
        }
      ],
      "name": "requestCertificate",
      "outputs": [],
      "stateMutability": "payable",
      "type": "function"
    },
    {
      "inputs": [
        {
          "internalType": "contract Certificate",
          "name": "_certificate",
          "type": "address"
        }
      ],
      "name": "removeCertificate",
      "outputs": [],
      "stateMutability": "payable",
      "type": "function"
    },
    {
      "inputs": [
        {
          "internalType": "contract Faculty",
          "name": "_faculty",
          "type": "address"
        }
      ],
      "name": "pendingCertificatesLengthForFaculty",
      "outputs": [
        {
          "internalType": "uint256",
          "name": "",
          "type": "uint256"
        }
      ],
      "stateMutability": "view",
      "type": "function"
    },
    {
      "inputs": [
        {
          "internalType": "contract Faculty",
          "name": "_faculty",
          "type": "address"
        },
        {
          "internalType": "uint256",
          "name": "_from",
          "type": "uint256"
        }
      ],
      "name": "pendingCertificatesForFaculty",
      "outputs": [
        {
          "internalType": "contract Certificate[10]",
          "name": "",
          "type": "address[10]"
        }
      ],
      "stateMutability": "view",
      "type": "function"
    },
    {
      "inputs": [
        {
          "internalType": "contract Institution",
          "name": "_institution",
          "type": "address"
        }
      ],
      "name": "pendingCertificatesLengthForInstitution",
      "outputs": [
        {
          "internalType": "uint256",
          "name": "",
          "type": "uint256"
        }
      ],
      "stateMutability": "view",
      "type": "function"
    },
    {
      "inputs": [
        {
          "internalType": "contract Institution",
          "name": "_institution",
          "type": "address"
        },
        {
          "internalType": "uint256",
          "name": "_from",
          "type": "uint256"
        }
      ],
      "name": "pendingCertificatesForInstitution",
      "outputs": [
        {
          "internalType": "contract Certificate[10]",
          "name": "",
          "type": "address[10]"
        }
      ],
      "stateMutability": "view",
      "type": "function"
    }
  ],
  "bytecode": "0x60806040523480156200001157600080fd5b50604051620029a0380380620029a0833981810160405281019062000037919062000096565b80600160006101000a81548173ffffffffffffffffffffffffffffffffffffffff021916908373ffffffffffffffffffffffffffffffffffffffff1602179055505062000124565b60008151905062000090816200010a565b92915050565b600060208284031215620000a957600080fd5b6000620000b9848285016200007f565b91505092915050565b6000620000cf82620000ea565b9050919050565b6000620000e382620000c2565b9050919050565b600073ffffffffffffffffffffffffffffffffffffffff82169050919050565b6200011581620000d6565b81146200012157600080fd5b50565b61286c80620001346000396000f3fe6080604052600436106200007a5760003560e01c80634069e45d11620000555780634069e45d1462000113578063aa5e41271462000133578063af4cb78b1462000177578063b0fb271414620001bb576200007a565b8063062cd999146200007f57806326e4ca82146200009f5780632d44154914620000cf575b600080fd5b6200009d600480360381019062000097919062000eea565b620001ff565b005b348015620000ac57600080fd5b50620000b7620003cd565b604051620000c6919062001245565b60405180910390f35b348015620000dc57600080fd5b50620000fb6004803603810190620000f5919062000f81565b620003f3565b6040516200010a9190620013cb565b60405180910390f35b6200013160048036038101906200012b919062000e66565b6200051a565b005b3480156200014057600080fd5b506200015f600480360381019062000159919062000fd9565b620008b7565b6040516200016e919062001227565b60405180910390f35b3480156200018457600080fd5b50620001a360048036038101906200019d919062000e92565b62000a92565b604051620001b29190620013cb565b60405180910390f35b348015620001c857600080fd5b50620001e76004803603810190620001e1919062000f40565b62000bb9565b604051620001f6919062001227565b60405180910390f35b600030848484604051620002139062000d94565b62000222949392919062001262565b604051809103906000f0801580156200023f573d6000803e3d6000fd5b5090506000819080600181540180825580915050600190039060005260206000200160009091909190916101000a81548173ffffffffffffffffffffffffffffffffffffffff021916908373ffffffffffffffffffffffffffffffffffffffff160217905550600160009054906101000a900473ffffffffffffffffffffffffffffffffffffffff1673ffffffffffffffffffffffffffffffffffffffff166363441ab2846040518263ffffffff1660e01b815260040162000302919062001384565b600060405180830381600087803b1580156200031d57600080fd5b505af115801562000332573d6000803e3d6000fd5b50505050600160009054906101000a900473ffffffffffffffffffffffffffffffffffffffff1673ffffffffffffffffffffffffffffffffffffffff166363441ab2856040518263ffffffff1660e01b81526004016200039391906200133d565b600060405180830381600087803b158015620003ae57600080fd5b505af1158015620003c3573d6000803e3d6000fd5b5050505050505050565b600160009054906101000a900473ffffffffffffffffffffffffffffffffffffffff1681565b6000806000905060005b60008054905081101562000510578373ffffffffffffffffffffffffffffffffffffffff16600082815481106200043057fe5b9060005260206000200160009054906101000a900473ffffffffffffffffffffffffffffffffffffffff1673ffffffffffffffffffffffffffffffffffffffff1663d1384eb66040518163ffffffff1660e01b815260040160206040518083038186803b158015620004a157600080fd5b505afa158015620004b6573d6000803e3d6000fd5b505050506040513d601f19601f82011682018060405250810190620004dc919062000fad565b73ffffffffffffffffffffffffffffffffffffffff161415620005025781806001019250505b8080600101915050620003fd565b5080915050919050565b60005b6000805490508110156200068f578173ffffffffffffffffffffffffffffffffffffffff16600082815481106200055057fe5b9060005260206000200160009054906101000a900473ffffffffffffffffffffffffffffffffffffffff1673ffffffffffffffffffffffffffffffffffffffff161415620006815760006001600080549050039050808210156200063e5760008181548110620005bc57fe5b9060005260206000200160009054906101000a900473ffffffffffffffffffffffffffffffffffffffff1660008381548110620005f557fe5b9060005260206000200160006101000a81548173ffffffffffffffffffffffffffffffffffffffff021916908373ffffffffffffffffffffffffffffffffffffffff1602179055505b60008054806200064a57fe5b6001900381819060005260206000200160006101000a81549073ffffffffffffffffffffffffffffffffffffffff02191690559055505b80806001019150506200051d565b50600160009054906101000a900473ffffffffffffffffffffffffffffffffffffffff1673ffffffffffffffffffffffffffffffffffffffff166363441ab28273ffffffffffffffffffffffffffffffffffffffff1663d1384eb66040518163ffffffff1660e01b815260040160206040518083038186803b1580156200071557600080fd5b505afa1580156200072a573d6000803e3d6000fd5b505050506040513d601f19601f8201168201806040525081019062000750919062000fad565b6040518263ffffffff1660e01b81526004016200076e9190620012f6565b600060405180830381600087803b1580156200078957600080fd5b505af11580156200079e573d6000803e3d6000fd5b50505050600160009054906101000a900473ffffffffffffffffffffffffffffffffffffffff1673ffffffffffffffffffffffffffffffffffffffff166363441ab28273ffffffffffffffffffffffffffffffffffffffff16631080d5f86040518163ffffffff1660e01b815260040160206040518083038186803b1580156200082757600080fd5b505afa1580156200083c573d6000803e3d6000fd5b505050506040513d601f19601f8201168201806040525081019062000862919062000ebe565b6040518263ffffffff1660e01b8152600401620008809190620012af565b600060405180830381600087803b1580156200089b57600080fd5b505af1158015620008b0573d6000803e3d6000fd5b5050505050565b620008c162000da2565b620008cb62000da2565b60008060005b60008054905081108015620008e65750600a83105b1562000a85578673ffffffffffffffffffffffffffffffffffffffff16600082815481106200091157fe5b9060005260206000200160009054906101000a900473ffffffffffffffffffffffffffffffffffffffff1673ffffffffffffffffffffffffffffffffffffffff1663d1384eb66040518163ffffffff1660e01b815260040160206040518083038186803b1580156200098257600080fd5b505afa15801562000997573d6000803e3d6000fd5b505050506040513d601f19601f82011682018060405250810190620009bd919062000fad565b73ffffffffffffffffffffffffffffffffffffffff16141562000a775785821062000a6d5760008181548110620009f057fe5b9060005260206000200160009054906101000a900473ffffffffffffffffffffffffffffffffffffffff168484600a811062000a2857fe5b602002019073ffffffffffffffffffffffffffffffffffffffff16908173ffffffffffffffffffffffffffffffffffffffff1681525050828060010193505062000a76565b81806001019250505b5b8080600101915050620008d1565b5082935050505092915050565b6000806000905060005b60008054905081101562000baf578373ffffffffffffffffffffffffffffffffffffffff166000828154811062000acf57fe5b9060005260206000200160009054906101000a900473ffffffffffffffffffffffffffffffffffffffff1673ffffffffffffffffffffffffffffffffffffffff16631080d5f86040518163ffffffff1660e01b815260040160206040518083038186803b15801562000b4057600080fd5b505afa15801562000b55573d6000803e3d6000fd5b505050506040513d601f19601f8201168201806040525081019062000b7b919062000ebe565b73ffffffffffffffffffffffffffffffffffffffff16141562000ba15781806001019250505b808060010191505062000a9c565b5080915050919050565b62000bc362000da2565b62000bcd62000da2565b60008060005b6000805490508110801562000be85750600a83105b1562000d87578673ffffffffffffffffffffffffffffffffffffffff166000828154811062000c1357fe5b9060005260206000200160009054906101000a900473ffffffffffffffffffffffffffffffffffffffff1673ffffffffffffffffffffffffffffffffffffffff16631080d5f86040518163ffffffff1660e01b815260040160206040518083038186803b15801562000c8457600080fd5b505afa15801562000c99573d6000803e3d6000fd5b505050506040513d601f19601f8201168201806040525081019062000cbf919062000ebe565b73ffffffffffffffffffffffffffffffffffffffff16141562000d795785821062000d6f576000818154811062000cf257fe5b9060005260206000200160009054906101000a900473ffffffffffffffffffffffffffffffffffffffff168484600a811062000d2a57fe5b602002019073ffffffffffffffffffffffffffffffffffffffff16908173ffffffffffffffffffffffffffffffffffffffff1681525050828060010193505062000d78565b81806001019250505b5b808060010191505062000bd3565b5082935050505092915050565b611213806200162483390190565b604051806101400160405280600a90602082028036833780820191505090505090565b60008135905062000dd681620015aa565b92915050565b60008135905062000ded81620015c4565b92915050565b60008151905062000e0481620015c4565b92915050565b60008135905062000e1b81620015de565b92915050565b60008151905062000e3281620015de565b92915050565b60008135905062000e4981620015f8565b92915050565b60008135905062000e608162001609565b92915050565b60006020828403121562000e7957600080fd5b600062000e898482850162000dc5565b91505092915050565b60006020828403121562000ea557600080fd5b600062000eb58482850162000ddc565b91505092915050565b60006020828403121562000ed157600080fd5b600062000ee18482850162000df3565b91505092915050565b60008060006060848603121562000f0057600080fd5b600062000f108682870162000ddc565b935050602062000f238682870162000e0a565b925050604062000f368682870162000e38565b9150509250925092565b6000806040838503121562000f5457600080fd5b600062000f648582860162000ddc565b925050602062000f778582860162000e4f565b9150509250929050565b60006020828403121562000f9457600080fd5b600062000fa48482850162000e0a565b91505092915050565b60006020828403121562000fc057600080fd5b600062000fd08482850162000e21565b91505092915050565b6000806040838503121562000fed57600080fd5b600062000ffd8582860162000e0a565b9250506020620010108582860162000e4f565b9150509250929050565b6000620010288383620010b9565b60208301905092915050565b6200103f8162001426565b82525050565b6200105081620013f2565b6200105c81846200140a565b92506200106982620013e8565b8060005b83811015620010a05781516200108487826200101a565b96506200109183620013fd565b9250506001810190506200106d565b505050505050565b620010b381620014b5565b82525050565b620010c481620014dd565b82525050565b620010d58162001505565b82525050565b620010e6816200152d565b82525050565b620010f78162001555565b82525050565b62001108816200157d565b82525050565b60006200111d60078362001415565b91507f464143554c5459000000000000000000000000000000000000000000000000006000830152602082019050919050565b60006200115f60128362001415565b91507f43455254494649434154455f52454d4f564500000000000000000000000000006000830152602082019050919050565b6000620011a160138362001415565b91507f524551554553545f4345525449464943415445000000000000000000000000006000830152602082019050919050565b6000620011e3600b8362001415565b91507f494e535449545554494f4e0000000000000000000000000000000000000000006000830152602082019050919050565b6200122181620014ab565b82525050565b6000610140820190506200123f600083018462001045565b92915050565b60006020820190506200125c6000830184620010a8565b92915050565b6000608082019050620012796000830187620010ca565b620012886020830186620010db565b620012976040830185620010ec565b620012a66060830184620010fd565b95945050505050565b60006060820190508181036000830152620012ca8162001150565b90508181036020830152620012df816200110e565b9050620012f0604083018462001034565b92915050565b60006060820190508181036000830152620013118162001150565b905081810360208301526200132681620011d4565b905062001337604083018462001034565b92915050565b60006060820190508181036000830152620013588162001192565b905081810360208301526200136d816200110e565b90506200137e604083018462001034565b92915050565b600060608201905081810360008301526200139f8162001192565b90508181036020830152620013b481620011d4565b9050620013c5604083018462001034565b92915050565b6000602082019050620013e2600083018462001216565b92915050565b6000819050919050565b6000600a9050919050565b6000602082019050919050565b600081905092915050565b600082825260208201905092915050565b600062001433826200148b565b9050919050565b6000620014478262001426565b9050919050565b60006200145b8262001426565b9050919050565b60006200146f8262001426565b9050919050565b6000819050620014868262001593565b919050565b600073ffffffffffffffffffffffffffffffffffffffff82169050919050565b6000819050919050565b6000620014c282620014c9565b9050919050565b6000620014d6826200148b565b9050919050565b6000620014ea82620014f1565b9050919050565b6000620014fe826200148b565b9050919050565b6000620015128262001519565b9050919050565b600062001526826200148b565b9050919050565b60006200153a8262001541565b9050919050565b60006200154e826200148b565b9050919050565b6000620015628262001569565b9050919050565b600062001576826200148b565b9050919050565b60006200158a8262001476565b9050919050565bfe5b60048110620015a757620015a662001591565b5b50565b620015b5816200143a565b8114620015c157600080fd5b50565b620015cf816200144e565b8114620015db57600080fd5b50565b620015e98162001462565b8114620015f557600080fd5b50565b600481106200160657600080fd5b50565b6200161481620014ab565b81146200162057600080fd5b5056fe60806040526000600160156101000a81548160ff021916908360028111156200002457fe5b02179055503480156200003657600080fd5b50604051620012133803806200121383398181016040528101906200005c9190620001a8565b83600260006101000a81548173ffffffffffffffffffffffffffffffffffffffff021916908373ffffffffffffffffffffffffffffffffffffffff160217905550826000806101000a81548173ffffffffffffffffffffffffffffffffffffffff021916908373ffffffffffffffffffffffffffffffffffffffff16021790555081600160006101000a81548173ffffffffffffffffffffffffffffffffffffffff021916908373ffffffffffffffffffffffffffffffffffffffff16021790555080600160146101000a81548160ff021916908360038111156200013d57fe5b021790555050505050620002e3565b6000815190506200015d8162000284565b92915050565b60008151905062000174816200029e565b92915050565b6000815190506200018b81620002b8565b92915050565b600081519050620001a281620002d2565b92915050565b60008060008060808587031215620001bf57600080fd5b6000620001cf878288016200014c565b9450506020620001e28782880162000163565b9350506040620001f5878288016200017a565b9250506060620002088782880162000191565b91505092959194509250565b6000620002218262000264565b9050919050565b6000620002358262000214565b9050919050565b6000620002498262000214565b9050919050565b60006200025d8262000214565b9050919050565b600073ffffffffffffffffffffffffffffffffffffffff82169050919050565b6200028f8162000228565b81146200029b57600080fd5b50565b620002a9816200023c565b8114620002b557600080fd5b50565b620002c38162000250565b8114620002cf57600080fd5b50565b60048110620002e057600080fd5b50565b610f2080620002f36000396000f3fe6080604052600436106100705760003560e01c80634dc415de1161004e5780634dc415de146100d5578063d1384eb6146100df578063f35d71021461010a578063fc66c5d31461013557610070565b80631080d5f81461007557806312424e3f146100a0578063200d2ed2146100aa575b600080fd5b34801561008157600080fd5b5061008a610172565b6040516100979190610c17565b60405180910390f35b6100a8610196565b005b3480156100b657600080fd5b506100bf610577565b6040516100cc9190610c68565b60405180910390f35b6100dd61058a565b005b3480156100eb57600080fd5b506100f4610850565b6040516101019190610c32565b60405180910390f35b34801561011657600080fd5b5061011f610876565b60405161012c9190610c4d565b60405180910390f35b34801561014157600080fd5b5061015c600480360381019061015791906109c1565b610889565b6040516101699190610bb8565b60405180910390f35b60008054906101000a900473ffffffffffffffffffffffffffffffffffffffff1681565b61019f33610889565b156105755760018060156101000a81548160ff021916908360028111156101c257fe5b021790555060008054906101000a900473ffffffffffffffffffffffffffffffffffffffff1673ffffffffffffffffffffffffffffffffffffffff1663781dd72230336040518363ffffffff1660e01b8152600401610222929190610bee565b600060405180830381600087803b15801561023c57600080fd5b505af1158015610250573d6000803e3d6000fd5b50505050600160009054906101000a900473ffffffffffffffffffffffffffffffffffffffff1673ffffffffffffffffffffffffffffffffffffffff1663781dd72230336040518363ffffffff1660e01b81526004016102b1929190610bee565b600060405180830381600087803b1580156102cb57600080fd5b505af11580156102df573d6000803e3d6000fd5b50505050600260009054906101000a900473ffffffffffffffffffffffffffffffffffffffff1673ffffffffffffffffffffffffffffffffffffffff166326e4ca826040518163ffffffff1660e01b815260040160206040518083038186803b15801561034b57600080fd5b505afa15801561035f573d6000803e3d6000fd5b505050506040513d601f19601f820116820180604052508101906103839190610a13565b73ffffffffffffffffffffffffffffffffffffffff1663ff25025b6040518163ffffffff1660e01b815260040160206040518083038186803b1580156103c857600080fd5b505afa1580156103dc573d6000803e3d6000fd5b505050506040513d601f19601f820116820180604052508101906104009190610a3c565b73ffffffffffffffffffffffffffffffffffffffff16634069e45d306040518263ffffffff1660e01b81526004016104389190610bd3565b600060405180830381600087803b15801561045257600080fd5b505af1158015610466573d6000803e3d6000fd5b50505050600260009054906101000a900473ffffffffffffffffffffffffffffffffffffffff1673ffffffffffffffffffffffffffffffffffffffff166326e4ca826040518163ffffffff1660e01b815260040160206040518083038186803b1580156104d257600080fd5b505afa1580156104e6573d6000803e3d6000fd5b505050506040513d601f19601f8201168201806040525081019061050a9190610a13565b73ffffffffffffffffffffffffffffffffffffffff166363441ab2306040518263ffffffff1660e01b81526004016105429190610cc4565b600060405180830381600087803b15801561055c57600080fd5b505af1158015610570573d6000803e3d6000fd5b505050505b565b600160159054906101000a900460ff1681565b61059333610889565b1561084e576002600160156101000a81548160ff021916908360028111156105b757fe5b0217905550600260009054906101000a900473ffffffffffffffffffffffffffffffffffffffff1673ffffffffffffffffffffffffffffffffffffffff166326e4ca826040518163ffffffff1660e01b815260040160206040518083038186803b15801561062457600080fd5b505afa158015610638573d6000803e3d6000fd5b505050506040513d601f19601f8201168201806040525081019061065c9190610a13565b73ffffffffffffffffffffffffffffffffffffffff1663ff25025b6040518163ffffffff1660e01b815260040160206040518083038186803b1580156106a157600080fd5b505afa1580156106b5573d6000803e3d6000fd5b505050506040513d601f19601f820116820180604052508101906106d99190610a3c565b73ffffffffffffffffffffffffffffffffffffffff16634069e45d306040518263ffffffff1660e01b81526004016107119190610bd3565b600060405180830381600087803b15801561072b57600080fd5b505af115801561073f573d6000803e3d6000fd5b50505050600260009054906101000a900473ffffffffffffffffffffffffffffffffffffffff1673ffffffffffffffffffffffffffffffffffffffff166326e4ca826040518163ffffffff1660e01b815260040160206040518083038186803b1580156107ab57600080fd5b505afa1580156107bf573d6000803e3d6000fd5b505050506040513d601f19601f820116820180604052508101906107e39190610a13565b73ffffffffffffffffffffffffffffffffffffffff166363441ab2306040518263ffffffff1660e01b815260040161081b9190610c83565b600060405180830381600087803b15801561083557600080fd5b505af1158015610849573d6000803e3d6000fd5b505050505b565b600160009054906101000a900473ffffffffffffffffffffffffffffffffffffffff1681565b600160149054906101000a900460ff1681565b600080600281111561089757fe5b600160159054906101000a900460ff1660028111156108b257fe5b1480156109665750600160009054906101000a900473ffffffffffffffffffffffffffffffffffffffff1673ffffffffffffffffffffffffffffffffffffffff1663d63a8e11836040518263ffffffff1660e01b81526004016109159190610b9d565b60206040518083038186803b15801561092d57600080fd5b505afa158015610941573d6000803e3d6000fd5b505050506040513d601f19601f8201168201806040525081019061096591906109ea565b5b9050919050565b60008135905061097c81610e8e565b92915050565b60008151905061099181610ea5565b92915050565b6000815190506109a681610ebc565b92915050565b6000815190506109bb81610ed3565b92915050565b6000602082840312156109d357600080fd5b60006109e18482850161096d565b91505092915050565b6000602082840312156109fc57600080fd5b6000610a0a84828501610982565b91505092915050565b600060208284031215610a2557600080fd5b6000610a3384828501610997565b91505092915050565b600060208284031215610a4e57600080fd5b6000610a5c848285016109ac565b91505092915050565b610a6e81610d9e565b82525050565b610a7d81610d16565b82525050565b610a8c81610d28565b82525050565b610a9b81610db0565b82525050565b610aaa81610dd4565b82525050565b610ab981610df8565b82525050565b610ac881610e1c565b82525050565b610ad781610e2e565b82525050565b6000610aea600b83610d05565b91507f43455254494649434154450000000000000000000000000000000000000000006000830152602082019050919050565b6000610b2a601283610d05565b91507f52454a4563545f434552544946494341544500000000000000000000000000006000830152602082019050919050565b6000610b6a601383610d05565b91507f415050524f56455f4345525449464943415445000000000000000000000000006000830152602082019050919050565b6000602082019050610bb26000830184610a74565b92915050565b6000602082019050610bcd6000830184610a83565b92915050565b6000602082019050610be86000830184610a92565b92915050565b6000604082019050610c036000830185610a92565b610c106020830184610a65565b9392505050565b6000602082019050610c2c6000830184610aa1565b92915050565b6000602082019050610c476000830184610ab0565b92915050565b6000602082019050610c626000830184610abf565b92915050565b6000602082019050610c7d6000830184610ace565b92915050565b60006060820190508181036000830152610c9c81610b1d565b90508181036020830152610caf81610add565b9050610cbe6040830184610a74565b92915050565b60006060820190508181036000830152610cdd81610b5d565b90508181036020830152610cf081610add565b9050610cff6040830184610a74565b92915050565b600082825260208201905092915050565b6000610d2182610d7e565b9050919050565b60008115159050919050565b6000610d3f82610d16565b9050919050565b6000610d5182610d16565b9050919050565b6000819050610d6682610e66565b919050565b6000819050610d7982610e7a565b919050565b600073ffffffffffffffffffffffffffffffffffffffff82169050919050565b6000610da982610e40565b9050919050565b6000610dbb82610dc2565b9050919050565b6000610dcd82610d7e565b9050919050565b6000610ddf82610de6565b9050919050565b6000610df182610d7e565b9050919050565b6000610e0382610e0a565b9050919050565b6000610e1582610d7e565b9050919050565b6000610e2782610d58565b9050919050565b6000610e3982610d6b565b9050919050565b6000610e4b82610e52565b9050919050565b6000610e5d82610d7e565b9050919050565bfe5b60048110610e7757610e76610e64565b5b50565b60038110610e8b57610e8a610e64565b5b50565b610e9781610d16565b8114610ea257600080fd5b50565b610eae81610d28565b8114610eb957600080fd5b50565b610ec581610d34565b8114610ed057600080fd5b50565b610edc81610d46565b8114610ee757600080fd5b5056fea2646970667358221220f53adfdb0d8021bdfd3dc6ca46bede6297cc66f3b00062fab809d33a2ec5a3e664736f6c63430007050033a2646970667358221220300846e70fd066b19148d8a3172edd20c035d364fbcc81f6eab89f83d31d842c64736f6c63430007050033",
  "immutableReferences": {},
  "source": "// SPDX-License-Identifier: GPL-3.0\npragma solidity >=0.5.0 <0.8.0;\npragma abicoder v2;\nenum Degree {\n    ScholarlyAcademics,\n    PracticeAcademics,\n    ScholarlyPractitioner,\n    InstructionalPractitioner\n}\n\ncontract Certificate {\n    enum State {requested, approved, rejected}\n\n    Faculty public faculty;\n    Institution public institution;\n    Degree public degree;\n    State public status = State.requested;\n    CertificatesManager certificatesManager;\n\n    constructor(\n        CertificatesManager _certificatesManager,\n        Faculty _faculty,\n        Institution _institution,\n        Degree _degree\n    ) {\n        certificatesManager = _certificatesManager;\n        faculty = _faculty;\n        institution = _institution;\n        degree = _degree;\n    }\n\n    function reject() public payable {\n        if (editable(msg.sender)) {\n            status = State.rejected;\n            certificatesManager\n                .application()\n                .certificatesManager()\n                .removeCertificate(this);\n            certificatesManager.application().emitEvent(\n                \"REJEcT_CERTIFICATE\",\n                \"CERTIFICATE\",\n                address(this)\n            );\n        }\n    }\n\n    function approve() public payable {\n        if (editable(msg.sender)) {\n            status = State.approved;\n            faculty.addCertificate(this, msg.sender);\n            institution.addCertificate(this, msg.sender);\n            certificatesManager\n                .application()\n                .certificatesManager()\n                .removeCertificate(this);\n            certificatesManager.application().emitEvent(\n                \"APPROVE_CERTIFICATE\",\n                \"CERTIFICATE\",\n                address(this)\n            );\n        }\n    }\n\n    function editable(address _address) public view returns (bool) {\n        return status == State.requested && institution.allowed(_address);\n    }\n}\n\ncontract Faculty {\n    uint256 id;\n    string public name;\n    address public owner;\n    Certificate[] public certificates;\n    Institution public currentInstitution;\n    FacultiesManager facultiesManager;\n\n    constructor(\n        FacultiesManager _facultiesManager,\n        uint256 _id,\n        string memory _name,\n        address _owner\n    ) {\n        facultiesManager = _facultiesManager;\n        name = _name;\n        id = _id;\n        owner = _owner;\n    }\n\n    function update(string memory _name) public payable {\n        if (allowed(msg.sender)) {\n            name = _name;\n            facultiesManager.application().emitEvent(\n                \"UPDATE_FACULTY\",\n                \"FACULTY\",\n                address(this)\n            );\n        }\n    }\n\n    function assignInstitution(Institution _institution) public payable {\n        if (\n            address(_institution) == msg.sender ||\n            address(currentInstitution) == msg.sender\n        ) {\n            currentInstitution = _institution;\n            facultiesManager.application().emitEvent(\n                \"ASSIGN_INSTITUION\",\n                \"FACULTY\",\n                address(this)\n            );\n        }\n    }\n\n    function allowed(address _address) public view returns (bool) {\n        return _address == owner;\n    }\n\n    function addCertificate(Certificate _certificate, address _address)\n        public\n        payable\n    {\n        if (\n            _certificate.institution().allowed(_address) &&\n            _certificate.status() == Certificate.State.approved &&\n            _certificate.faculty() == this\n        ) {\n            certificates.push(_certificate);\n            facultiesManager.application().emitEvent(\n                \"ADD_CERTIFICATE\",\n                \"FACULTY\",\n                address(this)\n            );\n        }\n    }\n\n    function certificatesLength() public view returns (uint256) {\n        return certificates.length;\n    }\n\n    function listCertificates(uint256 _from)\n        public\n        view\n        returns (Certificate[10] memory)\n    {\n        Certificate[10] memory list;\n        for (uint256 i = 0; i < 10 && i + _from < certificates.length; i++) {\n            list[i] = certificates[i + _from];\n        }\n        return list;\n    }\n\n    function pendingCertificatesLength() public view returns (uint256) {\n        return\n            facultiesManager\n                .application()\n                .certificatesManager()\n                .pendingCertificatesLengthForFaculty(this);\n    }\n\n    function pendingCertificates(uint256 _from)\n        public\n        view\n        returns (Certificate[10] memory)\n    {\n        return\n            facultiesManager\n                .application()\n                .certificatesManager()\n                .pendingCertificatesForFaculty(this, _from);\n    }\n}\n\ncontract Institution {\n    struct StaffMember {\n        uint256 id;\n        string name;\n        bool active;\n    }\n\n    uint256 public id;\n    string public name;\n    address public owner;\n\n    Certificate[] certificates;\n    InstituionsManager instituionsManager;\n    address[] public allowedModifiers;\n    mapping(address => bool) allowedModifiersMap;\n\n    mapping(uint256 => StaffMember) staffMembers;\n    uint256 nextStaffMembersId = 1;\n\n    Faculty[] faculties;\n    mapping(Faculty => bool) facultiesMap;\n\n    constructor(\n        InstituionsManager _instituionsManager,\n        uint256 _id,\n        string memory _name,\n        address sender\n    ) {\n        instituionsManager = _instituionsManager;\n        id = _id;\n        name = _name;\n        owner = sender;\n        allowedModifiers.push(sender);\n        allowedModifiersMap[sender] = true;\n    }\n\n    function update(string memory _name) public payable {\n        if (allowed(msg.sender)) {\n            name = _name;\n        }\n    }\n\n    function staffMember(uint256 _from)\n        public\n        view\n        returns (StaffMember memory)\n    {\n        return staffMembers[_from];\n    }\n\n    function listStaffMembers(uint256 _from, bool skipInactive)\n        public\n        view\n        returns (StaffMember[10] memory)\n    {\n        StaffMember[10] memory list;\n        uint256 _count = 0;\n        uint256 _list_index = 0;\n        uint256 _i = 0;\n        while (_i < nextStaffMembersId && _count < 10) {\n            if (staffMembers[_i + 1].active || !skipInactive) {\n                if (_count >= _from) {\n                    list[_list_index] = staffMembers[_i + 1];\n                    _list_index++;\n                }\n                _count++;\n            }\n            _i++;\n        }\n        return list;\n    }\n\n    function staffMembersLength() public view returns (uint256) {\n        return nextStaffMembersId - 1;\n    }\n\n    function createStaffMember(string memory _name) public payable {\n        if (allowed(msg.sender)) {\n            uint256 _nextStaffMemberId = nextStaffMembersId++;\n            StaffMember storage _staffMember = staffMembers[_nextStaffMemberId];\n            _staffMember.id = _nextStaffMemberId;\n            _staffMember.name = _name;\n            _staffMember.active = true;\n            instituionsManager.application().emitEvent(\n                \"ADD_STAFF_MEMBER_INSTITUTION\",\n                \"INSTITUTION\",\n                address(this)\n            );\n        }\n    }\n\n    function updateStaffMember(\n        uint256 _staffMemberId,\n        string memory _name,\n        bool _active\n    ) public payable {\n        if (allowed(msg.sender)) {\n            StaffMember storage _staffMember = staffMembers[_staffMemberId];\n            _staffMember.name = _name;\n            _staffMember.active = _active;\n            instituionsManager.application().emitEvent(\n                \"UPDATE_STAFF_MEMBER_INSTITUTION\",\n                \"INSTITUTION\",\n                address(this)\n            );\n        }\n    }\n\n    function listModifiers(uint256 _from)\n        public\n        view\n        returns (address[10] memory)\n    {\n        address[10] memory list;\n        for (\n            uint256 i = 0;\n            i < 10 && i + _from < allowedModifiers.length;\n            i++\n        ) {\n            list[i] = allowedModifiers[i + _from];\n        }\n        return list;\n    }\n\n    function modifiersLength() public view returns (uint256) {\n        return allowedModifiers.length;\n    }\n\n    function addModifier(address _modifier) public payable {\n        if (allowed(msg.sender) && !allowedModifiersMap[_modifier]) {\n            allowedModifiers.push(_modifier);\n            allowedModifiersMap[_modifier] = true;\n            instituionsManager.application().emitEvent(\n                \"ADD_MODIFIER_INSTITUTION\",\n                \"INSTITUTION\",\n                address(this)\n            );\n        }\n    }\n\n    function removeModifier(address _modifier) public payable {\n        if (allowedToRemove(msg.sender, _modifier)) {\n            for (uint256 i = 0; i < allowedModifiers.length; i++) {\n                if (allowedModifiers[i] == _modifier) {\n                    uint256 _lastIndex = allowedModifiers.length - 1;\n                    if (i < _lastIndex) {\n                        allowedModifiers[i] = allowedModifiers[_lastIndex];\n                    }\n                    allowedModifiers.pop();\n                }\n            }\n            delete allowedModifiersMap[_modifier];\n            instituionsManager.application().emitEvent(\n                \"REMOVE_MODIFIER_INSTITUTION\",\n                \"INSTITUTION\",\n                address(this)\n            );\n        }\n    }\n\n    function allowedToRemove(address _sender, address _toRemove)\n        public\n        view\n        returns (bool)\n    {\n        if (allowed(_sender)) {\n            if (_sender == _toRemove) {\n                return false;\n            } else if (_toRemove == owner) {\n                return false;\n            } else {\n                return true;\n            }\n        } else {\n            return false;\n        }\n    }\n\n    function allowed(address _modifierAddress) public view returns (bool) {\n        return allowed(_modifierAddress, 0);\n    }\n\n    function allowed(address modifierAddress, uint256 index)\n        private\n        view\n        returns (bool)\n    {\n        if (modifierAddress == allowedModifiers[index]) {\n            return true;\n        } else if (index < allowedModifiers.length - 1) {\n            return allowed(modifierAddress, index + 1);\n        } else {\n            return false;\n        }\n    }\n\n    function addCertificate(Certificate _certificate, address _address)\n        public\n        payable\n    {\n        if (\n            allowed(_address) &&\n            _certificate.status() == Certificate.State.approved &&\n            _certificate.institution() == this\n        ) {\n            certificates.push(_certificate);\n            instituionsManager.application().emitEvent(\n                \"ADD_CERTIFICATE_INSTITUTION\",\n                \"INSTITUTION\",\n                address(this)\n            );\n        }\n    }\n\n    function issuedCertificates(uint256 _from)\n        public\n        view\n        returns (Certificate[10] memory)\n    {\n        Certificate[10] memory _list;\n        uint256 _count = 0;\n        for (uint256 i = _from; i < certificates.length && _count < 10; i++) {\n            _list[_count] = certificates[i];\n            _count++;\n        }\n        return _list;\n    }\n\n    function issuedCertificatesLength() public view returns (uint256) {\n        return certificates.length;\n    }\n\n    function pendingCertificatesLength() public view returns (uint256) {\n        return\n            instituionsManager\n                .application()\n                .certificatesManager()\n                .pendingCertificatesLengthForInstitution(this);\n    }\n\n    function pendingCertificates(uint256 _from)\n        public\n        view\n        returns (Certificate[10] memory)\n    {\n        return\n            instituionsManager\n                .application()\n                .certificatesManager()\n                .pendingCertificatesForInstitution(this, _from);\n    }\n\n    function listFaculties(uint256 _from)\n        public\n        view\n        returns (Faculty[10] memory)\n    {\n        Faculty[10] memory list;\n        for (uint256 i = 0; i < 10 && i + _from < faculties.length; i++) {\n            list[i] = faculties[i + _from];\n        }\n        return list;\n    }\n\n    function facultiesLength() public view returns (uint256) {\n        return faculties.length;\n    }\n\n    function addFaculty(Faculty _faculty) public payable {\n        if (\n            allowed(msg.sender) &&\n            _faculty.currentInstitution() == Institution(0) &&\n            !facultiesMap[_faculty]\n        ) {\n            faculties.push(_faculty);\n            facultiesMap[_faculty] = true;\n            _faculty.assignInstitution(this);\n            instituionsManager.application().emitEvent(\n                \"ADD_FACULTY_INSTITUTION\",\n                \"INSTITUTION\",\n                address(this)\n            );\n        }\n    }\n\n    function removeFaculty(Faculty _faculty) public payable {\n        if (allowed(msg.sender) && _faculty.currentInstitution() == this) {\n            for (uint256 i = 0; i < faculties.length; i++) {\n                if (faculties[i] == _faculty) {\n                    uint256 _lastIndex = faculties.length - 1;\n                    if (i < _lastIndex) {\n                        faculties[i] = faculties[_lastIndex];\n                    }\n                    faculties.pop();\n                }\n            }\n            delete facultiesMap[_faculty];\n            _faculty.assignInstitution(Institution(0));\n            instituionsManager.application().emitEvent(\n                \"REMOVE_FACULTY_INSTITUTION\",\n                \"INSTITUTION\",\n                address(this)\n            );\n        }\n    }\n}\n\ncontract CertificatesManager {\n    Certificate[] pendingCertificates;\n    Application public application;\n\n    constructor(Application _application) {\n        application = _application;\n    }\n\n    function requestCertificate(\n        Faculty _faculty,\n        Institution _institution,\n        Degree _degree\n    ) public payable {\n        Certificate _certificate =\n            new Certificate(this, _faculty, _institution, _degree);\n        pendingCertificates.push(_certificate);\n        application.emitEvent(\n            \"REQUEST_CERTIFICATE\",\n            \"INSTITUTION\",\n            address(_institution)\n        );\n        application.emitEvent(\n            \"REQUEST_CERTIFICATE\",\n            \"FACULTY\",\n            address(_faculty)\n        );\n    }\n\n    function removeCertificate(Certificate _certificate) public payable {\n        for (uint256 i = 0; i < pendingCertificates.length; i++) {\n            if (pendingCertificates[i] == _certificate) {\n                uint256 _lastIndex = pendingCertificates.length - 1;\n                if (i < _lastIndex) {\n                    pendingCertificates[i] = pendingCertificates[_lastIndex];\n                }\n                pendingCertificates.pop();\n            }\n        }\n        application.emitEvent(\n            \"CERTIFICATE_REMOVE\",\n            \"INSTITUTION\",\n            address(_certificate.institution())\n        );\n        application.emitEvent(\n            \"CERTIFICATE_REMOVE\",\n            \"FACULTY\",\n            address(_certificate.faculty())\n        );\n    }\n\n    function pendingCertificatesLengthForFaculty(Faculty _faculty)\n        public\n        view\n        returns (uint256)\n    {\n        uint256 _count = 0;\n        for (uint256 i = 0; i < pendingCertificates.length; i++) {\n            if (pendingCertificates[i].faculty() == _faculty) {\n                _count++;\n            }\n        }\n        return _count;\n    }\n\n    function pendingCertificatesForFaculty(Faculty _faculty, uint256 _from)\n        public\n        view\n        returns (Certificate[10] memory)\n    {\n        Certificate[10] memory _list;\n        uint256 _count = 0;\n        uint256 _toSkip = 0;\n        for (\n            uint256 i = 0;\n            i < pendingCertificates.length && _count < 10;\n            i++\n        ) {\n            if (pendingCertificates[i].faculty() == _faculty) {\n                if (_toSkip >= _from) {\n                    _list[_count] = pendingCertificates[i];\n                    _count++;\n                } else {\n                    _toSkip++;\n                }\n            }\n        }\n        return _list;\n    }\n\n    function pendingCertificatesLengthForInstitution(Institution _institution)\n        public\n        view\n        returns (uint256)\n    {\n        uint256 _count = 0;\n        for (uint256 i = 0; i < pendingCertificates.length; i++) {\n            if (pendingCertificates[i].institution() == _institution) {\n                _count++;\n            }\n        }\n        return _count;\n    }\n\n    function pendingCertificatesForInstitution(\n        Institution _institution,\n        uint256 _from\n    ) public view returns (Certificate[10] memory) {\n        Certificate[10] memory _list;\n        uint256 _count = 0;\n        uint256 _toSkip = 0;\n        for (\n            uint256 i = 0;\n            i < pendingCertificates.length && _count < 10;\n            i++\n        ) {\n            if (pendingCertificates[i].institution() == _institution) {\n                if (_toSkip >= _from) {\n                    _list[_count] = pendingCertificates[i];\n                    _count++;\n                } else {\n                    _toSkip++;\n                }\n            }\n        }\n        return _list;\n    }\n}\n\ncontract FacultiesManager {\n    Application public application;\n    mapping(address => Faculty) public faculties;\n    mapping(uint256 => Faculty) facultiesByIndex;\n    uint256 nextFacultyId = 0;\n\n    constructor(Application _application) {\n        application = _application;\n    }\n\n    function facultiesLength() public view returns (uint256) {\n        return nextFacultyId;\n    }\n\n    function createFaculty(string memory _name) public payable {\n        if (address(faculties[msg.sender]) == address(0x0)) {\n            uint256 _id = nextFacultyId++;\n            Faculty faculty = new Faculty(this, _id, _name, msg.sender);\n            facultiesByIndex[_id] = faculty;\n            faculties[msg.sender] = faculty;\n            application.emitEvent(\n                \"CREATE_FACULTY\",\n                \"FACULTY\",\n                address(faculty)\n            );\n        }\n    }\n\n    function listFaculties(uint256 _from)\n        public\n        view\n        returns (Faculty[10] memory)\n    {\n        Faculty[10] memory list;\n        for (uint256 i = 0; i < 10; i++) {\n            list[i] = facultiesByIndex[i + _from];\n        }\n        return list;\n    }\n}\n\ncontract InstituionsManager {\n    Application public application;\n    mapping(uint256 => Institution) public institutions;\n    uint256 nextInstitutionId = 0;\n\n    constructor(Application _application) {\n        application = _application;\n    }\n\n    function institutionsLength() public view returns (uint256) {\n        return nextInstitutionId;\n    }\n\n    function createInstitution(string memory _name) public payable {\n        uint256 _id = nextInstitutionId++;\n        Institution _institution =\n            new Institution(this, _id, _name, msg.sender);\n        institutions[_id] = _institution;\n        application.emitEvent(\n            \"CREATE_INSTITUTION\",\n            \"INSTITUTION\",\n            address(_institution)\n        );\n    }\n\n    function listInstitutions(uint256 _from)\n        public\n        view\n        returns (Institution[10] memory)\n    {\n        Institution[10] memory list;\n        for (uint256 i = 0; i < 10; i++) {\n            list[i] = institutions[i + _from];\n        }\n        return list;\n    }\n}\n\ncontract Application {\n    /*\n    Application is the root contract that the UI will use to interact with sub contracts \n    */\n    CertificatesManager public certificatesManager;\n    FacultiesManager public facultiesManager;\n    InstituionsManager public instituionsManager;\n    event ApplicationEvent(\n        string eventType,\n        string targetType,\n        address targetAddress\n    );\n\n    constructor() {\n        certificatesManager = new CertificatesManager(this);\n        facultiesManager = new FacultiesManager(this);\n        instituionsManager = new InstituionsManager(this);\n    }\n\n    function emitEvent(\n        string memory eventType,\n        string memory targetType,\n        address targetAddress\n    ) public payable {\n        emit ApplicationEvent(eventType, targetType, targetAddress);\n    }\n}\n",
  "sourcePath": "/home/mortadaak/Projects/aacsb_accreditiation/contracts/Application.sol",
  "compiler": {
    "name": "solc",
    "version": "0.7.5+commit.eb77ed08.Emscripten.clang"
  },
  "schemaVersion": "3.3.3",
  "updatedAt": "2021-02-27T16:00:50.510Z",
  "devdoc": {
    "kind": "dev",
    "methods": {},
    "version": 1
  },
  "userdoc": {
    "kind": "user",
    "methods": {},
    "version": 1
  }
}