{
  "contractName": "Certificates",
  "abi": [
    {
      "inputs": [
        {
          "internalType": "contract Application",
          "name": "_application",
          "type": "address"
        }
      ],
      "stateMutability": "nonpayable",
      "type": "constructor"
    },
    {
      "anonymous": false,
      "inputs": [
        {
          "indexed": false,
          "internalType": "address",
          "name": "by",
          "type": "address"
        },
        {
          "indexed": false,
          "internalType": "contract Certificate",
          "name": "certificate",
          "type": "address"
        }
      ],
      "name": "CertificateRemoved",
      "type": "event"
    },
    {
      "anonymous": false,
      "inputs": [
        {
          "indexed": false,
          "internalType": "address",
          "name": "by",
          "type": "address"
        },
        {
          "indexed": false,
          "internalType": "contract Certificate",
          "name": "certificate",
          "type": "address"
        }
      ],
      "name": "CertificateRequested",
      "type": "event"
    },
    {
      "inputs": [
        {
          "internalType": "contract Faculty",
          "name": "_faculty",
          "type": "address"
        },
        {
          "internalType": "contract Institution",
          "name": "_institution",
          "type": "address"
        },
        {
          "internalType": "enum Degree",
          "name": "_degree",
          "type": "uint8"
        }
      ],
      "name": "requestCertificate",
      "outputs": [],
      "stateMutability": "payable",
      "type": "function"
    },
    {
      "inputs": [
        {
          "internalType": "contract Certificate",
          "name": "_certificate",
          "type": "address"
        }
      ],
      "name": "removeCertificate",
      "outputs": [],
      "stateMutability": "payable",
      "type": "function"
    },
    {
      "inputs": [
        {
          "internalType": "contract Faculty",
          "name": "_faculty",
          "type": "address"
        }
      ],
      "name": "pendingCertificateLengthForFaculty",
      "outputs": [
        {
          "internalType": "uint256",
          "name": "",
          "type": "uint256"
        }
      ],
      "stateMutability": "view",
      "type": "function"
    },
    {
      "inputs": [
        {
          "internalType": "contract Faculty",
          "name": "_faculty",
          "type": "address"
        },
        {
          "internalType": "uint256",
          "name": "_from",
          "type": "uint256"
        }
      ],
      "name": "pendingCertificateForFaculty",
      "outputs": [
        {
          "internalType": "contract Certificate[10]",
          "name": "",
          "type": "address[10]"
        }
      ],
      "stateMutability": "view",
      "type": "function"
    },
    {
      "inputs": [
        {
          "internalType": "contract Institution",
          "name": "_institution",
          "type": "address"
        }
      ],
      "name": "pendingCertificateLengthForInstitution",
      "outputs": [
        {
          "internalType": "uint256",
          "name": "",
          "type": "uint256"
        }
      ],
      "stateMutability": "view",
      "type": "function"
    },
    {
      "inputs": [
        {
          "internalType": "contract Institution",
          "name": "_institution",
          "type": "address"
        },
        {
          "internalType": "uint256",
          "name": "_from",
          "type": "uint256"
        }
      ],
      "name": "pendingCertificateForInstitution",
      "outputs": [
        {
          "internalType": "contract Certificate[10]",
          "name": "",
          "type": "address[10]"
        }
      ],
      "stateMutability": "view",
      "type": "function"
    }
  ],
  "bytecode": "0x60806040523480156200001157600080fd5b506040516200256738038062002567833981810160405281019062000037919062000096565b80600160006101000a81548173ffffffffffffffffffffffffffffffffffffffff021916908373ffffffffffffffffffffffffffffffffffffffff1602179055505062000124565b60008151905062000090816200010a565b92915050565b600060208284031215620000a957600080fd5b6000620000b9848285016200007f565b91505092915050565b6000620000cf82620000ea565b9050919050565b6000620000e382620000c2565b9050919050565b600073ffffffffffffffffffffffffffffffffffffffff82169050919050565b6200011581620000d6565b81146200012157600080fd5b50565b61243380620001346000396000f3fe6080604052600436106200005c5760003560e01c8063062cd99914620000615780634069e45d1462000081578063910b70cc14620000a15780639a2393f614620000e5578063ad7a592f1462000129578063da60f30d146200016d575b600080fd5b6200007f600480360381019062000079919062000e3d565b620001b1565b005b6200009f600480360381019062000099919062000db9565b620002ba565b005b348015620000ae57600080fd5b50620000cd6004803603810190620000c7919062000ed4565b62000535565b604051620000dc91906200110a565b60405180910390f35b348015620000f257600080fd5b506200011160048036038101906200010b919062000de5565b62000699565b6040516200012091906200110a565b60405180910390f35b3480156200013657600080fd5b506200015560048036038101906200014f919062000f2c565b620007fd565b6040516200016491906200109f565b60405180910390f35b3480156200017a57600080fd5b5062000199600480360381019062000193919062000e93565b62000a72565b604051620001a891906200109f565b60405180910390f35b6000600160009054906101000a900473ffffffffffffffffffffffffffffffffffffffff16848484604051620001e79062000ce7565b620001f69493929190620010bd565b604051809103906000f08015801562000213573d6000803e3d6000fd5b5090506000819080600181540180825580915050600190039060005260206000200160009091909190916101000a81548173ffffffffffffffffffffffffffffffffffffffff021916908373ffffffffffffffffffffffffffffffffffffffff1602179055507f24074414c5e761e9e0be5cf97ab269e5bde1d5e04701d42a9e1f92e069b365003382604051620002ac92919062001072565b60405180910390a150505050565b60005b600080549050811015620004f6578173ffffffffffffffffffffffffffffffffffffffff16600082815481106200031d577f4e487b7100000000000000000000000000000000000000000000000000000000600052603260045260246000fd5b9060005260206000200160009054906101000a900473ffffffffffffffffffffffffffffffffffffffff1673ffffffffffffffffffffffffffffffffffffffff161415620004e057600060016000805490506200037b919062001154565b905080821015620004705760008181548110620003c1577f4e487b7100000000000000000000000000000000000000000000000000000000600052603260045260246000fd5b9060005260206000200160009054906101000a900473ffffffffffffffffffffffffffffffffffffffff166000838154811062000427577f4e487b7100000000000000000000000000000000000000000000000000000000600052603260045260246000fd5b9060005260206000200160006101000a81548173ffffffffffffffffffffffffffffffffffffffff021916908373ffffffffffffffffffffffffffffffffffffffff1602179055505b6000805480620004a9577f4e487b7100000000000000000000000000000000000000000000000000000000600052603160045260246000fd5b6001900381819060005260206000200160006101000a81549073ffffffffffffffffffffffffffffffffffffffff02191690559055505b8080620004ed90620012d2565b915050620002bd565b507ff5f1bd6e4a2c48dc58c12787d018565ad8b026d38f9658b14fdb9fa262e761bd33826040516200052a92919062001072565b60405180910390a150565b6000806000905060005b6000805490508110156200068f578373ffffffffffffffffffffffffffffffffffffffff16600082815481106200059f577f4e487b7100000000000000000000000000000000000000000000000000000000600052603260045260246000fd5b9060005260206000200160009054906101000a900473ffffffffffffffffffffffffffffffffffffffff1673ffffffffffffffffffffffffffffffffffffffff1663d1384eb66040518163ffffffff1660e01b815260040160206040518083038186803b1580156200061057600080fd5b505afa15801562000625573d6000803e3d6000fd5b505050506040513d601f19601f820116820180604052508101906200064b919062000f00565b73ffffffffffffffffffffffffffffffffffffffff161415620006795781806200067590620012d2565b9250505b80806200068690620012d2565b9150506200053f565b5080915050919050565b6000806000905060005b600080549050811015620007f3578373ffffffffffffffffffffffffffffffffffffffff166000828154811062000703577f4e487b7100000000000000000000000000000000000000000000000000000000600052603260045260246000fd5b9060005260206000200160009054906101000a900473ffffffffffffffffffffffffffffffffffffffff1673ffffffffffffffffffffffffffffffffffffffff16631080d5f86040518163ffffffff1660e01b815260040160206040518083038186803b1580156200077457600080fd5b505afa15801562000789573d6000803e3d6000fd5b505050506040513d601f19601f82011682018060405250810190620007af919062000e11565b73ffffffffffffffffffffffffffffffffffffffff161415620007dd578180620007d990620012d2565b9250505b8080620007ea90620012d2565b915050620006a3565b5080915050919050565b6200080762000cf5565b6200081162000cf5565b60008060005b600080549050811080156200082d5750600a8310155b1562000a65578673ffffffffffffffffffffffffffffffffffffffff166000828154811062000885577f4e487b7100000000000000000000000000000000000000000000000000000000600052603260045260246000fd5b9060005260206000200160009054906101000a900473ffffffffffffffffffffffffffffffffffffffff1673ffffffffffffffffffffffffffffffffffffffff1663d1384eb66040518163ffffffff1660e01b815260040160206040518083038186803b158015620008f657600080fd5b505afa1580156200090b573d6000803e3d6000fd5b505050506040513d601f19601f8201168201806040525081019062000931919062000f00565b73ffffffffffffffffffffffffffffffffffffffff16141562000a4f5785821062000a3e576000818154811062000991577f4e487b7100000000000000000000000000000000000000000000000000000000600052603260045260246000fd5b9060005260206000200160009054906101000a900473ffffffffffffffffffffffffffffffffffffffff168484600a8110620009f6577f4e487b7100000000000000000000000000000000000000000000000000000000600052603260045260246000fd5b602002019073ffffffffffffffffffffffffffffffffffffffff16908173ffffffffffffffffffffffffffffffffffffffff1681525050828062000a3a90620012d2565b9350505b818062000a4b90620012d2565b9250505b808062000a5c90620012d2565b91505062000817565b5082935050505092915050565b62000a7c62000cf5565b62000a8662000cf5565b60008060005b6000805490508110801562000aa25750600a8310155b1562000cda578673ffffffffffffffffffffffffffffffffffffffff166000828154811062000afa577f4e487b7100000000000000000000000000000000000000000000000000000000600052603260045260246000fd5b9060005260206000200160009054906101000a900473ffffffffffffffffffffffffffffffffffffffff1673ffffffffffffffffffffffffffffffffffffffff16631080d5f86040518163ffffffff1660e01b815260040160206040518083038186803b15801562000b6b57600080fd5b505afa15801562000b80573d6000803e3d6000fd5b505050506040513d601f19601f8201168201806040525081019062000ba6919062000e11565b73ffffffffffffffffffffffffffffffffffffffff16141562000cc45785821062000cb3576000818154811062000c06577f4e487b7100000000000000000000000000000000000000000000000000000000600052603260045260246000fd5b9060005260206000200160009054906101000a900473ffffffffffffffffffffffffffffffffffffffff168484600a811062000c6b577f4e487b7100000000000000000000000000000000000000000000000000000000600052603260045260246000fd5b602002019073ffffffffffffffffffffffffffffffffffffffff16908173ffffffffffffffffffffffffffffffffffffffff1681525050828062000caf90620012d2565b9350505b818062000cc090620012d2565b9250505b808062000cd190620012d2565b91505062000a8c565b5082935050505092915050565b610fef806200140f83390190565b604051806101400160405280600a90602082028036833780820191505090505090565b60008135905062000d298162001395565b92915050565b60008135905062000d4081620013af565b92915050565b60008151905062000d5781620013af565b92915050565b60008135905062000d6e81620013c9565b92915050565b60008151905062000d8581620013c9565b92915050565b60008135905062000d9c81620013e3565b92915050565b60008135905062000db381620013f4565b92915050565b60006020828403121562000dcc57600080fd5b600062000ddc8482850162000d18565b91505092915050565b60006020828403121562000df857600080fd5b600062000e088482850162000d2f565b91505092915050565b60006020828403121562000e2457600080fd5b600062000e348482850162000d46565b91505092915050565b60008060006060848603121562000e5357600080fd5b600062000e638682870162000d2f565b935050602062000e768682870162000d5d565b925050604062000e898682870162000d8b565b9150509250925092565b6000806040838503121562000ea757600080fd5b600062000eb78582860162000d2f565b925050602062000eca8582860162000da2565b9150509250929050565b60006020828403121562000ee757600080fd5b600062000ef78482850162000d5d565b91505092915050565b60006020828403121562000f1357600080fd5b600062000f238482850162000d74565b91505092915050565b6000806040838503121562000f4057600080fd5b600062000f508582860162000d5d565b925050602062000f638582860162000da2565b9150509250929050565b600062000f7b83836200100c565b60208301905092915050565b62000f92816200118f565b82525050565b62000fa38162001131565b62000faf818462001149565b925062000fbc8262001127565b8060005b8381101562000ff357815162000fd7878262000f6d565b965062000fe4836200113c565b92505060018101905062000fc0565b505050505050565b62001006816200121e565b82525050565b620010178162001246565b82525050565b620010288162001246565b82525050565b62001039816200126e565b82525050565b6200104a8162001296565b82525050565b6200105b81620012be565b82525050565b6200106c8162001214565b82525050565b600060408201905062001089600083018562000f87565b6200109860208301846200101d565b9392505050565b600061014082019050620010b7600083018462000f98565b92915050565b6000608082019050620010d4600083018762000ffb565b620010e360208301866200102e565b620010f260408301856200103f565b62001101606083018462001050565b95945050505050565b600060208201905062001121600083018462001061565b92915050565b6000819050919050565b6000600a9050919050565b6000602082019050919050565b600081905092915050565b6000620011618262001214565b91506200116e8362001214565b92508282101562001184576200118362001320565b5b828203905092915050565b60006200119c82620011f4565b9050919050565b6000620011b0826200118f565b9050919050565b6000620011c4826200118f565b9050919050565b6000620011d8826200118f565b9050919050565b6000819050620011ef826200137e565b919050565b600073ffffffffffffffffffffffffffffffffffffffff82169050919050565b6000819050919050565b60006200122b8262001232565b9050919050565b60006200123f82620011f4565b9050919050565b600062001253826200125a565b9050919050565b60006200126782620011f4565b9050919050565b60006200127b8262001282565b9050919050565b60006200128f82620011f4565b9050919050565b6000620012a382620012aa565b9050919050565b6000620012b782620011f4565b9050919050565b6000620012cb82620011df565b9050919050565b6000620012df8262001214565b91507fffffffffffffffffffffffffffffffffffffffffffffffffffffffffffffffff82141562001315576200131462001320565b5b600182019050919050565b7f4e487b7100000000000000000000000000000000000000000000000000000000600052601160045260246000fd5b7f4e487b7100000000000000000000000000000000000000000000000000000000600052602160045260246000fd5b600481106200139257620013916200134f565b5b50565b620013a081620011a3565b8114620013ac57600080fd5b50565b620013ba81620011b7565b8114620013c657600080fd5b50565b620013d481620011cb565b8114620013e057600080fd5b50565b60048110620013f157600080fd5b50565b620013ff8162001214565b81146200140b57600080fd5b5056fe60806040526000600160156101000a81548160ff0219169083600281111562000051577f4e487b7100000000000000000000000000000000000000000000000000000000600052602160045260246000fd5b02179055503480156200006357600080fd5b5060405162000fef38038062000fef83398181016040528101906200008991906200023b565b83600260006101000a81548173ffffffffffffffffffffffffffffffffffffffff021916908373ffffffffffffffffffffffffffffffffffffffff160217905550826000806101000a81548173ffffffffffffffffffffffffffffffffffffffff021916908373ffffffffffffffffffffffffffffffffffffffff16021790555081600160006101000a81548173ffffffffffffffffffffffffffffffffffffffff021916908373ffffffffffffffffffffffffffffffffffffffff16021790555080600160146101000a81548160ff0219169083600381111562000197577f4e487b7100000000000000000000000000000000000000000000000000000000600052602160045260246000fd5b02179055507f9a26a1f9def08abe958f09f08b27ca5d3dcc90dc0bd84ac65a66e096560f307133604051620001cd9190620002b8565b60405180910390a150505050620003a4565b600081519050620001f08162000345565b92915050565b60008151905062000207816200035f565b92915050565b6000815190506200021e8162000379565b92915050565b600081519050620002358162000393565b92915050565b600080600080608085870312156200025257600080fd5b60006200026287828801620001df565b94505060206200027587828801620001f6565b935050604062000288878288016200020d565b92505060606200029b8782880162000224565b91505092959194509250565b620002b281620002d5565b82525050565b6000602082019050620002cf6000830184620002a7565b92915050565b6000620002e28262000325565b9050919050565b6000620002f682620002d5565b9050919050565b60006200030a82620002d5565b9050919050565b60006200031e82620002d5565b9050919050565b600073ffffffffffffffffffffffffffffffffffffffff82169050919050565b6200035081620002e9565b81146200035c57600080fd5b50565b6200036a81620002fd565b81146200037657600080fd5b50565b620003848162000311565b81146200039057600080fd5b50565b60048110620003a157600080fd5b50565b610c3b80620003b46000396000f3fe60806040526004361061007b5760003560e01c8063d1384eb61161004e578063d1384eb6146100ea578063f35d710214610115578063f929dba714610140578063fc66c5d31461015c5761007b565b80631080d5f81461008057806312424e3f146100ab578063200d2ed2146100b55780634dc415de146100e0575b600080fd5b34801561008c57600080fd5b50610095610199565b6040516100a29190610a10565b60405180910390f35b6100b36101bd565b005b3480156100c157600080fd5b506100ca6104b1565b6040516100d79190610a61565b60405180910390f35b6100e86104c4565b005b3480156100f657600080fd5b506100ff6105ea565b60405161010c9190610a2b565b60405180910390f35b34801561012157600080fd5b5061012a610610565b6040516101379190610a46565b60405180910390f35b61015a60048036038101906101559190610904565b610623565b005b34801561016857600080fd5b50610183600480360381019061017e91906108b2565b610685565b60405161019091906109b1565b60405180910390f35b60008054906101000a900473ffffffffffffffffffffffffffffffffffffffff1681565b6101c633610685565b80156102795750600160009054906101000a900473ffffffffffffffffffffffffffffffffffffffff1673ffffffffffffffffffffffffffffffffffffffff1663d63a8e11336040518263ffffffff1660e01b81526004016102289190610996565b60206040518083038186803b15801561024057600080fd5b505afa158015610254573d6000803e3d6000fd5b505050506040513d601f19601f8201168201806040525081019061027891906108db565b5b156104af5760018060156101000a81548160ff021916908360028111156102c9577f4e487b7100000000000000000000000000000000000000000000000000000000600052602160045260246000fd5b021790555060008054906101000a900473ffffffffffffffffffffffffffffffffffffffff1673ffffffffffffffffffffffffffffffffffffffff1663781dd72230336040518363ffffffff1660e01b81526004016103299291906109e7565b600060405180830381600087803b15801561034357600080fd5b505af1158015610357573d6000803e3d6000fd5b50505050600160009054906101000a900473ffffffffffffffffffffffffffffffffffffffff1673ffffffffffffffffffffffffffffffffffffffff1663781dd72230336040518363ffffffff1660e01b81526004016103b89291906109e7565b600060405180830381600087803b1580156103d257600080fd5b505af11580156103e6573d6000803e3d6000fd5b50505050600260009054906101000a900473ffffffffffffffffffffffffffffffffffffffff1673ffffffffffffffffffffffffffffffffffffffff16634069e45d306040518263ffffffff1660e01b815260040161044591906109cc565b600060405180830381600087803b15801561045f57600080fd5b505af1158015610473573d6000803e3d6000fd5b505050507f96bfcd230b7ff6b6fae05762edc541f5cb32225984541cf1a9c0b04bac427a5e336040516104a69190610996565b60405180910390a15b565b600160159054906101000a900460ff1681565b6104cd33610685565b156105e8576002600160156101000a81548160ff0219169083600281111561051e577f4e487b7100000000000000000000000000000000000000000000000000000000600052602160045260246000fd5b0217905550600260009054906101000a900473ffffffffffffffffffffffffffffffffffffffff1673ffffffffffffffffffffffffffffffffffffffff16634069e45d306040518263ffffffff1660e01b815260040161057e91906109cc565b600060405180830381600087803b15801561059857600080fd5b505af11580156105ac573d6000803e3d6000fd5b505050507fe87a127e630432a36e6ce7e0bcd8342ad7957812ec5c3220489f036e5e84c276336040516105df9190610996565b60405180910390a15b565b600160009054906101000a900473ffffffffffffffffffffffffffffffffffffffff1681565b600160149054906101000a900460ff1681565b61062c33610685565b156106825780600160146101000a81548160ff0219169083600381111561067c577f4e487b7100000000000000000000000000000000000000000000000000000000600052602160045260246000fd5b02179055505b50565b60008060028111156106c0577f4e487b7100000000000000000000000000000000000000000000000000000000600052602160045260246000fd5b600160159054906101000a900460ff166002811115610708577f4e487b7100000000000000000000000000000000000000000000000000000000600052602160045260246000fd5b1480156107bc5750600160009054906101000a900473ffffffffffffffffffffffffffffffffffffffff1673ffffffffffffffffffffffffffffffffffffffff1663d63a8e11836040518263ffffffff1660e01b815260040161076b9190610996565b60206040518083038186803b15801561078357600080fd5b505afa158015610797573d6000803e3d6000fd5b505050506040513d601f19601f820116820180604052508101906107bb91906108db565b5b8061086c575060008054906101000a900473ffffffffffffffffffffffffffffffffffffffff1673ffffffffffffffffffffffffffffffffffffffff1663d63a8e11836040518263ffffffff1660e01b815260040161081b9190610996565b60206040518083038186803b15801561083357600080fd5b505afa158015610847573d6000803e3d6000fd5b505050506040513d601f19601f8201168201806040525081019061086b91906108db565b5b9050919050565b60008135905061088281610bc7565b92915050565b60008151905061089781610bde565b92915050565b6000813590506108ac81610bf5565b92915050565b6000602082840312156108c457600080fd5b60006108d284828501610873565b91505092915050565b6000602082840312156108ed57600080fd5b60006108fb84828501610888565b91505092915050565b60006020828403121561091657600080fd5b60006109248482850161089d565b91505092915050565b61093681610a7c565b82525050565b61094581610a8e565b82525050565b61095481610ae0565b82525050565b61096381610b04565b82525050565b61097281610b28565b82525050565b61098181610b4c565b82525050565b61099081610b5e565b82525050565b60006020820190506109ab600083018461092d565b92915050565b60006020820190506109c6600083018461093c565b92915050565b60006020820190506109e1600083018461094b565b92915050565b60006040820190506109fc600083018561094b565b610a09602083018461092d565b9392505050565b6000602082019050610a25600083018461095a565b92915050565b6000602082019050610a406000830184610969565b92915050565b6000602082019050610a5b6000830184610978565b92915050565b6000602082019050610a766000830184610987565b92915050565b6000610a8782610ac0565b9050919050565b60008115159050919050565b6000819050610aa882610b9f565b919050565b6000819050610abb82610bb3565b919050565b600073ffffffffffffffffffffffffffffffffffffffff82169050919050565b6000610aeb82610af2565b9050919050565b6000610afd82610ac0565b9050919050565b6000610b0f82610b16565b9050919050565b6000610b2182610ac0565b9050919050565b6000610b3382610b3a565b9050919050565b6000610b4582610ac0565b9050919050565b6000610b5782610a9a565b9050919050565b6000610b6982610aad565b9050919050565b7f4e487b7100000000000000000000000000000000000000000000000000000000600052602160045260246000fd5b60048110610bb057610baf610b70565b5b50565b60038110610bc457610bc3610b70565b5b50565b610bd081610a7c565b8114610bdb57600080fd5b50565b610be781610a8e565b8114610bf257600080fd5b50565b60048110610c0257600080fd5b5056fea264697066735822122020a09cef5f7d4621dcd122067ba2a3424b2833ddb5241dd20f352c40ff34412764736f6c63430008000033a26469706673582212200d4ebe2fa200abc5a87cbe71d2c31c3cb2273f5cd24f05c37ba4bc73cd9a3df964736f6c63430008000033",
  "immutableReferences": {},
  "source": "// SPDX-License-Identifier: GPL-3.0\npragma solidity >=0.8.0 <0.9.0;\npragma abicoder v2;\nenum Degree {\n    ScholarlyAcademics,\n    PracticeAcademics,\n    ScholarlyPractitioner,\n    InstructionalPractitioner\n}\n\ncontract Certificate {\n    enum State {requested, approved, rejected}\n\n    Faculty public faculty;\n    Institution public institution;\n    Degree public degree;\n    State public status = State.requested;\n    Application application;\n    event Request(address sender);\n    event Reject(address sender);\n    event Approve(address sender);\n\n    constructor(\n        Application _application,\n        Faculty _faculty,\n        Institution _institution,\n        Degree _degree\n    ) {\n        application = _application;\n        faculty = _faculty;\n        institution = _institution;\n        degree = _degree;\n        emit Request(msg.sender);\n    }\n\n    function update(Degree _degree) public payable {\n        if (editable(msg.sender)) {\n            degree = _degree;\n        }\n    }\n\n    function reject() public payable {\n        if (editable(msg.sender)) {\n            status = State.rejected;\n            application.removeCertificate(this);\n            emit Reject(msg.sender);\n        }\n    }\n\n    function approve() public payable {\n        if (editable(msg.sender) && institution.allowed(msg.sender)) {\n            status = State.approved;\n            faculty.addCertificate(this, msg.sender);\n            institution.addCertificate(this, msg.sender);\n            application.removeCertificate(this);\n            emit Approve(msg.sender);\n        }\n    }\n\n    function editable(address _address) public view returns (bool) {\n        return ((status == State.requested &&\n            (institution.allowed(_address))) || faculty.allowed(_address));\n    }\n}\n\ncontract Faculty {\n    uint256 id;\n    string public name;\n    address public owner;\n    Certificate[] public certificates;\n    Institution public currentInstitution;\n    Application application;\n    event CertificateAdded(address assigner, Certificate certificate);\n\n    constructor(\n        Application _application,\n        uint256 _id,\n        string memory _name,\n        address _owner\n    ) {\n        application = _application;\n        name = _name;\n        id = _id;\n        owner = _owner;\n    }\n\n    function update(string memory _name) public payable {\n        if (allowed(msg.sender)) {\n            name = _name;\n        }\n    }\n\n    function assignInstitution(address _institutionAddress) public payable {\n        Institution _institution = Institution(_institutionAddress);\n        if (_institution.allowed(msg.sender)) {\n            currentInstitution = _institution;\n        }\n    }\n\n    function allowed(address _address) public view returns (bool) {\n        return _address == owner;\n    }\n\n    function addCertificate(Certificate _certificate, address _address)\n        public\n        payable\n    {\n        if (\n            _certificate.institution().allowed(_address) &&\n            _certificate.status() == Certificate.State.approved &&\n            _certificate.faculty() == this\n        ) {\n            certificates.push(_certificate);\n            emit CertificateAdded(_address, _certificate);\n        }\n    }\n\n    function certificatesLength() public view returns (uint256) {\n        return certificates.length;\n    }\n}\n\ncontract Institution {\n    struct StaffMember {\n        uint256 id;\n        string name;\n        bool active;\n    }\n\n    uint256 public id;\n    string public name;\n    address public owner;\n\n    Certificate[] certificates;\n    Application application;\n    address[] public allowedModifiers;\n    mapping(address => bool) allowedModifiersMap;\n\n    mapping(uint256 => StaffMember) staffMembers;\n    uint256 nextStaffMembersId = 1;\n\n    mapping(uint256 => Faculty) faculties;\n    uint256 nextFacultyId;\n\n    event Update(address by, string previousName, string newName);\n    event ModifierAdded(address by, address modifierAddress);\n    event ModifierRemoved(address by, address modifierAddress);\n    event StaffMemberAdded(address by, uint256 id);\n    event CertificateAdded(address by, Certificate certificate);\n\n    constructor(\n        Application _application,\n        uint256 _id,\n        string memory _name,\n        address sender\n    ) {\n        application = _application;\n        id = _id;\n        name = _name;\n        owner = sender;\n        allowedModifiers.push(sender);\n        allowedModifiersMap[sender] = true;\n    }\n\n    function update(string memory _name) public payable {\n        if (allowed(msg.sender)) {\n            name = _name;\n        }\n    }\n\n    function staffMember(uint256 _from)\n        public\n        view\n        returns (StaffMember memory)\n    {\n        return staffMembers[_from];\n    }\n\n    function listStaffMembers(uint256 _from, bool skipInactive)\n        public\n        view\n        returns (StaffMember[10] memory)\n    {\n        StaffMember[10] memory list;\n        for (uint256 i = 0; i < 10; i++) {\n            if (nextStaffMembersId < i + _from + 1) {\n                i = 10;\n            } else if (skipInactive && !staffMembers[i + _from + 1].active) {\n                _from++;\n                i--;\n            } else {\n                list[i] = staffMembers[i + _from + 1];\n            }\n        }\n        return list;\n    }\n\n    function staffMembersLength() public view returns (uint256) {\n        return nextStaffMembersId - 1;\n    }\n\n    function createStaffMember(string memory _name) public payable {\n        if (allowed(msg.sender)) {\n            uint256 _nextStaffMemberId = nextStaffMembersId++;\n            StaffMember storage _staffMember = staffMembers[_nextStaffMemberId];\n            _staffMember.id = _nextStaffMemberId;\n            _staffMember.name = _name;\n            _staffMember.active = true;\n            emit StaffMemberAdded(msg.sender, _staffMember.id);\n        }\n    }\n\n    function updateStaffMember(\n        uint256 _staffMemberId,\n        string memory _name,\n        bool _active\n    ) public payable {\n        if (allowed(msg.sender)) {\n            StaffMember storage _staffMember = staffMembers[_staffMemberId];\n            _staffMember.name = _name;\n            _staffMember.active = _active;\n        }\n    }\n\n    function listModifiers(uint256 _from)\n        public\n        view\n        returns (address[10] memory)\n    {\n        address[10] memory list;\n        for (uint256 i = 0; i < 10; i++) {\n            if (i + _from >= allowedModifiers.length) {\n                i = 10;\n            } else {\n                list[i] = allowedModifiers[i + _from];\n            }\n        }\n        return list;\n    }\n\n    function modifiersLength() public view returns (uint256) {\n        return allowedModifiers.length;\n    }\n\n    function addModifier(address _modifier) public payable {\n        if (allowed(msg.sender) && !allowedModifiersMap[_modifier]) {\n            allowedModifiers.push(_modifier);\n            allowedModifiersMap[_modifier] = true;\n            emit ModifierAdded(msg.sender, _modifier);\n        }\n    }\n\n    function removeModifier(address _modifier) public payable {\n        if (allowedToRemove(msg.sender, _modifier)) {\n            for (uint256 i = 0; i < allowedModifiers.length; i++) {\n                if (allowedModifiers[i] == _modifier) {\n                    uint256 _lastIndex = allowedModifiers.length - 1;\n                    if (i < _lastIndex) {\n                        allowedModifiers[i] = allowedModifiers[_lastIndex];\n                    }\n                    allowedModifiers.pop();\n                }\n            }\n            delete allowedModifiersMap[_modifier];\n            emit ModifierRemoved(msg.sender, _modifier);\n        }\n    }\n\n    function allowedToRemove(address _sender, address _toRemove)\n        public\n        view\n        returns (bool)\n    {\n        if (allowed(_sender)) {\n            if (_sender == _toRemove) {\n                return false;\n            } else if (_toRemove == owner) {\n                return false;\n            } else {\n                return true;\n            }\n        } else {\n            return false;\n        }\n    }\n\n    function allowed(address _modifierAddress) public view returns (bool) {\n        return allowed(_modifierAddress, 0);\n    }\n\n    function allowed(address modifierAddress, uint256 index)\n        private\n        view\n        returns (bool)\n    {\n        if (modifierAddress == allowedModifiers[index]) {\n            return true;\n        } else if (index < allowedModifiers.length - 1) {\n            return allowed(modifierAddress, index + 1);\n        } else {\n            return false;\n        }\n    }\n\n    function addCertificate(Certificate _certificate, address _address)\n        public\n        payable\n    {\n        if (\n            allowed(_address) &&\n            _certificate.status() == Certificate.State.approved &&\n            _certificate.institution() == this\n        ) {\n            certificates.push(_certificate);\n            emit CertificateAdded(_address, _certificate);\n        }\n    }\n\n    function issuedCertificates(uint256 _from)\n        public\n        view\n        returns (Certificate[10] memory)\n    {\n        Certificate[10] memory _list;\n        uint256 _count = 0;\n        for (uint256 i = _from; i < certificates.length && _count < 10; i++) {\n            _list[_count] = certificates[i];\n            _count++;\n        }\n        return _list;\n    }\n\n    function issuedCertificatesLength() public view returns (uint256) {\n        return certificates.length;\n    }\n}\n\ncontract Institutions {\n    Application application;\n    mapping(uint256 => Institution) public institutions;\n    uint256 nextInstitutionId = 0;\n    event InstitutionAdded(address by, Institution institution);\n\n    constructor(Application _application) {\n        application = _application;\n    }\n\n    function createInstitution(string memory _name) public payable {\n        uint256 _id = nextInstitutionId++;\n        Institution _institution =\n            new Institution(application, _id, _name, msg.sender);\n        institutions[_id] = _institution;\n        emit InstitutionAdded(msg.sender, (_institution));\n    }\n\n    function listInstitutions(uint256 _from)\n        public\n        view\n        returns (Institution[10] memory)\n    {\n        Institution[10] memory list;\n        for (uint256 i = 0; i < 10; i++) {\n            list[i] = institutions[i + _from];\n        }\n        return list;\n    }\n}\n\ncontract Faculties {\n    Application application;\n    mapping(address => Faculty) public faculties;\n    mapping(uint256 => Faculty) facultiesByIndex;\n    uint256 nextFacultyId = 0;\n    event FacultyAdded(address by, address facultyAddress);\n\n    constructor(Application _application) {\n        application = _application;\n    }\n\n    function createFaculty(string memory _name) public payable {\n        if (address(faculties[msg.sender]) == address(0x0)) {\n            uint256 _id = nextFacultyId++;\n            Faculty faculty = new Faculty(application, _id, _name, msg.sender);\n            facultiesByIndex[_id] = faculty;\n            faculties[msg.sender] = faculty;\n            emit FacultyAdded(msg.sender, address(faculty));\n        }\n    }\n\n    function listFaculties(uint256 _from)\n        public\n        view\n        returns (Faculty[10] memory)\n    {\n        Faculty[10] memory list;\n        for (uint256 i = 0; i < 10; i++) {\n            list[i] = facultiesByIndex[i + _from];\n        }\n        return list;\n    }\n}\n\ncontract Certificates {\n    Certificate[] pendingCertificates;\n    Application application;\n    event CertificateRequested(address by, Certificate certificate);\n    event CertificateRemoved(address by, Certificate certificate);\n\n    constructor(Application _application) {\n        application = _application;\n    }\n\n    function requestCertificate(\n        Faculty _faculty,\n        Institution _institution,\n        Degree _degree\n    ) public payable {\n        Certificate _certificate =\n            new Certificate(application, _faculty, _institution, _degree);\n        pendingCertificates.push(_certificate);\n        emit CertificateRequested(msg.sender, (_certificate));\n    }\n\n    function removeCertificate(Certificate _certificate) public payable {\n        for (uint256 i = 0; i < pendingCertificates.length; i++) {\n            if (pendingCertificates[i] == _certificate) {\n                uint256 _lastIndex = pendingCertificates.length - 1;\n                if (i < _lastIndex) {\n                    pendingCertificates[i] = pendingCertificates[_lastIndex];\n                }\n                pendingCertificates.pop();\n            }\n        }\n        emit CertificateRemoved(msg.sender, (_certificate));\n    }\n\n    function pendingCertificateLengthForFaculty(Faculty _faculty)\n        public\n        view\n        returns (uint256)\n    {\n        uint256 _count = 0;\n        for (uint256 i = 0; i < pendingCertificates.length; i++) {\n            if (pendingCertificates[i].faculty() == _faculty) {\n                _count++;\n            }\n        }\n        return _count;\n    }\n\n    function pendingCertificateForFaculty(Faculty _faculty, uint256 _from)\n        public\n        view\n        returns (Certificate[10] memory)\n    {\n        Certificate[10] memory _list;\n        uint256 _count = 0;\n        uint256 _toSkip = 0;\n        for (\n            uint256 i = 0;\n            i < pendingCertificates.length && _count >= 10;\n            i++\n        ) {\n            if (pendingCertificates[i].faculty() == _faculty) {\n                if (_toSkip >= _from) {\n                    _list[_count] = pendingCertificates[i];\n                    _count++;\n                }\n                _toSkip++;\n            }\n        }\n        return _list;\n    }\n\n    function pendingCertificateLengthForInstitution(Institution _institution)\n        public\n        view\n        returns (uint256)\n    {\n        uint256 _count = 0;\n        for (uint256 i = 0; i < pendingCertificates.length; i++) {\n            if (pendingCertificates[i].institution() == _institution) {\n                _count++;\n            }\n        }\n        return _count;\n    }\n\n    function pendingCertificateForInstitution(\n        Institution _institution,\n        uint256 _from\n    ) public view returns (Certificate[10] memory) {\n        Certificate[10] memory _list;\n        uint256 _count = 0;\n        uint256 _toSkip = 0;\n        for (\n            uint256 i = 0;\n            i < pendingCertificates.length && _count >= 10;\n            i++\n        ) {\n            if (pendingCertificates[i].institution() == _institution) {\n                if (_toSkip >= _from) {\n                    _list[_count] = pendingCertificates[i];\n                    _count++;\n                }\n                _toSkip++;\n            }\n        }\n        return _list;\n    }\n}\n\ncontract Application {\n    /*\n    Application is the root contract that the UI will use to interact with sub contracts \n    */\n    Institutions __institutions;\n    Faculties __faculties;\n    Certificates __certificates;\n\n    constructor() {\n        __institutions = new Institutions(this);\n        __faculties = new Faculties(this);\n        __certificates = new Certificates(this);\n    }\n\n    function faculties(address _address) public view returns (Faculty) {\n        return __faculties.faculties(_address);\n    }\n\n    function institutions(uint256 _address) public view returns (Institution) {\n        return __institutions.institutions(_address);\n    }\n\n    function createInstitution(string memory _name) public payable {\n        __institutions.createInstitution(_name);\n    }\n\n    function listInstitutions(uint256 _from)\n        public\n        view\n        returns (Institution[10] memory)\n    {\n        return __institutions.listInstitutions(_from);\n    }\n\n    function createFaculty(string memory _name) public payable {\n        return __faculties.createFaculty(_name);\n    }\n\n    function listFaculties(uint256 _from)\n        public\n        view\n        returns (Faculty[10] memory)\n    {\n        return __faculties.listFaculties(_from);\n    }\n\n    function requestCertificate(\n        Faculty _faculty,\n        Institution _institution,\n        Degree _degree\n    ) public payable {\n        __certificates.requestCertificate(_faculty, _institution, _degree);\n    }\n\n    function removeCertificate(Certificate _certificate) public payable {\n        __certificates.removeCertificate(_certificate);\n    }\n\n    function pendingCertificateLengthForFaculty(Faculty _faculty)\n        public\n        view\n        returns (uint256)\n    {\n        return __certificates.pendingCertificateLengthForFaculty(_faculty);\n    }\n\n    function pendingCertificateForFaculty(Faculty _faculty, uint256 _from)\n        public\n        view\n        returns (Certificate[10] memory)\n    {\n        return __certificates.pendingCertificateForFaculty(_faculty, _from);\n    }\n\n    function pendingCertificateLengthForInstitution(Institution _institution)\n        public\n        view\n        returns (uint256)\n    {\n        return\n            __certificates.pendingCertificateLengthForInstitution(_institution);\n    }\n\n    function pendingCertificateForInstitution(\n        Institution _institution,\n        uint256 _from\n    ) public view returns (Certificate[10] memory) {\n        return\n            __certificates.pendingCertificateForInstitution(\n                _institution,\n                _from\n            );\n    }\n}\n",
  "sourcePath": "/home/mortadaak/projects/aacsb_accreditiation/contracts/Application.sol",
  "compiler": {
    "name": "solc",
    "version": "0.8.0+commit.c7dfd78e.Emscripten.clang"
  },
  "schemaVersion": "3.3.3",
  "updatedAt": "2021-01-16T17:48:29.789Z",
  "devdoc": {
    "kind": "dev",
    "methods": {},
    "version": 1
  },
  "userdoc": {
    "kind": "user",
    "methods": {},
    "version": 1
  }
}