{
  "contractName": "Certificate",
  "abi": [
    {
      "inputs": [
        {
          "internalType": "contract Faculty",
          "name": "_faculty",
          "type": "address"
        },
        {
          "internalType": "contract Institution",
          "name": "_institution",
          "type": "address"
        },
        {
          "internalType": "enum Certificate.Degree",
          "name": "_degree",
          "type": "uint8"
        }
      ],
      "stateMutability": "nonpayable",
      "type": "constructor"
    },
    {
      "anonymous": false,
      "inputs": [
        {
          "indexed": false,
          "internalType": "address",
          "name": "sender",
          "type": "address"
        }
      ],
      "name": "Approve",
      "type": "event"
    },
    {
      "anonymous": false,
      "inputs": [
        {
          "indexed": false,
          "internalType": "address",
          "name": "sender",
          "type": "address"
        }
      ],
      "name": "Reject",
      "type": "event"
    },
    {
      "anonymous": false,
      "inputs": [
        {
          "indexed": false,
          "internalType": "address",
          "name": "sender",
          "type": "address"
        }
      ],
      "name": "Request",
      "type": "event"
    },
    {
      "inputs": [],
      "name": "degree",
      "outputs": [
        {
          "internalType": "enum Certificate.Degree",
          "name": "",
          "type": "uint8"
        }
      ],
      "stateMutability": "view",
      "type": "function"
    },
    {
      "inputs": [],
      "name": "faculty",
      "outputs": [
        {
          "internalType": "contract Faculty",
          "name": "",
          "type": "address"
        }
      ],
      "stateMutability": "view",
      "type": "function"
    },
    {
      "inputs": [],
      "name": "institution",
      "outputs": [
        {
          "internalType": "contract Institution",
          "name": "",
          "type": "address"
        }
      ],
      "stateMutability": "view",
      "type": "function"
    },
    {
      "inputs": [],
      "name": "specialtyField",
      "outputs": [
        {
          "internalType": "string",
          "name": "",
          "type": "string"
        }
      ],
      "stateMutability": "view",
      "type": "function"
    },
    {
      "inputs": [],
      "name": "status",
      "outputs": [
        {
          "internalType": "enum Certificate.State",
          "name": "",
          "type": "uint8"
        }
      ],
      "stateMutability": "view",
      "type": "function"
    },
    {
      "inputs": [],
      "name": "reject",
      "outputs": [],
      "stateMutability": "nonpayable",
      "type": "function"
    },
    {
      "inputs": [],
      "name": "approve",
      "outputs": [],
      "stateMutability": "nonpayable",
      "type": "function"
    },
    {
      "inputs": [],
      "name": "editable",
      "outputs": [
        {
          "internalType": "bool",
          "name": "",
          "type": "bool"
        }
      ],
      "stateMutability": "view",
      "type": "function"
    }
  ],
  "bytecode": "0x60806040526000600260156101000a81548160ff021916908360028111156200002457fe5b02179055503480156200003657600080fd5b5060405162000cb638038062000cb683398181016040528101906200005c919062000189565b82600160006101000a81548173ffffffffffffffffffffffffffffffffffffffff021916908373ffffffffffffffffffffffffffffffffffffffff16021790555081600260006101000a81548173ffffffffffffffffffffffffffffffffffffffff021916908373ffffffffffffffffffffffffffffffffffffffff16021790555080600260146101000a81548160ff02191690836003811115620000fd57fe5b02179055507f9a26a1f9def08abe958f09f08b27ca5d3dcc90dc0bd84ac65a66e096560f307133604051620001339190620001f0565b60405180910390a1505050620002ea565b6000815190506200015581620002a5565b92915050565b6000815190506200016c81620002bf565b92915050565b6000815190506200018381620002d9565b92915050565b6000806000606084860312156200019f57600080fd5b6000620001af8682870162000144565b9350506020620001c2868287016200015b565b9250506040620001d58682870162000172565b9150509250925092565b620001ea8162000269565b82525050565b6000602082019050620002076000830184620001df565b92915050565b60006200021a8262000249565b9050919050565b60006200022e826200020d565b9050919050565b600062000242826200020d565b9050919050565b600073ffffffffffffffffffffffffffffffffffffffff82169050919050565b600062000276826200027d565b9050919050565b60006200028a8262000291565b9050919050565b60006200029e8262000249565b9050919050565b620002b08162000221565b8114620002bc57600080fd5b50565b620002ca8162000235565b8114620002d657600080fd5b50565b60048110620002e757600080fd5b50565b6109bc80620002fa6000396000f3fe608060405234801561001057600080fd5b50600436106100885760003560e01c80638576384c1161005b5780638576384c146100dd578063d1384eb6146100fb578063d731e75b14610119578063f35d71021461013757610088565b80631080d5f81461008d57806312424e3f146100ab578063200d2ed2146100b55780634dc415de146100d3575b600080fd5b610095610155565b6040516100a2919061073f565b60405180910390f35b6100b361017b565b005b6100bd610326565b6040516100ca9190610790565b60405180910390f35b6100db610339565b005b6100e56103a3565b6040516100f29190610709565b60405180910390f35b610103610537565b604051610110919061075a565b60405180910390f35b61012161055d565b60405161012e91906107ab565b60405180910390f35b61013f6105fb565b60405161014c9190610775565b60405180910390f35b600160009054906101000a900473ffffffffffffffffffffffffffffffffffffffff1681565b6101836103a3565b80156102365750600260009054906101000a900473ffffffffffffffffffffffffffffffffffffffff1673ffffffffffffffffffffffffffffffffffffffff1663d63a8e11336040518263ffffffff1660e01b81526004016101e591906106ee565b60206040518083038186803b1580156101fd57600080fd5b505afa158015610211573d6000803e3d6000fd5b505050506040513d601f19601f820116820180604052508101906102359190610623565b5b15610324576001600260156101000a81548160ff0219169083600281111561025a57fe5b0217905550600160009054906101000a900473ffffffffffffffffffffffffffffffffffffffff1673ffffffffffffffffffffffffffffffffffffffff16637c6ebde9306040518263ffffffff1660e01b81526004016102ba9190610724565b600060405180830381600087803b1580156102d457600080fd5b505af11580156102e8573d6000803e3d6000fd5b505050507f96bfcd230b7ff6b6fae05762edc541f5cb32225984541cf1a9c0b04bac427a5e3360405161031b91906106ee565b60405180910390a15b565b600260159054906101000a900460ff1681565b6103416103a3565b156103a15760028060156101000a81548160ff0219169083600281111561036457fe5b02179055507fe87a127e630432a36e6ce7e0bcd8342ad7957812ec5c3220489f036e5e84c2763360405161039891906106ee565b60405180910390a15b565b60008060028111156103b157fe5b600260159054906101000a900460ff1660028111156103cc57fe5b1480156104805750600260009054906101000a900473ffffffffffffffffffffffffffffffffffffffff1673ffffffffffffffffffffffffffffffffffffffff1663d63a8e11336040518263ffffffff1660e01b815260040161042f91906106ee565b60206040518083038186803b15801561044757600080fd5b505afa15801561045b573d6000803e3d6000fd5b505050506040513d601f19601f8201168201806040525081019061047f9190610623565b5b806105325750600160009054906101000a900473ffffffffffffffffffffffffffffffffffffffff1673ffffffffffffffffffffffffffffffffffffffff1663d63a8e11336040518263ffffffff1660e01b81526004016104e191906106ee565b60206040518083038186803b1580156104f957600080fd5b505afa15801561050d573d6000803e3d6000fd5b505050506040513d601f19601f820116820180604052508101906105319190610623565b5b905090565b600260009054906101000a900473ffffffffffffffffffffffffffffffffffffffff1681565b60008054600181600116156101000203166002900480601f0160208091040260200160405190810160405280929190818152602001828054600181600116156101000203166002900480156105f35780601f106105c8576101008083540402835291602001916105f3565b820191906000526020600020905b8154815290600101906020018083116105d657829003601f168201915b505050505081565b600260149054906101000a900460ff1681565b60008151905061061d8161096f565b92915050565b60006020828403121561063557600080fd5b60006106438482850161060e565b91505092915050565b6106558161083b565b82525050565b610664816107e9565b82525050565b6106738161084d565b82525050565b61068281610871565b82525050565b61069181610895565b82525050565b6106a0816108b9565b82525050565b6106af816108cb565b82525050565b60006106c0826107cd565b6106ca81856107d8565b93506106da818560208601610901565b6106e381610936565b840191505092915050565b6000602082019050610703600083018461064c565b92915050565b600060208201905061071e600083018461065b565b92915050565b6000602082019050610739600083018461066a565b92915050565b60006020820190506107546000830184610679565b92915050565b600060208201905061076f6000830184610688565b92915050565b600060208201905061078a6000830184610697565b92915050565b60006020820190506107a560008301846106a6565b92915050565b600060208201905081810360008301526107c581846106b5565b905092915050565b600081519050919050565b600082825260208201905092915050565b60008115159050919050565b600081905061080382610947565b919050565b60008190506108168261095b565b919050565b600073ffffffffffffffffffffffffffffffffffffffff82169050919050565b6000610846826108dd565b9050919050565b60006108588261085f565b9050919050565b600061086a8261081b565b9050919050565b600061087c82610883565b9050919050565b600061088e8261081b565b9050919050565b60006108a0826108a7565b9050919050565b60006108b28261081b565b9050919050565b60006108c4826107f5565b9050919050565b60006108d682610808565b9050919050565b60006108e8826108ef565b9050919050565b60006108fa8261081b565b9050919050565b60005b8381101561091f578082015181840152602081019050610904565b8381111561092e576000848401525b50505050565bfe5b6000601f19601f8301169050919050565b6004811061095857610957610934565b5b50565b6003811061096c5761096b610934565b5b50565b610978816107e9565b811461098357600080fd5b5056fea264697066735822122078282cc4ee5cd447b35942dc75bb95348c360259dab27af61a3daf093a23590f64736f6c63430007050033",
  "immutableReferences": {},
  "source": "// SPDX-License-Identifier: GPL-3.0\npragma solidity >=0.5.0 <0.9.0;\npragma abicoder v2;\n\ncontract Certificate {\n    enum State {requested, approved, rejected}\n    enum Degree {\n        ScholarlyAcademics,\n        PracticeAcademics,\n        ScholarlyPractitioner,\n        InstructionalPractitioner\n    }\n    string public specialtyField;\n    Faculty public faculty;\n    Institution public institution;\n    Degree public degree;\n    State public status = State.requested;\n    event Request(address sender);\n    event Reject(address sender);\n    event Approve(address sender);\n\n    constructor(\n        Faculty _faculty,\n        Institution _institution,\n        Degree _degree\n    ) {\n        faculty = _faculty;\n        institution = _institution;\n        degree = _degree;\n        emit Request(msg.sender);\n    }\n\n    function reject() public {\n        if (editable()) {\n            status = State.rejected;\n            emit Reject(msg.sender);\n        }\n    }\n\n    function approve() public {\n        if (editable() && institution.allowed(msg.sender)) {\n            status = State.approved;\n            faculty.addCertificate(this);\n            emit Approve(msg.sender);\n        }\n    }\n\n    function editable() public view returns (bool) {\n        return ((status == State.requested &&\n            (institution.allowed(msg.sender))) || faculty.allowed(msg.sender));\n    }\n}\n\ncontract Faculty {\n    uint256 id;\n    string public name;\n    uint16 public yearEnded;\n    string public qualificationDescription;\n    uint16 public teachingProductivity;\n    uint16 public productivityPercentage;\n    address public owner;\n    Certificate[] public certificates;\n    Institution public currentInstitution;\n\n    event CertificateAdded(address assigner, Certificate certificate);\n\n    constructor(\n        string memory _name,\n        uint16 _yearEnded,\n        string memory _qualificationDescription,\n        uint16 _teachingProductivity,\n        uint16 _productivityPercentage\n    ) {\n        name = _name;\n        yearEnded = _yearEnded;\n        qualificationDescription = _qualificationDescription;\n        teachingProductivity = _teachingProductivity;\n        productivityPercentage = _productivityPercentage;\n        owner = msg.sender;\n    }\n\n    function update(\n        string memory _name,\n        uint16 _yearEnded,\n        string memory _qualificationDescription,\n        uint16 _teachingProductivity,\n        uint16 _productivityPercentage\n    ) public {\n        if (allowed(msg.sender)) {\n            name = _name;\n            yearEnded = _yearEnded;\n            qualificationDescription = _qualificationDescription;\n            teachingProductivity = _teachingProductivity;\n            productivityPercentage = _productivityPercentage;\n        }\n    }\n\n    function assignInstitution(address _institutionAddress) public {\n        Institution _institution = Institution(_institutionAddress);\n        if (_institution.allowed(msg.sender)) {\n            currentInstitution = _institution;\n        }\n    }\n\n    function allowed(address _address) public view returns (bool) {\n        return _address == owner;\n    }\n\n    function addCertificate(Certificate _certificate) public {\n        if (_certificate.institution().allowed(msg.sender)) {\n            certificates.push(_certificate);\n            emit CertificateAdded(msg.sender, _certificate);\n        }\n    }\n}\n\ncontract Institution {\n    struct Department {\n        uint256 id;\n        string name;\n        mapping(uint256 => Faculty) faculties;\n        uint256 nextFacultyId;\n    }\n\n    uint256 public id;\n    string public name;\n    address public owner;\n    address[] public allowedModifiers;\n    mapping(uint256 => Department) departments;\n    uint256 public nextDepartmentId = 0;\n\n    constructor(\n        uint256 _id,\n        string memory _name,\n        address sender\n    ) {\n        id = _id;\n        name = _name;\n        owner = sender;\n        allowedModifiers[0] = sender;\n    }\n\n    function update(string memory _name) public {\n        name = _name;\n    }\n\n    function createDepartment(string memory _name) public {\n        if (allowed(msg.sender)) {\n            uint256 _nextDepartmentId = nextDepartmentId++;\n            Department storage _department = departments[_nextDepartmentId];\n            _department.id = _nextDepartmentId;\n            _department.name = _name;\n            _department.nextFacultyId = 0;\n        }\n    }\n\n    function updateDepartment(uint256 _departmentId, string memory _name)\n        public\n    {\n        if (allowed(msg.sender)) {\n            Department storage _department = departments[_departmentId];\n            _department.name = _name;\n        }\n    }\n\n    function addModifier(address _modifier) public {\n        if (allowed(msg.sender)) {\n            allowedModifiers.push(_modifier);\n        }\n    }\n\n    function allowed(address modifierAddress) public view returns (bool) {\n        return allowed(modifierAddress, 0);\n    }\n\n    function allowed(address modifierAddress, uint256 index)\n        private\n        view\n        returns (bool)\n    {\n        if (modifierAddress == allowedModifiers[index]) {\n            return true;\n        } else if (index < allowedModifiers.length) {\n            return allowed(modifierAddress, index + 1);\n        } else {\n            return false;\n        }\n    }\n}\n\ncontract Application {\n    mapping(uint256 => Institution) public institutions;\n    uint256 nextInstitutionId = 0;\n    mapping(uint256 => Faculty) public faculties;\n    uint256 nextFacultyId = 0;\n\n    function createInstitution(string memory _name) public payable {\n        uint256 _id = nextInstitutionId++;\n        Institution _institution = new Institution(_id, _name, msg.sender);\n        institutions[_id] = _institution;\n    }\n\n    function institution(uint256 _id) public view returns (address) {\n        return address(institutions[_id]);\n    }\n\n    function createFaculty(\n        string memory _name,\n        uint16 _yearEnded,\n        string memory _qualificationDescription,\n        uint16 _teachingProductivity,\n        uint16 _productivityPercentage\n    ) public payable {\n        uint256 _id = nextFacultyId++;\n        faculties[_id] = new Faculty(\n            _name,\n            _yearEnded,\n            _qualificationDescription,\n            _teachingProductivity,\n            _productivityPercentage\n        );\n    }\n}\n",
  "sourcePath": "/home/mortadaak/Projects/aacsb_accreditiation/contracts/Application.sol",
  "compiler": {
    "name": "solc",
    "version": "0.7.5+commit.eb77ed08.Emscripten.clang"
  },
  "schemaVersion": "3.3.3",
  "updatedAt": "2020-12-29T18:57:24.601Z",
  "devdoc": {
    "kind": "dev",
    "methods": {},
    "version": 1
  },
  "userdoc": {
    "kind": "user",
    "methods": {},
    "version": 1
  }
}