{
  "contractName": "Faculty",
  "abi": [
    {
      "inputs": [
        {
          "internalType": "contract FacultiesManager",
          "name": "_facultiesManager",
          "type": "address"
        },
        {
          "internalType": "uint256",
          "name": "_id",
          "type": "uint256"
        },
        {
          "internalType": "string",
          "name": "_name",
          "type": "string"
        },
        {
          "internalType": "address",
          "name": "_owner",
          "type": "address"
        }
      ],
      "stateMutability": "nonpayable",
      "type": "constructor"
    },
    {
      "inputs": [
        {
          "internalType": "uint256",
          "name": "",
          "type": "uint256"
        }
      ],
      "name": "certificates",
      "outputs": [
        {
          "internalType": "contract Certificate",
          "name": "",
          "type": "address"
        }
      ],
      "stateMutability": "view",
      "type": "function"
    },
    {
      "inputs": [],
      "name": "currentInstitution",
      "outputs": [
        {
          "internalType": "contract Institution",
          "name": "",
          "type": "address"
        }
      ],
      "stateMutability": "view",
      "type": "function"
    },
    {
      "inputs": [],
      "name": "name",
      "outputs": [
        {
          "internalType": "string",
          "name": "",
          "type": "string"
        }
      ],
      "stateMutability": "view",
      "type": "function"
    },
    {
      "inputs": [],
      "name": "owner",
      "outputs": [
        {
          "internalType": "address",
          "name": "",
          "type": "address"
        }
      ],
      "stateMutability": "view",
      "type": "function"
    },
    {
      "inputs": [
        {
          "internalType": "string",
          "name": "_name",
          "type": "string"
        }
      ],
      "name": "update",
      "outputs": [],
      "stateMutability": "payable",
      "type": "function"
    },
    {
      "inputs": [
        {
          "internalType": "address",
          "name": "_institutionAddress",
          "type": "address"
        }
      ],
      "name": "assignInstitution",
      "outputs": [],
      "stateMutability": "payable",
      "type": "function"
    },
    {
      "inputs": [
        {
          "internalType": "address",
          "name": "_address",
          "type": "address"
        }
      ],
      "name": "allowed",
      "outputs": [
        {
          "internalType": "bool",
          "name": "",
          "type": "bool"
        }
      ],
      "stateMutability": "view",
      "type": "function"
    },
    {
      "inputs": [
        {
          "internalType": "contract Certificate",
          "name": "_certificate",
          "type": "address"
        },
        {
          "internalType": "address",
          "name": "_address",
          "type": "address"
        }
      ],
      "name": "addCertificate",
      "outputs": [],
      "stateMutability": "payable",
      "type": "function"
    },
    {
      "inputs": [],
      "name": "certificatesLength",
      "outputs": [
        {
          "internalType": "uint256",
          "name": "",
          "type": "uint256"
        }
      ],
      "stateMutability": "view",
      "type": "function"
    },
    {
      "inputs": [],
      "name": "pendingCertificatesLength",
      "outputs": [
        {
          "internalType": "uint256",
          "name": "",
          "type": "uint256"
        }
      ],
      "stateMutability": "view",
      "type": "function"
    },
    {
      "inputs": [
        {
          "internalType": "uint256",
          "name": "_from",
          "type": "uint256"
        }
      ],
      "name": "pendingCertificates",
      "outputs": [
        {
          "internalType": "contract Certificate[10]",
          "name": "",
          "type": "address[10]"
        }
      ],
      "stateMutability": "view",
      "type": "function"
    }
  ],
  "bytecode": "0x60806040523480156200001157600080fd5b5060405162001ce238038062001ce283398181016040528101906200003791906200023a565b83600560006101000a81548173ffffffffffffffffffffffffffffffffffffffff021916908373ffffffffffffffffffffffffffffffffffffffff160217905550816001908051906020019062000090929190620000e3565b508260008190555080600260006101000a81548173ffffffffffffffffffffffffffffffffffffffff021916908373ffffffffffffffffffffffffffffffffffffffff16021790555050505050620003fe565b828054600181600116156101000203166002900490600052602060002090601f0160209004810192826200011b576000855562000167565b82601f106200013657805160ff191683800117855562000167565b8280016001018555821562000167579182015b828111156200016657825182559160200191906001019062000149565b5b5090506200017691906200017a565b5090565b5b80821115620001955760008160009055506001016200017b565b5090565b600081519050620001aa81620003b0565b92915050565b600081519050620001c181620003ca565b92915050565b600082601f830112620001d957600080fd5b8151620001f0620001ea82620002f3565b620002bf565b915080825260208301602083018583830111156200020d57600080fd5b6200021a83828462000378565b50505092915050565b6000815190506200023481620003e4565b92915050565b600080600080608085870312156200025157600080fd5b60006200026187828801620001b0565b9450506020620002748782880162000223565b935050604085015167ffffffffffffffff8111156200029257600080fd5b620002a087828801620001c7565b9250506060620002b38782880162000199565b91505092959194509250565b6000604051905081810181811067ffffffffffffffff82111715620002e957620002e8620003ae565b5b8060405250919050565b600067ffffffffffffffff821115620003115762000310620003ae565b5b601f19601f8301169050602081019050919050565b600062000333826200034e565b9050919050565b6000620003478262000326565b9050919050565b600073ffffffffffffffffffffffffffffffffffffffff82169050919050565b6000819050919050565b60005b83811015620003985780820151818401526020810190506200037b565b83811115620003a8576000848401525b50505050565bfe5b620003bb8162000326565b8114620003c757600080fd5b50565b620003d5816200033a565b8114620003e157600080fd5b50565b620003ef816200036e565b8114620003fb57600080fd5b50565b6118d4806200040e6000396000f3fe60806040526004361061009c5760003560e01c8063781dd72211610064578063781dd7221461017b5780638da5cb5b14610197578063ad41b39b146101c2578063d63a8e11146101ed578063d90c137e1461022a578063e08b2ab6146102465761009c565b806306fdde03146100a15780633d7403a3146100cc5780634e8ef753146100e85780635822cb3114610113578063663b3e221461013e575b600080fd5b3480156100ad57600080fd5b506100b6610283565b6040516100c391906114ae565b60405180910390f35b6100e660048036038101906100e19190611154565b610321565b005b3480156100f457600080fd5b506100fd610454565b60405161010a9190611493565b60405180910390f35b34801561011f57600080fd5b5061012861047a565b6040516101359190611552565b60405180910390f35b34801561014a57600080fd5b5061016560048036038101906101609190611195565b610626565b6040516101729190611434565b60405180910390f35b61019560048036038101906101909190611074565b610665565b005b3480156101a357600080fd5b506101ac610a35565b6040516101b991906113c7565b60405180910390f35b3480156101ce57600080fd5b506101d7610a5b565b6040516101e49190611552565b60405180910390f35b3480156101f957600080fd5b50610214600480360381019061020f9190610fcf565b610a68565b6040516102219190611419565b60405180910390f35b610244600480360381019061023f9190610fcf565b610ac2565b005b34801561025257600080fd5b5061026d60048036038101906102689190611195565b610b9b565b60405161027a91906113fd565b60405180910390f35b60018054600181600116156101000203166002900480601f0160208091040260200160405190810160405280929190818152602001828054600181600116156101000203166002900480156103195780601f106102ee57610100808354040283529160200191610319565b820191906000526020600020905b8154815290600101906020018083116102fc57829003601f168201915b505050505081565b61032a33610a68565b15610451578060019080519060200190610345929190610d52565b50600560009054906101000a900473ffffffffffffffffffffffffffffffffffffffff1673ffffffffffffffffffffffffffffffffffffffff166326e4ca826040518163ffffffff1660e01b815260040160206040518083038186803b1580156103ae57600080fd5b505afa1580156103c2573d6000803e3d6000fd5b505050506040513d601f19601f820116820180604052508101906103e6919061104b565b73ffffffffffffffffffffffffffffffffffffffff166363441ab2306040518263ffffffff1660e01b815260040161041e91906114d0565b600060405180830381600087803b15801561043857600080fd5b505af115801561044c573d6000803e3d6000fd5b505050505b50565b600460009054906101000a900473ffffffffffffffffffffffffffffffffffffffff1681565b6000600560009054906101000a900473ffffffffffffffffffffffffffffffffffffffff1673ffffffffffffffffffffffffffffffffffffffff166326e4ca826040518163ffffffff1660e01b815260040160206040518083038186803b1580156104e457600080fd5b505afa1580156104f8573d6000803e3d6000fd5b505050506040513d601f19601f8201168201806040525081019061051c919061104b565b73ffffffffffffffffffffffffffffffffffffffff1663ff25025b6040518163ffffffff1660e01b815260040160206040518083038186803b15801561056157600080fd5b505afa158015610575573d6000803e3d6000fd5b505050506040513d601f19601f8201168201806040525081019061059991906110b0565b73ffffffffffffffffffffffffffffffffffffffff16639a2393f6306040518263ffffffff1660e01b81526004016105d1919061144f565b60206040518083038186803b1580156105e957600080fd5b505afa1580156105fd573d6000803e3d6000fd5b505050506040513d601f19601f8201168201806040525081019061062191906111be565b905090565b6003818154811061063657600080fd5b906000526020600020016000915054906101000a900473ffffffffffffffffffffffffffffffffffffffff1681565b8173ffffffffffffffffffffffffffffffffffffffff1663d1384eb66040518163ffffffff1660e01b815260040160206040518083038186803b1580156106ab57600080fd5b505afa1580156106bf573d6000803e3d6000fd5b505050506040513d601f19601f820116820180604052508101906106e39190611102565b73ffffffffffffffffffffffffffffffffffffffff1663d63a8e11826040518263ffffffff1660e01b815260040161071b91906113c7565b60206040518083038186803b15801561073357600080fd5b505afa158015610747573d6000803e3d6000fd5b505050506040513d601f19601f8201168201806040525081019061076b9190611022565b801561080a57506001600281111561077f57fe5b8273ffffffffffffffffffffffffffffffffffffffff1663200d2ed26040518163ffffffff1660e01b815260040160206040518083038186803b1580156107c557600080fd5b505afa1580156107d9573d6000803e3d6000fd5b505050506040513d601f19601f820116820180604052508101906107fd919061112b565b600281111561080857fe5b145b80156108be57503073ffffffffffffffffffffffffffffffffffffffff168273ffffffffffffffffffffffffffffffffffffffff16631080d5f86040518163ffffffff1660e01b815260040160206040518083038186803b15801561086e57600080fd5b505afa158015610882573d6000803e3d6000fd5b505050506040513d601f19601f820116820180604052508101906108a691906110d9565b73ffffffffffffffffffffffffffffffffffffffff16145b15610a31576003829080600181540180825580915050600190039060005260206000200160009091909190916101000a81548173ffffffffffffffffffffffffffffffffffffffff021916908373ffffffffffffffffffffffffffffffffffffffff160217905550600560009054906101000a900473ffffffffffffffffffffffffffffffffffffffff1673ffffffffffffffffffffffffffffffffffffffff166326e4ca826040518163ffffffff1660e01b815260040160206040518083038186803b15801561098e57600080fd5b505afa1580156109a2573d6000803e3d6000fd5b505050506040513d601f19601f820116820180604052508101906109c6919061104b565b73ffffffffffffffffffffffffffffffffffffffff166363441ab2306040518263ffffffff1660e01b81526004016109fe9190611511565b600060405180830381600087803b158015610a1857600080fd5b505af1158015610a2c573d6000803e3d6000fd5b505050505b5050565b600260009054906101000a900473ffffffffffffffffffffffffffffffffffffffff1681565b6000600380549050905090565b6000600260009054906101000a900473ffffffffffffffffffffffffffffffffffffffff1673ffffffffffffffffffffffffffffffffffffffff168273ffffffffffffffffffffffffffffffffffffffff16149050919050565b60008190508073ffffffffffffffffffffffffffffffffffffffff1663d63a8e11336040518263ffffffff1660e01b8152600401610b0091906113e2565b60206040518083038186803b158015610b1857600080fd5b505afa158015610b2c573d6000803e3d6000fd5b505050506040513d601f19601f82011682018060405250810190610b509190611022565b15610b975780600460006101000a81548173ffffffffffffffffffffffffffffffffffffffff021916908373ffffffffffffffffffffffffffffffffffffffff1602179055505b5050565b610ba3610de0565b600560009054906101000a900473ffffffffffffffffffffffffffffffffffffffff1673ffffffffffffffffffffffffffffffffffffffff166326e4ca826040518163ffffffff1660e01b815260040160206040518083038186803b158015610c0b57600080fd5b505afa158015610c1f573d6000803e3d6000fd5b505050506040513d601f19601f82011682018060405250810190610c43919061104b565b73ffffffffffffffffffffffffffffffffffffffff1663ff25025b6040518163ffffffff1660e01b815260040160206040518083038186803b158015610c8857600080fd5b505afa158015610c9c573d6000803e3d6000fd5b505050506040513d601f19601f82011682018060405250810190610cc091906110b0565b73ffffffffffffffffffffffffffffffffffffffff1663da60f30d30846040518363ffffffff1660e01b8152600401610cfa92919061146a565b6101406040518083038186803b158015610d1357600080fd5b505afa158015610d27573d6000803e3d6000fd5b505050506040513d601f19601f82011682018060405250810190610d4b9190610ff8565b9050919050565b828054600181600116156101000203166002900490600052602060002090601f016020900481019282610d885760008555610dcf565b82601f10610da157805160ff1916838001178555610dcf565b82800160010185558215610dcf579182015b82811115610dce578251825591602001919060010190610db3565b5b509050610ddc9190610e03565b5090565b604051806101400160405280600a90602082028036833780820191505090505090565b5b80821115610e1c576000816000905550600101610e04565b5090565b600081359050610e2f816117d6565b92915050565b600082601f830112610e4657600080fd5b600a610e59610e548261159e565b61156d565b91508183856020840282011115610e6f57600080fd5b60005b83811015610e9f5781610e858882610ee8565b845260208401935060208301925050600181019050610e72565b5050505092915050565b600081519050610eb8816117ed565b92915050565b600081519050610ecd81611804565b92915050565b600081359050610ee28161181b565b92915050565b600081519050610ef78161181b565b92915050565b600081519050610f0c81611832565b92915050565b600081519050610f2181611849565b92915050565b600081519050610f3681611860565b92915050565b600081519050610f4b81611877565b92915050565b600082601f830112610f6257600080fd5b8135610f75610f70826115c4565b61156d565b91508082526020830160208301858383011115610f9157600080fd5b610f9c838284611781565b50505092915050565b600081359050610fb481611887565b92915050565b600081519050610fc981611887565b92915050565b600060208284031215610fe157600080fd5b6000610fef84828501610e20565b91505092915050565b6000610140828403121561100b57600080fd5b600061101984828501610e35565b91505092915050565b60006020828403121561103457600080fd5b600061104284828501610ea9565b91505092915050565b60006020828403121561105d57600080fd5b600061106b84828501610ebe565b91505092915050565b6000806040838503121561108757600080fd5b600061109585828601610ed3565b92505060206110a685828601610e20565b9150509250929050565b6000602082840312156110c257600080fd5b60006110d084828501610efd565b91505092915050565b6000602082840312156110eb57600080fd5b60006110f984828501610f12565b91505092915050565b60006020828403121561111457600080fd5b600061112284828501610f27565b91505092915050565b60006020828403121561113d57600080fd5b600061114b84828501610f3c565b91505092915050565b60006020828403121561116657600080fd5b600082013567ffffffffffffffff81111561118057600080fd5b61118c84828501610f51565b91505092915050565b6000602082840312156111a757600080fd5b60006111b584828501610fa5565b91505092915050565b6000602082840312156111d057600080fd5b60006111de84828501610fba565b91505092915050565b60006111f38383611283565b60208301905092915050565b611208816116df565b82525050565b6112178161163d565b82525050565b611226816115fe565b6112308184611621565b925061123b826115f4565b8060005b8381101561126c57815161125387826111e7565b965061125e83611614565b92505060018101905061123f565b505050505050565b61127d8161164f565b82525050565b61128c816116f1565b82525050565b61129b816116f1565b82525050565b6112aa81611715565b82525050565b6112b981611739565b82525050565b60006112ca82611609565b6112d4818561162c565b93506112e4818560208601611790565b6112ed816117c5565b840191505092915050565b6000611305600e8361162c565b91507f5550444154455f464143554c54590000000000000000000000000000000000006000830152602082019050919050565b6000611345600f8361162c565b91507f4144445f434552544946494341544500000000000000000000000000000000006000830152602082019050919050565b600061138560078361162c565b91507f464143554c5459000000000000000000000000000000000000000000000000006000830152602082019050919050565b6113c1816116d5565b82525050565b60006020820190506113dc600083018461120e565b92915050565b60006020820190506113f760008301846111ff565b92915050565b600061014082019050611413600083018461121d565b92915050565b600060208201905061142e6000830184611274565b92915050565b60006020820190506114496000830184611292565b92915050565b600060208201905061146460008301846112a1565b92915050565b600060408201905061147f60008301856112a1565b61148c60208301846113b8565b9392505050565b60006020820190506114a860008301846112b0565b92915050565b600060208201905081810360008301526114c881846112bf565b905092915050565b600060608201905081810360008301526114e9816112f8565b905081810360208301526114fc81611378565b905061150b604083018461120e565b92915050565b6000606082019050818103600083015261152a81611338565b9050818103602083015261153d81611378565b905061154c604083018461120e565b92915050565b600060208201905061156760008301846113b8565b92915050565b6000604051905081810181811067ffffffffffffffff82111715611594576115936117c3565b5b8060405250919050565b600067ffffffffffffffff8211156115b9576115b86117c3565b5b602082029050919050565b600067ffffffffffffffff8211156115df576115de6117c3565b5b601f19601f8301169050602081019050919050565b6000819050919050565b6000600a9050919050565b600081519050919050565b6000602082019050919050565b600081905092915050565b600082825260208201905092915050565b6000611648826116b5565b9050919050565b60008115159050919050565b60006116668261163d565b9050919050565b60006116788261163d565b9050919050565b600061168a8261163d565b9050919050565b600061169c8261163d565b9050919050565b60006116ae8261163d565b9050919050565b600073ffffffffffffffffffffffffffffffffffffffff82169050919050565b6000819050919050565b60006116ea8261175d565b9050919050565b60006116fc82611703565b9050919050565b600061170e826116b5565b9050919050565b600061172082611727565b9050919050565b6000611732826116b5565b9050919050565b60006117448261174b565b9050919050565b6000611756826116b5565b9050919050565b60006117688261176f565b9050919050565b600061177a826116b5565b9050919050565b82818337600083830152505050565b60005b838110156117ae578082015181840152602081019050611793565b838111156117bd576000848401525b50505050565bfe5b6000601f19601f8301169050919050565b6117df8161163d565b81146117ea57600080fd5b50565b6117f68161164f565b811461180157600080fd5b50565b61180d8161165b565b811461181857600080fd5b50565b6118248161166d565b811461182f57600080fd5b50565b61183b8161167f565b811461184657600080fd5b50565b61185281611691565b811461185d57600080fd5b50565b611869816116a3565b811461187457600080fd5b50565b6003811061188457600080fd5b50565b611890816116d5565b811461189b57600080fd5b5056fea26469706673582212202a228bd35ae3a130c8cf6f68102e76609ef0e1661fa982328aa31b4af44ed69964736f6c63430007050033",
  "immutableReferences": {},
  "source": "// SPDX-License-Identifier: GPL-3.0\npragma solidity >=0.5.0 <0.8.0;\npragma abicoder v2;\nenum Degree {\n    ScholarlyAcademics,\n    PracticeAcademics,\n    ScholarlyPractitioner,\n    InstructionalPractitioner\n}\n\ncontract Certificate {\n    enum State {requested, approved, rejected}\n\n    Faculty public faculty;\n    Institution public institution;\n    Degree public degree;\n    State public status = State.requested;\n    CertificatesManager certificatesManager;\n\n    constructor(\n        CertificatesManager _certificatesManager,\n        Faculty _faculty,\n        Institution _institution,\n        Degree _degree\n    ) {\n        certificatesManager = _certificatesManager;\n        faculty = _faculty;\n        institution = _institution;\n        degree = _degree;\n    }\n\n    function update(Degree _degree) public payable {\n        if (editable(msg.sender)) {\n            degree = _degree;\n            certificatesManager.application().emitEvent(\n                \"UPDATE_CERTIFICATE\",\n                \"CERTIFICATE\",\n                address(this)\n            );\n        }\n    }\n\n    function reject() public payable {\n        if (editable(msg.sender)) {\n            status = State.rejected;\n            certificatesManager\n                .application()\n                .certificatesManager()\n                .removeCertificate(this);\n            certificatesManager.application().emitEvent(\n                \"REJEcT_CERTIFICATE\",\n                \"CERTIFICATE\",\n                address(this)\n            );\n        }\n    }\n\n    function approve() public payable {\n        if (editable(msg.sender) && institution.allowed(msg.sender)) {\n            status = State.approved;\n            faculty.addCertificate(this, msg.sender);\n            institution.addCertificate(this, msg.sender);\n            certificatesManager\n                .application()\n                .certificatesManager()\n                .removeCertificate(this);\n            certificatesManager.application().emitEvent(\n                \"APPROVE_CERTIFICATE\",\n                \"CERTIFICATE\",\n                address(this)\n            );\n        }\n    }\n\n    function editable(address _address) public view returns (bool) {\n        return ((status == State.requested &&\n            (institution.allowed(_address))) || faculty.allowed(_address));\n    }\n}\n\ncontract Faculty {\n    uint256 id;\n    string public name;\n    address public owner;\n    Certificate[] public certificates;\n    Institution public currentInstitution;\n    FacultiesManager facultiesManager;\n\n    constructor(\n        FacultiesManager _facultiesManager,\n        uint256 _id,\n        string memory _name,\n        address _owner\n    ) {\n        facultiesManager = _facultiesManager;\n        name = _name;\n        id = _id;\n        owner = _owner;\n    }\n\n    function update(string memory _name) public payable {\n        if (allowed(msg.sender)) {\n            name = _name;\n            facultiesManager.application().emitEvent(\n                \"UPDATE_FACULTY\",\n                \"FACULTY\",\n                address(this)\n            );\n        }\n    }\n\n    function assignInstitution(address _institutionAddress) public payable {\n        Institution _institution = Institution(_institutionAddress);\n        if (_institution.allowed(msg.sender)) {\n            currentInstitution = _institution;\n        }\n    }\n\n    function allowed(address _address) public view returns (bool) {\n        return _address == owner;\n    }\n\n    function addCertificate(Certificate _certificate, address _address)\n        public\n        payable\n    {\n        if (\n            _certificate.institution().allowed(_address) &&\n            _certificate.status() == Certificate.State.approved &&\n            _certificate.faculty() == this\n        ) {\n            certificates.push(_certificate);\n            facultiesManager.application().emitEvent(\n                \"ADD_CERTIFICATE\",\n                \"FACULTY\",\n                address(this)\n            );\n        }\n    }\n\n    function certificatesLength() public view returns (uint256) {\n        return certificates.length;\n    }\n\n    function pendingCertificatesLength() public view returns (uint256) {\n        return\n            facultiesManager\n                .application()\n                .certificatesManager()\n                .pendingCertificateLengthForFaculty(this);\n    }\n\n    function pendingCertificates(uint256 _from)\n        public\n        view\n        returns (Certificate[10] memory)\n    {\n        return\n            facultiesManager\n                .application()\n                .certificatesManager()\n                .pendingCertificateForFaculty(this, _from);\n    }\n}\n\ncontract Institution {\n    struct StaffMember {\n        uint256 id;\n        string name;\n        bool active;\n    }\n\n    uint256 public id;\n    string public name;\n    address public owner;\n\n    Certificate[] certificates;\n    InstituionsManager instituionsManager;\n    address[] public allowedModifiers;\n    mapping(address => bool) allowedModifiersMap;\n\n    mapping(uint256 => StaffMember) staffMembers;\n    uint256 nextStaffMembersId = 1;\n\n    mapping(uint256 => Faculty) faculties;\n    uint256 nextFacultyId;\n\n    constructor(\n        InstituionsManager _instituionsManager,\n        uint256 _id,\n        string memory _name,\n        address sender\n    ) {\n        instituionsManager = _instituionsManager;\n        id = _id;\n        name = _name;\n        owner = sender;\n        allowedModifiers.push(sender);\n        allowedModifiersMap[sender] = true;\n    }\n\n    function update(string memory _name) public payable {\n        if (allowed(msg.sender)) {\n            name = _name;\n        }\n    }\n\n    function staffMember(uint256 _from)\n        public\n        view\n        returns (StaffMember memory)\n    {\n        return staffMembers[_from];\n    }\n\n    function listStaffMembers(uint256 _from, bool skipInactive)\n        public\n        view\n        returns (StaffMember[10] memory)\n    {\n        StaffMember[10] memory list;\n        for (uint256 i = 0; i < 10; i++) {\n            if (nextStaffMembersId < i + _from + 1) {\n                i = 10;\n            } else if (skipInactive && !staffMembers[i + _from + 1].active) {\n                _from++;\n                i--;\n            } else {\n                list[i] = staffMembers[i + _from + 1];\n            }\n        }\n        return list;\n    }\n\n    function staffMembersLength() public view returns (uint256) {\n        return nextStaffMembersId - 1;\n    }\n\n    function createStaffMember(string memory _name) public payable {\n        if (allowed(msg.sender)) {\n            uint256 _nextStaffMemberId = nextStaffMembersId++;\n            StaffMember storage _staffMember = staffMembers[_nextStaffMemberId];\n            _staffMember.id = _nextStaffMemberId;\n            _staffMember.name = _name;\n            _staffMember.active = true;\n            instituionsManager.application().emitEvent(\n                \"ADD_STAFF_MEMBER_INSTITUTION\",\n                \"INSTITUTION\",\n                address(this)\n            );\n        }\n    }\n\n    function updateStaffMember(\n        uint256 _staffMemberId,\n        string memory _name,\n        bool _active\n    ) public payable {\n        if (allowed(msg.sender)) {\n            StaffMember storage _staffMember = staffMembers[_staffMemberId];\n            _staffMember.name = _name;\n            _staffMember.active = _active;\n            instituionsManager.application().emitEvent(\n                \"UPDATE_STAFF_MEMBER_INSTITUTION\",\n                \"INSTITUTION\",\n                address(this)\n            );\n        }\n    }\n\n    function listModifiers(uint256 _from)\n        public\n        view\n        returns (address[10] memory)\n    {\n        address[10] memory list;\n        for (uint256 i = 0; i < 10; i++) {\n            if (i + _from >= allowedModifiers.length) {\n                i = 10;\n            } else {\n                list[i] = allowedModifiers[i + _from];\n            }\n        }\n        return list;\n    }\n\n    function modifiersLength() public view returns (uint256) {\n        return allowedModifiers.length;\n    }\n\n    function addModifier(address _modifier) public payable {\n        if (allowed(msg.sender) && !allowedModifiersMap[_modifier]) {\n            allowedModifiers.push(_modifier);\n            allowedModifiersMap[_modifier] = true;\n            instituionsManager.application().emitEvent(\n                \"ADD_MODIFIER_INSTITUTION\",\n                \"INSTITUTION\",\n                address(this)\n            );\n        }\n    }\n\n    function removeModifier(address _modifier) public payable {\n        if (allowedToRemove(msg.sender, _modifier)) {\n            for (uint256 i = 0; i < allowedModifiers.length; i++) {\n                if (allowedModifiers[i] == _modifier) {\n                    uint256 _lastIndex = allowedModifiers.length - 1;\n                    if (i < _lastIndex) {\n                        allowedModifiers[i] = allowedModifiers[_lastIndex];\n                    }\n                    allowedModifiers.pop();\n                }\n            }\n            delete allowedModifiersMap[_modifier];\n            instituionsManager.application().emitEvent(\n                \"REMOVE_MODIFIER_INSTITUTION\",\n                \"INSTITUTION\",\n                address(this)\n            );\n        }\n    }\n\n    function allowedToRemove(address _sender, address _toRemove)\n        public\n        view\n        returns (bool)\n    {\n        if (allowed(_sender)) {\n            if (_sender == _toRemove) {\n                return false;\n            } else if (_toRemove == owner) {\n                return false;\n            } else {\n                return true;\n            }\n        } else {\n            return false;\n        }\n    }\n\n    function allowed(address _modifierAddress) public view returns (bool) {\n        return allowed(_modifierAddress, 0);\n    }\n\n    function allowed(address modifierAddress, uint256 index)\n        private\n        view\n        returns (bool)\n    {\n        if (modifierAddress == allowedModifiers[index]) {\n            return true;\n        } else if (index < allowedModifiers.length - 1) {\n            return allowed(modifierAddress, index + 1);\n        } else {\n            return false;\n        }\n    }\n\n    function addCertificate(Certificate _certificate, address _address)\n        public\n        payable\n    {\n        if (\n            allowed(_address) &&\n            _certificate.status() == Certificate.State.approved &&\n            _certificate.institution() == this\n        ) {\n            certificates.push(_certificate);\n            instituionsManager.application().emitEvent(\n                \"ADD_CERTIFICATE_INSTITUTION\",\n                \"INSTITUTION\",\n                address(this)\n            );\n        }\n    }\n\n    function issuedCertificates(uint256 _from)\n        public\n        view\n        returns (Certificate[10] memory)\n    {\n        Certificate[10] memory _list;\n        uint256 _count = 0;\n        for (uint256 i = _from; i < certificates.length && _count < 10; i++) {\n            _list[_count] = certificates[i];\n            _count++;\n        }\n        return _list;\n    }\n\n    function issuedCertificatesLength() public view returns (uint256) {\n        return certificates.length;\n    }\n\n    function pendingCertificatesLength() public view returns (uint256) {\n        return\n            instituionsManager\n                .application()\n                .certificatesManager()\n                .pendingCertificateLengthForInstitution(this);\n    }\n\n    function pendingCertificates(uint256 _from)\n        public\n        view\n        returns (Certificate[10] memory)\n    {\n        return\n            instituionsManager\n                .application()\n                .certificatesManager()\n                .pendingCertificateForInstitution(this, _from);\n    }\n}\n\ncontract CertificatesManager {\n    Certificate[] pendingCertificates;\n    Application public application;\n\n    constructor(Application _application) {\n        application = _application;\n    }\n\n    function requestCertificate(\n        Faculty _faculty,\n        Institution _institution,\n        Degree _degree\n    ) public payable {\n        Certificate _certificate =\n            new Certificate(this, _faculty, _institution, _degree);\n        pendingCertificates.push(_certificate);\n        application.emitEvent(\n            \"REQUEST_CERTIFICATE\",\n            \"INSTITUTION\",\n            address(_institution)\n        );\n        application.emitEvent(\n            \"REQUEST_CERTIFICATE\",\n            \"FACULTY\",\n            address(_faculty)\n        );\n    }\n\n    function removeCertificate(Certificate _certificate) public payable {\n        for (uint256 i = 0; i < pendingCertificates.length; i++) {\n            if (pendingCertificates[i] == _certificate) {\n                uint256 _lastIndex = pendingCertificates.length - 1;\n                if (i < _lastIndex) {\n                    pendingCertificates[i] = pendingCertificates[_lastIndex];\n                }\n                pendingCertificates.pop();\n            }\n        }\n        application.emitEvent(\n            \"CERTIFICATE_REMOVE\",\n            \"INSTITUTION\",\n            address(_certificate.institution())\n        );\n        application.emitEvent(\n            \"CERTIFICATE_REMOVE\",\n            \"FACULTY\",\n            address(_certificate.faculty())\n        );\n    }\n\n    function pendingCertificateLengthForFaculty(Faculty _faculty)\n        public\n        view\n        returns (uint256)\n    {\n        uint256 _count = 0;\n        for (uint256 i = 0; i < pendingCertificates.length; i++) {\n            if (pendingCertificates[i].faculty() == _faculty) {\n                _count++;\n            }\n        }\n        return _count;\n    }\n\n    function pendingCertificateForFaculty(Faculty _faculty, uint256 _from)\n        public\n        view\n        returns (Certificate[10] memory)\n    {\n        Certificate[10] memory _list;\n        uint256 _count = 0;\n        uint256 _toSkip = 0;\n        for (\n            uint256 i = 0;\n            i < pendingCertificates.length && _count <= 10;\n            i++\n        ) {\n            if (pendingCertificates[i].faculty() == _faculty) {\n                if (_toSkip >= _from) {\n                    _list[_count] = pendingCertificates[i];\n                    _count++;\n                }\n                _toSkip++;\n            }\n        }\n        return _list;\n    }\n\n    function pendingCertificateLengthForInstitution(Institution _institution)\n        public\n        view\n        returns (uint256)\n    {\n        uint256 _count = 0;\n        for (uint256 i = 0; i < pendingCertificates.length; i++) {\n            if (pendingCertificates[i].institution() == _institution) {\n                _count++;\n            }\n        }\n        return _count;\n    }\n\n    function pendingCertificateForInstitution(\n        Institution _institution,\n        uint256 _from\n    ) public view returns (Certificate[10] memory) {\n        Certificate[10] memory _list;\n        uint256 _count = 0;\n        uint256 _toSkip = 0;\n        for (\n            uint256 i = 0;\n            i < pendingCertificates.length && _count <= 10;\n            i++\n        ) {\n            if (pendingCertificates[i].institution() == _institution) {\n                if (_toSkip >= _from) {\n                    _list[_count] = pendingCertificates[i];\n                    _count++;\n                }\n                _toSkip++;\n            }\n        }\n        return _list;\n    }\n}\n\ncontract FacultiesManager {\n    Application public application;\n    mapping(address => Faculty) public faculties;\n    mapping(uint256 => Faculty) facultiesByIndex;\n    uint256 nextFacultyId = 0;\n\n    constructor(Application _application) {\n        application = _application;\n    }\n\n    function facultiesLength() public view returns (uint256) {\n        return nextFacultyId;\n    }\n\n    function createFaculty(string memory _name) public payable {\n        if (address(faculties[msg.sender]) == address(0x0)) {\n            uint256 _id = nextFacultyId++;\n            Faculty faculty = new Faculty(this, _id, _name, msg.sender);\n            facultiesByIndex[_id] = faculty;\n            faculties[msg.sender] = faculty;\n            application.emitEvent(\n                \"CREATE_FACULTY\",\n                \"FACULTY\",\n                address(faculty)\n            );\n        }\n    }\n\n    function listFaculties(uint256 _from)\n        public\n        view\n        returns (Faculty[10] memory)\n    {\n        Faculty[10] memory list;\n        for (uint256 i = 0; i < 10; i++) {\n            list[i] = facultiesByIndex[i + _from];\n        }\n        return list;\n    }\n}\n\ncontract InstituionsManager {\n    Application public application;\n    mapping(uint256 => Institution) public institutions;\n    uint256 nextInstitutionId = 0;\n\n    constructor(Application _application) {\n        application = _application;\n    }\n\n    function institutionsLength() public view returns (uint256) {\n        return nextInstitutionId;\n    }\n\n    function createInstitution(string memory _name) public payable {\n        uint256 _id = nextInstitutionId++;\n        Institution _institution =\n            new Institution(this, _id, _name, msg.sender);\n        institutions[_id] = _institution;\n        application.emitEvent(\n            \"CREATE_INSTITUTION\",\n            \"INSTITUTION\",\n            address(_institution)\n        );\n    }\n\n    function listInstitutions(uint256 _from)\n        public\n        view\n        returns (Institution[10] memory)\n    {\n        Institution[10] memory list;\n        for (uint256 i = 0; i < 10; i++) {\n            list[i] = institutions[i + _from];\n        }\n        return list;\n    }\n}\n\ncontract Application {\n    /*\n    Application is the root contract that the UI will use to interact with sub contracts \n    */\n    CertificatesManager public certificatesManager;\n    FacultiesManager public facultiesManager;\n    InstituionsManager public instituionsManager;\n    event ApplicationEvent(\n        string eventType,\n        string targetType,\n        address targetAddress\n    );\n\n    constructor() {\n        certificatesManager = new CertificatesManager(this);\n        facultiesManager = new FacultiesManager(this);\n        instituionsManager = new InstituionsManager(this);\n    }\n\n    function emitEvent(\n        string memory eventType,\n        string memory targetType,\n        address targetAddress\n    ) public payable {\n        emit ApplicationEvent(eventType, targetType, targetAddress);\n    }\n}\n",
  "sourcePath": "/home/mortadaak/projects/aacsb_accreditiation/contracts/Application.sol",
  "compiler": {
    "name": "solc",
    "version": "0.7.5+commit.eb77ed08.Emscripten.clang"
  },
  "schemaVersion": "3.3.3",
  "updatedAt": "2021-01-20T13:05:50.596Z",
  "devdoc": {
    "kind": "dev",
    "methods": {},
    "version": 1
  },
  "userdoc": {
    "kind": "user",
    "methods": {},
    "version": 1
  }
}