{
  "contractName": "Faculties",
  "abi": [
    {
      "inputs": [
        {
          "internalType": "contract Application",
          "name": "_application",
          "type": "address"
        }
      ],
      "stateMutability": "nonpayable",
      "type": "constructor"
    },
    {
      "anonymous": false,
      "inputs": [
        {
          "indexed": false,
          "internalType": "address",
          "name": "by",
          "type": "address"
        },
        {
          "indexed": false,
          "internalType": "address",
          "name": "facultyAddress",
          "type": "address"
        }
      ],
      "name": "FacultyAdded",
      "type": "event"
    },
    {
      "inputs": [
        {
          "internalType": "address",
          "name": "",
          "type": "address"
        }
      ],
      "name": "faculties",
      "outputs": [
        {
          "internalType": "contract Faculty",
          "name": "",
          "type": "address"
        }
      ],
      "stateMutability": "view",
      "type": "function"
    },
    {
      "inputs": [
        {
          "internalType": "string",
          "name": "_name",
          "type": "string"
        }
      ],
      "name": "createFaculty",
      "outputs": [],
      "stateMutability": "payable",
      "type": "function"
    },
    {
      "inputs": [
        {
          "internalType": "uint256",
          "name": "_from",
          "type": "uint256"
        }
      ],
      "name": "listFaculties",
      "outputs": [
        {
          "internalType": "contract Faculty[10]",
          "name": "",
          "type": "address[10]"
        }
      ],
      "stateMutability": "view",
      "type": "function"
    }
  ],
  "bytecode": "0x6080604052600060035534801561001557600080fd5b50604051611f88380380611f8883398181016040528101906100379190610092565b806000806101000a81548173ffffffffffffffffffffffffffffffffffffffff021916908373ffffffffffffffffffffffffffffffffffffffff16021790555050610116565b60008151905061008c816100ff565b92915050565b6000602082840312156100a457600080fd5b60006100b28482850161007d565b91505092915050565b60006100c6826100df565b9050919050565b60006100d8826100bb565b9050919050565b600073ffffffffffffffffffffffffffffffffffffffff82169050919050565b610108816100cd565b811461011357600080fd5b50565b611e63806101256000396000f3fe608060405260043610620000385760003560e01c806381a06777146200003d578063b5fdf252146200005d578063ee84ab7614620000a1575b600080fd5b6200005b60048036038101906200005591906200052f565b620000e5565b005b3480156200006a57600080fd5b5062000089600480360381019062000083919062000503565b6200030c565b60405162000098919062000752565b60405180910390f35b348015620000ae57600080fd5b50620000cd6004803603810190620000c7919062000574565b6200033f565b604051620000dc9190620006e0565b60405180910390f35b600073ffffffffffffffffffffffffffffffffffffffff16600160003373ffffffffffffffffffffffffffffffffffffffff1673ffffffffffffffffffffffffffffffffffffffff16815260200190815260200160002060009054906101000a900473ffffffffffffffffffffffffffffffffffffffff1673ffffffffffffffffffffffffffffffffffffffff161415620003095760006003600081548092919062000191906200094f565b91905055905060008060009054906101000a900473ffffffffffffffffffffffffffffffffffffffff16828433604051620001cc9062000432565b620001db9493929190620006fe565b604051809103906000f080158015620001f8573d6000803e3d6000fd5b509050806002600084815260200190815260200160002060006101000a81548173ffffffffffffffffffffffffffffffffffffffff021916908373ffffffffffffffffffffffffffffffffffffffff16021790555080600160003373ffffffffffffffffffffffffffffffffffffffff1673ffffffffffffffffffffffffffffffffffffffff16815260200190815260200160002060006101000a81548173ffffffffffffffffffffffffffffffffffffffff021916908373ffffffffffffffffffffffffffffffffffffffff1602179055507f1a014a27880e8be8b87e50a7570685e72571626719845d2273905fe506d5b58e3382604051620002fe929190620006b3565b60405180910390a150505b50565b60016020528060005260406000206000915054906101000a900473ffffffffffffffffffffffffffffffffffffffff1681565b6200034962000440565b6200035362000440565b60005b600a81101562000428576002600085836200037291906200081f565b815260200190815260200160002060009054906101000a900473ffffffffffffffffffffffffffffffffffffffff168282600a8110620003db577f4e487b7100000000000000000000000000000000000000000000000000000000600052603260045260246000fd5b602002019073ffffffffffffffffffffffffffffffffffffffff16908173ffffffffffffffffffffffffffffffffffffffff168152505080806200041f906200094f565b91505062000356565b5080915050919050565b6113ed8062000a4183390190565b604051806101400160405280600a90602082028036833780820191505090505090565b60006200047a6200047484620007a3565b6200076f565b9050828152602081018484840111156200049357600080fd5b620004a08482856200090a565b509392505050565b600081359050620004b98162000a0c565b92915050565b600082601f830112620004d157600080fd5b8135620004e384826020860162000463565b91505092915050565b600081359050620004fd8162000a26565b92915050565b6000602082840312156200051657600080fd5b60006200052684828501620004a8565b91505092915050565b6000602082840312156200054257600080fd5b600082013567ffffffffffffffff8111156200055d57600080fd5b6200056b84828501620004bf565b91505092915050565b6000602082840312156200058757600080fd5b60006200059784828501620004ec565b91505092915050565b6000620005ae83836200063f565b60208301905092915050565b620005c5816200087c565b82525050565b620005d681620007e0565b620005e2818462000803565b9250620005ef82620007d6565b8060005b83811015620006265781516200060a8782620005a0565b96506200061783620007f6565b925050600181019050620005f3565b505050505050565b6200063981620008ba565b82525050565b6200064a81620008e2565b82525050565b6200065b81620008e2565b82525050565b60006200066e82620007eb565b6200067a81856200080e565b93506200068c81856020860162000919565b6200069781620009fb565b840191505092915050565b620006ad81620008b0565b82525050565b6000604082019050620006ca6000830185620005ba565b620006d96020830184620005ba565b9392505050565b600061014082019050620006f86000830184620005cb565b92915050565b60006080820190506200071560008301876200062e565b620007246020830186620006a2565b818103604083015262000738818562000661565b9050620007496060830184620005ba565b95945050505050565b600060208201905062000769600083018462000650565b92915050565b6000604051905081810181811067ffffffffffffffff82111715620007995762000798620009cc565b5b8060405250919050565b600067ffffffffffffffff821115620007c157620007c0620009cc565b5b601f19601f8301169050602081019050919050565b6000819050919050565b6000600a9050919050565b600081519050919050565b6000602082019050919050565b600081905092915050565b600082825260208201905092915050565b60006200082c82620008b0565b91506200083983620008b0565b9250827fffffffffffffffffffffffffffffffffffffffffffffffffffffffffffffffff038211156200087157620008706200099d565b5b828201905092915050565b6000620008898262000890565b9050919050565b600073ffffffffffffffffffffffffffffffffffffffff82169050919050565b6000819050919050565b6000620008c782620008ce565b9050919050565b6000620008db8262000890565b9050919050565b6000620008ef82620008f6565b9050919050565b6000620009038262000890565b9050919050565b82818337600083830152505050565b60005b83811015620009395780820151818401526020810190506200091c565b8381111562000949576000848401525b50505050565b60006200095c82620008b0565b91507fffffffffffffffffffffffffffffffffffffffffffffffffffffffffffffffff8214156200099257620009916200099d565b5b600182019050919050565b7f4e487b7100000000000000000000000000000000000000000000000000000000600052601160045260246000fd5b7f4e487b7100000000000000000000000000000000000000000000000000000000600052604160045260246000fd5b6000601f19601f8301169050919050565b62000a17816200087c565b811462000a2357600080fd5b50565b62000a3181620008b0565b811462000a3d57600080fd5b5056fe60806040523480156200001157600080fd5b50604051620013ed380380620013ed83398181016040528101906200003791906200024a565b83600560006101000a81548173ffffffffffffffffffffffffffffffffffffffff021916908373ffffffffffffffffffffffffffffffffffffffff160217905550816001908051906020019062000090929190620000e3565b508260008190555080600260006101000a81548173ffffffffffffffffffffffffffffffffffffffff021916908373ffffffffffffffffffffffffffffffffffffffff16021790555050505050620004a0565b828054620000f190620003be565b90600052602060002090601f01602090048101928262000115576000855562000161565b82601f106200013057805160ff191683800117855562000161565b8280016001018555821562000161579182015b828111156200016057825182559160200191906001019062000143565b5b50905062000170919062000174565b5090565b5b808211156200018f57600081600090555060010162000175565b5090565b6000620001aa620001a48462000303565b620002cf565b905082815260208101848484011115620001c357600080fd5b620001d084828562000388565b509392505050565b600081519050620001e98162000452565b92915050565b60008151905062000200816200046c565b92915050565b600082601f8301126200021857600080fd5b81516200022a84826020860162000193565b91505092915050565b600081519050620002448162000486565b92915050565b600080600080608085870312156200026157600080fd5b60006200027187828801620001ef565b9450506020620002848782880162000233565b935050604085015167ffffffffffffffff811115620002a257600080fd5b620002b08782880162000206565b9250506060620002c387828801620001d8565b91505092959194509250565b6000604051905081810181811067ffffffffffffffff82111715620002f957620002f862000423565b5b8060405250919050565b600067ffffffffffffffff82111562000321576200032062000423565b5b601f19601f8301169050602081019050919050565b600062000343826200035e565b9050919050565b6000620003578262000336565b9050919050565b600073ffffffffffffffffffffffffffffffffffffffff82169050919050565b6000819050919050565b60005b83811015620003a85780820151818401526020810190506200038b565b83811115620003b8576000848401525b50505050565b60006002820490506001821680620003d757607f821691505b60208210811415620003ee57620003ed620003f4565b5b50919050565b7f4e487b7100000000000000000000000000000000000000000000000000000000600052602260045260246000fd5b7f4e487b7100000000000000000000000000000000000000000000000000000000600052604160045260246000fd5b6200045d8162000336565b81146200046957600080fd5b50565b62000477816200034a565b81146200048357600080fd5b50565b62000491816200037e565b81146200049d57600080fd5b50565b610f3d80620004b06000396000f3fe6080604052600436106100865760003560e01c8063781dd72211610059578063781dd7221461013a5780638da5cb5b14610156578063ad41b39b14610181578063d63a8e11146101ac578063d90c137e146101e957610086565b806306fdde031461008b5780633d7403a3146100b65780634e8ef753146100d2578063663b3e22146100fd575b600080fd5b34801561009757600080fd5b506100a0610205565b6040516100ad9190610c0a565b60405180910390f35b6100d060048036038101906100cb9190610a87565b610293565b005b3480156100de57600080fd5b506100e76102bc565b6040516100f49190610bef565b60405180910390f35b34801561010957600080fd5b50610124600480360381019061011f9190610ac8565b6102e2565b6040516101319190610bd4565b60405180910390f35b610154600480360381019061014f91906109d0565b610321565b005b34801561016257600080fd5b5061016b61067a565b6040516101789190610b75565b60405180910390f35b34801561018d57600080fd5b506101966106a0565b6040516101a39190610c2c565b60405180910390f35b3480156101b857600080fd5b506101d360048036038101906101ce919061097e565b6106ad565b6040516101e09190610bb9565b60405180910390f35b61020360048036038101906101fe919061097e565b610707565b005b6001805461021290610dcc565b80601f016020809104026020016040519081016040528092919081815260200182805461023e90610dcc565b801561028b5780601f106102605761010080835404028352916020019161028b565b820191906000526020600020905b81548152906001019060200180831161026e57829003601f168201915b505050505081565b61029c336106ad565b156102b95780600190805190602001906102b79291906107e0565b505b50565b600460009054906101000a900473ffffffffffffffffffffffffffffffffffffffff1681565b600381815481106102f257600080fd5b906000526020600020016000915054906101000a900473ffffffffffffffffffffffffffffffffffffffff1681565b8173ffffffffffffffffffffffffffffffffffffffff1663d1384eb66040518163ffffffff1660e01b815260040160206040518083038186803b15801561036757600080fd5b505afa15801561037b573d6000803e3d6000fd5b505050506040513d601f19601f8201168201806040525081019061039f9190610a35565b73ffffffffffffffffffffffffffffffffffffffff1663d63a8e11826040518263ffffffff1660e01b81526004016103d79190610b75565b60206040518083038186803b1580156103ef57600080fd5b505afa158015610403573d6000803e3d6000fd5b505050506040513d601f19601f8201168201806040525081019061042791906109a7565b8015610520575060016002811115610468577f4e487b7100000000000000000000000000000000000000000000000000000000600052602160045260246000fd5b8273ffffffffffffffffffffffffffffffffffffffff1663200d2ed26040518163ffffffff1660e01b815260040160206040518083038186803b1580156104ae57600080fd5b505afa1580156104c2573d6000803e3d6000fd5b505050506040513d601f19601f820116820180604052508101906104e69190610a5e565b600281111561051e577f4e487b7100000000000000000000000000000000000000000000000000000000600052602160045260246000fd5b145b80156105d457503073ffffffffffffffffffffffffffffffffffffffff168273ffffffffffffffffffffffffffffffffffffffff16631080d5f86040518163ffffffff1660e01b815260040160206040518083038186803b15801561058457600080fd5b505afa158015610598573d6000803e3d6000fd5b505050506040513d601f19601f820116820180604052508101906105bc9190610a0c565b73ffffffffffffffffffffffffffffffffffffffff16145b15610676576003829080600181540180825580915050600190039060005260206000200160009091909190916101000a81548173ffffffffffffffffffffffffffffffffffffffff021916908373ffffffffffffffffffffffffffffffffffffffff1602179055507fcab8446535b35de1f0ebc27aeffe078cbebbd56fa92739c56cf2a99ed79665d6818360405161066d929190610b90565b60405180910390a15b5050565b600260009054906101000a900473ffffffffffffffffffffffffffffffffffffffff1681565b6000600380549050905090565b6000600260009054906101000a900473ffffffffffffffffffffffffffffffffffffffff1673ffffffffffffffffffffffffffffffffffffffff168273ffffffffffffffffffffffffffffffffffffffff16149050919050565b60008190508073ffffffffffffffffffffffffffffffffffffffff1663d63a8e11336040518263ffffffff1660e01b81526004016107459190610b75565b60206040518083038186803b15801561075d57600080fd5b505afa158015610771573d6000803e3d6000fd5b505050506040513d601f19601f8201168201806040525081019061079591906109a7565b156107dc5780600460006101000a81548173ffffffffffffffffffffffffffffffffffffffff021916908373ffffffffffffffffffffffffffffffffffffffff1602179055505b5050565b8280546107ec90610dcc565b90600052602060002090601f01602090048101928261080e5760008555610855565b82601f1061082757805160ff1916838001178555610855565b82800160010185558215610855579182015b82811115610854578251825591602001919060010190610839565b5b5090506108629190610866565b5090565b5b8082111561087f576000816000905550600101610867565b5090565b600061089661089184610c78565b610c47565b9050828152602081018484840111156108ae57600080fd5b6108b9848285610d8a565b509392505050565b6000813590506108d081610e6d565b92915050565b6000815190506108e581610e84565b92915050565b6000813590506108fa81610e9b565b92915050565b60008151905061090f81610eb2565b92915050565b60008151905061092481610ec9565b92915050565b60008151905061093981610ee0565b92915050565b600082601f83011261095057600080fd5b8135610960848260208601610883565b91505092915050565b60008135905061097881610ef0565b92915050565b60006020828403121561099057600080fd5b600061099e848285016108c1565b91505092915050565b6000602082840312156109b957600080fd5b60006109c7848285016108d6565b91505092915050565b600080604083850312156109e357600080fd5b60006109f1858286016108eb565b9250506020610a02858286016108c1565b9150509250929050565b600060208284031215610a1e57600080fd5b6000610a2c84828501610900565b91505092915050565b600060208284031215610a4757600080fd5b6000610a5584828501610915565b91505092915050565b600060208284031215610a7057600080fd5b6000610a7e8482850161092a565b91505092915050565b600060208284031215610a9957600080fd5b600082013567ffffffffffffffff811115610ab357600080fd5b610abf8482850161093f565b91505092915050565b600060208284031215610ada57600080fd5b6000610ae884828501610969565b91505092915050565b610afa81610cc4565b82525050565b610b0981610cd6565b82525050565b610b1881610d42565b82525050565b610b2781610d66565b82525050565b6000610b3882610ca8565b610b428185610cb3565b9350610b52818560208601610d99565b610b5b81610e5c565b840191505092915050565b610b6f81610d38565b82525050565b6000602082019050610b8a6000830184610af1565b92915050565b6000604082019050610ba56000830185610af1565b610bb26020830184610b0f565b9392505050565b6000602082019050610bce6000830184610b00565b92915050565b6000602082019050610be96000830184610b0f565b92915050565b6000602082019050610c046000830184610b1e565b92915050565b60006020820190508181036000830152610c248184610b2d565b905092915050565b6000602082019050610c416000830184610b66565b92915050565b6000604051905081810181811067ffffffffffffffff82111715610c6e57610c6d610e2d565b5b8060405250919050565b600067ffffffffffffffff821115610c9357610c92610e2d565b5b601f19601f8301169050602081019050919050565b600081519050919050565b600082825260208201905092915050565b6000610ccf82610d18565b9050919050565b60008115159050919050565b6000610ced82610cc4565b9050919050565b6000610cff82610cc4565b9050919050565b6000610d1182610cc4565b9050919050565b600073ffffffffffffffffffffffffffffffffffffffff82169050919050565b6000819050919050565b6000610d4d82610d54565b9050919050565b6000610d5f82610d18565b9050919050565b6000610d7182610d78565b9050919050565b6000610d8382610d18565b9050919050565b82818337600083830152505050565b60005b83811015610db7578082015181840152602081019050610d9c565b83811115610dc6576000848401525b50505050565b60006002820490506001821680610de457607f821691505b60208210811415610df857610df7610dfe565b5b50919050565b7f4e487b7100000000000000000000000000000000000000000000000000000000600052602260045260246000fd5b7f4e487b7100000000000000000000000000000000000000000000000000000000600052604160045260246000fd5b6000601f19601f8301169050919050565b610e7681610cc4565b8114610e8157600080fd5b50565b610e8d81610cd6565b8114610e9857600080fd5b50565b610ea481610ce2565b8114610eaf57600080fd5b50565b610ebb81610cf4565b8114610ec657600080fd5b50565b610ed281610d06565b8114610edd57600080fd5b50565b60038110610eed57600080fd5b50565b610ef981610d38565b8114610f0457600080fd5b5056fea2646970667358221220709f4baed9d6bdb6274944b995b146ff3101407e6b6d35c148b5236a224b523164736f6c63430008000033a26469706673582212202054399ab86b8d06166052d2e5a1d2a90a21cb3e103e1cbd4b4138511e63f6de64736f6c63430008000033",
  "immutableReferences": {},
  "source": "// SPDX-License-Identifier: GPL-3.0\npragma solidity >=0.8.0 <0.9.0;\npragma abicoder v2;\nenum Degree {\n    ScholarlyAcademics,\n    PracticeAcademics,\n    ScholarlyPractitioner,\n    InstructionalPractitioner\n}\n\ncontract Certificate {\n    enum State {requested, approved, rejected}\n\n    Faculty public faculty;\n    Institution public institution;\n    Degree public degree;\n    State public status = State.requested;\n    Application application;\n    event Request(address sender);\n    event Reject(address sender);\n    event Approve(address sender);\n\n    constructor(\n        Application _application,\n        Faculty _faculty,\n        Institution _institution,\n        Degree _degree\n    ) {\n        application = _application;\n        faculty = _faculty;\n        institution = _institution;\n        degree = _degree;\n        emit Request(msg.sender);\n    }\n\n    function update(Degree _degree) public payable {\n        if (editable(msg.sender)) {\n            degree = _degree;\n        }\n    }\n\n    function reject() public payable {\n        if (editable(msg.sender)) {\n            status = State.rejected;\n            application.removeCertificate(this);\n            emit Reject(msg.sender);\n        }\n    }\n\n    function approve() public payable {\n        if (editable(msg.sender) && institution.allowed(msg.sender)) {\n            status = State.approved;\n            faculty.addCertificate(this, msg.sender);\n            institution.addCertificate(this, msg.sender);\n            application.removeCertificate(this);\n            emit Approve(msg.sender);\n        }\n    }\n\n    function editable(address _address) public view returns (bool) {\n        return ((status == State.requested &&\n            (institution.allowed(_address))) || faculty.allowed(_address));\n    }\n}\n\ncontract Faculty {\n    uint256 id;\n    string public name;\n    address public owner;\n    Certificate[] public certificates;\n    Institution public currentInstitution;\n    Application application;\n    event CertificateAdded(address assigner, Certificate certificate);\n\n    constructor(\n        Application _application,\n        uint256 _id,\n        string memory _name,\n        address _owner\n    ) {\n        application = _application;\n        name = _name;\n        id = _id;\n        owner = _owner;\n    }\n\n    function update(string memory _name) public payable {\n        if (allowed(msg.sender)) {\n            name = _name;\n        }\n    }\n\n    function assignInstitution(address _institutionAddress) public payable {\n        Institution _institution = Institution(_institutionAddress);\n        if (_institution.allowed(msg.sender)) {\n            currentInstitution = _institution;\n        }\n    }\n\n    function allowed(address _address) public view returns (bool) {\n        return _address == owner;\n    }\n\n    function addCertificate(Certificate _certificate, address _address)\n        public\n        payable\n    {\n        if (\n            _certificate.institution().allowed(_address) &&\n            _certificate.status() == Certificate.State.approved &&\n            _certificate.faculty() == this\n        ) {\n            certificates.push(_certificate);\n            emit CertificateAdded(_address, _certificate);\n        }\n    }\n\n    function certificatesLength() public view returns (uint256) {\n        return certificates.length;\n    }\n}\n\ncontract Institution {\n    struct StaffMember {\n        uint256 id;\n        string name;\n        bool active;\n    }\n\n    uint256 public id;\n    string public name;\n    address public owner;\n\n    Certificate[] certificates;\n    Application application;\n    address[] public allowedModifiers;\n    mapping(address => bool) allowedModifiersMap;\n\n    mapping(uint256 => StaffMember) staffMembers;\n    uint256 nextStaffMembersId = 1;\n\n    mapping(uint256 => Faculty) faculties;\n    uint256 nextFacultyId;\n\n    event Update(address by, string previousName, string newName);\n    event ModifierAdded(address by, address modifierAddress);\n    event ModifierRemoved(address by, address modifierAddress);\n    event StaffMemberAdded(address by, uint256 id);\n    event CertificateAdded(address by, Certificate certificate);\n\n    constructor(\n        Application _application,\n        uint256 _id,\n        string memory _name,\n        address sender\n    ) {\n        application = _application;\n        id = _id;\n        name = _name;\n        owner = sender;\n        allowedModifiers.push(sender);\n        allowedModifiersMap[sender] = true;\n    }\n\n    function update(string memory _name) public payable {\n        if (allowed(msg.sender)) {\n            name = _name;\n        }\n    }\n\n    function staffMember(uint256 _from)\n        public\n        view\n        returns (StaffMember memory)\n    {\n        return staffMembers[_from];\n    }\n\n    function listStaffMembers(uint256 _from, bool skipInactive)\n        public\n        view\n        returns (StaffMember[10] memory)\n    {\n        StaffMember[10] memory list;\n        for (uint256 i = 0; i < 10; i++) {\n            if (nextStaffMembersId < i + _from + 1) {\n                i = 10;\n            } else if (skipInactive && !staffMembers[i + _from + 1].active) {\n                _from++;\n                i--;\n            } else {\n                list[i] = staffMembers[i + _from + 1];\n            }\n        }\n        return list;\n    }\n\n    function staffMembersLength() public view returns (uint256) {\n        return nextStaffMembersId - 1;\n    }\n\n    function createStaffMember(string memory _name) public payable {\n        if (allowed(msg.sender)) {\n            uint256 _nextStaffMemberId = nextStaffMembersId++;\n            StaffMember storage _staffMember = staffMembers[_nextStaffMemberId];\n            _staffMember.id = _nextStaffMemberId;\n            _staffMember.name = _name;\n            _staffMember.active = true;\n            emit StaffMemberAdded(msg.sender, _staffMember.id);\n        }\n    }\n\n    function updateStaffMember(\n        uint256 _staffMemberId,\n        string memory _name,\n        bool _active\n    ) public payable {\n        if (allowed(msg.sender)) {\n            StaffMember storage _staffMember = staffMembers[_staffMemberId];\n            _staffMember.name = _name;\n            _staffMember.active = _active;\n        }\n    }\n\n    function listModifiers(uint256 _from)\n        public\n        view\n        returns (address[10] memory)\n    {\n        address[10] memory list;\n        for (uint256 i = 0; i < 10; i++) {\n            if (i + _from >= allowedModifiers.length) {\n                i = 10;\n            } else {\n                list[i] = allowedModifiers[i + _from];\n            }\n        }\n        return list;\n    }\n\n    function modifiersLength() public view returns (uint256) {\n        return allowedModifiers.length;\n    }\n\n    function addModifier(address _modifier) public payable {\n        if (allowed(msg.sender) && !allowedModifiersMap[_modifier]) {\n            allowedModifiers.push(_modifier);\n            allowedModifiersMap[_modifier] = true;\n            emit ModifierAdded(msg.sender, _modifier);\n        }\n    }\n\n    function removeModifier(address _modifier) public payable {\n        if (allowedToRemove(msg.sender, _modifier)) {\n            for (uint256 i = 0; i < allowedModifiers.length; i++) {\n                if (allowedModifiers[i] == _modifier) {\n                    uint256 _lastIndex = allowedModifiers.length - 1;\n                    if (i < _lastIndex) {\n                        allowedModifiers[i] = allowedModifiers[_lastIndex];\n                    }\n                    allowedModifiers.pop();\n                }\n            }\n            delete allowedModifiersMap[_modifier];\n            emit ModifierRemoved(msg.sender, _modifier);\n        }\n    }\n\n    function allowedToRemove(address _sender, address _toRemove)\n        public\n        view\n        returns (bool)\n    {\n        if (allowed(_sender)) {\n            if (_sender == _toRemove) {\n                return false;\n            } else if (_toRemove == owner) {\n                return false;\n            } else {\n                return true;\n            }\n        } else {\n            return false;\n        }\n    }\n\n    function allowed(address _modifierAddress) public view returns (bool) {\n        return allowed(_modifierAddress, 0);\n    }\n\n    function allowed(address modifierAddress, uint256 index)\n        private\n        view\n        returns (bool)\n    {\n        if (modifierAddress == allowedModifiers[index]) {\n            return true;\n        } else if (index < allowedModifiers.length - 1) {\n            return allowed(modifierAddress, index + 1);\n        } else {\n            return false;\n        }\n    }\n\n    function addCertificate(Certificate _certificate, address _address)\n        public\n        payable\n    {\n        if (\n            allowed(_address) &&\n            _certificate.status() == Certificate.State.approved &&\n            _certificate.institution() == this\n        ) {\n            certificates.push(_certificate);\n            emit CertificateAdded(_address, _certificate);\n        }\n    }\n\n    function issuedCertificates(uint256 _from)\n        public\n        view\n        returns (Certificate[10] memory)\n    {\n        Certificate[10] memory _list;\n        uint256 _count = 0;\n        for (uint256 i = _from; i < certificates.length && _count < 10; i++) {\n            _list[_count] = certificates[i];\n            _count++;\n        }\n        return _list;\n    }\n\n    function issuedCertificatesLength() public view returns (uint256) {\n        return certificates.length;\n    }\n}\n\ncontract Institutions {\n    Application application;\n    mapping(uint256 => Institution) public institutions;\n    uint256 nextInstitutionId = 0;\n    event InstitutionAdded(address by, Institution institution);\n\n    constructor(Application _application) {\n        application = _application;\n    }\n\n    function createInstitution(string memory _name) public payable {\n        uint256 _id = nextInstitutionId++;\n        Institution _institution =\n            new Institution(application, _id, _name, msg.sender);\n        institutions[_id] = _institution;\n        emit InstitutionAdded(msg.sender, (_institution));\n    }\n\n    function listInstitutions(uint256 _from)\n        public\n        view\n        returns (Institution[10] memory)\n    {\n        Institution[10] memory list;\n        for (uint256 i = 0; i < 10; i++) {\n            list[i] = institutions[i + _from];\n        }\n        return list;\n    }\n}\n\ncontract Faculties {\n    Application application;\n    mapping(address => Faculty) public faculties;\n    mapping(uint256 => Faculty) facultiesByIndex;\n    uint256 nextFacultyId = 0;\n    event FacultyAdded(address by, address facultyAddress);\n\n    constructor(Application _application) {\n        application = _application;\n    }\n\n    function createFaculty(string memory _name) public payable {\n        if (address(faculties[msg.sender]) == address(0x0)) {\n            uint256 _id = nextFacultyId++;\n            Faculty faculty = new Faculty(application, _id, _name, msg.sender);\n            facultiesByIndex[_id] = faculty;\n            faculties[msg.sender] = faculty;\n            emit FacultyAdded(msg.sender, address(faculty));\n        }\n    }\n\n    function listFaculties(uint256 _from)\n        public\n        view\n        returns (Faculty[10] memory)\n    {\n        Faculty[10] memory list;\n        for (uint256 i = 0; i < 10; i++) {\n            list[i] = facultiesByIndex[i + _from];\n        }\n        return list;\n    }\n}\n\ncontract Certificates {\n    Certificate[] pendingCertificates;\n    Application application;\n    event CertificateRequested(address by, Certificate certificate);\n    event CertificateRemoved(address by, Certificate certificate);\n\n    constructor(Application _application) {\n        application = _application;\n    }\n\n    function requestCertificate(\n        Faculty _faculty,\n        Institution _institution,\n        Degree _degree\n    ) public payable {\n        Certificate _certificate =\n            new Certificate(application, _faculty, _institution, _degree);\n        pendingCertificates.push(_certificate);\n        emit CertificateRequested(msg.sender, (_certificate));\n    }\n\n    function removeCertificate(Certificate _certificate) public payable {\n        for (uint256 i = 0; i < pendingCertificates.length; i++) {\n            if (pendingCertificates[i] == _certificate) {\n                uint256 _lastIndex = pendingCertificates.length - 1;\n                if (i < _lastIndex) {\n                    pendingCertificates[i] = pendingCertificates[_lastIndex];\n                }\n                pendingCertificates.pop();\n            }\n        }\n        emit CertificateRemoved(msg.sender, (_certificate));\n    }\n\n    function pendingCertificateLengthForFaculty(Faculty _faculty)\n        public\n        view\n        returns (uint256)\n    {\n        uint256 _count = 0;\n        for (uint256 i = 0; i < pendingCertificates.length; i++) {\n            if (pendingCertificates[i].faculty() == _faculty) {\n                _count++;\n            }\n        }\n        return _count;\n    }\n\n    function pendingCertificateForFaculty(Faculty _faculty, uint256 _from)\n        public\n        view\n        returns (Certificate[10] memory)\n    {\n        Certificate[10] memory _list;\n        uint256 _count = 0;\n        uint256 _toSkip = 0;\n        for (\n            uint256 i = 0;\n            i < pendingCertificates.length && _count >= 10;\n            i++\n        ) {\n            if (pendingCertificates[i].faculty() == _faculty) {\n                if (_toSkip >= _from) {\n                    _list[_count] = pendingCertificates[i];\n                    _count++;\n                }\n                _toSkip++;\n            }\n        }\n        return _list;\n    }\n\n    function pendingCertificateLengthForInstitution(Institution _institution)\n        public\n        view\n        returns (uint256)\n    {\n        uint256 _count = 0;\n        for (uint256 i = 0; i < pendingCertificates.length; i++) {\n            if (pendingCertificates[i].institution() == _institution) {\n                _count++;\n            }\n        }\n        return _count;\n    }\n\n    function pendingCertificateForInstitution(\n        Institution _institution,\n        uint256 _from\n    ) public view returns (Certificate[10] memory) {\n        Certificate[10] memory _list;\n        uint256 _count = 0;\n        uint256 _toSkip = 0;\n        for (\n            uint256 i = 0;\n            i < pendingCertificates.length && _count >= 10;\n            i++\n        ) {\n            if (pendingCertificates[i].institution() == _institution) {\n                if (_toSkip >= _from) {\n                    _list[_count] = pendingCertificates[i];\n                    _count++;\n                }\n                _toSkip++;\n            }\n        }\n        return _list;\n    }\n}\n\ncontract Application {\n    /*\n    Application is the root contract that the UI will use to interact with sub contracts \n    */\n    Institutions __institutions;\n    Faculties __faculties;\n    Certificates __certificates;\n\n    constructor() {\n        __institutions = new Institutions(this);\n        __faculties = new Faculties(this);\n        __certificates = new Certificates(this);\n    }\n\n    function faculties(address _address) public view returns (Faculty) {\n        return __faculties.faculties(_address);\n    }\n\n    function institutions(uint256 _address) public view returns (Institution) {\n        return __institutions.institutions(_address);\n    }\n\n    function createInstitution(string memory _name) public payable {\n        __institutions.createInstitution(_name);\n    }\n\n    function listInstitutions(uint256 _from)\n        public\n        view\n        returns (Institution[10] memory)\n    {\n        return __institutions.listInstitutions(_from);\n    }\n\n    function createFaculty(string memory _name) public payable {\n        return __faculties.createFaculty(_name);\n    }\n\n    function listFaculties(uint256 _from)\n        public\n        view\n        returns (Faculty[10] memory)\n    {\n        return __faculties.listFaculties(_from);\n    }\n\n    function requestCertificate(\n        Faculty _faculty,\n        Institution _institution,\n        Degree _degree\n    ) public payable {\n        __certificates.requestCertificate(_faculty, _institution, _degree);\n    }\n\n    function removeCertificate(Certificate _certificate) public payable {\n        __certificates.removeCertificate(_certificate);\n    }\n\n    function pendingCertificateLengthForFaculty(Faculty _faculty)\n        public\n        view\n        returns (uint256)\n    {\n        return __certificates.pendingCertificateLengthForFaculty(_faculty);\n    }\n\n    function pendingCertificateForFaculty(Faculty _faculty, uint256 _from)\n        public\n        view\n        returns (Certificate[10] memory)\n    {\n        return __certificates.pendingCertificateForFaculty(_faculty, _from);\n    }\n\n    function pendingCertificateLengthForInstitution(Institution _institution)\n        public\n        view\n        returns (uint256)\n    {\n        return\n            __certificates.pendingCertificateLengthForInstitution(_institution);\n    }\n\n    function pendingCertificateForInstitution(\n        Institution _institution,\n        uint256 _from\n    ) public view returns (Certificate[10] memory) {\n        return\n            __certificates.pendingCertificateForInstitution(\n                _institution,\n                _from\n            );\n    }\n}\n",
  "sourcePath": "/home/mortadaak/projects/aacsb_accreditiation/contracts/Application.sol",
  "compiler": {
    "name": "solc",
    "version": "0.8.0+commit.c7dfd78e.Emscripten.clang"
  },
  "schemaVersion": "3.3.3",
  "updatedAt": "2021-01-16T17:48:29.804Z",
  "devdoc": {
    "kind": "dev",
    "methods": {},
    "version": 1
  },
  "userdoc": {
    "kind": "user",
    "methods": {},
    "version": 1
  }
}