{
  "contractName": "Faculty",
  "abi": [
    {
      "inputs": [
        {
          "internalType": "contract FacultiesManager",
          "name": "_facultiesManager",
          "type": "address"
        },
        {
          "internalType": "uint256",
          "name": "_id",
          "type": "uint256"
        },
        {
          "internalType": "string",
          "name": "_name",
          "type": "string"
        },
        {
          "internalType": "address",
          "name": "_owner",
          "type": "address"
        }
      ],
      "stateMutability": "nonpayable",
      "type": "constructor"
    },
    {
      "inputs": [
        {
          "internalType": "uint256",
          "name": "",
          "type": "uint256"
        }
      ],
      "name": "certificates",
      "outputs": [
        {
          "internalType": "contract Certificate",
          "name": "",
          "type": "address"
        }
      ],
      "stateMutability": "view",
      "type": "function"
    },
    {
      "inputs": [],
      "name": "currentInstitution",
      "outputs": [
        {
          "internalType": "contract Institution",
          "name": "",
          "type": "address"
        }
      ],
      "stateMutability": "view",
      "type": "function"
    },
    {
      "inputs": [],
      "name": "name",
      "outputs": [
        {
          "internalType": "string",
          "name": "",
          "type": "string"
        }
      ],
      "stateMutability": "view",
      "type": "function"
    },
    {
      "inputs": [],
      "name": "owner",
      "outputs": [
        {
          "internalType": "address",
          "name": "",
          "type": "address"
        }
      ],
      "stateMutability": "view",
      "type": "function"
    },
    {
      "inputs": [
        {
          "internalType": "string",
          "name": "_name",
          "type": "string"
        }
      ],
      "name": "update",
      "outputs": [],
      "stateMutability": "payable",
      "type": "function"
    },
    {
      "inputs": [
        {
          "internalType": "contract Institution",
          "name": "_institution",
          "type": "address"
        }
      ],
      "name": "assignInstitution",
      "outputs": [],
      "stateMutability": "payable",
      "type": "function"
    },
    {
      "inputs": [
        {
          "internalType": "address",
          "name": "_address",
          "type": "address"
        }
      ],
      "name": "allowed",
      "outputs": [
        {
          "internalType": "bool",
          "name": "",
          "type": "bool"
        }
      ],
      "stateMutability": "view",
      "type": "function"
    },
    {
      "inputs": [
        {
          "internalType": "contract Certificate",
          "name": "_certificate",
          "type": "address"
        },
        {
          "internalType": "address",
          "name": "_address",
          "type": "address"
        }
      ],
      "name": "addCertificate",
      "outputs": [],
      "stateMutability": "payable",
      "type": "function"
    },
    {
      "inputs": [],
      "name": "certificatesLength",
      "outputs": [
        {
          "internalType": "uint256",
          "name": "",
          "type": "uint256"
        }
      ],
      "stateMutability": "view",
      "type": "function"
    },
    {
      "inputs": [
        {
          "internalType": "uint256",
          "name": "_from",
          "type": "uint256"
        }
      ],
      "name": "listCertificates",
      "outputs": [
        {
          "internalType": "contract Certificate[10]",
          "name": "",
          "type": "address[10]"
        }
      ],
      "stateMutability": "view",
      "type": "function"
    },
    {
      "inputs": [],
      "name": "pendingCertificatesLength",
      "outputs": [
        {
          "internalType": "uint256",
          "name": "",
          "type": "uint256"
        }
      ],
      "stateMutability": "view",
      "type": "function"
    },
    {
      "inputs": [
        {
          "internalType": "uint256",
          "name": "_from",
          "type": "uint256"
        }
      ],
      "name": "pendingCertificates",
      "outputs": [
        {
          "internalType": "contract Certificate[10]",
          "name": "",
          "type": "address[10]"
        }
      ],
      "stateMutability": "view",
      "type": "function"
    }
  ],
  "bytecode": "0x60806040523480156200001157600080fd5b5060405162001f4d38038062001f4d83398181016040528101906200003791906200023a565b83600560006101000a81548173ffffffffffffffffffffffffffffffffffffffff021916908373ffffffffffffffffffffffffffffffffffffffff160217905550816001908051906020019062000090929190620000e3565b508260008190555080600260006101000a81548173ffffffffffffffffffffffffffffffffffffffff021916908373ffffffffffffffffffffffffffffffffffffffff16021790555050505050620003fe565b828054600181600116156101000203166002900490600052602060002090601f0160209004810192826200011b576000855562000167565b82601f106200013657805160ff191683800117855562000167565b8280016001018555821562000167579182015b828111156200016657825182559160200191906001019062000149565b5b5090506200017691906200017a565b5090565b5b80821115620001955760008160009055506001016200017b565b5090565b600081519050620001aa81620003b0565b92915050565b600081519050620001c181620003ca565b92915050565b600082601f830112620001d957600080fd5b8151620001f0620001ea82620002f3565b620002bf565b915080825260208301602083018583830111156200020d57600080fd5b6200021a83828462000378565b50505092915050565b6000815190506200023481620003e4565b92915050565b600080600080608085870312156200025157600080fd5b60006200026187828801620001b0565b9450506020620002748782880162000223565b935050604085015167ffffffffffffffff8111156200029257600080fd5b620002a087828801620001c7565b9250506060620002b38782880162000199565b91505092959194509250565b6000604051905081810181811067ffffffffffffffff82111715620002e957620002e8620003ae565b5b8060405250919050565b600067ffffffffffffffff821115620003115762000310620003ae565b5b601f19601f8301169050602081019050919050565b600062000333826200034e565b9050919050565b6000620003478262000326565b9050919050565b600073ffffffffffffffffffffffffffffffffffffffff82169050919050565b6000819050919050565b60005b83811015620003985780820151818401526020810190506200037b565b83811115620003a8576000848401525b50505050565bfe5b620003bb8162000326565b8114620003c757600080fd5b50565b620003d5816200033a565b8114620003e157600080fd5b50565b620003ef816200036e565b8114620003fb57600080fd5b50565b611b3f806200040e6000396000f3fe6080604052600436106100a75760003560e01c80638da5cb5b116100645780638da5cb5b146101a2578063ac51fddb146101cd578063ad41b39b1461020a578063d63a8e1114610235578063d90c137e14610272578063e08b2ab61461028e576100a7565b806306fdde03146100ac5780633d7403a3146100d75780634e8ef753146100f35780635822cb311461011e578063663b3e2214610149578063781dd72214610186575b600080fd5b3480156100b857600080fd5b506100c16102cb565b6040516100ce919061170e565b60405180910390f35b6100f160048036038101906100ec919061139e565b610369565b005b3480156100ff57600080fd5b5061010861049c565b60405161011591906116f3565b60405180910390f35b34801561012a57600080fd5b506101336104c2565b60405161014091906117f3565b60405180910390f35b34801561015557600080fd5b50610170600480360381019061016b91906113df565b61066e565b60405161017d9190611694565b60405180910390f35b6101a0600480360381019061019b9190611295565b6106ad565b005b3480156101ae57600080fd5b506101b7610a7d565b6040516101c49190611642565b60405180910390f35b3480156101d957600080fd5b506101f460048036038101906101ef91906113df565b610aa3565b604051610201919061165d565b60405180910390f35b34801561021657600080fd5b5061021f610b65565b60405161022c91906117f3565b60405180910390f35b34801561024157600080fd5b5061025c600480360381019061025791906111f0565b610b72565b6040516102699190611679565b60405180910390f35b61028c60048036038101906102879190611323565b610bcc565b005b34801561029a57600080fd5b506102b560048036038101906102b091906113df565b610da7565b6040516102c2919061165d565b60405180910390f35b60018054600181600116156101000203166002900480601f0160208091040260200160405190810160405280929190818152602001828054600181600116156101000203166002900480156103615780601f1061033657610100808354040283529160200191610361565b820191906000526020600020905b81548152906001019060200180831161034457829003601f168201915b505050505081565b61037233610b72565b1561049957806001908051906020019061038d929190610f5e565b50600560009054906101000a900473ffffffffffffffffffffffffffffffffffffffff1673ffffffffffffffffffffffffffffffffffffffff166326e4ca826040518163ffffffff1660e01b815260040160206040518083038186803b1580156103f657600080fd5b505afa15801561040a573d6000803e3d6000fd5b505050506040513d601f19601f8201168201806040525081019061042e919061126c565b73ffffffffffffffffffffffffffffffffffffffff166363441ab2306040518263ffffffff1660e01b81526004016104669190611730565b600060405180830381600087803b15801561048057600080fd5b505af1158015610494573d6000803e3d6000fd5b505050505b50565b600460009054906101000a900473ffffffffffffffffffffffffffffffffffffffff1681565b6000600560009054906101000a900473ffffffffffffffffffffffffffffffffffffffff1673ffffffffffffffffffffffffffffffffffffffff166326e4ca826040518163ffffffff1660e01b815260040160206040518083038186803b15801561052c57600080fd5b505afa158015610540573d6000803e3d6000fd5b505050506040513d601f19601f82011682018060405250810190610564919061126c565b73ffffffffffffffffffffffffffffffffffffffff1663ff25025b6040518163ffffffff1660e01b815260040160206040518083038186803b1580156105a957600080fd5b505afa1580156105bd573d6000803e3d6000fd5b505050506040513d601f19601f820116820180604052508101906105e191906112d1565b73ffffffffffffffffffffffffffffffffffffffff16639a2393f6306040518263ffffffff1660e01b815260040161061991906116af565b60206040518083038186803b15801561063157600080fd5b505afa158015610645573d6000803e3d6000fd5b505050506040513d601f19601f820116820180604052508101906106699190611408565b905090565b6003818154811061067e57600080fd5b906000526020600020016000915054906101000a900473ffffffffffffffffffffffffffffffffffffffff1681565b8173ffffffffffffffffffffffffffffffffffffffff1663d1384eb66040518163ffffffff1660e01b815260040160206040518083038186803b1580156106f357600080fd5b505afa158015610707573d6000803e3d6000fd5b505050506040513d601f19601f8201168201806040525081019061072b919061134c565b73ffffffffffffffffffffffffffffffffffffffff1663d63a8e11826040518263ffffffff1660e01b81526004016107639190611642565b60206040518083038186803b15801561077b57600080fd5b505afa15801561078f573d6000803e3d6000fd5b505050506040513d601f19601f820116820180604052508101906107b39190611243565b80156108525750600160028111156107c757fe5b8273ffffffffffffffffffffffffffffffffffffffff1663200d2ed26040518163ffffffff1660e01b815260040160206040518083038186803b15801561080d57600080fd5b505afa158015610821573d6000803e3d6000fd5b505050506040513d601f19601f820116820180604052508101906108459190611375565b600281111561085057fe5b145b801561090657503073ffffffffffffffffffffffffffffffffffffffff168273ffffffffffffffffffffffffffffffffffffffff16631080d5f86040518163ffffffff1660e01b815260040160206040518083038186803b1580156108b657600080fd5b505afa1580156108ca573d6000803e3d6000fd5b505050506040513d601f19601f820116820180604052508101906108ee91906112fa565b73ffffffffffffffffffffffffffffffffffffffff16145b15610a79576003829080600181540180825580915050600190039060005260206000200160009091909190916101000a81548173ffffffffffffffffffffffffffffffffffffffff021916908373ffffffffffffffffffffffffffffffffffffffff160217905550600560009054906101000a900473ffffffffffffffffffffffffffffffffffffffff1673ffffffffffffffffffffffffffffffffffffffff166326e4ca826040518163ffffffff1660e01b815260040160206040518083038186803b1580156109d657600080fd5b505afa1580156109ea573d6000803e3d6000fd5b505050506040513d601f19601f82011682018060405250810190610a0e919061126c565b73ffffffffffffffffffffffffffffffffffffffff166363441ab2306040518263ffffffff1660e01b8152600401610a469190611771565b600060405180830381600087803b158015610a6057600080fd5b505af1158015610a74573d6000803e3d6000fd5b505050505b5050565b600260009054906101000a900473ffffffffffffffffffffffffffffffffffffffff1681565b610aab610fec565b610ab3610fec565b60005b600a81108015610acc5750600380549050848201105b15610b5b57600384820181548110610ae057fe5b9060005260206000200160009054906101000a900473ffffffffffffffffffffffffffffffffffffffff168282600a8110610b1757fe5b602002019073ffffffffffffffffffffffffffffffffffffffff16908173ffffffffffffffffffffffffffffffffffffffff16815250508080600101915050610ab6565b5080915050919050565b6000600380549050905090565b6000600260009054906101000a900473ffffffffffffffffffffffffffffffffffffffff1673ffffffffffffffffffffffffffffffffffffffff168273ffffffffffffffffffffffffffffffffffffffff16149050919050565b3373ffffffffffffffffffffffffffffffffffffffff168173ffffffffffffffffffffffffffffffffffffffff161480610c5357503373ffffffffffffffffffffffffffffffffffffffff16600460009054906101000a900473ffffffffffffffffffffffffffffffffffffffff1673ffffffffffffffffffffffffffffffffffffffff16145b15610da45780600460006101000a81548173ffffffffffffffffffffffffffffffffffffffff021916908373ffffffffffffffffffffffffffffffffffffffff160217905550600560009054906101000a900473ffffffffffffffffffffffffffffffffffffffff1673ffffffffffffffffffffffffffffffffffffffff166326e4ca826040518163ffffffff1660e01b815260040160206040518083038186803b158015610d0157600080fd5b505afa158015610d15573d6000803e3d6000fd5b505050506040513d601f19601f82011682018060405250810190610d39919061126c565b73ffffffffffffffffffffffffffffffffffffffff166363441ab2306040518263ffffffff1660e01b8152600401610d7191906117b2565b600060405180830381600087803b158015610d8b57600080fd5b505af1158015610d9f573d6000803e3d6000fd5b505050505b50565b610daf610fec565b600560009054906101000a900473ffffffffffffffffffffffffffffffffffffffff1673ffffffffffffffffffffffffffffffffffffffff166326e4ca826040518163ffffffff1660e01b815260040160206040518083038186803b158015610e1757600080fd5b505afa158015610e2b573d6000803e3d6000fd5b505050506040513d601f19601f82011682018060405250810190610e4f919061126c565b73ffffffffffffffffffffffffffffffffffffffff1663ff25025b6040518163ffffffff1660e01b815260040160206040518083038186803b158015610e9457600080fd5b505afa158015610ea8573d6000803e3d6000fd5b505050506040513d601f19601f82011682018060405250810190610ecc91906112d1565b73ffffffffffffffffffffffffffffffffffffffff1663da60f30d30846040518363ffffffff1660e01b8152600401610f069291906116ca565b6101406040518083038186803b158015610f1f57600080fd5b505afa158015610f33573d6000803e3d6000fd5b505050506040513d601f19601f82011682018060405250810190610f579190611219565b9050919050565b828054600181600116156101000203166002900490600052602060002090601f016020900481019282610f945760008555610fdb565b82601f10610fad57805160ff1916838001178555610fdb565b82800160010185558215610fdb579182015b82811115610fda578251825591602001919060010190610fbf565b5b509050610fe8919061100f565b5090565b604051806101400160405280600a90602082028036833780820191505090505090565b5b80821115611028576000816000905550600101611010565b5090565b60008135905061103b81611a41565b92915050565b600082601f83011261105257600080fd5b600a6110656110608261183f565b61180e565b9150818385602084028201111561107b57600080fd5b60005b838110156110ab578161109188826110f4565b84526020840193506020830192505060018101905061107e565b5050505092915050565b6000815190506110c481611a58565b92915050565b6000815190506110d981611a6f565b92915050565b6000813590506110ee81611a86565b92915050565b60008151905061110381611a86565b92915050565b60008151905061111881611a9d565b92915050565b60008151905061112d81611ab4565b92915050565b60008135905061114281611acb565b92915050565b60008151905061115781611acb565b92915050565b60008151905061116c81611ae2565b92915050565b600082601f83011261118357600080fd5b813561119661119182611865565b61180e565b915080825260208301602083018583830111156111b257600080fd5b6111bd8382846119ec565b50505092915050565b6000813590506111d581611af2565b92915050565b6000815190506111ea81611af2565b92915050565b60006020828403121561120257600080fd5b60006112108482850161102c565b91505092915050565b6000610140828403121561122c57600080fd5b600061123a84828501611041565b91505092915050565b60006020828403121561125557600080fd5b6000611263848285016110b5565b91505092915050565b60006020828403121561127e57600080fd5b600061128c848285016110ca565b91505092915050565b600080604083850312156112a857600080fd5b60006112b6858286016110df565b92505060206112c78582860161102c565b9150509250929050565b6000602082840312156112e357600080fd5b60006112f184828501611109565b91505092915050565b60006020828403121561130c57600080fd5b600061131a8482850161111e565b91505092915050565b60006020828403121561133557600080fd5b600061134384828501611133565b91505092915050565b60006020828403121561135e57600080fd5b600061136c84828501611148565b91505092915050565b60006020828403121561138757600080fd5b60006113958482850161115d565b91505092915050565b6000602082840312156113b057600080fd5b600082013567ffffffffffffffff8111156113ca57600080fd5b6113d684828501611172565b91505092915050565b6000602082840312156113f157600080fd5b60006113ff848285016111c6565b91505092915050565b60006020828403121561141a57600080fd5b6000611428848285016111db565b91505092915050565b600061143d83836114be565b60208301905092915050565b611452816118de565b82525050565b6114618161189f565b61146b81846118c2565b925061147682611895565b8060005b838110156114a757815161148e8782611431565b9650611499836118b5565b92505060018101905061147a565b505050505050565b6114b8816118f0565b82525050565b6114c781611980565b82525050565b6114d681611980565b82525050565b6114e5816119a4565b82525050565b6114f4816119c8565b82525050565b6000611505826118aa565b61150f81856118cd565b935061151f8185602086016119fb565b61152881611a30565b840191505092915050565b6000611540600e836118cd565b91507f5550444154455f464143554c54590000000000000000000000000000000000006000830152602082019050919050565b6000611580600f836118cd565b91507f4144445f434552544946494341544500000000000000000000000000000000006000830152602082019050919050565b60006115c06011836118cd565b91507f41535349474e5f494e5354495455494f4e0000000000000000000000000000006000830152602082019050919050565b60006116006007836118cd565b91507f464143554c5459000000000000000000000000000000000000000000000000006000830152602082019050919050565b61163c81611976565b82525050565b60006020820190506116576000830184611449565b92915050565b6000610140820190506116736000830184611458565b92915050565b600060208201905061168e60008301846114af565b92915050565b60006020820190506116a960008301846114cd565b92915050565b60006020820190506116c460008301846114dc565b92915050565b60006040820190506116df60008301856114dc565b6116ec6020830184611633565b9392505050565b600060208201905061170860008301846114eb565b92915050565b6000602082019050818103600083015261172881846114fa565b905092915050565b6000606082019050818103600083015261174981611533565b9050818103602083015261175c816115f3565b905061176b6040830184611449565b92915050565b6000606082019050818103600083015261178a81611573565b9050818103602083015261179d816115f3565b90506117ac6040830184611449565b92915050565b600060608201905081810360008301526117cb816115b3565b905081810360208301526117de816115f3565b90506117ed6040830184611449565b92915050565b60006020820190506118086000830184611633565b92915050565b6000604051905081810181811067ffffffffffffffff8211171561183557611834611a2e565b5b8060405250919050565b600067ffffffffffffffff82111561185a57611859611a2e565b5b602082029050919050565b600067ffffffffffffffff8211156118805761187f611a2e565b5b601f19601f8301169050602081019050919050565b6000819050919050565b6000600a9050919050565b600081519050919050565b6000602082019050919050565b600081905092915050565b600082825260208201905092915050565b60006118e982611956565b9050919050565b60008115159050919050565b6000611907826118de565b9050919050565b6000611919826118de565b9050919050565b600061192b826118de565b9050919050565b600061193d826118de565b9050919050565b600061194f826118de565b9050919050565b600073ffffffffffffffffffffffffffffffffffffffff82169050919050565b6000819050919050565b600061198b82611992565b9050919050565b600061199d82611956565b9050919050565b60006119af826119b6565b9050919050565b60006119c182611956565b9050919050565b60006119d3826119da565b9050919050565b60006119e582611956565b9050919050565b82818337600083830152505050565b60005b83811015611a195780820151818401526020810190506119fe565b83811115611a28576000848401525b50505050565bfe5b6000601f19601f8301169050919050565b611a4a816118de565b8114611a5557600080fd5b50565b611a61816118f0565b8114611a6c57600080fd5b50565b611a78816118fc565b8114611a8357600080fd5b50565b611a8f8161190e565b8114611a9a57600080fd5b50565b611aa681611920565b8114611ab157600080fd5b50565b611abd81611932565b8114611ac857600080fd5b50565b611ad481611944565b8114611adf57600080fd5b50565b60038110611aef57600080fd5b50565b611afb81611976565b8114611b0657600080fd5b5056fea2646970667358221220299ab0fd1f1ba4c08c872b673e0e8db462e73f8c574d4cef9b730f976bf0d17664736f6c63430007050033",
  "immutableReferences": {},
  "source": "// SPDX-License-Identifier: GPL-3.0\npragma solidity >=0.5.0 <0.8.0;\npragma abicoder v2;\nenum Degree {\n    ScholarlyAcademics,\n    PracticeAcademics,\n    ScholarlyPractitioner,\n    InstructionalPractitioner\n}\n\ncontract Certificate {\n    enum State {requested, approved, rejected}\n\n    Faculty public faculty;\n    Institution public institution;\n    Degree public degree;\n    State public status = State.requested;\n    CertificatesManager certificatesManager;\n\n    constructor(\n        CertificatesManager _certificatesManager,\n        Faculty _faculty,\n        Institution _institution,\n        Degree _degree\n    ) {\n        certificatesManager = _certificatesManager;\n        faculty = _faculty;\n        institution = _institution;\n        degree = _degree;\n    }\n\n    function reject() public payable {\n        if (editable(msg.sender)) {\n            status = State.rejected;\n            certificatesManager\n                .application()\n                .certificatesManager()\n                .removeCertificate(this);\n            certificatesManager.application().emitEvent(\n                \"REJEcT_CERTIFICATE\",\n                \"CERTIFICATE\",\n                address(this)\n            );\n        }\n    }\n\n    function approve() public payable {\n        if (editable(msg.sender) && institution.allowed(msg.sender)) {\n            status = State.approved;\n            faculty.addCertificate(this, msg.sender);\n            institution.addCertificate(this, msg.sender);\n            certificatesManager\n                .application()\n                .certificatesManager()\n                .removeCertificate(this);\n            certificatesManager.application().emitEvent(\n                \"APPROVE_CERTIFICATE\",\n                \"CERTIFICATE\",\n                address(this)\n            );\n        }\n    }\n\n    function editable(address _address) public view returns (bool) {\n        return status == State.requested && institution.allowed(_address);\n    }\n}\n\ncontract Faculty {\n    uint256 id;\n    string public name;\n    address public owner;\n    Certificate[] public certificates;\n    Institution public currentInstitution;\n    FacultiesManager facultiesManager;\n\n    constructor(\n        FacultiesManager _facultiesManager,\n        uint256 _id,\n        string memory _name,\n        address _owner\n    ) {\n        facultiesManager = _facultiesManager;\n        name = _name;\n        id = _id;\n        owner = _owner;\n    }\n\n    function update(string memory _name) public payable {\n        if (allowed(msg.sender)) {\n            name = _name;\n            facultiesManager.application().emitEvent(\n                \"UPDATE_FACULTY\",\n                \"FACULTY\",\n                address(this)\n            );\n        }\n    }\n\n    function assignInstitution(Institution _institution) public payable {\n        if (\n            address(_institution) == msg.sender ||\n            address(currentInstitution) == msg.sender\n        ) {\n            currentInstitution = _institution;\n            facultiesManager.application().emitEvent(\n                \"ASSIGN_INSTITUION\",\n                \"FACULTY\",\n                address(this)\n            );\n        }\n    }\n\n    function allowed(address _address) public view returns (bool) {\n        return _address == owner;\n    }\n\n    function addCertificate(Certificate _certificate, address _address)\n        public\n        payable\n    {\n        if (\n            _certificate.institution().allowed(_address) &&\n            _certificate.status() == Certificate.State.approved &&\n            _certificate.faculty() == this\n        ) {\n            certificates.push(_certificate);\n            facultiesManager.application().emitEvent(\n                \"ADD_CERTIFICATE\",\n                \"FACULTY\",\n                address(this)\n            );\n        }\n    }\n\n    function certificatesLength() public view returns (uint256) {\n        return certificates.length;\n    }\n\n    function listCertificates(uint256 _from)\n        public\n        view\n        returns (Certificate[10] memory)\n    {\n        Certificate[10] memory list;\n        for (uint256 i = 0; i < 10 && i + _from < certificates.length; i++) {\n            list[i] = certificates[i + _from];\n        }\n        return list;\n    }\n\n    function pendingCertificatesLength() public view returns (uint256) {\n        return\n            facultiesManager\n                .application()\n                .certificatesManager()\n                .pendingCertificateLengthForFaculty(this);\n    }\n\n    function pendingCertificates(uint256 _from)\n        public\n        view\n        returns (Certificate[10] memory)\n    {\n        return\n            facultiesManager\n                .application()\n                .certificatesManager()\n                .pendingCertificateForFaculty(this, _from);\n    }\n}\n\ncontract Institution {\n    struct StaffMember {\n        uint256 id;\n        string name;\n        bool active;\n    }\n\n    uint256 public id;\n    string public name;\n    address public owner;\n\n    Certificate[] certificates;\n    InstituionsManager instituionsManager;\n    address[] public allowedModifiers;\n    mapping(address => bool) allowedModifiersMap;\n\n    mapping(uint256 => StaffMember) staffMembers;\n    uint256 nextStaffMembersId = 1;\n\n    Faculty[] faculties;\n    mapping(Faculty => bool) facultiesMap;\n\n    constructor(\n        InstituionsManager _instituionsManager,\n        uint256 _id,\n        string memory _name,\n        address sender\n    ) {\n        instituionsManager = _instituionsManager;\n        id = _id;\n        name = _name;\n        owner = sender;\n        allowedModifiers.push(sender);\n        allowedModifiersMap[sender] = true;\n    }\n\n    function update(string memory _name) public payable {\n        if (allowed(msg.sender)) {\n            name = _name;\n        }\n    }\n\n    function staffMember(uint256 _from)\n        public\n        view\n        returns (StaffMember memory)\n    {\n        return staffMembers[_from];\n    }\n\n    function listStaffMembers(uint256 _from, bool skipInactive)\n        public\n        view\n        returns (StaffMember[10] memory)\n    {\n        StaffMember[10] memory list;\n        for (uint256 i = 0; i < 10 && nextStaffMembersId < i + _from + 1; i++) {\n            if (skipInactive && !staffMembers[i + _from + 1].active) {\n                _from++;\n                i--;\n            } else {\n                list[i] = staffMembers[i + _from + 1];\n            }\n        }\n        return list;\n    }\n\n    function staffMembersLength() public view returns (uint256) {\n        return nextStaffMembersId - 1;\n    }\n\n    function createStaffMember(string memory _name) public payable {\n        if (allowed(msg.sender)) {\n            uint256 _nextStaffMemberId = nextStaffMembersId++;\n            StaffMember storage _staffMember = staffMembers[_nextStaffMemberId];\n            _staffMember.id = _nextStaffMemberId;\n            _staffMember.name = _name;\n            _staffMember.active = true;\n            instituionsManager.application().emitEvent(\n                \"ADD_STAFF_MEMBER_INSTITUTION\",\n                \"INSTITUTION\",\n                address(this)\n            );\n        }\n    }\n\n    function updateStaffMember(\n        uint256 _staffMemberId,\n        string memory _name,\n        bool _active\n    ) public payable {\n        if (allowed(msg.sender)) {\n            StaffMember storage _staffMember = staffMembers[_staffMemberId];\n            _staffMember.name = _name;\n            _staffMember.active = _active;\n            instituionsManager.application().emitEvent(\n                \"UPDATE_STAFF_MEMBER_INSTITUTION\",\n                \"INSTITUTION\",\n                address(this)\n            );\n        }\n    }\n\n    function listModifiers(uint256 _from)\n        public\n        view\n        returns (address[10] memory)\n    {\n        address[10] memory list;\n        for (\n            uint256 i = 0;\n            i < 10 && i + _from < allowedModifiers.length;\n            i++\n        ) {\n            list[i] = allowedModifiers[i + _from];\n        }\n        return list;\n    }\n\n    function modifiersLength() public view returns (uint256) {\n        return allowedModifiers.length;\n    }\n\n    function addModifier(address _modifier) public payable {\n        if (allowed(msg.sender) && !allowedModifiersMap[_modifier]) {\n            allowedModifiers.push(_modifier);\n            allowedModifiersMap[_modifier] = true;\n            instituionsManager.application().emitEvent(\n                \"ADD_MODIFIER_INSTITUTION\",\n                \"INSTITUTION\",\n                address(this)\n            );\n        }\n    }\n\n    function removeModifier(address _modifier) public payable {\n        if (allowedToRemove(msg.sender, _modifier)) {\n            for (uint256 i = 0; i < allowedModifiers.length; i++) {\n                if (allowedModifiers[i] == _modifier) {\n                    uint256 _lastIndex = allowedModifiers.length - 1;\n                    if (i < _lastIndex) {\n                        allowedModifiers[i] = allowedModifiers[_lastIndex];\n                    }\n                    allowedModifiers.pop();\n                }\n            }\n            delete allowedModifiersMap[_modifier];\n            instituionsManager.application().emitEvent(\n                \"REMOVE_MODIFIER_INSTITUTION\",\n                \"INSTITUTION\",\n                address(this)\n            );\n        }\n    }\n\n    function allowedToRemove(address _sender, address _toRemove)\n        public\n        view\n        returns (bool)\n    {\n        if (allowed(_sender)) {\n            if (_sender == _toRemove) {\n                return false;\n            } else if (_toRemove == owner) {\n                return false;\n            } else {\n                return true;\n            }\n        } else {\n            return false;\n        }\n    }\n\n    function allowed(address _modifierAddress) public view returns (bool) {\n        return allowed(_modifierAddress, 0);\n    }\n\n    function allowed(address modifierAddress, uint256 index)\n        private\n        view\n        returns (bool)\n    {\n        if (modifierAddress == allowedModifiers[index]) {\n            return true;\n        } else if (index < allowedModifiers.length - 1) {\n            return allowed(modifierAddress, index + 1);\n        } else {\n            return false;\n        }\n    }\n\n    function addCertificate(Certificate _certificate, address _address)\n        public\n        payable\n    {\n        if (\n            allowed(_address) &&\n            _certificate.status() == Certificate.State.approved &&\n            _certificate.institution() == this\n        ) {\n            certificates.push(_certificate);\n            instituionsManager.application().emitEvent(\n                \"ADD_CERTIFICATE_INSTITUTION\",\n                \"INSTITUTION\",\n                address(this)\n            );\n        }\n    }\n\n    function issuedCertificates(uint256 _from)\n        public\n        view\n        returns (Certificate[10] memory)\n    {\n        Certificate[10] memory _list;\n        uint256 _count = 0;\n        for (uint256 i = _from; i < certificates.length && _count < 10; i++) {\n            _list[_count] = certificates[i];\n            _count++;\n        }\n        return _list;\n    }\n\n    function issuedCertificatesLength() public view returns (uint256) {\n        return certificates.length;\n    }\n\n    function pendingCertificatesLength() public view returns (uint256) {\n        return\n            instituionsManager\n                .application()\n                .certificatesManager()\n                .pendingCertificateLengthForInstitution(this);\n    }\n\n    function pendingCertificates(uint256 _from)\n        public\n        view\n        returns (Certificate[10] memory)\n    {\n        return\n            instituionsManager\n                .application()\n                .certificatesManager()\n                .pendingCertificateForInstitution(this, _from);\n    }\n\n    function listFaculties(uint256 _from)\n        public\n        view\n        returns (Faculty[10] memory)\n    {\n        Faculty[10] memory list;\n        for (uint256 i = 0; i < 10 && i + _from < faculties.length; i++) {\n            list[i] = faculties[i + _from];\n        }\n        return list;\n    }\n\n    function facultiesLength() public view returns (uint256) {\n        return faculties.length;\n    }\n\n    function addFaculty(Faculty _faculty) public payable {\n        if (\n            allowed(msg.sender) &&\n            _faculty.currentInstitution() == Institution(0) &&\n            !facultiesMap[_faculty]\n        ) {\n            faculties.push(_faculty);\n            facultiesMap[_faculty] = true;\n            _faculty.assignInstitution(this);\n            instituionsManager.application().emitEvent(\n                \"ADD_FACULTY_INSTITUTION\",\n                \"INSTITUTION\",\n                address(this)\n            );\n        }\n    }\n\n    function removeFaculty(Faculty _faculty) public payable {\n        if (allowed(msg.sender) && _faculty.currentInstitution() == this) {\n            for (uint256 i = 0; i < faculties.length; i++) {\n                if (faculties[i] == _faculty) {\n                    uint256 _lastIndex = faculties.length - 1;\n                    if (i < _lastIndex) {\n                        faculties[i] = faculties[_lastIndex];\n                    }\n                    faculties.pop();\n                }\n            }\n            delete facultiesMap[_faculty];\n            _faculty.assignInstitution(Institution(0));\n            instituionsManager.application().emitEvent(\n                \"REMOVE_FACULTY_INSTITUTION\",\n                \"INSTITUTION\",\n                address(this)\n            );\n        }\n    }\n}\n\ncontract CertificatesManager {\n    Certificate[] pendingCertificates;\n    Application public application;\n\n    constructor(Application _application) {\n        application = _application;\n    }\n\n    function requestCertificate(\n        Faculty _faculty,\n        Institution _institution,\n        Degree _degree\n    ) public payable {\n        Certificate _certificate =\n            new Certificate(this, _faculty, _institution, _degree);\n        pendingCertificates.push(_certificate);\n        application.emitEvent(\n            \"REQUEST_CERTIFICATE\",\n            \"INSTITUTION\",\n            address(_institution)\n        );\n        application.emitEvent(\n            \"REQUEST_CERTIFICATE\",\n            \"FACULTY\",\n            address(_faculty)\n        );\n    }\n\n    function removeCertificate(Certificate _certificate) public payable {\n        for (uint256 i = 0; i < pendingCertificates.length; i++) {\n            if (pendingCertificates[i] == _certificate) {\n                uint256 _lastIndex = pendingCertificates.length - 1;\n                if (i < _lastIndex) {\n                    pendingCertificates[i] = pendingCertificates[_lastIndex];\n                }\n                pendingCertificates.pop();\n            }\n        }\n        application.emitEvent(\n            \"CERTIFICATE_REMOVE\",\n            \"INSTITUTION\",\n            address(_certificate.institution())\n        );\n        application.emitEvent(\n            \"CERTIFICATE_REMOVE\",\n            \"FACULTY\",\n            address(_certificate.faculty())\n        );\n    }\n\n    function pendingCertificateLengthForFaculty(Faculty _faculty)\n        public\n        view\n        returns (uint256)\n    {\n        uint256 _count = 0;\n        for (uint256 i = 0; i < pendingCertificates.length; i++) {\n            if (pendingCertificates[i].faculty() == _faculty) {\n                _count++;\n            }\n        }\n        return _count;\n    }\n\n    function pendingCertificateForFaculty(Faculty _faculty, uint256 _from)\n        public\n        view\n        returns (Certificate[10] memory)\n    {\n        Certificate[10] memory _list;\n        uint256 _count = 0;\n        uint256 _toSkip = 0;\n        for (\n            uint256 i = 0;\n            i < pendingCertificates.length && _count <= 10;\n            i++\n        ) {\n            if (pendingCertificates[i].faculty() == _faculty) {\n                if (_toSkip >= _from) {\n                    _list[_count] = pendingCertificates[i];\n                    _count++;\n                }\n                _toSkip++;\n            }\n        }\n        return _list;\n    }\n\n    function pendingCertificateLengthForInstitution(Institution _institution)\n        public\n        view\n        returns (uint256)\n    {\n        uint256 _count = 0;\n        for (uint256 i = 0; i < pendingCertificates.length; i++) {\n            if (pendingCertificates[i].institution() == _institution) {\n                _count++;\n            }\n        }\n        return _count;\n    }\n\n    function pendingCertificateForInstitution(\n        Institution _institution,\n        uint256 _from\n    ) public view returns (Certificate[10] memory) {\n        Certificate[10] memory _list;\n        uint256 _count = 0;\n        uint256 _toSkip = 0;\n        for (\n            uint256 i = 0;\n            i < pendingCertificates.length && _count <= 10;\n            i++\n        ) {\n            if (pendingCertificates[i].institution() == _institution) {\n                if (_toSkip >= _from) {\n                    _list[_count] = pendingCertificates[i];\n                    _count++;\n                }\n                _toSkip++;\n            }\n        }\n        return _list;\n    }\n}\n\ncontract FacultiesManager {\n    Application public application;\n    mapping(address => Faculty) public faculties;\n    mapping(uint256 => Faculty) facultiesByIndex;\n    uint256 nextFacultyId = 0;\n\n    constructor(Application _application) {\n        application = _application;\n    }\n\n    function facultiesLength() public view returns (uint256) {\n        return nextFacultyId;\n    }\n\n    function createFaculty(string memory _name) public payable {\n        if (address(faculties[msg.sender]) == address(0x0)) {\n            uint256 _id = nextFacultyId++;\n            Faculty faculty = new Faculty(this, _id, _name, msg.sender);\n            facultiesByIndex[_id] = faculty;\n            faculties[msg.sender] = faculty;\n            application.emitEvent(\n                \"CREATE_FACULTY\",\n                \"FACULTY\",\n                address(faculty)\n            );\n        }\n    }\n\n    function listFaculties(uint256 _from)\n        public\n        view\n        returns (Faculty[10] memory)\n    {\n        Faculty[10] memory list;\n        for (uint256 i = 0; i < 10; i++) {\n            list[i] = facultiesByIndex[i + _from];\n        }\n        return list;\n    }\n}\n\ncontract InstituionsManager {\n    Application public application;\n    mapping(uint256 => Institution) public institutions;\n    uint256 nextInstitutionId = 0;\n\n    constructor(Application _application) {\n        application = _application;\n    }\n\n    function institutionsLength() public view returns (uint256) {\n        return nextInstitutionId;\n    }\n\n    function createInstitution(string memory _name) public payable {\n        uint256 _id = nextInstitutionId++;\n        Institution _institution =\n            new Institution(this, _id, _name, msg.sender);\n        institutions[_id] = _institution;\n        application.emitEvent(\n            \"CREATE_INSTITUTION\",\n            \"INSTITUTION\",\n            address(_institution)\n        );\n    }\n\n    function listInstitutions(uint256 _from)\n        public\n        view\n        returns (Institution[10] memory)\n    {\n        Institution[10] memory list;\n        for (uint256 i = 0; i < 10; i++) {\n            list[i] = institutions[i + _from];\n        }\n        return list;\n    }\n}\n\ncontract Application {\n    /*\n    Application is the root contract that the UI will use to interact with sub contracts \n    */\n    CertificatesManager public certificatesManager;\n    FacultiesManager public facultiesManager;\n    InstituionsManager public instituionsManager;\n    event ApplicationEvent(\n        string eventType,\n        string targetType,\n        address targetAddress\n    );\n\n    constructor() {\n        certificatesManager = new CertificatesManager(this);\n        facultiesManager = new FacultiesManager(this);\n        instituionsManager = new InstituionsManager(this);\n    }\n\n    function emitEvent(\n        string memory eventType,\n        string memory targetType,\n        address targetAddress\n    ) public payable {\n        emit ApplicationEvent(eventType, targetType, targetAddress);\n    }\n}\n",
  "sourcePath": "/home/mortadaak/projects/aacsb_accreditiation/contracts/Application.sol",
  "compiler": {
    "name": "solc",
    "version": "0.7.5+commit.eb77ed08.Emscripten.clang"
  },
  "schemaVersion": "3.3.3",
  "updatedAt": "2021-02-01T09:45:57.142Z",
  "devdoc": {
    "kind": "dev",
    "methods": {},
    "version": 1
  },
  "userdoc": {
    "kind": "user",
    "methods": {},
    "version": 1
  }
}