{
  "contractName": "FacultiesManager",
  "abi": [
    {
      "inputs": [
        {
          "internalType": "contract Application",
          "name": "_application",
          "type": "address"
        }
      ],
      "stateMutability": "nonpayable",
      "type": "constructor"
    },
    {
      "inputs": [],
      "name": "application",
      "outputs": [
        {
          "internalType": "contract Application",
          "name": "",
          "type": "address"
        }
      ],
      "stateMutability": "view",
      "type": "function"
    },
    {
      "inputs": [
        {
          "internalType": "address",
          "name": "",
          "type": "address"
        }
      ],
      "name": "faculties",
      "outputs": [
        {
          "internalType": "contract Faculty",
          "name": "",
          "type": "address"
        }
      ],
      "stateMutability": "view",
      "type": "function"
    },
    {
      "inputs": [],
      "name": "facultiesLength",
      "outputs": [
        {
          "internalType": "uint256",
          "name": "",
          "type": "uint256"
        }
      ],
      "stateMutability": "view",
      "type": "function"
    },
    {
      "inputs": [
        {
          "internalType": "string",
          "name": "_name",
          "type": "string"
        }
      ],
      "name": "createFaculty",
      "outputs": [],
      "stateMutability": "payable",
      "type": "function"
    },
    {
      "inputs": [
        {
          "internalType": "uint256",
          "name": "_from",
          "type": "uint256"
        }
      ],
      "name": "listFaculties",
      "outputs": [
        {
          "internalType": "contract Faculty[10]",
          "name": "",
          "type": "address[10]"
        }
      ],
      "stateMutability": "view",
      "type": "function"
    }
  ],
  "bytecode": "0x6080604052600060035534801561001557600080fd5b50604051612a59380380612a5983398181016040528101906100379190610092565b806000806101000a81548173ffffffffffffffffffffffffffffffffffffffff021916908373ffffffffffffffffffffffffffffffffffffffff16021790555050610116565b60008151905061008c816100ff565b92915050565b6000602082840312156100a457600080fd5b60006100b28482850161007d565b91505092915050565b60006100c6826100df565b9050919050565b60006100d8826100bb565b9050919050565b600073ffffffffffffffffffffffffffffffffffffffff82169050919050565b610108816100cd565b811461011357600080fd5b50565b612934806101256000396000f3fe608060405260043610620000505760003560e01c806326e4ca8214620000555780633269389a146200008557806381a0677714620000b5578063b5fdf25214620000d5578063ee84ab761462000119575b600080fd5b3480156200006257600080fd5b506200006d6200015d565b6040516200007c9190620007f2565b60405180910390f35b3480156200009257600080fd5b506200009d62000181565b604051620000ac9190620008c7565b60405180910390f35b620000d36004803603810190620000cd9190620005aa565b6200018b565b005b348015620000e257600080fd5b50620001016004803603810190620000fb91906200057e565b620003dd565b60405162000110919062000863565b60405180910390f35b3480156200012657600080fd5b506200014560048036038101906200013f9190620005ef565b62000410565b604051620001549190620007d4565b60405180910390f35b60008054906101000a900473ffffffffffffffffffffffffffffffffffffffff1681565b6000600354905090565b600073ffffffffffffffffffffffffffffffffffffffff16600160003373ffffffffffffffffffffffffffffffffffffffff1673ffffffffffffffffffffffffffffffffffffffff16815260200190815260200160002060009054906101000a900473ffffffffffffffffffffffffffffffffffffffff1673ffffffffffffffffffffffffffffffffffffffff161415620003da576000600360008154809291906001019190505590506000308284336040516200024990620004c3565b6200025894939291906200080f565b604051809103906000f08015801562000275573d6000803e3d6000fd5b509050806002600084815260200190815260200160002060006101000a81548173ffffffffffffffffffffffffffffffffffffffff021916908373ffffffffffffffffffffffffffffffffffffffff16021790555080600160003373ffffffffffffffffffffffffffffffffffffffff1673ffffffffffffffffffffffffffffffffffffffff16815260200190815260200160002060006101000a81548173ffffffffffffffffffffffffffffffffffffffff021916908373ffffffffffffffffffffffffffffffffffffffff16021790555060008054906101000a900473ffffffffffffffffffffffffffffffffffffffff1673ffffffffffffffffffffffffffffffffffffffff166363441ab2826040518263ffffffff1660e01b8152600401620003a3919062000880565b600060405180830381600087803b158015620003be57600080fd5b505af1158015620003d3573d6000803e3d6000fd5b5050505050505b50565b60016020528060005260406000206000915054906101000a900473ffffffffffffffffffffffffffffffffffffffff1681565b6200041a620004d1565b62000424620004d1565b60005b600a811015620004b95760026000858301815260200190815260200160002060009054906101000a900473ffffffffffffffffffffffffffffffffffffffff168282600a81106200047457fe5b602002019073ffffffffffffffffffffffffffffffffffffffff16908173ffffffffffffffffffffffffffffffffffffffff1681525050808060010191505062000427565b5080915050919050565b611dec8062000b1383390190565b604051806101400160405280600a90602082028036833780820191505090505090565b600081359050620005058162000ade565b92915050565b600082601f8301126200051d57600080fd5b8135620005346200052e8262000918565b620008e4565b915080825260208301602083018583830111156200055157600080fd5b6200055e83828462000a86565b50505092915050565b600081359050620005788162000af8565b92915050565b6000602082840312156200059157600080fd5b6000620005a184828501620004f4565b91505092915050565b600060208284031215620005bd57600080fd5b600082013567ffffffffffffffff811115620005d857600080fd5b620005e6848285016200050b565b91505092915050565b6000602082840312156200060257600080fd5b6000620006128482850162000567565b91505092915050565b6000620006298383620006dc565b60208301905092915050565b6200064081620009d2565b82525050565b620006518162000994565b82525050565b620006628162000955565b6200066e818462000978565b92506200067b826200094b565b8060005b83811015620006b25781516200069687826200061b565b9650620006a3836200096b565b9250506001810190506200067f565b505050505050565b620006c581620009e6565b82525050565b620006d68162000a0e565b82525050565b620006e78162000a36565b82525050565b620006f88162000a36565b82525050565b60006200070b8262000960565b62000717818562000983565b93506200072981856020860162000a95565b620007348162000acd565b840191505092915050565b60006200074e600e8362000983565b91507f4352454154455f464143554c54590000000000000000000000000000000000006000830152602082019050919050565b60006200079060078362000983565b91507f464143554c5459000000000000000000000000000000000000000000000000006000830152602082019050919050565b620007ce81620009c8565b82525050565b600061014082019050620007ec600083018462000657565b92915050565b6000602082019050620008096000830184620006ba565b92915050565b6000608082019050620008266000830187620006cb565b620008356020830186620007c3565b8181036040830152620008498185620006fe565b90506200085a606083018462000635565b95945050505050565b60006020820190506200087a6000830184620006ed565b92915050565b600060608201905081810360008301526200089b816200073f565b90508181036020830152620008b08162000781565b9050620008c1604083018462000646565b92915050565b6000602082019050620008de6000830184620007c3565b92915050565b6000604051905081810181811067ffffffffffffffff821117156200090e576200090d62000acb565b5b8060405250919050565b600067ffffffffffffffff82111562000936576200093562000acb565b5b601f19601f8301169050602081019050919050565b6000819050919050565b6000600a9050919050565b600081519050919050565b6000602082019050919050565b600081905092915050565b600082825260208201905092915050565b6000620009a182620009a8565b9050919050565b600073ffffffffffffffffffffffffffffffffffffffff82169050919050565b6000819050919050565b6000620009df8262000a5e565b9050919050565b6000620009f382620009fa565b9050919050565b600062000a0782620009a8565b9050919050565b600062000a1b8262000a22565b9050919050565b600062000a2f82620009a8565b9050919050565b600062000a438262000a4a565b9050919050565b600062000a5782620009a8565b9050919050565b600062000a6b8262000a72565b9050919050565b600062000a7f82620009a8565b9050919050565b82818337600083830152505050565b60005b8381101562000ab557808201518184015260208101905062000a98565b8381111562000ac5576000848401525b50505050565bfe5b6000601f19601f8301169050919050565b62000ae98162000994565b811462000af557600080fd5b50565b62000b0381620009c8565b811462000b0f57600080fd5b5056fe60806040523480156200001157600080fd5b5060405162001dec38038062001dec83398181016040528101906200003791906200023a565b83600560006101000a81548173ffffffffffffffffffffffffffffffffffffffff021916908373ffffffffffffffffffffffffffffffffffffffff160217905550816001908051906020019062000090929190620000e3565b508260008190555080600260006101000a81548173ffffffffffffffffffffffffffffffffffffffff021916908373ffffffffffffffffffffffffffffffffffffffff16021790555050505050620003fe565b828054600181600116156101000203166002900490600052602060002090601f0160209004810192826200011b576000855562000167565b82601f106200013657805160ff191683800117855562000167565b8280016001018555821562000167579182015b828111156200016657825182559160200191906001019062000149565b5b5090506200017691906200017a565b5090565b5b80821115620001955760008160009055506001016200017b565b5090565b600081519050620001aa81620003b0565b92915050565b600081519050620001c181620003ca565b92915050565b600082601f830112620001d957600080fd5b8151620001f0620001ea82620002f3565b620002bf565b915080825260208301602083018583830111156200020d57600080fd5b6200021a83828462000378565b50505092915050565b6000815190506200023481620003e4565b92915050565b600080600080608085870312156200025157600080fd5b60006200026187828801620001b0565b9450506020620002748782880162000223565b935050604085015167ffffffffffffffff8111156200029257600080fd5b620002a087828801620001c7565b9250506060620002b38782880162000199565b91505092959194509250565b6000604051905081810181811067ffffffffffffffff82111715620002e957620002e8620003ae565b5b8060405250919050565b600067ffffffffffffffff821115620003115762000310620003ae565b5b601f19601f8301169050602081019050919050565b600062000333826200034e565b9050919050565b6000620003478262000326565b9050919050565b600073ffffffffffffffffffffffffffffffffffffffff82169050919050565b6000819050919050565b60005b83811015620003985780820151818401526020810190506200037b565b83811115620003a8576000848401525b50505050565bfe5b620003bb8162000326565b8114620003c757600080fd5b50565b620003d5816200033a565b8114620003e157600080fd5b50565b620003ef816200036e565b8114620003fb57600080fd5b50565b6119de806200040e6000396000f3fe6080604052600436106100a75760003560e01c80638da5cb5b116100645780638da5cb5b146101a2578063ac51fddb146101cd578063ad41b39b1461020a578063d63a8e1114610235578063d90c137e14610272578063e08b2ab61461028e576100a7565b806306fdde03146100ac5780633d7403a3146100d75780634e8ef753146100f35780635822cb311461011e578063663b3e2214610149578063781dd72214610186575b600080fd5b3480156100b857600080fd5b506100c16102cb565b6040516100ce91906115b8565b60405180910390f35b6100f160048036038101906100ec919061125e565b610369565b005b3480156100ff57600080fd5b5061010861049c565b604051610115919061159d565b60405180910390f35b34801561012a57600080fd5b506101336104c2565b604051610140919061165c565b60405180910390f35b34801561015557600080fd5b50610170600480360381019061016b919061129f565b61066e565b60405161017d919061153e565b60405180910390f35b6101a0600480360381019061019b919061117e565b6106ad565b005b3480156101ae57600080fd5b506101b7610a7d565b6040516101c491906114d1565b60405180910390f35b3480156101d957600080fd5b506101f460048036038101906101ef919061129f565b610aa3565b6040516102019190611507565b60405180910390f35b34801561021657600080fd5b5061021f610b65565b60405161022c919061165c565b60405180910390f35b34801561024157600080fd5b5061025c600480360381019061025791906110d9565b610b72565b6040516102699190611523565b60405180910390f35b61028c600480360381019061028791906110d9565b610bcc565b005b34801561029a57600080fd5b506102b560048036038101906102b0919061129f565b610ca5565b6040516102c29190611507565b60405180910390f35b60018054600181600116156101000203166002900480601f0160208091040260200160405190810160405280929190818152602001828054600181600116156101000203166002900480156103615780601f1061033657610100808354040283529160200191610361565b820191906000526020600020905b81548152906001019060200180831161034457829003601f168201915b505050505081565b61037233610b72565b1561049957806001908051906020019061038d929190610e5c565b50600560009054906101000a900473ffffffffffffffffffffffffffffffffffffffff1673ffffffffffffffffffffffffffffffffffffffff166326e4ca826040518163ffffffff1660e01b815260040160206040518083038186803b1580156103f657600080fd5b505afa15801561040a573d6000803e3d6000fd5b505050506040513d601f19601f8201168201806040525081019061042e9190611155565b73ffffffffffffffffffffffffffffffffffffffff166363441ab2306040518263ffffffff1660e01b815260040161046691906115da565b600060405180830381600087803b15801561048057600080fd5b505af1158015610494573d6000803e3d6000fd5b505050505b50565b600460009054906101000a900473ffffffffffffffffffffffffffffffffffffffff1681565b6000600560009054906101000a900473ffffffffffffffffffffffffffffffffffffffff1673ffffffffffffffffffffffffffffffffffffffff166326e4ca826040518163ffffffff1660e01b815260040160206040518083038186803b15801561052c57600080fd5b505afa158015610540573d6000803e3d6000fd5b505050506040513d601f19601f820116820180604052508101906105649190611155565b73ffffffffffffffffffffffffffffffffffffffff1663ff25025b6040518163ffffffff1660e01b815260040160206040518083038186803b1580156105a957600080fd5b505afa1580156105bd573d6000803e3d6000fd5b505050506040513d601f19601f820116820180604052508101906105e191906111ba565b73ffffffffffffffffffffffffffffffffffffffff16639a2393f6306040518263ffffffff1660e01b81526004016106199190611559565b60206040518083038186803b15801561063157600080fd5b505afa158015610645573d6000803e3d6000fd5b505050506040513d601f19601f8201168201806040525081019061066991906112c8565b905090565b6003818154811061067e57600080fd5b906000526020600020016000915054906101000a900473ffffffffffffffffffffffffffffffffffffffff1681565b8173ffffffffffffffffffffffffffffffffffffffff1663d1384eb66040518163ffffffff1660e01b815260040160206040518083038186803b1580156106f357600080fd5b505afa158015610707573d6000803e3d6000fd5b505050506040513d601f19601f8201168201806040525081019061072b919061120c565b73ffffffffffffffffffffffffffffffffffffffff1663d63a8e11826040518263ffffffff1660e01b815260040161076391906114d1565b60206040518083038186803b15801561077b57600080fd5b505afa15801561078f573d6000803e3d6000fd5b505050506040513d601f19601f820116820180604052508101906107b3919061112c565b80156108525750600160028111156107c757fe5b8273ffffffffffffffffffffffffffffffffffffffff1663200d2ed26040518163ffffffff1660e01b815260040160206040518083038186803b15801561080d57600080fd5b505afa158015610821573d6000803e3d6000fd5b505050506040513d601f19601f820116820180604052508101906108459190611235565b600281111561085057fe5b145b801561090657503073ffffffffffffffffffffffffffffffffffffffff168273ffffffffffffffffffffffffffffffffffffffff16631080d5f86040518163ffffffff1660e01b815260040160206040518083038186803b1580156108b657600080fd5b505afa1580156108ca573d6000803e3d6000fd5b505050506040513d601f19601f820116820180604052508101906108ee91906111e3565b73ffffffffffffffffffffffffffffffffffffffff16145b15610a79576003829080600181540180825580915050600190039060005260206000200160009091909190916101000a81548173ffffffffffffffffffffffffffffffffffffffff021916908373ffffffffffffffffffffffffffffffffffffffff160217905550600560009054906101000a900473ffffffffffffffffffffffffffffffffffffffff1673ffffffffffffffffffffffffffffffffffffffff166326e4ca826040518163ffffffff1660e01b815260040160206040518083038186803b1580156109d657600080fd5b505afa1580156109ea573d6000803e3d6000fd5b505050506040513d601f19601f82011682018060405250810190610a0e9190611155565b73ffffffffffffffffffffffffffffffffffffffff166363441ab2306040518263ffffffff1660e01b8152600401610a46919061161b565b600060405180830381600087803b158015610a6057600080fd5b505af1158015610a74573d6000803e3d6000fd5b505050505b5050565b600260009054906101000a900473ffffffffffffffffffffffffffffffffffffffff1681565b610aab610eea565b610ab3610eea565b60005b600a81108015610acc5750600380549050848201105b15610b5b57600384820181548110610ae057fe5b9060005260206000200160009054906101000a900473ffffffffffffffffffffffffffffffffffffffff168282600a8110610b1757fe5b602002019073ffffffffffffffffffffffffffffffffffffffff16908173ffffffffffffffffffffffffffffffffffffffff16815250508080600101915050610ab6565b5080915050919050565b6000600380549050905090565b6000600260009054906101000a900473ffffffffffffffffffffffffffffffffffffffff1673ffffffffffffffffffffffffffffffffffffffff168273ffffffffffffffffffffffffffffffffffffffff16149050919050565b60008190508073ffffffffffffffffffffffffffffffffffffffff1663d63a8e11336040518263ffffffff1660e01b8152600401610c0a91906114ec565b60206040518083038186803b158015610c2257600080fd5b505afa158015610c36573d6000803e3d6000fd5b505050506040513d601f19601f82011682018060405250810190610c5a919061112c565b15610ca15780600460006101000a81548173ffffffffffffffffffffffffffffffffffffffff021916908373ffffffffffffffffffffffffffffffffffffffff1602179055505b5050565b610cad610eea565b600560009054906101000a900473ffffffffffffffffffffffffffffffffffffffff1673ffffffffffffffffffffffffffffffffffffffff166326e4ca826040518163ffffffff1660e01b815260040160206040518083038186803b158015610d1557600080fd5b505afa158015610d29573d6000803e3d6000fd5b505050506040513d601f19601f82011682018060405250810190610d4d9190611155565b73ffffffffffffffffffffffffffffffffffffffff1663ff25025b6040518163ffffffff1660e01b815260040160206040518083038186803b158015610d9257600080fd5b505afa158015610da6573d6000803e3d6000fd5b505050506040513d601f19601f82011682018060405250810190610dca91906111ba565b73ffffffffffffffffffffffffffffffffffffffff1663da60f30d30846040518363ffffffff1660e01b8152600401610e04929190611574565b6101406040518083038186803b158015610e1d57600080fd5b505afa158015610e31573d6000803e3d6000fd5b505050506040513d601f19601f82011682018060405250810190610e559190611102565b9050919050565b828054600181600116156101000203166002900490600052602060002090601f016020900481019282610e925760008555610ed9565b82601f10610eab57805160ff1916838001178555610ed9565b82800160010185558215610ed9579182015b82811115610ed8578251825591602001919060010190610ebd565b5b509050610ee69190610f0d565b5090565b604051806101400160405280600a90602082028036833780820191505090505090565b5b80821115610f26576000816000905550600101610f0e565b5090565b600081359050610f39816118e0565b92915050565b600082601f830112610f5057600080fd5b600a610f63610f5e826116a8565b611677565b91508183856020840282011115610f7957600080fd5b60005b83811015610fa95781610f8f8882610ff2565b845260208401935060208301925050600181019050610f7c565b5050505092915050565b600081519050610fc2816118f7565b92915050565b600081519050610fd78161190e565b92915050565b600081359050610fec81611925565b92915050565b60008151905061100181611925565b92915050565b6000815190506110168161193c565b92915050565b60008151905061102b81611953565b92915050565b6000815190506110408161196a565b92915050565b60008151905061105581611981565b92915050565b600082601f83011261106c57600080fd5b813561107f61107a826116ce565b611677565b9150808252602083016020830185838301111561109b57600080fd5b6110a683828461188b565b50505092915050565b6000813590506110be81611991565b92915050565b6000815190506110d381611991565b92915050565b6000602082840312156110eb57600080fd5b60006110f984828501610f2a565b91505092915050565b6000610140828403121561111557600080fd5b600061112384828501610f3f565b91505092915050565b60006020828403121561113e57600080fd5b600061114c84828501610fb3565b91505092915050565b60006020828403121561116757600080fd5b600061117584828501610fc8565b91505092915050565b6000806040838503121561119157600080fd5b600061119f85828601610fdd565b92505060206111b085828601610f2a565b9150509250929050565b6000602082840312156111cc57600080fd5b60006111da84828501611007565b91505092915050565b6000602082840312156111f557600080fd5b60006112038482850161101c565b91505092915050565b60006020828403121561121e57600080fd5b600061122c84828501611031565b91505092915050565b60006020828403121561124757600080fd5b600061125584828501611046565b91505092915050565b60006020828403121561127057600080fd5b600082013567ffffffffffffffff81111561128a57600080fd5b6112968482850161105b565b91505092915050565b6000602082840312156112b157600080fd5b60006112bf848285016110af565b91505092915050565b6000602082840312156112da57600080fd5b60006112e8848285016110c4565b91505092915050565b60006112fd838361138d565b60208301905092915050565b611312816117e9565b82525050565b61132181611747565b82525050565b61133081611708565b61133a818461172b565b9250611345826116fe565b8060005b8381101561137657815161135d87826112f1565b96506113688361171e565b925050600181019050611349565b505050505050565b61138781611759565b82525050565b611396816117fb565b82525050565b6113a5816117fb565b82525050565b6113b48161181f565b82525050565b6113c381611843565b82525050565b60006113d482611713565b6113de8185611736565b93506113ee81856020860161189a565b6113f7816118cf565b840191505092915050565b600061140f600e83611736565b91507f5550444154455f464143554c54590000000000000000000000000000000000006000830152602082019050919050565b600061144f600f83611736565b91507f4144445f434552544946494341544500000000000000000000000000000000006000830152602082019050919050565b600061148f600783611736565b91507f464143554c5459000000000000000000000000000000000000000000000000006000830152602082019050919050565b6114cb816117df565b82525050565b60006020820190506114e66000830184611318565b92915050565b60006020820190506115016000830184611309565b92915050565b60006101408201905061151d6000830184611327565b92915050565b6000602082019050611538600083018461137e565b92915050565b6000602082019050611553600083018461139c565b92915050565b600060208201905061156e60008301846113ab565b92915050565b600060408201905061158960008301856113ab565b61159660208301846114c2565b9392505050565b60006020820190506115b260008301846113ba565b92915050565b600060208201905081810360008301526115d281846113c9565b905092915050565b600060608201905081810360008301526115f381611402565b9050818103602083015261160681611482565b90506116156040830184611318565b92915050565b6000606082019050818103600083015261163481611442565b9050818103602083015261164781611482565b90506116566040830184611318565b92915050565b600060208201905061167160008301846114c2565b92915050565b6000604051905081810181811067ffffffffffffffff8211171561169e5761169d6118cd565b5b8060405250919050565b600067ffffffffffffffff8211156116c3576116c26118cd565b5b602082029050919050565b600067ffffffffffffffff8211156116e9576116e86118cd565b5b601f19601f8301169050602081019050919050565b6000819050919050565b6000600a9050919050565b600081519050919050565b6000602082019050919050565b600081905092915050565b600082825260208201905092915050565b6000611752826117bf565b9050919050565b60008115159050919050565b600061177082611747565b9050919050565b600061178282611747565b9050919050565b600061179482611747565b9050919050565b60006117a682611747565b9050919050565b60006117b882611747565b9050919050565b600073ffffffffffffffffffffffffffffffffffffffff82169050919050565b6000819050919050565b60006117f482611867565b9050919050565b60006118068261180d565b9050919050565b6000611818826117bf565b9050919050565b600061182a82611831565b9050919050565b600061183c826117bf565b9050919050565b600061184e82611855565b9050919050565b6000611860826117bf565b9050919050565b600061187282611879565b9050919050565b6000611884826117bf565b9050919050565b82818337600083830152505050565b60005b838110156118b857808201518184015260208101905061189d565b838111156118c7576000848401525b50505050565bfe5b6000601f19601f8301169050919050565b6118e981611747565b81146118f457600080fd5b50565b61190081611759565b811461190b57600080fd5b50565b61191781611765565b811461192257600080fd5b50565b61192e81611777565b811461193957600080fd5b50565b61194581611789565b811461195057600080fd5b50565b61195c8161179b565b811461196757600080fd5b50565b611973816117ad565b811461197e57600080fd5b50565b6003811061198e57600080fd5b50565b61199a816117df565b81146119a557600080fd5b5056fea2646970667358221220bad846cda9eac510659af968a6a64971e2f21b24b6f75aba37ba126e95587d9e64736f6c63430007050033a264697066735822122082c026a2d1b5a1ff701fc0654e8fb845f66d5236fcacf6a28849a7788867e3da64736f6c63430007050033",
  "immutableReferences": {},
  "source": "// SPDX-License-Identifier: GPL-3.0\npragma solidity >=0.5.0 <0.8.0;\npragma abicoder v2;\nenum Degree {\n    ScholarlyAcademics,\n    PracticeAcademics,\n    ScholarlyPractitioner,\n    InstructionalPractitioner\n}\n\ncontract Certificate {\n    enum State {requested, approved, rejected}\n\n    Faculty public faculty;\n    Institution public institution;\n    Degree public degree;\n    State public status = State.requested;\n    CertificatesManager certificatesManager;\n\n    constructor(\n        CertificatesManager _certificatesManager,\n        Faculty _faculty,\n        Institution _institution,\n        Degree _degree\n    ) {\n        certificatesManager = _certificatesManager;\n        faculty = _faculty;\n        institution = _institution;\n        degree = _degree;\n    }\n\n    function reject() public payable {\n        if (editable(msg.sender)) {\n            status = State.rejected;\n            certificatesManager\n                .application()\n                .certificatesManager()\n                .removeCertificate(this);\n            certificatesManager.application().emitEvent(\n                \"REJEcT_CERTIFICATE\",\n                \"CERTIFICATE\",\n                address(this)\n            );\n        }\n    }\n\n    function approve() public payable {\n        if (editable(msg.sender) && institution.allowed(msg.sender)) {\n            status = State.approved;\n            faculty.addCertificate(this, msg.sender);\n            institution.addCertificate(this, msg.sender);\n            certificatesManager\n                .application()\n                .certificatesManager()\n                .removeCertificate(this);\n            certificatesManager.application().emitEvent(\n                \"APPROVE_CERTIFICATE\",\n                \"CERTIFICATE\",\n                address(this)\n            );\n        }\n    }\n\n    function editable(address _address) public view returns (bool) {\n        return status == State.requested && institution.allowed(_address);\n    }\n}\n\ncontract Faculty {\n    uint256 id;\n    string public name;\n    address public owner;\n    Certificate[] public certificates;\n    Institution public currentInstitution;\n    FacultiesManager facultiesManager;\n\n    constructor(\n        FacultiesManager _facultiesManager,\n        uint256 _id,\n        string memory _name,\n        address _owner\n    ) {\n        facultiesManager = _facultiesManager;\n        name = _name;\n        id = _id;\n        owner = _owner;\n    }\n\n    function update(string memory _name) public payable {\n        if (allowed(msg.sender)) {\n            name = _name;\n            facultiesManager.application().emitEvent(\n                \"UPDATE_FACULTY\",\n                \"FACULTY\",\n                address(this)\n            );\n        }\n    }\n\n    function assignInstitution(address _institutionAddress) public payable {\n        Institution _institution = Institution(_institutionAddress);\n        if (_institution.allowed(msg.sender)) {\n            currentInstitution = _institution;\n        }\n    }\n\n    function allowed(address _address) public view returns (bool) {\n        return _address == owner;\n    }\n\n    function addCertificate(Certificate _certificate, address _address)\n        public\n        payable\n    {\n        if (\n            _certificate.institution().allowed(_address) &&\n            _certificate.status() == Certificate.State.approved &&\n            _certificate.faculty() == this\n        ) {\n            certificates.push(_certificate);\n            facultiesManager.application().emitEvent(\n                \"ADD_CERTIFICATE\",\n                \"FACULTY\",\n                address(this)\n            );\n        }\n    }\n\n    function certificatesLength() public view returns (uint256) {\n        return certificates.length;\n    }\n\n    function listCertificates(uint256 _from)\n        public\n        view\n        returns (Certificate[10] memory)\n    {\n        Certificate[10] memory list;\n        for (uint256 i = 0; i < 10 && i + _from < certificates.length; i++) {\n            list[i] = certificates[i + _from];\n        }\n        return list;\n    }\n\n    function pendingCertificatesLength() public view returns (uint256) {\n        return\n            facultiesManager\n                .application()\n                .certificatesManager()\n                .pendingCertificateLengthForFaculty(this);\n    }\n\n    function pendingCertificates(uint256 _from)\n        public\n        view\n        returns (Certificate[10] memory)\n    {\n        return\n            facultiesManager\n                .application()\n                .certificatesManager()\n                .pendingCertificateForFaculty(this, _from);\n    }\n}\n\ncontract Institution {\n    struct StaffMember {\n        uint256 id;\n        string name;\n        bool active;\n    }\n\n    uint256 public id;\n    string public name;\n    address public owner;\n\n    Certificate[] certificates;\n    InstituionsManager instituionsManager;\n    address[] public allowedModifiers;\n    mapping(address => bool) allowedModifiersMap;\n\n    mapping(uint256 => StaffMember) staffMembers;\n    uint256 nextStaffMembersId = 1;\n\n    mapping(uint256 => Faculty) faculties;\n    uint256 nextFacultyId;\n\n    constructor(\n        InstituionsManager _instituionsManager,\n        uint256 _id,\n        string memory _name,\n        address sender\n    ) {\n        instituionsManager = _instituionsManager;\n        id = _id;\n        name = _name;\n        owner = sender;\n        allowedModifiers.push(sender);\n        allowedModifiersMap[sender] = true;\n    }\n\n    function update(string memory _name) public payable {\n        if (allowed(msg.sender)) {\n            name = _name;\n        }\n    }\n\n    function staffMember(uint256 _from)\n        public\n        view\n        returns (StaffMember memory)\n    {\n        return staffMembers[_from];\n    }\n\n    function listStaffMembers(uint256 _from, bool skipInactive)\n        public\n        view\n        returns (StaffMember[10] memory)\n    {\n        StaffMember[10] memory list;\n        for (uint256 i = 0; i < 10 && nextStaffMembersId < i + _from + 1; i++) {\n            if (skipInactive && !staffMembers[i + _from + 1].active) {\n                _from++;\n                i--;\n            } else {\n                list[i] = staffMembers[i + _from + 1];\n            }\n        }\n        return list;\n    }\n\n    function staffMembersLength() public view returns (uint256) {\n        return nextStaffMembersId - 1;\n    }\n\n    function createStaffMember(string memory _name) public payable {\n        if (allowed(msg.sender)) {\n            uint256 _nextStaffMemberId = nextStaffMembersId++;\n            StaffMember storage _staffMember = staffMembers[_nextStaffMemberId];\n            _staffMember.id = _nextStaffMemberId;\n            _staffMember.name = _name;\n            _staffMember.active = true;\n            instituionsManager.application().emitEvent(\n                \"ADD_STAFF_MEMBER_INSTITUTION\",\n                \"INSTITUTION\",\n                address(this)\n            );\n        }\n    }\n\n    function updateStaffMember(\n        uint256 _staffMemberId,\n        string memory _name,\n        bool _active\n    ) public payable {\n        if (allowed(msg.sender)) {\n            StaffMember storage _staffMember = staffMembers[_staffMemberId];\n            _staffMember.name = _name;\n            _staffMember.active = _active;\n            instituionsManager.application().emitEvent(\n                \"UPDATE_STAFF_MEMBER_INSTITUTION\",\n                \"INSTITUTION\",\n                address(this)\n            );\n        }\n    }\n\n    function listModifiers(uint256 _from)\n        public\n        view\n        returns (address[10] memory)\n    {\n        address[10] memory list;\n        for (\n            uint256 i = 0;\n            i < 10 && i + _from < allowedModifiers.length;\n            i++\n        ) {\n            list[i] = allowedModifiers[i + _from];\n        }\n        return list;\n    }\n\n    function modifiersLength() public view returns (uint256) {\n        return allowedModifiers.length;\n    }\n\n    function addModifier(address _modifier) public payable {\n        if (allowed(msg.sender) && !allowedModifiersMap[_modifier]) {\n            allowedModifiers.push(_modifier);\n            allowedModifiersMap[_modifier] = true;\n            instituionsManager.application().emitEvent(\n                \"ADD_MODIFIER_INSTITUTION\",\n                \"INSTITUTION\",\n                address(this)\n            );\n        }\n    }\n\n    function removeModifier(address _modifier) public payable {\n        if (allowedToRemove(msg.sender, _modifier)) {\n            for (uint256 i = 0; i < allowedModifiers.length; i++) {\n                if (allowedModifiers[i] == _modifier) {\n                    uint256 _lastIndex = allowedModifiers.length - 1;\n                    if (i < _lastIndex) {\n                        allowedModifiers[i] = allowedModifiers[_lastIndex];\n                    }\n                    allowedModifiers.pop();\n                }\n            }\n            delete allowedModifiersMap[_modifier];\n            instituionsManager.application().emitEvent(\n                \"REMOVE_MODIFIER_INSTITUTION\",\n                \"INSTITUTION\",\n                address(this)\n            );\n        }\n    }\n\n    function allowedToRemove(address _sender, address _toRemove)\n        public\n        view\n        returns (bool)\n    {\n        if (allowed(_sender)) {\n            if (_sender == _toRemove) {\n                return false;\n            } else if (_toRemove == owner) {\n                return false;\n            } else {\n                return true;\n            }\n        } else {\n            return false;\n        }\n    }\n\n    function allowed(address _modifierAddress) public view returns (bool) {\n        return allowed(_modifierAddress, 0);\n    }\n\n    function allowed(address modifierAddress, uint256 index)\n        private\n        view\n        returns (bool)\n    {\n        if (modifierAddress == allowedModifiers[index]) {\n            return true;\n        } else if (index < allowedModifiers.length - 1) {\n            return allowed(modifierAddress, index + 1);\n        } else {\n            return false;\n        }\n    }\n\n    function addCertificate(Certificate _certificate, address _address)\n        public\n        payable\n    {\n        if (\n            allowed(_address) &&\n            _certificate.status() == Certificate.State.approved &&\n            _certificate.institution() == this\n        ) {\n            certificates.push(_certificate);\n            instituionsManager.application().emitEvent(\n                \"ADD_CERTIFICATE_INSTITUTION\",\n                \"INSTITUTION\",\n                address(this)\n            );\n        }\n    }\n\n    function issuedCertificates(uint256 _from)\n        public\n        view\n        returns (Certificate[10] memory)\n    {\n        Certificate[10] memory _list;\n        uint256 _count = 0;\n        for (uint256 i = _from; i < certificates.length && _count < 10; i++) {\n            _list[_count] = certificates[i];\n            _count++;\n        }\n        return _list;\n    }\n\n    function issuedCertificatesLength() public view returns (uint256) {\n        return certificates.length;\n    }\n\n    function pendingCertificatesLength() public view returns (uint256) {\n        return\n            instituionsManager\n                .application()\n                .certificatesManager()\n                .pendingCertificateLengthForInstitution(this);\n    }\n\n    function pendingCertificates(uint256 _from)\n        public\n        view\n        returns (Certificate[10] memory)\n    {\n        return\n            instituionsManager\n                .application()\n                .certificatesManager()\n                .pendingCertificateForInstitution(this, _from);\n    }\n}\n\ncontract CertificatesManager {\n    Certificate[] pendingCertificates;\n    Application public application;\n\n    constructor(Application _application) {\n        application = _application;\n    }\n\n    function requestCertificate(\n        Faculty _faculty,\n        Institution _institution,\n        Degree _degree\n    ) public payable {\n        Certificate _certificate =\n            new Certificate(this, _faculty, _institution, _degree);\n        pendingCertificates.push(_certificate);\n        application.emitEvent(\n            \"REQUEST_CERTIFICATE\",\n            \"INSTITUTION\",\n            address(_institution)\n        );\n        application.emitEvent(\n            \"REQUEST_CERTIFICATE\",\n            \"FACULTY\",\n            address(_faculty)\n        );\n    }\n\n    function removeCertificate(Certificate _certificate) public payable {\n        for (uint256 i = 0; i < pendingCertificates.length; i++) {\n            if (pendingCertificates[i] == _certificate) {\n                uint256 _lastIndex = pendingCertificates.length - 1;\n                if (i < _lastIndex) {\n                    pendingCertificates[i] = pendingCertificates[_lastIndex];\n                }\n                pendingCertificates.pop();\n            }\n        }\n        application.emitEvent(\n            \"CERTIFICATE_REMOVE\",\n            \"INSTITUTION\",\n            address(_certificate.institution())\n        );\n        application.emitEvent(\n            \"CERTIFICATE_REMOVE\",\n            \"FACULTY\",\n            address(_certificate.faculty())\n        );\n    }\n\n    function pendingCertificateLengthForFaculty(Faculty _faculty)\n        public\n        view\n        returns (uint256)\n    {\n        uint256 _count = 0;\n        for (uint256 i = 0; i < pendingCertificates.length; i++) {\n            if (pendingCertificates[i].faculty() == _faculty) {\n                _count++;\n            }\n        }\n        return _count;\n    }\n\n    function pendingCertificateForFaculty(Faculty _faculty, uint256 _from)\n        public\n        view\n        returns (Certificate[10] memory)\n    {\n        Certificate[10] memory _list;\n        uint256 _count = 0;\n        uint256 _toSkip = 0;\n        for (\n            uint256 i = 0;\n            i < pendingCertificates.length && _count <= 10;\n            i++\n        ) {\n            if (pendingCertificates[i].faculty() == _faculty) {\n                if (_toSkip >= _from) {\n                    _list[_count] = pendingCertificates[i];\n                    _count++;\n                }\n                _toSkip++;\n            }\n        }\n        return _list;\n    }\n\n    function pendingCertificateLengthForInstitution(Institution _institution)\n        public\n        view\n        returns (uint256)\n    {\n        uint256 _count = 0;\n        for (uint256 i = 0; i < pendingCertificates.length; i++) {\n            if (pendingCertificates[i].institution() == _institution) {\n                _count++;\n            }\n        }\n        return _count;\n    }\n\n    function pendingCertificateForInstitution(\n        Institution _institution,\n        uint256 _from\n    ) public view returns (Certificate[10] memory) {\n        Certificate[10] memory _list;\n        uint256 _count = 0;\n        uint256 _toSkip = 0;\n        for (\n            uint256 i = 0;\n            i < pendingCertificates.length && _count <= 10;\n            i++\n        ) {\n            if (pendingCertificates[i].institution() == _institution) {\n                if (_toSkip >= _from) {\n                    _list[_count] = pendingCertificates[i];\n                    _count++;\n                }\n                _toSkip++;\n            }\n        }\n        return _list;\n    }\n}\n\ncontract FacultiesManager {\n    Application public application;\n    mapping(address => Faculty) public faculties;\n    mapping(uint256 => Faculty) facultiesByIndex;\n    uint256 nextFacultyId = 0;\n\n    constructor(Application _application) {\n        application = _application;\n    }\n\n    function facultiesLength() public view returns (uint256) {\n        return nextFacultyId;\n    }\n\n    function createFaculty(string memory _name) public payable {\n        if (address(faculties[msg.sender]) == address(0x0)) {\n            uint256 _id = nextFacultyId++;\n            Faculty faculty = new Faculty(this, _id, _name, msg.sender);\n            facultiesByIndex[_id] = faculty;\n            faculties[msg.sender] = faculty;\n            application.emitEvent(\n                \"CREATE_FACULTY\",\n                \"FACULTY\",\n                address(faculty)\n            );\n        }\n    }\n\n    function listFaculties(uint256 _from)\n        public\n        view\n        returns (Faculty[10] memory)\n    {\n        Faculty[10] memory list;\n        for (uint256 i = 0; i < 10; i++) {\n            list[i] = facultiesByIndex[i + _from];\n        }\n        return list;\n    }\n}\n\ncontract InstituionsManager {\n    Application public application;\n    mapping(uint256 => Institution) public institutions;\n    uint256 nextInstitutionId = 0;\n\n    constructor(Application _application) {\n        application = _application;\n    }\n\n    function institutionsLength() public view returns (uint256) {\n        return nextInstitutionId;\n    }\n\n    function createInstitution(string memory _name) public payable {\n        uint256 _id = nextInstitutionId++;\n        Institution _institution =\n            new Institution(this, _id, _name, msg.sender);\n        institutions[_id] = _institution;\n        application.emitEvent(\n            \"CREATE_INSTITUTION\",\n            \"INSTITUTION\",\n            address(_institution)\n        );\n    }\n\n    function listInstitutions(uint256 _from)\n        public\n        view\n        returns (Institution[10] memory)\n    {\n        Institution[10] memory list;\n        for (uint256 i = 0; i < 10; i++) {\n            list[i] = institutions[i + _from];\n        }\n        return list;\n    }\n}\n\ncontract Application {\n    /*\n    Application is the root contract that the UI will use to interact with sub contracts \n    */\n    CertificatesManager public certificatesManager;\n    FacultiesManager public facultiesManager;\n    InstituionsManager public instituionsManager;\n    event ApplicationEvent(\n        string eventType,\n        string targetType,\n        address targetAddress\n    );\n\n    constructor() {\n        certificatesManager = new CertificatesManager(this);\n        facultiesManager = new FacultiesManager(this);\n        instituionsManager = new InstituionsManager(this);\n    }\n\n    function emitEvent(\n        string memory eventType,\n        string memory targetType,\n        address targetAddress\n    ) public payable {\n        emit ApplicationEvent(eventType, targetType, targetAddress);\n    }\n}\n",
  "sourcePath": "/home/mortadaak/Projects/aacsb_accreditiation/contracts/Application.sol",
  "compiler": {
    "name": "solc",
    "version": "0.7.5+commit.eb77ed08.Emscripten.clang"
  },
  "schemaVersion": "3.3.3",
  "updatedAt": "2021-01-27T11:43:18.282Z",
  "devdoc": {
    "kind": "dev",
    "methods": {},
    "version": 1
  },
  "userdoc": {
    "kind": "user",
    "methods": {},
    "version": 1
  }
}