{
  "contractName": "Institution",
  "abi": [
    {
      "inputs": [
        {
          "internalType": "contract InstituionsManager",
          "name": "_instituionsManager",
          "type": "address"
        },
        {
          "internalType": "uint256",
          "name": "_id",
          "type": "uint256"
        },
        {
          "internalType": "string",
          "name": "_name",
          "type": "string"
        },
        {
          "internalType": "address",
          "name": "sender",
          "type": "address"
        }
      ],
      "stateMutability": "nonpayable",
      "type": "constructor"
    },
    {
      "inputs": [
        {
          "internalType": "uint256",
          "name": "",
          "type": "uint256"
        }
      ],
      "name": "allowedModifiers",
      "outputs": [
        {
          "internalType": "address",
          "name": "",
          "type": "address"
        }
      ],
      "stateMutability": "view",
      "type": "function"
    },
    {
      "inputs": [],
      "name": "id",
      "outputs": [
        {
          "internalType": "uint256",
          "name": "",
          "type": "uint256"
        }
      ],
      "stateMutability": "view",
      "type": "function"
    },
    {
      "inputs": [],
      "name": "name",
      "outputs": [
        {
          "internalType": "string",
          "name": "",
          "type": "string"
        }
      ],
      "stateMutability": "view",
      "type": "function"
    },
    {
      "inputs": [],
      "name": "owner",
      "outputs": [
        {
          "internalType": "address",
          "name": "",
          "type": "address"
        }
      ],
      "stateMutability": "view",
      "type": "function"
    },
    {
      "inputs": [
        {
          "internalType": "enum Degree",
          "name": "degree",
          "type": "uint8"
        }
      ],
      "name": "countIssuesCertificateByDegree",
      "outputs": [
        {
          "internalType": "uint256",
          "name": "",
          "type": "uint256"
        }
      ],
      "stateMutability": "view",
      "type": "function"
    },
    {
      "inputs": [
        {
          "internalType": "enum Degree",
          "name": "degree",
          "type": "uint8"
        }
      ],
      "name": "countFacultiesCertificateByDegree",
      "outputs": [
        {
          "internalType": "uint256",
          "name": "",
          "type": "uint256"
        }
      ],
      "stateMutability": "view",
      "type": "function"
    },
    {
      "inputs": [
        {
          "internalType": "string",
          "name": "_name",
          "type": "string"
        }
      ],
      "name": "update",
      "outputs": [],
      "stateMutability": "payable",
      "type": "function"
    },
    {
      "inputs": [
        {
          "internalType": "uint256",
          "name": "_from",
          "type": "uint256"
        }
      ],
      "name": "staffMember",
      "outputs": [
        {
          "components": [
            {
              "internalType": "uint256",
              "name": "id",
              "type": "uint256"
            },
            {
              "internalType": "string",
              "name": "name",
              "type": "string"
            },
            {
              "internalType": "bool",
              "name": "active",
              "type": "bool"
            }
          ],
          "internalType": "struct Institution.StaffMember",
          "name": "",
          "type": "tuple"
        }
      ],
      "stateMutability": "view",
      "type": "function"
    },
    {
      "inputs": [
        {
          "internalType": "uint256",
          "name": "_from",
          "type": "uint256"
        },
        {
          "internalType": "bool",
          "name": "skipInactive",
          "type": "bool"
        }
      ],
      "name": "listStaffMembers",
      "outputs": [
        {
          "components": [
            {
              "internalType": "uint256",
              "name": "id",
              "type": "uint256"
            },
            {
              "internalType": "string",
              "name": "name",
              "type": "string"
            },
            {
              "internalType": "bool",
              "name": "active",
              "type": "bool"
            }
          ],
          "internalType": "struct Institution.StaffMember[10]",
          "name": "",
          "type": "tuple[10]"
        }
      ],
      "stateMutability": "view",
      "type": "function"
    },
    {
      "inputs": [],
      "name": "staffMembersLength",
      "outputs": [
        {
          "internalType": "uint256",
          "name": "",
          "type": "uint256"
        }
      ],
      "stateMutability": "view",
      "type": "function"
    },
    {
      "inputs": [
        {
          "internalType": "string",
          "name": "_name",
          "type": "string"
        }
      ],
      "name": "createStaffMember",
      "outputs": [],
      "stateMutability": "payable",
      "type": "function"
    },
    {
      "inputs": [
        {
          "internalType": "uint256",
          "name": "_staffMemberId",
          "type": "uint256"
        },
        {
          "internalType": "string",
          "name": "_name",
          "type": "string"
        },
        {
          "internalType": "bool",
          "name": "_active",
          "type": "bool"
        }
      ],
      "name": "updateStaffMember",
      "outputs": [],
      "stateMutability": "payable",
      "type": "function"
    },
    {
      "inputs": [
        {
          "internalType": "uint256",
          "name": "_from",
          "type": "uint256"
        }
      ],
      "name": "listModifiers",
      "outputs": [
        {
          "internalType": "address[10]",
          "name": "",
          "type": "address[10]"
        }
      ],
      "stateMutability": "view",
      "type": "function"
    },
    {
      "inputs": [],
      "name": "modifiersLength",
      "outputs": [
        {
          "internalType": "uint256",
          "name": "",
          "type": "uint256"
        }
      ],
      "stateMutability": "view",
      "type": "function"
    },
    {
      "inputs": [
        {
          "internalType": "address",
          "name": "_modifier",
          "type": "address"
        }
      ],
      "name": "addModifier",
      "outputs": [],
      "stateMutability": "payable",
      "type": "function"
    },
    {
      "inputs": [
        {
          "internalType": "address",
          "name": "_modifier",
          "type": "address"
        }
      ],
      "name": "removeModifier",
      "outputs": [],
      "stateMutability": "payable",
      "type": "function"
    },
    {
      "inputs": [
        {
          "internalType": "address",
          "name": "_sender",
          "type": "address"
        },
        {
          "internalType": "address",
          "name": "_toRemove",
          "type": "address"
        }
      ],
      "name": "allowedToRemove",
      "outputs": [
        {
          "internalType": "bool",
          "name": "",
          "type": "bool"
        }
      ],
      "stateMutability": "view",
      "type": "function"
    },
    {
      "inputs": [
        {
          "internalType": "address",
          "name": "_modifierAddress",
          "type": "address"
        }
      ],
      "name": "allowed",
      "outputs": [
        {
          "internalType": "bool",
          "name": "",
          "type": "bool"
        }
      ],
      "stateMutability": "view",
      "type": "function"
    },
    {
      "inputs": [
        {
          "internalType": "contract Certificate",
          "name": "_certificate",
          "type": "address"
        },
        {
          "internalType": "address",
          "name": "_address",
          "type": "address"
        }
      ],
      "name": "addCertificate",
      "outputs": [],
      "stateMutability": "payable",
      "type": "function"
    },
    {
      "inputs": [
        {
          "internalType": "uint256",
          "name": "_from",
          "type": "uint256"
        }
      ],
      "name": "issuedCertificates",
      "outputs": [
        {
          "internalType": "contract Certificate[10]",
          "name": "",
          "type": "address[10]"
        }
      ],
      "stateMutability": "view",
      "type": "function"
    },
    {
      "inputs": [],
      "name": "issuedCertificatesLength",
      "outputs": [
        {
          "internalType": "uint256",
          "name": "",
          "type": "uint256"
        }
      ],
      "stateMutability": "view",
      "type": "function"
    },
    {
      "inputs": [],
      "name": "pendingCertificatesLength",
      "outputs": [
        {
          "internalType": "uint256",
          "name": "",
          "type": "uint256"
        }
      ],
      "stateMutability": "view",
      "type": "function"
    },
    {
      "inputs": [
        {
          "internalType": "uint256",
          "name": "_from",
          "type": "uint256"
        }
      ],
      "name": "pendingCertificates",
      "outputs": [
        {
          "internalType": "contract Certificate[10]",
          "name": "",
          "type": "address[10]"
        }
      ],
      "stateMutability": "view",
      "type": "function"
    },
    {
      "inputs": [
        {
          "internalType": "uint256",
          "name": "_from",
          "type": "uint256"
        }
      ],
      "name": "listFaculties",
      "outputs": [
        {
          "internalType": "contract Faculty[10]",
          "name": "",
          "type": "address[10]"
        }
      ],
      "stateMutability": "view",
      "type": "function"
    },
    {
      "inputs": [],
      "name": "facultiesLength",
      "outputs": [
        {
          "internalType": "uint256",
          "name": "",
          "type": "uint256"
        }
      ],
      "stateMutability": "view",
      "type": "function"
    },
    {
      "inputs": [
        {
          "internalType": "contract Faculty",
          "name": "_faculty",
          "type": "address"
        }
      ],
      "name": "addFaculty",
      "outputs": [],
      "stateMutability": "payable",
      "type": "function"
    },
    {
      "inputs": [
        {
          "internalType": "contract Faculty",
          "name": "_faculty",
          "type": "address"
        }
      ],
      "name": "removeFaculty",
      "outputs": [],
      "stateMutability": "payable",
      "type": "function"
    }
  ],
  "bytecode": "0x608060405260016008553480156200001657600080fd5b5060405162003d6b38038062003d6b83398181016040528101906200003c9190620002fa565b83600460006101000a81548173ffffffffffffffffffffffffffffffffffffffff021916908373ffffffffffffffffffffffffffffffffffffffff1602179055508260008190555081600190805190602001906200009c929190620001a3565b5080600260006101000a81548173ffffffffffffffffffffffffffffffffffffffff021916908373ffffffffffffffffffffffffffffffffffffffff1602179055506005819080600181540180825580915050600190039060005260206000200160009091909190916101000a81548173ffffffffffffffffffffffffffffffffffffffff021916908373ffffffffffffffffffffffffffffffffffffffff1602179055506001600660008373ffffffffffffffffffffffffffffffffffffffff1673ffffffffffffffffffffffffffffffffffffffff16815260200190815260200160002060006101000a81548160ff02191690831515021790555050505050620004be565b828054600181600116156101000203166002900490600052602060002090601f016020900481019282620001db576000855562000227565b82601f10620001f657805160ff191683800117855562000227565b8280016001018555821562000227579182015b828111156200022657825182559160200191906001019062000209565b5b5090506200023691906200023a565b5090565b5b80821115620002555760008160009055506001016200023b565b5090565b6000815190506200026a8162000470565b92915050565b60008151905062000281816200048a565b92915050565b600082601f8301126200029957600080fd5b8151620002b0620002aa82620003b3565b6200037f565b91508082526020830160208301858383011115620002cd57600080fd5b620002da83828462000438565b50505092915050565b600081519050620002f481620004a4565b92915050565b600080600080608085870312156200031157600080fd5b6000620003218782880162000270565b94505060206200033487828801620002e3565b935050604085015167ffffffffffffffff8111156200035257600080fd5b620003608782880162000287565b9250506060620003738782880162000259565b91505092959194509250565b6000604051905081810181811067ffffffffffffffff82111715620003a957620003a86200046e565b5b8060405250919050565b600067ffffffffffffffff821115620003d157620003d06200046e565b5b601f19601f8301169050602081019050919050565b6000620003f3826200040e565b9050919050565b60006200040782620003e6565b9050919050565b600073ffffffffffffffffffffffffffffffffffffffff82169050919050565b6000819050919050565b60005b83811015620004585780820151818401526020810190506200043b565b8381111562000468576000848401525b50505050565bfe5b6200047b81620003e6565b81146200048757600080fd5b50565b6200049581620003fa565b8114620004a157600080fd5b50565b620004af816200042e565b8114620004bb57600080fd5b50565b61389d80620004ce6000396000f3fe60806040526004361061019c5760003560e01c8063636558a5116100ec578063af640d0f1161008a578063d63a8e1111610064578063d63a8e11146105a5578063e08b2ab6146105e2578063eafb96bd1461061f578063ee84ab761461063b5761019c565b8063af640d0f14610521578063c16ebe5a1461054c578063d2e3f3b7146105685761019c565b8063781dd722116100c6578063781dd722146104a25780638da5cb5b146104be57806393a86532146104e9578063a013fe30146105055761019c565b8063636558a51461041e5780636bd5b6941461043a57806370927f78146104775761019c565b8063396ff3ed116101595780634225674d116101335780634225674d1461034e57806344e538ae1461038b57806356caf1ce146103b65780635822cb31146103f35761019c565b8063396ff3ed146102eb5780633c98ccee146103075780633d7403a3146103325761019c565b8063068d8174146101a157806306fdde03146101de57806308e0018b146102095780630b3090c314610246578063262e025b146102835780633269389a146102c0575b600080fd5b3480156101ad57600080fd5b506101c860048036038101906101c39190612afd565b610678565b6040516101d59190613170565b60405180910390f35b3480156101ea57600080fd5b506101f36106b7565b604051610200919061327b565b60405180910390f35b34801561021557600080fd5b50610230600480360381019061022b91906128fb565b610755565b60405161023d9190613201565b60405180910390f35b34801561025257600080fd5b5061026d60048036038101906102689190612a41565b610815565b60405161027a9190613486565b60405180910390f35b34801561028f57600080fd5b506102aa60048036038101906102a59190612afd565b61091a565b6040516102b79190613464565b60405180910390f35b3480156102cc57600080fd5b506102d5610a0e565b6040516102e29190613486565b60405180910390f35b610305600480360381019061030091906129ef565b610a1b565b005b34801561031357600080fd5b5061031c610d68565b6040516103299190613486565b60405180910390f35b61034c60048036038101906103479190612abc565b610d75565b005b34801561035a57600080fd5b5061037560048036038101906103709190612b4f565b610d9e565b60405161038291906131df565b60405180910390f35b34801561039757600080fd5b506103a0610f2e565b6040516103ad9190613486565b60405180910390f35b3480156103c257600080fd5b506103dd60048036038101906103d89190612a41565b610f3b565b6040516103ea9190613486565b60405180910390f35b3480156103ff57600080fd5b50610408611029565b6040516104159190613486565b60405180910390f35b61043860048036038101906104339190612abc565b6111d5565b005b34801561044657600080fd5b50610461600480360381019061045c9190612afd565b61135e565b60405161046e91906131a7565b60405180910390f35b34801561048357600080fd5b5061048c611429565b6040516104999190613486565b60405180910390f35b6104bc60048036038101906104b7919061298a565b611436565b005b3480156104ca57600080fd5b506104d3611709565b6040516104e09190613170565b60405180910390f35b61050360048036038101906104fe91906129ef565b61172f565b005b61051f600480360381019061051a91906128d2565b611b28565b005b34801561052d57600080fd5b50610536611d55565b6040516105439190613486565b60405180910390f35b61056660048036038101906105619190612b8b565b611d5b565b005b34801561057457600080fd5b5061058f600480360381019061058a9190612afd565b611ec6565b60405161059c919061318b565b60405180910390f35b3480156105b157600080fd5b506105cc60048036038101906105c791906128d2565b611f88565b6040516105d99190613201565b60405180910390f35b3480156105ee57600080fd5b5061060960048036038101906106049190612afd565b611f9c565b60405161061691906131a7565b60405180910390f35b610639600480360381019061063491906128d2565b612153565b005b34801561064757600080fd5b50610662600480360381019061065d9190612afd565b61242d565b60405161066f91906131c3565b60405180910390f35b6005818154811061068857600080fd5b906000526020600020016000915054906101000a900473ffffffffffffffffffffffffffffffffffffffff1681565b60018054600181600116156101000203166002900480601f01602080910402602001604051908101604052809291908181526020018280546001816001161561010002031660029004801561074d5780601f106107225761010080835404028352916020019161074d565b820191906000526020600020905b81548152906001019060200180831161073057829003601f168201915b505050505081565b600061076083611f88565b1561080a578173ffffffffffffffffffffffffffffffffffffffff168373ffffffffffffffffffffffffffffffffffffffff1614156107a2576000905061080f565b600260009054906101000a900473ffffffffffffffffffffffffffffffffffffffff1673ffffffffffffffffffffffffffffffffffffffff168273ffffffffffffffffffffffffffffffffffffffff161415610801576000905061080f565b6001905061080f565b600090505b92915050565b60008060005b6003805490508110156109105783600381111561083457fe5b6003828154811061084157fe5b9060005260206000200160009054906101000a900473ffffffffffffffffffffffffffffffffffffffff1673ffffffffffffffffffffffffffffffffffffffff1663f35d71026040518163ffffffff1660e01b815260040160206040518083038186803b1580156108b157600080fd5b505afa1580156108c5573d6000803e3d6000fd5b505050506040513d601f19601f820116820180604052508101906108e99190612a6a565b60038111156108f457fe5b14156109035781806001019250505b808060010191505061081b565b5080915050919050565b610922612594565b6007600083815260200190815260200160002060405180606001604052908160008201548152602001600182018054600181600116156101000203166002900480601f0160208091040260200160405190810160405280929190818152602001828054600181600116156101000203166002900480156109e35780601f106109b8576101008083540402835291602001916109e3565b820191906000526020600020905b8154815290600101906020018083116109c657829003601f168201915b505050505081526020016002820160009054906101000a900460ff1615151515815250509050919050565b6000600980549050905090565b610a2433611f88565b8015610ad95750600073ffffffffffffffffffffffffffffffffffffffff168173ffffffffffffffffffffffffffffffffffffffff16634e8ef7536040518163ffffffff1660e01b815260040160206040518083038186803b158015610a8957600080fd5b505afa158015610a9d573d6000803e3d6000fd5b505050506040513d601f19601f82011682018060405250810190610ac19190612a18565b73ffffffffffffffffffffffffffffffffffffffff16145b8015610b2f5750600a60008273ffffffffffffffffffffffffffffffffffffffff1673ffffffffffffffffffffffffffffffffffffffff16815260200190815260200160002060009054906101000a900460ff16155b15610d65576009819080600181540180825580915050600190039060005260206000200160009091909190916101000a81548173ffffffffffffffffffffffffffffffffffffffff021916908373ffffffffffffffffffffffffffffffffffffffff1602179055506001600a60008373ffffffffffffffffffffffffffffffffffffffff1673ffffffffffffffffffffffffffffffffffffffff16815260200190815260200160002060006101000a81548160ff0219169083151502179055508073ffffffffffffffffffffffffffffffffffffffff1663d90c137e306040518263ffffffff1660e01b8152600401610c28919061321c565b600060405180830381600087803b158015610c4257600080fd5b505af1158015610c56573d6000803e3d6000fd5b50505050600460009054906101000a900473ffffffffffffffffffffffffffffffffffffffff1673ffffffffffffffffffffffffffffffffffffffff166326e4ca826040518163ffffffff1660e01b815260040160206040518083038186803b158015610cc257600080fd5b505afa158015610cd6573d6000803e3d6000fd5b505050506040513d601f19601f82011682018060405250810190610cfa9190612961565b73ffffffffffffffffffffffffffffffffffffffff166363441ab2306040518263ffffffff1660e01b8152600401610d32919061331f565b600060405180830381600087803b158015610d4c57600080fd5b505af1158015610d60573d6000803e3d6000fd5b505050505b50565b6000600580549050905090565b610d7e33611f88565b15610d9b578060019080519060200190610d999291906125b7565b505b50565b610da6612645565b610dae612645565b60008060005b60085481108015610dc55750600a83105b15610f21576007600060018301815260200190815260200160002060020160009054906101000a900460ff1680610dfa575085155b15610f1457868310610f0b576007600060018301815260200190815260200160002060405180606001604052908160008201548152602001600182018054600181600116156101000203166002900480601f016020809104026020016040519081016040528092919081815260200182805460018160011615610100020316600290048015610eca5780601f10610e9f57610100808354040283529160200191610eca565b820191906000526020600020905b815481529060010190602001808311610ead57829003601f168201915b505050505081526020016002820160009054906101000a900460ff1615151515815250508483600a8110610efa57fe5b602002018190525081806001019250505b82806001019350505b8080600101915050610db4565b8394505050505092915050565b6000600160085403905090565b60008060005b60098054905081101561101f5760098181548110610f5b57fe5b9060005260206000200160009054906101000a900473ffffffffffffffffffffffffffffffffffffffff1673ffffffffffffffffffffffffffffffffffffffff16630b3090c3856040518263ffffffff1660e01b8152600401610fbe9190613260565b60206040518083038186803b158015610fd657600080fd5b505afa158015610fea573d6000803e3d6000fd5b505050506040513d601f19601f8201168201806040525081019061100e9190612b26565b820191508080600101915050610f41565b5080915050919050565b6000600460009054906101000a900473ffffffffffffffffffffffffffffffffffffffff1673ffffffffffffffffffffffffffffffffffffffff166326e4ca826040518163ffffffff1660e01b815260040160206040518083038186803b15801561109357600080fd5b505afa1580156110a7573d6000803e3d6000fd5b505050506040513d601f19601f820116820180604052508101906110cb9190612961565b73ffffffffffffffffffffffffffffffffffffffff1663ff25025b6040518163ffffffff1660e01b815260040160206040518083038186803b15801561111057600080fd5b505afa158015611124573d6000803e3d6000fd5b505050506040513d601f19601f8201168201806040525081019061114891906129c6565b73ffffffffffffffffffffffffffffffffffffffff16632d441549306040518263ffffffff1660e01b8152600401611180919061321c565b60206040518083038186803b15801561119857600080fd5b505afa1580156111ac573d6000803e3d6000fd5b505050506040513d601f19601f820116820180604052508101906111d09190612b26565b905090565b6111de33611f88565b1561135b576000600860008154809291906001019190505590506000600760008381526020019081526020016000209050818160000181905550828160010190805190602001906112309291906125b7565b5060018160020160006101000a81548160ff021916908315150217905550600460009054906101000a900473ffffffffffffffffffffffffffffffffffffffff1673ffffffffffffffffffffffffffffffffffffffff166326e4ca826040518163ffffffff1660e01b815260040160206040518083038186803b1580156112b657600080fd5b505afa1580156112ca573d6000803e3d6000fd5b505050506040513d601f19601f820116820180604052508101906112ee9190612961565b73ffffffffffffffffffffffffffffffffffffffff166363441ab2306040518263ffffffff1660e01b815260040161132691906132de565b600060405180830381600087803b15801561134057600080fd5b505af1158015611354573d6000803e3d6000fd5b5050505050505b50565b611366612673565b61136e612673565b6000808490505b600380549050811080156113895750600a82105b1561141e576003818154811061139b57fe5b9060005260206000200160009054906101000a900473ffffffffffffffffffffffffffffffffffffffff168383600a81106113d257fe5b602002019073ffffffffffffffffffffffffffffffffffffffff16908173ffffffffffffffffffffffffffffffffffffffff168152505081806001019250508080600101915050611375565b508192505050919050565b6000600380549050905090565b61143f81611f88565b80156114de57506001600281111561145357fe5b8273ffffffffffffffffffffffffffffffffffffffff1663200d2ed26040518163ffffffff1660e01b815260040160206040518083038186803b15801561149957600080fd5b505afa1580156114ad573d6000803e3d6000fd5b505050506040513d601f19601f820116820180604052508101906114d19190612a93565b60028111156114dc57fe5b145b801561159257503073ffffffffffffffffffffffffffffffffffffffff168273ffffffffffffffffffffffffffffffffffffffff1663d1384eb66040518163ffffffff1660e01b815260040160206040518083038186803b15801561154257600080fd5b505afa158015611556573d6000803e3d6000fd5b505050506040513d601f19601f8201168201806040525081019061157a9190612a18565b73ffffffffffffffffffffffffffffffffffffffff16145b15611705576003829080600181540180825580915050600190039060005260206000200160009091909190916101000a81548173ffffffffffffffffffffffffffffffffffffffff021916908373ffffffffffffffffffffffffffffffffffffffff160217905550600460009054906101000a900473ffffffffffffffffffffffffffffffffffffffff1673ffffffffffffffffffffffffffffffffffffffff166326e4ca826040518163ffffffff1660e01b815260040160206040518083038186803b15801561166257600080fd5b505afa158015611676573d6000803e3d6000fd5b505050506040513d601f19601f8201168201806040525081019061169a9190612961565b73ffffffffffffffffffffffffffffffffffffffff166363441ab2306040518263ffffffff1660e01b81526004016116d29190613423565b600060405180830381600087803b1580156116ec57600080fd5b505af1158015611700573d6000803e3d6000fd5b505050505b5050565b600260009054906101000a900473ffffffffffffffffffffffffffffffffffffffff1681565b61173833611f88565b80156117ec57503073ffffffffffffffffffffffffffffffffffffffff168173ffffffffffffffffffffffffffffffffffffffff16634e8ef7536040518163ffffffff1660e01b815260040160206040518083038186803b15801561179c57600080fd5b505afa1580156117b0573d6000803e3d6000fd5b505050506040513d601f19601f820116820180604052508101906117d49190612a18565b73ffffffffffffffffffffffffffffffffffffffff16145b15611b255760005b60098054905081101561195e578173ffffffffffffffffffffffffffffffffffffffff166009828154811061182557fe5b9060005260206000200160009054906101000a900473ffffffffffffffffffffffffffffffffffffffff1673ffffffffffffffffffffffffffffffffffffffff16141561195157600060016009805490500390508082101561190f576009818154811061188e57fe5b9060005260206000200160009054906101000a900473ffffffffffffffffffffffffffffffffffffffff16600983815481106118c657fe5b9060005260206000200160006101000a81548173ffffffffffffffffffffffffffffffffffffffff021916908373ffffffffffffffffffffffffffffffffffffffff1602179055505b600980548061191a57fe5b6001900381819060005260206000200160006101000a81549073ffffffffffffffffffffffffffffffffffffffff02191690559055505b80806001019150506117f4565b50600a60008273ffffffffffffffffffffffffffffffffffffffff1673ffffffffffffffffffffffffffffffffffffffff16815260200190815260200160002060006101000a81549060ff02191690558073ffffffffffffffffffffffffffffffffffffffff1663d90c137e60006040518263ffffffff1660e01b81526004016119e8919061321c565b600060405180830381600087803b158015611a0257600080fd5b505af1158015611a16573d6000803e3d6000fd5b50505050600460009054906101000a900473ffffffffffffffffffffffffffffffffffffffff1673ffffffffffffffffffffffffffffffffffffffff166326e4ca826040518163ffffffff1660e01b815260040160206040518083038186803b158015611a8257600080fd5b505afa158015611a96573d6000803e3d6000fd5b505050506040513d601f19601f82011682018060405250810190611aba9190612961565b73ffffffffffffffffffffffffffffffffffffffff166363441ab2306040518263ffffffff1660e01b8152600401611af29190613360565b600060405180830381600087803b158015611b0c57600080fd5b505af1158015611b20573d6000803e3d6000fd5b505050505b50565b611b3133611f88565b8015611b875750600660008273ffffffffffffffffffffffffffffffffffffffff1673ffffffffffffffffffffffffffffffffffffffff16815260200190815260200160002060009054906101000a900460ff16155b15611d52576005819080600181540180825580915050600190039060005260206000200160009091909190916101000a81548173ffffffffffffffffffffffffffffffffffffffff021916908373ffffffffffffffffffffffffffffffffffffffff1602179055506001600660008373ffffffffffffffffffffffffffffffffffffffff1673ffffffffffffffffffffffffffffffffffffffff16815260200190815260200160002060006101000a81548160ff021916908315150217905550600460009054906101000a900473ffffffffffffffffffffffffffffffffffffffff1673ffffffffffffffffffffffffffffffffffffffff166326e4ca826040518163ffffffff1660e01b815260040160206040518083038186803b158015611caf57600080fd5b505afa158015611cc3573d6000803e3d6000fd5b505050506040513d601f19601f82011682018060405250810190611ce79190612961565b73ffffffffffffffffffffffffffffffffffffffff166363441ab2306040518263ffffffff1660e01b8152600401611d1f919061329d565b600060405180830381600087803b158015611d3957600080fd5b505af1158015611d4d573d6000803e3d6000fd5b505050505b50565b60005481565b611d6433611f88565b15611ec157600060076000858152602001908152602001600020905082816001019080519060200190611d989291906125b7565b50818160020160006101000a81548160ff021916908315150217905550600460009054906101000a900473ffffffffffffffffffffffffffffffffffffffff1673ffffffffffffffffffffffffffffffffffffffff166326e4ca826040518163ffffffff1660e01b815260040160206040518083038186803b158015611e1d57600080fd5b505afa158015611e31573d6000803e3d6000fd5b505050506040513d601f19601f82011682018060405250810190611e559190612961565b73ffffffffffffffffffffffffffffffffffffffff166363441ab2306040518263ffffffff1660e01b8152600401611e8d91906133a1565b600060405180830381600087803b158015611ea757600080fd5b505af1158015611ebb573d6000803e3d6000fd5b50505050505b505050565b611ece612696565b611ed6612696565b60005b600a81108015611eef5750600580549050848201105b15611f7e57600584820181548110611f0357fe5b9060005260206000200160009054906101000a900473ffffffffffffffffffffffffffffffffffffffff168282600a8110611f3a57fe5b602002019073ffffffffffffffffffffffffffffffffffffffff16908173ffffffffffffffffffffffffffffffffffffffff16815250508080600101915050611ed9565b5080915050919050565b6000611f958260006124ef565b9050919050565b611fa4612673565b600460009054906101000a900473ffffffffffffffffffffffffffffffffffffffff1673ffffffffffffffffffffffffffffffffffffffff166326e4ca826040518163ffffffff1660e01b815260040160206040518083038186803b15801561200c57600080fd5b505afa158015612020573d6000803e3d6000fd5b505050506040513d601f19601f820116820180604052508101906120449190612961565b73ffffffffffffffffffffffffffffffffffffffff1663ff25025b6040518163ffffffff1660e01b815260040160206040518083038186803b15801561208957600080fd5b505afa15801561209d573d6000803e3d6000fd5b505050506040513d601f19601f820116820180604052508101906120c191906129c6565b73ffffffffffffffffffffffffffffffffffffffff1663aa5e412730846040518363ffffffff1660e01b81526004016120fb929190613237565b6101406040518083038186803b15801561211457600080fd5b505afa158015612128573d6000803e3d6000fd5b505050506040513d601f19601f8201168201806040525081019061214c9190612937565b9050919050565b61215d3382610755565b1561242a5760005b6005805490508110156122cf578173ffffffffffffffffffffffffffffffffffffffff166005828154811061219657fe5b9060005260206000200160009054906101000a900473ffffffffffffffffffffffffffffffffffffffff1673ffffffffffffffffffffffffffffffffffffffff1614156122c257600060016005805490500390508082101561228057600581815481106121ff57fe5b9060005260206000200160009054906101000a900473ffffffffffffffffffffffffffffffffffffffff166005838154811061223757fe5b9060005260206000200160006101000a81548173ffffffffffffffffffffffffffffffffffffffff021916908373ffffffffffffffffffffffffffffffffffffffff1602179055505b600580548061228b57fe5b6001900381819060005260206000200160006101000a81549073ffffffffffffffffffffffffffffffffffffffff02191690559055505b8080600101915050612165565b50600660008273ffffffffffffffffffffffffffffffffffffffff1673ffffffffffffffffffffffffffffffffffffffff16815260200190815260200160002060006101000a81549060ff0219169055600460009054906101000a900473ffffffffffffffffffffffffffffffffffffffff1673ffffffffffffffffffffffffffffffffffffffff166326e4ca826040518163ffffffff1660e01b815260040160206040518083038186803b15801561238757600080fd5b505afa15801561239b573d6000803e3d6000fd5b505050506040513d601f19601f820116820180604052508101906123bf9190612961565b73ffffffffffffffffffffffffffffffffffffffff166363441ab2306040518263ffffffff1660e01b81526004016123f791906133e2565b600060405180830381600087803b15801561241157600080fd5b505af1158015612425573d6000803e3d6000fd5b505050505b50565b6124356126b9565b61243d6126b9565b60005b600a811080156124565750600980549050848201105b156124e55760098482018154811061246a57fe5b9060005260206000200160009054906101000a900473ffffffffffffffffffffffffffffffffffffffff168282600a81106124a157fe5b602002019073ffffffffffffffffffffffffffffffffffffffff16908173ffffffffffffffffffffffffffffffffffffffff16815250508080600101915050612440565b5080915050919050565b6000600582815481106124fe57fe5b9060005260206000200160009054906101000a900473ffffffffffffffffffffffffffffffffffffffff1673ffffffffffffffffffffffffffffffffffffffff168373ffffffffffffffffffffffffffffffffffffffff161415612565576001905061258e565b6001600580549050038210156125895761258283600184016124ef565b905061258e565b600090505b92915050565b604051806060016040528060008152602001606081526020016000151581525090565b828054600181600116156101000203166002900490600052602060002090601f0160209004810192826125ed5760008555612634565b82601f1061260657805160ff1916838001178555612634565b82800160010185558215612634579182015b82811115612633578251825591602001919060010190612618565b5b50905061264191906126dc565b5090565b604051806101400160405280600a905b61265d612594565b8152602001906001900390816126555790505090565b604051806101400160405280600a90602082028036833780820191505090505090565b604051806101400160405280600a90602082028036833780820191505090505090565b604051806101400160405280600a90602082028036833780820191505090505090565b5b808211156126f55760008160009055506001016126dd565b5090565b6000813590506127088161378f565b92915050565b600082601f83011261271f57600080fd5b600a61273261272d826134d2565b6134a1565b9150818385602084028201111561274857600080fd5b60005b83811015612778578161275e88826127c1565b84526020840193506020830192505060018101905061274b565b5050505092915050565b600081359050612791816137a6565b92915050565b6000815190506127a6816137bd565b92915050565b6000813590506127bb816137d4565b92915050565b6000815190506127d0816137d4565b92915050565b6000815190506127e5816137eb565b92915050565b6000813590506127fa81613802565b92915050565b60008151905061280f81613819565b92915050565b60008135905061282481613830565b92915050565b60008151905061283981613830565b92915050565b60008151905061284e81613840565b92915050565b600082601f83011261286557600080fd5b8135612878612873826134f8565b6134a1565b9150808252602083016020830185838301111561289457600080fd5b61289f838284613726565b50505092915050565b6000813590506128b781613850565b92915050565b6000815190506128cc81613850565b92915050565b6000602082840312156128e457600080fd5b60006128f2848285016126f9565b91505092915050565b6000806040838503121561290e57600080fd5b600061291c858286016126f9565b925050602061292d858286016126f9565b9150509250929050565b6000610140828403121561294a57600080fd5b60006129588482850161270e565b91505092915050565b60006020828403121561297357600080fd5b600061298184828501612797565b91505092915050565b6000806040838503121561299d57600080fd5b60006129ab858286016127ac565b92505060206129bc858286016126f9565b9150509250929050565b6000602082840312156129d857600080fd5b60006129e6848285016127d6565b91505092915050565b600060208284031215612a0157600080fd5b6000612a0f848285016127eb565b91505092915050565b600060208284031215612a2a57600080fd5b6000612a3884828501612800565b91505092915050565b600060208284031215612a5357600080fd5b6000612a6184828501612815565b91505092915050565b600060208284031215612a7c57600080fd5b6000612a8a8482850161282a565b91505092915050565b600060208284031215612aa557600080fd5b6000612ab38482850161283f565b91505092915050565b600060208284031215612ace57600080fd5b600082013567ffffffffffffffff811115612ae857600080fd5b612af484828501612854565b91505092915050565b600060208284031215612b0f57600080fd5b6000612b1d848285016128a8565b91505092915050565b600060208284031215612b3857600080fd5b6000612b46848285016128bd565b91505092915050565b60008060408385031215612b6257600080fd5b6000612b70858286016128a8565b9250506020612b8185828601612782565b9150509250929050565b600080600060608486031215612ba057600080fd5b6000612bae868287016128a8565b935050602084013567ffffffffffffffff811115612bcb57600080fd5b612bd786828701612854565b9250506040612be886828701612782565b9150509250925092565b6000612bfe8383612c4e565b60208301905092915050565b6000612c168383612e04565b60208301905092915050565b6000612c2e8383612e13565b60208301905092915050565b6000612c4683836130b2565b905092915050565b612c57816135f3565b82525050565b612c66816135f3565b82525050565b612c7581613550565b612c7f81846135bb565b9250612c8a82613528565b8060005b83811015612cbb578151612ca28782612bf2565b9650612cad83613587565b925050600181019050612c8e565b505050505050565b612ccc8161355b565b612cd681846135bb565b9250612ce182613532565b8060005b83811015612d12578151612cf98782612c0a565b9650612d0483613594565b925050600181019050612ce5565b505050505050565b612d2381613566565b612d2d81846135bb565b9250612d388261353c565b8060005b83811015612d69578151612d508782612c22565b9650612d5b836135a1565b925050600181019050612d3c565b505050505050565b6000612d7c82613571565b612d8681856135c6565b935083602082028501612d9885613546565b8060005b85811015612dd45784840389528151612db58582612c3a565b9450612dc0836135ae565b925060208a01995050600181019050612d9c565b50829750879550505050505092915050565b612def81613605565b82525050565b612dfe81613605565b82525050565b612e0d816136a8565b82525050565b612e1c816136cc565b82525050565b612e2b816136f0565b82525050565b612e3a81613714565b82525050565b6000612e4b8261357c565b612e5581856135d1565b9350612e65818560208601613735565b612e6e8161376a565b840191505092915050565b6000612e848261357c565b612e8e81856135e2565b9350612e9e818560208601613735565b612ea78161376a565b840191505092915050565b6000612ebf6018836135e2565b91507f4144445f4d4f4449464945525f494e535449545554494f4e00000000000000006000830152602082019050919050565b6000612eff601c836135e2565b91507f4144445f53544146465f4d454d4245525f494e535449545554494f4e000000006000830152602082019050919050565b6000612f3f6017836135e2565b91507f4144445f464143554c54595f494e535449545554494f4e0000000000000000006000830152602082019050919050565b6000612f7f601a836135e2565b91507f52454d4f56455f464143554c54595f494e535449545554494f4e0000000000006000830152602082019050919050565b6000612fbf600b836135e2565b91507f494e535449545554494f4e0000000000000000000000000000000000000000006000830152602082019050919050565b6000612fff601f836135e2565b91507f5550444154455f53544146465f4d454d4245525f494e535449545554494f4e006000830152602082019050919050565b600061303f601b836135e2565b91507f52454d4f56455f4d4f4449464945525f494e535449545554494f4e00000000006000830152602082019050919050565b600061307f601b836135e2565b91507f4144445f43455254494649434154455f494e535449545554494f4e00000000006000830152602082019050919050565b60006060830160008301516130ca6000860182613152565b50602083015184820360208601526130e28282612e40565b91505060408301516130f76040860182612de6565b508091505092915050565b600060608301600083015161311a6000860182613152565b50602083015184820360208601526131328282612e40565b91505060408301516131476040860182612de6565b508091505092915050565b61315b8161369e565b82525050565b61316a8161369e565b82525050565b60006020820190506131856000830184612c5d565b92915050565b6000610140820190506131a16000830184612c6c565b92915050565b6000610140820190506131bd6000830184612cc3565b92915050565b6000610140820190506131d96000830184612d1a565b92915050565b600060208201905081810360008301526131f98184612d71565b905092915050565b60006020820190506132166000830184612df5565b92915050565b60006020820190506132316000830184612e22565b92915050565b600060408201905061324c6000830185612e22565b6132596020830184613161565b9392505050565b60006020820190506132756000830184612e31565b92915050565b600060208201905081810360008301526132958184612e79565b905092915050565b600060608201905081810360008301526132b681612eb2565b905081810360208301526132c981612fb2565b90506132d86040830184612c5d565b92915050565b600060608201905081810360008301526132f781612ef2565b9050818103602083015261330a81612fb2565b90506133196040830184612c5d565b92915050565b6000606082019050818103600083015261333881612f32565b9050818103602083015261334b81612fb2565b905061335a6040830184612c5d565b92915050565b6000606082019050818103600083015261337981612f72565b9050818103602083015261338c81612fb2565b905061339b6040830184612c5d565b92915050565b600060608201905081810360008301526133ba81612ff2565b905081810360208301526133cd81612fb2565b90506133dc6040830184612c5d565b92915050565b600060608201905081810360008301526133fb81613032565b9050818103602083015261340e81612fb2565b905061341d6040830184612c5d565b92915050565b6000606082019050818103600083015261343c81613072565b9050818103602083015261344f81612fb2565b905061345e6040830184612c5d565b92915050565b6000602082019050818103600083015261347e8184613102565b905092915050565b600060208201905061349b6000830184613161565b92915050565b6000604051905081810181811067ffffffffffffffff821117156134c8576134c7613768565b5b8060405250919050565b600067ffffffffffffffff8211156134ed576134ec613768565b5b602082029050919050565b600067ffffffffffffffff82111561351357613512613768565b5b601f19601f8301169050602081019050919050565b6000819050919050565b6000819050919050565b6000819050919050565b6000819050919050565b6000600a9050919050565b6000600a9050919050565b6000600a9050919050565b6000600a9050919050565b600081519050919050565b6000602082019050919050565b6000602082019050919050565b6000602082019050919050565b6000602082019050919050565b600081905092915050565b600081905092915050565b600082825260208201905092915050565b600082825260208201905092915050565b60006135fe8261367e565b9050919050565b60008115159050919050565b600061361c826135f3565b9050919050565b600061362e826135f3565b9050919050565b6000613640826135f3565b9050919050565b6000613652826135f3565b9050919050565b6000613664826135f3565b9050919050565b60008190506136798261377b565b919050565b600073ffffffffffffffffffffffffffffffffffffffff82169050919050565b6000819050919050565b60006136b3826136ba565b9050919050565b60006136c58261367e565b9050919050565b60006136d7826136de565b9050919050565b60006136e98261367e565b9050919050565b60006136fb82613702565b9050919050565b600061370d8261367e565b9050919050565b600061371f8261366b565b9050919050565b82818337600083830152505050565b60005b83811015613753578082015181840152602081019050613738565b83811115613762576000848401525b50505050565bfe5b6000601f19601f8301169050919050565b6004811061378c5761378b613768565b5b50565b613798816135f3565b81146137a357600080fd5b50565b6137af81613605565b81146137ba57600080fd5b50565b6137c681613611565b81146137d157600080fd5b50565b6137dd81613623565b81146137e857600080fd5b50565b6137f481613635565b81146137ff57600080fd5b50565b61380b81613647565b811461381657600080fd5b50565b61382281613659565b811461382d57600080fd5b50565b6004811061383d57600080fd5b50565b6003811061384d57600080fd5b50565b6138598161369e565b811461386457600080fd5b5056fea2646970667358221220429814d3937738c07f5cd71851fc549bfe6c6d447ae1a5d48b705a7ecd161aa564736f6c63430007050033",
  "immutableReferences": {},
  "source": "// SPDX-License-Identifier: GPL-3.0\npragma solidity >=0.5.0 <0.8.4;\npragma abicoder v2;\nenum Degree {\n    ScholarlyAcademics,\n    PracticeAcademics,\n    ScholarlyPractitioner,\n    InstructionalPractitioner\n}\n\ncontract Certificate {\n    enum State {requested, approved, rejected}\n\n    Faculty public faculty;\n    Institution public institution;\n    Degree public degree;\n    State public status = State.requested;\n    CertificatesManager certificatesManager;\n\n    constructor(\n        CertificatesManager _certificatesManager,\n        Faculty _faculty,\n        Institution _institution,\n        Degree _degree\n    ) {\n        certificatesManager = _certificatesManager;\n        faculty = _faculty;\n        institution = _institution;\n        degree = _degree;\n    }\n\n    function reject() public payable {\n        if (editable(msg.sender)) {\n            status = State.rejected;\n            certificatesManager\n                .application()\n                .certificatesManager()\n                .removeCertificate(this);\n            certificatesManager.application().emitEvent(\n                \"REJEcT_CERTIFICATE\",\n                \"CERTIFICATE\",\n                address(this)\n            );\n        }\n    }\n\n    function approve() public payable {\n        if (editable(msg.sender)) {\n            status = State.approved;\n            faculty.addCertificate(this, msg.sender);\n            institution.addCertificate(this, msg.sender);\n            certificatesManager\n                .application()\n                .certificatesManager()\n                .removeCertificate(this);\n            certificatesManager.application().emitEvent(\n                \"APPROVE_CERTIFICATE\",\n                \"CERTIFICATE\",\n                address(this)\n            );\n        }\n    }\n\n    function editable(address _address) public view returns (bool) {\n        return status == State.requested && institution.allowed(_address);\n    }\n}\n\ncontract Faculty {\n    uint256 id;\n    string public name;\n    address public owner;\n    Certificate[] public certificates;\n    Institution public currentInstitution;\n    FacultiesManager facultiesManager;\n\n    constructor(\n        FacultiesManager _facultiesManager,\n        uint256 _id,\n        string memory _name,\n        address _owner\n    ) {\n        facultiesManager = _facultiesManager;\n        name = _name;\n        id = _id;\n        owner = _owner;\n    }\n\n    function countIssuesCertificateByDegree(Degree degree)\n        public\n        view\n        returns (uint256)\n    {\n        uint256 count;\n        for (uint256 x = 0; x < certificates.length; x++) {\n            if (Certificate(certificates[x]).degree() == degree) {\n                count++;\n            }\n        }\n        return count;\n    }\n\n    function update(string memory _name) public payable {\n        if (allowed(msg.sender)) {\n            name = _name;\n            facultiesManager.application().emitEvent(\n                \"UPDATE_FACULTY\",\n                \"FACULTY\",\n                address(this)\n            );\n        }\n    }\n\n    function assignInstitution(Institution _institution) public payable {\n        if (\n            address(_institution) == msg.sender ||\n            address(currentInstitution) == msg.sender\n        ) {\n            currentInstitution = _institution;\n            facultiesManager.application().emitEvent(\n                \"ASSIGN_INSTITUION\",\n                \"FACULTY\",\n                address(this)\n            );\n        }\n    }\n\n    function allowed(address _address) public view returns (bool) {\n        return _address == owner;\n    }\n\n    function addCertificate(Certificate _certificate, address _address)\n        public\n        payable\n    {\n        if (\n            _certificate.institution().allowed(_address) &&\n            _certificate.status() == Certificate.State.approved &&\n            _certificate.faculty() == this\n        ) {\n            certificates.push(_certificate);\n            facultiesManager.application().emitEvent(\n                \"ADD_CERTIFICATE\",\n                \"FACULTY\",\n                address(this)\n            );\n        }\n    }\n\n    function certificatesLength() public view returns (uint256) {\n        return certificates.length;\n    }\n\n    function listCertificates(uint256 _from)\n        public\n        view\n        returns (Certificate[10] memory)\n    {\n        Certificate[10] memory list;\n        for (uint256 i = 0; i < 10 && i + _from < certificates.length; i++) {\n            list[i] = certificates[i + _from];\n        }\n        return list;\n    }\n\n    function pendingCertificatesLength() public view returns (uint256) {\n        return\n            facultiesManager\n                .application()\n                .certificatesManager()\n                .pendingCertificatesLengthForFaculty(this);\n    }\n\n    function pendingCertificates(uint256 _from)\n        public\n        view\n        returns (Certificate[10] memory)\n    {\n        return\n            facultiesManager\n                .application()\n                .certificatesManager()\n                .pendingCertificatesForFaculty(this, _from);\n    }\n}\n\ncontract Institution {\n    struct StaffMember {\n        uint256 id;\n        string name;\n        bool active;\n    }\n\n    uint256 public id;\n    string public name;\n    address public owner;\n\n    Certificate[] certificates;\n    InstituionsManager instituionsManager;\n    address[] public allowedModifiers;\n    mapping(address => bool) allowedModifiersMap;\n\n    mapping(uint256 => StaffMember) staffMembers;\n    uint256 nextStaffMembersId = 1;\n\n    Faculty[] faculties;\n    mapping(Faculty => bool) facultiesMap;\n\n    constructor(\n        InstituionsManager _instituionsManager,\n        uint256 _id,\n        string memory _name,\n        address sender\n    ) {\n        instituionsManager = _instituionsManager;\n        id = _id;\n        name = _name;\n        owner = sender;\n        allowedModifiers.push(sender);\n        allowedModifiersMap[sender] = true;\n    }\n\n    function countIssuesCertificateByDegree(Degree degree)\n        public\n        view\n        returns (uint256)\n    {\n        uint256 count;\n        for (uint256 x = 0; x < certificates.length; x++) {\n            if (Certificate(certificates[x]).degree() == degree) {\n                count++;\n            }\n        }\n        return count;\n    }\n\n    function countFacultiesCertificateByDegree(Degree degree)\n        public\n        view\n        returns (uint256)\n    {\n        uint256 _count;\n        for (uint256 x = 0; x < faculties.length; x++) {\n            _count += Faculty(faculties[x]).countIssuesCertificateByDegree(\n                degree\n            );\n        }\n        return _count;\n    }\n\n    function update(string memory _name) public payable {\n        if (allowed(msg.sender)) {\n            name = _name;\n        }\n    }\n\n    function staffMember(uint256 _from)\n        public\n        view\n        returns (StaffMember memory)\n    {\n        return staffMembers[_from];\n    }\n\n    function listStaffMembers(uint256 _from, bool skipInactive)\n        public\n        view\n        returns (StaffMember[10] memory)\n    {\n        StaffMember[10] memory list;\n        uint256 _count = 0;\n        uint256 _list_index = 0;\n        uint256 _i = 0;\n        while (_i < nextStaffMembersId && _count < 10) {\n            if (staffMembers[_i + 1].active || !skipInactive) {\n                if (_count >= _from) {\n                    list[_list_index] = staffMembers[_i + 1];\n                    _list_index++;\n                }\n                _count++;\n            }\n            _i++;\n        }\n        return list;\n    }\n\n    function staffMembersLength() public view returns (uint256) {\n        return nextStaffMembersId - 1;\n    }\n\n    function createStaffMember(string memory _name) public payable {\n        if (allowed(msg.sender)) {\n            uint256 _nextStaffMemberId = nextStaffMembersId++;\n            StaffMember storage _staffMember = staffMembers[_nextStaffMemberId];\n            _staffMember.id = _nextStaffMemberId;\n            _staffMember.name = _name;\n            _staffMember.active = true;\n            instituionsManager.application().emitEvent(\n                \"ADD_STAFF_MEMBER_INSTITUTION\",\n                \"INSTITUTION\",\n                address(this)\n            );\n        }\n    }\n\n    function updateStaffMember(\n        uint256 _staffMemberId,\n        string memory _name,\n        bool _active\n    ) public payable {\n        if (allowed(msg.sender)) {\n            StaffMember storage _staffMember = staffMembers[_staffMemberId];\n            _staffMember.name = _name;\n            _staffMember.active = _active;\n            instituionsManager.application().emitEvent(\n                \"UPDATE_STAFF_MEMBER_INSTITUTION\",\n                \"INSTITUTION\",\n                address(this)\n            );\n        }\n    }\n\n    function listModifiers(uint256 _from)\n        public\n        view\n        returns (address[10] memory)\n    {\n        address[10] memory list;\n        for (\n            uint256 i = 0;\n            i < 10 && i + _from < allowedModifiers.length;\n            i++\n        ) {\n            list[i] = allowedModifiers[i + _from];\n        }\n        return list;\n    }\n\n    function modifiersLength() public view returns (uint256) {\n        return allowedModifiers.length;\n    }\n\n    function addModifier(address _modifier) public payable {\n        if (allowed(msg.sender) && !allowedModifiersMap[_modifier]) {\n            allowedModifiers.push(_modifier);\n            allowedModifiersMap[_modifier] = true;\n            instituionsManager.application().emitEvent(\n                \"ADD_MODIFIER_INSTITUTION\",\n                \"INSTITUTION\",\n                address(this)\n            );\n        }\n    }\n\n    function removeModifier(address _modifier) public payable {\n        if (allowedToRemove(msg.sender, _modifier)) {\n            for (uint256 i = 0; i < allowedModifiers.length; i++) {\n                if (allowedModifiers[i] == _modifier) {\n                    uint256 _lastIndex = allowedModifiers.length - 1;\n                    if (i < _lastIndex) {\n                        allowedModifiers[i] = allowedModifiers[_lastIndex];\n                    }\n                    allowedModifiers.pop();\n                }\n            }\n            delete allowedModifiersMap[_modifier];\n            instituionsManager.application().emitEvent(\n                \"REMOVE_MODIFIER_INSTITUTION\",\n                \"INSTITUTION\",\n                address(this)\n            );\n        }\n    }\n\n    function allowedToRemove(address _sender, address _toRemove)\n        public\n        view\n        returns (bool)\n    {\n        if (allowed(_sender)) {\n            if (_sender == _toRemove) {\n                return false;\n            } else if (_toRemove == owner) {\n                return false;\n            } else {\n                return true;\n            }\n        } else {\n            return false;\n        }\n    }\n\n    function allowed(address _modifierAddress) public view returns (bool) {\n        return allowed(_modifierAddress, 0);\n    }\n\n    function allowed(address modifierAddress, uint256 index)\n        private\n        view\n        returns (bool)\n    {\n        if (modifierAddress == allowedModifiers[index]) {\n            return true;\n        } else if (index < allowedModifiers.length - 1) {\n            return allowed(modifierAddress, index + 1);\n        } else {\n            return false;\n        }\n    }\n\n    function addCertificate(Certificate _certificate, address _address)\n        public\n        payable\n    {\n        if (\n            allowed(_address) &&\n            _certificate.status() == Certificate.State.approved &&\n            _certificate.institution() == this\n        ) {\n            certificates.push(_certificate);\n            instituionsManager.application().emitEvent(\n                \"ADD_CERTIFICATE_INSTITUTION\",\n                \"INSTITUTION\",\n                address(this)\n            );\n        }\n    }\n\n    function issuedCertificates(uint256 _from)\n        public\n        view\n        returns (Certificate[10] memory)\n    {\n        Certificate[10] memory _list;\n        uint256 _count = 0;\n        for (uint256 i = _from; i < certificates.length && _count < 10; i++) {\n            _list[_count] = certificates[i];\n            _count++;\n        }\n        return _list;\n    }\n\n    function issuedCertificatesLength() public view returns (uint256) {\n        return certificates.length;\n    }\n\n    function pendingCertificatesLength() public view returns (uint256) {\n        return\n            instituionsManager\n                .application()\n                .certificatesManager()\n                .pendingCertificatesLengthForInstitution(this);\n    }\n\n    function pendingCertificates(uint256 _from)\n        public\n        view\n        returns (Certificate[10] memory)\n    {\n        return\n            instituionsManager\n                .application()\n                .certificatesManager()\n                .pendingCertificatesForInstitution(this, _from);\n    }\n\n    function listFaculties(uint256 _from)\n        public\n        view\n        returns (Faculty[10] memory)\n    {\n        Faculty[10] memory list;\n        for (uint256 i = 0; i < 10 && i + _from < faculties.length; i++) {\n            list[i] = faculties[i + _from];\n        }\n        return list;\n    }\n\n    function facultiesLength() public view returns (uint256) {\n        return faculties.length;\n    }\n\n    function addFaculty(Faculty _faculty) public payable {\n        if (\n            allowed(msg.sender) &&\n            _faculty.currentInstitution() == Institution(0) &&\n            !facultiesMap[_faculty]\n        ) {\n            faculties.push(_faculty);\n            facultiesMap[_faculty] = true;\n            _faculty.assignInstitution(this);\n            instituionsManager.application().emitEvent(\n                \"ADD_FACULTY_INSTITUTION\",\n                \"INSTITUTION\",\n                address(this)\n            );\n        }\n    }\n\n    function removeFaculty(Faculty _faculty) public payable {\n        if (allowed(msg.sender) && _faculty.currentInstitution() == this) {\n            for (uint256 i = 0; i < faculties.length; i++) {\n                if (faculties[i] == _faculty) {\n                    uint256 _lastIndex = faculties.length - 1;\n                    if (i < _lastIndex) {\n                        faculties[i] = faculties[_lastIndex];\n                    }\n                    faculties.pop();\n                }\n            }\n            delete facultiesMap[_faculty];\n            _faculty.assignInstitution(Institution(0));\n            instituionsManager.application().emitEvent(\n                \"REMOVE_FACULTY_INSTITUTION\",\n                \"INSTITUTION\",\n                address(this)\n            );\n        }\n    }\n}\n\ncontract CertificatesManager {\n    Certificate[] pendingCertificates;\n    Application public application;\n\n    constructor(Application _application) {\n        application = _application;\n    }\n\n    function requestCertificate(\n        Faculty _faculty,\n        Institution _institution,\n        Degree _degree\n    ) public payable {\n        Certificate _certificate =\n            new Certificate(this, _faculty, _institution, _degree);\n        pendingCertificates.push(_certificate);\n        application.emitEvent(\n            \"REQUEST_CERTIFICATE\",\n            \"INSTITUTION\",\n            address(_institution)\n        );\n        application.emitEvent(\n            \"REQUEST_CERTIFICATE\",\n            \"FACULTY\",\n            address(_faculty)\n        );\n    }\n\n    function removeCertificate(Certificate _certificate) public payable {\n        for (uint256 i = 0; i < pendingCertificates.length; i++) {\n            if (pendingCertificates[i] == _certificate) {\n                uint256 _lastIndex = pendingCertificates.length - 1;\n                if (i < _lastIndex) {\n                    pendingCertificates[i] = pendingCertificates[_lastIndex];\n                }\n                pendingCertificates.pop();\n            }\n        }\n        application.emitEvent(\n            \"CERTIFICATE_REMOVE\",\n            \"INSTITUTION\",\n            address(_certificate.institution())\n        );\n        application.emitEvent(\n            \"CERTIFICATE_REMOVE\",\n            \"FACULTY\",\n            address(_certificate.faculty())\n        );\n    }\n\n    function pendingCertificatesLengthForFaculty(Faculty _faculty)\n        public\n        view\n        returns (uint256)\n    {\n        uint256 _count = 0;\n        for (uint256 i = 0; i < pendingCertificates.length; i++) {\n            if (pendingCertificates[i].faculty() == _faculty) {\n                _count++;\n            }\n        }\n        return _count;\n    }\n\n    function pendingCertificatesForFaculty(Faculty _faculty, uint256 _from)\n        public\n        view\n        returns (Certificate[10] memory)\n    {\n        Certificate[10] memory _list;\n        uint256 _count = 0;\n        uint256 _toSkip = 0;\n        for (\n            uint256 i = 0;\n            i < pendingCertificates.length && _count < 10;\n            i++\n        ) {\n            if (pendingCertificates[i].faculty() == _faculty) {\n                if (_toSkip >= _from) {\n                    _list[_count] = pendingCertificates[i];\n                    _count++;\n                } else {\n                    _toSkip++;\n                }\n            }\n        }\n        return _list;\n    }\n\n    function pendingCertificatesLengthForInstitution(Institution _institution)\n        public\n        view\n        returns (uint256)\n    {\n        uint256 _count = 0;\n        for (uint256 i = 0; i < pendingCertificates.length; i++) {\n            if (pendingCertificates[i].institution() == _institution) {\n                _count++;\n            }\n        }\n        return _count;\n    }\n\n    function pendingCertificatesForInstitution(\n        Institution _institution,\n        uint256 _from\n    ) public view returns (Certificate[10] memory) {\n        Certificate[10] memory _list;\n        uint256 _count = 0;\n        uint256 _toSkip = 0;\n        for (\n            uint256 i = 0;\n            i < pendingCertificates.length && _count < 10;\n            i++\n        ) {\n            if (pendingCertificates[i].institution() == _institution) {\n                if (_toSkip >= _from) {\n                    _list[_count] = pendingCertificates[i];\n                    _count++;\n                } else {\n                    _toSkip++;\n                }\n            }\n        }\n        return _list;\n    }\n}\n\ncontract FacultiesManager {\n    Application public application;\n    mapping(address => Faculty) public faculties;\n    mapping(uint256 => Faculty) facultiesByIndex;\n    uint256 nextFacultyId = 0;\n\n    constructor(Application _application) {\n        application = _application;\n    }\n\n    function facultiesLength() public view returns (uint256) {\n        return nextFacultyId;\n    }\n\n    function createFaculty(string memory _name) public payable {\n        if (address(faculties[msg.sender]) == address(0x0)) {\n            uint256 _id = nextFacultyId++;\n            Faculty faculty = new Faculty(this, _id, _name, msg.sender);\n            facultiesByIndex[_id] = faculty;\n            faculties[msg.sender] = faculty;\n            application.emitEvent(\n                \"CREATE_FACULTY\",\n                \"FACULTY\",\n                address(faculty)\n            );\n        }\n    }\n\n    function listFaculties(uint256 _from)\n        public\n        view\n        returns (Faculty[10] memory)\n    {\n        Faculty[10] memory list;\n        for (uint256 i = 0; i < 10; i++) {\n            list[i] = facultiesByIndex[i + _from];\n        }\n        return list;\n    }\n}\n\ncontract InstituionsManager {\n    Application public application;\n    mapping(uint256 => Institution) public institutions;\n    uint256 nextInstitutionId = 0;\n\n    constructor(Application _application) {\n        application = _application;\n    }\n\n    function institutionsLength() public view returns (uint256) {\n        return nextInstitutionId;\n    }\n\n    function createInstitution(string memory _name) public payable {\n        uint256 _id = nextInstitutionId++;\n        Institution _institution =\n            new Institution(this, _id, _name, msg.sender);\n        institutions[_id] = _institution;\n        application.emitEvent(\n            \"CREATE_INSTITUTION\",\n            \"INSTITUTION\",\n            address(_institution)\n        );\n    }\n\n    function listInstitutions(uint256 _from)\n        public\n        view\n        returns (Institution[10] memory)\n    {\n        Institution[10] memory list;\n        for (uint256 i = 0; i < 10; i++) {\n            list[i] = institutions[i + _from];\n        }\n        return list;\n    }\n}\n\ncontract Application {\n    /*\n    Application is the root contract that the UI will use to interact with sub contracts \n    */\n    CertificatesManager public certificatesManager;\n    FacultiesManager public facultiesManager;\n    InstituionsManager public instituionsManager;\n    event ApplicationEvent(\n        string eventType,\n        string targetType,\n        address targetAddress\n    );\n\n    constructor() {\n        certificatesManager = new CertificatesManager(this);\n        facultiesManager = new FacultiesManager(this);\n        instituionsManager = new InstituionsManager(this);\n    }\n\n    function emitEvent(\n        string memory eventType,\n        string memory targetType,\n        address targetAddress\n    ) public payable {\n        emit ApplicationEvent(eventType, targetType, targetAddress);\n    }\n}\n",
  "sourcePath": "/home/mortada/Projects/aacsb_accreditiation/contracts/Application.sol",
  "compiler": {
    "name": "solc",
    "version": "0.7.5+commit.eb77ed08.Emscripten.clang"
  },
  "schemaVersion": "3.3.4",
  "updatedAt": "2021-04-15T02:36:17.211Z",
  "devdoc": {
    "kind": "dev",
    "methods": {},
    "version": 1
  },
  "userdoc": {
    "kind": "user",
    "methods": {},
    "version": 1
  }
}