{
  "contractName": "Institution",
  "abi": [
    {
      "inputs": [
        {
          "internalType": "uint256",
          "name": "_id",
          "type": "uint256"
        },
        {
          "internalType": "string",
          "name": "_name",
          "type": "string"
        },
        {
          "internalType": "address",
          "name": "sender",
          "type": "address"
        }
      ],
      "stateMutability": "nonpayable",
      "type": "constructor"
    },
    {
      "anonymous": false,
      "inputs": [
        {
          "indexed": false,
          "internalType": "address",
          "name": "by",
          "type": "address"
        },
        {
          "indexed": false,
          "internalType": "address",
          "name": "modifierAddress",
          "type": "address"
        }
      ],
      "name": "ModifierAdded",
      "type": "event"
    },
    {
      "anonymous": false,
      "inputs": [
        {
          "indexed": false,
          "internalType": "address",
          "name": "by",
          "type": "address"
        },
        {
          "indexed": false,
          "internalType": "address",
          "name": "modifierAddress",
          "type": "address"
        }
      ],
      "name": "ModifierRemoved",
      "type": "event"
    },
    {
      "inputs": [
        {
          "internalType": "uint256",
          "name": "",
          "type": "uint256"
        }
      ],
      "name": "allowedModifiers",
      "outputs": [
        {
          "internalType": "address",
          "name": "",
          "type": "address"
        }
      ],
      "stateMutability": "view",
      "type": "function"
    },
    {
      "inputs": [],
      "name": "id",
      "outputs": [
        {
          "internalType": "uint256",
          "name": "",
          "type": "uint256"
        }
      ],
      "stateMutability": "view",
      "type": "function"
    },
    {
      "inputs": [
        {
          "internalType": "uint256",
          "name": "",
          "type": "uint256"
        }
      ],
      "name": "issuedCertificates",
      "outputs": [
        {
          "internalType": "contract Certificate",
          "name": "",
          "type": "address"
        }
      ],
      "stateMutability": "view",
      "type": "function"
    },
    {
      "inputs": [],
      "name": "name",
      "outputs": [
        {
          "internalType": "string",
          "name": "",
          "type": "string"
        }
      ],
      "stateMutability": "view",
      "type": "function"
    },
    {
      "inputs": [],
      "name": "owner",
      "outputs": [
        {
          "internalType": "address",
          "name": "",
          "type": "address"
        }
      ],
      "stateMutability": "view",
      "type": "function"
    },
    {
      "inputs": [
        {
          "internalType": "string",
          "name": "_name",
          "type": "string"
        }
      ],
      "name": "update",
      "outputs": [],
      "stateMutability": "payable",
      "type": "function"
    },
    {
      "inputs": [
        {
          "internalType": "string",
          "name": "_name",
          "type": "string"
        }
      ],
      "name": "createDepartment",
      "outputs": [],
      "stateMutability": "payable",
      "type": "function"
    },
    {
      "inputs": [
        {
          "internalType": "uint256",
          "name": "_departmentId",
          "type": "uint256"
        },
        {
          "internalType": "string",
          "name": "_name",
          "type": "string"
        }
      ],
      "name": "updateDepartment",
      "outputs": [],
      "stateMutability": "payable",
      "type": "function"
    },
    {
      "inputs": [
        {
          "internalType": "uint256",
          "name": "_from",
          "type": "uint256"
        }
      ],
      "name": "department",
      "outputs": [
        {
          "components": [
            {
              "internalType": "uint256",
              "name": "id",
              "type": "uint256"
            },
            {
              "internalType": "string",
              "name": "name",
              "type": "string"
            }
          ],
          "internalType": "struct Institution.PublicDepartment",
          "name": "",
          "type": "tuple"
        }
      ],
      "stateMutability": "view",
      "type": "function"
    },
    {
      "inputs": [
        {
          "internalType": "uint256",
          "name": "_from",
          "type": "uint256"
        }
      ],
      "name": "listDepartments",
      "outputs": [
        {
          "components": [
            {
              "internalType": "uint256",
              "name": "id",
              "type": "uint256"
            },
            {
              "internalType": "string",
              "name": "name",
              "type": "string"
            }
          ],
          "internalType": "struct Institution.PublicDepartment[10]",
          "name": "",
          "type": "tuple[10]"
        }
      ],
      "stateMutability": "view",
      "type": "function"
    },
    {
      "inputs": [],
      "name": "departmentsLength",
      "outputs": [
        {
          "internalType": "uint256",
          "name": "",
          "type": "uint256"
        }
      ],
      "stateMutability": "view",
      "type": "function"
    },
    {
      "inputs": [
        {
          "internalType": "uint256",
          "name": "_from",
          "type": "uint256"
        }
      ],
      "name": "staffMember",
      "outputs": [
        {
          "components": [
            {
              "internalType": "uint256",
              "name": "id",
              "type": "uint256"
            },
            {
              "internalType": "string",
              "name": "name",
              "type": "string"
            },
            {
              "internalType": "uint256",
              "name": "departmentId",
              "type": "uint256"
            },
            {
              "internalType": "bool",
              "name": "active",
              "type": "bool"
            }
          ],
          "internalType": "struct Institution.StaffMember",
          "name": "",
          "type": "tuple"
        }
      ],
      "stateMutability": "view",
      "type": "function"
    },
    {
      "inputs": [
        {
          "internalType": "uint256",
          "name": "_from",
          "type": "uint256"
        },
        {
          "internalType": "bool",
          "name": "skipInactive",
          "type": "bool"
        }
      ],
      "name": "listStaffMembers",
      "outputs": [
        {
          "components": [
            {
              "internalType": "uint256",
              "name": "id",
              "type": "uint256"
            },
            {
              "internalType": "string",
              "name": "name",
              "type": "string"
            },
            {
              "internalType": "uint256",
              "name": "departmentId",
              "type": "uint256"
            },
            {
              "internalType": "bool",
              "name": "active",
              "type": "bool"
            }
          ],
          "internalType": "struct Institution.StaffMember[10]",
          "name": "",
          "type": "tuple[10]"
        }
      ],
      "stateMutability": "view",
      "type": "function"
    },
    {
      "inputs": [
        {
          "internalType": "uint256",
          "name": "_from",
          "type": "uint256"
        }
      ],
      "name": "listStaffMembers",
      "outputs": [
        {
          "components": [
            {
              "internalType": "uint256",
              "name": "id",
              "type": "uint256"
            },
            {
              "internalType": "string",
              "name": "name",
              "type": "string"
            },
            {
              "internalType": "uint256",
              "name": "departmentId",
              "type": "uint256"
            },
            {
              "internalType": "bool",
              "name": "active",
              "type": "bool"
            }
          ],
          "internalType": "struct Institution.StaffMember[10]",
          "name": "",
          "type": "tuple[10]"
        }
      ],
      "stateMutability": "view",
      "type": "function"
    },
    {
      "inputs": [],
      "name": "staffMembersLength",
      "outputs": [
        {
          "internalType": "uint256",
          "name": "",
          "type": "uint256"
        }
      ],
      "stateMutability": "view",
      "type": "function"
    },
    {
      "inputs": [
        {
          "internalType": "string",
          "name": "_name",
          "type": "string"
        },
        {
          "internalType": "uint256",
          "name": "_departmentId",
          "type": "uint256"
        }
      ],
      "name": "createStaffMember",
      "outputs": [],
      "stateMutability": "payable",
      "type": "function"
    },
    {
      "inputs": [
        {
          "internalType": "uint256",
          "name": "_staffMemberId",
          "type": "uint256"
        },
        {
          "internalType": "string",
          "name": "_name",
          "type": "string"
        },
        {
          "internalType": "uint256",
          "name": "_departmentId",
          "type": "uint256"
        },
        {
          "internalType": "bool",
          "name": "_active",
          "type": "bool"
        }
      ],
      "name": "updateStaffMember",
      "outputs": [],
      "stateMutability": "payable",
      "type": "function"
    },
    {
      "inputs": [
        {
          "internalType": "uint256",
          "name": "_from",
          "type": "uint256"
        }
      ],
      "name": "listModifiers",
      "outputs": [
        {
          "internalType": "address[10]",
          "name": "",
          "type": "address[10]"
        }
      ],
      "stateMutability": "view",
      "type": "function"
    },
    {
      "inputs": [
        {
          "internalType": "address",
          "name": "_modifier",
          "type": "address"
        }
      ],
      "name": "addModifier",
      "outputs": [],
      "stateMutability": "payable",
      "type": "function"
    },
    {
      "inputs": [
        {
          "internalType": "address",
          "name": "_modifier",
          "type": "address"
        }
      ],
      "name": "removeModifier",
      "outputs": [],
      "stateMutability": "payable",
      "type": "function"
    },
    {
      "inputs": [
        {
          "internalType": "address",
          "name": "_sender",
          "type": "address"
        },
        {
          "internalType": "address",
          "name": "_toRemove",
          "type": "address"
        }
      ],
      "name": "allowedToRemove",
      "outputs": [
        {
          "internalType": "bool",
          "name": "",
          "type": "bool"
        }
      ],
      "stateMutability": "view",
      "type": "function"
    },
    {
      "inputs": [
        {
          "internalType": "address",
          "name": "_modifierAddress",
          "type": "address"
        }
      ],
      "name": "allowed",
      "outputs": [
        {
          "internalType": "bool",
          "name": "",
          "type": "bool"
        }
      ],
      "stateMutability": "view",
      "type": "function"
    },
    {
      "inputs": [
        {
          "internalType": "contract Certificate",
          "name": "_certificate",
          "type": "address"
        }
      ],
      "name": "addCertificate",
      "outputs": [],
      "stateMutability": "payable",
      "type": "function"
    }
  ],
  "bytecode": "0x6080604052600160075560016009556000600b553480156200002057600080fd5b50604051620025c4380380620025c48339818101604052810190620000469190620002ab565b826000819055508160019080519060200190620000659291906200016b565b5080600260006101000a81548173ffffffffffffffffffffffffffffffffffffffff021916908373ffffffffffffffffffffffffffffffffffffffff1602179055506004819080600181540180825580915050600190039060005260206000200160009091909190916101000a81548173ffffffffffffffffffffffffffffffffffffffff021916908373ffffffffffffffffffffffffffffffffffffffff1602179055506001600560008373ffffffffffffffffffffffffffffffffffffffff1673ffffffffffffffffffffffffffffffffffffffff16815260200190815260200160002060006101000a81548160ff0219169083151502179055505050506200042b565b828054600181600116156101000203166002900490600052602060002090601f016020900481019282620001a35760008555620001ef565b82601f10620001be57805160ff1916838001178555620001ef565b82800160010185558215620001ef579182015b82811115620001ee578251825591602001919060010190620001d1565b5b509050620001fe919062000202565b5090565b5b808211156200021d57600081600090555060010162000203565b5090565b6000815190506200023281620003f7565b92915050565b600082601f8301126200024a57600080fd5b8151620002616200025b826200034e565b6200031a565b915080825260208301602083018583830111156200027e57600080fd5b6200028b838284620003bf565b50505092915050565b600081519050620002a58162000411565b92915050565b600080600060608486031215620002c157600080fd5b6000620002d18682870162000294565b935050602084015167ffffffffffffffff811115620002ef57600080fd5b620002fd8682870162000238565b9250506040620003108682870162000221565b9150509250925092565b6000604051905081810181811067ffffffffffffffff82111715620003445762000343620003f5565b5b8060405250919050565b600067ffffffffffffffff8211156200036c576200036b620003f5565b5b601f19601f8301169050602081019050919050565b60006200038e8262000395565b9050919050565b600073ffffffffffffffffffffffffffffffffffffffff82169050919050565b6000819050919050565b60005b83811015620003df578082015181840152602081019050620003c2565b83811115620003ef576000848401525b50505050565bfe5b620004028162000381565b81146200040e57600080fd5b50565b6200041c81620003b5565b81146200042857600080fd5b50565b612189806200043b6000396000f3fe6080604052600436106101405760003560e01c80637c6ebde9116100b6578063c52f15df1161006f578063c52f15df14610432578063d2e3f3b71461046f578063d63a8e11146104ac578063e06d7d9b146104e9578063eafb96bd14610505578063fd2d6c3b1461052157610140565b80637c6ebde91461034b57806384b64535146103675780638da5cb5b146103a45780638f8b3a15146103cf578063a013fe30146103eb578063af640d0f1461040757610140565b80631b7b8dac116101085780631b7b8dac14610231578063262e025b1461024d5780633d7403a31461028a5780634225674d146102a657806344e538ae146102e35780636bd5b6941461030e57610140565b8063068d81741461014557806306fdde031461018257806308e0018b146101ad5780630c3935b2146101ea578063103d79f314610206575b600080fd5b34801561015157600080fd5b5061016c60048036038101906101679190611866565b61055e565b6040516101799190611d45565b60405180910390f35b34801561018e57600080fd5b5061019761059d565b6040516101a49190611e1f565b60405180910390f35b3480156101b957600080fd5b506101d460048036038101906101cf919061171a565b61063b565b6040516101e19190611de9565b60405180910390f35b61020460048036038101906101ff919061191f565b6106fb565b005b34801561021257600080fd5b5061021b610766565b6040516102289190611e85565b60405180910390f35b61024b600480360381019061024691906117d1565b610773565b005b34801561025957600080fd5b50610274600480360381019061026f9190611866565b6107df565b6040516102819190611e63565b60405180910390f35b6102a4600480360381019061029f91906117d1565b6108dd565b005b3480156102b257600080fd5b506102cd60048036038101906102c8919061188f565b610906565b6040516102da9190611dc7565b60405180910390f35b3480156102ef57600080fd5b506102f8610aaa565b6040516103059190611e85565b60405180910390f35b34801561031a57600080fd5b5061033560048036038101906103309190611866565b610ab7565b6040516103429190611e04565b60405180910390f35b61036560048036038101906103609190611756565b610af6565b005b34801561037357600080fd5b5061038e60048036038101906103899190611866565b610cbe565b60405161039b9190611e41565b60405180910390f35b3480156103b057600080fd5b506103b9610da6565b6040516103c69190611d45565b60405180910390f35b6103e960048036038101906103e491906118cb565b610dcc565b005b610405600480360381019061040091906116f1565b610e10565b005b34801561041357600080fd5b5061041c610f6c565b6040516104299190611e85565b60405180910390f35b34801561043e57600080fd5b5061045960048036038101906104549190611866565b610f72565b6040516104669190611dc7565b60405180910390f35b34801561047b57600080fd5b5061049660048036038101906104919190611866565b610f8c565b6040516104a39190611d89565b60405180910390f35b3480156104b857600080fd5b506104d360048036038101906104ce91906116f1565b61103c565b6040516104e09190611de9565b60405180910390f35b61050360048036038101906104fe9190611812565b611050565b005b61051f600480360381019061051a91906116f1565b6110d9565b005b34801561052d57600080fd5b5061054860048036038101906105439190611866565b6112e2565b6040516105559190611da5565b60405180910390f35b6004818154811061056e57600080fd5b906000526020600020016000915054906101000a900473ffffffffffffffffffffffffffffffffffffffff1681565b60018054600181600116156101000203166002900480601f0160208091040260200160405190810160405280929190818152602001828054600181600116156101000203166002900480156106335780601f1061060857610100808354040283529160200191610633565b820191906000526020600020905b81548152906001019060200180831161061657829003601f168201915b505050505081565b60006106468361103c565b156106f0578173ffffffffffffffffffffffffffffffffffffffff168373ffffffffffffffffffffffffffffffffffffffff16141561068857600090506106f5565b600260009054906101000a900473ffffffffffffffffffffffffffffffffffffffff1673ffffffffffffffffffffffffffffffffffffffff168273ffffffffffffffffffffffffffffffffffffffff1614156106e757600090506106f5565b600190506106f5565b600090505b92915050565b6107043361103c565b15610760576000600860008681526020019081526020016000209050838160010190805190602001906107389291906114b1565b50828160020181905550818160030160006101000a81548160ff021916908315150217905550505b50505050565b6000600160075403905090565b61077c3361103c565b156107dc576000600760008154809291906001019190505590506000600660008381526020019081526020016000209050818160000181905550828160010190805190602001906107ce9291906114b1565b506000816003018190555050505b50565b6107e761153f565b6008600083815260200190815260200160002060405180608001604052908160008201548152602001600182018054600181600116156101000203166002900480601f0160208091040260200160405190810160405280929190818152602001828054600181600116156101000203166002900480156108a85780601f1061087d576101008083540402835291602001916108a8565b820191906000526020600020905b81548152906001019060200180831161088b57829003601f168201915b50505050508152602001600282015481526020016003820160009054906101000a900460ff1615151515815250509050919050565b6108e63361103c565b156109035780600190805190602001906109019291906114b1565b505b50565b61090e611569565b610916611569565b60005b600a811015610a9f57838015610955575060086000600187840101815260200190815260200160002060030160009054906101000a900460ff16155b15610970578480600101955050808060019003915050610a92565b600185820101600954101561098857600a9050610a91565b60086000600187840101815260200190815260200160002060405180608001604052908160008201548152602001600182018054600181600116156101000203166002900480601f016020809104026020016040519081016040528092919081815260200182805460018160011615610100020316600290048015610a4e5780601f10610a2357610100808354040283529160200191610a4e565b820191906000526020600020905b815481529060010190602001808311610a3157829003601f168201915b50505050508152602001600282015481526020016003820160009054906101000a900460ff1615151515815250508282600a8110610a8857fe5b60200201819052505b5b8080600101915050610919565b508091505092915050565b6000600160095403905090565b60038181548110610ac757600080fd5b906000526020600020016000915054906101000a900473ffffffffffffffffffffffffffffffffffffffff1681565b610aff3361103c565b8015610b9e575060016002811115610b1357fe5b8173ffffffffffffffffffffffffffffffffffffffff1663200d2ed26040518163ffffffff1660e01b815260040160206040518083038186803b158015610b5957600080fd5b505afa158015610b6d573d6000803e3d6000fd5b505050506040513d601f19601f82011682018060405250810190610b9191906117a8565b6002811115610b9c57fe5b145b8015610c5257503073ffffffffffffffffffffffffffffffffffffffff168173ffffffffffffffffffffffffffffffffffffffff1663d1384eb66040518163ffffffff1660e01b815260040160206040518083038186803b158015610c0257600080fd5b505afa158015610c16573d6000803e3d6000fd5b505050506040513d601f19601f82011682018060405250810190610c3a919061177f565b73ffffffffffffffffffffffffffffffffffffffff16145b15610cbb576003819080600181540180825580915050600190039060005260206000200160009091909190916101000a81548173ffffffffffffffffffffffffffffffffffffffff021916908373ffffffffffffffffffffffffffffffffffffffff1602179055505b50565b610cc6611597565b604051806040016040528060066000858152602001908152602001600020600001548152602001600660008581526020019081526020016000206001018054600181600116156101000203166002900480601f016020809104026020016040519081016040528092919081815260200182805460018160011615610100020316600290048015610d975780601f10610d6c57610100808354040283529160200191610d97565b820191906000526020600020905b815481529060010190602001808311610d7a57829003601f168201915b50505050508152509050919050565b600260009054906101000a900473ffffffffffffffffffffffffffffffffffffffff1681565b610dd53361103c565b15610e0c57600060066000848152602001908152602001600020905081816001019080519060200190610e099291906114b1565b50505b5050565b610e193361103c565b8015610e6f5750600560008273ffffffffffffffffffffffffffffffffffffffff1673ffffffffffffffffffffffffffffffffffffffff16815260200190815260200160002060009054906101000a900460ff16155b15610f69576004819080600181540180825580915050600190039060005260206000200160009091909190916101000a81548173ffffffffffffffffffffffffffffffffffffffff021916908373ffffffffffffffffffffffffffffffffffffffff1602179055506001600560008373ffffffffffffffffffffffffffffffffffffffff1673ffffffffffffffffffffffffffffffffffffffff16815260200190815260200160002060006101000a81548160ff0219169083151502179055507f4c3f8d573327070a8bdfb58632fa8057d0e0d56c4e982b03b555bdf50fd041be3382604051610f60929190611d60565b60405180910390a15b50565b60005481565b610f7a611569565b610f85826000610906565b9050919050565b610f946115b1565b610f9c6115b1565b60005b600a81101561103257600484820181548110610fb757fe5b9060005260206000200160009054906101000a900473ffffffffffffffffffffffffffffffffffffffff168282600a8110610fee57fe5b602002019073ffffffffffffffffffffffffffffffffffffffff16908173ffffffffffffffffffffffffffffffffffffffff16815250508080600101915050610f9f565b5080915050919050565b600061104982600061140c565b9050919050565b6110593361103c565b156110d5576000600960008154809291906001019190505590506000600860008381526020019081526020016000209050818160000181905550838160010190805190602001906110ab9291906114b1565b5082816002018190555060018160030160006101000a81548160ff02191690831515021790555050505b5050565b6110e3338261063b565b156112df5760005b600480549050811015611255578173ffffffffffffffffffffffffffffffffffffffff166004828154811061111c57fe5b9060005260206000200160009054906101000a900473ffffffffffffffffffffffffffffffffffffffff1673ffffffffffffffffffffffffffffffffffffffff161415611248576000600160048054905003905080821015611206576004818154811061118557fe5b9060005260206000200160009054906101000a900473ffffffffffffffffffffffffffffffffffffffff16600483815481106111bd57fe5b9060005260206000200160006101000a81548173ffffffffffffffffffffffffffffffffffffffff021916908373ffffffffffffffffffffffffffffffffffffffff1602179055505b600480548061121157fe5b6001900381819060005260206000200160006101000a81549073ffffffffffffffffffffffffffffffffffffffff02191690559055505b80806001019150506110eb565b50600560008273ffffffffffffffffffffffffffffffffffffffff1673ffffffffffffffffffffffffffffffffffffffff16815260200190815260200160002060006101000a81549060ff02191690557fbcd9acfa7798dc641ff4ac996c5bac1c3453ce5b9c04a919728479f94cc9bc5933826040516112d6929190611d60565b60405180910390a15b50565b6112ea6115d4565b6112f26115d4565b60005b600a8110156114025760405180604001604052806006600060018886010181526020019081526020016000206000015481526020016006600060018886010181526020019081526020016000206001018054600181600116156101000203166002900480601f0160208091040260200160405190810160405280929190818152602001828054600181600116156101000203166002900480156113d95780601f106113ae576101008083540402835291602001916113d9565b820191906000526020600020905b8154815290600101906020018083116113bc57829003601f168201915b50505050508152508282600a81106113ed57fe5b602002018190525080806001019150506112f5565b5080915050919050565b60006004828154811061141b57fe5b9060005260206000200160009054906101000a900473ffffffffffffffffffffffffffffffffffffffff1673ffffffffffffffffffffffffffffffffffffffff168373ffffffffffffffffffffffffffffffffffffffff16141561148257600190506114ab565b6001600480549050038210156114a65761149f836001840161140c565b90506114ab565b600090505b92915050565b828054600181600116156101000203166002900490600052602060002090601f0160209004810192826114e7576000855561152e565b82601f1061150057805160ff191683800117855561152e565b8280016001018555821561152e579182015b8281111561152d578251825591602001919060010190611512565b5b50905061153b9190611602565b5090565b60405180608001604052806000815260200160608152602001600081526020016000151581525090565b604051806101400160405280600a905b61158161153f565b8152602001906001900390816115795790505090565b604051806040016040528060008152602001606081525090565b604051806101400160405280600a90602082028036833780820191505090505090565b604051806101400160405280600a905b6115ec611597565b8152602001906001900390816115e45790505090565b5b8082111561161b576000816000905550600101611603565b5090565b60008135905061162e816120d0565b92915050565b600081359050611643816120e7565b92915050565b600081359050611658816120fe565b92915050565b60008151905061166d81612115565b92915050565b6000815190506116828161212c565b92915050565b600082601f83011261169957600080fd5b81356116ac6116a782611ed1565b611ea0565b915080825260208301602083018583830111156116c857600080fd5b6116d383828461207b565b50505092915050565b6000813590506116eb8161213c565b92915050565b60006020828403121561170357600080fd5b60006117118482850161161f565b91505092915050565b6000806040838503121561172d57600080fd5b600061173b8582860161161f565b925050602061174c8582860161161f565b9150509250929050565b60006020828403121561176857600080fd5b600061177684828501611649565b91505092915050565b60006020828403121561179157600080fd5b600061179f8482850161165e565b91505092915050565b6000602082840312156117ba57600080fd5b60006117c884828501611673565b91505092915050565b6000602082840312156117e357600080fd5b600082013567ffffffffffffffff8111156117fd57600080fd5b61180984828501611688565b91505092915050565b6000806040838503121561182557600080fd5b600083013567ffffffffffffffff81111561183f57600080fd5b61184b85828601611688565b925050602061185c858286016116dc565b9150509250929050565b60006020828403121561187857600080fd5b6000611886848285016116dc565b91505092915050565b600080604083850312156118a257600080fd5b60006118b0858286016116dc565b92505060206118c185828601611634565b9150509250929050565b600080604083850312156118de57600080fd5b60006118ec858286016116dc565b925050602083013567ffffffffffffffff81111561190957600080fd5b61191585828601611688565b9150509250929050565b6000806000806080858703121561193557600080fd5b6000611943878288016116dc565b945050602085013567ffffffffffffffff81111561196057600080fd5b61196c87828801611688565b935050604061197d878288016116dc565b925050606061198e87828801611634565b91505092959194509250565b60006119a683836119e9565b60208301905092915050565b60006119be8383611be7565b905092915050565b60006119d28383611c61565b905092915050565b6119e381612021565b82525050565b6119f281611fb5565b82525050565b611a0181611fb5565b82525050565b611a1081611f1f565b611a1a8184611f72565b9250611a2582611f01565b8060005b83811015611a56578151611a3d878261199a565b9650611a4883611f4b565b925050600181019050611a29565b505050505050565b6000611a6982611f2a565b611a738185611f7d565b935083602082028501611a8585611f0b565b8060005b85811015611ac15784840389528151611aa285826119b2565b9450611aad83611f58565b925060208a01995050600181019050611a89565b50829750879550505050505092915050565b6000611ade82611f35565b611ae88185611f88565b935083602082028501611afa85611f15565b8060005b85811015611b365784840389528151611b1785826119c6565b9450611b2283611f65565b925060208a01995050600181019050611afe565b50829750879550505050505092915050565b611b5181611fc7565b82525050565b611b6081611fc7565b82525050565b611b6f81612033565b82525050565b6000611b8082611f40565b611b8a8185611f93565b9350611b9a81856020860161208a565b611ba3816120bf565b840191505092915050565b6000611bb982611f40565b611bc38185611fa4565b9350611bd381856020860161208a565b611bdc816120bf565b840191505092915050565b6000604083016000830151611bff6000860182611d27565b5060208301518482036020860152611c178282611b75565b9150508091505092915050565b6000604083016000830151611c3c6000860182611d27565b5060208301518482036020860152611c548282611b75565b9150508091505092915050565b6000608083016000830151611c796000860182611d27565b5060208301518482036020860152611c918282611b75565b9150506040830151611ca66040860182611d27565b506060830151611cb96060860182611b48565b508091505092915050565b6000608083016000830151611cdc6000860182611d27565b5060208301518482036020860152611cf48282611b75565b9150506040830151611d096040860182611d27565b506060830151611d1c6060860182611b48565b508091505092915050565b611d3081612017565b82525050565b611d3f81612017565b82525050565b6000602082019050611d5a60008301846119f8565b92915050565b6000604082019050611d7560008301856119da565b611d8260208301846119f8565b9392505050565b600061014082019050611d9f6000830184611a07565b92915050565b60006020820190508181036000830152611dbf8184611a5e565b905092915050565b60006020820190508181036000830152611de18184611ad3565b905092915050565b6000602082019050611dfe6000830184611b57565b92915050565b6000602082019050611e196000830184611b66565b92915050565b60006020820190508181036000830152611e398184611bae565b905092915050565b60006020820190508181036000830152611e5b8184611c24565b905092915050565b60006020820190508181036000830152611e7d8184611cc4565b905092915050565b6000602082019050611e9a6000830184611d36565b92915050565b6000604051905081810181811067ffffffffffffffff82111715611ec757611ec66120bd565b5b8060405250919050565b600067ffffffffffffffff821115611eec57611eeb6120bd565b5b601f19601f8301169050602081019050919050565b6000819050919050565b6000819050919050565b6000819050919050565b6000600a9050919050565b6000600a9050919050565b6000600a9050919050565b600081519050919050565b6000602082019050919050565b6000602082019050919050565b6000602082019050919050565b600081905092915050565b600081905092915050565b600081905092915050565b600082825260208201905092915050565b600082825260208201905092915050565b6000611fc082611ff7565b9050919050565b60008115159050919050565b6000611fde82611fb5565b9050919050565b6000611ff082611fb5565b9050919050565b600073ffffffffffffffffffffffffffffffffffffffff82169050919050565b6000819050919050565b600061202c82612057565b9050919050565b600061203e82612045565b9050919050565b600061205082611ff7565b9050919050565b600061206282612069565b9050919050565b600061207482611ff7565b9050919050565b82818337600083830152505050565b60005b838110156120a857808201518184015260208101905061208d565b838111156120b7576000848401525b50505050565bfe5b6000601f19601f8301169050919050565b6120d981611fb5565b81146120e457600080fd5b50565b6120f081611fc7565b81146120fb57600080fd5b50565b61210781611fd3565b811461211257600080fd5b50565b61211e81611fe5565b811461212957600080fd5b50565b6003811061213957600080fd5b50565b61214581612017565b811461215057600080fd5b5056fea264697066735822122074440045afffe55706e0355887cec14c4066f03f0381728b85d0b9b97cdf6a4564736f6c63430007050033",
  "immutableReferences": {},
  "source": "// SPDX-License-Identifier: GPL-3.0\npragma solidity >=0.5.0 <0.9.0;\npragma abicoder v2;\n\ncontract Certificate {\n    enum State {requested, approved, rejected}\n    enum Degree {\n        ScholarlyAcademics,\n        PracticeAcademics,\n        ScholarlyPractitioner,\n        InstructionalPractitioner\n    }\n    string public specialtyField;\n    Faculty public faculty;\n    Institution public institution;\n    Degree public degree;\n    State public status = State.requested;\n    Application application;\n    event Request(address sender);\n    event Reject(address sender);\n    event Approve(address sender);\n\n    constructor(\n        Faculty _faculty,\n        Institution _institution,\n        Degree _degree\n    ) {\n        faculty = _faculty;\n        institution = _institution;\n        degree = _degree;\n        emit Request(msg.sender);\n    }\n\n    function reject() public payable {\n        if (editable()) {\n            status = State.rejected;\n            emit Reject(msg.sender);\n        }\n    }\n\n    function approve() public payable {\n        if (editable() && institution.allowed(msg.sender)) {\n            status = State.approved;\n            faculty.addCertificate(this);\n            institution.addCertificate(this);\n            application.removeCertificate(this);\n            emit Approve(msg.sender);\n        }\n    }\n\n    function editable() public view returns (bool) {\n        return ((status == State.requested &&\n            (institution.allowed(msg.sender))) || faculty.allowed(msg.sender));\n    }\n}\n\ncontract Faculty {\n    uint256 id;\n    string public name;\n    address public owner;\n    Certificate[] public certificates;\n    Institution public currentInstitution;\n\n    event CertificateAdded(address assigner, Certificate certificate);\n\n    constructor(\n        uint256 _id,\n        string memory _name,\n        address _owner\n    ) {\n        name = _name;\n        id = _id;\n        owner = _owner;\n    }\n\n    function update(string memory _name) public payable {\n        if (allowed(msg.sender)) {\n            name = _name;\n        }\n    }\n\n    function assignInstitution(address _institutionAddress) public payable {\n        Institution _institution = Institution(_institutionAddress);\n        if (_institution.allowed(msg.sender)) {\n            currentInstitution = _institution;\n        }\n    }\n\n    function allowed(address _address) public view returns (bool) {\n        return _address == owner;\n    }\n\n    function addCertificate(Certificate _certificate) public payable {\n        if (_certificate.institution().allowed(msg.sender)) {\n            certificates.push(_certificate);\n            emit CertificateAdded(msg.sender, _certificate);\n        }\n    }\n}\n\ncontract Institution {\n    struct Department {\n        uint256 id;\n        string name;\n        mapping(uint256 => Faculty) faculties;\n        uint256 nextFacultyId;\n    }\n    struct StaffMember {\n        uint256 id;\n        string name;\n        uint256 departmentId;\n        bool active;\n    }\n    struct PublicDepartment {\n        uint256 id;\n        string name;\n    }\n\n    uint256 public id;\n    string public name;\n    address public owner;\n\n    Certificate[] public issuedCertificates;\n\n    address[] public allowedModifiers;\n    mapping(address => bool) allowedModifiersMap;\n\n    mapping(uint256 => Department) departments;\n    uint256 nextDepartmentId = 1;\n\n    mapping(uint256 => StaffMember) staffMembers;\n    uint256 nextStaffMembersId = 1;\n\n    mapping(uint256 => Certificate) certificates;\n    uint256 nextCertificateId = 0;\n\n    event ModifierAdded(address by, address modifierAddress);\n    event ModifierRemoved(address by, address modifierAddress);\n\n    constructor(\n        uint256 _id,\n        string memory _name,\n        address sender\n    ) {\n        id = _id;\n        name = _name;\n        owner = sender;\n        allowedModifiers.push(sender);\n        allowedModifiersMap[sender] = true;\n    }\n\n    function update(string memory _name) public payable {\n        if (allowed(msg.sender)) {\n            name = _name;\n        }\n    }\n\n    function createDepartment(string memory _name) public payable {\n        if (allowed(msg.sender)) {\n            uint256 _nextDepartmentId = nextDepartmentId++;\n            Department storage _department = departments[_nextDepartmentId];\n            _department.id = _nextDepartmentId;\n            _department.name = _name;\n            _department.nextFacultyId = 0;\n        }\n    }\n\n    function updateDepartment(uint256 _departmentId, string memory _name)\n        public\n        payable\n    {\n        if (allowed(msg.sender)) {\n            Department storage _department = departments[_departmentId];\n            _department.name = _name;\n        }\n    }\n\n    function department(uint256 _from)\n        public\n        view\n        returns (PublicDepartment memory)\n    {\n        return\n            PublicDepartment({\n                id: departments[_from].id,\n                name: departments[_from].name\n            });\n    }\n\n    function listDepartments(uint256 _from)\n        public\n        view\n        returns (PublicDepartment[10] memory)\n    {\n        PublicDepartment[10] memory list;\n        for (uint256 i = 0; i < 10; i++) {\n            list[i] = PublicDepartment({\n                id: departments[i + _from + 1].id,\n                name: departments[i + _from + 1].name\n            });\n        }\n        return list;\n    }\n\n    function departmentsLength() public view returns (uint256) {\n        return nextDepartmentId - 1;\n    }\n\n    function staffMember(uint256 _from)\n        public\n        view\n        returns (StaffMember memory)\n    {\n        return staffMembers[_from];\n    }\n\n    function listStaffMembers(uint256 _from)\n        public\n        view\n        returns (StaffMember[10] memory)\n    {\n        return listStaffMembers(_from, false);\n    }\n\n    function listStaffMembers(uint256 _from, bool skipInactive)\n        public\n        view\n        returns (StaffMember[10] memory)\n    {\n        StaffMember[10] memory list;\n        for (uint256 i = 0; i < 10; i++) {\n            if (skipInactive && !staffMembers[i + _from + 1].active) {\n                _from++;\n                i--;\n            } else if (nextStaffMembersId < i + _from + 1) {\n                i = 10;\n            } else {\n                list[i] = staffMembers[i + _from + 1];\n            }\n        }\n        return list;\n    }\n\n    function staffMembersLength() public view returns (uint256) {\n        return nextStaffMembersId - 1;\n    }\n\n    function createStaffMember(string memory _name, uint256 _departmentId)\n        public\n        payable\n    {\n        if (allowed(msg.sender)) {\n            uint256 _nextStaffMemberId = nextStaffMembersId++;\n            StaffMember storage _staffMember = staffMembers[_nextStaffMemberId];\n            _staffMember.id = _nextStaffMemberId;\n            _staffMember.name = _name;\n            _staffMember.departmentId = _departmentId;\n            _staffMember.active = true;\n        }\n    }\n\n    function updateStaffMember(\n        uint256 _staffMemberId,\n        string memory _name,\n        uint256 _departmentId,\n        bool _active\n    ) public payable {\n        if (allowed(msg.sender)) {\n            StaffMember storage _staffMember = staffMembers[_staffMemberId];\n            _staffMember.name = _name;\n            _staffMember.departmentId = _departmentId;\n            _staffMember.active = _active;\n        }\n    }\n\n    function listModifiers(uint256 _from)\n        public\n        view\n        returns (address[10] memory)\n    {\n        address[10] memory list;\n        for (uint256 i = 0; i < 10; i++) {\n            list[i] = allowedModifiers[i + _from];\n        }\n        return list;\n    }\n\n    function addModifier(address _modifier) public payable {\n        if (allowed(msg.sender) && !allowedModifiersMap[_modifier]) {\n            allowedModifiers.push(_modifier);\n            allowedModifiersMap[_modifier] = true;\n            emit ModifierAdded(msg.sender, _modifier);\n        }\n    }\n\n    function removeModifier(address _modifier) public payable {\n        if (allowedToRemove(msg.sender, _modifier)) {\n            for (uint256 i = 0; i < allowedModifiers.length; i++) {\n                if (allowedModifiers[i] == _modifier) {\n                    uint256 _lastIndex = allowedModifiers.length - 1;\n                    if (i < _lastIndex) {\n                        allowedModifiers[i] = allowedModifiers[_lastIndex];\n                    }\n                    allowedModifiers.pop();\n                }\n            }\n            delete allowedModifiersMap[_modifier];\n            emit ModifierRemoved(msg.sender, _modifier);\n        }\n    }\n\n    function allowedToRemove(address _sender, address _toRemove)\n        public\n        view\n        returns (bool)\n    {\n        if (allowed(_sender)) {\n            if (_sender == _toRemove) {\n                return false;\n            } else if (_toRemove == owner) {\n                return false;\n            } else {\n                return true;\n            }\n        } else {\n            return false;\n        }\n    }\n\n    function allowed(address _modifierAddress) public view returns (bool) {\n        return allowed(_modifierAddress, 0);\n    }\n\n    function allowed(address modifierAddress, uint256 index)\n        private\n        view\n        returns (bool)\n    {\n        if (modifierAddress == allowedModifiers[index]) {\n            return true;\n        } else if (index < allowedModifiers.length - 1) {\n            return allowed(modifierAddress, index + 1);\n        } else {\n            return false;\n        }\n    }\n\n    function addCertificate(Certificate _certificate) public payable {\n        if (\n            allowed(msg.sender) &&\n            _certificate.status() == Certificate.State.approved &&\n            _certificate.institution() == this\n        ) {\n            issuedCertificates.push(_certificate);\n        }\n    }\n}\n\ncontract Application {\n    /*\n    Application is the root contract that the UI will use to interact with sub contracts \n    */\n\n    mapping(uint256 => Institution) public institutions;\n    uint256 nextInstitutionId = 0;\n    mapping(address => Faculty) public faculties;\n    mapping(uint256 => Faculty) facultiesByIndex;\n    uint256 nextFacultyId = 0;\n\n    mapping(uint256 => Certificate[]) pendingCertificates;\n\n    function createInstitution(string memory _name) public payable {\n        uint256 _id = nextInstitutionId++;\n        Institution _institution = new Institution(_id, _name, msg.sender);\n        institutions[_id] = _institution;\n    }\n\n    function listInstitutions(uint256 _from)\n        public\n        view\n        returns (Institution[10] memory)\n    {\n        Institution[10] memory list;\n        for (uint256 i = 0; i < 10; i++) {\n            list[i] = institutions[i + _from];\n        }\n        return list;\n    }\n\n    function institutionsLength() public view returns (uint256) {\n        return nextInstitutionId;\n    }\n\n    function createFaculty(string memory _name) public payable {\n        if (address(faculties[msg.sender]) == address(0x0)) {\n            uint256 _id = nextFacultyId++;\n            Faculty faculty = new Faculty(_id, _name, msg.sender);\n            facultiesByIndex[_id] = faculty;\n            faculties[msg.sender] = faculty;\n        }\n    }\n\n    function listFaculties(uint256 _from)\n        public\n        view\n        returns (Faculty[10] memory)\n    {\n        Faculty[10] memory list;\n        for (uint256 i = 0; i < 10; i++) {\n            list[i] = facultiesByIndex[i + _from];\n        }\n        return list;\n    }\n\n    function facultiesLength() public view returns (uint256) {\n        return nextFacultyId;\n    }\n\n    function removeCertificate(Certificate _certificate) public payable {\n        uint256 _instituionId = _certificate.institution().id();\n        Certificate[] storage _pendingCertificates =\n            pendingCertificates[_instituionId];\n        for (uint256 i = 0; i < _pendingCertificates.length; i++) {\n            if (_pendingCertificates[i] == _certificate) {\n                uint256 _lastIndex = _pendingCertificates.length - 1;\n                if (i < _lastIndex) {\n                    _pendingCertificates[i] = _pendingCertificates[_lastIndex];\n                }\n                _pendingCertificates.pop();\n            }\n        }\n    }\n}\n",
  "sourcePath": "/home/mortadaak/Projects/aacsb_accreditiation/contracts/Application.sol",
  "compiler": {
    "name": "solc",
    "version": "0.7.5+commit.eb77ed08.Emscripten.clang"
  },
  "schemaVersion": "3.3.3",
  "updatedAt": "2021-01-10T22:55:02.118Z",
  "devdoc": {
    "kind": "dev",
    "methods": {},
    "version": 1
  },
  "userdoc": {
    "kind": "user",
    "methods": {},
    "version": 1
  }
}