{
  "contractName": "InstituionsManager",
  "abi": [
    {
      "inputs": [
        {
          "internalType": "contract Application",
          "name": "_application",
          "type": "address"
        }
      ],
      "stateMutability": "nonpayable",
      "type": "constructor"
    },
    {
      "inputs": [],
      "name": "application",
      "outputs": [
        {
          "internalType": "contract Application",
          "name": "",
          "type": "address"
        }
      ],
      "stateMutability": "view",
      "type": "function"
    },
    {
      "inputs": [
        {
          "internalType": "uint256",
          "name": "",
          "type": "uint256"
        }
      ],
      "name": "institutions",
      "outputs": [
        {
          "internalType": "contract Institution",
          "name": "",
          "type": "address"
        }
      ],
      "stateMutability": "view",
      "type": "function"
    },
    {
      "inputs": [],
      "name": "institutionsLength",
      "outputs": [
        {
          "internalType": "uint256",
          "name": "",
          "type": "uint256"
        }
      ],
      "stateMutability": "view",
      "type": "function"
    },
    {
      "inputs": [
        {
          "internalType": "string",
          "name": "_name",
          "type": "string"
        }
      ],
      "name": "createInstitution",
      "outputs": [],
      "stateMutability": "payable",
      "type": "function"
    },
    {
      "inputs": [
        {
          "internalType": "uint256",
          "name": "_from",
          "type": "uint256"
        }
      ],
      "name": "listInstitutions",
      "outputs": [
        {
          "internalType": "contract Institution[10]",
          "name": "",
          "type": "address[10]"
        }
      ],
      "stateMutability": "view",
      "type": "function"
    }
  ],
  "bytecode": "0x6080604052600060025534801561001557600080fd5b5060405161398838038061398883398181016040528101906100379190610092565b806000806101000a81548173ffffffffffffffffffffffffffffffffffffffff021916908373ffffffffffffffffffffffffffffffffffffffff16021790555050610116565b60008151905061008c816100ff565b92915050565b6000602082840312156100a457600080fd5b60006100b28482850161007d565b91505092915050565b60006100c6826100df565b9050919050565b60006100d8826100bb565b9050919050565b600073ffffffffffffffffffffffffffffffffffffffff82169050919050565b610108816100cd565b811461011357600080fd5b50565b613863806101256000396000f3fe608060405260043610620000505760003560e01c8063029bf701146200005557806326e4ca82146200007557806377104d9214620000a557806386906afa14620000e9578063c3b59d001462000119575b600080fd5b6200007360048036038101906200006d919062000453565b6200015d565b005b3480156200008257600080fd5b506200008d6200029b565b6040516200009c91906200069b565b60405180910390f35b348015620000b257600080fd5b50620000d16004803603810190620000cb919062000498565b620002bf565b604051620000e091906200067d565b60405180910390f35b348015620000f657600080fd5b506200010162000372565b60405162000110919062000770565b60405180910390f35b3480156200012657600080fd5b506200014560048036038101906200013f919062000498565b6200037c565b6040516200015491906200070c565b60405180910390f35b6000600260008154809291906001019190505590506000308284336040516200018690620003af565b620001959493929190620006b8565b604051809103906000f080158015620001b2573d6000803e3d6000fd5b509050806001600084815260200190815260200160002060006101000a81548173ffffffffffffffffffffffffffffffffffffffff021916908373ffffffffffffffffffffffffffffffffffffffff16021790555060008054906101000a900473ffffffffffffffffffffffffffffffffffffffff1673ffffffffffffffffffffffffffffffffffffffff166363441ab2826040518263ffffffff1660e01b815260040162000262919062000729565b600060405180830381600087803b1580156200027d57600080fd5b505af115801562000292573d6000803e3d6000fd5b50505050505050565b60008054906101000a900473ffffffffffffffffffffffffffffffffffffffff1681565b620002c9620003bd565b620002d3620003bd565b60005b600a811015620003685760016000858301815260200190815260200160002060009054906101000a900473ffffffffffffffffffffffffffffffffffffffff168282600a81106200032357fe5b602002019073ffffffffffffffffffffffffffffffffffffffff16908173ffffffffffffffffffffffffffffffffffffffff16815250508080600101915050620002d6565b5080915050919050565b6000600254905090565b60016020528060005260406000206000915054906101000a900473ffffffffffffffffffffffffffffffffffffffff1681565b612e8c80620009a283390190565b604051806101400160405280600a90602082028036833780820191505090505090565b600082601f830112620003f257600080fd5b8135620004096200040382620007c1565b6200078d565b915080825260208301602083018583830111156200042657600080fd5b620004338382846200092f565b50505092915050565b6000813590506200044d8162000987565b92915050565b6000602082840312156200046657600080fd5b600082013567ffffffffffffffff8111156200048157600080fd5b6200048f84828501620003e0565b91505092915050565b600060208284031215620004ab57600080fd5b6000620004bb848285016200043c565b91505092915050565b6000620004d2838362000585565b60208301905092915050565b620004e9816200087b565b82525050565b620004fa816200083d565b82525050565b6200050b81620007fe565b62000517818462000821565b92506200052482620007f4565b8060005b838110156200055b5781516200053f8782620004c4565b96506200054c8362000814565b92505060018101905062000528565b505050505050565b6200056e816200088f565b82525050565b6200057f81620008b7565b82525050565b6200059081620008df565b82525050565b620005a181620008df565b82525050565b6000620005b48262000809565b620005c081856200082c565b9350620005d28185602086016200093e565b620005dd8162000976565b840191505092915050565b6000620005f76012836200082c565b91507f4352454154455f494e535449545554494f4e00000000000000000000000000006000830152602082019050919050565b600062000639600b836200082c565b91507f494e535449545554494f4e0000000000000000000000000000000000000000006000830152602082019050919050565b620006778162000871565b82525050565b60006101408201905062000695600083018462000500565b92915050565b6000602082019050620006b2600083018462000563565b92915050565b6000608082019050620006cf600083018762000574565b620006de60208301866200066c565b8181036040830152620006f28185620005a7565b9050620007036060830184620004de565b95945050505050565b600060208201905062000723600083018462000596565b92915050565b600060608201905081810360008301526200074481620005e8565b9050818103602083015262000759816200062a565b90506200076a6040830184620004ef565b92915050565b60006020820190506200078760008301846200066c565b92915050565b6000604051905081810181811067ffffffffffffffff82111715620007b757620007b662000974565b5b8060405250919050565b600067ffffffffffffffff821115620007df57620007de62000974565b5b601f19601f8301169050602081019050919050565b6000819050919050565b6000600a9050919050565b600081519050919050565b6000602082019050919050565b600081905092915050565b600082825260208201905092915050565b60006200084a8262000851565b9050919050565b600073ffffffffffffffffffffffffffffffffffffffff82169050919050565b6000819050919050565b6000620008888262000907565b9050919050565b60006200089c82620008a3565b9050919050565b6000620008b08262000851565b9050919050565b6000620008c482620008cb565b9050919050565b6000620008d88262000851565b9050919050565b6000620008ec82620008f3565b9050919050565b6000620009008262000851565b9050919050565b600062000914826200091b565b9050919050565b6000620009288262000851565b9050919050565b82818337600083830152505050565b60005b838110156200095e57808201518184015260208101905062000941565b838111156200096e576000848401525b50505050565bfe5b6000601f19601f8301169050919050565b620009928162000871565b81146200099e57600080fd5b5056fe608060405260016008553480156200001657600080fd5b5060405162002e8c38038062002e8c83398181016040528101906200003c9190620002fa565b83600460006101000a81548173ffffffffffffffffffffffffffffffffffffffff021916908373ffffffffffffffffffffffffffffffffffffffff1602179055508260008190555081600190805190602001906200009c929190620001a3565b5080600260006101000a81548173ffffffffffffffffffffffffffffffffffffffff021916908373ffffffffffffffffffffffffffffffffffffffff1602179055506005819080600181540180825580915050600190039060005260206000200160009091909190916101000a81548173ffffffffffffffffffffffffffffffffffffffff021916908373ffffffffffffffffffffffffffffffffffffffff1602179055506001600660008373ffffffffffffffffffffffffffffffffffffffff1673ffffffffffffffffffffffffffffffffffffffff16815260200190815260200160002060006101000a81548160ff02191690831515021790555050505050620004be565b828054600181600116156101000203166002900490600052602060002090601f016020900481019282620001db576000855562000227565b82601f10620001f657805160ff191683800117855562000227565b8280016001018555821562000227579182015b828111156200022657825182559160200191906001019062000209565b5b5090506200023691906200023a565b5090565b5b80821115620002555760008160009055506001016200023b565b5090565b6000815190506200026a8162000470565b92915050565b60008151905062000281816200048a565b92915050565b600082601f8301126200029957600080fd5b8151620002b0620002aa82620003b3565b6200037f565b91508082526020830160208301858383011115620002cd57600080fd5b620002da83828462000438565b50505092915050565b600081519050620002f481620004a4565b92915050565b600080600080608085870312156200031157600080fd5b6000620003218782880162000270565b94505060206200033487828801620002e3565b935050604085015167ffffffffffffffff8111156200035257600080fd5b620003608782880162000287565b9250506060620003738782880162000259565b91505092959194509250565b6000604051905081810181811067ffffffffffffffff82111715620003a957620003a86200046e565b5b8060405250919050565b600067ffffffffffffffff821115620003d157620003d06200046e565b5b601f19601f8301169050602081019050919050565b6000620003f3826200040e565b9050919050565b60006200040782620003e6565b9050919050565b600073ffffffffffffffffffffffffffffffffffffffff82169050919050565b6000819050919050565b60005b83811015620004585780820151818401526020810190506200043b565b8381111562000468576000848401525b50505050565bfe5b6200047b81620003e6565b81146200048757600080fd5b50565b6200049581620003fa565b8114620004a157600080fd5b50565b620004af816200042e565b8114620004bb57600080fd5b50565b6129be80620004ce6000396000f3fe60806040526004361061012a5760003560e01c80636bd5b694116100ab578063af640d0f1161006f578063af640d0f146103d2578063c16ebe5a146103fd578063d2e3f3b714610419578063d63a8e1114610456578063e08b2ab614610493578063eafb96bd146104d05761012a565b80636bd5b6941461030757806370927f7814610344578063781dd7221461036f5780638da5cb5b1461038b578063a013fe30146103b65761012a565b80633d7403a3116100f25780633d7403a31461023c5780634225674d1461025857806344e538ae146102955780635822cb31146102c0578063636558a5146102eb5761012a565b8063068d81741461012f57806306fdde031461016c57806308e0018b14610197578063262e025b146101d45780633c98ccee14610211575b600080fd5b34801561013b57600080fd5b5061015660048036038101906101519190611e9c565b6104ec565b6040516101639190612402565b60405180910390f35b34801561017857600080fd5b5061018161052b565b60405161018e91906124d6565b60405180910390f35b3480156101a357600080fd5b506101be60048036038101906101b99190611d15565b6105c9565b6040516101cb9190612477565b60405180910390f35b3480156101e057600080fd5b506101fb60048036038101906101f69190611e9c565b610689565b604051610208919061263d565b60405180910390f35b34801561021d57600080fd5b5061022661077d565b604051610233919061265f565b60405180910390f35b61025660048036038101906102519190611e5b565b61078a565b005b34801561026457600080fd5b5061027f600480360381019061027a9190611eee565b6107b3565b60405161028c9190612455565b60405180910390f35b3480156102a157600080fd5b506102aa61094d565b6040516102b7919061265f565b60405180910390f35b3480156102cc57600080fd5b506102d561095a565b6040516102e2919061265f565b60405180910390f35b61030560048036038101906103009190611e5b565b610b06565b005b34801561031357600080fd5b5061032e60048036038101906103299190611e9c565b610c8f565b60405161033b9190612439565b60405180910390f35b34801561035057600080fd5b50610359610d5a565b604051610366919061265f565b60405180910390f35b61038960048036038101906103849190611da4565b610d67565b005b34801561039757600080fd5b506103a061103a565b6040516103ad9190612402565b60405180910390f35b6103d060048036038101906103cb9190611cec565b611060565b005b3480156103de57600080fd5b506103e761128d565b6040516103f4919061265f565b60405180910390f35b61041760048036038101906104129190611f2a565b611293565b005b34801561042557600080fd5b50610440600480360381019061043b9190611e9c565b6113fe565b60405161044d919061241d565b60405180910390f35b34801561046257600080fd5b5061047d60048036038101906104789190611cec565b6114c6565b60405161048a9190612477565b60405180910390f35b34801561049f57600080fd5b506104ba60048036038101906104b59190611e9c565b6114da565b6040516104c79190612439565b60405180910390f35b6104ea60048036038101906104e59190611cec565b611691565b005b600581815481106104fc57600080fd5b906000526020600020016000915054906101000a900473ffffffffffffffffffffffffffffffffffffffff1681565b60018054600181600116156101000203166002900480601f0160208091040260200160405190810160405280929190818152602001828054600181600116156101000203166002900480156105c15780601f10610596576101008083540402835291602001916105c1565b820191906000526020600020905b8154815290600101906020018083116105a457829003601f168201915b505050505081565b60006105d4836114c6565b1561067e578173ffffffffffffffffffffffffffffffffffffffff168373ffffffffffffffffffffffffffffffffffffffff1614156106165760009050610683565b600260009054906101000a900473ffffffffffffffffffffffffffffffffffffffff1673ffffffffffffffffffffffffffffffffffffffff168273ffffffffffffffffffffffffffffffffffffffff1614156106755760009050610683565b60019050610683565b600090505b92915050565b610691611a10565b6007600083815260200190815260200160002060405180606001604052908160008201548152602001600182018054600181600116156101000203166002900480601f0160208091040260200160405190810160405280929190818152602001828054600181600116156101000203166002900480156107525780601f1061072757610100808354040283529160200191610752565b820191906000526020600020905b81548152906001019060200180831161073557829003601f168201915b505050505081526020016002820160009054906101000a900460ff1615151515815250509050919050565b6000600580549050905090565b610793336114c6565b156107b05780600190805190602001906107ae929190611a33565b505b50565b6107bb611ac1565b6107c3611ac1565b60005b600a8110156109425760018582010160085410156107e757600a9050610935565b83801561081a575060076000600187840101815260200190815260200160002060020160009054906101000a900460ff16155b15610835578480600101955050808060019003915050610934565b60076000600187840101815260200190815260200160002060405180606001604052908160008201548152602001600182018054600181600116156101000203166002900480601f0160208091040260200160405190810160405280929190818152602001828054600181600116156101000203166002900480156108fb5780601f106108d0576101008083540402835291602001916108fb565b820191906000526020600020905b8154815290600101906020018083116108de57829003601f168201915b505050505081526020016002820160009054906101000a900460ff1615151515815250508282600a811061092b57fe5b60200201819052505b5b80806001019150506107c6565b508091505092915050565b6000600160085403905090565b6000600460009054906101000a900473ffffffffffffffffffffffffffffffffffffffff1673ffffffffffffffffffffffffffffffffffffffff166326e4ca826040518163ffffffff1660e01b815260040160206040518083038186803b1580156109c457600080fd5b505afa1580156109d8573d6000803e3d6000fd5b505050506040513d601f19601f820116820180604052508101906109fc9190611d7b565b73ffffffffffffffffffffffffffffffffffffffff1663ff25025b6040518163ffffffff1660e01b815260040160206040518083038186803b158015610a4157600080fd5b505afa158015610a55573d6000803e3d6000fd5b505050506040513d601f19601f82011682018060405250810190610a799190611de0565b73ffffffffffffffffffffffffffffffffffffffff1663910b70cc306040518263ffffffff1660e01b8152600401610ab19190612492565b60206040518083038186803b158015610ac957600080fd5b505afa158015610add573d6000803e3d6000fd5b505050506040513d601f19601f82011682018060405250810190610b019190611ec5565b905090565b610b0f336114c6565b15610c8c57600060086000815480929190600101919050559050600060076000838152602001908152602001600020905081816000018190555082816001019080519060200190610b61929190611a33565b5060018160020160006101000a81548160ff021916908315150217905550600460009054906101000a900473ffffffffffffffffffffffffffffffffffffffff1673ffffffffffffffffffffffffffffffffffffffff166326e4ca826040518163ffffffff1660e01b815260040160206040518083038186803b158015610be757600080fd5b505afa158015610bfb573d6000803e3d6000fd5b505050506040513d601f19601f82011682018060405250810190610c1f9190611d7b565b73ffffffffffffffffffffffffffffffffffffffff166363441ab2306040518263ffffffff1660e01b8152600401610c579190612539565b600060405180830381600087803b158015610c7157600080fd5b505af1158015610c85573d6000803e3d6000fd5b5050505050505b50565b610c97611aef565b610c9f611aef565b6000808490505b60038054905081108015610cba5750600a82105b15610d4f5760038181548110610ccc57fe5b9060005260206000200160009054906101000a900473ffffffffffffffffffffffffffffffffffffffff168383600a8110610d0357fe5b602002019073ffffffffffffffffffffffffffffffffffffffff16908173ffffffffffffffffffffffffffffffffffffffff168152505081806001019250508080600101915050610ca6565b508192505050919050565b6000600380549050905090565b610d70816114c6565b8015610e0f575060016002811115610d8457fe5b8273ffffffffffffffffffffffffffffffffffffffff1663200d2ed26040518163ffffffff1660e01b815260040160206040518083038186803b158015610dca57600080fd5b505afa158015610dde573d6000803e3d6000fd5b505050506040513d601f19601f82011682018060405250810190610e029190611e32565b6002811115610e0d57fe5b145b8015610ec357503073ffffffffffffffffffffffffffffffffffffffff168273ffffffffffffffffffffffffffffffffffffffff1663d1384eb66040518163ffffffff1660e01b815260040160206040518083038186803b158015610e7357600080fd5b505afa158015610e87573d6000803e3d6000fd5b505050506040513d601f19601f82011682018060405250810190610eab9190611e09565b73ffffffffffffffffffffffffffffffffffffffff16145b15611036576003829080600181540180825580915050600190039060005260206000200160009091909190916101000a81548173ffffffffffffffffffffffffffffffffffffffff021916908373ffffffffffffffffffffffffffffffffffffffff160217905550600460009054906101000a900473ffffffffffffffffffffffffffffffffffffffff1673ffffffffffffffffffffffffffffffffffffffff166326e4ca826040518163ffffffff1660e01b815260040160206040518083038186803b158015610f9357600080fd5b505afa158015610fa7573d6000803e3d6000fd5b505050506040513d601f19601f82011682018060405250810190610fcb9190611d7b565b73ffffffffffffffffffffffffffffffffffffffff166363441ab2306040518263ffffffff1660e01b815260040161100391906125fc565b600060405180830381600087803b15801561101d57600080fd5b505af1158015611031573d6000803e3d6000fd5b505050505b5050565b600260009054906101000a900473ffffffffffffffffffffffffffffffffffffffff1681565b611069336114c6565b80156110bf5750600660008273ffffffffffffffffffffffffffffffffffffffff1673ffffffffffffffffffffffffffffffffffffffff16815260200190815260200160002060009054906101000a900460ff16155b1561128a576005819080600181540180825580915050600190039060005260206000200160009091909190916101000a81548173ffffffffffffffffffffffffffffffffffffffff021916908373ffffffffffffffffffffffffffffffffffffffff1602179055506001600660008373ffffffffffffffffffffffffffffffffffffffff1673ffffffffffffffffffffffffffffffffffffffff16815260200190815260200160002060006101000a81548160ff021916908315150217905550600460009054906101000a900473ffffffffffffffffffffffffffffffffffffffff1673ffffffffffffffffffffffffffffffffffffffff166326e4ca826040518163ffffffff1660e01b815260040160206040518083038186803b1580156111e757600080fd5b505afa1580156111fb573d6000803e3d6000fd5b505050506040513d601f19601f8201168201806040525081019061121f9190611d7b565b73ffffffffffffffffffffffffffffffffffffffff166363441ab2306040518263ffffffff1660e01b815260040161125791906124f8565b600060405180830381600087803b15801561127157600080fd5b505af1158015611285573d6000803e3d6000fd5b505050505b50565b60005481565b61129c336114c6565b156113f9576000600760008581526020019081526020016000209050828160010190805190602001906112d0929190611a33565b50818160020160006101000a81548160ff021916908315150217905550600460009054906101000a900473ffffffffffffffffffffffffffffffffffffffff1673ffffffffffffffffffffffffffffffffffffffff166326e4ca826040518163ffffffff1660e01b815260040160206040518083038186803b15801561135557600080fd5b505afa158015611369573d6000803e3d6000fd5b505050506040513d601f19601f8201168201806040525081019061138d9190611d7b565b73ffffffffffffffffffffffffffffffffffffffff166363441ab2306040518263ffffffff1660e01b81526004016113c5919061257a565b600060405180830381600087803b1580156113df57600080fd5b505af11580156113f3573d6000803e3d6000fd5b50505050505b505050565b611406611b12565b61140e611b12565b60005b600a8110156114bc576005805490508482011061143157600a90506114af565b60058482018154811061144057fe5b9060005260206000200160009054906101000a900473ffffffffffffffffffffffffffffffffffffffff168282600a811061147757fe5b602002019073ffffffffffffffffffffffffffffffffffffffff16908173ffffffffffffffffffffffffffffffffffffffff16815250505b8080600101915050611411565b5080915050919050565b60006114d382600061196b565b9050919050565b6114e2611aef565b600460009054906101000a900473ffffffffffffffffffffffffffffffffffffffff1673ffffffffffffffffffffffffffffffffffffffff166326e4ca826040518163ffffffff1660e01b815260040160206040518083038186803b15801561154a57600080fd5b505afa15801561155e573d6000803e3d6000fd5b505050506040513d601f19601f820116820180604052508101906115829190611d7b565b73ffffffffffffffffffffffffffffffffffffffff1663ff25025b6040518163ffffffff1660e01b815260040160206040518083038186803b1580156115c757600080fd5b505afa1580156115db573d6000803e3d6000fd5b505050506040513d601f19601f820116820180604052508101906115ff9190611de0565b73ffffffffffffffffffffffffffffffffffffffff1663ad7a592f30846040518363ffffffff1660e01b81526004016116399291906124ad565b6101406040518083038186803b15801561165257600080fd5b505afa158015611666573d6000803e3d6000fd5b505050506040513d601f19601f8201168201806040525081019061168a9190611d51565b9050919050565b61169b33826105c9565b156119685760005b60058054905081101561180d578173ffffffffffffffffffffffffffffffffffffffff16600582815481106116d457fe5b9060005260206000200160009054906101000a900473ffffffffffffffffffffffffffffffffffffffff1673ffffffffffffffffffffffffffffffffffffffff1614156118005760006001600580549050039050808210156117be576005818154811061173d57fe5b9060005260206000200160009054906101000a900473ffffffffffffffffffffffffffffffffffffffff166005838154811061177557fe5b9060005260206000200160006101000a81548173ffffffffffffffffffffffffffffffffffffffff021916908373ffffffffffffffffffffffffffffffffffffffff1602179055505b60058054806117c957fe5b6001900381819060005260206000200160006101000a81549073ffffffffffffffffffffffffffffffffffffffff02191690559055505b80806001019150506116a3565b50600660008273ffffffffffffffffffffffffffffffffffffffff1673ffffffffffffffffffffffffffffffffffffffff16815260200190815260200160002060006101000a81549060ff0219169055600460009054906101000a900473ffffffffffffffffffffffffffffffffffffffff1673ffffffffffffffffffffffffffffffffffffffff166326e4ca826040518163ffffffff1660e01b815260040160206040518083038186803b1580156118c557600080fd5b505afa1580156118d9573d6000803e3d6000fd5b505050506040513d601f19601f820116820180604052508101906118fd9190611d7b565b73ffffffffffffffffffffffffffffffffffffffff166363441ab2306040518263ffffffff1660e01b815260040161193591906125bb565b600060405180830381600087803b15801561194f57600080fd5b505af1158015611963573d6000803e3d6000fd5b505050505b50565b60006005828154811061197a57fe5b9060005260206000200160009054906101000a900473ffffffffffffffffffffffffffffffffffffffff1673ffffffffffffffffffffffffffffffffffffffff168373ffffffffffffffffffffffffffffffffffffffff1614156119e15760019050611a0a565b600160058054905003821015611a05576119fe836001840161196b565b9050611a0a565b600090505b92915050565b604051806060016040528060008152602001606081526020016000151581525090565b828054600181600116156101000203166002900490600052602060002090601f016020900481019282611a695760008555611ab0565b82601f10611a8257805160ff1916838001178555611ab0565b82800160010185558215611ab0579182015b82811115611aaf578251825591602001919060010190611a94565b5b509050611abd9190611b35565b5090565b604051806101400160405280600a905b611ad9611a10565b815260200190600190039081611ad15790505090565b604051806101400160405280600a90602082028036833780820191505090505090565b604051806101400160405280600a90602082028036833780820191505090505090565b5b80821115611b4e576000816000905550600101611b36565b5090565b600081359050611b61816128d7565b92915050565b600082601f830112611b7857600080fd5b600a611b8b611b86826126ab565b61267a565b91508183856020840282011115611ba157600080fd5b60005b83811015611bd15781611bb78882611c1a565b845260208401935060208301925050600181019050611ba4565b5050505092915050565b600081359050611bea816128ee565b92915050565b600081519050611bff81612905565b92915050565b600081359050611c148161291c565b92915050565b600081519050611c298161291c565b92915050565b600081519050611c3e81612933565b92915050565b600081519050611c538161294a565b92915050565b600081519050611c6881612961565b92915050565b600082601f830112611c7f57600080fd5b8135611c92611c8d826126d1565b61267a565b91508082526020830160208301858383011115611cae57600080fd5b611cb9838284612882565b50505092915050565b600081359050611cd181612971565b92915050565b600081519050611ce681612971565b92915050565b600060208284031215611cfe57600080fd5b6000611d0c84828501611b52565b91505092915050565b60008060408385031215611d2857600080fd5b6000611d3685828601611b52565b9250506020611d4785828601611b52565b9150509250929050565b60006101408284031215611d6457600080fd5b6000611d7284828501611b67565b91505092915050565b600060208284031215611d8d57600080fd5b6000611d9b84828501611bf0565b91505092915050565b60008060408385031215611db757600080fd5b6000611dc585828601611c05565b9250506020611dd685828601611b52565b9150509250929050565b600060208284031215611df257600080fd5b6000611e0084828501611c2f565b91505092915050565b600060208284031215611e1b57600080fd5b6000611e2984828501611c44565b91505092915050565b600060208284031215611e4457600080fd5b6000611e5284828501611c59565b91505092915050565b600060208284031215611e6d57600080fd5b600082013567ffffffffffffffff811115611e8757600080fd5b611e9384828501611c6e565b91505092915050565b600060208284031215611eae57600080fd5b6000611ebc84828501611cc2565b91505092915050565b600060208284031215611ed757600080fd5b6000611ee584828501611cd7565b91505092915050565b60008060408385031215611f0157600080fd5b6000611f0f85828601611cc2565b9250506020611f2085828601611bdb565b9150509250929050565b600080600060608486031215611f3f57600080fd5b6000611f4d86828701611cc2565b935050602084013567ffffffffffffffff811115611f6a57600080fd5b611f7686828701611c6e565b9250506040611f8786828701611bdb565b9150509250925092565b6000611f9d8383611fd5565b60208301905092915050565b6000611fb58383612134565b60208301905092915050565b6000611fcd8383612344565b905092915050565b611fde816127aa565b82525050565b611fed816127aa565b82525050565b611ffc8161271f565b6120068184612772565b925061201182612701565b8060005b838110156120425781516120298782611f91565b96506120348361274b565b925050600181019050612015565b505050505050565b6120538161272a565b61205d8184612772565b92506120688261270b565b8060005b838110156120995781516120808782611fa9565b965061208b83612758565b92505060018101905061206c565b505050505050565b60006120ac82612735565b6120b6818561277d565b9350836020820285016120c885612715565b8060005b8581101561210457848403895281516120e58582611fc1565b94506120f083612765565b925060208a019950506001810190506120cc565b50829750879550505050505092915050565b61211f816127bc565b82525050565b61212e816127bc565b82525050565b61213d8161283a565b82525050565b61214c8161285e565b82525050565b600061215d82612740565b6121678185612788565b9350612177818560208601612891565b612180816128c6565b840191505092915050565b600061219682612740565b6121a08185612799565b93506121b0818560208601612891565b6121b9816128c6565b840191505092915050565b60006121d1601883612799565b91507f4144445f4d4f4449464945525f494e535449545554494f4e00000000000000006000830152602082019050919050565b6000612211601c83612799565b91507f4144445f53544146465f4d454d4245525f494e535449545554494f4e000000006000830152602082019050919050565b6000612251600b83612799565b91507f494e535449545554494f4e0000000000000000000000000000000000000000006000830152602082019050919050565b6000612291601f83612799565b91507f5550444154455f53544146465f4d454d4245525f494e535449545554494f4e006000830152602082019050919050565b60006122d1601b83612799565b91507f52454d4f56455f4d4f4449464945525f494e535449545554494f4e00000000006000830152602082019050919050565b6000612311601b83612799565b91507f4144445f43455254494649434154455f494e535449545554494f4e00000000006000830152602082019050919050565b600060608301600083015161235c60008601826123e4565b50602083015184820360208601526123748282612152565b91505060408301516123896040860182612116565b508091505092915050565b60006060830160008301516123ac60008601826123e4565b50602083015184820360208601526123c48282612152565b91505060408301516123d96040860182612116565b508091505092915050565b6123ed81612830565b82525050565b6123fc81612830565b82525050565b60006020820190506124176000830184611fe4565b92915050565b6000610140820190506124336000830184611ff3565b92915050565b60006101408201905061244f600083018461204a565b92915050565b6000602082019050818103600083015261246f81846120a1565b905092915050565b600060208201905061248c6000830184612125565b92915050565b60006020820190506124a76000830184612143565b92915050565b60006040820190506124c26000830185612143565b6124cf60208301846123f3565b9392505050565b600060208201905081810360008301526124f0818461218b565b905092915050565b60006060820190508181036000830152612511816121c4565b9050818103602083015261252481612244565b90506125336040830184611fe4565b92915050565b6000606082019050818103600083015261255281612204565b9050818103602083015261256581612244565b90506125746040830184611fe4565b92915050565b6000606082019050818103600083015261259381612284565b905081810360208301526125a681612244565b90506125b56040830184611fe4565b92915050565b600060608201905081810360008301526125d4816122c4565b905081810360208301526125e781612244565b90506125f66040830184611fe4565b92915050565b6000606082019050818103600083015261261581612304565b9050818103602083015261262881612244565b90506126376040830184611fe4565b92915050565b600060208201905081810360008301526126578184612394565b905092915050565b600060208201905061267460008301846123f3565b92915050565b6000604051905081810181811067ffffffffffffffff821117156126a1576126a06128c4565b5b8060405250919050565b600067ffffffffffffffff8211156126c6576126c56128c4565b5b602082029050919050565b600067ffffffffffffffff8211156126ec576126eb6128c4565b5b601f19601f8301169050602081019050919050565b6000819050919050565b6000819050919050565b6000819050919050565b6000600a9050919050565b6000600a9050919050565b6000600a9050919050565b600081519050919050565b6000602082019050919050565b6000602082019050919050565b6000602082019050919050565b600081905092915050565b600081905092915050565b600082825260208201905092915050565b600082825260208201905092915050565b60006127b582612810565b9050919050565b60008115159050919050565b60006127d3826127aa565b9050919050565b60006127e5826127aa565b9050919050565b60006127f7826127aa565b9050919050565b6000612809826127aa565b9050919050565b600073ffffffffffffffffffffffffffffffffffffffff82169050919050565b6000819050919050565b60006128458261284c565b9050919050565b600061285782612810565b9050919050565b600061286982612870565b9050919050565b600061287b82612810565b9050919050565b82818337600083830152505050565b60005b838110156128af578082015181840152602081019050612894565b838111156128be576000848401525b50505050565bfe5b6000601f19601f8301169050919050565b6128e0816127aa565b81146128eb57600080fd5b50565b6128f7816127bc565b811461290257600080fd5b50565b61290e816127c8565b811461291957600080fd5b50565b612925816127da565b811461293057600080fd5b50565b61293c816127ec565b811461294757600080fd5b50565b612953816127fe565b811461295e57600080fd5b50565b6003811061296e57600080fd5b50565b61297a81612830565b811461298557600080fd5b5056fea2646970667358221220d75aeddd07c69a0e5a3ed33b96b50214f33b9dd2cc8de338456b4d5770dc282e64736f6c63430007050033a26469706673582212203c6b42aeeeb794d5e84c082afd8b5ef03d95524fe92330bd98117bfcf2de719664736f6c63430007050033",
  "immutableReferences": {},
  "source": "// SPDX-License-Identifier: GPL-3.0\npragma solidity >=0.5.0 <0.8.0;\npragma abicoder v2;\nenum Degree {\n    ScholarlyAcademics,\n    PracticeAcademics,\n    ScholarlyPractitioner,\n    InstructionalPractitioner\n}\n\ncontract Certificate {\n    enum State {requested, approved, rejected}\n\n    Faculty public faculty;\n    Institution public institution;\n    Degree public degree;\n    State public status = State.requested;\n    CertificatesManager certificatesManager;\n\n    constructor(\n        CertificatesManager _certificatesManager,\n        Faculty _faculty,\n        Institution _institution,\n        Degree _degree\n    ) {\n        certificatesManager = _certificatesManager;\n        faculty = _faculty;\n        institution = _institution;\n        degree = _degree;\n    }\n\n    function update(Degree _degree) public payable {\n        if (editable(msg.sender)) {\n            degree = _degree;\n            certificatesManager.application().emitEvent(\n                \"UPDATE_CERTIFICATE\",\n                \"CERTIFICATE\",\n                address(this)\n            );\n        }\n    }\n\n    function reject() public payable {\n        if (editable(msg.sender)) {\n            status = State.rejected;\n            certificatesManager\n                .application()\n                .certificatesManager()\n                .removeCertificate(this);\n            certificatesManager.application().emitEvent(\n                \"REJEcT_CERTIFICATE\",\n                \"CERTIFICATE\",\n                address(this)\n            );\n        }\n    }\n\n    function approve() public payable {\n        if (editable(msg.sender) && institution.allowed(msg.sender)) {\n            status = State.approved;\n            faculty.addCertificate(this, msg.sender);\n            institution.addCertificate(this, msg.sender);\n            certificatesManager\n                .application()\n                .certificatesManager()\n                .removeCertificate(this);\n            certificatesManager.application().emitEvent(\n                \"APPROVE_CERTIFICATE\",\n                \"CERTIFICATE\",\n                address(this)\n            );\n        }\n    }\n\n    function editable(address _address) public view returns (bool) {\n        return ((status == State.requested &&\n            (institution.allowed(_address))) || faculty.allowed(_address));\n    }\n}\n\ncontract Faculty {\n    uint256 id;\n    string public name;\n    address public owner;\n    Certificate[] public certificates;\n    Institution public currentInstitution;\n    FacultiesManager facultiesManager;\n\n    constructor(\n        FacultiesManager _facultiesManager,\n        uint256 _id,\n        string memory _name,\n        address _owner\n    ) {\n        facultiesManager = _facultiesManager;\n        name = _name;\n        id = _id;\n        owner = _owner;\n    }\n\n    function update(string memory _name) public payable {\n        if (allowed(msg.sender)) {\n            name = _name;\n            facultiesManager.application().emitEvent(\n                \"UPDATE_FACULTY\",\n                \"FACULTY\",\n                address(this)\n            );\n        }\n    }\n\n    function assignInstitution(address _institutionAddress) public payable {\n        Institution _institution = Institution(_institutionAddress);\n        if (_institution.allowed(msg.sender)) {\n            currentInstitution = _institution;\n        }\n    }\n\n    function allowed(address _address) public view returns (bool) {\n        return _address == owner;\n    }\n\n    function addCertificate(Certificate _certificate, address _address)\n        public\n        payable\n    {\n        if (\n            _certificate.institution().allowed(_address) &&\n            _certificate.status() == Certificate.State.approved &&\n            _certificate.faculty() == this\n        ) {\n            certificates.push(_certificate);\n            facultiesManager.application().emitEvent(\n                \"ADD_CERTIFICATE\",\n                \"FACULTY\",\n                address(this)\n            );\n        }\n    }\n\n    function certificatesLength() public view returns (uint256) {\n        return certificates.length;\n    }\n\n    function pendingCertificatesLength() public view returns (uint256) {\n        return\n            facultiesManager\n                .application()\n                .certificatesManager()\n                .pendingCertificateLengthForFaculty(this);\n    }\n\n    function pendingCertificates(uint256 _from)\n        public\n        view\n        returns (Certificate[10] memory)\n    {\n        return\n            facultiesManager\n                .application()\n                .certificatesManager()\n                .pendingCertificateForFaculty(this, _from);\n    }\n}\n\ncontract Institution {\n    struct StaffMember {\n        uint256 id;\n        string name;\n        bool active;\n    }\n\n    uint256 public id;\n    string public name;\n    address public owner;\n\n    Certificate[] certificates;\n    InstituionsManager instituionsManager;\n    address[] public allowedModifiers;\n    mapping(address => bool) allowedModifiersMap;\n\n    mapping(uint256 => StaffMember) staffMembers;\n    uint256 nextStaffMembersId = 1;\n\n    mapping(uint256 => Faculty) faculties;\n    uint256 nextFacultyId;\n\n    constructor(\n        InstituionsManager _instituionsManager,\n        uint256 _id,\n        string memory _name,\n        address sender\n    ) {\n        instituionsManager = _instituionsManager;\n        id = _id;\n        name = _name;\n        owner = sender;\n        allowedModifiers.push(sender);\n        allowedModifiersMap[sender] = true;\n    }\n\n    function update(string memory _name) public payable {\n        if (allowed(msg.sender)) {\n            name = _name;\n        }\n    }\n\n    function staffMember(uint256 _from)\n        public\n        view\n        returns (StaffMember memory)\n    {\n        return staffMembers[_from];\n    }\n\n    function listStaffMembers(uint256 _from, bool skipInactive)\n        public\n        view\n        returns (StaffMember[10] memory)\n    {\n        StaffMember[10] memory list;\n        for (uint256 i = 0; i < 10; i++) {\n            if (nextStaffMembersId < i + _from + 1) {\n                i = 10;\n            } else if (skipInactive && !staffMembers[i + _from + 1].active) {\n                _from++;\n                i--;\n            } else {\n                list[i] = staffMembers[i + _from + 1];\n            }\n        }\n        return list;\n    }\n\n    function staffMembersLength() public view returns (uint256) {\n        return nextStaffMembersId - 1;\n    }\n\n    function createStaffMember(string memory _name) public payable {\n        if (allowed(msg.sender)) {\n            uint256 _nextStaffMemberId = nextStaffMembersId++;\n            StaffMember storage _staffMember = staffMembers[_nextStaffMemberId];\n            _staffMember.id = _nextStaffMemberId;\n            _staffMember.name = _name;\n            _staffMember.active = true;\n            instituionsManager.application().emitEvent(\n                \"ADD_STAFF_MEMBER_INSTITUTION\",\n                \"INSTITUTION\",\n                address(this)\n            );\n        }\n    }\n\n    function updateStaffMember(\n        uint256 _staffMemberId,\n        string memory _name,\n        bool _active\n    ) public payable {\n        if (allowed(msg.sender)) {\n            StaffMember storage _staffMember = staffMembers[_staffMemberId];\n            _staffMember.name = _name;\n            _staffMember.active = _active;\n            instituionsManager.application().emitEvent(\n                \"UPDATE_STAFF_MEMBER_INSTITUTION\",\n                \"INSTITUTION\",\n                address(this)\n            );\n        }\n    }\n\n    function listModifiers(uint256 _from)\n        public\n        view\n        returns (address[10] memory)\n    {\n        address[10] memory list;\n        for (uint256 i = 0; i < 10; i++) {\n            if (i + _from >= allowedModifiers.length) {\n                i = 10;\n            } else {\n                list[i] = allowedModifiers[i + _from];\n            }\n        }\n        return list;\n    }\n\n    function modifiersLength() public view returns (uint256) {\n        return allowedModifiers.length;\n    }\n\n    function addModifier(address _modifier) public payable {\n        if (allowed(msg.sender) && !allowedModifiersMap[_modifier]) {\n            allowedModifiers.push(_modifier);\n            allowedModifiersMap[_modifier] = true;\n            instituionsManager.application().emitEvent(\n                \"ADD_MODIFIER_INSTITUTION\",\n                \"INSTITUTION\",\n                address(this)\n            );\n        }\n    }\n\n    function removeModifier(address _modifier) public payable {\n        if (allowedToRemove(msg.sender, _modifier)) {\n            for (uint256 i = 0; i < allowedModifiers.length; i++) {\n                if (allowedModifiers[i] == _modifier) {\n                    uint256 _lastIndex = allowedModifiers.length - 1;\n                    if (i < _lastIndex) {\n                        allowedModifiers[i] = allowedModifiers[_lastIndex];\n                    }\n                    allowedModifiers.pop();\n                }\n            }\n            delete allowedModifiersMap[_modifier];\n            instituionsManager.application().emitEvent(\n                \"REMOVE_MODIFIER_INSTITUTION\",\n                \"INSTITUTION\",\n                address(this)\n            );\n        }\n    }\n\n    function allowedToRemove(address _sender, address _toRemove)\n        public\n        view\n        returns (bool)\n    {\n        if (allowed(_sender)) {\n            if (_sender == _toRemove) {\n                return false;\n            } else if (_toRemove == owner) {\n                return false;\n            } else {\n                return true;\n            }\n        } else {\n            return false;\n        }\n    }\n\n    function allowed(address _modifierAddress) public view returns (bool) {\n        return allowed(_modifierAddress, 0);\n    }\n\n    function allowed(address modifierAddress, uint256 index)\n        private\n        view\n        returns (bool)\n    {\n        if (modifierAddress == allowedModifiers[index]) {\n            return true;\n        } else if (index < allowedModifiers.length - 1) {\n            return allowed(modifierAddress, index + 1);\n        } else {\n            return false;\n        }\n    }\n\n    function addCertificate(Certificate _certificate, address _address)\n        public\n        payable\n    {\n        if (\n            allowed(_address) &&\n            _certificate.status() == Certificate.State.approved &&\n            _certificate.institution() == this\n        ) {\n            certificates.push(_certificate);\n            instituionsManager.application().emitEvent(\n                \"ADD_CERTIFICATE_INSTITUTION\",\n                \"INSTITUTION\",\n                address(this)\n            );\n        }\n    }\n\n    function issuedCertificates(uint256 _from)\n        public\n        view\n        returns (Certificate[10] memory)\n    {\n        Certificate[10] memory _list;\n        uint256 _count = 0;\n        for (uint256 i = _from; i < certificates.length && _count < 10; i++) {\n            _list[_count] = certificates[i];\n            _count++;\n        }\n        return _list;\n    }\n\n    function issuedCertificatesLength() public view returns (uint256) {\n        return certificates.length;\n    }\n\n    function pendingCertificatesLength() public view returns (uint256) {\n        return\n            instituionsManager\n                .application()\n                .certificatesManager()\n                .pendingCertificateLengthForInstitution(this);\n    }\n\n    function pendingCertificates(uint256 _from)\n        public\n        view\n        returns (Certificate[10] memory)\n    {\n        return\n            instituionsManager\n                .application()\n                .certificatesManager()\n                .pendingCertificateForInstitution(this, _from);\n    }\n}\n\ncontract CertificatesManager {\n    Certificate[] pendingCertificates;\n    Application public application;\n\n    constructor(Application _application) {\n        application = _application;\n    }\n\n    function requestCertificate(\n        Faculty _faculty,\n        Institution _institution,\n        Degree _degree\n    ) public payable {\n        Certificate _certificate =\n            new Certificate(this, _faculty, _institution, _degree);\n        pendingCertificates.push(_certificate);\n        application.emitEvent(\n            \"REQUEST_CERTIFICATE\",\n            \"INSTITUTION\",\n            address(_institution)\n        );\n        application.emitEvent(\n            \"REQUEST_CERTIFICATE\",\n            \"FACULTY\",\n            address(_faculty)\n        );\n    }\n\n    function removeCertificate(Certificate _certificate) public payable {\n        for (uint256 i = 0; i < pendingCertificates.length; i++) {\n            if (pendingCertificates[i] == _certificate) {\n                uint256 _lastIndex = pendingCertificates.length - 1;\n                if (i < _lastIndex) {\n                    pendingCertificates[i] = pendingCertificates[_lastIndex];\n                }\n                pendingCertificates.pop();\n            }\n        }\n        application.emitEvent(\n            \"CERTIFICATE_REMOVE\",\n            \"INSTITUTION\",\n            address(_certificate.institution())\n        );\n        application.emitEvent(\n            \"CERTIFICATE_REMOVE\",\n            \"FACULTY\",\n            address(_certificate.faculty())\n        );\n    }\n\n    function pendingCertificateLengthForFaculty(Faculty _faculty)\n        public\n        view\n        returns (uint256)\n    {\n        uint256 _count = 0;\n        for (uint256 i = 0; i < pendingCertificates.length; i++) {\n            if (pendingCertificates[i].faculty() == _faculty) {\n                _count++;\n            }\n        }\n        return _count;\n    }\n\n    function pendingCertificateForFaculty(Faculty _faculty, uint256 _from)\n        public\n        view\n        returns (Certificate[10] memory)\n    {\n        Certificate[10] memory _list;\n        uint256 _count = 0;\n        uint256 _toSkip = 0;\n        for (\n            uint256 i = 0;\n            i < pendingCertificates.length && _count <= 10;\n            i++\n        ) {\n            if (pendingCertificates[i].faculty() == _faculty) {\n                if (_toSkip >= _from) {\n                    _list[_count] = pendingCertificates[i];\n                    _count++;\n                }\n                _toSkip++;\n            }\n        }\n        return _list;\n    }\n\n    function pendingCertificateLengthForInstitution(Institution _institution)\n        public\n        view\n        returns (uint256)\n    {\n        uint256 _count = 0;\n        for (uint256 i = 0; i < pendingCertificates.length; i++) {\n            if (pendingCertificates[i].institution() == _institution) {\n                _count++;\n            }\n        }\n        return _count;\n    }\n\n    function pendingCertificateForInstitution(\n        Institution _institution,\n        uint256 _from\n    ) public view returns (Certificate[10] memory) {\n        Certificate[10] memory _list;\n        uint256 _count = 0;\n        uint256 _toSkip = 0;\n        for (\n            uint256 i = 0;\n            i < pendingCertificates.length && _count <= 10;\n            i++\n        ) {\n            if (pendingCertificates[i].institution() == _institution) {\n                if (_toSkip >= _from) {\n                    _list[_count] = pendingCertificates[i];\n                    _count++;\n                }\n                _toSkip++;\n            }\n        }\n        return _list;\n    }\n}\n\ncontract FacultiesManager {\n    Application public application;\n    mapping(address => Faculty) public faculties;\n    mapping(uint256 => Faculty) facultiesByIndex;\n    uint256 nextFacultyId = 0;\n\n    constructor(Application _application) {\n        application = _application;\n    }\n\n    function facultiesLength() public view returns (uint256) {\n        return nextFacultyId;\n    }\n\n    function createFaculty(string memory _name) public payable {\n        if (address(faculties[msg.sender]) == address(0x0)) {\n            uint256 _id = nextFacultyId++;\n            Faculty faculty = new Faculty(this, _id, _name, msg.sender);\n            facultiesByIndex[_id] = faculty;\n            faculties[msg.sender] = faculty;\n            application.emitEvent(\n                \"CREATE_FACULTY\",\n                \"FACULTY\",\n                address(faculty)\n            );\n        }\n    }\n\n    function listFaculties(uint256 _from)\n        public\n        view\n        returns (Faculty[10] memory)\n    {\n        Faculty[10] memory list;\n        for (uint256 i = 0; i < 10; i++) {\n            list[i] = facultiesByIndex[i + _from];\n        }\n        return list;\n    }\n}\n\ncontract InstituionsManager {\n    Application public application;\n    mapping(uint256 => Institution) public institutions;\n    uint256 nextInstitutionId = 0;\n\n    constructor(Application _application) {\n        application = _application;\n    }\n\n    function institutionsLength() public view returns (uint256) {\n        return nextInstitutionId;\n    }\n\n    function createInstitution(string memory _name) public payable {\n        uint256 _id = nextInstitutionId++;\n        Institution _institution =\n            new Institution(this, _id, _name, msg.sender);\n        institutions[_id] = _institution;\n        application.emitEvent(\n            \"CREATE_INSTITUTION\",\n            \"INSTITUTION\",\n            address(_institution)\n        );\n    }\n\n    function listInstitutions(uint256 _from)\n        public\n        view\n        returns (Institution[10] memory)\n    {\n        Institution[10] memory list;\n        for (uint256 i = 0; i < 10; i++) {\n            list[i] = institutions[i + _from];\n        }\n        return list;\n    }\n}\n\ncontract Application {\n    /*\n    Application is the root contract that the UI will use to interact with sub contracts \n    */\n    CertificatesManager public certificatesManager;\n    FacultiesManager public facultiesManager;\n    InstituionsManager public instituionsManager;\n    event ApplicationEvent(\n        string eventType,\n        string targetType,\n        address targetAddress\n    );\n\n    constructor() {\n        certificatesManager = new CertificatesManager(this);\n        facultiesManager = new FacultiesManager(this);\n        instituionsManager = new InstituionsManager(this);\n    }\n\n    function emitEvent(\n        string memory eventType,\n        string memory targetType,\n        address targetAddress\n    ) public payable {\n        emit ApplicationEvent(eventType, targetType, targetAddress);\n    }\n}\n",
  "sourcePath": "/home/mortadaak/projects/aacsb_accreditiation/contracts/Application.sol",
  "compiler": {
    "name": "solc",
    "version": "0.7.5+commit.eb77ed08.Emscripten.clang"
  },
  "schemaVersion": "3.3.3",
  "updatedAt": "2021-01-20T13:05:50.614Z",
  "devdoc": {
    "kind": "dev",
    "methods": {},
    "version": 1
  },
  "userdoc": {
    "kind": "user",
    "methods": {},
    "version": 1
  }
}