{
  "contractName": "Insututions",
  "abi": [
    {
      "inputs": [
        {
          "internalType": "contract Application",
          "name": "_application",
          "type": "address"
        }
      ],
      "stateMutability": "nonpayable",
      "type": "constructor"
    },
    {
      "anonymous": false,
      "inputs": [
        {
          "indexed": false,
          "internalType": "address",
          "name": "by",
          "type": "address"
        },
        {
          "indexed": false,
          "internalType": "contract Institution",
          "name": "institution",
          "type": "address"
        }
      ],
      "name": "InstitutionAdded",
      "type": "event"
    },
    {
      "inputs": [
        {
          "internalType": "uint256",
          "name": "",
          "type": "uint256"
        }
      ],
      "name": "institutions",
      "outputs": [
        {
          "internalType": "contract Institution",
          "name": "",
          "type": "address"
        }
      ],
      "stateMutability": "view",
      "type": "function"
    },
    {
      "inputs": [
        {
          "internalType": "string",
          "name": "_name",
          "type": "string"
        }
      ],
      "name": "createInstitution",
      "outputs": [],
      "stateMutability": "payable",
      "type": "function"
    },
    {
      "inputs": [
        {
          "internalType": "uint256",
          "name": "_from",
          "type": "uint256"
        }
      ],
      "name": "listInstitutions",
      "outputs": [
        {
          "internalType": "contract Institution[10]",
          "name": "",
          "type": "address[10]"
        }
      ],
      "stateMutability": "view",
      "type": "function"
    }
  ],
  "bytecode": "0x6080604052600060025534801561001557600080fd5b506040516130e33803806130e383398181016040528101906100379190610092565b806000806101000a81548173ffffffffffffffffffffffffffffffffffffffff021916908373ffffffffffffffffffffffffffffffffffffffff16021790555050610116565b60008151905061008c816100ff565b92915050565b6000602082840312156100a457600080fd5b60006100b28482850161007d565b91505092915050565b60006100c6826100df565b9050919050565b60006100d8826100bb565b9050919050565b600073ffffffffffffffffffffffffffffffffffffffff82169050919050565b610108816100cd565b811461011357600080fd5b50565b612fbe806101256000396000f3fe608060405260043610620000385760003560e01c8063029bf701146200003d57806377104d92146200005d578063c3b59d0014620000a1575b600080fd5b6200005b6004803603810190620000559190620003d8565b620000e5565b005b3480156200006a57600080fd5b506200008960048036038101906200008391906200041d565b620001f8565b60405162000098919062000589565b60405180910390f35b348015620000ae57600080fd5b50620000cd6004803603810190620000c791906200041d565b620002eb565b604051620000dc9190620005fb565b60405180910390f35b600060026000815480929190620000fc90620007f8565b91905055905060008060009054906101000a900473ffffffffffffffffffffffffffffffffffffffff1682843360405162000137906200031e565b620001469493929190620005a7565b604051809103906000f08015801562000163573d6000803e3d6000fd5b509050806001600084815260200190815260200160002060006101000a81548173ffffffffffffffffffffffffffffffffffffffff021916908373ffffffffffffffffffffffffffffffffffffffff1602179055507f5c79bd8ba7d2ae3b56881c744eb69f935eed4619b4e4b48a5fb61d04e99a2ce53382604051620001eb9291906200055c565b60405180910390a1505050565b620002026200032c565b6200020c6200032c565b60005b600a811015620002e1576001600085836200022b9190620006c8565b815260200190815260200160002060009054906101000a900473ffffffffffffffffffffffffffffffffffffffff168282600a811062000294577f4e487b7100000000000000000000000000000000000000000000000000000000600052603260045260246000fd5b602002019073ffffffffffffffffffffffffffffffffffffffff16908173ffffffffffffffffffffffffffffffffffffffff16815250508080620002d890620007f8565b9150506200020f565b5080915050919050565b60016020528060005260406000206000915054906101000a900473ffffffffffffffffffffffffffffffffffffffff1681565b6126b980620008d083390190565b604051806101400160405280600a90602082028036833780820191505090505090565b60006200036662000360846200064c565b62000618565b9050828152602081018484840111156200037f57600080fd5b6200038c848285620007b3565b509392505050565b600082601f830112620003a657600080fd5b8135620003b88482602086016200034f565b91505092915050565b600081359050620003d281620008b5565b92915050565b600060208284031215620003eb57600080fd5b600082013567ffffffffffffffff8111156200040657600080fd5b620004148482850162000394565b91505092915050565b6000602082840312156200043057600080fd5b60006200044084828501620003c1565b91505092915050565b6000620004578383620004e8565b60208301905092915050565b6200046e8162000725565b82525050565b6200047f8162000689565b6200048b8184620006ac565b925062000498826200067f565b8060005b83811015620004cf578151620004b3878262000449565b9650620004c0836200069f565b9250506001810190506200049c565b505050505050565b620004e28162000763565b82525050565b620004f3816200078b565b82525050565b62000504816200078b565b82525050565b6000620005178262000694565b620005238185620006b7565b935062000535818560208601620007c2565b6200054081620008a4565b840191505092915050565b620005568162000759565b82525050565b600060408201905062000573600083018562000463565b620005826020830184620004f9565b9392505050565b600061014082019050620005a1600083018462000474565b92915050565b6000608082019050620005be6000830187620004d7565b620005cd60208301866200054b565b8181036040830152620005e181856200050a565b9050620005f2606083018462000463565b95945050505050565b6000602082019050620006126000830184620004f9565b92915050565b6000604051905081810181811067ffffffffffffffff8211171562000642576200064162000875565b5b8060405250919050565b600067ffffffffffffffff8211156200066a576200066962000875565b5b601f19601f8301169050602081019050919050565b6000819050919050565b6000600a9050919050565b600081519050919050565b6000602082019050919050565b600081905092915050565b600082825260208201905092915050565b6000620006d58262000759565b9150620006e28362000759565b9250827fffffffffffffffffffffffffffffffffffffffffffffffffffffffffffffffff038211156200071a576200071962000846565b5b828201905092915050565b6000620007328262000739565b9050919050565b600073ffffffffffffffffffffffffffffffffffffffff82169050919050565b6000819050919050565b6000620007708262000777565b9050919050565b6000620007848262000739565b9050919050565b600062000798826200079f565b9050919050565b6000620007ac8262000739565b9050919050565b82818337600083830152505050565b60005b83811015620007e2578082015181840152602081019050620007c5565b83811115620007f2576000848401525b50505050565b6000620008058262000759565b91507fffffffffffffffffffffffffffffffffffffffffffffffffffffffffffffffff8214156200083b576200083a62000846565b5b600182019050919050565b7f4e487b7100000000000000000000000000000000000000000000000000000000600052601160045260246000fd5b7f4e487b7100000000000000000000000000000000000000000000000000000000600052604160045260246000fd5b6000601f19601f8301169050919050565b620008c08162000759565b8114620008cc57600080fd5b5056fe608060405260016008553480156200001657600080fd5b50604051620026b9380380620026b983398181016040528101906200003c91906200030a565b83600460006101000a81548173ffffffffffffffffffffffffffffffffffffffff021916908373ffffffffffffffffffffffffffffffffffffffff1602179055508260008190555081600190805190602001906200009c929190620001a3565b5080600260006101000a81548173ffffffffffffffffffffffffffffffffffffffff021916908373ffffffffffffffffffffffffffffffffffffffff1602179055506005819080600181540180825580915050600190039060005260206000200160009091909190916101000a81548173ffffffffffffffffffffffffffffffffffffffff021916908373ffffffffffffffffffffffffffffffffffffffff1602179055506001600660008373ffffffffffffffffffffffffffffffffffffffff1673ffffffffffffffffffffffffffffffffffffffff16815260200190815260200160002060006101000a81548160ff0219169083151502179055505050505062000560565b828054620001b1906200047e565b90600052602060002090601f016020900481019282620001d5576000855562000221565b82601f10620001f057805160ff191683800117855562000221565b8280016001018555821562000221579182015b828111156200022057825182559160200191906001019062000203565b5b50905062000230919062000234565b5090565b5b808211156200024f57600081600090555060010162000235565b5090565b60006200026a6200026484620003c3565b6200038f565b9050828152602081018484840111156200028357600080fd5b6200029084828562000448565b509392505050565b600081519050620002a98162000512565b92915050565b600081519050620002c0816200052c565b92915050565b600082601f830112620002d857600080fd5b8151620002ea84826020860162000253565b91505092915050565b600081519050620003048162000546565b92915050565b600080600080608085870312156200032157600080fd5b60006200033187828801620002af565b94505060206200034487828801620002f3565b935050604085015167ffffffffffffffff8111156200036257600080fd5b6200037087828801620002c6565b9250506060620003838782880162000298565b91505092959194509250565b6000604051905081810181811067ffffffffffffffff82111715620003b957620003b8620004e3565b5b8060405250919050565b600067ffffffffffffffff821115620003e157620003e0620004e3565b5b601f19601f8301169050602081019050919050565b600062000403826200041e565b9050919050565b60006200041782620003f6565b9050919050565b600073ffffffffffffffffffffffffffffffffffffffff82169050919050565b6000819050919050565b60005b83811015620004685780820151818401526020810190506200044b565b8381111562000478576000848401525b50505050565b600060028204905060018216806200049757607f821691505b60208210811415620004ae57620004ad620004b4565b5b50919050565b7f4e487b7100000000000000000000000000000000000000000000000000000000600052602260045260246000fd5b7f4e487b7100000000000000000000000000000000000000000000000000000000600052604160045260246000fd5b6200051d81620003f6565b81146200052957600080fd5b50565b62000537816200040a565b81146200054357600080fd5b50565b62000551816200043e565b81146200055d57600080fd5b50565b61214980620005706000396000f3fe6080604052600436106101145760003560e01c80636bd5b694116100a0578063af640d0f11610064578063af640d0f14610391578063c16ebe5a146103bc578063d2e3f3b7146103d8578063d63a8e1114610415578063eafb96bd1461045257610114565b80636bd5b694146102c657806370927f7814610303578063781dd7221461032e5780638da5cb5b1461034a578063a013fe301461037557610114565b80633c98ccee116100e75780633c98ccee146101fb5780633d7403a3146102265780634225674d1461024257806344e538ae1461027f578063636558a5146102aa57610114565b8063068d81741461011957806306fdde031461015657806308e0018b14610181578063262e025b146101be575b600080fd5b34801561012557600080fd5b50610140600480360381019061013b91906117c0565b61046e565b60405161014d9190611b7d565b60405180910390f35b34801561016257600080fd5b5061016b6104ad565b6040516101789190611c88565b60405180910390f35b34801561018d57600080fd5b506101a860048036038101906101a391906116b5565b61053b565b6040516101b59190611c6d565b60405180910390f35b3480156101ca57600080fd5b506101e560048036038101906101e091906117c0565b6105fb565b6040516101f29190611caa565b60405180910390f35b34801561020757600080fd5b506102106106df565b60405161021d9190611ccc565b60405180910390f35b610240600480360381019061023b919061177f565b6106ec565b005b34801561024e57600080fd5b50610269600480360381019061026491906117e9565b610715565b6040516102769190611c4b565b60405180910390f35b34801561028b57600080fd5b50610294610913565b6040516102a19190611ccc565b60405180910390f35b6102c460048036038101906102bf919061177f565b610929565b005b3480156102d257600080fd5b506102ed60048036038101906102e891906117c0565b6109eb565b6040516102fa9190611c2f565b60405180910390f35b34801561030f57600080fd5b50610318610b1c565b6040516103259190611ccc565b60405180910390f35b610348600480360381019061034391906116f1565b610b29565b005b34801561035657600080fd5b5061035f610d85565b60405161036c9190611b7d565b60405180910390f35b61038f600480360381019061038a919061168c565b610dab565b005b34801561039d57600080fd5b506103a6610f07565b6040516103b39190611ccc565b60405180910390f35b6103d660048036038101906103d19190611825565b610f0d565b005b3480156103e457600080fd5b506103ff60048036038101906103fa91906117c0565b610f6e565b60405161040c9190611c13565b60405180910390f35b34801561042157600080fd5b5061043c6004803603810190610437919061168c565b6110a8565b6040516104499190611c6d565b60405180910390f35b61046c6004803603810190610467919061168c565b6110bc565b005b6005818154811061047e57600080fd5b906000526020600020016000915054906101000a900473ffffffffffffffffffffffffffffffffffffffff1681565b600180546104ba90611f77565b80601f01602080910402602001604051908101604052809291908181526020018280546104e690611f77565b80156105335780601f1061050857610100808354040283529160200191610533565b820191906000526020600020905b81548152906001019060200180831161051657829003601f168201915b505050505081565b6000610546836110a8565b156105f0578173ffffffffffffffffffffffffffffffffffffffff168373ffffffffffffffffffffffffffffffffffffffff16141561058857600090506105f5565b600260009054906101000a900473ffffffffffffffffffffffffffffffffffffffff1673ffffffffffffffffffffffffffffffffffffffff168273ffffffffffffffffffffffffffffffffffffffff1614156105e757600090506105f5565b600190506105f5565b600090505b92915050565b61060361146c565b600760008381526020019081526020016000206040518060600160405290816000820154815260200160018201805461063b90611f77565b80601f016020809104026020016040519081016040528092919081815260200182805461066790611f77565b80156106b45780601f10610689576101008083540402835291602001916106b4565b820191906000526020600020905b81548152906001019060200180831161069757829003601f168201915b505050505081526020016002820160009054906101000a900460ff1615151515815250509050919050565b6000600580549050905090565b6106f5336110a8565b1561071257806001908051906020019061071092919061148f565b505b50565b61071d611515565b610725611515565b60005b600a811015610908576001858261073f9190611df1565b6107499190611df1565b600854101561075b57600a90506108f5565b8380156107a0575060076000600187846107759190611df1565b61077f9190611df1565b815260200190815260200160002060020160009054906101000a900460ff16155b156107c65784806107b090611fa9565b95505080806107be90611f4d565b9150506108f4565b60076000600187846107d89190611df1565b6107e29190611df1565b81526020019081526020016000206040518060600160405290816000820154815260200160018201805461081590611f77565b80601f016020809104026020016040519081016040528092919081815260200182805461084190611f77565b801561088e5780601f106108635761010080835404028352916020019161088e565b820191906000526020600020905b81548152906001019060200180831161087157829003601f168201915b505050505081526020016002820160009054906101000a900460ff1615151515815250508282600a81106108eb577f4e487b7100000000000000000000000000000000000000000000000000000000600052603260045260246000fd5b60200201819052505b5b808061090090611fa9565b915050610728565b508091505092915050565b600060016008546109249190611e47565b905090565b610932336110a8565b156109e85760006008600081548092919061094c90611fa9565b91905055905060006007600083815260200190815260200160002090508181600001819055508281600101908051906020019061098a92919061148f565b5060018160020160006101000a81548160ff0219169083151502179055507fe154ff08768be7b4ad97a55d148cde1f8d845f90d1ba849915f2d32ac15bf6ed3382600001546040516109dd929190611bea565b60405180910390a150505b50565b6109f3611543565b6109fb611543565b6000808490505b60038054905081108015610a165750600a82105b15610b115760038181548110610a55577f4e487b7100000000000000000000000000000000000000000000000000000000600052603260045260246000fd5b9060005260206000200160009054906101000a900473ffffffffffffffffffffffffffffffffffffffff168383600a8110610ab9577f4e487b7100000000000000000000000000000000000000000000000000000000600052603260045260246000fd5b602002019073ffffffffffffffffffffffffffffffffffffffff16908173ffffffffffffffffffffffffffffffffffffffff16815250508180610afb90611fa9565b9250508080610b0990611fa9565b915050610a02565b508192505050919050565b6000600380549050905090565b610b32816110a8565b8015610c2b575060016002811115610b73577f4e487b7100000000000000000000000000000000000000000000000000000000600052602160045260246000fd5b8273ffffffffffffffffffffffffffffffffffffffff1663200d2ed26040518163ffffffff1660e01b815260040160206040518083038186803b158015610bb957600080fd5b505afa158015610bcd573d6000803e3d6000fd5b505050506040513d601f19601f82011682018060405250810190610bf19190611756565b6002811115610c29577f4e487b7100000000000000000000000000000000000000000000000000000000600052602160045260246000fd5b145b8015610cdf57503073ffffffffffffffffffffffffffffffffffffffff168273ffffffffffffffffffffffffffffffffffffffff1663d1384eb66040518163ffffffff1660e01b815260040160206040518083038186803b158015610c8f57600080fd5b505afa158015610ca3573d6000803e3d6000fd5b505050506040513d601f19601f82011682018060405250810190610cc7919061172d565b73ffffffffffffffffffffffffffffffffffffffff16145b15610d81576003829080600181540180825580915050600190039060005260206000200160009091909190916101000a81548173ffffffffffffffffffffffffffffffffffffffff021916908373ffffffffffffffffffffffffffffffffffffffff1602179055507fcab8446535b35de1f0ebc27aeffe078cbebbd56fa92739c56cf2a99ed79665d68183604051610d78929190611bc1565b60405180910390a15b5050565b600260009054906101000a900473ffffffffffffffffffffffffffffffffffffffff1681565b610db4336110a8565b8015610e0a5750600660008273ffffffffffffffffffffffffffffffffffffffff1673ffffffffffffffffffffffffffffffffffffffff16815260200190815260200160002060009054906101000a900460ff16155b15610f04576005819080600181540180825580915050600190039060005260206000200160009091909190916101000a81548173ffffffffffffffffffffffffffffffffffffffff021916908373ffffffffffffffffffffffffffffffffffffffff1602179055506001600660008373ffffffffffffffffffffffffffffffffffffffff1673ffffffffffffffffffffffffffffffffffffffff16815260200190815260200160002060006101000a81548160ff0219169083151502179055507f4c3f8d573327070a8bdfb58632fa8057d0e0d56c4e982b03b555bdf50fd041be3382604051610efb929190611b98565b60405180910390a15b50565b60005481565b610f16336110a8565b15610f6957600060076000858152602001908152602001600020905082816001019080519060200190610f4a92919061148f565b50818160020160006101000a81548160ff021916908315150217905550505b505050565b610f76611566565b610f7e611566565b60005b600a81101561109e576005805490508482610f9c9190611df1565b10610faa57600a905061108b565b60058482610fb89190611df1565b81548110610fef577f4e487b7100000000000000000000000000000000000000000000000000000000600052603260045260246000fd5b9060005260206000200160009054906101000a900473ffffffffffffffffffffffffffffffffffffffff168282600a8110611053577f4e487b7100000000000000000000000000000000000000000000000000000000600052603260045260246000fd5b602002019073ffffffffffffffffffffffffffffffffffffffff16908173ffffffffffffffffffffffffffffffffffffffff16815250505b808061109690611fa9565b915050610f81565b5080915050919050565b60006110b5826000611388565b9050919050565b6110c6338261053b565b156113855760005b6005805490508110156112fb578173ffffffffffffffffffffffffffffffffffffffff166005828154811061112c577f4e487b7100000000000000000000000000000000000000000000000000000000600052603260045260246000fd5b9060005260206000200160009054906101000a900473ffffffffffffffffffffffffffffffffffffffff1673ffffffffffffffffffffffffffffffffffffffff1614156112e857600060016005805490506111879190611e47565b90508082101561127957600581815481106111cb577f4e487b7100000000000000000000000000000000000000000000000000000000600052603260045260246000fd5b9060005260206000200160009054906101000a900473ffffffffffffffffffffffffffffffffffffffff1660058381548110611230577f4e487b7100000000000000000000000000000000000000000000000000000000600052603260045260246000fd5b9060005260206000200160006101000a81548173ffffffffffffffffffffffffffffffffffffffff021916908373ffffffffffffffffffffffffffffffffffffffff1602179055505b60058054806112b1577f4e487b7100000000000000000000000000000000000000000000000000000000600052603160045260246000fd5b6001900381819060005260206000200160006101000a81549073ffffffffffffffffffffffffffffffffffffffff02191690559055505b80806112f390611fa9565b9150506110ce565b50600660008273ffffffffffffffffffffffffffffffffffffffff1673ffffffffffffffffffffffffffffffffffffffff16815260200190815260200160002060006101000a81549060ff02191690557fbcd9acfa7798dc641ff4ac996c5bac1c3453ce5b9c04a919728479f94cc9bc59338260405161137c929190611b98565b60405180910390a15b50565b6000600582815481106113c4577f4e487b7100000000000000000000000000000000000000000000000000000000600052603260045260246000fd5b9060005260206000200160009054906101000a900473ffffffffffffffffffffffffffffffffffffffff1673ffffffffffffffffffffffffffffffffffffffff168373ffffffffffffffffffffffffffffffffffffffff16141561142b5760019050611466565b600160058054905061143d9190611e47565b8210156114615761145a836001846114559190611df1565b611388565b9050611466565b600090505b92915050565b604051806060016040528060008152602001606081526020016000151581525090565b82805461149b90611f77565b90600052602060002090601f0160209004810192826114bd5760008555611504565b82601f106114d657805160ff1916838001178555611504565b82800160010185558215611504579182015b828111156115035782518255916020019190600101906114e8565b5b5090506115119190611589565b5090565b604051806101400160405280600a905b61152d61146c565b8152602001906001900390816115255790505090565b604051806101400160405280600a90602082028036833780820191505090505090565b604051806101400160405280600a90602082028036833780820191505090505090565b5b808211156115a257600081600090555060010161158a565b5090565b60006115b96115b484611d18565b611ce7565b9050828152602081018484840111156115d157600080fd5b6115dc848285611f0b565b509392505050565b6000813590506115f381612090565b92915050565b600081359050611608816120a7565b92915050565b60008135905061161d816120be565b92915050565b600081519050611632816120d5565b92915050565b600081519050611647816120ec565b92915050565b600082601f83011261165e57600080fd5b813561166e8482602086016115a6565b91505092915050565b600081359050611686816120fc565b92915050565b60006020828403121561169e57600080fd5b60006116ac848285016115e4565b91505092915050565b600080604083850312156116c857600080fd5b60006116d6858286016115e4565b92505060206116e7858286016115e4565b9150509250929050565b6000806040838503121561170457600080fd5b60006117128582860161160e565b9250506020611723858286016115e4565b9150509250929050565b60006020828403121561173f57600080fd5b600061174d84828501611623565b91505092915050565b60006020828403121561176857600080fd5b600061177684828501611638565b91505092915050565b60006020828403121561179157600080fd5b600082013567ffffffffffffffff8111156117ab57600080fd5b6117b78482850161164d565b91505092915050565b6000602082840312156117d257600080fd5b60006117e084828501611677565b91505092915050565b600080604083850312156117fc57600080fd5b600061180a85828601611677565b925050602061181b858286016115f9565b9150509250929050565b60008060006060848603121561183a57600080fd5b600061184886828701611677565b935050602084013567ffffffffffffffff81111561186557600080fd5b6118718682870161164d565b9250506040611882868287016115f9565b9150509250925092565b600061189883836118d0565b60208301905092915050565b60006118b08383611a2f565b60208301905092915050565b60006118c88383611abf565b905092915050565b6118d981611e7b565b82525050565b6118e881611e7b565b82525050565b6118f781611d66565b6119018184611db9565b925061190c82611d48565b8060005b8381101561193d578151611924878261188c565b965061192f83611d92565b925050600181019050611910565b505050505050565b61194e81611d71565b6119588184611db9565b925061196382611d52565b8060005b8381101561199457815161197b87826118a4565b965061198683611d9f565b925050600181019050611967565b505050505050565b60006119a782611d7c565b6119b18185611dc4565b9350836020820285016119c385611d5c565b8060005b858110156119ff57848403895281516119e085826118bc565b94506119eb83611dac565b925060208a019950506001810190506119c7565b50829750879550505050505092915050565b611a1a81611e8d565b82525050565b611a2981611e8d565b82525050565b611a3881611ee7565b82525050565b611a4781611ee7565b82525050565b6000611a5882611d87565b611a628185611dcf565b9350611a72818560208601611f1a565b611a7b8161207f565b840191505092915050565b6000611a9182611d87565b611a9b8185611de0565b9350611aab818560208601611f1a565b611ab48161207f565b840191505092915050565b6000606083016000830151611ad76000860182611b5f565b5060208301518482036020860152611aef8282611a4d565b9150506040830151611b046040860182611a11565b508091505092915050565b6000606083016000830151611b276000860182611b5f565b5060208301518482036020860152611b3f8282611a4d565b9150506040830151611b546040860182611a11565b508091505092915050565b611b6881611edd565b82525050565b611b7781611edd565b82525050565b6000602082019050611b9260008301846118df565b92915050565b6000604082019050611bad60008301856118df565b611bba60208301846118df565b9392505050565b6000604082019050611bd660008301856118df565b611be36020830184611a3e565b9392505050565b6000604082019050611bff60008301856118df565b611c0c6020830184611b6e565b9392505050565b600061014082019050611c2960008301846118ee565b92915050565b600061014082019050611c456000830184611945565b92915050565b60006020820190508181036000830152611c65818461199c565b905092915050565b6000602082019050611c826000830184611a20565b92915050565b60006020820190508181036000830152611ca28184611a86565b905092915050565b60006020820190508181036000830152611cc48184611b0f565b905092915050565b6000602082019050611ce16000830184611b6e565b92915050565b6000604051905081810181811067ffffffffffffffff82111715611d0e57611d0d612050565b5b8060405250919050565b600067ffffffffffffffff821115611d3357611d32612050565b5b601f19601f8301169050602081019050919050565b6000819050919050565b6000819050919050565b6000819050919050565b6000600a9050919050565b6000600a9050919050565b6000600a9050919050565b600081519050919050565b6000602082019050919050565b6000602082019050919050565b6000602082019050919050565b600081905092915050565b600081905092915050565b600082825260208201905092915050565b600082825260208201905092915050565b6000611dfc82611edd565b9150611e0783611edd565b9250827fffffffffffffffffffffffffffffffffffffffffffffffffffffffffffffffff03821115611e3c57611e3b611ff2565b5b828201905092915050565b6000611e5282611edd565b9150611e5d83611edd565b925082821015611e7057611e6f611ff2565b5b828203905092915050565b6000611e8682611ebd565b9050919050565b60008115159050919050565b6000611ea482611e7b565b9050919050565b6000611eb682611e7b565b9050919050565b600073ffffffffffffffffffffffffffffffffffffffff82169050919050565b6000819050919050565b6000611ef282611ef9565b9050919050565b6000611f0482611ebd565b9050919050565b82818337600083830152505050565b60005b83811015611f38578082015181840152602081019050611f1d565b83811115611f47576000848401525b50505050565b6000611f5882611edd565b91506000821415611f6c57611f6b611ff2565b5b600182039050919050565b60006002820490506001821680611f8f57607f821691505b60208210811415611fa357611fa2612021565b5b50919050565b6000611fb482611edd565b91507fffffffffffffffffffffffffffffffffffffffffffffffffffffffffffffffff821415611fe757611fe6611ff2565b5b600182019050919050565b7f4e487b7100000000000000000000000000000000000000000000000000000000600052601160045260246000fd5b7f4e487b7100000000000000000000000000000000000000000000000000000000600052602260045260246000fd5b7f4e487b7100000000000000000000000000000000000000000000000000000000600052604160045260246000fd5b6000601f19601f8301169050919050565b61209981611e7b565b81146120a457600080fd5b50565b6120b081611e8d565b81146120bb57600080fd5b50565b6120c781611e99565b81146120d257600080fd5b50565b6120de81611eab565b81146120e957600080fd5b50565b600381106120f957600080fd5b50565b61210581611edd565b811461211057600080fd5b5056fea2646970667358221220e32b33bf1364b503887bb42c6ad0155b199db04ff6e54dec894668c03610cebf64736f6c63430008000033a2646970667358221220942c58d7013dbee077f4395bb70a331919afbe9a32f50d8cf412120f4245124064736f6c63430008000033",
  "immutableReferences": {},
  "source": "// SPDX-License-Identifier: GPL-3.0\npragma solidity >=0.8.0 <0.9.0;\npragma abicoder v2;\nenum Degree {\n    ScholarlyAcademics,\n    PracticeAcademics,\n    ScholarlyPractitioner,\n    InstructionalPractitioner\n}\n\ncontract Certificate {\n    enum State {requested, approved, rejected}\n\n    Faculty public faculty;\n    Institution public institution;\n    Degree public degree;\n    State public status = State.requested;\n    Application application;\n    event Request(address sender);\n    event Reject(address sender);\n    event Approve(address sender);\n\n    constructor(\n        Application _application,\n        Faculty _faculty,\n        Institution _institution,\n        Degree _degree\n    ) {\n        application = _application;\n        faculty = _faculty;\n        institution = _institution;\n        degree = _degree;\n        emit Request(msg.sender);\n    }\n\n    function update(Degree _degree) public payable {\n        if (editable(msg.sender)) {\n            degree = _degree;\n        }\n    }\n\n    function reject() public payable {\n        if (editable(msg.sender)) {\n            status = State.rejected;\n            application.removeCertificate(this);\n            emit Reject(msg.sender);\n        }\n    }\n\n    function approve() public payable {\n        if (editable(msg.sender) && institution.allowed(msg.sender)) {\n            status = State.approved;\n            faculty.addCertificate(this, msg.sender);\n            institution.addCertificate(this, msg.sender);\n            application.removeCertificate(this);\n            emit Approve(msg.sender);\n        }\n    }\n\n    function editable(address _address) public view returns (bool) {\n        return ((status == State.requested &&\n            (institution.allowed(_address))) || faculty.allowed(_address));\n    }\n}\n\ncontract Faculty {\n    uint256 id;\n    string public name;\n    address public owner;\n    Certificate[] public certificates;\n    Institution public currentInstitution;\n    Application application;\n    event CertificateAdded(address assigner, Certificate certificate);\n\n    constructor(\n        Application _application,\n        uint256 _id,\n        string memory _name,\n        address _owner\n    ) {\n        application = _application;\n        name = _name;\n        id = _id;\n        owner = _owner;\n    }\n\n    function update(string memory _name) public payable {\n        if (allowed(msg.sender)) {\n            name = _name;\n        }\n    }\n\n    function assignInstitution(address _institutionAddress) public payable {\n        Institution _institution = Institution(_institutionAddress);\n        if (_institution.allowed(msg.sender)) {\n            currentInstitution = _institution;\n        }\n    }\n\n    function allowed(address _address) public view returns (bool) {\n        return _address == owner;\n    }\n\n    function addCertificate(Certificate _certificate, address _address)\n        public\n        payable\n    {\n        if (\n            _certificate.institution().allowed(_address) &&\n            _certificate.status() == Certificate.State.approved &&\n            _certificate.faculty() == this\n        ) {\n            certificates.push(_certificate);\n            emit CertificateAdded(_address, _certificate);\n        }\n    }\n\n    function certificatesLength() public view returns (uint256) {\n        return certificates.length;\n    }\n}\n\ncontract Institution {\n    struct StaffMember {\n        uint256 id;\n        string name;\n        bool active;\n    }\n\n    uint256 public id;\n    string public name;\n    address public owner;\n\n    Certificate[] certificates;\n    Application application;\n    address[] public allowedModifiers;\n    mapping(address => bool) allowedModifiersMap;\n\n    mapping(uint256 => StaffMember) staffMembers;\n    uint256 nextStaffMembersId = 1;\n\n    mapping(uint256 => Faculty) faculties;\n    uint256 nextFacultyId;\n\n    event Update(address by, string previousName, string newName);\n    event ModifierAdded(address by, address modifierAddress);\n    event ModifierRemoved(address by, address modifierAddress);\n    event StaffMemberAdded(address by, uint256 id);\n    event CertificateAdded(address by, Certificate certificate);\n\n    constructor(\n        Application _application,\n        uint256 _id,\n        string memory _name,\n        address sender\n    ) {\n        application = _application;\n        id = _id;\n        name = _name;\n        owner = sender;\n        allowedModifiers.push(sender);\n        allowedModifiersMap[sender] = true;\n    }\n\n    function update(string memory _name) public payable {\n        if (allowed(msg.sender)) {\n            name = _name;\n        }\n    }\n\n    function staffMember(uint256 _from)\n        public\n        view\n        returns (StaffMember memory)\n    {\n        return staffMembers[_from];\n    }\n\n    function listStaffMembers(uint256 _from, bool skipInactive)\n        public\n        view\n        returns (StaffMember[10] memory)\n    {\n        StaffMember[10] memory list;\n        for (uint256 i = 0; i < 10; i++) {\n            if (nextStaffMembersId < i + _from + 1) {\n                i = 10;\n            } else if (skipInactive && !staffMembers[i + _from + 1].active) {\n                _from++;\n                i--;\n            } else {\n                list[i] = staffMembers[i + _from + 1];\n            }\n        }\n        return list;\n    }\n\n    function staffMembersLength() public view returns (uint256) {\n        return nextStaffMembersId - 1;\n    }\n\n    function createStaffMember(string memory _name) public payable {\n        if (allowed(msg.sender)) {\n            uint256 _nextStaffMemberId = nextStaffMembersId++;\n            StaffMember storage _staffMember = staffMembers[_nextStaffMemberId];\n            _staffMember.id = _nextStaffMemberId;\n            _staffMember.name = _name;\n            _staffMember.active = true;\n            emit StaffMemberAdded(msg.sender, _staffMember.id);\n        }\n    }\n\n    function updateStaffMember(\n        uint256 _staffMemberId,\n        string memory _name,\n        bool _active\n    ) public payable {\n        if (allowed(msg.sender)) {\n            StaffMember storage _staffMember = staffMembers[_staffMemberId];\n            _staffMember.name = _name;\n            _staffMember.active = _active;\n        }\n    }\n\n    function listModifiers(uint256 _from)\n        public\n        view\n        returns (address[10] memory)\n    {\n        address[10] memory list;\n        for (uint256 i = 0; i < 10; i++) {\n            if (i + _from >= allowedModifiers.length) {\n                i = 10;\n            } else {\n                list[i] = allowedModifiers[i + _from];\n            }\n        }\n        return list;\n    }\n\n    function modifiersLength() public view returns (uint256) {\n        return allowedModifiers.length;\n    }\n\n    function addModifier(address _modifier) public payable {\n        if (allowed(msg.sender) && !allowedModifiersMap[_modifier]) {\n            allowedModifiers.push(_modifier);\n            allowedModifiersMap[_modifier] = true;\n            emit ModifierAdded(msg.sender, _modifier);\n        }\n    }\n\n    function removeModifier(address _modifier) public payable {\n        if (allowedToRemove(msg.sender, _modifier)) {\n            for (uint256 i = 0; i < allowedModifiers.length; i++) {\n                if (allowedModifiers[i] == _modifier) {\n                    uint256 _lastIndex = allowedModifiers.length - 1;\n                    if (i < _lastIndex) {\n                        allowedModifiers[i] = allowedModifiers[_lastIndex];\n                    }\n                    allowedModifiers.pop();\n                }\n            }\n            delete allowedModifiersMap[_modifier];\n            emit ModifierRemoved(msg.sender, _modifier);\n        }\n    }\n\n    function allowedToRemove(address _sender, address _toRemove)\n        public\n        view\n        returns (bool)\n    {\n        if (allowed(_sender)) {\n            if (_sender == _toRemove) {\n                return false;\n            } else if (_toRemove == owner) {\n                return false;\n            } else {\n                return true;\n            }\n        } else {\n            return false;\n        }\n    }\n\n    function allowed(address _modifierAddress) public view returns (bool) {\n        return allowed(_modifierAddress, 0);\n    }\n\n    function allowed(address modifierAddress, uint256 index)\n        private\n        view\n        returns (bool)\n    {\n        if (modifierAddress == allowedModifiers[index]) {\n            return true;\n        } else if (index < allowedModifiers.length - 1) {\n            return allowed(modifierAddress, index + 1);\n        } else {\n            return false;\n        }\n    }\n\n    function addCertificate(Certificate _certificate, address _address)\n        public\n        payable\n    {\n        if (\n            allowed(_address) &&\n            _certificate.status() == Certificate.State.approved &&\n            _certificate.institution() == this\n        ) {\n            certificates.push(_certificate);\n            emit CertificateAdded(_address, _certificate);\n        }\n    }\n\n    function issuedCertificates(uint256 _from)\n        public\n        view\n        returns (Certificate[10] memory)\n    {\n        Certificate[10] memory _list;\n        uint256 _count = 0;\n        for (uint256 i = _from; i < certificates.length && _count < 10; i++) {\n            _list[_count] = certificates[i];\n            _count++;\n        }\n        return _list;\n    }\n\n    function issuedCertificatesLength() public view returns (uint256) {\n        return certificates.length;\n    }\n}\n\ncontract Insututions {\n    Application application;\n    mapping(uint256 => Institution) public institutions;\n    uint256 nextInstitutionId = 0;\n    event InstitutionAdded(address by, Institution institution);\n\n    constructor(Application _application) {\n        application = _application;\n    }\n\n    function createInstitution(string memory _name) public payable {\n        uint256 _id = nextInstitutionId++;\n        Institution _institution =\n            new Institution(application, _id, _name, msg.sender);\n        institutions[_id] = _institution;\n        emit InstitutionAdded(msg.sender, (_institution));\n    }\n\n    function listInstitutions(uint256 _from)\n        public\n        view\n        returns (Institution[10] memory)\n    {\n        Institution[10] memory list;\n        for (uint256 i = 0; i < 10; i++) {\n            list[i] = institutions[i + _from];\n        }\n        return list;\n    }\n}\n\ncontract Faculties {\n    Application application;\n    mapping(address => Faculty) public faculties;\n    mapping(uint256 => Faculty) facultiesByIndex;\n    uint256 nextFacultyId = 0;\n    event FacultyAdded(address by, address facultyAddress);\n\n    constructor(Application _application) {\n        application = _application;\n    }\n\n    function createFaculty(string memory _name) public payable {\n        if (address(faculties[msg.sender]) == address(0x0)) {\n            uint256 _id = nextFacultyId++;\n            Faculty faculty = new Faculty(application, _id, _name, msg.sender);\n            facultiesByIndex[_id] = faculty;\n            faculties[msg.sender] = faculty;\n            emit FacultyAdded(msg.sender, address(faculty));\n        }\n    }\n\n    function listFaculties(uint256 _from)\n        public\n        view\n        returns (Faculty[10] memory)\n    {\n        Faculty[10] memory list;\n        for (uint256 i = 0; i < 10; i++) {\n            list[i] = facultiesByIndex[i + _from];\n        }\n        return list;\n    }\n}\n\ncontract Certificates {\n    Certificate[] pendingCertificates;\n    Application application;\n    event CertificateRequested(address by, Certificate certificate);\n    event CertificateRemoved(address by, Certificate certificate);\n\n    constructor(Application _application) {\n        application = _application;\n    }\n\n    function requestCertificate(\n        Faculty _faculty,\n        Institution _institution,\n        Degree _degree\n    ) public payable {\n        Certificate _certificate =\n            new Certificate(application, _faculty, _institution, _degree);\n        pendingCertificates.push(_certificate);\n        emit CertificateRequested(msg.sender, (_certificate));\n    }\n\n    function removeCertificate(Certificate _certificate) public payable {\n        for (uint256 i = 0; i < pendingCertificates.length; i++) {\n            if (pendingCertificates[i] == _certificate) {\n                uint256 _lastIndex = pendingCertificates.length - 1;\n                if (i < _lastIndex) {\n                    pendingCertificates[i] = pendingCertificates[_lastIndex];\n                }\n                pendingCertificates.pop();\n            }\n        }\n        emit CertificateRemoved(msg.sender, (_certificate));\n    }\n\n    function pendingCertificateLengthForFaculty(Faculty _faculty)\n        public\n        view\n        returns (uint256)\n    {\n        uint256 _count = 0;\n        for (uint256 i = 0; i < pendingCertificates.length; i++) {\n            if (pendingCertificates[i].faculty() == _faculty) {\n                _count++;\n            }\n        }\n        return _count;\n    }\n\n    function pendingCertificateForFaculty(Faculty _faculty, uint256 _from)\n        public\n        view\n        returns (Certificate[10] memory)\n    {\n        Certificate[10] memory _list;\n        uint256 _count = 0;\n        uint256 _toSkip = 0;\n        for (\n            uint256 i = 0;\n            i < pendingCertificates.length && _count >= 10;\n            i++\n        ) {\n            if (pendingCertificates[i].faculty() == _faculty) {\n                if (_toSkip >= _from) {\n                    _list[_count] = pendingCertificates[i];\n                    _count++;\n                }\n                _toSkip++;\n            }\n        }\n        return _list;\n    }\n\n    function pendingCertificateLengthForInstitution(Institution _institution)\n        public\n        view\n        returns (uint256)\n    {\n        uint256 _count = 0;\n        for (uint256 i = 0; i < pendingCertificates.length; i++) {\n            if (pendingCertificates[i].institution() == _institution) {\n                _count++;\n            }\n        }\n        return _count;\n    }\n\n    function pendingCertificateForInstitution(\n        Institution _institution,\n        uint256 _from\n    ) public view returns (Certificate[10] memory) {\n        Certificate[10] memory _list;\n        uint256 _count = 0;\n        uint256 _toSkip = 0;\n        for (\n            uint256 i = 0;\n            i < pendingCertificates.length && _count >= 10;\n            i++\n        ) {\n            if (pendingCertificates[i].institution() == _institution) {\n                if (_toSkip >= _from) {\n                    _list[_count] = pendingCertificates[i];\n                    _count++;\n                }\n                _toSkip++;\n            }\n        }\n        return _list;\n    }\n}\n\ncontract Application {\n    /*\n    Application is the root contract that the UI will use to interact with sub contracts \n    */\n    Insututions insututions;\n    Faculties faculties;\n    Certificates certificates;\n\n    constructor() {\n        insututions = new Insututions(this);\n        faculties = new Faculties(this);\n        certificates = new Certificates(this);\n    }\n\n    function createInstitution(string memory _name) public payable {\n        insututions.createInstitution(_name);\n    }\n\n    function listInstitutions(uint256 _from)\n        public\n        view\n        returns (Institution[10] memory)\n    {\n        return insututions.listInstitutions(_from);\n    }\n\n    function createFaculty(string memory _name) public payable {\n        return faculties.createFaculty(_name);\n    }\n\n    function listFaculties(uint256 _from)\n        public\n        view\n        returns (Faculty[10] memory)\n    {\n        return faculties.listFaculties(_from);\n    }\n\n    function requestCertificate(\n        Faculty _faculty,\n        Institution _institution,\n        Degree _degree\n    ) public payable {\n        certificates.requestCertificate(_faculty, _institution, _degree);\n    }\n\n    function removeCertificate(Certificate _certificate) public payable {\n        certificates.removeCertificate(_certificate);\n    }\n\n    function pendingCertificateLengthForFaculty(Faculty _faculty)\n        public\n        view\n        returns (uint256)\n    {\n        return certificates.pendingCertificateLengthForFaculty(_faculty);\n    }\n\n    function pendingCertificateForFaculty(Faculty _faculty, uint256 _from)\n        public\n        view\n        returns (Certificate[10] memory)\n    {\n        return certificates.pendingCertificateForFaculty(_faculty, _from);\n    }\n\n    function pendingCertificateLengthForInstitution(Institution _institution)\n        public\n        view\n        returns (uint256)\n    {\n        return\n            certificates.pendingCertificateLengthForInstitution(_institution);\n    }\n\n    function pendingCertificateForInstitution(\n        Institution _institution,\n        uint256 _from\n    ) public view returns (Certificate[10] memory) {\n        return\n            certificates.pendingCertificateForInstitution(_institution, _from);\n    }\n}\n",
  "sourcePath": "/home/mortadaak/projects/aacsb_accreditiation/contracts/Application.sol",
  "compiler": {
    "name": "solc",
    "version": "0.8.0+commit.c7dfd78e.Emscripten.clang"
  },
  "schemaVersion": "3.3.3",
  "updatedAt": "2021-01-16T17:37:46.093Z",
  "devdoc": {
    "kind": "dev",
    "methods": {},
    "version": 1
  },
  "userdoc": {
    "kind": "user",
    "methods": {},
    "version": 1
  }
}